:100000000C9475040C9492040C9492040C94920435
:100010000C9492040C9492040C9492040C94920408
:100020000C9492040C9492040C941E240C94F224CC
:100030000C94561E0C9492040C9492040C9492040A
:100040000C9492040C9492040C9492040C949204D8
:100050000C9492040C94DD1E0C9492040C94920463
:100060000C9492040C9492040C9492040C949204B8
:100070000C9492040C9492040C9492040C949204A8
:100080000C9492040C9492040C9492040C94920498
:100090000C9492040C9492040C9492040C94920488
:1000A0000C9492040C9492040C9492041D011B0174
:1000B0000601190144454255473A2064697361625B
:1000C0006C65642E0A0044454255473A20656E61CE
:1000D000626C65642E0A000A0025303258006C6597
:1000E000645F7461736B3A20004F6E6573686F7460
:1000F0003A206163746976653A2025640A000A0033
:1001000025303862003A200025303258000A722F1C
:10011000632030313233343536370A00290A00255E
:1001200075002F002575005D28002564002000253E
:100130006400200025640020002564007C00253038
:100140003258006D6F7573656B6579205B62746EF4
:100150007C782079207620685D287265702F616335
:100160006C293A205B00313A0964656C6179282A70
:1001700031306D73293A2025750A323A09696E7457
:10018000657276616C286D73293A2025750A333AB9
:10019000096D61785F73706565643A2025750A346E
:1001A0003A0974696D655F746F5F6D61783A2025F7
:1001B000750A353A09776865656C5F6D61785F73BC
:1001C000706565643A2025750A363A097768656571
:1001D0006C5F74696D655F746F5F6D61783A20253F
:1001E000750A00703A097072696E742076616C75D8
:1001F00065730A643A097365742064656661756C99
:1002000074730A75703A092B310A646E3A092D31FC
:100210000A6C743A092B31300A72743A092D313064
:100220000A4553432F713A09717569740A0A73704C
:10023000656564203D2064656C7461202A206D61D1
:10024000785F7370656564202A2028726570656127
:1002500074202F2074696D655F746F5F6D617829FC
:100260000A77686572652064656C74613A2063750D
:1002700072736F723D25642C20776865656C3D252F
:10028000640A53656520687474703A2F2F656E2E6A
:1002900077696B6970656469612E6F72672F776922
:1002A0006B692F4D6F7573655F6B6579730A004DD0
:1002B0003E20004D25753A25733E20003F0A003D43
:1002C0002025750A003F0A0064656661756C7473C9
:1002D0000A0025750A003F0A000A092D2056616CA4
:1002E000756573202D0A00710A000A092D204D6FD3
:1002F0007573656B6579202D0A003F00433E200031
:100300004C25640A000A092D20537461747573200A
:100310002D0A686F73745F6B6579626F6172645FD9
:100320006C65647328293A20253032580A6B657948
:10033000626F6172645F70726F746F636F6C3A208A
:10034000253032580A6B6579626F6172645F696447
:100350006C653A20253032580A74696D65725F7297
:10036000656164333228293A202530386C580A00F8
:100370002573000A092D20436F6E736F6C65202D65
:100380000A4553432F713A09717569740A6D3A0928
:100390006D6F7573656B65790A000A092D204D61D3
:1003A000676963202D0A443A094465627567204DE8
:1003B00065737361676520546F67676C650A583AA7
:1003C000094D6174726978204465627567204D6FCC
:1003D000646520546F67676C65202D2053686F77C4
:1003E000206B65797072657373657320696E206D1B
:1003F000617472697820677269640A4B3A094B65C7
:1004000079626F61726420446562756720546F671A
:10041000676C65202D2053686F77206B657970724B
:10042000657373207265706F72740A4D3A09446582
:10043000627567204D6F75736520546F67676C65D3
:100440000A563A0956657273696F6E0A533A095330
:1004500074617475730A433A09416374697661740F
:100460006520436F6E736F6C65204D6F64650A463F
:10047000312D4631303A0953776974636820746FBF
:10048000204C6179657220302D392028463130208A
:100490003D204C30290A302D393A0953776974636D
:1004A0006820746F204C6179657220302D390A47BD
:1004B000524156453A0953776974636820746F2036
:1004C0004C6179657220302028616C7465726E61B0
:1004D0007465290A423A094A756D7020746F20428A
:1004E0006F6F746C6F616465720A4553433A094AD1
:1004F000756D7020746F20426F6F746C6F616465EE
:10050000722028616C7465726E617465290A453ABF
:10051000095072696E7420454550524F4D20536505
:100520007474696E67730A4241434B5350414345AB
:100530003A09436C65617220454550524F4D0A009F
:100540006B65796D61705F636F6E6669672E72614E
:10055000773A20253032580A2E737761705F636FC7
:100560006E74726F6C5F636170736C6F636B3A2053
:1005700025750A2E636170736C6F636B5F746F5FB8
:10058000636F6E74726F6C3A2025750A2E737761F3
:10059000705F6C63746C5F6C6775693A2025750ACF
:1005A0002E737761705F7263746C5F726775693AFE
:1005B0002025750A2E737761705F6C616C745F6CB7
:1005C0006775693A2025750A2E737761705F7261CD
:1005D0006C745F726775693A2025750A2E6E6F5FBD
:1005E0006775693A2025750A2E737761705F6772A7
:1005F0006176655F6573633A2025750A2E737761AE
:10060000705F6261636B736C6173685F6261636B7F
:1006100073706163653A2025750A2E6E6B726F3AAE
:100620002025750A2E737761705F6573636170654D
:100630005F636170736C6F636B3A2025750A0064A9
:10064000656275675F636F6E6669672E7261773A80
:1006500020253032580A2E656E61626C653A20257D
:10066000750A2E6D61747269783A2025750A2E6BB1
:100670006579626F6172643A2025750A2E6D6F7517
:1006800073653A2025750A006565636F6E66696754
:100690003A0A64656661756C745F6C617965723A7B
:1006A0002025750A003F000A6D6F7573653A206F4B
:1006B00066660A000A6D6F7573653A206F6E0A00F0
:1006C0000A6B6579626F6172643A206F66660A0030
:1006D0000A6B6579626F6172643A206F6E0A000A74
:1006E0006D61747269783A206F66660A000A6D61FE
:1006F000747269783A206F6E0A000A6465627567E1
:100700003A206F66660A000A64656275673A206F70
:100710006E0A000A0A4A756D70696E6720746F2050
:10072000626F6F746C6F616465722E2E2E200043B1
:100730003E2000436C656172696E672045455052EA
:100740004F4D0A000A002530325820006B6579624F
:100750006F6172645F7265706F72743A20005B73D0
:100760005D005B575D005B535D005B525D005B4469
:100770005D005B435D0010036D0065006900730060
:100780006800690032000000120342006900610045
:10079000630063006F0034003200000004030904AA
:1007A00009025B00030100A0FA0904000001030133
:1007B0000100092111010001224000070581030801
:1007C00000010904010001030000000921110100DA
:1007D00001227B00070582032000010904020002B8
:1007E00003000000092111010001222200070583F6
:1007F000032000010705030320000112010002008D
:1008000000000842BC03000100010200010631FFA4
:100810000974A1010975150026FF0095207508814E
:10082000020976150026FF00952075089102C00583
:10083000010902A10185020901A100050919012987
:100840000815002501950875018102050109300987
:10085000311581257F950275088106093815812596
:100860007F950175088106050C0A38021581257FE0
:10087000950175088106C0C005010980A1018503A5
:1008800019012AB700150126B700950175108100DE
:10089000C0050C0901A101850419012AA002150156
:1008A00026A002950175108100C005010906A1016D
:1008B000050719E029E71500250195087501810252
:1008C0009501750881010507190029FF150026FF0C
:1008D000009506750881000508190129059505751B
:1008E000019102950175039101C011241FBECFEF44
:1008F000DAE0DEBFCDBF12E0A0E0B1E0E2EFFEE45F
:1009000002C005900D92A23AB107D9F723E0A2EAFE
:10091000B2E001C01D92A435B207E1F70E949C1419
:100920000C9461270C940000FF93EF93E091A202D6
:10093000F091A302309709F00995EF91FF91089586
:10094000FC018591803011F0EFDFFBCF0895FF2788
:10095000E0E230E247FF0CC0419597FF09C0EDE2AD
:100960006095709580959095611D711D811D911DFB
:1009700027FF02C0219530E350E2AA27660F771FB8
:10098000881F991FAA1FA41710F0A41B63955A95DE
:10099000A9F7AA3008F0A95FA05DAF93F3956115A0
:1009A00071058105910541F7ED3211F4EF93F3954F
:1009B000F21718F43F93F395FBCF8F91B5DFFA95BB
:1009C000E1F70895E991F9918591803021F0853220
:1009D00019F0AADFF9CF089520E0E8945591553237
:1009E000C1F3503311F4689455915A3348F450537D
:1009F00090F3220F022E220F220F200D250FF4CF8D
:100A00000EF4219589919991533619F3533729F1B1
:100A1000533559F1BC0188279927E8945C3621F4B5
:100A20008991999168945591543639F446EF7EF046
:100A300077FF0DC08FEF9FEF0AC055374AE039F0BE
:100A4000583540E121F0523642E009F00895FF9315
:100A5000EF937DDFEF91FF91B7CFFF93EF93FC0111
:100A600081918030B9F360DFFBCFFF93EF9368DFB4
:100A7000F1CFDF93CF93CDB7DEB72596A3DFCF912C
:100A8000DF91089581E0089581E008950E94440572
:100A9000089508950E9449050895A5E0B0E0E3E5B2
:100AA000F5E00C94CD2649835A833091A9028981BF
:100AB0009A81311119C0662399F0222389F00E948E
:100AC000930B182F682F89819A810E94700B69817E
:100AD0007A81812F0E9413122596E3E00C94E92677
:100AE0000E94810B182FF3CF0E94930B69817A81AA
:100AF000F1CFFC01262F4081518162817381848175
:100B00000E944D05089581E00895CF93DF93EC0195
:100B100060E00E947905BE010E944A05DF91CF91F5
:100B200008950E94351308950E9439130895089579
:100B30000E943B0A0E9497052FEF84E39CE021501E
:100B400080409040E1F700C0000008950E949805A1
:100B50000E94011F08950E9498050E94121F089587
:100B60000F931F93CF93DF938C0161E00E9479056F
:100B7000EC01B8010E944605811106C080E0DF91BA
:100B8000CF911F910F910895B801CE010E94CA1C08
:100B90008823A1F3B801CE010E94AF17882371F317
:100BA000B801CE010E943C1C882341F3F8018281E8
:100BB0008823D9F0CB35FDE5DF07A9F170F4C1300A
:100BC000ECE5DE07B1F0CF3DFCE5DF0721F1C11513
:100BD000DC4559F40E94A605D1CFCD35EDE5DE0701
:100BE000F9F020F1C83ADD45C1F0C8010E94420584
:100BF000C6CF90910A03892F8E7F90FF81608093EA
:100C00000A0380FF05C086EC90E00E94A004B6CFE6
:100C100084EB90E0FACF0E9459100E94AB05AECF52
:100C20000E949E0FE2CF0E94A80FDFCF0E94AC0F60
:100C3000DCCF0E94321E0E944E0608950E9452068A
:100C40000E94371E0895829590E09C01220F331F69
:100C5000220F331F2C7C95958795959587958373E7
:100C6000282B30E0C901880F991F8A7A359527957E
:100C70002575822B089508950E943B06089581E012
:100C800008950E943F0608950895CF93C82F0E94AB
:100C90003C068C2F0E944106CF91089580E00E946F
:100CA000450608950E94261D0E9445060895CF938B
:100CB0000E94261DC82F8091A4028C1789F1C09331
:100CC000A4020E94C21E6093A5027093A6028093A4
:100CD000A7029093A80280910A0382FF1EC080FFA2
:100CE0001CC08EED90E00E94A00480910A0380FF5A
:100CF00014C01F92CF9389ED90E09F938F930E9431
:100D0000390580910A030F900F900F900F9080FF8C
:100D100004C087ED90E00E94A0048C2F0E9445063D
:100D2000CF910895ABE0B0E0E8E9F6E00C94CE2670
:100D30004F83588769877A878B8761110E94D60E07
:100D40001E821D8285E0FE013796DE01119601901C
:100D50000D928A95E1F78C819D81892B61F44981FF
:100D60005A816B817C818D819E810E94FF0D2B9623
:100D7000E2E00C94EA2689819A8189238F3F79F3F6
:100D8000CE0101960E9483058111E9CFF0CFFC01CD
:100D9000808191810E94C50B0895CF93C82F88232D
:100DA000C9F08238C9F40E94261D81FD13C089E371
:100DB0000E948E0E0E94F70E2FEF87EE93E02150D7
:100DC00080409040E1F700C0000089E30E94960E49
:100DD0000E94F70ECF9108958338A1F40E94261D3A
:100DE00080FDF8CF83E50E948E0E0E94F70E2FEF54
:100DF00081EE94E0215080409040E1F700C0000077
:100E000083E5E4CF8438A1F40E94261D82FDE2CF61
:100E100087E40E948E0E0E94F70E2FEF81EE94E081
:100E2000215080409040E1F700C0000087E4CECF21
:100E30008CEF8C0F813AB8F48C2F0E94E81B811143
:100E4000C9CF6C2F80910001909101010E94C31DB8
:100E5000882329F08C2F0E94960E0E94F70E8C2F6B
:100E60000E948E0EB5CF80E28C0F883048F4C77098
:100E700081E001C0880FCA95EAF70E94B90EA8CF99
:100E8000EBE5EC0FE33040F4F0E0EB5BFE4F8081EC
:100E900090E00E94851D9ECFE8E5EC0FE73150F40D
:100EA000F0E0EE0FFF1FE95EFE4F808191810E940E
:100EB0009B1D90CFCD3E08F48DCF8C2F0E94201526
:100EC0000E94F31587CF882309F455C0823879F43E
:100ED0000E94261D81FF4FC089E30E948E0E0E9452
:100EE000F70E89E30E94960E0E94F70E089583384C
:100EF00059F40E94261D80FF3EC083E50E948E0E9D
:100F00000E94F70E83E5EECF843859F40E94261D27
:100F100082FF31C087E40E948E0E0E94F70E87E4A4
:100F2000E1CF9CEF980F913AE8F290E2980F983059
:100F300050F4877091E001C0990F8A95EAF7892FE4
:100F40000E94BF0ED1CF9BE5980F933028F490E01C
:100F500080E00E94851D089598E5980F973128F448
:100F600090E080E00E949B1D08958D3E20F00E943D
:100F70007A150E94F31508951F93CF93DF93182FCE
:100F8000EB010E94CD06209739F4812F0E94630760
:100F9000DF91CF911F9108958FE99FE00197F1F7BD
:100FA00000C000002197EFCF70E060E0893311F4BA
:100FB00060E570E00E94BC070895882321F00E943C
:100FC000B90E0E94F70E0895882321F00E94BF0EEB
:100FD0000E94F70E0895B0E0A0E0E1EFF7E00C9476
:100FE000C7266C01D62FC72FFC011281F580F29421
:100FF0009FE0F9220E94AF0EE82E8823B9F0E12E7F
:101000001123A1F08C2F807F803421F080E28D0F9E
:101010008830D0F080913E0382FF16C082E00E94AB
:101020005A0F0E94AF0E91E0E82EE926BC2EB29432
:101030008FE0B822FBE0FB1508F468C0EB2DF0E070
:10104000ED59F84D0C94B826E12CF0CF0C2F0F7011
:10105000C07F11F00295007F112399F0002359F011
:1010600080E28D0F883010F0D11107C0802F0E94D0
:10107000B90E0E94F70E8D2F41C0802F0E94C90E1D
:10108000F8CF8D2F0E946307002309F43FC080E250
:101090008D0F883010F0D11104C0802F0E94BF0E38
:1010A00003C0802F0E94CF0E0E94F70E2FC00C2F7E
:1010B0000F70C07FC03211F00295007FDD2381F0F8
:1010C000D13009F463C0112309F46DC0FF2009F485
:1010D00063C0F601858180FFCECF8F7085835CC0B1
:1010E00080913E0382FD33C0112359F0002329F083
:1010F000802F0E94B90E0E94F70E80E00E94CD065C
:1011000005C080E00E9463070111C7CFEB2DE850B6
:10111000FF0B349720F40E94261D0E944506EE2006
:1011200089F00E94AB0E80FD0DC0F60112820E9474
:10113000A50E0E94CE0AC6010E94FB090E94A50EC0
:101140000E94DE0ACDB7DEB7E9E00C94E326112356
:1011500089F0F11006C00E94D90E802B0E94DD0795
:10116000D5CF21E0F212F7CF0E94D90E802B0E943A
:10117000E00ECCCFF11006C00E94ED0E802F0E9431
:10118000E407C4CF31E0F31609F2F6CF112331F0B2
:1011900085E08F1508F4BACF802FE0CF94E09F153B
:1011A00008F4B4CFEBCFFF2049F3D93349F4FFEF74
:1011B00027EE33E0F15020403040E1F700C000005E
:1011C0008D2F0E946307A2CF8C2F86958695837002
:1011D00069F0813009F09ACF8D2F9C2F93701111F7
:1011E00002C090E080E00E949B1D90CF8D2F9C2F2D
:1011F0009370111102C090E080E00E94851D86CF9F
:101200008D2F112329F00E9420150E94F3157ECF07
:101210000E947A15FACF8C2F8370A1F5111176CF29
:101220004D2F429546954770440F440F2D2F2F7038
:1012300030E0042E02C0220F331F0A94E2F790E040
:1012400080E0D4FF09C08FE090E002C0880F991FB2
:101250004A95E2F780959095C695C695C370822B06
:10126000932BC23049F058F4C13019F00E949C0A07
:101270004DCF0E94930A4ACF0E94A50A47CF0E94F1
:10128000900A44CF8695112311F08C2F817088230A
:1012900009F43CCF4D2F429546954770440F440FBB
:1012A0002D2F2F7030E0042E02C0220F331F0A941E
:1012B000E2F790E080E0D4FF09C08FE090E002C048
:1012C000880F991F4A95E2F780959095C695C69527
:1012D000C370822B932BC23049F058F4C13019F0FF
:1012E0000E94090B13CF0E94000B10CF0E94120B1B
:1012F0000DCF0E94B40A0ACFCF70112329F08C2F92
:101300000E94CE0A8D2F2ACF8D2F0E94E4078C2FAA
:101310000E94DE0AFBCED23F51F160F4D03FB9F01B
:10132000D13F81F0112309F449C0F110A4CE8C2FD4
:101330008F7121C0D33F11F1D43FA1F780913E03BB
:1013400082FD26C08C2F8F71112311F314C011233D
:1013500049F084E08F1508F4D9CE8C2F8F710E944C
:10136000F00AD4CE95E09F1508F4D0CEF6CF8C2F9E
:101370008F711111CDCF0E94CE0AC8CE112329F052
:101380008C2F8F710E94C20AC1CE0E94BD0ABECEB0
:10139000112349F0CF718C2F0E94CE0A63E08C2F6D
:1013A0000E943C0FB3CE81E00E945A0FE1E0EF159E
:1013B00008F0ACCE82E00E945A0FA8CEF110F5CE14
:1013C0008C2F8F71A5CF0F931F93CF93DF93EC01D9
:1013D000688179818A810E94D00B8C010E941B0B4D
:1013E0000E948F0AB801CE010E94EB07DF91CF91D6
:1013F0001F910F910895CF93DF93EC018B819C8116
:10140000892B29F08881998189238F3F51F4DF91BD
:10141000CF910895CE010E94E309CE010E94850577
:10142000F6CFCE010E94B0058111F4CF0E94AF0E1D
:10143000882369F38A81882351F380913E0382FFD8
:10144000E6CF82E00E945A0FE2CF90E080E00E9457
:10145000851D90E080E00E949B1D0E94D60E0E9498
:10146000F70E0E9491160E94F31508950E949E0E99
:101470000E94250A08950E94C60E0E94360A089509
:1014800092959F70963091F058F4925F9F709230D1
:1014900058F4803F19F030F4883E30F481E008952C
:1014A0009A5FF4CF843FD1F380E00895883EB0F393
:1014B000813FD1F7F3CFFC0183819481892B29F0FF
:1014C0008081918189238F3F11F480E0089580818C
:1014D00091810E94C50B0E94400A0895A5E0B0E0EA
:1014E000E4E7FAE00C94CE262596E2E00C94EA2696
:1014F000A6E0B0E0EEE7FAE00C94CE262696E2E015
:101500000C94EA2608950E94820A08950E94830A94
:101510009093B1028093B0020E94250A0895089525
:101520000E94860A08952091B0023091B102822B68
:10153000932B0E94860A08952091B0023091B10247
:10154000822393230E94860A08952091B00230914D
:10155000B102822793270E94860A08950E94820A78
:1015600008950E94AE0A08950E94B10A9093AF02B6
:101570008093AE020E94250A089590E080E00E94C8
:10158000B40A089521E030E0A90102C0440F551FBC
:101590008A95E2F7CA010E94B40A089521E030E07A
:1015A00002C0220F331F8A95E2F78091AE0290911C
:1015B000AF02822B932B0E94B40A089521E030E001
:1015C00002C0220F331F8A95E2F720953095809153
:1015D000AE029091AF02822393230E94B40A089531
:1015E00021E030E002C0220F331F8A95E2F780919C
:1015F000AE029091AF02822793270E94B40A089509
:101600002091AE023091AF02822B932B0E94B40A3C
:1016100008952091AE023091AF02822393230E945D
:10162000B40A08952091AE023091AF028227932729
:101630000E94B40A08950895262F277091E001C0F2
:10164000990F2A95EAF723E0769567952A95E1F7B1
:10165000660F771F660F771FFA01E60FF71F50E03E
:1016600040E0682F70E08191DF0111979B01042E0B
:1016700002C0369527950A94E2F721702195282714
:10168000292328272C934F5F5F4F4430510559F78A
:101690000895A82FA77023E0969587952A95E1F7DE
:1016A000880F991F880F991FFB01E80FF91F50E061
:1016B00040E080E0219130E00A2E02C03695279567
:1016C0000A94E2F721703327042E01C0220F0A94F6
:1016D000EAF7822B4F5F5F4F4430510559F7089569
:1016E000262F923068F4823058F4692F70E0660F2C
:1016F000771F680F711D4AEA52E0822F0E941C0B6F
:101700000895923070F4823060F4292F30E0220F77
:10171000331F6AEA72E0820F932F911D0E94490BDA
:10172000089580E00895B0E0A0E0E9E9FBE00C94C2
:10173000C7267C010091AE021091AF028091B002E9
:101740009091B102082B192BCFE0D0E0CC24C394A8
:10175000D12CBC2EC6010C2E02C0880F991F0A94F2
:10176000E2F780239123892B49F4219790F7B12C3C
:101770008B2DCDB7DEB7E9E00C94E326B7018C2FB3
:101780000E942B12019789F3F3CFCF93DF93EC01E3
:101790000E94930BBE010E942B12DF91CF910895FE
:1017A0001F93CF93DF93EB019091A902992339F016
:1017B000CB010E94C50BDF91CF911F910895882323
:1017C00069F0CB010E94930B182F682FCE010E9465
:1017D000700BBE01812F0E942B12EDCFCB010E9416
:1017E000810B182FF6CF1F93CF93DF93C091B202D6
:1017F00016E08091B3028C1304C0DF91CF911F914A
:101800000895D0E01C9FF0011D9FF00D1124EC54B1
:10181000FD4F4081518162817381848195810E9455
:10182000780A2196C770E5CF4091E4025091E50215
:101830006091E6027091E7028091E8029091E902DE
:101840000E94780A08951F93CF93DF938091E90255
:10185000807F09F049C08091E602882309F444C0E2
:101860008091B202C091B3026091E4027091E502EE
:10187000A091E702B091E802D62FD72316E0C8174F
:1018800099F190E0109711F0DF3F19F401968770FD
:10189000F6CF189F9001199F300D1124F901EC54D7
:1018A000FD4F41814713F2CF40814613EFCF428174
:1018B0004111ECCF438154814A1B5B0B483C5105DD
:1018C00028F78091E9028F7080618093E902F90125
:1018D000E754FD4F80818F708061808384EE92E0B9
:1018E0000E94FB090E94F30BDF91CF911F91089595
:1018F000A1E1B0E0EEE7FCE00C94C6268C0185E0A7
:10190000F801DE011D9601900D928A95E1F7F8012C
:10191000E28084EEC82E82E0D82E6091E7027091BA
:10192000E8026115710509F44EC19091E40220911D
:10193000E502892F82238F3F09F445C140815181FF
:10194000A380B480F090E602F501E61BF70BFF20C0
:1019500009F4EAC08091E902382F307FE83CF105B4
:1019600008F0A3C031116DC0FE2C251316C09413CE
:1019700014C0E11012C08F7080618093E9020E9450
:10198000140CC6010E94FB098091E902F8018583CD
:101990008F2D6196EAE00C94E226A114B10429F09F
:1019A000842F85238F3F09F027C180E0F82FF17045
:1019B000DF2E80FF3CC08091B2022091B30236E05E
:1019C000821315C04D875E878D859E850E94C50B4D
:1019D000292F22952F702230F0F0243018F59F70B7
:1019E000F1F0F8019581907FD1F4D12C1EC090E0E8
:1019F000389FF001399FF00D1124EC54FD4F6181A7
:101A0000651306C06081641303C06281E6120FC0D3
:101A100001968770D5CF9F7011F0882331F3805ED7
:101A2000883018F3C8010E94FB09FD2CB1CFEE20CD
:101A300009F4AECF8091E90281608093E902F12C34
:101A4000A7CF251306C0941304C0F801EE2009F4B3
:101A500087C0C8010E945B0A882319F1EE2009F1B2
:101A60008091E902803270F02091E4023091E50229
:101A700038872F831986BB86AA868C87CE01079666
:101A80000E94FB0986E0F801A4EEB2E001900D92FD
:101A90008A95E1F70E94230C0E94140CFF24F39412
:101AA00077CFC8010E94FB09F9CF311113C07A2DFD
:101AB000B98AA88A6E2D89890E946E0A84EE92E006
:101AC0000E94FB0986E0F60111928A95E9F70E94CF
:101AD000140CB5CF25130FC094130DC0E1100BC02B
:101AE000F8018583C8010E94FB0986E0F601119286
:101AF0008A95E9F74DCFC8010E945B0A882389F2D5
:101B0000EE2079F28091E902803208F4BBCF209177
:101B1000E4023091E5023A8329831B82BD82AC82C4
:101B20008E83CE010196ACCFE83CF10508F03EC0B3
:101B3000FE2CEE2009F4B5CF25132AC0941328C03B
:101B40008091E90280FD1BC0982F907FC1F0F801C1
:101B50008583903F31F0982F907F905F8F70892B15
:101B60008583C8010E94FB0986E0F801A4EEB2E07B
:101B700001900D928A95E1F70E94140C09CF86E03E
:101B8000F801A4EEB2E001900D928A95E1F700CF42
:101B9000C8010E945B0A811175CF8091E9028160C2
:101BA0008093E902C8010E94FB09F2CE7A2DB98A1E
:101BB000A88A6E2D89890E946E0A86E0F60111922C
:101BC0008A95E9F7D9CFEE2009F46BCFC8010E94BE
:101BD0005B0AF82E882309F464CF86E0F801A4EEAE
:101BE000B2E001900D928A95E1F784EE92E00E94B6
:101BF000C7060E94230CC0CF81E08E25D7CEACE073
:101C0000B0E0E5E0FEE00C94CD264F83588769876D
:101C10007A878B879C87CE0107960E94780C882351
:101C200069F08A859B85892B39F04F815885842FEF
:101C300085238F3F09F06BC016E05FC086E0FE0190
:101C40003796DE01119601900D928A95E1F78A850B
:101C50009B85892B89F38F81988589238F3F61F339
:101C60002091B30230E0C901019687709927409115
:101C7000B2024817190671F40E943B0A1092B3028F
:101C80001092B20286E0E4EEF2E0DF011D928A9546
:101C9000E9F7D2CF96E0929FD001939FB00D112427
:101CA000AC54BD4FFE01319601900D929A95E1F72B
:101CB0008093B3020E94F30BBFCF819FC001112418
:101CC0008C549D4F0E94780C8823E9F0E091B20279
:101CD0001E9FF0011124EC54FD4F4081518162811F
:101CE0007381848195810E94780A8091B20290E08C
:101CF0000196877099278093B2028091B2029091E9
:101D0000B3028913DACF2C96E3E00C94E9266985B7
:101D10007A858B859C850E94780A8ECF682F80916A
:101D20000001909101010E94F91D0895682F809192
:101D30000001909101010E94FC1D08958091000115
:101D4000909101010E94FF1D08958091F2028595F6
:101D50008595859508958091F202877008959091F8
:101D6000F202977081E009F480E008958091FD020D
:101D700008959091FD02892B8093FD02089580952E
:101D80009091FD0298239093FD0208951092FD0218
:101D900008959091FC02892B8093FC020895809510
:101DA0009091FC0298239093FC0208951092FC02FB
:101DB00008958091F302089508950E94DC0E08951D
:101DC00090913E0392FF08C09091F302981721F082
:101DD0008093F3020E94DD0E08958091F302882320
:101DE00029F01092F30280E00E94DD0E0895CF9357
:101DF000DF93E0910001F09101018091FD02808369
:101E0000E0910001F091010180819091FC02892B09
:101E100080839091F302992381F0E0910001F09189
:101E200001018081892B80838091000190910101C3
:101E30000E94B11D81110E94ED0EC0910001D09150
:101E4000010148E050E06AEE72E0CE010E940927ED
:101E5000892B59F088E0FE01AAEEB2E001900D92C4
:101E60008A95E1F7CE010E94331DDF91CF9108954D
:101E700008950E94380F089590913E0392FF11C07B
:101E800098E0899F90011124622B6093F2020E94D6
:101E9000CE0A8091F2028595859585950E94390F2D
:101EA00008950E94CE0A08951092F20280E00E94E6
:101EB000390F08959091F202809589238093F20260
:101EC000282F277091F4282F082E000C330B92171F
:101ED000130659F090913E0392FF07C085958595B2
:101EE00085950E94DE0A0E94540F0895CF93C82F53
:101EF00080913E0382FB992790F99C17E9F0C0FB83
:101F000082F980933E0380913D0390913E030E94AD
:101F1000D30F82E00E945A0F80910A0380FF0CC009
:101F20001F92CF9389EE90E09F938F930E94390583
:101F30000F900F900F900F90CF91089580913E03D6
:101F400082FB882780F991E089270E94760F089507
:101F500081E00E94760F089580E00E94760F089538
:101F600090E080E00E94272721E0883E9E4F09F004
:101F700020E0822F089582E090E00E941F270895BC
:101F800083E090E00E941F270895CF9384E090E0C3
:101F90000E941F27C82F82E290E00E941F27982FDF
:101FA0008C2FCF910895CF93C92F682F84E090E0B4
:101FB0000E942D276C2F82E290E00E942D27CF9166
:101FC0000895AB01BC018FE090E00E943F27089587
:101FD000AB01BC0183E190E00E943F27089560E0DF
:101FE00070E0CB010E94E80F089560E070E0CB0143
:101FF0000E94E10F0E94EF0F089568EE7EEF90E0DF
:1020000080E00E944B2760E082E090E00E942D2754
:1020100060E083E090E00E942D271092B1021092C0
:10202000B00260E084E090E00E942D2764E082E24C
:1020300090E00E942D2760E085E090E00E942D272F
:1020400060E086E090E00E942D276FEF87E090E04F
:102050000E942D2740E050E0BA0188E090E00E9405
:102060003F2760E08DE090E00E942D2740E050E0A7
:10207000BA0188E190E00E943F2760E087E190E0AC
:102080000E942D2740E050E0BA018CE190E00E94D0
:102090003F2770E060E080E290E00E944B2740E044
:1020A00050E0BA0188E190E00E943F270E94F50FBE
:1020B00008950E94FD0F0895682F8EE090E00E9421
:1020C0002D2708950E94C21E609306037093070394
:1020D00080930803909309036093020370930303B2
:1020E00080930403909305030895089508950E9432
:1020F0007610089508950E947A10089585EF90E271
:102100000E941C1D0E9475100E947710089581E0A6
:1021100008950E9487100895089508950E948C10D4
:102120000E948D1008950E9416130E94440608957F
:102130000E94AD1E0E940A140E9493100E947B1000
:102140000895AAE0B0E0E7EAF0E10C94C6260E9408
:102150001A141091000380E00E943C1318132DC044
:102160001091010381E00E943C13181326C00E94C5
:10217000B61E8C018091FE029091FF02081719078C
:10218000A1F08FEF89838A831B820E94B61E816033
:10219000782F9D838C8349815A816B818D810E9428
:1021A00092061093FF020093FE020E94B3160E9453
:1021B00057062A96EAE00C94E22680910A0381FDF4
:1021C0000E9442130E948910A82E80E0C82E83E04E
:1021D000D82E10E0812F0E943C13082FF601819128
:1021E0006F01081729F1E02EE826B12CFF24F394A3
:1021F0008E2D8F21B1F0AA20A1F0BE821F8391E025
:10220000802F8F2109F490E098870E94B61E81608C
:10221000782F9A8789874E815F8168858A850E9499
:102220009206FF0CF1E0BF120AC0F601319700835D
:10223000113019F40E946210B8CF11E0CBCFBB244B
:10224000B394D6CFCF93DF930E943012EC01811567
:1022500021E5920708F042C0811530E5930708F0A8
:102260009FC0883E910530F5803E910508F094C0EE
:10227000883A910588F4853A910508F086C0813046
:10228000910509F489C0009709F486C0049708F005
:1022900083C0D0E0C0E080C08F3B9105D0F7C85A22
:1022A000D0E0CC0FDD1FC85BDE4F0990D881C02D78
:1022B000D46472C0811540E2940750F4C11581E0E6
:1022C000D80708F069C0CD3ED10518F3D06564C0C9
:1022D00081159044F0F2DF70D06A5EC0811535E55B
:1022E000930718F5811544E5940708F085C0C115DA
:1022F00083E5D80708F06CC0C11522E5D20708F4C1
:1023000062C0CE018370992721E030E002C0220F25
:10231000331F8A95E2F7C695C69580E2C89FE00113
:102320001124C22BD32BDC6837C0811539E5930704
:10233000A8F4811548E5940708F063C0C11586E547
:10234000D80708F0A6CF8C2F0E94D212C82FD0E059
:10235000DC2FCC27CC27DF71D0621EC081152AE587
:10236000920708F453C090568115904208F091CF1F
:102370008D2F8F710E94D21290E0982F8827882786
:102380009F719C012C2BE901E7CFC55AD0E0CA58B8
:10239000DE4FC881D0E0D064CE01DF91CF910895A7
:1023A0008370992721E030E002C0220F331F8A9505
:1023B000E2F7C695C69540E2C49FE0011124C22B06
:1023C000D32BDD68E9CFDC2FCC27C16FD06AE4CFF7
:1023D000CE018370992721E030E002C0220F331F25
:1023E0008A95E2F7C695C69540E2C49FE0011124A4
:1023F000C22BD32BDA68D0CFD82FCC27C46FD06AAA
:10240000CBCFD82FCC27C06FD06AC6CF8F700E9499
:10241000D21234E0D695C7953A95E1F7CF709C2F4C
:10242000EC01D069B9CF723098F4623088F4E82FAB
:10243000F0E0EE0FFF1FE70FF11DEE0FFF1FE60F9D
:10244000F11DEE0FFF1FE455FF4F85919491089504
:1024500080E090E008950E9413120E9422110895D6
:1024600082389105B9F1B0F48133910509F47DC04A
:1024700048F48932910509F46DC08A32910509F456
:102480007BC008958533910509F45FC089339105B8
:1024900009F10895833E9105D9F138F4803E910504
:1024A00029F1823E910579F10895863E9105D9F191
:1024B000873E910509F43EC0843E910541F5209187
:1024C0003E0321FF24C080913D0384FD19C087EEA7
:1024D00090E0089520913D03237009F05AC02091A7
:1024E0003E0323FF14C089E290E0089520913D034C
:1024F00020FD38C030913E0330FF09C024FF43C0A7
:1025000090E080E0089520913D0322FDF7CF0895EB
:1025100020913D0322FD3AC030913E0330FD39C089
:1025200024FFF5CFEDCF20913D0323FFF0CF24FD15
:10253000E7CFCDCF20913D0323FD2EC030913E0348
:1025400031FFEECF84EE90E0089520913D0325FF0A
:10255000DECFC9CF20913D0325FD21C020913E0350
:1025600023FFD5CF89E390E0D2CF20913D0326FF12
:10257000CECF8AE290E0089520913D0326FFC7CF99
:1025800081E390E0089583EE90E0089582EE90E07C
:10259000089580EE90E0089586EE90E0089585E33A
:1025A00090E0089590913D0392FF06C0282F287176
:1025B0002830F9F4877F846093FF06C0282F2871A4
:1025C0002831F1F4877E846120913E0320FF06C00C
:1025D000382F38713830D9F4877F816021FF06C0E9
:1025E000282F28712831D1F4877E816194FD877E60
:1025F0000895282F24712430F9F68B7F8860DCCF72
:10260000282F2471243101F78B7E8861DDCF382F8C
:102610003171313019F78E7F8860E0CF282F21711A
:10262000213121F78E7E8861E1CF08950E94B00F9D
:10263000811102C00E9459100E94BB0F80930A03AF
:102640000E94C50F90933E0380933D030E94151393
:102650000E94C00F90E00E94900A8091AE0290917B
:10266000AF020E94B10A089508950E94341308959C
:1026700008950E9438130895E82FF0E0EF5BFC4FB7
:1026800080810895EF92FF920F931F93CF93DF9372
:102690008DE091E00E94A0041F921F9208E011E0DB
:1026A0001F930F930E94390585E091E00E94A004DA
:1026B00081E4E82E83E0F82EF70180810E94230652
:1026C0001F928F93C0E0D1E0DF93CF930E94390532
:1026D0008EEF90E00E94A0041F9281E08F931F93E1
:1026E0000F930E94390585E091E00E94A004F70154
:1026F00081810E9423061F928F93DF93CF930E94C4
:1027000039058EEF90E00E94A004EDB7FEB77096F9
:102710000FB6F894FEBF0FBEEDBFCDB7DEB7E6E053
:102720000C94E62680EA8A95F1F7089500C0089592
:102730000E9492130895F894E82FE295EF70F0E06C
:1027400031A1282F2F7081E090E001C0880F2A95D9
:10275000EAF7982F9095932391A392A1892B82A3B6
:102760007894089587E90E949B1386EC0E949B133E
:1027700085EF0E949B1386EF0E949B130895B0E0A3
:10278000A0E0E5ECF3E10C94C826EC01C62E062F80
:1027900010E0C80187589E4F7C01FC0180818F3F6B
:1027A00091F1F894E82FE295EF70F0E091A18F702D
:1027B00021E030E001C0220F8A95EAF7892F822BB1
:1027C00081A382A12095282322A378940E949613A6
:1027D000DFB0D5FA882780F9DD24D394D8267E99F6
:1027E00017C082E0D82AF70180818F3F11F00E9444
:1027F0009B1361E0D11001C060E08C2D0E94981302
:10280000C00FD11FD882CDB7DEB7E8E00C94E42624
:1028100080E0E8CF0E94B21310924203109241036D
:102820001092400310923F0382E00E9450140E94D5
:1028300091050895A2E0B0E0E0E2F4E10C94CD2629
:102840001A82198260E0CE0101960E94BF1361E0F6
:10285000CE0101960E94BF1342E050E0BE016F5FBF
:102860007F4F8FE393E00E94092721E0009709F44E
:1028700020E0892B31F089819A81909340038093E5
:102880003F0342E061E473E08FE393E00E94511460
:10289000182F0E949405812F2296E3E00C94E926DC
:1028A0000895CF92DF92EF92FF920F931F93CF93F1
:1028B0006C017B01042F222349F081E080930D03FA
:1028C0000E94B61E90930C0380930B03C0910D03DE
:1028D000C1110AC0C0E08C2FCF911F910F91FF90C2
:1028E000EF90DF90CF90089580910B0390910C03AF
:1028F0000E94CE1E059770F310E0A801B601C70133
:102900000E940927892B41F0A801B601C7010E9446
:10291000162710920D03DFCFC0E0FBCF0E9471217C
:102920000E9498100E947E2108950E9483210E9497
:10293000A1100E94A12108950E944F1E0E945721BC
:102940000E947E100E948E140E9495140E948E1088
:10295000FBCF8091140380FF0DC06091070170E0F0
:10296000660F771F6038710570F56115710569F1A3
:10297000862F089581FF07C06091070184E0689F5A
:10298000B0011124EFCF6091070182FD0AC0809150
:1029900013038823A9F02091060160910701821793
:1029A00010F088E0ECCF869FC001112433E0880F3F
:1029B000991F3A95E1F7622F70E00E94A426D2CFCA
:1029C00068E070E0D5CF8FE7089581E008958091A9
:1029D000140380FF0CC06091030170E0759567954A
:1029E000759567956115710549F1862F089581FFE9
:1029F00006C06091030170E075956795F3CF609113
:102A0000030182FD0BC0909112039923A1F0609104
:102A1000020180910301961738F0682F70E060384A
:102A2000710500F38FE70895899FC001112470E0BC
:102A30000E94A426F4CF61E070E0D7CF81E0089532
:102A40008D3E31F40E94A914819580931803089556
:102A50008E3E19F40E94A914F8CF8F3E31F40E94E3
:102A6000A9148195809317030895803F19F40E945B
:102A7000A914F8CF893F29F40E94E7148093190321
:102A800008958A3F21F40E94E7148195F7CF8B3F88
:102A900031F40E94E714819580931A0308958C3FC6
:102AA00019F40E94E714F8CF9FE0980F983070F463
:102AB000815F990B21E030E001C0220F8A95EAF78F
:102AC00080911603822B8093160308958D3F31F475
:102AD0008091140381608093140308958E3F21F444
:102AE000809114038260F7CF8F3FB9F78091140370
:102AF0008460F1CF409117038D3E59F48091180303
:102B000087FF0DC01092180341110BC010921303E0
:102B100008C08E3E81F48091180318169CF344235C
:102B200081F08091190390911A03892B09F05AC002
:102B30001092120308958F3E49F447FFF0CF109290
:102B40001703809118038111ECCFE0CF803F19F477
:102B50001416ACF3E4CF90911903893F29F41916A8
:102B6000F4F610921903DBCF8A3F19F497FFD7CF01
:102B7000F8CF90911A038B3F29F497FFD0CF109292
:102B80001A03CDCF8C3F19F41916CCF3C8CF9FE0B0
:102B9000980F983090F4815F990B21E030E0B901F3
:102BA00002C0660F771F8A95E2F7CB01809590915E
:102BB0001603892380931603B2CF8D3F31F48091A1
:102BC00014038E7F80931403AACF8E3F21F480914B
:102BD00014038D7FF7CF8F3F09F0A1CF80911403AD
:102BE0008B7FF0CF089580910A0383FF7EC083E43A
:102BF00091E00E94A004809116031F928F938EE3B0
:102C000091E09F938F930E9439058CE391E00E949D
:102C1000A00480911703282F082E000C330B3F933C
:102C20008F9389E391E09F938F930E94390587E307
:102C300091E00E94A00480911803282F082E000C18
:102C4000330B3F938F9384E391E09F938F930E9484
:102C5000390582E391E00E94A00480911903282F96
:102C6000082E000C330B3F938F938FE291E09F93DC
:102C70008F930E9439058DE291E00E94A00480911B
:102C80001A03282F082E000C330B3F938F938AE2F0
:102C900091E09F938F930E94390587E291E00E9413
:102CA000A004809113031F928F9384E291E09F937D
:102CB0008F930E94390582E291E00E94A0048091E6
:102CC00014031F928F938FE191E09F938F930E9443
:102CD00039058CE191E00E94A0048DB79EB74C9617
:102CE0000FB6F8949EBF0FBE8DBF0E94B61E9C010A
:102CF0009091170380911803982B21F030931103C2
:102D0000209310039091190380911A03982B21F0BE
:102D100030930F0320930E0385E193E00E94771D0B
:102D2000089586E0E5E1F3E0DF011D928A95E9F779
:102D30001092130310921203109214030895FC01D1
:102D4000828181110EC0838181110BC08481811128
:102D500008C091E08581811101C090E0892F8170C8
:102D6000089581E0FCCFA6E0B0E0E9EBF6E10C9439
:102D7000CD2686E0E5E1F3E0DE01119601900D92AB
:102D80008A95E1F710921703109218031092190315
:102D900010921A038B819C81892B89F080911003FA
:102DA000909111030E94CE1EAC01909113039923C0
:102DB000C9F1809108018417150608F440C08D817F
:102DC0009E81892B91F080910E0390910F030E94B8
:102DD000CE1EAC0190911203992309F471C0809129
:102DE00004018417150608F479C0BE016F5F7F4F98
:102DF00085E193E00E94061E811105C085E193E004
:102E00000E949F1681110E94F31586E0FE01319603
:102E1000A5E1B3E001900D928A95E1F72696E3E0F3
:102E20000C94E926209109018AE0289F9001112441
:102E30002417350720F69F5F9093130302C09F3F2E
:102E4000D1F71B81112359F00E94A9149FEF11168D
:102E50000CF491E0899F802D1124809317031C812D
:102E6000112359F00E94A9149FEF11160CF491E060
:102E7000899F802D112480931803309117033323E9
:102E800009F49DCF20911803222309F498CF45EB34
:102E90003403C0011124992359F09093170345EB93
:102EA000240390011124332339F03093180387CF82
:102EB00081E080931703F3CF81E0809318037FCFE5
:102EC000209105018AE0289F9001112424173507DD
:102ED00008F08BCF9F5F9093120302C09F3FD1F702
:102EE0001D81112359F00E94E7149FEF11160CF475
:102EF00091E0899F802D1124809319031E81112355
:102F000059F00E94E7149FEF11160CF491E0899F8D
:102F1000802D112480931A0330911903332309F46F
:102F200064CF20911A03222309F45FCF45EB3403C9
:102F3000C0011124992359F09093190345EB240300
:102F400090011124332339F030931A034ECF81E0DE
:102F500080931903F3CF81E080931A0346CFCF9378
:102F6000DF93EC01FB018281882309F464C1C43042
:102F7000FDE5DF07E0F5CB3F9CE5D90730F49E0186
:102F800022503C4524313105D8F50E94C50F90935D
:102F90003E0380933D03C231ECE5DE0709F41FC117
:102FA00008F06EC0C9308CE5D80709F4F2C008F00B
:102FB0003FC0C530ECE5DE0709F4DBC058F5C3308F
:102FC0008CE5D80709F4CDC008F0CFC080913D034F
:102FD0008160C230DC4509F4AEC080913D03909120
:102FE0003E030E94D30F0E943B0A80E009C0C63A0C
:102FF000EDE5DE0751F238F4C2369DE5D90729F236
:10300000DF91CF9108959E012E5A3D452330310521
:10301000B8F7BBCF80913D038062C730FCE5DF0786
:1030200009F489C008F4B1C080913D03806483C075
:10303000CD309CE5D90709F4BAC070F480913D0306
:103040008E7FCB30FCE5DF0709F475C008F4A7C01C
:1030500080913D038D7F6FC0CF309CE5D90709F487
:10306000B6C008F4A8C0C031FCE5DF0709F4B3C05E
:10307000C131DC4509F0B1CF80913D038F7B5BC04E
:10308000C1159DE5D90709F4B4C098F5CB3FFCE51F
:10309000DF0709F472C0B8F4C4319CE5D90709F41C
:1030A000B6C008F4A2C0C531DC4509F096CF8091C6
:1030B0003D0382FB992790F921E0922790FB82F94A
:1030C00090FB83F938C0CD3F8CE5D80709F477C071
:1030D00008F457C0CE3FECE5DE0709F474C08091D8
:1030E0003E038360CF3FDC4509F077CF80933E03FA
:1030F00074CFC2368DE5D80709F496C068F4C230A3
:10310000EDE5DE0709F48CC008F477C0C330DD4577
:1031100009F063CF80E085C0CE3A9DE5D907E9F09C
:1031200068F490913D03892F8E7F90FF8160C63AAD
:10313000DD4509F052CF80933D034FCFCF3A8DE567
:10314000D80789F1C03BDD4509F047CF90913E0398
:10315000892F877F93FF8860C9CF80913E03886065
:10316000C5CF80913D038260E6CF80913D038460AE
:10317000E2CF80913D038860DECF80913E03816085
:10318000B5CF80913E038260B1CF80913D038061D5
:10319000D2CF0E943B0A80913D038068CCCF8091C2
:1031A0003D038C60C8CF80913E03877F9FCF809185
:1031B0003D038B7FC0CF80913D03877FBCCF809143
:1031C0003E038E7F93CF80913E038D7F8FCF809182
:1031D0003D038F7EB0CF80913D038F7DACCF0E94A9
:1031E0003B0A80913D038F77A6CF80913D03837F7B
:1031F000A2CF80913E038C7F79CF80913E03982FA0
:10320000909591708E7F892B90FB81F96FCF0E94F2
:103210003B0A90913D03892F97FB87F980588BCF0C
:1032200081E00E945C10D9CE90913D03892F8F7E62
:1032300094FF806180CF81E0E3CE809102011F92F4
:103240008F93809103011F928F93809106011F92AB
:103250008F93809107011F928F93809108011F9295
:103260008F93809109011F928F9386E691E09F933F
:103270008F930E9439058DB79EB70E960FB6F894BE
:103280009EBF0FBE8DBF0895883228F58E3108F09D
:1032900072C08B3041F130F4873009F4CFC085EC37
:1032A00092E0E0C0833109F45FC08431C1F787EE5A
:1032B00092E00E94A00480911F03882309F4FEC0BD
:1032C00010921F0310921E0310921D0310921C03F4
:1032D00010921B0320C08F3409F4C7C0D8F589327F
:1032E00031F38833E1F68AEE92E00E94A0040E9456
:1032F0001D191F9281E08F931F9288E08F9383EEB8
:1033000091E09F938F930E9439050F900F900F903B
:103310000F900F900F9020911F03222309F4C9C032
:1033200080911B0390911C03009711F48BE791E0AF
:103330009F938F931F922F9383EB92E09F938F9392
:103340000E9439050F900F900F900F900F900F90E3
:1033500081E00895813509F49CC008F49CC0823551
:1033600009F09DCF81E082C089ED92E00E94A00427
:103370000E941D19D0CF8D5180931F03833009F413
:1033800042C058F48130C1F08230A1F110921F0385
:1033900086ED92E00E94A0041BC0853009F445C070
:1033A000D8F1863099F782E091E090931E038093E4
:1033B0001D0383EC91E008C089E091E090931E0327
:1033C00080931D038FE791E090931C0380931B0370
:1033D00080911F03882309F49ECF1F928F9382ED63
:1033E00092E09F938F930E9439050F900F900F905A
:1033F0000F9091CF88E091E090931E0380931D037E
:1034000088E891E0E1CF87E091E090931E038093FC
:103410001D0384E991E0D8CF86E091E090931E03EC
:1034200080931D0381EA91E0CFCF83E091E09093F8
:103430001E0380931D0380EB91E0C6CF81E0809353
:10344000090184E1809308018AE0809307018EE1FD
:103450008093060188E08093030188E28093020153
:1034600088EC92E00E94A00456CF8AE0E0911D0310
:10347000F0911E033097D1F02081082E000C990B9B
:10348000820F911D8F3F910541F03CF08FEF8083BB
:1034900007C08FEFEBCF86EFE9CF97FFF8CF108211
:1034A00080811F928F938FEB92E09BCF8CEB92E009
:1034B000D9CF8FEA92E00E94A0044ACF80E008951D
:1034C000CF93C82F1F928F9380E093E09F938F93A9
:1034D0000E94390581E090E002C0880F991FCA95CB
:1034E000E2F70E94900A0E943B0A0F900F900F9003
:1034F0000F90CF910895EF92FF920F931F93CF9368
:10350000DF938B3109F410C108F0B0C08B3009F49F
:10351000CCC008F082C0863009F4DAC048F48530A7
:1035200009F4B2C085EA96E00E94A00480E0E0C001
:10353000873009F4E2C08830A9F70E94C00F1F92BB
:103540008F9388E896E09F938F930E9439050E949D
:10355000BB0F83FB992790F91F929F9382FB9927BA
:1035600090F91F929F9381FB992790F91F929F9347
:10357000982F91701F929F931F928F938FE396E0E5
:103580009F938F930E9439050E94C50F93FB2227BA
:1035900020F91F922F9387FB222720F91F922F9348
:1035A00086FB222720F91F922F9385FB222720F9E3
:1035B0001F922F9384FB222720F91F922F9383FBC6
:1035C000222720F91F922F9382FB222720F91F9296
:1035D0002F9391FB222720F91F922F93292F2170DF
:1035E0001F922F9381FB222720F91F922F93282FC0
:1035F00021701F922F939F938F9380E495E09F9368
:103600008F930E9439058DB79EB78A960FB6F894AE
:103610009EBF0FBE8DBF81E06BC0803109F49CC09E
:1036200080F48E3009F07ECF90910A03892F8B7F32
:1036300092FF846080930A0382FF8BC080ED96E046
:103640007FC0863109F498C0893109F06BCF88EDCD
:1036500091E09F938F9380E793E09F938F930E94D5
:1036600039050F900F900F900F90D5CF8A3249F106
:1036700090F4873211F128F48E3108F453CF8D5134
:103680001DC0893209F04ECF83E197E00E94A0046B
:103690000E94A605C0CF833468F48A3308F091C035
:1036A000853359F0883309F03DCF8AE993E00E94D1
:1036B000A004B1CF833409F035CF80E00E94601AB6
:1036C000AACF83E397E00E94A0040E945910A3CFE1
:1036D00080910A03807F80930A0383E793E00E942E
:1036E000A0048FE297E00E94A00481E08093200371
:1036F000CDB7DEB7E6E00C94E62690910A03892F59
:103700008E7F90FF816080930A0380FF03C087E073
:1037100097E0CDCF8AEF96E00E94A00480910A0343
:10372000817F80930A0377CF90910A03892F8D7F41
:1037300091FF826080930A0381FF08C08DEE96E0BE
:103740000E94A00480910A038160EBCF8FED96E088
:10375000AECF80EC96E0ABCF90910A03892F877FA4
:1037600093FF886080930A0383FF03C084EB96E095
:10377000E7CF87EA96E09BCF0E94C21E162F072F45
:10378000F82EE92ED0913C03C09116010E94261D0F
:10379000EF92FF920F931F931F92DF931F92CF938D
:1037A0001F928F9385E093E09F938F930E9439053A
:1037B0008DB79EB70C960FB6F8949EBF0FBE8DBF07
:1037C0002ACF89537BCF80E008950E94E31B0895A0
:1037D000CF93C82F809120038130C1F0882339F026
:1037E000823009F444C01092200380E00DC00E9492
:1037F000B60E8232D1F78C2F0E94E31B81111BC0C1
:103800008C2F0E947B1A8170CF9108950E94B60E72
:10381000823289F38C2F0E94E51B81111BC0C431B9
:10382000D9F060F4CB3071F0C031D1F08AEF92E082
:103830000E94A00413C081E090E0E5CFC93261F09E
:10384000C833A1F783E793E00E94A0048CEF92E0D5
:103850000E94A00481E0D7CF1092200380E0D3CF54
:1038600082E08093200388E30E944419F3CF8C2FD9
:103870000E94441981E0C8CFCF93DF93EB018631DA
:103880009C4511F50E94B60E9A81992399F08A7A87
:1038900091E009F490E090932103811109C089E23D
:1038A0000E948E0E0E94F70E80E0DF91CF91089566
:1038B00085E3F6CF80912103811104C089E20E9443
:1038C000960EF0CF85E3FBCF81E0EFCF0F931F93F0
:1038D000CF93DF93C42FD22FFC0182818823C9F0BC
:1038E000409324030E94B61E9093230380932203E7
:1038F00080E28C0F883040F4C77081E001C0880FEF
:10390000CA95EAF70E94DD07DF91CF911F910F91D1
:10391000089510912403141332C0809122039091D2
:1039200023030E94CE1E883C910548F5C0E2CD0FCE
:103930001D17B9F080E2810F883040F4177081E0E4
:1039400001C0880F1A95EAF70E94E407C83048F4CE
:1039500081E09D2F977001C0880F9A95EAF70E9429
:10396000DD07802F0E94D407C83070F6D77081E041
:1039700001C0880FDA95EAF70E94E407C5CF80E21C
:103980008C0F883008F6C77081E001C0880FCA9597
:10399000EAF7F2CF0F939C01CB01243F4CE53407AB
:1039A00059F1A8F4293DFCE53F0701F12A3D4CE51A
:1039B0003407D1F1283D3C4591F406E221EE41EE79
:1039C00068ED7CE50E94661C80E00F910895263F1B
:1039D000FCE53F07E9F0B0F0273F3C45F9F0FC017A
:1039E0008281882339F110922403EFCF07E225EE7C
:1039F00045EE69ED7CE5E6CF06E221EE40EE64EFB0
:103A00007CE5E0CF07E225EE44EE65EF7CE5DACF1A
:103A100006E221EE42EE66EF7CE5D4CF07E225EE2A
:103A200046EE67EF7CE5CECF08E221E045EE6AED99
:103A30007CE5C8CF81E0C9CF9093A3028093A20216
:103A4000089590932A03809329030895E091290310
:103A5000F0912A03309729F00190F081E02D09952B
:103A6000089580E00895EF92FF920F931F93CF93F4
:103A7000DF938C01E0912903F0912A03309791F1B3
:103A80000280F381E02D099580910A0382FF2AC00C
:103A900080FF04C08CE497E00E94A004D0E0C0E066
:103AA00086E4E82E87E0F82E80910A0380FF0EC09E
:103AB000F801EC0FFD1F80811F928F93FF92EF9210
:103AC0000E9439050F900F900F900F902196C830EB
:103AD000D10551F780910A0380FF04C084E497E088
:103AE0000E94A004CDB7DEB7E6E00C94E626E09194
:103AF0002903F0912A03309739F022E0DC012C935E
:103B00000480F581E02D09950895209127033091D7
:103B100028032817390771F090932803809327030F
:103B2000E0912903F0912A03309721F00680F78174
:103B3000E02D09950895209125033091260328173B
:103B4000390771F09093260380932503E0912903B0
:103B5000F0912A03309721F00084F185E02D09953A
:103B600008959C012E5F3F4FAC01485F5F4F80E09E
:103B70002417350709F40895F90191919F019923BC
:103B8000B9F38F5FF5CF662349F0FC0132960896B2
:103B90002191261729F0E817F907D1F780E0089559
:103BA00081E008959C01FC0132969FEF80E04191F5
:103BB000461751F09F3F19F4411101C0982F8F5FB4
:103BC0008630A9F79F3F09F40895290F311D97FD0D
:103BD0003A95F90162830895FC0132960896219185
:103BE000261303C0DF0111971C92E817F907B9F7F4
:103BF00008950E94D21D08950E94EC1D089502961A
:103C000026E0FC0111922A95E9F7089546E050E07C
:103C10000E94092721E0892B09F420E0822F0895D2
:103C200008950E94101E0895811106C081E08093BE
:103C30002B030E94111E089582E0F9CF83E0809348
:103C40002B030E94111E08950E94141E089581E006
:103C500080932B030E94111E08950E94271E089531
:103C6000089508950E94311E0895089508950E94B0
:103C7000301E08950E94351E0E941A140E94361E9E
:103C800080E00E943C1391E0811107C081E00E9416
:103C90003C1391E0811101C090E0892F089585B710
:103CA000806885BF85B7806885BF08951F921FB65D
:103CB0001F9211248F939F93AF93BF9380912C03F6
:103CC000811113C08091430390914403A091450357
:103CD000B09146034196A11DB11D8093430390937B
:103CE0004403A0934503B0934603BF91AF919F91C6
:103CF0008F911F901FBE1F90189580914B038430A9
:103D000031F10E94190610922C0388E190E020E422
:103D10000FB6F894A895809360000FBE20936000C2
:103D200083B7817F846083BF83B7816083BF7894CA
:103D3000889583B78E7F83BF0FB6F894A89580913E
:103D40006000886180936000109260000FBE08954B
:103D50000E943B0A0E941E06089582E084BD93E003
:103D600095BD9AEF97BD80936E0008952FB7F89494
:103D70008091430390914403A0914503B091460381
:103D80002FBF08952FB7F8946091430370914403B7
:103D900080914503909146032FBF08959C014FB732
:103DA000F8948091430390914403A0914503B0910E
:103DB00046034FBF821B930B089578941F921FB642
:103DC0001F9211248F939F93AF93BF9380914303CE
:103DD00090914403A0914503B09146030196A11D23
:103DE000B11D8093430390934403A0934503B09384
:103DF0004603BF91AF919F918F911F901FBE1F905F
:103E0000189587E797E7909301088093000888E169
:103E10009AE00FB6F894A895809360000FBE909337
:103E20006000FFCF88E19AE00FB6F894A8958093E0
:103E300060000FBE90936000FFCF80913B03089518
:103E400008959C0182E08093E9009FEF8091E80053
:103E5000915085FD06C085ED8A95F1F7000091111E
:103E6000F5CF8091E80085FF0CC050E040E066E0AF
:103E700070E0C9010E9412228091E8008E77809341
:103E8000E8000895CF93DF93EC0181E08093E9008F
:103E90008FEF9091E800815095FD06C095ED9A95C1
:103EA000F1F700008111F5CF8091E80085FF14C083
:103EB00050E040E068E070E0CE010E941222809164
:103EC000E8008E778093E80088E0FE01A3E3B3E08A
:103ED00001900D928A95E1F7DF91CF91089580933B
:103EE0002F03709331036093300380914B03843030
:103EF00001F582E08093E9008FEF9091E800815016
:103F000095FD06C095ED9A95F1F700008111F5CF6A
:103F10008091E80085FF0DC050E040E063E070E074
:103F20008FE293E00E9412228091E8008E778093C6
:103F3000E8000895BC0184E00E946F1F0895BC0151
:103F400083E00E946F1F089582E797E00E94A0041B
:103F500080914A03811109C00E94A2230E94FF237D
:103F60008091E20084608093E20008958EE697E0FD
:103F70000E94A00410924A0308958AE697E00E94E6
:103F8000A0040E94271E089586E697E00E94A004E0
:103F90006091470381E0611101C080E00E941E1E14
:103FA000089582E697E00E94A00490914B0381E07F
:103FB000943009F080E0609147030E94241E089528
:103FC00020912E032F5F822F62E30E94982699236F
:103FD00019F020932E03089510922E03809132033E
:103FE0008823F1F080914B038430C1F49091E90073
:103FF0009F702091EC00822F817020FD80E8892B3A
:1040000093E09093E9009091EB0090FF04C09091B1
:10401000EE0097FD08C08F708093E9001092320384
:1040200008951092F1009091E80095FDFACF9091DB
:10403000E80090FFF0CF9091E8009E779093E80021
:10404000EACF42E061EC81E00E941E2342E261EC93
:1040500082E00E941E2342E261EC83E00E941E2364
:1040600090914B0381E0943009F080E06091470328
:104070000E94141E089580914D03833009F461C09D
:1040800030F48130D1F1823009F49EC008958A3035
:1040900009F48AC08B3009F46FC0893009F050C030
:1040A00080914C03813209F04BC080915003909174
:1040B0005103029708F044C08091E800877F809305
:1040C000E8008091E80082FF37C09091F300809172
:1040D000F200029731F48091F100813011F08630C6
:1040E00021F48091F10080933B038091E8008B776D
:1040F0008093E8000E94522323C080914C03813AB0
:10410000F9F48091E800877F8093E8008091500364
:1041100090915103892B61F468E083E393E070E0B0
:104120000E9461228091E8008B778093E8000895D7
:1041300060E090E080E0F3CF80914B038111C1CF2C
:10414000089580914C03813AD9F780915003909162
:104150005103892BA9F78091E800877F8093E800BD
:104160008091E80080FFFCCF809116018093F100E0
:104170008091E8008E77BCCF80914C03813201F7AB
:104180008091500390915103892BD1F68091E800E2
:10419000877F8093E8000E94522380914E03809392
:1041A00016010E943B0A089580914C03813241F62A
:1041B0008091E800877F8093E8000E9452238091DD
:1041C0004F0380933C03089580914C03813A09F09A
:1041D000B7CF8091E800877F8093E8008091E80066
:1041E00080FFFCCF80913C03C1CF9FB7F894109221
:1041F00032039FBF90914B03943009F048C0209147
:10420000E9002F703091EC00932F917030FD90E811
:10421000922B23E02093E9002091EB0020FF34C093
:104220002091EE0027FF30C020912D03222321F0A2
:104230002091E80025FF28C010922D0326E0309140
:10424000E80035FF14C08093F1008091E80085FDFF
:1042500027C08091E80080FFFCCF8091E8008E7736
:104260008093E8009F709093E90080E0089530917A
:104270004B03343049F43091EB0035FD05C021503B
:1042800041F481E080932D039F709093E9008FEFBC
:104290000895EFE9FFE03197F1F700C00000CFCFBC
:1042A0008FB7F89421E0209332038FBFDBCF84B720
:1042B000877F84BF0FB6F894A895809160008861CD
:1042C00080936000109260000FBE80E890E00FB60F
:1042D000F89480936100909361000FBE0E942D1EA0
:1042E00008950E94A2230E94FF23E2EEF0E0808165
:1042F0008460808378940E947D2608958AE091E00E
:104300000E94211D089580914B03853051F48EE564
:1043100097E00E94A00480914B03853019F00E9421
:10432000A81E08950E947D1E80914903882399F359
:104330000E943A1E882379F30E94FC210E943B0AC6
:10434000EACF08950E94A5210895292F332723300D
:10435000310521F168F42130310509F443C02230E0
:10436000310509F444C090E080E030E020E026C050
:104370002132310551F122323105A9F7633071053F
:1043800090F7FB01EE0FFF1FEA56FD4F20813181B0
:104390006D567D4FFB01808190E010C099278130E0
:1043A000910581F0009729F00297E9F6E6E7F7E03A
:1043B00002C0ECE9F7E0849190E09F01FA013183BB
:1043C00020830895E8E8F7E0F6CF6330710558F6EA
:1043D000660F771FFB01E456FD4F2081318189E094
:1043E00090E0ECCF82E190E02BEF37E0E7CF8BE578
:1043F00090E020EA37E0E2CF80E189BD82E189BD2B
:1044000009B400FEFDCF8091D8008F7D8093D80045
:104410008091E00082608093E0008091E00081FD67
:10442000FCCF0895AF92BF92CF92DF92FF920F938D
:104430001F93CF93DF936C01EB018A010E947123DC
:10444000F82E811123C00115110539F0F801808182
:104450009181C81BD90BC80ED91EB12CA12C209755
:10446000A9F08091E80085FD22C08091E8008E7758
:104470008093E80001151105A1F0F8018081918178
:10448000A80EB91EB182A08285E0F82E8F2DDF9193
:10449000CF911F910F91FF90DF90CF90BF90AF9081
:1044A00008950E9471238823D1F2F82EEFCFF601F0
:1044B00081916F018093F1002197FFEFAF1ABF0A3E
:1044C000CECFFC018091520390915303861797073A
:1044D000A0F06115710529F49091E8009E77909302
:1044E000E80090E06115710551F4911108C08091C8
:1044F000E80082FF34C080E00895BC01F2CF8091D3
:104500004B038823C1F18530C1F18091E80083FD20
:1045100030C08091E80082FDEACF8091E80080FF02
:10452000E1CF8091F3002091F200382F61157105E1
:1045300019F02830310558F091E02830310509F0A4
:1045400090E02091E8002E772093E800CBCF819176
:104550008093F100615071092F5F3F4FE7CF809149
:104560004B03882341F0853041F08091E80083FFC0
:10457000BECF81E0089582E0089583E00895FC01B4
:10458000809152039091530386179707A0F061150D
:10459000710529F48091E8008E778093E80090E01F
:1045A0006115710551F4911108C08091E80082FFF6
:1045B00035C080E00895BC01F2CF80914B03882381
:1045C000C9F18530C9F18091E80083FD31C0809147
:1045D000E80082FDEACF8091E80080FFE1CF809182
:1045E000F3002091F200382F6115710519F0283081
:1045F000310558F091E02830310509F090E08091C4
:10460000E8008E778093E800CBCF84918093F1000F
:104610003196615071092F5F3F4FE6CF80914B0378
:10462000882341F0853041F08091E80083FFBDCFC1
:1046300081E0089582E0089583E00895982F9730EF
:1046400028F08F708093E90081E008959093E9004D
:10465000242F762F50E0981731F07091EC002091C4
:10466000ED005091F00021FD02C09F5FE8CF309136
:10467000EB003E7F3093EB003091ED003D7F3093B7
:10468000ED003091EB0031603093EB007093EC0063
:104690002093ED005093F0002091EE0027FDE5CF30
:1046A00080E0089580914C0387FF13C08091E8005B
:1046B00082FF06C08091E8008B778093E80004C0F9
:1046C00080914B038111F2CF089580914B03882391
:1046D000D9F38091E80080FFF8CF8091E8008E77D1
:1046E000ECCF2091E4003091E50095E6A9012091FE
:1046F000EC00822F817020FF06C08091E80080FFCF
:1047000006C080E008952091E80022FD1AC0809143
:104710004B03882389F0853089F08091EB0085FD7B
:104720000FC02091E4003091E50042175307F9F2E1
:104730009150E1F684E0089582E0089583E00895C1
:1047400081E008950E9411240E941924E0EEF0E017
:10475000808181608083E8EDF0E080818F778083C5
:1047600019BCA7EDB0E08C918E7F8C9380818F7EF9
:10477000808310924A0308950F931F93CF93DF9382
:104780000E9411240E941924C8EDD0E088818F77FF
:10479000888388818068888388818F7D888319BC1D
:1047A00010924B0310924703109249031092480352
:1047B00000EE10E0F80180818B7F8083888181602A
:1047C000888342E060E080E00E941E23E1EEF0E09A
:1047D00080818E7F8083E2EEF0E080818160808343
:1047E000808188608083F80180818E7F80838881CA
:1047F00080618883DF91CF911F910F910895E8ED3B
:10480000F0E080818F7E8083E7EDF0E08081816041
:10481000808384E082BF81E080934A030E94BC23AE
:104820000895E8EDF0E080818E7F80831092E200B1
:1048300008951092DA001092E10008951F920F92ED
:104840000FB60F9211242F933F934F935F936F9363
:104850007F938F939F93AF93BF93EF93FF93809139
:10486000E10082FF0BC08091E20082FF07C08091CF
:10487000E1008B7F8093E1000E94E01F8091DA00CD
:1048800080FF19C08091D80080FF15C08091DA00A8
:104890008E7F8093DA008091D90080FF96C080E1FE
:1048A00089BD82E189BD09B400FEFDCF81E080931E
:1048B0004B030E94A41F8091E10080FF19C08091EA
:1048C000E20080FF15C08091E2008E7F8093E200BD
:1048D0008091E20080618093E2008091D800806244
:1048E0008093D80019BC85E080934B030E94C41FBD
:1048F0008091E10084FF2BC08091E20084FF27C0FB
:1049000080E189BD82E189BD89B5982F917080FFD2
:10491000FBCF8091D8008F7D8093D8008091E100FB
:104920008F7E8093E1008091E2008F7E8093E20091
:104930008091E20081608093E200809147038823A8
:1049400009F449C084E080934B030E94D11F8091F9
:10495000E10083FF29C08091E20083FF25C08091A0
:10496000E100877F8093E10082E080934B03109207
:1049700047038091E1008E7F8093E1008091E20007
:104980008E7F8093E2008091E20080618093E2005C
:1049900042E060E080E00E941E238091F000886089
:1049A0008093F0000E94BD1FFF91EF91BF91AF91E6
:1049B0009F918F917F916F915F914F913F912F9137
:1049C0000F900FBE0F901F90189519BC10924B03BB
:1049D0000E94B61F70CF8091E30087FD93E0909313
:1049E0004B03B3CF1F920F920FB60F9211242F9348
:1049F0003F934F935F936F937F938F939F93AF9367
:104A0000BF93CF93DF93EF93FF93D091E900DF70D3
:104A10008091EC00C82FC17080FDC0E81092E900C1
:104A20008091F000877F8093F00078940E94362573
:104A30001092E9008091F00088608093F000CD2B07
:104A4000CF70C093E900FF91EF91DF91CF91BF91BB
:104A5000AF919F918F917F916F915F914F913F9116
:104A60002F910F900FBE0F901F901895AAE2B0E003
:104A7000ECE3F5E20C94CD268CE493E02091F10078
:104A8000FC012193CF01F3E084359F07B9F70E9421
:104A90003B208091E80083FF1EC180914C039091E0
:104AA0004D039A3008F017C1E92FF0E0E159F84DB5
:104AB0000C94B826803899F0823809F00CC18091A6
:104AC00050038F70873008F006C18093E900809111
:104AD000EB0085FB882780F91092E90006C08091E1
:104AE000480390914903911182609091E800977F6B
:104AF0009093E8008093F1001092F1008091E8001B
:104B00008E77E5C0882309F4D3C0823009F0E3C072
:104B100080914E038111D6C0809150038F702FEF8A
:104B2000280F263008F0D7C08093E9002091EB00D1
:104B300020FFC8C0933031F48091EB0080628093F5
:104B4000EB00C0C09091EB0090619093EB0021E0EE
:104B500030E001C0220F8A95EAF72093EA00109214
:104B6000EA008091EB008860EACF8111B4C0109117
:104B70004E031F778091E3008078812B8093E300C0
:104B80008091E800877F8093E8000E945223809103
:104B9000E80080FFFCCF8091E30080688093E30011
:104BA00082E0111183E080934B0395C080588230DE
:104BB00008F091C080914E0390914F038C3D23E00B
:104BC0009207A1F583E08A838AE289834FB7F8943C
:104BD000DE01139620E03EE051E2E32FF0E0509337
:104BE0005700E49120FF03C0E295EF703F5FEF7044
:104BF0008E2F90E0EA30C0F0C7968D939D932F5F83
:104C0000243159F74FBF8091E800877F8093E800F7
:104C10006AE270E0CE0101960E9461228091E80074
:104C20008B778093E80057C0C096E7CF6091500320
:104C300070915103AE014F5F5F4F0E94A221BC01F2
:104C4000892B09F448C09091E800977F9093E80081
:104C500089819A810E94BF22E1CF8038E1F580915D
:104C6000E800877F8093E800809147038093F100FC
:104C700045CF811130C090914E03923060F5809104
:104C8000E800877F8093E800909347030E945223B7
:104C900080914703882311F084E005C08091E300F0
:104CA00087FDFACF81E080934B030E94212013C03F
:104CB00080914E03813079F481E0933009F080E0F7
:104CC000809349031092E9008091E800877F8093E8
:104CD000E8000E9452238091E80083FF0AC080917F
:104CE000E800877F8093E8008091EB0080628093EA
:104CF000EB00AA96E3E00C94E926CF9380914B0356
:104D00008823A1F0C091E900CF709091EC00892F29
:104D1000817090FD80E8C82B1092E9008091E80036
:104D200083FD0E943625CF70C093E900CF9108958E
:104D3000991B79E004C0991F961708F0961B881FED
:104D40007A95C9F78095089597FB072E16F400947D
:104D500007D077FD09D00E94F52607FC05D03EF468
:104D6000909581959F4F0895709561957F4F089517
:104D7000EE0FFF1F0590F491E02D09942F923F92C2
:104D80004F925F926F927F928F929F92AF92BF925B
:104D9000CF92DF92EF92FF920F931F93CF93DF9307
:104DA000CDB7DEB7CA1BDB0B0FB6F894DEBF0FBE64
:104DB000CDBF09942A88398848885F846E847D84B1
:104DC0008C849B84AA84B984C884DF80EE80FD80B3
:104DD0000C811B81AA81B981CE0FD11D0FB6F89429
:104DE000DEBF0FBECDBFED010895AA1BBB1B51E175
:104DF00007C0AA1FBB1FA617B70710F0A61BB70B4B
:104E0000881F991F5A95A9F780959095BC01CD01EF
:104E10000895FB01DC0104C08D910190801921F4FB
:104E200041505040C8F7881B990B0895FB01DC01E5
:104E300002C001900D9241505040D8F70895F99961
:104E4000FECF92BD81BDF89A992780B50895A8E15B
:104E5000B0E042E050E00C945327262FF999FECFA2
:104E600092BD81BDF89A019700B4021639F01FBABD
:104E700020BD0FB6F894FA9AF99A0FBE08950396DA
:104E8000272F0E942E270E942D27252F0E942E2794
:104E9000242F0C942E270196272F0E942E270C9446
:104EA0002D27DC01CB01FC01F999FECF06C0F2BD34
:104EB000E1BDF89A319600B40D9241505040B8F7D8
:104EC0000895F894FFCF2608260857085708E408E5
:104ED0000009860886080B097C098B098B095A256D
:104EE00082256B2682256B26B525D6256B262D2699
:024EF000392661
:104EF200F402280850011E0A14011D1F421F211F1F
:104F02009F1F9A1F201F01E200E900EA00B500B6C8
:104F120000B700CD008301CC008A019201940121E7
:104F220002230224022502260227022A02B300B427
:104F3200006F007000818283E200E900EA00B500A0
:104F4200B600B700CD008301CC008A019201940122
:104F52002102230224022502260227022A02B3008A
:104F6200B4006F00700081828397C63F3F3F006D9F
:104F72006B5F64656C6179006D6B5F696E746572FD
:104F820076616C006D6B5F6D61785F7370656564EF
:104F9200006D6B5F74696D655F746F5F6D61780042
:104FA2006D6B5F776865656C5F6D61785F73706567
:104FB2006564006D6B5F776865656C5F74696D65CC
:104FC2005F746F5F6D6178000A092D2056657273F8
:104FD200696F6E202D0A5649443A20307842433494
:104FE200322842696163636F343229205049443A5E
:104FF20020307830303033286D6569736869322922
:10500200205645523A203078303030310A425549E4
:105012004C443A2020284F637420313320323032FE
:1050220033290A4F5054494F4E533A204C5546416A
:10503200204D4F5553454B45592045585452414BED
:10504200455920434F4E534F4C4520434F4D4D4100
:105052004E4420343039360A4743433A20382E35FD
:105062002E30204156522D4C4942433A20322E31A5
:105072002E30204156525F415243483A20617672A7
:10508200350A00407B22AA082F080D08B207CB0779
:02509200E40731
:00000001FF
