:100000000C94AC040C94C9040C94C9040C94C90459
:100010000C94C9040C94C9040C94C9040C94C9042C
:100020000C94C9040C94C9040C94250E0C94671309
:100030000C9438290C94C9040C94C9040C94C90478
:100040000C94C9040C94C9040C94C9040C94C904FC
:100050000C94C9040C94FE0E0C94C9040C94C904AD
:100060000C94C9040C94C9040C94C9040C94C904DC
:100070000C94C9040C94C9040C94C9040C94C904CC
:100080000C94C9040C94C9040C94C9040C94C904BC
:100090000C94C9040C94C9040C94C9040C94C904AC
:1000A0000C94C9040C94C9040C94C90441707220C6
:1000B0003330203230323300302E310000D0D0D0F7
:1000C000D0D0D00101020408102041424448480029
:1000D0000000484850608182848890A0C1C2C4D08A
:1000E000D0D0D0D0D0C80000000000000000000038
:1000F000000000000000000000000000075A095A3C
:100100000B5A0D5A115A1A5A1C5A1E5A205A225A60
:10011000085A0A5A0C5A0E5A125A1B5A1D5A1F5A7A
:10012000215A295A14001A000800150017001C0053
:1001300018000C0012002800040016000700090037
:100140000A000B000D000E000F00005000DA0281C3
:10015000FFD9F1DB20A4A62EAF00A0C000A1C800EB
:10016000AED580A81FD300408D1420004E6F2043D1
:10017000686F7264004E756D6265727300417272D1
:100180006F77730046756E6374696F6E004D6564BA
:100190006961000A43686F72643A2000554E444515
:1001A000460047616D696E670044656661756C74F1
:1001B000004C617965723A200000AF00AE0501097C
:1001C00002A10185020901A10005091901290815EB
:1001D00000250195087501810205010930093115D5
:1001E00081257F95027508810609381581257F953F
:1001F0000175088106050C0A38021581257F9501D5
:1002000075088106C0C005010980A1018503190197
:100210002AB700150126B700950175108100C005A9
:100220000C0901A101850419012AA002150126A0CB
:1002300002950175108100C005010906A10185061E
:10024000050719E029E715002501950875018102C8
:100250000507190029EF1500250195F075018102A8
:100260000508190129059505750191029501750388
:100270009101C005010906A101050719E029E7154B
:100280000025019508750181029501750881010518
:1002900007190029FF150026FF0095067508810043
:1002A0000508190129059505750191029501750348
:1002B0009101C009027800040100A0FA09040000BD
:1002C000010301010009211101000122400007057D
:1002D0008103080001090401000103000000092155
:1002E0001101000122B60007058203200001080B5E
:1002F00002020202010009040200010202010005DB
:1003000024001001042402020524060203070583C9
:10031000030800FF09040300020A000000070505A6
:10032000021000050705840210000512010002EF0B
:10033000020108EDFE040601000102000112032281
:1003400000430072006900730063006F0022000028
:1003500000100322006300680036003000340022E1
:100360000000000403090407087F0807003E5B4FF4
:100370005B3E003E6B4F6B3E001C3E7C3E1C0018FB
:100380003C7E3C18001C577D571C001C5E7F5E1C89
:100390000000183C180000FFE7C3E7FF0000182426
:1003A000180000FFE7DBE7FF0030483A060E0026A2
:1003B0002979292600407F05050700407F05253F54
:1003C000005A3CE73C5A007F3E1C1C0800081C1CDD
:1003D0003E7F0014227F2214005F5F005F5F0006F3
:1003E000097F017F00006689956A00606060606037
:1003F0000094A2FFA2940008047E04080010207E4E
:1004000020100008082A1C0800081C2A0808001EE2
:1004100010101010000C1E0C1E0C0030383E38302E
:1004200000060E3E0E060000000000000000005F07
:10043000000000000700070000147F147F14002450
:100440002A7F2A120023130864620036495620507E
:1004500000000807030000001C22410000004122A8
:100460001C00002A1C7F1C2A0008083E0808000007
:100470008070300000080808080800000060600074
:10048000002010080402003E5149453E0000427F12
:100490004000007249494946002141494D33001846
:1004A00014127F10002745454539003C4A4949311F
:1004B000004121110907003649494936004649499A
:1004C000291E00000014000000004034000000005D
:1004D00008142241001414141414000041221408BA
:1004E000000201590906003E415D594E007C12117F
:1004F000127C007F49494936003E41414122007F3C
:100500004141413E007F49494941007F09090901B4
:10051000003E41415173007F0808087F0000417F81
:100520004100002040413F01007F08142241007F2C
:1005300040404040007F021C027F007F0408107F83
:10054000003E4141413E007F09090906003E4151FC
:10055000215E007F091929460026494949320003D6
:10056000017F0103003F4040403F001F2040201F0B
:10057000003F4038403F00631408146300030478D0
:100580000403006159494D4300007F41414100028D
:100590000408102000004141417F000402010204D0
:1005A0000040404040400000030708000020545431
:1005B0007840007F284444380038444444280038B8
:1005C0004444287F0038545454180000087E09021F
:1005D0000018A4A49C78007F080404780000447DDF
:1005E0004000002040403D00007F102844000000F3
:1005F000417F4000007C04780478007C0804047883
:1006000000384444443800FC1824241800182424DA
:1006100018FC007C080404080048545454240004C6
:10062000043F4424003C4040207C001C2040201C0F
:10063000003C4030403C004428102844004C90903E
:10064000907C004464544C44000008364100000093
:100650000077000000004136080000020102040299
:10066000003C2623263C00000000000000404040E3
:10067000F0F8F8FF38FFF8F83FF8F8FF38FFF8F81F
:10068000F040404000000000000080C0C0C080007A
:1006900000C0C08000000080C0C000C0C00000805A
:1006A000C0C00000000000C0C0C0C0C000C0C0008A
:1006B000000000000000000000000000000000003A
:1006C000000000000000000000000000000000002A
:1006D000000000000000000000000000000000001A
:1006E000000000000000C0F0F8FC3E1E0601000003
:1006F000007F4141417F007F4141417F000080C038
:10070000E07E5B4F5BFEC00000C000DCD7DEDEDEBB
:10071000D7DC00C000000000000000000000000066
:1007200000000000000000000000000000494949EE
:10073000FFFFFFFFE0DFBFBF00BFBFDFE0FFFFFF46
:10074000FF49494900000000001F3F6060E0BF1FF3
:10075000007F7F071E381E077F7F007F7F0E1F3BB5
:10076000716000000000007F7F0C0C0C007E7E009A
:100770007F7E0303007F7E03037E7E03037F7E0074
:100780000F3E703C063C703E0F00327B49493F7E75
:10079000007F7E0303001E3F69696F260000000092
:1007A000000000000000030F1F3F3C787060000055
:1007B000007F4141417F007F4141417F00307B7F8D
:1007C0007830202030787F3B0003000F7F0F0F0F21
:1007D0007F0F000300000000000000000000000088
:1007E0000000000000000000000000000001010106
:1007F000070F0F7F0F7F0F0F7E0F0F7F0F7F0F0FE2
:1008000007010101000000000000000000000101DC
:1008100000000000000000000000000000000000D8
:1008200000000000000000000000000000000000C8
:1008300000000000000000000000000000000000B8
:1008400000000000000000000000000000000000A8
:100850000000000000000000000000000000000098
:100860000000000000000000000000000000000088
:100870000000000000000000000000000000000078
:100880000000000000000000000000000000000068
:100890000000000000000000000000000000000058
:1008A0000000000000000000000000000000000048
:1008B0000000000000000000000000000000000038
:1008C00000000000000000000000007E0F00D4FFC8
:1008D000FFFFC70000007800000000000000002AB1
:1008E0002B280000000000000000000000000000B5
:1008F000000029000000002C1E3420212224342670
:1009000027252E362D3738271E1F20212223242568
:10091000263333362E37381F0405060708090A0B1D
:100920000C0D0E0F101112131415161718191A1B8F
:100930001C1D2F3130232D350405060708090A0B2D
:100940000C0D0E0F101112131415161718191A1B6F
:100950001C1D2F3130354C0011241FBECFEFDAE0C3
:10096000DEBFCDBF11E0A0E0B1E0EAEBF0E602C0EF
:1009700005900D92AE37B107D9F725E0AEE7B1E0AB
:1009800001C01D92A03DB207E1F70E945F290C94BF
:100990001B300C940000E8EDF0E080818E7F8083B6
:1009A0001092E2001092DA001092E100A0EEB0E0A6
:1009B0008C9181608C9380818F77808319BCA7EDA7
:1009C000B0E08C918E7F8C9380818F7E808310929B
:1009D000960308952091E4003091E50095E6A90181
:1009E0002091EC00822F817020FF06C08091E800EA
:1009F00080FF06C080E008952091E80022FD1AC023
:100A00008091C403882389F0853089F08091EB00C0
:100A100085FD0FC02091E4003091E5004217530797
:100A2000F9F29150E1F684E0089582E0089583E0C0
:100A3000089581E008958091C403843061F5809128
:100A4000290190912A01A0912B01B0912C01892BB1
:100A50008A2B8B2B01F1809116018F708093E90016
:100A60009091F3008091F200892B11F480E00895B9
:100A70009091E8008091E8008E778093E80095FDE2
:100A8000F5CF0E94EA04811107C09091E8009E779B
:100A90009093E800089582E00895EF92FF920F93FB
:100AA0001F93CF937C018B010E94EA04C82F811110
:100AB00017C08091E80085FD0BC08091E8008E771B
:100AC0008093E8000E94EA04882399F3C82F08C0A5
:100AD000F70181917F018093F1000150110949F7DD
:100AE0008C2FCF911F910F91FF90EF9008958091DF
:100AF000BC0387FF13C08091E80082FF06C080918D
:100B0000E8008B778093E80004C08091C4038111D2
:100B1000F2CF08958091C4038823D9F38091E8002F
:100B200080FFF8CF8091E8008E77ECCF982F9093DC
:100B3000E900242F762F50E0891731F07091EC00F6
:100B40002091ED005091F00021FD07C09F5F97308C
:100B500071F78093E90081E008953091EB003E7FCA
:100B60003093EB003091ED003D7F3093ED003091FC
:100B7000EB0031603093EB007093EC002093ED00BC
:100B80005093F0002091EE0027FDE0CF80E0089523
:100B9000B0E0A0E0EEECF5E00C94702FC8EDD0E0F2
:100BA00088818F7E8883E7EDF0E08081816080839B
:100BB00084E082BF81E08093960388818E7F888362
:100BC00002EE10E0F80110821092DA0081EEC82ED9
:100BD000D12CF601108288818F7788838881806884
:100BE000888388818F7D888319BC1092C4031092FA
:100BF000BB031092BA031092B90390EEE92EF12CC8
:100C0000F70180818B7F808388818160888342E0C7
:100C100060E080E00E949605F60180818E7F8083EF
:100C2000F801808181608083808188608083F70102
:100C300080818E7F8083888180618883CDB7DEB795
:100C4000E8E00C948C2FFC018091C2039091C303C7
:100C500086179707A0F06115710529F49091E800B7
:100C60009E779093E80090E06115710551F4911121
:100C700008C08091E80082FF34C080E00895BC0184
:100C8000F2CF8091C4038823C1F18530C1F18091F6
:100C9000E80083FD30C08091E80082FDEACF8091BA
:100CA000E80080FFE1CF8091F3002091F200382F1F
:100CB0006115710519F02830310558F091E02830A0
:100CC000310509F090E02091E8002E772093E800AC
:100CD000CBCF81918093F100615071092F5F3F4F1D
:100CE000E7CF8091C403882341F0853041F08091A3
:100CF000E80083FFBECF81E0089582E0089583E09D
:100D0000089508958091980308952FB7F8946091FD
:100D10008D0370918E0380918F03909190032FBF6C
:100D20000895209114012223C9F02091910327FFF7
:100D300015C0E62FE695E695E695EE31D8F4E80F76
:100D4000F92FF11D677021E030E001C0220F6A9594
:100D5000EAF720958281282322830895FC013296A8
:100D600008962191621303C0DF0111971C92E817C6
:100D7000F907B9F7089520918A0330918B0328175A
:100D8000390771F090938B0380938A03E091880375
:100D9000F0918903309721F00084F185E02D0995C9
:100DA000089520918603309187032817390771F041
:100DB0009093870380938603E0918803F0918903E1
:100DC000309721F00680F781E02D09950895E09194
:100DD0008803F0918903309729F00190F081E02D8C
:100DE0000995089580E0089540917C038D3E59F463
:100DF00080917D0387FF0DC010927D0341110BC0D0
:100E00001092740308C08E3E81F480917D03181601
:100E10009CF3442381F080917E0390917F03892B82
:100E200009F05AC01092730308958F3E49F447FFAA
:100E3000F0CF10927C0380917D038111ECCFE0CF45
:100E4000803F19F41416ACF3E4CF90917E03893FF0
:100E500029F41916F4F610927E03DBCF8A3F19F4B9
:100E600097FFD7CFF8CF90917F038B3F29F497FF5F
:100E7000D0CF10927F03CDCF8C3F19F41916CCF34D
:100E8000C8CF9FE0980F983090F4815F990B21E0D4
:100E900030E0B90102C0660F771F8A95E2F7CB01F7
:100EA000809590917B03892380937B03B2CF8D3F04
:100EB00031F4809175038E7F80937503AACF8E3FA6
:100EC00021F4809175038D7FF7CF8F3F09F0A1CF7B
:100ED000809175038B7FF0CF08958091750380FD1D
:100EE00016C081FD16C082FD16C080917303882351
:100EF000A1F0883280F428E0829FC001112468E2CA
:100F000070E00E94A92F862F672B39F0089582E0A8
:100F1000089584E0089588E0089581E0089580911F
:100F2000750380FD14C081FD14C082FD16C0809140
:100F30007403882381F08E3180F420E5829FC00104
:100F400011246EE170E00E94A92F862F089584E19C
:100F5000089588E2089588E0089580E508958D3E1B
:100F600031F40E948F07819580937D0308958E3E12
:100F700019F40E948F07F8CF8F3E31F40E948F073B
:100F8000819580937C030895803F19F40E948F0718
:100F9000F8CF893F29F40E946D0780937E0308955E
:100FA0008A3F21F40E946D078195F7CF8B3F31F482
:100FB0000E946D07819580937F0308958C3F19F4FB
:100FC0000E946D07F8CF9FE0980F983070F4815F12
:100FD000990B21E030E001C0220F8A95EAF7809159
:100FE0007B03822B80937B0308958D3F31F48091A6
:100FF000750381608093750308958E3F21F480917D
:1010000075038260F7CF8F3FB9F7809175038460D5
:10101000F1CF452B39F0682381E06F3F09F080E084
:101020008170089581E0FCCF80E00895F894E82F66
:10103000E295EF70F0E031A1282F2F7081E090E071
:1010400001C0880F2A95EAF7982F9095932391A3D2
:1010500092A1892B82A3789408959091910392FF95
:1010600006C0282F28712830F9F4877F846093FF09
:1010700006C0282F28712831F1F4877E84612091E1
:10108000920320FF06C0382F38713830D9F4877F9B
:10109000816021FF06C0282F28712831D1F4877E76
:1010A000816194FD877E0895282F24712430F9F6FC
:1010B0008B7F8860DCCF282F2471243101F78B7E51
:1010C0008861DDCF382F3171313019F78E7F88601C
:1010D000E0CF282F2171213121F78E7E8861E1CF69
:1010E000972F7230A8F46A3098F470E02AE0929F4B
:1010F000600D711D1124FB0194E1899FE00DF11D2C
:101100001124EE0FFF1FE450FF4F85919491089535
:1011100080E090E00895CF93DF93EC018238910551
:10112000B1F108F040C08133910509F49DC048F544
:101130008932910509F48DC08A9709F49CC0C115C4
:1011400021E5D20708F0C3C0C11530E5D30708F088
:101150001EC1C83ED10508F0A3C0C13ED10588F527
:10116000C83AD10508F08EC0C53AD10508F007C1CC
:10117000C130D10531F1209721F1C430D10508F5F6
:1011800045C08533910509F45FC0C997C1F68091C8
:101190009103837009F043C18091920383FF11C0D2
:1011A000C9E2D0E00EC0833E910599F170F4803E13
:1011B000910501F1823E910511F68091910382FD26
:1011C00021C0CE01DF91CF910895863E910561F156
:1011D000873E910571F1843E910509F0B0CF809171
:1011E000920381FFEECF80919103C7EED0E084FDA2
:1011F0000DC0E7CF8091910380FD33C090919203A1
:1012000090FFDFCFC3EED0E084FFDBCFD0E0C0E0C3
:10121000D8CF8091910382FDFFC09091920390FD01
:10122000FEC084FFCECFF2CF8091910383FDDDCF4E
:10123000C8CF8091910383FDF5C09091920391FFF7
:10124000F0CFC4EED0E0BDCF8091910385FFB9CF40
:10125000A7CF8091910385FDE8C08091920383FF21
:10126000B0CFC9E3D0E0ADCF8091910386FFA9CF85
:10127000CAE2D0E0A6CF8091910386FFA2CFC1E35E
:10128000D0E09FCFCF3BD10508F6C85AD0E0CC0FB5
:10129000DD1FC55CDE4F0990D881C02DD46491CF8D
:1012A000C11540E2D40758F4C11581E0D80708F011
:1012B00088CFCD3ED10508F4A9CFD06582CFC11526
:1012C00020E4D20708F4A2CFDF70D06A7ACFC1152C
:1012D00035E5D30718F5C11544E5D40708F084C0F7
:1012E000C11583E5D80708F06BC0C11522E5D20708
:1012F00008F461C0CE018370992721E030E002C07C
:10130000220F331F8A95E2F7C695C69580E2C89FE3
:10131000E0011124C22BD32BDC6853CFC11539E572
:10132000D307A8F4C11548E5D40708F062C0C11579
:1013300086E5D80708F06ACF8C2F0E942D08C82FA9
:10134000D0E0DC2FCC27CC27DF71D0623ACFC1159B
:101350002AE5D20708F452C0CE019056811590427A
:1013600008F054CF8D2F8F710E942D0890E0982F98
:10137000882788279F719C012C2BE901E6CFC55A4D
:10138000D0E0C85CDE4FC881D0E0D0641ACFCE0177
:101390008370992721E030E002C0220F331F8A9525
:1013A000E2F7C695C69540E2C49FE0011124C22B26
:1013B000D32BDD6806CFDC2FCC27C16FD06A01CFDD
:1013C000CE018370992721E030E002C0220F331F45
:1013D0008A95E2F7C695C69540E2C49FE0011124C4
:1013E000C22BD32BDA68EDCEDC2FCC27C46FD06AAA
:1013F000E8CEDC2FCC27C06FD06AE3CE8C2F8F7065
:101400000E942D0834E0D695C7953A95E1F7CF7044
:101410009C2FEC01D069D5CEC2EED0E0D2CEC0EE8A
:10142000D0E0CFCEC6EED0E0CCCEC5E3D0E0C9CE82
:1014300080912A03811110922A030895809590913A
:10144000290398239093290308958091060390918E
:10145000D502981301C008958F5F8770FACFB0E06E
:10146000A0E0E5E3FAE00C946F2F7C0100914803C3
:101470001091490380912B0390912C03082B192B79
:10148000CFE0D0E0CC24C394D12CBC2EC6010C2ECE
:1014900002C0880F991F0A94E2F780239123892BB9
:1014A00049F4219790F7B12C8B2DCDB7DEB7E9E049
:1014B0000C948B2FB7018C2F0E9470080E948B0810
:1014C000019779F3F1CFCF93DF93EC010E942F0ABC
:1014D000BE010E9470080E948B08DF91CF91089591
:1014E000923078F58A3068F5E82FF0E08AE0989F2E
:1014F000E00DF11D11249E2F977083E0F695E7957E
:101500008A95E1F7EE0FFF1FEE0FFF1FED53FD4F22
:1015100050E040E080E0219130E0092E02C0369595
:1015200027950A94E2F721703327042E01C0220F79
:101530000A94EAF7822B4F5F5F4F4430510559F709
:10154000089580E00895923098F58A3088F5E82F64
:10155000F0E08AE0989FE00DF11D11248E2F877036
:1015600041E001C0440F8A95EAF783E0F695E795DC
:101570008A95E1F7EE0FFF1FEE0FFF1FED53FD4FB2
:1015800030E020E070E05191DF011197CB01022E95
:1015900002C0969587950A94E2F781708195852718
:1015A000842385278C932F5F3F4F2430310559F7D3
:1015B00008950F931F93CF938C01FC0143815481B5
:1015C000618180810E940908C82F811123C0F80120
:1015D000808191810E94630A92959F709630A9F054
:1015E00058F4925F9F70923058F4803F19F030F4B5
:1015F000883E30F4C1E004C09A5FF4CF843FD1F359
:101600008C2FCF911F910F910895883E98F3813FC1
:10161000B9F7F0CFC0E0F4CF6093230270932402B7
:1016200080932502909326028091A7029091A802B0
:101630009093220280932102E7E2F2E0A1EAB1E076
:1016400041915191619171914D935D936D937D9312
:1016500082E0E73AF807A1F70895CF93C091E90037
:101660002091EC00922F917020FD90E820912501AF
:1016700020FF12C0CF70C92B909116019F709093DC
:10168000E9009091EB0090FF04C09091EE0097FD6F
:1016900005C0CF70C093E900CF9108959FEF2091CE
:1016A000E800915025FD06C025ED2A95F1F70000D0
:1016B0009111F5CF8093F10085E191E00E941B0527
:1016C0008091E80080FFE5CF8091E8008E778093DD
:1016D000E800DFCF809393037093950360939403A6
:1016E0008091C403843001F582E08093E9008FEF9C
:1016F0009091E800815095FD06C095ED9A95F1F71F
:1017000000008111F5CF8091E80085FF0DC050E009
:1017100040E063E070E083E993E00E944D05809132
:10172000E8008E778093E8000895BC0184E00E9471
:101730006A0B0895BC0183E00E946A0B08959C0126
:1017400082E08093E9009FEF8091E800915085FD51
:1017500006C085ED8A95F1F700009111F5CF8091D3
:10176000E80085FF0CC050E040E066E070E0C90191
:101770000E944D058091E8008E778093E8000895DF
:10178000CF93DF93EC01809114018823B1F1809114
:10179000910387FF32C060E282E08093E9008FEF1F
:1017A0009091E800815095FD06C095ED9A95F1F76E
:1017B00000008111F5CF8091E80085FF1BC080916A
:1017C000140170E050E040E0811104C050E040E0BE
:1017D00068E070E0CE010E944D058091E8008E77B0
:1017E0008093E80080E2FE01A9E9B3E001900D9248
:1017F0008A95E1F7DF91CF91089568E081E0CDCF40
:10180000EDE6F3E086E0DF011D928A95E9F70895A1
:10181000CF93DF93682F81E06A3019F06D3031F497
:1018200080E00E94960CDF91CF9108958091CE05C3
:101830009091CF0526E0FC01A8ECB5E001900D9257
:101840002A95E1F7603E08F458C026E0FC011192A9
:101850002A95E9F7C091CE05D091CF0546E050E03A
:10186000BE0188EC95E00E94CC2F9E01285C33409D
:10187000892B41F1C90145E0969587954A95E1F795
:1018800041E050E0BA0102C0660F771F8A95E2F787
:10189000CB016091C6037091C703862B972BB901CA
:1018A0006B5F7F4FE5E076956795EA95E1F702C0BB
:1018B000440F551F6A95E2F7842B952B9093C7032D
:1018C0008093C6032A5F3F4F4091C503642F70E0A9
:1018D000C9010E94522F481B463010F4240F311DBD
:1018E000211572E0370710F030E020E028533C4F1C
:1018F0003093CF052093CE0596CFF6E06F9FB001D1
:10190000112469597C4F46E050E00E94C32FA2CFBA
:10191000CF93DF93EC01FE018491811103C0DF912D
:10192000CF9108950E94080C2196F5CFCF93382FC0
:10193000E091CE05F091CF05E85CF3402091C5031E
:10194000622F70E0CF010E94522F281B822F332379
:1019500061F066E00E949D2FC82FC15010F4CF9116
:10196000089580E20E94080CF8CF9F01280F311DD6
:101970002115324018F080E0F0E0E0E08E0F9F2F5C
:10198000911D88539C4F9093CF058093CE05E7CF50
:101990000E94880C81E00E94960C08958091290392
:1019A00090912803892B8093800190912A03992399
:1019B000A1F0892B80938001809114018823E1F1AB
:1019C0008091910387FF38C08EE1E2E8F1E090E07A
:1019D0008150A0F591110E94180A40E250E068E0A1
:1019E00073E080E891E00E94CC2F892B21F180E206
:1019F000E0E8F1E0A8E0B3E001900D928A95E1F70C
:101A0000E0918803F09189033097A9F08091140147
:101A1000882359F08091910387FF07C0809180014E
:101A20008093810186E0809380010280F381E02D24
:101A300080E891E00995089586E0C7CF219122239F
:101A400039F29F5FC5CF882321F00E941E0A0E94B1
:101A5000CE0C0895882339F090912903982B909308
:101A600029030E94CE0C0895B0E0A0E0EAE3FDE077
:101A70000C94702F6C017B0164E670E088E70E9493
:101A80006C2EEC0197FD12C010E000E0F601E00FB3
:101A9000F11F849164E670E00E94D82EEC01892B3E
:101AA00029F40F5F1F4F0E151F0581F70E944E2F5F
:101AB000CE01CDB7DEB7E8E00C948C2F8091840383
:101AC00090918503911103C091E08927089588239F
:101AD00069F062E070E08BEB91E00E94340D892B9D
:101AE00019F08091840308951092840380918403F7
:101AF000EBCFCF93C0918403809185038823D1F0ED
:101B00000E948506605A75418F4F9F4F60938003F6
:101B1000709381038093820390938303C11108C063
:101B200062E070E089EB91E00E94340D892B29F08E
:101B3000C09184038C2FCF91089581E0809384031A
:101B4000F7CFCF9384E090E00E94D92FC82F82E294
:101B500090E00E94D92F982F8C2FCF910895CF938A
:101B6000C92F682F84E090E00E94E72F6C2F82E25B
:101B700090E00E94E72FCF91089568EE7EEF90E00D
:101B800080E00E94053060E082E090E00E94E72F54
:101B900060E083E090E00E94E72F10922C03109207
:101BA0002B0360E084E090E00E94E72F64E082E293
:101BB00090E00E94E72F60E085E090E00E94E72F30
:101BC00060E086E090E00E94E72F6FEF87E090E012
:101BD0000E94E72F40E050E0BA0188E090E00E94C8
:101BE000F92F60E08DE090E00E94E72F40E050E0A8
:101BF000BA0188E190E00E94F92F60E087E190E06F
:101C00000E94E72F40E050E0BA018CE190E00E9492
:101C1000F92F70E060E080E290E00E94053040E043
:101C200050E0BA0188E190E00E94F92F40E050E0D6
:101C3000BA018FE090E00E94F92F40E050E0BA0135
:101C400083E190E00E94F92F08951F920F920FB642
:101C50000F9211242F933F934F935F936F937F9332
:101C60008F939F93AF93BF93EF93FF938091E10086
:101C700082FF09C08091E20082FF05C08091E100EF
:101C80008B7F8093E1008091DA0080FF24C08091F7
:101C9000D80080FF20C08091DA008E7F8093DA0028
:101CA0008091D90080FF9DC080E189BD82E189BD1E
:101CB00009B400FEFDCF81E08093C40380919603B8
:101CC000811109C00E94CB040E94C8058091E200E6
:101CD00084608093E2008091E10080FF17C08091D2
:101CE000E20080FF13C08091E2008E7F8093E200CB
:101CF0008091E20080618093E2008091D800806250
:101D00008093D80019BC85E08093C4038091E100E2
:101D100084FF2BC08091E20084FF27C080E189BD51
:101D200082E189BD89B5982F917080FFFBCF8091AA
:101D3000D8008F7D8093D8008091E1008F7E8093C2
:101D4000E1008091E2008F7E8093E2008091E200CA
:101D500081608093E2008091BB03882309F447C02F
:101D600084E08093C4038091C4038091E10083FFE9
:101D700027C08091E20083FF23C08091E100877F2C
:101D80008093E10082E08093C4031092BB038091B2
:101D9000E1008E7F8093E1008091E2008E7F80934E
:101DA000E2008091E20080618093E20042E060E026
:101DB00080E00E9496058091F00088608093F0009A
:101DC000FF91EF91BF91AF919F918F917F916F9113
:101DD0005F914F913F912F910F900FBE0F901F90E9
:101DE000189519BC1092C4031092960374CF809179
:101DF000E30087FD93E09093C403B5CF78941F92DE
:101E00001FB61F9211248F939F93AF93BF9380911E
:101E10008D0390918E03A0918F03B0919003019652
:101E2000A11DB11D80938D0390938E03A0938F030A
:101E3000B0939003BF91AF919F918F911F901FBE60
:101E40001F9018959C014FB7F89480918D03909145
:101E50008E03A0918F03B09190034FBF821B930B11
:101E600008952FB7F89480918D0390918E03A091DF
:101E70008F03B09190032FBF08950E94310F9C01F2
:101E800090917C0380917D03982B21F0309379030E
:101E90002093780390917E0380917F03982B21F00B
:101EA0003093770320937603E0918803F0918903C0
:101EB000309749F082E080937A030480F581E02D29
:101EC0008AE793E00995089590E080E00E94D106AA
:101ED00090E080E00E94BB06109228030E94CE0C86
:101EE00086E0EAE7F3E0DF011D928A95E9F71092B8
:101EF000740310927303109275030E943D0F0895AE
:101F000090934903809348030E94640F089521E051
:101F100030E002C0220F331F8A95E2F720953095FA
:101F20008091480390914903822393230E94800F5C
:101F30000895909107038095892380930703282FA4
:101F4000277091F4282F082E000C330B92171306DC
:101F500059F09091920392FF07C0859585958595DC
:101F60000E94870F1092070308959091920392FBAD
:101F7000222720F9281769F080FB92F990939203A9
:101F800080919103909192030E94AF0D82E00E9494
:101F9000990F089521E030E002C0220F331F8A9587
:101FA000E2F78091480390914903822B932B0E9482
:101FB000800F089590932C0380932B030E94640F4D
:101FC00008951092290380911401E2E8F1E088233A
:101FD00061F08091910387FF08C08EE1DF011D92BF
:101FE0008A95E9F70E94640F089586E0F7CFAAE288
:101FF000B0E0EDEFFFE00C94752F8CEB93E02091B7
:10200000F100FC012193CF01F3E0843C9F07B9F775
:102010008091BD03833009F4B9C008F04CC0813011
:1020200009F47FC0823009F4F9C08091E80083FF91
:102030009CC0209115018091C0039091C103281785
:10204000190609F092C08091BD03813209F406C1DE
:1020500008F0F5C0803209F088C08091BC0381325D
:1020600009F083C08091E800877F8093E800809129
:10207000E80082FF30C13091F1002091F100909191
:10208000F1008091F1003093290120932A0190936F
:102090002B0180932C018091F10080932D01809180
:1020A000F10080932E018091F10080932F018091A7
:1020B000E8008B770BC18A3009F49FC08B3009F49C
:1020C00082C0893009F0B1CF8091BC03813209F020
:1020D000ACCF8091C0039091C103029708F0A5CFC7
:1020E0008091E800877F8093E8008091E80082FF7C
:1020F00038C09091F3008091F200029731F4809102
:10210000F100813011F0863021F48091F10080934C
:1021100098038091E8008B778093E8000E94770510
:1021200084CF8091BC03813A09F07FCF8091E80091
:10213000877F8093E8008091C0039091C103892B31
:1021400061F460E289E993E070E00E9423068091E7
:10215000E8008B778093E80068CF60E090E080E053
:10216000F3CF8091C4038111C0CF8091E80083FF39
:102170009CC28091BC039091BD039A3008F095C237
:10218000E92FF0E0E35EFF4C0C94BD2F8091BC037F
:10219000813A09F04ACF8091C0039091C103892B05
:1021A00009F043CF8091E800877F8093E800809119
:1021B000E80080FFFCCF809114018093F1008091B2
:1021C000E8008E77A9CF8091BC03813209F02DCF32
:1021D0008091C0039091C103892B09F026CF809193
:1021E000E800877F8093E8000E9477058091BE0316
:1021F000809314010E94E10F18CF8091BC038132BB
:1022000009F013CF8091E800877F8093E8000E9457
:1022100077058091BF038093970307CF8091BC031C
:10222000813A09F002CF8091E800877F8093E8002F
:102230008091E80080FFFCCF80919703BECF82326F
:1022400009F44EC0833209F090CF8091BC038132F3
:1022500009F08BCF8091E800877F38C08091BC0364
:10226000813A09F082CF8091E800877F8093E8006F
:102270008091E80080FFFCCF8091290190912A0194
:10228000A0912B01B0912C018093F100492F5A2F7E
:102290006B2F77274093F100AD0166277727409396
:1022A000F1008B2F9927AA27BB278093F1008091FB
:1022B0002D018093F10080912E018093F100809197
:1022C0002F018093F1008091E8008E778093E800E1
:1022D0000E9477054ACF8091C4038111C8CE45CFB3
:1022E0008091BC03813209F040CF8091E800877F64
:1022F0008093E8000E9477058091BE039091BF0310
:10230000909326018093250130CF803899F0823850
:1023100009F0CBC18091C0038F70873008F0C5C130
:102320008093E9008091EB0085FB882780F910926B
:10233000E90006C08091B9039091BA0391118260BF
:102340009091E800977F9093E8008093F1001092BD
:10235000F1008091E8008E77A4C1882309F492C12E
:10236000823009F0A2C18091BE03811195C1809194
:10237000C0038F702FEF280F263008F096C180938E
:10238000E9002091EB0020FF87C1933031F4809168
:10239000EB0080628093EB007FC19091EB00906135
:1023A0009093EB0021E030E001C0220F8A95EAF71C
:1023B0002093EA001092EA008091EB008860EACF57
:1023C000811173C11091BE031F778091E300807863
:1023D000812B8093E3008091E800877F8093E80061
:1023E0000E9477058091E80080FFFCCF8091E30098
:1023F00080688093E30082E0111183E08093C4033E
:1024000054C18058823008F050C18091BE03909131
:10241000BF038C3D23E09207A1F583E08A838AE223
:1024200089834FB7F894DE01139620E03EE051E235
:10243000E32FF0E050935700E49120FF03C0E295B2
:10244000EF703F5FEF708E2F90E0EA30C0F0C796DC
:102450008D939D932F5F243159F74FBF8091E800F2
:10246000877F8093E8006AE270E0CE0101960E94C7
:1024700023068091E8008B778093E80016C1C09610
:10248000E7CF4091C0035091C103292F3327233058
:10249000310509F444C078F52130310509F46FC0E5
:1024A00088E790E0E3EBF2E02230310509F0FDC06F
:1024B0002091E800277F2093E8002091C20330910B
:1024C000C3038217930708F49C0140E021153105EE
:1024D00009F064C0411162C08091E80082FDC9CF5B
:1024E0008091C403882329F2853019F28091E80095
:1024F00083FFF2CFBECF21323105A9F1223231055F
:1025000009F0D3C04115510509F443C041305105CC
:1025100009F0CBC086EB90E0EDEBF1E0C9CF992755
:1025200081309105C1F0009759F0029709F0BDC0C4
:10253000EDE3F3E0E4918E2F90E0EDE3F3E007C0EC
:10254000E3E6F3E0E4918E2F90E0E3E6F3E000971A
:1025500009F4ABC0ADCFE1E5F3E0E4918E2F90E05C
:10256000E1E5F3E0F4CF4115510571F0413051053B
:1025700009F09BC089E090E0EEEDF2E099CF82E1B6
:1025800090E0EBE2F3E094CF89E090E0E5ECF2E05C
:102590008FCF80E490E0E3E7F2E08ACF8091C4033C
:1025A000882309F466CF853009F463CF8091E80071
:1025B00083FD5FCF8091E80082FD8ECF8091E8009F
:1025C00080FF84CF9091F3008091F20021153105B6
:1025D00019F08830910550F041E0089709F040E08B
:1025E0008091E8008E778093E80070CF449140930B
:1025F000F1003196215031090196E8CF803809F079
:1026000054C08091E800877F8093E8008091BB03ED
:102610008093F1009ECE811148C01091BE0312300C
:1026200008F043C08091E800877F8093E800109312
:10263000BB030E947705112311F084E005C080914F
:10264000E30087FDFACF81E08093C40342E061ECB0
:1026500081E00E94960542E261EC82E00E949605CC
:1026600042E061EC83E00E94960542E160E885E08B
:102670000E94960542E161E884E00E9496058091FF
:10268000C40313C08091BE03813079F481E093309C
:1026900009F080E08093BA031092E9008091E8008D
:1026A000877F8093E8000E9477058091E80083FF90
:1026B0000AC08091E800877F8093E8008091EB005A
:1026C00080628093EB00AA96E3E00C94912F1F9216
:1026D0000F920FB60F9211242F933F934F935F9356
:1026E0006F937F938F939F93AF93BF93CF93DF931A
:1026F000EF93FF93D091E900DF708091EC00C82F39
:10270000C17080FDC0E81092E9008091F000877FE1
:102710008093F00078940E94F70F1092E900809166
:10272000F00088608093F000CD2BCF70C093E9005B
:10273000FF91EF91DF91CF91BF91AF919F918F91D9
:102740007F916F915F914F913F912F910F900FBEAD
:102750000F901F9018950E94E10F2FEF84E39CE0EB
:10276000215080409040E1F700C0000088E19AE0ED
:102770000FB6F894A895809360000FBE9093600008
:10278000FFCF882391F19CEF980F913A40F4682F86
:1027900080E891E00E9491060E94CE0C089590E29C
:1027A000980F983050F4877091E001C0990F8A9586
:1027B000EAF7892F0E941E0AEFCF9BE5980F93300E
:1027C00028F490E080E00E94D106089598E5980FE3
:1027D000973128F490E080E00E94BB0608958D3E7A
:1027E00020F00E94F4060E943D0F0895CF93C82F59
:1027F000882309F442C08CEF8C0F813A08F065C041
:10280000809114018823D9F18091910387FF37C00B
:10281000EC2FE695E695E695F0E0E058FE4F8281D4
:1028200090E04C2F477021E030E002C0220F331FB0
:102830004A95E2F782239323892B61F06C2F80E87D
:1028400091E00E9491060E94CE0C23C080919103DA
:1028500087FF23C0EC2FE695E695E695F0E0E0587B
:10286000FE4FC77021E030E001C0220FCA95EAF7A1
:102870008281822B82830E94CE0CCF910895E2E860
:10288000F1E088E891E02191C217C1F28E179F070D
:10289000D1F7809114018111D9CFA2E8B1E0EFEF17
:1028A00080E09D91C91739F3EF3F19F4911101C0F0
:1028B000E82F8F5F8630A9F7EF3FE9F20E2E000C6C
:1028C000FF0BE058FE4FC283D6CF80E28C0F8830DA
:1028D00068F4C77021E030E001C0220FCA95EAF722
:1028E00080912903822B80932903C5CFEBE5EC0F60
:1028F000E33040F4F0E0E85CFE4F808190E00E941D
:10290000D106BBCFE8E5EC0FE73150F4F0E0EE0F75
:10291000FF1FE55CFE4F808191810E94BB06ADCF19
:10292000CD3E08F4AACF8C2F0E94AF070E943D0F26
:10293000A4CF1F93CF93DF93182FEB010E94F613C0
:10294000209739F4812F0E94C113DF91CF911F91FD
:1029500008958FE99FE00197F1F700C000002197EB
:10296000EFCFB0E0A0E0E7EBF4E10C946E2FEC01C8
:102970008AE0A82EFE012491222309F4A6C021306A
:1029800009F044C031968491813061F42296FE01B1
:10299000849170E060E0893311F460E570E00E949A
:1029A000991407C0823039F42296FE0184910E9466
:1029B000F6132196DFCF833031F42296FE01849105
:1029C0000E94C113F6CF843009F07DC02296FE012B
:1029D000249190E080E0FE0131962053330B2A30A1
:1029E000310548F0019728F3EFE9FFE03197F1F75F
:1029F00000C00000F7CFA89EA001A99E500D112491
:102A0000C901840F951F2491EF01E5CFE22FF0E07B
:102A1000E952F74FB490822F86958695869590E07F
:102A2000FC01E953F74FE4902770F12C022E02C00D
:102A3000F594E7940A94E2F731E0E322FF24FC01E5
:102A4000E954F74FC490D12C022E02C0D594C794FC
:102A50000A94E2F7E1E0CE22DD24FC01E955F74FCC
:102A6000049110E002C0159507952A95E2F70170D0
:102A70001127E114F10419F081EE0E94F613C1143C
:102A8000D10419F086EE0E94F613F9E370E060E0DD
:102A9000BF1202C060E570E08B2D0E949914C11432
:102AA000D10419F086EE0E94C113E114F10419F06B
:102AB00081EE0E94C1130115110509F47ACF70E06F
:102AC00060E08CE26CCFEF0174CFCDB7DEB7EAE007
:102AD0000C948A2F90910001923069F49091BE027B
:102AE000943158F4E92FF0E0E755FD4F80839F5F64
:102AF0009093BE0208950E94F6130895CF92DF923C
:102B0000EF92FF92C0904403D0904503E0904603BB
:102B1000F0904703C11491E0D906E104F10461F497
:102B2000811103C084E10E946A15C701B601FF90BC
:102B3000EF90DF90CF900895C11492E0D906E104A0
:102B4000F10421F48111F1CF84E0EDCFC11494E0C0
:102B5000D906E104F10421F48111E7CF8AE1E3CF42
:102B6000C11490E1D906E104F10421F48111DDCF13
:102B700088E0D9CFC11490E4D906E104F10421F42E
:102B80008111D3CF85E1CFCFC11498E0D906E104FC
:102B9000F10421F48111C9CF86E1C5CFC11490E2BF
:102BA000D906E104F10421F48111BFCF87E0BBCF46
:102BB000C11490E8D906E104F10421F48111B5CFE4
:102BC00089E0B1CF94E0C916D104E104F10421F405
:102BD0008111ABCF87E1A7CF98E0C916D104E104FA
:102BE000F10421F48111A1CF8AE09DCFC114D10459
:102BF00091E0E906F10421F4811197CF86E093CFAB
:102C0000C114D10492E0E906F10421F481118DCFC1
:102C100089E189CFC114D10494E0E906F10421F4DB
:102C2000811183CF81E17FCFC114D10498E0E906FF
:102C3000F10421F4811179CF80E175CF90E1C916BB
:102C4000D104E104F10421F481116FCF8CE16BCF49
:102C500090E2C916D104E104F10421F4811165CF99
:102C60008BE061CFC114D10490E1E906F10421F4B5
:102C700081115BCF88E157CFC114D10490E4E906FC
:102C8000F10421F4811151CF8CE04DCFC114D10456
:102C9000E10491E0F90621F4811147CF82E143CFAD
:102CA000C114D104E10494E0F90621F481113DCF6F
:102CB00083E139CFC114D104E10490E1F90621F494
:102CC000811133CF8FE22FCFC114D10490E2E906F6
:102CD000F10421F4811129CF8DE025CFC114D10455
:102CE00090E8E906F10421F481111FCF8EE01BCF9B
:102CF000C114D104E10492E0F90621F4811115CF49
:102D00008FE011CFC114D104E10498E0F90621F459
:102D100081110BCF83E307CFC114D104E10490E20A
:102D2000F90621F4811101CF86E3FDCE90E4C916A6
:102D3000D104E104F10421F48111F7CE8EE1F3CE48
:102D400090E8C916D104E104F104B1F3C12CD12CEF
:102D50007601EBCECF92DF92EF92FF92C0904403C8
:102D6000D0904503E0904603F0904703C11499E0EA
:102D7000D906E10498E1F90689F4811108C088EBCD
:102D800090E00E94B1148CEA90E00E94B114C70157
:102D9000B601FF90EF90DF90CF90089598E0C916AC
:102DA00090E8D90690EAE906F10431F48111EFCFF9
:102DB0008AE20E946A15EBCFC11492E0D906E104C1
:102DC00090E2F90631F48111E2CF8CE20E946A159B
:102DD000DECFC11490E5D906E104F10471F481114C
:102DE000D6CF82EF0E94AF070E943D0F81E0809313
:102DF000C10282EF8093C002CACF94E0C916D10409
:102E000090E1E906F10471F48111C1CF81EF0E94D4
:102E1000AF070E943D0F81E08093C10281EF809354
:102E2000C002B5CFC11495E0D906E104F10431F434
:102E30008111ADCF89E20E946A15A9CFC1149AE031
:102E4000D906E104F10431F48111A1CF81EE0E9491
:102E50006A159DCFC114D104E10498E2F90631F45A
:102E6000811195CF81EE0E946A1591CF98E0C91625
:102E7000D10490E2E906F10431F4811188CF8CE2AB
:102E80000E946A1584CFC114D10490E4E90691E050
:102E9000F90631F481117BCF83EE0E946A1577CF5A
:102EA000C114D104E10494E1F90631F481116FCF2A
:102EB00080EE0E946A156BCFC114D104E10495E045
:102EC000F90631F4811163CF82EE0E946A155FCF5B
:102ED000C1149FE0D906E104F10431F4811157CF08
:102EE00080EE0E946A1553CFC114D104E1049CE323
:102EF000F90631F481114BCF88E20E946A1547CF61
:102F0000C1149AE5D90690E1E906F10431F4811182
:102F10003ECF8AE30E946A153ACFC1149AE5D906DA
:102F200090E4E906F10431F4811131CF8BE30E9482
:102F30006A152DCFC1149AE5D906E10491E0F9068E
:102F400031F4811124CF8CE30E946A1520CFC11483
:102F50009AE5D906E10494E0F90631F4811117CF1E
:102F60008DE30E946A1513CFC1149AE5D90690E348
:102F7000E906F10431F481110ACF8EE30E946A154B
:102F800006CFC1149AE5D90690ECE906F10431F4B4
:102F90008111FDCE8FE30E946A15F9CEC1149AE526
:102FA000D906E10493E0F90631F48111F0CE80E412
:102FB0000E946A15ECCEC1149AE5D906E1049CE0A2
:102FC000F90631F48111E3CE81E40E946A15DFCE67
:102FD000C1149AE5D90690E2E906F10431F48111B1
:102FE000D6CE82E40E946A15D2CEC1149AE5D906E3
:102FF00090E8E906F10431F48111C9CE83E40E941E
:103000006A15C5CEC1149AE5D906E10492E0F90625
:1030100031F48111BCCE84E40E946A15B8CEC1148B
:103020009AE5D906E10498E0F90631F48111AFCEB2
:1030300085E40E946A15ABCEC11495E5D90690E1EE
:10304000E906F10431F48111A2CE80E50E946A15EF
:103050009ECEC11495E5D90690E4E906F10431F459
:10306000811195CE81E50E946A1591CEC11495E536
:10307000D906E10491E0F90631F4811188CE82E5A8
:103080000E946A1584CEC11495E5D906E10494E046
:10309000F90631F481117BCE8FE40E946A1577CE58
:1030A00094E0C91695E5D906E104F10431F48111E3
:1030B0006ECE8BE40E946A156ACE98E0C91695E53B
:1030C000D906E104F10431F4811161CE8EE40E944D
:1030D0006A155DCEC1149AEAD90690E1E906F104B9
:1030E00031F4811154CE8CEA0E946A1550CEC1147D
:1030F0009AEAD90690E4E906F10431F4811147CE49
:103100008EEA0E946A1543CEC1149AEAD906E104F8
:1031100091E0F90631F481113ACE8EEA0E946A15E7
:1031200036CEC1149AEAD906E10494E0F90631F4E6
:1031300081112DCE8BEA0E946A1529CEC1149AEA1C
:10314000D906E10492E0F90631F4811120CE89EA32
:103150000E946A151CCEC1149AEAD90690E8E906C5
:10316000F10431F4811113CE8AEA0E946A150FCE60
:10317000C1149AEAD906E10498E0F90631F4811104
:1031800006CE88EA0E946A1502CEC11491E0D906E3
:1031900090EAE906F10431F48111F9CD8EE10E9443
:1031A0006A15F5CDC11494E0D90690EAE906F10458
:1031B00031F48111ECCD8FE10E946A15E8CDC11484
:1031C00090E1D90690EAE906F10431F48111DFCDEE
:1031D00080E20E946A15DBCDC11490E4D90690EA22
:1031E000E906F10431F48111D2CD81E20E946A1521
:1031F000CECD94E0C916D10490EAE906F10431F489
:103200008111C5CD82E20E946A15C1CDC114D104DD
:1032100090EBE906F10431F48111B9CD83E20E940B
:103220006A15B5CDC114D10490EEE906F10431F46C
:103230008111ADCD84E20E946A15A9CDC114D104DB
:1032400090EAE90691E0F90631F48111A0CD85E21A
:103250000E946A159CCDC114D10490EAE90694E05D
:10326000F90631F4811193CD86E20E946A158FCD63
:10327000C114D10490EAE90690E1F90631F4811114
:1032800086CD87E20E946A1582CDC11491EAD906E3
:10329000E104F10431F481117ACD8EE10E946A15C6
:1032A00076CDC11494EAD906E104F10431F4811118
:1032B0006ECD8FE10E946A156ACDC11490EBD906DC
:1032C000E104F10431F4811162CD80E20E946A15BB
:1032D0005ECDC11490EED906E104F10431F4811100
:1032E00056CD81E20E946A1552CD94E0C91690EA4B
:1032F000D906E104F10431F4811149CD82E20E9442
:103300006A1545CDC11490EAD90690E1E906F104A9
:1033100031F481113CCD83E20E946A1538CDC1148D
:1033200090EAD90690E4E906F10431F481112FCD39
:1033300084E20E946A152BCDC11490EAD906E104FB
:1033400091E0F90631F4811122CD85E20E946A15DF
:103350001ECDC11490EAD906E10494E0F90631F4D7
:10336000811115CD86E20E946A1511CDC11490EA33
:10337000D906E10490E1F90631F4811108CD87E224
:103380000E946A1504CDC11490E3D906E104F90640
:1033900049F48111FCCC81EE0E946A1586E20E94FC
:1033A0006A15F5CCC11490ECD906E10490E3F90656
:1033B00049F48111ECCC81EE0E946A1587E20E94EB
:1033C0006A15E5CC9CE0C916D104E10490E3F90646
:1033D00031F48111DCCC85E30E946A15D8CCC1148C
:1033E000D10490E3E906F90649F48111D0CC81EECD
:1033F0000E946A1580E20E946A15C9CCC1149CE043
:10340000D906E10490E3F90649F48111C0CC81EEBC
:103410000E946A1581E20E946A15B9CCC11491E03C
:10342000D906E10490E3F90649F48111B0CC81EEAC
:103430000E946A158EE10E946A15A9CCC11492E01F
:10344000D906E10490E3F90649F48111A0CC81EE9C
:103450000E946A1582E20E946A1599CCC11494E018
:10346000D906E10490E3F90649F4811190CC81EE8C
:103470000E946A158FE10E946A1589CCC11498E0F8
:10348000D906E10490E3F90649F4811180CC81EE7C
:103490000E946A1583E20E946A1579CCC11490E1FA
:1034A000D906E10490E3F90649F4811170CC81EE6C
:1034B0000E946A158FE20E946A1569CCC11490E2DD
:1034C000D906E10490E3F90631F4811160CC8FE272
:1034D0000E946A155CCCC11490E4D906E10490E323
:1034E000F90649F4811153CC81EE0E946A1580E3FC
:1034F0000E946A154CCCC11490E8D906E10490E30F
:10350000F90631F4811143CC80E30E946A153FCC67
:1035100094E0C916D104E10490E3F90649F481115D
:1035200036CC81EE0E946A1581E30E946A152FCC89
:1035300098E0C916D104E10490E3F90649F4811139
:1035400026CC81EE0E946A1585E30E946A151FCC85
:10355000C114D10490ECE90690E3F90631F481112D
:1035600016CC84E30E946A1512CCC114D10490E4F5
:10357000E90692E3F90649F4811109CC81EE0E9433
:103580006A1584E30E946A1502CCC114D10490E14B
:10359000E90690E3F90631F48111F9CB87E50E9441
:1035A0006A15F5CBC114D10490E2E90690E3F9065F
:1035B00049F48111ECCB81EE0E946A1584E20E94ED
:1035C0006A15E5CBC114D10490E4E90690E3F9064D
:1035D00031F48111DCCB8DE20E946A15D8CBC11485
:1035E000D10490E8E90690E3F90631F48111CFCBDC
:1035F0008EE20E946A15CBCBC114D104E10491E3A1
:10360000F90631F48111C3CB88E30E946A15BFCB60
:10361000C114D104E10492E3F90631F48111B7CB6E
:1036200086E30E946A15B3CBC114D104E10494E38C
:10363000F90631F48111ABCB85E50E946A15A7CB61
:10364000C114D104E10498E3F90631F481119FCB50
:1036500087E30E946A159BCBC11493E0D906E1046D
:10366000F10431F4811193CB84E00E946A158FCB71
:10367000C1149CE0D906E104F10431F4811187CB37
:1036800086E10E946A1583CBC11490E3D906E10458
:10369000F10431F481117BCB87E00E946A1577CB6E
:1036A000C11490ECD906E104F10431F481116FCB1F
:1036B00089E00E946A156BCB9CE0C916D104E10435
:1036C000F10431F4811163CB8AE00E946A155FCB6B
:1036D000C114D10490E3E906F10431F4811157CB10
:1036E0008BE00E946A1553CBC114D104E1049CE025
:1036F000F90631F481114BCB8FE00E946A1547CB5C
:10370000C114D104E10490E3F90631F481113FCBF7
:1037100083E30E946A153BCBC114D104E10493E01A
:10372000F90631F4811133CB8EE00E946A152FCB5C
:10373000C114D10490ECE906F10431F4811127CBD6
:103740008DE00E946A1523CBC11491E0D906E104F3
:10375000F10431F481111BCB84E10E946A1517CB6F
:10376000C11492E0D906E104F10431F481110FCBC8
:103770008DE10E946A150BCBC11494E0D906E104D7
:10378000F10431F4811103CB8AE10E946A15FFCA6A
:10379000C11498E0D906E104F10431F48111F7CAAB
:1037A0008BE10E946A15F3CAC11490E1D906E104C5
:1037B000F10431F48111EBCA88E00E946A15E7CA6E
:1037C000C11490E2D906E104F10431F48111DFCA99
:1037D00086E00E946A15DBCAC11490E4D906E104B0
:1037E000F10431F48111D3CA85E10E946A15CFCA70
:1037F000C11490E8D906E104F10431F48111C7CA7B
:1038000089E10E946A15C3CA94E0C916D104E10493
:10381000F10431F48111BBCA87E10E946A15B7CA6D
:1038200098E0C916D104E104F10431F48111AFCA62
:1038300085E00E946A15ABCAC114D10490E1E90683
:10384000F10431F48111A3CA8CE10E946A159FCA68
:10385000C114D10490E2E906F10431F4811197CA50
:1038600081E10E946A1593CAC114D10490E4E9066B
:10387000F10431F481118BCA88E10E946A1587CA6C
:10388000C114D10490E8E906F10431F481117FCA32
:1038900080E10E946A157BCAC114D104E10491E061
:1038A000F90631F4811173CA8CE00E946A156FCA5F
:1038B000C114D104E10492E0F90631F4811167CA20
:1038C00086E30E946A1563CAC114D104E10494E03E
:1038D000F90631F481115BCA82E10E946A1557CA68
:1038E000C114D104E10498E0F90631F481114FCA02
:1038F00087E30E946A154BCAC114D104E10490E128
:10390000F90631F4811143CA83E10E946A153FCA66
:10391000C114D104E10490E2F90631F4811137CAEF
:1039200088E30E946A1533CAC12CD12C76012FCAB4
:10393000ABE7B0E0EEE9FCE10C94662F182FC090E5
:103940004403D0904503E0904603F0904703C0FE47
:103950000CC0D701C60121E08227809344039093D5
:103960004503A0934603B09347031123C1F081E0C0
:103970000E947E158090440390904503A0904603DA
:10398000B0904703681579058A059B0541F480E0EE
:103990000E947E15C558DF4FE2E10C94822F81E032
:1039A0000E94AA168090440390904503A09046037D
:1039B000B0904703681579058A059B0509F446C050
:1039C000AE014F5F5F4FA3965FAF4EAFA397A59633
:1039D0005FAF4EAFA597812C912C5401EA961FAE94
:1039E0001EAEEA978C149D04AE04BF0409F445C1D1
:1039F00027E232E0A7963FAF2EAFA797312C212CBC
:103A0000A8961FAEA897EB961FAEEB97EC961FAE4D
:103A1000EC9700E060E070E0CB01240135014094B8
:103A2000509460947094E0964CAE5DAE6EAE7FAEF6
:103A3000E097A50194012270332744275527E49687
:103A40002CAF3DAF4EAF5FAFE497AEC080E00E94B9
:103A5000AA168091A001882361F1809123029091A0
:103A60002402A0912502B0912602809344039093F2
:103A70004503A0934603B0934703809121029091A0
:103A800022029093A8028093A702E1EAF1E0A7E264
:103A9000B2E041915191619171914D935D936D931C
:103AA0007D9352E0E132F507A1F71092A00110E0FA
:103AB00046CF6091440370914503809146039091F5
:103AC00047030E940C0B66CFA796AEADBFADA7977C
:103AD0002D913D914D915D91A796BFAFAEAFA79748
:103AE000E0964CAC5DAC6EAC7FACE09742225322CA
:103AF00064227522E8964CAE5DAE6EAE7FAEE8975E
:103B000040924403509245036092460370924703EB
:103B1000411451046104710409F443C021143104B7
:103B200089F0611571058105910561F046265726DA
:103B300068267926A30192012230310541055105FD
:103B400009F444C0E4964CAC5DAC6EAC7FACE49739
:103B5000411451046104710479F0E8962CAD3DAD37
:103B60004EAD5FADE8972260209344033093450348
:103B7000409346035093470381E0112309F443C067
:103B80000E947E15611571058105910551F0A89679
:103B90006FAFA897EB967FAFEB97EC968FAFEC9754
:103BA000092F2FEF221A320A2091A7023091A80282
:103BB000221533050CF088CFA8966FADA897EB9629
:103BC0007FADEB97EC968FADEC97902F862A972AD6
:103BD000A82AB92AA596AEADBFADA5976D937D93E2
:103BE0008D939D93A596BFAFAEAFA597EA96EEAD28
:103BF000FFADEA973196EA96FFAFEEAFEA97789776
:103C000009F0F0CEC7CE0E94AA16BCCFA396EEADA7
:103C1000FFADA39781919191A191B191A396FFAF2F
:103C2000EEAFA3978093440390934503A09346037C
:103C3000B093470380E01123E9F00E947E15FFEF67
:103C4000AF1ABF0AEA964EAC5FACEA974A145B041F
:103C5000E9F68091A001811104C0C701B6010E945C
:103C60000C0BC0924403D0924503E0924603F092BD
:103C7000470390CE0E94AA16E2CFB12CA12CE2CF2E
:103C8000A4E0B0E0E6E4FEE10C946A2F19821A8207
:103C90001B821C8299E6E92E91E0F92E8E010F5FBE
:103CA0001F4F2BE6C22E21E0D22E3801AA24A39466
:103CB000B12CF70181917F018F3F09F446C0F89440
:103CC000E82FE295EF70F0E021A18F70A50102C00E
:103CD000440F551F8A95E2F7CA01922F982B91A3A2
:103CE00092A18095892382A3789400C0EBE6F1E04D
:103CF00021E030E0912C812C41914F3F09F471C0BB
:103D0000A42FA295AF70B0E090968C9190E04F7088
:103D100002C0959587954A95E2F780FD62C0C9017A
:103D2000882A992A220F331F51E0E537F50721F73A
:103D3000F701319780818F3F11F00E94160880EAC9
:103D40008A95F1F7F801918280820E5F1F4FCE14A1
:103D5000DF0409F0AECF44E050E0B30184E393E028
:103D60000E94CC2F892B09F43FC089819A81AB81B5
:103D7000BC818093340390933503A0933603B093B2
:103D8000370381E080932F030E94310F90932E031D
:103D900080932D0380912D0390912E030E94220F7A
:103DA000059730F144E050E064E373E08BE393E087
:103DB0000E94CC2F10E0892B89F0809134039091E0
:103DC0003503A0913603B091370380933B03909362
:103DD0003C03A0933D03B0933E0311E010922F03E8
:103DE00008C090E080E09CCF80912F038111D2CF5A
:103DF00010E080910001813089F4809133038823A1
:103E000069F08091320381110EC08091300390914E
:103E100031030E94220F8F3E9240F8F4812F2496A6
:103E2000EEE00C94862F80913003909131030E9434
:103E3000220F4A9798F380E00E94981C0E94CE0CB3
:103E40000E94E10F0E94310F909331038093300361
:103E5000809132038111E2CFD8CF81E08093320389
:103E6000DDCFA5E0B0E0E7E3FFE10C946C2F7C012F
:103E7000FC0143815481618180810E940908A82E40
:103E8000811110C185E0F701DE01119601900D92BC
:103E90008A95E1F7F701228189819A812223C9F16C
:103EA0000E942F0A182F682F89819A810E94A30AE5
:103EB00069817A81812F0E9470088C016C01FAE57A
:103EC000DF1AF701B280F0E4CF16D10408F05BC32B
:103ED000F70143815481618180810E940908811129
:103EE00052C3BB2009F4C3C00E94310F9093310329
:103EF0008093300381E080933303F7018281FAE2FB
:103F0000CF16D10408F014C2F601E95DFF4C0C9401
:103F1000BD2F0E94700A182FCBCF409144035091BF
:103F200045036091460370914703882331F1446053
:103F300040934403509345036093460370934703B3
:103F40008091A7029091A802FC01EE0FFF1FEE0FD7
:103F5000FF1FE95DFD4F409144035091450360917F
:103F600046037091470340835183628373830196B4
:103F70009093A8028093A7027AC04B7F409344039A
:103F8000509345036093460370934703F7014381C1
:103F90005481618180810E9409089091C20281113F
:103FA00004C0F7018281811105C7915019160CF0E8
:103FB00017C29093C20267C04091440350914503D9
:103FC0006091460370914703882311F04860B0CF99
:103FD000477FD4CF409144035091450360914603FD
:103FE00070914703882311F04061A2CF4F7EC6CF66
:103FF00040914403509145036091460370914703FB
:10400000882311F0406294CF4F7DB8CF4091440394
:10401000509145036091460370914703882311F046
:10402000416086CF4E7FAACF409144035091450313
:104030006091460370914703882311F0426078CF66
:104040004D7F9CCF409144035091450360914603BE
:1040500070914703882311F040646ACF4F7B4093EF
:104060004403509345036093460370934703003322
:104070002AE5120709F478C108F05DC14AE2C416C6
:10408000D10408F483CF80910703877059F0F701BA
:104090008281882339F08091920382FF03C082E0FD
:1040A0000E94990F2596ECE00C94882F40914403D0
:1040B000509145036091460370914703882311F0A6
:1040C000406836CF4F77CBCF4091440350914503A2
:1040D0006091460370914703882311F0516028CF07
:1040E0005E7F4CCF4091440350914503609146035D
:1040F00070914703882311F052601ACF5D7F3ECF45
:1041000040914403509145036091460370914703E9
:10411000882311F054600CCF5B7F30CF4091440373
:10412000509145036091460370914703882311F035
:104130005860FECE577F22CF4091440350914503F3
:104140006091460370914703882311F05061F0CECF
:104150005F7E14CF40914403509145036091460324
:1041600070914703882311F05062E2CE5F7D06CF45
:104170004091440350914503609146037091470379
:10418000882311F05064D4CE5F7BF8CE4091440375
:10419000509145036091460370914703882311F0C5
:1041A0005068C6CE5F77EACE4091440350914503F4
:1041B0006091460370914703882311F06160B8CE87
:1041C0006E7FDCCE409144035091450360914603DD
:1041D00070914703882311F06260AACE6D7FCECE26
:1041E0004091440350914503609146037091470309
:1041F000882311F064609CCE6B7FC0CE4091440355
:10420000509145036091460370914703882311F054
:1042100068608ECE677FB2CE4091440350914503D3
:104220006091460370914703882311F0606180CE4E
:104230006F7EA4CE409144035091450360914603A4
:1042400070914703882311F0606272CE6F7D96CE25
:104250004091440350914503609146037091470398
:10426000882311F0606464CE6F7B88CE4091440354
:10427000509145036091460370914703882311F0E4
:10428000606856CE6F777ACE4091440350914503D3
:104290006091460370914703882311F0716048CE06
:1042A0007E7F6CCE4091440350914503609146035C
:1042B00070914703882311F072603ACE7D7F5ECE05
:1042C0004091440350914503609146037091470328
:1042D000882311F074602CCE7B7F50CE4091440334
:1042E000509145036091460370914703882311F074
:1042F00078601ECE777F42CE4091440350914503B3
:104300006091460370914703882311F0706110CECD
:104310007F7E34CE40914403509145036091460323
:1043200070914703882311F0706202CE7F7D26CE04
:10433000811106CE9CCE01335AE5150709F0A3CEB4
:10434000F70143815481618180810E9409088111B4
:104350009ACEF7018281882309F495CE0E94000C41
:104360001092380360E014C0F701438154816181E9
:1043700080810E940908811186CEF70182818823FD
:1043800009F481CE0E94000C81E08093380361E043
:104390008DE090E00E94E72F76CE802F67E00E94AC
:1043A0009D2F90E0FC01E359FC4F9C0173E0220F2C
:1043B000331F7A95E1F7821B930B080F192F111DFC
:1043C00026E030E0201B310B81E090E0AC0102C020
:1043D000440F551F2A95E2F78081842B808353CEAA
:1043E0001092C2028091C102882341F01092C10252
:1043F0008091C0020E94F4060E943D0F8091440308
:1044000090914503A0914603B09147038F309105E9
:10441000A105B10541F58091BF0291E08927809304
:10442000BF0210924403109245031092460310926B
:104430004703109233031092A8021092A7020E9421
:10444000E10F10923203E7E2F2E087EA92E04FEFE9
:104450005FEF60E070E041935193619371938E1729
:104460009F07C9F750C083309105A10550E3B507F8
:1044700039F580910001823041F01092BE028093A4
:10448000BD0282E080930001CCCF8091BD02809379
:10449000000169EAC62E62E0D62E10E000E08091AD
:1044A000BE028017110609F01CF40E94E10FB9CF7B
:1044B000F60181916F010E94F6130F5F1F4FEFCF3E
:1044C00083339105A105B10521F481E00E94CA0F53
:1044D000A8CF209100012130C9F480FF21C01092A3
:1044E00033031092A8021092A70210924403109274
:1044F00045031092460310924703809138038823A6
:1045000071F18130C9F00E94000CBDCD223041F024
:1045100083709927AA27BB27892B8A2B8B2B21F005
:1045200080E00E94981C7DCF2111D9CF8091BF02DD
:104530008823A9F281E0F5CF0DE613E051E7C52EFF
:1045400053E0D52EF80181918F0181110E942D0B2E
:10455000C016D106B9F780E00E942D0BD4CF809110
:104560006D03806880936D030DE613E043E7C42E6E
:1045700043E0D42EF80181918F010E942D0BC016CB
:10458000D106C1F7C0CFBB2009F457C00430FDE508
:104590001F07C8F50B3F2CE5120728F4C80182500D
:1045A0009C454497D0F50E94A10D9093920380936F
:1045B000910302318CE5180709F480C108F0CCC0E2
:1045C0000930ECE51E0709F457C108F096C0053024
:1045D0002CE5120709F444C108F07DC003304CE516
:1045E000140709F435C108F037C102308CE518070B
:1045F00009F426C180919103909192030E94AF0D1E
:104600000E94E10F40CD063A3DE5130761F208F044
:104610005BC002365DE5150731F20B358DE51807F5
:1046200009F4AAC108F074C10115ECE51E0709F4EC
:104630007AC10F3D1C4509F492C1F70182810081C6
:104640001181882309F49CC1C8010E942F0AD82E29
:10465000682FC8010E94A30AB8018D2D0E9470081E
:104660000E948B088C01882EF701D280B580B2940D
:104670003FE0B322809107038770C1F0DD20A9F0ED
:10468000812F807F803421F080E2800F883070F0AD
:104690008091920382FF0AC082E00E94990F80916C
:1046A00007038770AA24A3948111A12C912E9294C0
:1046B0002FE09222FBE0F91508F4CEC1E92DF0E0DD
:1046C000EF5AFF4C0C94BD2FC8018E5A9D4503979D
:1046D00008F0A3CF68CF80919103806207309CE5FA
:1046E0001907B9F18091910380610830ECE51E074C
:1046F00080F18091910380642CC00D30FCE51F0790
:1047000009F4C4C090F4809191038E7F0B303CE596
:104710001307F9F0809191038C600C304CE514077D
:10472000C0F0809191038D7F14C00F305CE51507B8
:1047300009F4BCC008F4AEC000319CE5190709F4C7
:10474000B9C0809191038F7B0131ECE51E0709F020
:1047500051CF809391034ECF0115FDE51F0709F45A
:10476000B7C0A8F50B3F3CE5130709F47DC0C0F4C2
:1047700004315CE5150709F4B9C008F4A5C005319A
:104780009CE5190709F036CF8091910382FB9927A8
:1047900090F921E0922790FB82F990FB83F9D9CF21
:1047A0000D3FECE51E0709F479C008F461C00E3F27
:1047B0002CE5120709F476C08091920383600F3FC5
:1047C0003CE5130709F016CF8093920313CF02360E
:1047D0004DE5140709F495C090F402308DE51807F3
:1047E00009F48DC008F478C060E00330EDE51E07E1
:1047F00009F000CF8EE090E00E94E72FFBCE0E3A4A
:10480000FDE51F0709F160F490919103892F8E7FD8
:1048100090FF8160063A3DE5130709F49ACFEACE8E
:104820000F3A4DE5140771F1003B5DE5150709F0FE
:10483000E1CE90919203892F877F93FF8860C4CF48
:1048400080919103816085CF809192038860BCCF75
:104850008091910382607DCF80919103846079CFB4
:1048600080919103886075CF809192038160ACCF75
:10487000809192038260A8CF0E94E10F8091910302
:10488000806867CF80919203877F9ECF809191034C
:104890008B7F5FCF80919103877F5BCF8091920365
:1048A0008E7F92CF809192038D7F8ECF80919103E6
:1048B0008F7E4FCF809191038F7D4BCF0E94E10F70
:1048C000809191038F7745CF80919103837F41CF72
:1048D000809192038C7F78CF80919203982F90954E
:1048E00091708E7F892B90FB81F96ECF0E94E10F32
:1048F00090919103892F97FB87F980582ACF61E027
:1049000079CF90919103892F8F7E94FF806121CF81
:104910000D352DE5120731F188F1083A1D4509F0F2
:104920008CCE0E94AB130E94E10F5FEF84E39CE00A
:10493000515080409040E1F700C0000087E797E7C2
:10494000909301088093000888E19AE00FB6F894EC
:10495000A895809360000FBE90936000FFCF0E94E7
:10496000BD0DDFCF8091920382FB882780F991E013
:1049700089270E94B50F61CE81E0FBCF80E0F9CF9F
:10498000C8010E94700AD82E67CE212F2F70C22E28
:10499000107F19F0C29490EFC922DD20B9F0CC202D
:1049A00069F080E2800F883010F0811009C080919A
:1049B0002903C82AC09229030E94CE0C802F4AC026
:1049C00080912803C82AC0922803F6CF802F0E9426
:1049D000C113CC2009F440C0005E083010F08110F3
:1049E00004C08C2D0E941E0A06C0C094809128032A
:1049F000C822C09228030E94CE0C2EC0312F3F70D7
:104A0000C32E107F103219F0C29480EFC822882084
:104A100089F041E0841609F478C0DD2009F482C0F1
:104A2000BB2009F478C0F701858180FFC7CF8F7064
:104A3000858371C02091920322FD44C0DD20E1F105
:104A4000CC2039F080912903C82AC09229030E9402
:104A5000CE0C80E00E94F613292D2850330B243011
:104A6000310510F40E94E706AA20A9F080910703FF
:104A700080FD11C0F70112828595859585950E946C
:104A8000CA0FC7010E94311F809107038595859544
:104A900085950E94870F85E0F701DE011196019050
:104AA0000D928A95E1F709811A81C8010E94700A66
:104AB000B8010E947008F6CA80E00E94C113CC20A1
:104AC00059F28FCFDD20A1F090912A038C2D892BF4
:104AD000B11003C00E942A0DBFCF51E0B512FACF2A
:104AE00022FFBACF891709F4B7CF80932A03B4CF36
:104AF000B11006C00E94180A8C2D0E94230DACCF65
:104B000081E0B81609F4A8CFF5CFDD2031F095E0AB
:104B10009B1508F4A1CF8C2DDDCFE4E0EB1508F454
:104B20009BCFEACFBB2041F3F9E38F1209C02FEFEF
:104B300037EE43E0215030404040E1F700C0000034
:104B4000802F0E94C11388CF812F86958695837010
:104B500061F0813009F080CFC8019370D11002C09C
:104B600090E080E00E94BB0677CFC8019370D1101F
:104B700002C090E080E00E94D1066ECF802FDD2041
:104B800029F00E94AF070E943D0F66CF0E94F406F5
:104B9000FACF812F837009F03FC0D1105DCF402F35
:104BA000429546954770440F440F802F8F7090E0D8
:104BB000042E02C0880F991F0A94E2F730E020E02B
:104BC00004FF09C02FE030E002C0220F331F4A95D6
:104BD000E2F720953095169516951370123099F0DE
:104BE00078F440912B0350912C03113039F0822B33
:104BF000932B842395230E94DA0F2ECF842B952BA1
:104C0000822B932BF8CF822B932B20912B03309167
:104C10002C0382279327EFCF8695DD2011F0812F7B
:104C20008170882309F418CF402F4295469547702C
:104C3000440F440F802F8F7090E0042E02C0880F25
:104C4000991F0A94E2F730E020E004FF09C02FE04A
:104C500030E002C0220F331F4A95E2F720953095CD
:104C6000169516951370123099F078F44091480318
:104C700050914903113039F0822B932B84239523D3
:104C80000E94800FE9CE842B952B822B932BF8CF9B
:104C9000822B932B2091480330914903822793273D
:104CA000EFCF1F70DD2029F0812F0E94CA0F802FC7
:104CB00011CF802F0E94230D812F0E94870FCCCE11
:104CC000802F52EF851699F1581570F090EF8916E4
:104CD000D1F0E1EF8E1691F0DD2009F45BC0B11048
:104CE0006DCE812F8F7127C0F3EF8F1639F124EF2E
:104CF0008212F2CF8091920382FD2EC0812F8F719C
:104D0000DD20D9F218C0DD2069F034E03B1508F44D
:104D1000A3CE1F7181E090E002C0880F991F1A9501
:104D2000E2F7B8CF45E04B1508F496CEF2CF812FCD
:104D30008F71D110C2CF0E94CA0F8ECE90E080E05A
:104D4000DD2009F49DCF1F7181E090E002C0880F43
:104D5000991F1A95E2F794CFDD2089F01F71812FFA
:104D60000E94CA0F8091920382FF07C058E0159FEE
:104D7000C0011124836080930703812FDCCF81E081
:104D80000E94990F81E08B1508F066CE82E00E94A8
:104D9000990F62CEBB2059F0893309F0D1CE9FEF35
:104DA000E7EEF3E09150E040F040E1F7C7CE812F0D
:104DB0008F7183CF9F5F9093C202809138038823C5
:104DC00009F4EBCA813009F05EC9F801FF27E45409
:104DD000FF4FE491AE2FA295A695A695A370B0E0E3
:104DE000A359BC4F0C91E02BEC934DC9B0E0A0E06F
:104DF000ECEFF6E20C94712F8091D402807F09F0E1
:104E00004DC08091D102882309F448C0C0910603A7
:104E1000E090D502D091CF02F090D0020091D20262
:104E20001091D30286E0D82EEC16C1F1A8016F2DA7
:104E30008D2F0E9409082C2F30E0811134C0D29EA2
:104E4000F001D39EF00D1124DF01AA52BD4F11963F
:104E50008C9111978F1127C08C918D1324C01296BD
:104E60008C91129781111FC013968D919C91801B7C
:104E7000910B883C9105B8F48091D4028F708061C9
:104E80008093D402E552FD4F80818F7080618083D2
:104E90008FEC92E00E94311F0E94250ACDB7DEB749
:104EA000E7E00C948D2F2F5F3F4FC22FC770BCCF10
:104EB000A1E1B0E0EEE5F7E20C94672F8C0185E00C
:104EC000F801DE011D9601900D928A95E1F7F80137
:104ED000E2808FECA82E82E0B82E4090CF02309076
:104EE000D0028090D2029090D302A401632D842D31
:104EF0000E940908582E81111DC1F801608071803F
:104F0000C380D480F090D102960128193909FF207E
:104F100009F4DCC08091D402982F907F283C3105A1
:104F200008F0A0C091116DC0FE2C371014C06410A1
:104F300012C0E11010C08F7080618093D402C5014F
:104F40000E94311F8091D402F80185838F2D6196D4
:104F5000E1E10C94832FA601672D862D0E9409089C
:104F6000811123C081E08E25F82FF170DF2E80FFA4
:104F70003EC0809106032091D50236E0821317C00F
:104F80006D867E868D859E850E94630A292F2295D7
:104F90002F70223000F1243028F59F7001F1F801C4
:104FA0009581907FE1F4F52CD1CF80E0DDCF90E0CA
:104FB000389FF001399FF00D1124EA52FD4F4181D5
:104FC000471106C04081641203C04281E4120FC041
:104FD00001968770D3CF9F7011F0882321F3805EF4
:104FE000883008F3C8010E94311F5D2CDCCFEE2011
:104FF00009F4ACCF8091D40281608093D402F12C6B
:10500000A5CF371005C0641003C0EE2009F477C0A7
:10501000C8010E94D90A882309F1EE20F9F0809195
:10502000D402803270F02091CF023091D0023887C4
:105030002F831986DB86CA868C87CE0107960E944D
:10504000311F86E0F801AFECB2E001900D928A9535
:10505000E1F70E94F626FF24F39478CFC8010E945E
:10506000311FF9CF91110AC08FEC92E00E94311FDD
:1050700086E0F50111928A95E9F7C1CF37100EC08D
:1050800064100CC0E1100AC08583C8010E94311F62
:1050900086E0F50111928A95E9F758CFC8010E9480
:1050A000D90A8823D9F2EE20C9F28091D402803245
:1050B00040F22091CF023091D0023A8329831B82A3
:1050C000DD82CC828E83CE010196B9CF283C31059A
:1050D000F8F6FE2CEE2011F237101EC064101CC032
:1050E0008091D40280FD0FC0982F907F61F085835E
:1050F000903F31F0982F907F905F8F70892B858340
:10510000C8010E94311F86E0F801AFECB2E00190C7
:105110000D928A95E1F71ACFC8010E94D90A811130
:1051200090CF8091D40281608093D402C8010E9404
:10513000311F0CCFEE2009F491CFC8010E94D90A8B
:10514000F82E882309F48ACF86E0F801AFECB2E0AC
:1051500001900D928A95E1F78091CF029091D00253
:105160000E94630A0E94F626F1CEA7E1B0E0EBEBC5
:10517000F8E20C94752F4B8B5C8B6D8B7E8B8F8B39
:105180006111109228031A8A198A85E0FE0173962C
:10519000DE011D9601900D928A95E1F786E0FE01F1
:1051A0003D96DE01179601900D928A95E1F7CE01AA
:1051B00007960E945827811111C086E0FE0137969C
:1051C000DE01119601900D928A95E1F74A855B8583
:1051D00068858F810E940908882359F016E0809124
:1051E00006039091D502891331C06796E3E00C94D1
:1051F000912F2091D50230E0C9010196877099273F
:10520000409106034817190699F096E0929FD00145
:10521000939FB00D1124AA52BD4FFE01319601900B
:105220000D929A95E1F78093D5020E94250AD6CF78
:105230000E94E10F1092D5021092060386E0EFEC77
:10524000F2E0DF011D928A95E9F7C8CF819FC00186
:1052500011248A529D4F0E945827882331F2809151
:10526000060390E001968770992780930603B7CFD5
:105270001F921FB61F9211248F939F93AF93BF93DA
:1052800080918C03811113C080918D0390918E03C6
:10529000A0918F03B09190034196A11DB11D809301
:1052A0008D0390938E03A0938F03B0939003BF91CF
:1052B000AF919F918F911F901FBE1F901895CDB7F2
:1052C000DEB764970FB6F894DEBF0FBECDBF85B7CB
:1052D000806885BF85B7806885BF84B7877F84BFB6
:1052E0000FB6F894A8958091600088618093600063
:1052F000109260000FBE80E890E00FB6F8948093A3
:105300006100909361000FBE84E198E090937F016B
:1053100080937E010E94CB040E94C8058091E20028
:1053200084608093E20078948091C4038823A1F084
:105330001091E9001F709091EC00892F817090FD11
:1053400080E8182B1092E9008091E80083FD0E940C
:10535000F70F1F701093E90082E084BD93E095BDC4
:105360009AEF97BD80936E0087EF0E94160881E345
:105370000E9416080BE611E085E7E82E81E0F82E82
:10538000D8018D918D018F3F11F00E941608E01613
:10539000F106B1F784E0EBE3F3E0DF01282F1D9283
:1053A0002A95E9F7E4E3F3E0DF011D928A95E9F736
:1053B00090E080E00E94E12F883E9E4F11F00E9415
:1053C000BD0D82E090E00E94D92F80933F030E94A0
:1053D000A10D909392038093910383E090E00E944B
:1053E000D92F90E00E94DA0F83E080936A0380E275
:1053F0008093C5030E94662E6DE070E08FE591E01A
:105400000E94340D892BE9F580916A0363E070E016
:1054100081FD11C18CE591E00E94340D892B89F545
:105420006DE070E08CE491E00E94340D892B49F529
:105430000E948506605A75418F4F9F4F609380038D
:10544000709381038093820390938303E8ECF3E0ED
:1054500080E092E0DF019C011D9221503040E1F795
:10546000F093CF05E093CE058FEF9FEF9093C703A6
:105470008093C60381E08093850380938403109218
:105480006B0390E080E00E94E12F883E9E4F11F078
:105490000E94BD0D8DE090E00E94D92F80933803CB
:1054A0008091910380688093910380919103909102
:1054B00092030E94AF0D82E090E0909328018093C8
:1054C00027018091C403843079F58091290190915E
:1054D0002A01A0912B01B0912C01892B8A2B8B2BB7
:1054E00019F1809120018F708093E90088E0E0E35A
:1054F000F1E0DE01119601900D928A95E1F750E0FE
:1055000040E068E070E0CE0101960E944D0550E059
:1055100040E062E070E087E291E00E944D058091FA
:10552000E8008E778093E80081E091E09093890312
:105530008093880300E4602EFF24F3948091C403D9
:1055400010E102E1853009F4C9C00E94401E20919B
:1055500040033091410380913B0390913C03281715
:10556000390709F0C5C0209142033091430380916F
:105570003D0390913E032817390709F0B9C00E94F6
:10558000310F8C018091390390913A030817190764
:10559000A1F08FEF89878A871B860E94310F816077
:1055A000782F9D878C8749855A856B858D850E94CC
:1055B000B52810933A0300933903E12C80918503B9
:1055C000882309F447C188EC93E09093CF0580933A
:1055D000CE0581EB91E00E94880C20914803309128
:1055E0004903832F9927009709F4CCC09C0188E0D8
:1055F000A90174E0569547957A95E1F74115510553
:1056000011F08C5F9A01A9015695479556954795DB
:105610004115510511F08E5F9A0136952795232B80
:1056200009F08F5F882309F4AFC0813009F4D3C03B
:105630008CE991E0ABC089E591E0EECE8091C403A6
:10564000843029F10E945E0D10928C0388E190E075
:105650000FB6F894A895809360000FBE609260002A
:1056600083B7817F846083BF83B7816083BF789471
:10567000889583B78E7F83BF0FB6F894A8958091E5
:105680006000886180936000109260000FBE80917E
:10569000BA03882319F10E94401E80913B03909128
:1056A0003C0320913D0330913E03822B932B892BA9
:1056B000A9F019BD09BD09B400FEFDCF8091D80045
:1056C0008F7D8093D8008091E00082608093E0001D
:1056D0008091E00081FDFCCF0E94E10F8091C40326
:1056E000853009F4ABCF0E94E10F0E94E7062DCF71
:1056F000BBE38B2EB3E09B2E10E4412E13E0512E22
:10570000712CD4010D911D914D01F201A190B19028
:105710002F01A016B10659F1A026B126E12CCC2408
:10572000C394D12CC5018C219D21892BB1F0EE862B
:105730007F8621E0C8018C219D21892B09F420E07E
:10574000288B0E94310F8160782F9A8B898B4E8530
:105750005F8568898A890E94B528E394CC0CDD1C9A
:10576000FAE0EF12DFCFF20132971183008321E0DC
:10577000721205C00E948506EE24E3941FCF7724A1
:105780007394BFCF80E034CF89EA91E00E94C80CC7
:1057900083E991E00E94880C809144039091450335
:1057A000A0914603B09147038115E0EA9E07A10549
:1057B000B105F1F098F4811525E59207A105B10531
:1057C00009F470C181159A45A105B10509F467C1B5
:1057D0008CE691E012C082EA91E0D8CF81154AEAC6
:1057E0009407A105B10539F00097A04AB10581F7EA
:1057F00085E791E002C08DE891E00E94C80C80919D
:105800008503882371F02091C6033091C7032115C9
:10581000310539F080916B0361E070E0882309F471
:1058200045C1809184038823A9F00E9485060091D8
:105830008003109181032091820330918303601BC8
:10584000710B820B930B6F3F7F4F8F4F9F4710F46D
:105850000E945E0DE1100E94790D86E0EAE7F3E018
:10586000DE01119601900D928A95E1F710927C036A
:1058700010927D0310927E0310927F038B819C8196
:10588000892B09F44AC080917803909179030E9492
:10589000220F9C0190917403992309F412C22531BF
:1058A0003105D8F19F3F19F09F5F909374031B81DE
:1058B000112359F00E948F079FEF11160CF491E00D
:1058C000899F802D112480937C031C81112359F022
:1058D0000E948F079FEF11160CF491E0899F802D95
:1058E000112480937D0330917C033323B1F0209108
:1058F0007D03222391F045EB3403C0011124992349
:1059000009F49EC190937C0345EB2403900111247C
:10591000332309F498C130937D038D819E81892BB7
:1059200009F44AC080917603909177030E94220F78
:105930009C0190917303992309F4BEC1213531056F
:10594000D8F19F3F19F09F5F909373031D8111233E
:1059500059F00E946D079FEF11160CF491E0899F9A
:10596000802D112480937E031E81112359F00E9403
:105970006D079FEF11160CF491E0899F802D112483
:1059800080937F0330917E033323B1F020917F0316
:10599000222391F045EB3403C0011124992309F42B
:1059A00055C190937E0345EB2403900111243323CA
:1059B00009F44FC130937F0346E050E0BE016F5FB2
:1059C0007F4F8AE793E00E94CC2F892B61F480916E
:1059D0007C0390917D03892B90917E03892B90917C
:1059E0007F03892B11F00E943D0F86E0FE01319666
:1059F000AAE7B3E001900D928A95E1F70E94E706CD
:105A000090916C03891721F080936C030E948506A6
:105A10008091C403843019F58090290190902A0167
:105A2000A0902B01B0902C0181149104A104B10429
:105A3000B1F080911B018F708093E9009091E80094
:105A400092FF0DC09091F3002091F200392F232B8B
:105A500009F002C18091E8008B778093E800809183
:105A6000C403843009F06ACD8091290190912A0104
:105A7000A0912B01B0912C01892B8A2B8B2B09F43F
:105A80005DCD809116018F708093E9008091E800D0
:105A900080FF54CD85E191E00E941B054FCD84E845
:105AA00091E0ABCE8DE791E0A8CE8F5F082F10E09C
:105AB0002B01082E02C0440C551C0A94E2F7A901E0
:105AC00044215521452B89F390916A0390FD44C0F0
:105AD0008295880F807680930F01980136952795DF
