:100000000C94B0020C94CD020C94CD020C94CD0251
:100010000C94CD020C94CD020C94CD020C94CD0224
:100020000C94CD020C94CD020C949D200C94712163
:100030000C94811B0C94CD020C94CD020C94CD0237
:100040000C94CD020C94CD020C94CD020C94CD02F4
:100050000C94CD020C94081C0C94CD020C94CD028F
:100060000C94CD020C94CD020C94CD020C94CD02D4
:100070000C94CD020C94CD020C94CD020C94CD02C4
:100080000C94CD020C94CD020C94CD020C94CD02B4
:100090000C94CD020C94CD020C94CD020C94CD02A4
:1000A0000C94CD020C94CD020C94CD0229001400C6
:1000B0001A000800150017001C0018000C001200A0
:1000C00013002A002B0004001600070009000A0094
:1000D0000B000D000E000F0000002800E1001D00C5
:1000E0001B00060019000500025111001000360027
:1000F0003700E5000000E000E20000002C4501515F
:1001000000002C4400000351E300000035004A00C9
:1001100052004D004B0049000100010001002F007A
:10012000300001000100500051004F004E004C0013
:100130000100010033003400000001000100010053
:100140000100010001000100010001000100310077
:100150003800010000000100010000000100010062
:1001600000000100000001000100000001003A0051
:100170003B003C003D003E003F004000410042008B
:1001800043000100390046004700480053000100C9
:100190000100010044004500000001000100C35CB3
:1001A000C45CC65CC85CCA5C0100010001000100BF
:1001B000005C0100000001000100000001000100DE
:1001C00000000100000001000100000001001E000D
:1001D0001F0020002100220023002400250026000B
:1001E00027000100010001000100010001000100E1
:1001F000010001002D002E0000000100010001009F
:1002000001000100010001000100010001000100E6
:1002100001000100000001000100000001000100D8
:1002200000000100000001000100000001001E02AA
:100230001F0220022102220223022402250226029A
:10024000270201000100010001000100010001007E
:10025000010001002D022E0200000100010001003A
:100260000100010001000100010001000100010086
:100270000100010000000100010000000100010078
:100280000000010000000100010000000100010069
:10029000ED00010001000100F90001000100010072
:1002A000010001000100EF00EE00F000010001007C
:1002B000FA00F100F200010000000100010001005D
:1002C0000100010001000100010001000100010026
:1002D0000100010000000100010000000100010018
:1002E0000000010000000100010000000001010108
:1002F00001010101010102020202020202020203E3
:1003000003030303030303040404040404040505B2
:100310000505050606060606070707070708080875
:1003200008090909090A0A0A0B0B0B0C0C0C0D0D24
:100330000D0E0E0E0F0F0F101011111112121313BC
:100340001414151516161717181819191A1A1B1B35
:100350001C1D1D1E1E1F2020212222232424252691
:1003600026272829292A2B2C2D2D2E2F30313232C9
:10037000333435363738393A3B3C3D3E3F404142D5
:10038000434445464748494A4C4D4E4F50515354BB
:10039000555658595A5B5D5E5F616264656668696F
:1003A0006B6C6D6F7072737577787A7B7D7E8082EF
:1003B000838587888A8C8E8F91939596989A9C9E38
:1003C000A0A2A3A5A7A9ABADAFB1B3B5B7BABCBE48
:1003D000C0C2C4C6C9CBCDCFD1D4D6D8DBDDDFE215
:1003E000E4E7E9EBEEF0F3F5F8FAFDFF12036B003A
:1003F0006500790062006F00610072006400000017
:10040000160371006D006B006200750069006C00DE
:1004100064006500720000000403090409023B0047
:10042000020100A0FA0904000001030101000921F2
:1004300011010001224000070581030800010904A1
:100440000100010300000009211101000122B60092
:10045000070582032000011201000200000008EDE0
:10046000FE606001000102000105010902A1018591
:10047000020901A1000509190129081500250195A6
:1004800008750181020501093009311581257F9523
:10049000027508810609381581257F950175088147
:1004A00006050C0A38021581257F9501750881061D
:1004B000C0C005010980A101850319012AB70015F3
:1004C0000126B700950175108100C0050C0901A136
:1004D00001850419012AA002150126A002950175C3
:1004E000108100C005010906A1018506050719E074
:1004F00029E71500250195087501810205071900F6
:1005000029EF1500250195F07501810205081901F3
:100510002905950575019102950175039101C005A5
:10052000010906A101050719E029E7150025019534
:1005300008750181029501750881010507190029D7
:10054000FF150026FF0095067508810005081901B2
:100550002905950575019102950175039101C0006A
:1005600011241FBECFEFDAE0DEBFCDBF11E0A0E067
:10057000B1E0E6EEF7E402C005900D92AE38B107A7
:10058000D9F722E0AEE8B1E001C01D92A43CB20769
:10059000E1F70E94F3110C94DB230C94000081E03E
:1005A000089581E008950E94D102089508950E945F
:1005B000D6020895A5E0B0E0E0EEF2E00C945523F9
:1005C00049835A833091950189819A81311119C0EB
:1005D000662399F0222389F00E94D308182F682FF0
:1005E00089819A810E94AF0869817A81812F0E9456
:1005F000540F2596E3E00C9471230E94C108182F34
:10060000F3CF0E94D30869817A81F1CFFC01262FB4
:10061000408151816281738184810E94DA02089550
:1006200081E00895CF93DF93EC0160E00E94060320
:10063000BE010E94D702DF91CF9108950E949710CA
:1006400008950E949B10089508950E947A070E94C1
:1006500024032FEF84E39CE0215080409040E1F799
:1006600000C0000008950E9425030E942C1C0895DC
:100670000E9425030E943D1C08950F931F93CF9362
:10068000DF938C0161E00E940603EC01B8010E9437
:10069000D302811106C080E0DF91CF911F910F91AD
:1006A0000895B801CE010E94B2198823A1F3B801C0
:1006B000CE010E94B617882371F3B801CE010E94C3
:1006C0002419882341F3B801CE010E941117882311
:1006D00011F3F8018281882361F0CB35FDE5DF0756
:1006E00001F158F4C115ECE5DE0791F0CF3DDC4592
:1006F00091F0C8010E94CF02CFCFCD358DE5D8074C
:1007000069F090F0C83ADD45A1F70E943803C3CFE5
:100710000E943303C0CF0E948D0DF7CF0E94CB0CF7
:10072000E8CF0E94D50CE5CF0E94D90CE2CF0E9401
:100730005D1B0E94B40308950E94B8030E94621BCF
:10074000089508950E94A103089581E008950E94EC
:10075000A50308950895CF93C82F0E94A2038C2F5C
:100760000E94A703CF91089580E00E94AB030895F3
:100770000E940E1A0E94AB030895CF930E940E1A96
:10078000C82F809190018C1779F0C09390010E943E
:10079000ED1B60939101709392018093930190936C
:1007A00094018C2F0E94AB03CF910895ABE0B0E091
:1007B000ECEDF3E00C9456234F83588769877A87D2
:1007C0008B8761110E94160C1E821D8285E0FE013E
:1007D0003796DE01119601900D928A95E1F78C8192
:1007E0009D81892B61F449815A816B817C818D8146
:1007F0009E810E943F0B2B96E2E00C94722389812C
:100800009A8189238F3F79F3CE0101960E941003CC
:100810008111E9CFF0CFFC01808191810E9405090F
:100820000895CF93C82F8823C9F08238C9F40E9455
:100830000E1A81FD13C089E30E94CE0B0E94370C73
:100840002FEF87EE93E0215080409040E1F700C009
:10085000000089E30E94D60B0E94370CCF910895C7
:100860008338A1F40E940E1A80FDF8CF83E50E9420
:10087000CE0B0E94370C2FEF81EE94E02150804088
:100880009040E1F700C0000083E5E4CF8438A1F494
:100890000E940E1A82FDE2CF87E40E94CE0B0E94D6
:1008A000370C2FEF81EE94E0215080409040E1F72B
:1008B00000C0000087E4CECF8CEF8C0F813A90F41B
:1008C0006C2F80910001909101010E94831A88236E
:1008D00029F08C2F0E94D60B0E94370C8C2F0E947F
:1008E000CE0BBACF80E28C0F883048F4C77081E01D
:1008F00001C0880FCA95EAF70E94F90BADCFEBE56E
:10090000EC0FE33040F4F0E0E85BFE4F808190E0D4
:100910000E94431AA3CFE8E5EC0FE73150F4F0E072
:10092000EE0FFF1FE65EFE4F808191810E94591AF3
:1009300095CFCD3E08F492CF8C2F0E9477120E9463
:100940004A138CCF882309F455C0823879F40E9469
:100950000E1A81FF4FC089E30E94CE0B0E94370C14
:1009600089E30E94D60B0E94370C0895833859F40E
:100970000E940E1A80FF3EC083E50E94CE0B0E94AB
:10098000370C83E5EECF843859F40E940E1A82FFAB
:1009900031C087E40E94CE0B0E94370C87E4E1CF80
:1009A0009CEF980F913AE8F290E2980F983050F44B
:1009B000877091E001C0990F8A95EAF7892F0E940C
:1009C000FF0BD1CF9BE5980F933028F490E080E0A7
:1009D0000E94431A089598E5980F973128F490E003
:1009E00080E00E94591A08958D3E20F00E94D11295
:1009F0000E944A1308951F93CF93DF93182FEB01A2
:100A00000E941104209739F4812F0E94A204DF91E3
:100A1000CF911F9108958FE99FE00197F1F700C0F2
:100A200000002197EFCF70E060E0893311F460E5BA
:100A300070E00E94FB040895882321F00E94F90BC6
:100A40000E94370C0895882321F00E94FF0B0E941A
:100A5000370C0895B0E0A0E0E0E3F5E00C944F23FC
:100A60006C01D62FC72FFC011281F580F2949FE014
:100A7000F9220E94EF0BE82E8823B9F0E12E112312
:100A8000A1F08C2F807F803421F080E28D0F8830A0
:100A9000D0F08091880282FF16C082E00E949A0CFA
:100AA0000E94EF0B91E0E82EE926BC2EB2948FE075
:100AB000B822FBE0FB1508F468C0EB2DF0E0E35230
:100AC000FC4D0C944023E12CF0CF0C2F0F70C07F15
:100AD00011F00295007F112399F0002359F080E274
:100AE0008D0F883010F0D11107C0802F0E94F90BB4
:100AF0000E94370C8D2F41C0802F0E94090CF8CF27
:100B00008D2F0E94A204002309F43FC080E28D0FC4
:100B1000883010F0D11104C0802F0E94FF0B03C059
:100B2000802F0E940F0C0E94370C2FC00C2F0F70CB
:100B3000C07FC03211F00295007FDD2381F0D130FB
:100B400009F463C0112309F46DC0FF2009F463C0E8
:100B5000F601858180FFCECF8F7085835CC0809148
:100B6000880282FD33C0112359F0002329F0802F21
:100B70000E94F90B0E94370C80E00E94110405C00E
:100B800080E00E94A2040111C7CFEB2DE850FF0BBB
:100B9000349720F40E940E1A0E94AB03EE2089F0D5
:100BA0000E94EB0B80FD0DC0F60112820E94E50B46
:100BB0000E940D08C6010E943A070E94E50B0E94A0
:100BC0001D08CDB7DEB7E9E00C946B23112389F043
:100BD000F11006C00E94190C802B0E941C05D5CF75
:100BE00021E0F212F7CF0E94190C802B0E94200CFA
:100BF000CCCFF11006C00E942D0C802F0E9423053F
:100C0000C4CF31E0F31609F2F6CF112331F085E0BD
:100C10008F1508F4BACF802FE0CF94E09F1508F429
:100C2000B4CFEBCFFF2049F3D93349F4FFEF27EEE0
:100C300033E0F15020403040E1F700C000008D2F3C
:100C40000E94A204A2CF8C2F86958695837069F0AE
:100C5000813009F09ACF8D2F9C2F9370111102C013
:100C600090E080E00E94591A90CF8D2F9C2F9370B6
:100C7000111102C090E080E00E94431A86CF8D2FB0
:100C8000112329F00E9477120E944A137ECF0E94FE
:100C9000D112FACF8C2F8370A1F5111176CF4D2F81
:100CA000429546954770440F440F2D2F2F7030E02A
:100CB000042E02C0220F331F0A94E2F790E080E076
:100CC000D4FF09C08FE090E002C0880F991F4A95B9
:100CD000E2F780959095C695C695C370822B932BAD
:100CE000C23049F058F4C13019F00E94DB074DCFF3
:100CF0000E94D2074ACF0E94E40747CF0E94CF0745
:100D000044CF8695112311F08C2F8170882309F42C
:100D10003CCF4D2F429546954770440F440F2D2FE1
:100D20002F7030E0042E02C0220F331F0A94E2F726
:100D300090E080E0D4FF09C08FE090E002C0880F0F
:100D4000991F4A95E2F780959095C695C695C37010
:100D5000822B932BC23049F058F4C13019F00E9415
:100D6000480813CF0E943F0810CF0E9451080DCFB2
:100D70000E94F3070ACFCF70112329F08C2F0E9415
:100D80000D088D2F2ACF8D2F0E9423058C2F0E94B6
:100D90001D08FBCED23F51F160F4D03FB9F0D13FF6
:100DA00081F0112309F449C0F110A4CE8C2F8F716A
:100DB00021C0D33F11F1D43FA1F78091880282FD79
:100DC00026C08C2F8F71112311F314C0112349F009
:100DD00084E08F1508F4D9CE8C2F8F710E942F08D4
:100DE000D4CE95E09F1508F4D0CEF6CF8C2F8F711E
:100DF0001111CDCF0E940D08C8CE112329F08C2FE0
:100E00008F710E940108C1CE0E94FC07BECE112343
:100E100049F0CF718C2F0E940D0863E08C2F0E9447
:100E20007C0CB3CE81E00E949A0CE1E0EF1508F053
:100E3000ACCE82E00E949A0CA8CEF110F5CE8C2F99
:100E40008F71A5CF0F931F93CF93DF93EC01688130
:100E500079818A810E9410098C010E945A080E949F
:100E6000CE07B801CE010E942A05DF91CF911F91D4
:100E70000F910895CF93DF93EC018B819C81892B97
:100E800029F08881998189238F3F51F4DF91CF9197
:100E90000895CE010E942207CE010E941203F6CFD0
:100EA000CE010E943D038111F4CF0E94EF0B8823F5
:100EB00069F38A81882351F38091880282FFE6CF0B
:100EC00082E00E949A0CE2CF90E080E00E94431AF8
:100ED00090E080E00E94591A0E94160C0E94370C84
:100EE0000E9466130E944A1308950E94DE0B0E941E
:100EF000640708950E94060C0E9475070895929554
:100F00009F70963091F058F4925F9F70923058F431
:100F1000803F19F030F4883E30F481E008959A5F04
:100F2000F4CF843FD1F380E00895883EB0F3813F51
:100F3000D1F7F3CFFC0183819481892B29F0808143
:100F4000918189238F3F11F480E008958081918100
:100F50000E9405090E947F070895A5E0B0E0E3EB39
:100F6000F7E00C9456232596E2E00C947223A6E059
:100F7000B0E0EDEBF7E00C9456232696E2E00C94FB
:100F8000722308950E94C10708950E94C20790939A
:100F9000B1018093B0010E946407089508950E94F2
:100FA000C50708952091B0013091B101822B932B98
:100FB0000E94C50708952091B0013091B1018223AC
:100FC00093230E94C50708952091B0013091B1018B
:100FD000822793270E94C50708950E94C10708959C
:100FE0000E94ED0708950E94F0079093AF0180934F
:100FF000AE010E946407089590E080E00E94F3072C
:10100000089521E030E0A90102C0440F551F8A95E0
:10101000E2F7CA010E94F307089521E030E002C020
:10102000220F331F8A95E2F78091AE019091AF01B4
:10103000822B932B0E94F307089521E030E002C039
:10104000220F331F8A95E2F7209530958091AE01EB
:101050009091AF01822393230E94F307089521E02A
:1010600030E002C0220F331F8A95E2F78091AE0173
:101070009091AF01822793270E94F3070895209152
:10108000AE013091AF01822B932B0E94F30708959C
:101090002091AE013091AF01822393230E94F30788
:1010A00008952091AE013091AF01822793270E94CD
:1010B000F30708950895262F277091E001C0990F36
:1010C0002A95EAF723E0769567952A95E1F7660F6A
:1010D000771F660F771FFA01E60FF71F50E040E019
:1010E000682F70E08191DF0111979B01042E02C0EF
:1010F000369527950A94E2F7217021952827292310
:1011000028272C934F5F5F4F4430510559F70895BE
:10111000A82FA77023E0969587952A95E1F7880F69
:10112000991F880F991FFB01E80FF91F50E040E05D
:1011300080E0219130E00A2E02C0369527950A946E
:10114000E2F721703327042E01C0220F0A94EAF738
:10115000822B4F5F5F4F4430510559F70895262F7A
:10116000943070F48C3060F4682F70E08CE0989FBD
:10117000600D711D112446E951E0822F0E945B0829
:101180000895292F943068F48C3058F490E066E983
:1011900071E03CE0239F800D911D11240E9488087E
:1011A000089580E00895B0E0A0E0E9EDF8E00C9447
:1011B0004F237C010091AE011091AF018091B001ED
:1011C0009091B101082B192BCFE0D0E0CC24C3942F
:1011D000D12CBC2EC6010C2E02C0880F991F0A9478
:1011E000E2F780239123892B49F4219790F7B12CC2
:1011F0008B2DCDB7DEB7E9E00C946B23B7018C2FB4
:101200000E946F0F019789F3F3CFCF93DF93EC0127
:101210000E94D308BE010E946F0FDF91CF91089505
:101220001F93CF93DF93EB0190919501992339F0B0
:10123000CB010E940509DF91CF911F91089588236A
:1012400069F0CB010E94D308182F682FCE010E94AD
:10125000AF08BE01812F0E946F0FEDCFCB010E941E
:10126000C108182FF6CF1F93CF93DF93C091B2011F
:1012700016E08091B3018C1304C0DF91CF911F91D0
:101280000895D0E01C9FF0011D9FF00D1124EC5437
:10129000FE4F4081518162817381848195810E94DA
:1012A000B7072196C770E5CF4091E4015091E50161
:1012B0006091E6017091E7018091E8019091E90168
:1012C0000E94B70708951F93CF93DF938091E901A0
:1012D000807F09F049C08091E601882309F444C069
:1012E0008091B201C091B3016091E4017091E50178
:1012F000A091E701B091E801D62FD72316E0C817D7
:1013000099F190E0109711F0DF3F19F40196877082
:10131000F6CF189F9001199F300D1124F901EC545C
:10132000FE4F41814713F2CF40814613EFCF4281F8
:101330004111ECCF438154814A1B5B0B483C510562
:1013400028F78091E9018F7080618093E901F901AC
:10135000E754FE4F80818F708061808384EE91E03E
:101360000E943A070E943309DF91CF911F9108959F
:10137000A1E1B0E0EEEBF9E00C944E238C0185E0A6
:10138000F801DE011D9601900D928A95E1F7F801B2
:10139000E28084EEC82E81E0D82E6091E701709142
:1013A000E8016115710509F44EC19091E4012091A5
:1013B000E501892F82238F3F09F445C14081518186
:1013C000A380B480F090E601F501E61BF70BFF2047
:1013D00009F4EAC08091E901382F307FE83CF1053B
:1013E00008F0A3C031116DC0FE2C251316C0941354
:1013F00014C0E11012C08F7080618093E9010E94D7
:101400005409C6010E943A078091E901F8018583D9
:101410008F2D6196EAE00C946A23A114B10429F09F
:10142000842F85238F3F09F027C180E0F82FF170CA
:10143000DF2E80FF3CC08091B2012091B30136E0E5
:10144000821315C04D875E878D859E850E94050994
:10145000292F22952F702230F0F0243018F59F703C
:10146000F1F0F8019581907FD1F4D12C1EC090E06D
:10147000389FF001399FF00D1124EC54FE4F61812B
:10148000651306C06081641303C06281E6120FC059
:1014900001968770D5CF9F7011F0882331F3805E5D
:1014A000883018F3C8010E943A07FD2CB1CFEE2016
:1014B00009F4AECF8091E90181608093E901F12CBC
:1014C000A7CF251306C0941304C0F801EE2009F439
:1014D00087C0C8010E949A07882319F1EE2009F1FC
:1014E0008091E901803270F02091E4013091E501B2
:1014F00038872F831986BB86AA868C87CE010796EC
:101500000E943A0786E0F801A4EEB1E001900D9246
:101510008A95E1F70E9463090E945409FF24F3941D
:1015200077CFC8010E943A07F9CF311113C07A2D45
:10153000B98AA88A6E2D89890E94AD0784EE91E050
:101540000E943A0786E0F60111928A95E9F70E9417
:101550005409B5CF25130FC094130DC0E1100BC073
:10156000F8018583C8010E943A0786E0F6011192CE
:101570008A95E9F74DCFC8010E949A07882389F21E
:10158000EE2079F28091E901803208F4BBCF2091FE
:10159000E4013091E5013A8329831B82BD82AC824C
:1015A0008E83CE010196ACCFE83CF10508F03EC039
:1015B000FE2CEE2009F4B5CF25132AC0941328C0C1
:1015C0008091E90180FD1BC0982F907FC1F0F80148
:1015D0008583903F31F0982F907F905F8F70892B9B
:1015E0008583C8010E943A0786E0F801A4EEB1E0C5
:1015F00001900D928A95E1F70E94540909CF86E087
:10160000F801A4EEB1E001900D928A95E1F700CFC8
:10161000C8010E949A07811175CF8091E90181600C
:101620008093E901C8010E943A07F2CE7A2DB98A67
:10163000A88A6E2D89890E94AD0786E0F601119275
:101640008A95E9F7D9CFEE2009F46BCFC8010E9443
:101650009A07F82E882309F464CF86E0F801A4EEF7
:10166000B1E001900D928A95E1F784EE91E00E943D
:101670000B040E946309C0CF81E08E25D7CEACE079
:10168000B0E0E5E4FBE00C9455234F83588769876D
:101690007A878B879C87CE0107960E94B80988239A
:1016A00069F08A859B85892B39F04F815885842F75
:1016B00085238F3F09F06BC016E05FC086E0FE0116
:1016C0003796DE01119601900D928A95E1F78A8591
:1016D0009B85892B89F38F81988589238F3F61F3BF
:1016E0002091B30130E0C90101968770992740919C
:1016F000B2014817190671F40E947A071092B301DB
:101700001092B20186E0E4EEF1E0DF011D928A95CD
:10171000E9F7D2CF96E0929FD001939FB00D1124AC
:10172000AC54BE4FFE01319601900D929A95E1F7AF
:101730008093B3010E943309BFCF819FC001112460
:101740008C549E4F0E94B8098823E9F0E091B201C1
:101750001E9FF0011124EC54FE4F408151816281A3
:101760007381848195810E94B7078091B20190E0D6
:101770000196877099278093B2018091B201909170
:10178000B3018913DACF2C96E3E00C9471236985B9
:101790007A858B859C850E94B7078ECF682F8091B4
:1017A0000001909101010E94031B0895682F809110
:1017B0000001909101010E94111B08958091000188
:1017C000909101010E941F1B089580910A02859546
:1017D00085958595089580910A0287700895909166
:1017E0000A02977081E009F480E0089580912D024B
:1017F000089590912D02892B80932D020895809554
:1018000090912D02982390932D02089510922D020D
:10181000089590912C02892B80932C020895809535
:1018200090912C02982390932C02089510922C02F0
:10183000089580910B02089508950E941C0C08954C
:101840009091880292FF08C090910B02981721F0A6
:1018500080930B020E941D0C089580910B02882337
:1018600029F010920B0280E00E941D0C0895CF9386
:10187000DF93E0910001F091010180912D028083BE
:10188000E0910001F0910101808190912C02892B5F
:10189000808390910B02992381F0E0910001F091F7
:1018A00001018081892B8083809100019091010149
:1018B0000E946F1A81110E942D0CC0910001D091DD
:1018C000010140E250E06AEE71E0CE010E947D230A
:1018D000892B59F080E2FE01AAEEB1E001900D9251
:1018E0008A95E1F7CE010E941B1ADF91CF910895EE
:1018F00008950E94780C08959091880292FF11C07B
:1019000098E0899F90011124622B60930A020E9443
:101910000D0880910A028595859585950E94790C20
:1019200008950E940D08089510920A0280E00E9416
:10193000790C089590910A028095892380930A0278
:10194000282F277091F4282F082E000C330B9217A4
:10195000130659F09091880292FF07C085958595EE
:1019600085950E941D080E94940C0895909188020C
:1019700092FB222720F9281769F080FB92F99093B7
:10198000880280918702909188020E94070D82E070
:101990000E949A0C08958091880282FB882780F922
:1019A00091E089270E94B60C089581E00E94B60C50
:1019B000089580E00E94B60C08956FEF7FEF90E0ED
:1019C00080E00E94C523089590E080E00E94A1235A
:1019D00021E0883E9E4F09F020E0822F089582E0AA
:1019E00090E00E949323089583E090E00E94932367
:1019F0000895CF9384E090E00E949323C82F82E261
:101A000090E00E949323982F8C2FCF910895CF932D
:101A1000C92F682F84E090E00E94A7236C2F82E2F8
:101A200090E00E94A723CF910895AB01BC018FE005
:101A300090E00E94B9230895AB01BC0183E190E0DE
:101A40000E94B923089560E070E0CB010E941C0D54
:101A5000089560E070E0CB010E94150D0E94230DF7
:101A6000089568EE7EEF90E080E00E94C52360E07C
:101A700082E090E00E94A72360E083E090E00E9473
:101A8000A7231092B1011092B00160E084E090E0D1
:101A90000E94A72364E082E290E00E94A72360E016
:101AA00085E090E00E94A72360E086E090E00E943D
:101AB000A7236FEF87E090E00E94A72340E050E06B
:101AC000BA0188E090E00E94B92360E08DE090E0E8
:101AD0000E94A72340E050E0BA0188E190E00E9414
:101AE000B92360E087E190E00E94A72340E050E046
:101AF000BA018CE190E00E94B92370E060E080E2DE
:101B000090E00E94C52340E050E0BA0188E190E0F7
:101B10000E94B9230E94290D08950E94310D089555
:101B2000682F8EE090E00E94A72308950E94ED1B8D
:101B300060933C0270933D0280933E0290933F027B
:101B4000609338027093390280933A0290933B027B
:101B50000895089508950E94AA0D089508950E9479
:101B6000AE0D089589E590E10E94041A0E94A90D26
:101B70000E94AB0D089581E008950E94BB0D089569
:101B8000089508950E94C00D0E94C10D08950E94FD
:101B900078100E94AA0308950E94D81B0E94541135
:101BA0000E94C70D0E94DA160E94AF0D0895AAE0A8
:101BB000B0E0EDEDFDE00C944B230E946A1120E3B0
:101BC000822E22E0922E640110E0F601E190F19065
:101BD0006F01812F0E949E101F5F143009F449C0CD
:101BE000E816F90691F38091400281FD0E94A7104A
:101BF0000E94BD0D782E10E0812F0E949E107C0166
:101C0000F401A190B1904F018A159B0561F1A826BE
:101C1000BF2400E0CC24C394D12CC5018C219D218C
:101C2000892BC1F07720B1F00E831F8321E0C7011B
:101C30008C219D21892B09F420E028870E94E11B3B
:101C40008160782F9A8789874E815F8168858A8530
:101C50000E94D6030F5FCC0CDD1C0C30F1F6F401B2
:101C60003297F182E0821F5F143031F60E94960DA8
:101C700022C0E816F90609F0B6CF0E94E11B8C01DC
:101C800080912E0290912F0208171907A1F08FEF73
:101C900089838A831B820E94E11B8160782F9D8348
:101CA0008C8349815A816B818D810E94D603109368
:101CB0002F0200932E020E9488130E94BD032A96D1
:101CC000EDE00C946723CF93DF930E94740FEC0137
:101CD000811521E5920708F042C0811530E5930790
:101CE00008F09FC0883E910530F5803E910508F0D0
:101CF00094C0883A910588F4853A910508F086C029
:101D00008130910509F489C0009709F486C00497D1
:101D100008F083C0D0E0C0E080C08F3B9105D0F7D1
:101D2000C85AD0E0CC0FDD1FC55BDE4F0990D881CB
:101D3000C02DD46472C0811540E2940750F4C115DF
:101D400081E0D80708F069C0CD3ED10518F3D06511
:101D500064C081159044F0F2DF70D06A5EC08115D6
:101D600035E5930718F5811544E5940708F085C01B
:101D7000C11583E5D80708F06CC0C11522E5D2076C
:101D800008F462C0CE018370992721E030E002C0E0
:101D9000220F331F8A95E2F7C695C69580E2C89F49
:101DA000E0011124C22BD32BDC6837C0811539E543
:101DB0009307A8F4811548E5940708F063C0C1159E
:101DC00086E5D80708F0A6CF8C2F0E941610C82FE2
:101DD000D0E0DC2FCC27CC27DF71D0621EC081156C
:101DE0002AE5920708F453C090568115904208F0F6
:101DF00091CF8D2F8F710E94161090E0982F882719
:101E000088279F719C012C2BE901E7CFC55AD0E0B0
:101E1000C758DE4FC881D0E0D064CE01DF91CF91AA
:101E200008958370992721E030E002C0220F331F0C
:101E30008A95E2F7C695C69540E2C49FE001112459
:101E4000C22BD32BDD68E9CFDC2FCC27C16FD06A42
:101E5000E4CFCE018370992721E030E002C0220F49
:101E6000331F8A95E2F7C695C69540E2C49FE0010C
:101E70001124C22BD32BDA68D0CFD82FCC27C46F34
:101E8000D06ACBCFD82FCC27C06FD06AC6CF8F7087
:101E90000E94161034E0D695C7953A95E1F7CF70B9
:101EA0009C2FEC01D069B9CF972F7430A8F46C3017
:101EB00098F470E02CE0929F600D711D1124FB01DD
:101EC00090E3899FE00DF11D1124EE0FFF1FE455F3
:101ED000FF4F85919491089580E090E008950E94CD
:101EE000540F0E94630E089582389105B9F1B0F441
:101EF0008133910509F47DC048F48932910509F4D4
:101F00006DC08A32910509F47BC00895853391052F
:101F100009F45FC08933910509F10895833E910565
:101F2000D9F138F4803E910529F1823E910579F18D
:101F30000895863E9105D9F1873E910509F43EC08A
:101F4000843E910541F52091880221FF24C08091B3
:101F5000870284FD19C087EE90E0089520918702E2
:101F6000237009F05AC02091880223FF14C089E22F
:101F700090E008952091870220FD38C030918802BA
:101F800030FF09C024FF43C090E080E00895209115
:101F9000870222FDF7CF08952091870222FD3AC0E3
:101FA0003091880230FD39C024FFF5CFEDCF20916C
:101FB000870223FFF0CF24FDE7CFCDCF209187020A
:101FC00023FD2EC03091880231FFEECF84EE90E0E9
:101FD00008952091870225FFDECFC9CF2091870287
:101FE00025FD21C02091880223FFD5CF89E390E011
:101FF000D2CF2091870226FFCECF8AE290E00895CB
:102000002091870226FFC7CF81E390E0089583EEF9
:1020100090E0089582EE90E0089580EE90E00895BB
:1020200086EE90E0089585E390E008959091870210
:1020300092FF06C0282F28712830F9F4877F84602A
:1020400093FF06C0282F28712831F1F4877E846120
:102050002091880220FF06C0382F38713830D9F41B
:10206000877F816021FF06C0282F28712831D1F495
:10207000877E816194FD877E0895282F2471243006
:10208000F9F68B7F8860DCCF282F2471243101F78B
:102090008B7E8861DDCF382F3171313019F78E7F1B
:1020A0008860E0CF282F2171213121F78E7E886151
:1020B000E1CF80E008950E94DD0C08950E946A112E
:1020C0002FEF86E791E0215080409040E1F700C07B
:1020D00000000E946A1180E00E949E1080FF04C0F0
:1020E0000E945B100E942C1C08950E945E100895AF
:1020F0000E94E40C811102C00E948D0D0E94EF0C21
:10210000809340020E94F90C90938802809387028A
:102110000E9475100E94F40C90E00E94CF078091FD
:10212000AE019091AF010E94F007089508950E94BA
:102130009610089508950E949A100895E82FF0E0EF
:10214000EE0FFF1FEF56FD4F808191810895089596
:1021500080EA8A95F1F7089500C008950E94A810BA
:102160000895F894E82FE295EF70F0E031A1282F60
:102170002F7081E090E001C0880F2A95EAF7982F30
:102180009095932391A392A1892B82A3789408958B
:10219000CF93DF9384EF0E94B11085EF0E94B110BE
:1021A00086EF0E94B11087EF0E94B110CCE7D1E01A
:1021B00089918F3F11F00E94B11081E0C838D80793
:1021C000B9F7DF91CF910895AF92BF92DF92EF926E
:1021D000FF920F931F93CF93DF938C01D62EC62FC0
:1021E000D0E0CE0188579E4F7C01FC0120812F3F1B
:1021F00009F44DC0F894E22FE295EF70F0E031A1C0
:102200002F7081E090E001C0880F2A95EAF7932FA4
:10221000982B91A392A18095892382A378940E9400
:10222000AC10ECE7F1E048E851E021E030E0B12CFF
:10223000A12C61916F3FA9F1A62FA295AF70B0E0DC
:1022400090968C9190E06F7002C0959587956A95F5
:10225000E2F780FD26C0C901A82AB92A220F331F40
:102260004E175F0731F7F70180818F3F11F00E9411
:10227000B11061E0A114B10409F460E08D2D0E9459
:10228000AE10CC0FDD1FC00FD11FB982A882DF9125
:10229000CF911F910F91FF90EF90DF90BF90AF9083
:1022A000089590E080E0D8CF0E94C81088E0E1E96E
:1022B000F2E0DF01982F1D929A95E9F7E9E8F2E044
:1022C000DF011D928A95E9F784E00E94A5110E9422
:1022D0001E030895A8E0B0E0E0E7F1E10C94532379
:1022E0008E010F5F1F4F88E0F80111928A95E9F780
:1022F000F12C6F2DC8010E94E410F394F4E0FF125A
:10230000F8CF48E050E0B80189E892E00E947D23D0
:1023100021E0009709F420E0892B41F088E0F801E2
:10232000A9E8B2E001900D928A95E1F744E061E9F5
:1023300072E089E892E00E94A611182F0E94210302
:10234000812F2896E5E00C946F230895CF92DF92B9
:10235000EF92FF921F93CF93DF936C017B01C42F09
:10236000222349F081E0809343020E94E11B909375
:102370004202809341021091430211110AC010E001
:10238000812FDF91CF911F91FF90EF90DF90CF9041
:10239000089580914102909142020E94F91B059795
:1023A00070F3D0E0CC0FDD1FAE01B601C7010E9473
:1023B0007D23892B41F0AE01B601C7010E948A231B
:1023C00010924302DDCF10E0FBCF0E94F31D0E946C
:1023D000CC0D0E94001E08950E94051E0E94D70D7C
:1023E0000E941F1E08950E947A1B0E94D91D0E9400
:1023F000B20D0E94E5110E94EC110E94C20DFBCFAC
:1024000080914C0280FF0DC06091060170E0660F64
:10241000771F6038710570F56115710569F1862FB8
:10242000089581FF07C06091060184E0689FB001B4
:102430001124EFCF6091060182FD0AC080914B020A
:102440008823A9F02091050160910601821710F000
:1024500088E0ECCF869FC001112433E0880F991FDC
:102460003A95E1F7622F70E00E942C23D2CF68E00A
:1024700070E0D5CF8FE7089581E0089580914C02F8
:1024800080FF0CC06091030170E0759567957595AC
:1024900067956115710549F1862F089581FF06C082
:1024A0006091030170E075956795F3CF609103012A
:1024B00082FD0BC090914A029923A1F06091020124
:1024C00080910301961738F0682F70E0603871052D
:1024D00000F38FE70895899FC001112470E00E94E6
:1024E0002C23F4CF61E070E0D7CF81E008958D3EDA
:1024F00031F40E94001281958093500208958E3E1F
:1025000019F40E940012F8CF8F3E31F40E9400129D
:10251000819580934F020895803F19F40E94001224
:10252000F8CF893F29F40E943E128093510208950A
:102530008A3F21F40E943E128195F7CF8B3F31F400
:102540000E943E1281958093520208958C3F19F4A7
:102550000E943E12F8CF9FE0980F983070F4815F90
:10256000990B21E030E001C0220F8A95EAF78091B3
:102570004E02822B80934E0208958D3F31F480915C
:102580004C02816080934C0208958E3F21F480912B
:102590004C028260F7CF8F3FB9F780914C02846084
:1025A000F1CF40914F028D3E59F48091500287FF48
:1025B0000DC01092500241110BC010924B0208C086
:1025C0008E3E81F48091500218169CF3442381F0D2
:1025D0008091510290915202892B09F05AC01092B9
:1025E0004A0208958F3E49F447FFF0CF10924F0200
:1025F000809150028111ECCFE0CF803F19F4141686
:10260000ACF3E4CF90915102893F29F41916F4F606
:1026100010925102DBCF8A3F19F497FFD7CFF8CF42
:10262000909152028B3F29F497FFD0CF1092520223
:10263000CDCF8C3F19F41916CCF3C8CF9FE0980F7B
:10264000983090F4815F990B21E030E0B90102C02D
:10265000660F771F8A95E2F7CB01809590914E0225
:10266000892380934E02B2CF8D3F31F480914C028A
:102670008E7F80934C02AACF8E3F21F480914C0232
:102680008D7FF7CF8F3F09F0A1CF80914C028B7FD8
:10269000F0CF08950E94E11B9C0190914F02809120
:1026A0005002982B21F030934902209348029091D8
:1026B000510280915202982B21F0309347022093CF
:1026C00046028DE492E00E94351A089586E0EDE41A
:1026D000F2E0DF011D928A95E9F710924B02109209
:1026E0004A0210924C020895FC01828181110EC0B1
:1026F000838181110BC08481811108C091E08581A3
:10270000811101C090E0892F8170089581E0FCCF94
:10271000A6E0B0E0EEE8F3E10C94552386E0EDE4AA
:10272000F2E0DE01119601900D928A95E1F7109288
:102730004F021092500210925102109252028B815D
:102740009C81892B89F080914802909149020E94D6
:10275000F91BAC0190914B029923C9F180910701BB
:102760008417150608F440C08D819E81892B91F055
:1027700080914602909147020E94F91BAC01909112
:102780004A02992309F471C0809104018417150647
:1027900008F479C0BE016F5F7F4F8DE492E00E9424
:1027A000311B811105C08DE492E00E9474138111E8
:1027B0000E944A1386E0FE013196ADE4B2E001903A
:1027C0000D928A95E1F72696E3E00C94712320910F
:1027D00045028AE0289F900111242417350720F62E
:1027E0009F5F90934B0202C09F3FD1F71B81112343
:1027F00059F00E9400129FEF11160CF491E0899F8E
:10280000802D112480934F021C81112359F00E94C6
:1028100000129FEF11160CF491E0899F802D112476
:102820008093500230914F02332309F49DCF2091C1
:102830005002222309F498CF45EB3403C001112440
:10284000992359F090934F0245EB240390011124F2
:10285000332339F03093500287CF81E080934F02C9
:10286000F3CF81E0809350027FCF209144028AE031
:10287000289F900111242417350708F08BCF9F5F04
:1028800090934A0202C09F3FD1F71D81112359F056
:102890000E943E129FEF11160CF491E0899F802D4B
:1028A0001124809351021E81112359F00E943E127F
:1028B0009FEF11160CF491E0899F802D11248093D5
:1028C000520230915102332309F464CF2091520215
:1028D000222309F45FCF45EB3403C001112499236F
:1028E00059F09093510245EB2403900111243323B6
:1028F00039F0309352024ECF81E080935102F3CFF2
:1029000081E08093520246CFEF92FF920F931F9384
:10291000CF93DF93EB01E82FD1110EC0442321F0B8
:10292000F0E0E451FD4FE4916E2F7E2F8E2FCDB756
:10293000DEB7E6E00C946E230D2F10E0282F30E078
:10294000442329F024513D4FF901249130E0F6E071
:10295000CF9FC0011124EFEFF0E0BF010E941823C8
:10296000AB018C2F90E0880F991FA5E5A49FB001C3
:10297000A59F700D1124861B970B982F990F980F08
:10298000BF01601B710B629FD001639FB00D729FEE
:10299000B00D11248B2F9D9FB0011124672F772735
:1029A000EF01C61BD70BBE01629FE001639FD00DF4
:1029B000729FD00D11247F01E91AF108E09EB00149
:1029C000E19E700DF09E700D1124672F7727E61B96
:1029D000F70BE29F8001E39F100DF29F100D112471
:1029E000E12F722F4230510599F048F441155105FD
:1029F00069F04130510581F0EB2F8D2F07C0443035
:102A0000510569F080F046305105B1F76E2F8FCF38
:102A1000E22F7B2F812FFACFE22F7D2FF7CFEB2FE5
:102A2000822F712FF3CF7B2F822FED2FEFCF41E03D
:102A30000E94841408950E9417150895CF93DF9380
:102A4000762FE901682F842F0E941B1579836883F4
:102A50008A83DF91CF91089580919902982F9E7F6C
:102A600039F480919902817082608093990208956F
:102A70008430B8F7089588E090E00E949B23089581
:102A8000CF92DF92EF92FF926B017C010E942C1596
:102A9000B701A60188E090E00E94B923FF90EF9073
:102AA000DF90CF900895E9E9F2E083E0808311821E
:102AB0008FEF82838383148260817181828193810D
:102AC0000E944015089590919D02933018F49F5FE5
:102AD00090939D02882351F06091990270919A021F
:102AE00080919B0290919C020E944015089581E084
:102AF0000E946315089590919D02992319F09150B9
:102B000090939D02882351F06091990270919A02EE
:102B100080919B0290919C020E944015089581E053
:102B20000E947B15089570E00E948A1708956091B5
:102B300009018091990280FF0BC08091080123E078
:102B4000829FC001112482569D4F0E9493150895C3
:102B500080910A0190910B0123E0829FF0011124E2
:102B6000E256FD4F891748F71182108212828F5F5B
:102B70003396F8CFE9E9F2E080818E7F808360812F
:102B80007181828193810E9440152FEF80E792E04E
:102B9000215080409040E1F700C000000E9497154E
:102BA00008959091990290FF0EC090910A01209192
:102BB0000B0133E0939FF0011124E256FD4F921771
:102BC00018F00E94971508958183608342839F5F68
:102BD0003396F5CFA3E0B0E0E0EFF5E10C9452239B
:102BE000F82E062F142FE22E8091990280FF28C024
:102BF000E82FE695F0E0E457FE4F90819093540261
:102C00008E7F823059F49E012F5F3F4F8F2D0E949F
:102C10001E154B8169818A810E94D115F0929A021A
:102C200000939B0210939C02EE2051F06091990258
:102C300070919A0280919B0290919C020E94401593
:102C40002396E6E00C946E23E9E9F2E09181282FC7
:102C50004381628188E0890F0E94EA15089581E02E
:102C60000E9424160895E9E9F2E09181282F43811A
:102C7000628188EF890F0E94EA15089581E00E9421
:102C800033160895E9E9F2E0628128E0620F08F462
:102C90006FEF282F438181810E94EA15089581E01A
:102CA0000E9442160895E9E9F2E0628128E0621B81
:102CB00008F460E0282F438181810E94EA1508957D
:102CC00081E00E9453160895E9E9F2E0438128E08B
:102CD000420F08F44FEF282F628181810E94EA158C
:102CE000089581E00E9464160895E9E9F2E04381C5
:102CF00028E0421B08F440E0282F628181810E9475
:102D0000EA15089581E00E947516089520E00E945A
:102D1000EA1508958091990280FF18C08170826041
:102D200080939902662351F06091990270919A0202
:102D300080919B0290919C020E94401540919C02C0
:102D400060919B0280919A020E9486160895682FD6
:102D500081E00E948A16089581E00E94A7160895D6
:102D6000682F9091990296958FEF890F09F481E071
:102D70000E948A16089581E00E94B016089561E0CD
:102D80000E948A160895E9E9F2E0808181608083DB
:102D900086950E94BF1608958091990280FF03C016
:102DA0000E94BA1508950E94C316089560E00E941B
:102DB0008A1608958091530281112CC00E94E40C60
:102DC000811104C00E948D0D0E9453150E943B1575
:102DD0006093990270939A0280939B0290939C0255
:102DE0006E7F61F40E9453150E943B156093990217
:102DF00070939A0280939B0290939C020E942C15E0
:102E00008091990280FF03C086950E94D61681E0CA
:102E1000809353020895FA01811101C0FB010995C5
:102E200008951F93CF93DF93EC01FB0112811111E1
:102E30004FC00E94F60B8272CA3CFCE5DF0709F422
:102E400060C030F5C63CECE5DE0709F455C060F41F
:102E5000C43C9CE5D90709F443C008F048C0C33C12
:102E6000DC45D9F111E034C040E656E16FE476E18B
:102E7000C83C9CE5D907C1F14FE256E16EE376E12B
:102E8000C93CDC4588F14FE456E160E676E12CC0B0
:102E9000CE3CFCE5DF07D1F1A0F44FE855E167E750
:102EA00075E1CC3CECE5DE07F9F041E756E162E87C
:102EB00076E1CD3CDC45C0F047E755E16FE875E1D0
:102EC00013C0C73D8CE5D80718F0CE35DD4551F667
:102ED000812FDF91CF911F9108950E94CC16F8CFDA
:102EE0004BEB56E16CEA76E10E940B17F1CF4CEA0E
:102EF00056E16BEB76E1F8CF4EE356E16FE276E117
:102F0000F3CF42E856E161E776E1EECF81E00E943F
:102F1000BF16DECF539A4BB1477F5BB15860EFB716
:102F2000F8949B01220F331F260F371F280F391FDC
:102F30002817390741F4EFBF8FE594E00197F1F7C7
:102F400000C000000895DC016D91CD0178E05BB90F
:102F5000000000C067FF4BB9660F000000C000C052
:102F600000C04BB900C07A9591F7E2CFCF93DF93C1
:102F7000EC01FB018281882309F464C1C430FDE5C2
:102F8000DF07E0F5CB3F9CE5D90730F49E012250E6
:102F90003C4524313105D8F50E94F90C9093880204
:102FA00080938702C231ECE5DE0709F41FC108F007
:102FB0006EC0C9308CE5D80709F4F2C008F03FC0F4
:102FC000C530ECE5DE0709F4DBC058F5C3308CE50D
:102FD000D80709F4CDC008F0CFC080918702816086
:102FE000C230DC4509F4AEC080918702909188021E
:102FF0000E94070D0E947A0780E009C0C63AEDE5FD
:10300000DE0751F238F4C2369DE5D90729F2DF9187
:10301000CF9108959E012E5A3D4523303105B8F7D2
:10302000BBCF809187028062C730FCE5DF0709F4DF
:1030300089C008F4B1C080918702806483C0CD301C
:103040009CE5D90709F4BAC070F4809187028E7F9D
:10305000CB30FCE5DF0709F475C008F4A7C0809108
:1030600087028D7F6FC0CF309CE5D90709F4B6C0C9
:1030700008F4A8C0C031FCE5DF0709F4B3C0C131D2
:10308000DC4509F0B1CF809187028F7B5BC0C11511
:103090009DE5D90709F4B4C098F5CB3FFCE5DF07FF
:1030A00009F472C0B8F4C4319CE5D90709F4B6C07C
:1030B00008F4A2C0C531DC4509F096CF80918702A3
:1030C00082FB992790F921E0922790FB82F990FBEF
:1030D00083F938C0CD3F8CE5D80709F477C008F4F0
:1030E00057C0CE3FECE5DE0709F474C0809188023A
:1030F0008360CF3FDC4509F077CF8093880274CF9F
:10310000C2368DE5D80709F496C068F4C230EDE503
:10311000DE0709F48CC008F477C0C330DD4509F040
:1031200063CF80E085C0CE3A9DE5D907E9F068F429
:1031300090918702892F8E7F90FF8160C63ADD458E
:1031400009F052CF809387024FCFCF3A8DE5D80751
:1031500089F1C03BDD4509F047CF90918802892F66
:10316000877F93FF8860C9CF809188028860C5CF30
:10317000809187028260E6CF809187028460E2CFEF
:10318000809187028860DECF809188028160B5CF10
:10319000809188028260B1CF809187028061D2CF16
:1031A0000E947A07809187028068CCCF8091870245
:1031B0008C60C8CF80918802877F9FCF80918702E3
:1031C0008B7FC0CF80918702877FBCCF80918802A0
:1031D0008E7F93CF809188028D7F8FCF80918702E1
:1031E0008F7EB0CF809187028F7DACCF0E947A070F
:1031F000809187028F77A6CF80918702837FA2CFAD
:10320000809188028C7F79CF80918802982F909549
:1032100091708E7F892B90FB81F96FCF0E947A0786
:1032200090918702892F97FB87F980588BCF81E097
:103230000E94900DD9CE90918702892F8F7E94FFA6
:10324000806180CF81E0E3CECF93DF93EB018631C5
:103250009C4511F50E94F60B9A81992399F08A7A80
:1032600091E009F490E090935602811109C089E23F
:103270000E94CE0B0E94370C80E0DF91CF91089521
:1032800085E3F6CF80915602811104C089E20E9445
:10329000D60BF0CF85E3FBCF81E0EFCF0F931F93E9
:1032A000CF93DF93C42FD22FFC0182818823C9F0F2
:1032B000409359020E94E11B909358028093570259
:1032C00080E28C0F883040F4C77081E001C0880F25
:1032D000CA95EAF70E941C05DF91CF911F910F91CB
:1032E000089510915902141332C0809157029091A1
:1032F00058020E94F91B883C910548F5C0E2CD0FA9
:103300001D17B9F080E2810F883040F4177081E01A
:1033100001C0880F1A95EAF70E942305C83048F4C7
:1033200081E09D2F977001C0880F9A95EAF70E945F
:103330001C05802F0E941305C83070F6D77081E0FD
:1033400001C0880FDA95EAF70E942305C5CF80E215
:103350008C0F883008F6C77081E001C0880FCA95CD
:10336000EAF7F2CF0F939C01CB01243F4CE53407E1
:1033700059F1A8F4293DFCE53F0701F12A3D4CE550
:103380003407D1F1283D3C4591F406E221EE41EEAF
:1033900068ED7CE50E944E1980E00F910895263F6C
:1033A000FCE53F07E9F0B0F0273F3C45F9F0FC01B0
:1033B0008281882339F110925902EFCF07E225EE7E
:1033C00045EE69ED7CE5E6CF06E221EE40EE64EFE6
:1033D0007CE5E0CF07E225EE44EE65EF7CE5DACF51
:1033E00006E221EE42EE66EF7CE5D4CF07E225EE61
:1033F00046EE67EF7CE5CECF08E221E045EE6AEDD0
:103400007CE5C8CF81E0C9CF90938F0180938E0176
:10341000089590935F0280935E020895E0915E02AA
:10342000F0915F02309729F00190F081E02D09952D
:10343000089580E00895E0915E02F0915F02309778
:1034400099F020911901222359F02091870227FF3A
:1034500007C0DC012C9111962C93119726E02C9338
:103460000280F381E02D09950895E0915E02F091CC
:103470005F02309739F022E0DC012C930480F58163
:10348000E02D0995089520915C0230915D02281786
:10349000390771F090935D0280935C02E0915E02C7
:1034A000F0915F02309721F00680F781E02D0995B9
:1034B000089520915A0230915B022817390771F064
:1034C00090935B0280935A02E0915E02F0915F025A
:1034D000309721F00084F185E02D09950895FC01D5
:1034E000329680911901882321F0809187029EE114
:1034F00087FF96E080E0915008F4089521912223FF
:10350000D1F38F5FF8CF662301F1209119012223B7
:10351000F1F02091870227FF1AC0462F4695469565
:1035200046954E3190F4677021E030E002C0220FE2
:10353000331F6A95E2F7840F911DFC01828190E0B0
:103540002823392381E0232B69F480E00895FC01CE
:10355000329608962191261721F0E817F907D1F73E
:10356000F4CF81E008959C01FC0132969FEF80E04A
:103570004191461751F09F3F19F4411101C0982F16
:103580008F5F8630A9F79F3F09F40895290F311DF9
:1035900097FD3A95F90162830895FC0132960896E9
:1035A0002191261303C0DF0111971C92E817F90738
:1035B000B9F70895E62FE695E695E695EE3168F4BD
:1035C000E80FF92FF11D677021E030E001C0220FF4
:1035D0006A95EAF78281822B82830895E62FE69529
:1035E000E695E695EE3170F4E80FF92FF11D67705E
:1035F00021E030E001C0220F6A95EAF72095828130
:1036000028232283089520911901222339F0209143
:10361000870227FF03C00E94DA1A08950E94B31A96
:10362000089520911901222339F02091870227FF64
:1036300003C00E94EE1A08950E94CD1A0895FC015D
:10364000329680911901882351F08091870287FF7B
:1036500006C08EE1DF011D928A95E9F7089586E0A4
:10366000F9CF46E050E00E947D2321E0892B09F448
:1036700020E0822F089508950E943B1B0895811138
:1036800006C081E0809360020E943C1B089582E0A6
:10369000F9CF83E0809360020E943C1B08950E9452
:1036A0003F1B089581E0809360020E943C1B0895B7
:1036B0000E94521B0895089508950E945C1B08956E
:1036C000089508950E945B1B0895CF930E94601B8C
:1036D0000E946A110E94611BC0E08C2F0E949E1004
:1036E000892B31F4CF5FC430C1F780E0CF910895CA
:1036F00081E0FCCF85B7806885BF85B7806885BFCE
:1037000008951F921FB61F9211248F939F93AF931A
:10371000BF9380916102811113C08091B302909197
:10372000B402A091B502B091B6024196A11DB11D9F
:103730008093B3029093B402A093B502B093B60203
:10374000BF91AF919F918F911F901FBE1F901895B1
:103750008091BB02843031F10E9497031092610284
:1037600088E190E020E40FB6F894A895809360007B
:103770000FBE2093600083B7817F846083BF83B7CF
:10378000816083BF7894889583B78E7F83BF0FB69F
:10379000F894A895809160008861809360001092F1
:1037A00060000FBE08950E947A070E949C0308954E
:1037B00082E084BD93E095BD9AEF97BD80936E0043
:1037C00008952FB7F8948091B3029091B402A0911C
:1037D000B502B091B6022FBF08952FB7F89460914B
:1037E000B3027091B4028091B5029091B6022FBFDE
:1037F00008959C014FB7F8948091B3029091B40260
:10380000A091B502B091B6024FBF821B930B0895F1
:1038100078941F921FB61F9211248F939F93AF939A
:10382000BF938091B3029091B402A091B502B09180
:10383000B6020196A11DB11D8093B3029093B4020C
:10384000A093B502B093B602BF91AF919F918F91B3
:103850001F901FBE1F90189587E797E79093010868
:103860008093000888E19AE00FB6F894A8958093B9
:1038700060000FBE90936000FFCF88E19AE00FB622
:10388000F894A895809360000FBE90936000FFCFDE
:1038900080918502089508959C0182E08093E9005B
:1038A0009FEF8091E800915085FD06C085ED8A95D7
:1038B000F1F700009111F5CF8091E80085FF0CC071
:1038C00050E040E066E070E0C9010E94911E8091E6
:1038D000E8008E778093E8000895CF93DF93EC01A2
:1038E000809119018823B1F18091870287FF32C04E
:1038F00060E282E08093E9008FEF9091E8008150D0
:1039000095FD06C095ED9A95F1F700008111F5CF70
:103910008091E80085FF1BC08091190170E050E0A4
:1039200040E0811104C050E040E068E070E0CE016A
:103930000E94911E8091E8008E778093E80080E2DB
:10394000FE01A5E6B2E001900D928A95E1F7DF91C4
:10395000CF91089568E081E0CDCF809362027093AB
:103960006402609363028091BB02843001F582E0BF
:103970008093E9008FEF9091E800815095FD06C09B
:1039800095ED9A95F1F700008111F5CF8091E8004F
:1039900085FF0DC050E040E063E070E082E692E019
:1039A0000E94911E8091E8008E778093E800089530
:1039B000BC0184E00E94AD1C0895BC0183E00E941C
:1039C000AD1C08958091BA02811109C00E94212086
:1039D0000E947E208091E20084608093E20008953E
:1039E0001092BA0208950E94521B08956091B70286
:1039F00081E0611101C080E00E94491B089590910F
:103A0000BB0281E0943009F080E06091B7020E942F
:103A10004F1B089542E061EC81E00E949D1F42E24D
:103A200061EC82E00E949D1F9091BB0281E0943086
:103A300009F080E06091B7020E943F1B08958091D9
:103A4000BD02833009F461C030F48130D1F182309D
:103A500009F49EC008958A3009F48AC08B3009F4B5
:103A60006FC0893009F050C08091BC02813209F0EA
:103A70004BC08091C0029091C102029708F044C0EF
:103A80008091E800877F8093E8008091E80082FFC2
:103A900037C09091F3008091F200029731F4809149
:103AA000F100813011F0863021F48091F100809393
:103AB00085028091E8008B778093E8000E94D11FF7
:103AC00023C08091BC02813AF9F48091E800877F9D
:103AD0008093E8008091C0029091C102892B61F42B
:103AE00060E285E692E070E00E94E01E8091E800CE
:103AF0008B778093E800089560E090E080E0F3CF5A
:103B00008091BB028111C1CF08958091BC02813A9E
:103B1000D9F78091C0029091C102892BA9F78091B9
:103B2000E800877F8093E8008091E80080FFFCCF69
:103B3000809119018093F1008091E8008E77BCCFCD
:103B40008091BC02813201F78091C0029091C10244
:103B5000892BD1F68091E800877F8093E8000E944E
:103B6000D11F8091BE02809319010E947A070895A7
:103B70008091BC02813241F68091E800877F80937A
:103B8000E8000E94D11F8091BF02809386020895B1
:103B90008091BC02813A09F0B7CF8091E800877F1D
:103BA0008093E8008091E80080FFFCCF809186023E
:103BB000C1CF84B7877F84BF0FB6F894A895809152
:103BC0006000886180936000109260000FBE80E802
:103BD00090E00FB6F89480936100909361000FBE5F
:103BE0000E94581B08950E9421200E947E20E2EE30
:103BF000F0E080818460808378940E94FD220895A3
:103C00008DE091E00E94091A08958091BB028530F1
:103C100031F48091BB02853019F00E94D31B0895C6
:103C20000E94A81B8091B902882399F30E94651B0A
:103C3000882379F30E947B1E0E947A07EACF0895B9
:103C40000E94231E0895292F33272330310519F1AF
:103C500068F42130310509F444C02230310509F4FB
:103C600045C090E080E030E020E025C02132310501
:103C700049F122323105A9F780E490E02FE135E0E7
:103C800061157105C1F086EB90E029E634E0613002
:103C9000710589F0E6CF99278130910581F0009771
:103CA00029F00297F1F6ECEEF3E002C0E8E1F4E06F
:103CB000849190E09F01FA01318320830895E0E030
:103CC000F4E0F6CF89E090E02EE234E06115710572
:103CD00091F389E090E027E434E06130710559F315
:103CE000C0CF82E190E027E534E0E5CF8BE390E0C0
:103CF0002CE134E0E0CF80E189BD82E189BD09B4E7
:103D000000FEFDCF8091D8008F7D8093D8008091F8
:103D1000E00082608093E0008091E00081FDFCCFB4
:103D20000895AF92BF92CF92DF92FF920F931F93AD
:103D3000CF93DF936C01EB018A010E94F01FF82EF4
:103D4000811123C00115110539F0F801808191819D
:103D5000C81BD90BC80ED91EB12CA12C2097A9F0D5
:103D60008091E80085FD22C08091E8008E778093E5
:103D7000E80001151105A1F0F80180819181A80EDC
:103D8000B91EB182A08285E0F82E8F2DDF91CF91F0
:103D90001F910F91FF90DF90CF90BF90AF9008954B
:103DA0000E94F01F8823D1F2F82EEFCFF601819107
:103DB0006F018093F1002197FFEFAF1ABF0ACECFBA
:103DC000FC018091C2029091C30286179707A0F070
:103DD0006115710529F49091E8009E779093E800B1
:103DE00090E06115710551F4911108C08091E800CF
:103DF00082FF34C080E00895BC01F2CF8091BB0205
:103E00008823C1F18530C1F18091E80083FD30C085
:103E10008091E80082FDEACF8091E80080FFE1CF49
:103E20008091F3002091F200382F6115710519F08F
:103E30002830310558F091E02830310509F090E044
:103E40002091E8002E772093E800CBCF81918093DA
:103E5000F100615071092F5F3F4FE7CF8091BB02A6
:103E6000882341F0853041F08091E80083FFBECF88
:103E700081E0089582E0089583E00895FC01809137
:103E8000C2029091C30286179707A0F061157105D1
:103E900029F48091E8008E778093E80090E0611526
:103EA000710551F4911108C08091E80082FF35C07E
:103EB00080E00895BC01F2CF8091BB028823C9F154
:103EC0008530C9F18091E80083FD31C08091E80020
:103ED00082FDEACF8091E80080FFE1CF8091F3007E
:103EE0002091F200382F6115710519F02830310545
:103EF00058F091E02830310509F090E08091E80019
:103F00008E778093E800CBCF84918093F100319637
:103F1000615071092F5F3F4FE6CF8091BB0288232C
:103F200041F0853041F08091E80083FFBDCF81E012
:103F3000089582E0089583E00895982F973028F03F
:103F40008F708093E90081E008959093E900242F19
:103F5000762F50E0981731F07091EC002091ED0031
:103F60005091F00021FD02C09F5FE8CF3091EB003F
:103F70003E7F3093EB003091ED003D7F3093ED00BC
:103F80003091EB0031603093EB007093EC002093A4
:103F9000ED005093F0002091EE0027FDE5CF80E08A
:103FA00008958091BC0287FF13C08091E80082FFD2
:103FB00006C08091E8008B778093E80004C0809170
:103FC000BB028111F2CF08958091BB028823D9F3FF
:103FD0008091E80080FFF8CF8091E8008E77ECCFE9
:103FE0002091E4003091E50095E6A9012091EC00D4
:103FF000822F817020FF06C08091E80080FF06C0FC
:1040000080E008952091E80022FD1AC08091BB0253
:10401000882389F0853089F08091EB0085FD0FC001
:104020002091E4003091E50042175307F9F29150D6
:10403000E1F684E0089582E0089583E0089581E048
:1040400008950E9490200E949820E0EEF0E0808188
:1040500081608083E8EDF0E080818F77808319BCF8
:10406000A7EDB0E08C918E7F8C9380818F7E8083D2
:104070001092BA0208950F931F93CF93DF930E947B
:1040800090200E949820C8EDD0E088818F778883A7
:1040900088818068888388818F7D888319BC10928D
:1040A000BB021092B7021092B9021092B80200EE51
:1040B00010E0F80180818B7F808388818160888314
:1040C00042E060E080E00E949D1FE1EEF0E0808130
:1040D0008E7F8083E2EEF0E080818160808380814A
:1040E00088608083F80180818E7F808388818061F1
:1040F0008883DF91CF911F910F910895E8EDF0E053
:1041000080818F7E8083E7EDF0E080818160808315
:1041100084E082BF81E08093BA020E943B20089530
:10412000E8EDF0E080818E7F80831092E2000895B8
:104130001092DA001092E10008951F920F920FB6CC
:104140000F9211242F933F934F935F936F937F931D
:104150008F939F93AF93BF93EF93FF938091E10071
:1041600082FF0BC08091E20082FF07C08091E100D6
:104170008B7F8093E1000E94FC228091DA0080FF17
:1041800019C08091D80080FF15C08091DA008E7F21
:104190008093DA008091D90080FF96C080E189BDCC
:1041A00082E189BD09B400FEFDCF81E08093BB02AE
:1041B0000E94E21C8091E10080FF19C08091E20022
:1041C00080FF15C08091E2008E7F8093E200809195
:1041D000E20080618093E2008091D8008062809349
:1041E000D80019BC85E08093BB020E94F61C809128
:1041F000E10084FF2BC08091E20084FF27C080E1B2
:1042000089BD82E189BD89B5982F917080FFFBCF70
:104210008091D8008F7D8093D8008091E1008F7EBF
:104220008093E1008091E2008F7E8093E200809194
:10423000E20081608093E2008091B702882309F454
:1042400049C084E08093BB020E94FF1C8091E10082
:1042500083FF29C08091E20083FF25C08091E100A7
:10426000877F8093E10082E08093BB021092B702C7
:104270008091E1008E7F8093E1008091E2008E7F4B
:104280008093E2008091E20080618093E20042E04E
:1042900060E080E00E949D1F8091F0008860809324
:1042A000F0000E94F31CFF91EF91BF91AF919F919D
:1042B0008F917F916F915F914F913F912F910F90CF
:1042C0000FBE0F901F90189519BC1092BB020E9450
:1042D000F01C70CF8091E30087FD93E09093BB02C8
:1042E000B3CF1F920F920FB60F9211242F933F93CB
:1042F0004F935F936F937F938F939F93AF93BF93EE
:10430000CF93DF93EF93FF93D091E900DF7080911B
:10431000EC00C82FC17080FDC0E81092E9008091C8
:10432000F000877F8093F00078940E94B52110926E
:10433000E9008091F00088608093F000CD2BCF7071
:10434000C093E900FF91EF91DF91CF91BF91AF91C1
:104350009F918F917F916F915F914F913F912F919D
:104360000F900FBE0F901F901895AAE2B0E0EBEBF4
:10437000F1E20C9455238CEB92E02091F100FC01CA
:104380002193CF01F2E0843C9F07B9F70E941F1DE3
:104390008091E80083FF1EC18091BC029091BD0214
:1043A0009A3008F017C1E92FF0E0E751FC4D0C946A
:1043B0004023803899F0823809F00CC18091C00206
:1043C0008F70873008F006C18093E9008091EB0080
:1043D00085FB882780F91092E90006C08091B80219
:1043E0009091B902911182609091E800977F90932B
:1043F000E8008093F1001092F1008091E8008E7740
:10440000E5C0882309F4D3C0823009F0E3C080916D
:10441000BE028111D6C08091C0028F702FEF280F8D
:10442000263008F0D7C08093E9002091EB0020FFF0
:10443000C8C0933031F48091EB0080628093EB0030
:10444000C0C09091EB0090619093EB0021E030E0D0
:1044500001C0220F8A95EAF72093EA001092EA0041
:104460008091EB008860EACF8111B4C01091BE0248
:104470001F778091E3008078812B8093E300809107
:10448000E800877F8093E8000E94D11F8091E800B8
:1044900080FFFCCF8091E30080688093E30082E09E
:1044A000111183E08093BB0295C08058823008F0E0
:1044B00091C08091BE029091BF028C3D23E0920793
:1044C000A1F583E08A838AE289834FB7F894DE01FD
:1044D000139620E03EE051E2E32FF0E050935700C6
:1044E000E49120FF03C0E295EF703F5FEF708E2FE5
:1044F00090E0EA30C0F0C7968D939D932F5F2431F2
:1045000059F74FBF8091E800877F8093E8006AE207
:1045100070E0CE0101960E94E01E8091E8008B774A
:104520008093E80057C0C096E7CF6091C0027091B9
:10453000C102AE014F5F5F4F0E94201EBC01892B5C
:1045400009F448C09091E800977F9093E800898132
:104550009A810E943E1FE1CF8038E1F58091E8000A
:10456000877F8093E8008091B7028093F10045CF68
:10457000811130C09091BE02923060F58091E800C8
:10458000877F8093E8009093B7020E94D11F8091AB
:10459000B702882311F084E005C08091E30087FD15
:1045A000FACF81E08093BB020E940A1D13C0809164
:1045B000BE02813079F481E0933009F080E080938D
:1045C000B9021092E9008091E800877F8093E800AB
:1045D0000E94D11F8091E80083FF0AC08091E8000B
:1045E000877F8093E8008091EB0080628093EB00EE
:1045F000AA96E3E00C9471230895CF938091BB02B7
:104600008823A1F0C091E900CF709091EC00892F30
:10461000817090FD80E8C82B1092E9008091E8003D
:1046200083FD0E94B521CF70C093E900CF9108951A
:10463000AA1BBB1B51E107C0AA1FBB1FA617B707C8
:1046400010F0A61BB70B881F991F5A95A9F78095E4
:104650009095BC01CD01089597FB072E16F40094A8
:1046600007D077FD09D00E94182307FC05D03EF43F
:10467000909581959F4F0895709561957F4F08950E
:10468000EE0FFF1F0590F491E02D09942F923F92B9
:104690004F925F926F927F928F929F92AF92BF9252
:1046A000CF92DF92EF92FF920F931F93CF93DF93FE
:1046B000CDB7DEB7CA1BDB0B0FB6F894DEBF0FBE5B
:1046C000CDBF09942A88398848885F846E847D84A8
:1046D0008C849B84AA84B984C884DF80EE80FD80AA
:1046E0000C811B81AA81B981CE0FD11D0FB6F89420
:1046F000DEBF0FBECDBFED010895FB01DC0104C09C
:104700008D910190801921F441505040C8F7881BC9
:10471000990B0895FB01DC0102C001900D924150FC
:104720005040D8F70895F999FECF92BD81BDF89A0F
:10473000992780B50895A6E1B0E044E050E00C94DC
:10474000CD23A8E1B0E042E050E00C94CD23262F29
:10475000F999FECF92BD81BDF89A019700B4021677
:1047600039F01FBA20BD0FB6F894FA9AF99A0FBE25
:1047700008950396272F0E94A8230E94A723252F80
:104780000E94A823242F0C94A8230196272F0E946F
:10479000A8230C94A723DC01CB01FC01F999FECFDF
:1047A00006C0F2BDE1BDF89A319600B40D924150B9
:1047B0005040B8F70895F894FFCF65056505960554
:1047C000960523063F06C505C5054A06BB06CA066B
:1047D000CA06D9210122EA220122EA2234225522E4
:0647E000EA22AC22B8221F
:1047E6000C022808503C07100007000707481C6DFC
:1047F6001C4C1CDD1CD81C4B1C01E200E900EA0025
:10480600B500B600B700CD008301CC008A01920145
:1048160094012102230224022502260227022A02EB
:10482600B300B4006F007000818283E200E900EA01
:1048360000B500B600B700CD008301CC008A019216
:104846000194012102230224022502260227022ABC
:1048560002B300B4006F00700081828331333236B8
:0E4866003534C69766949091F4F5F6F700018C
:00000001FF
