:100000000C944E020C9495020C9495020C9495025B
:100010000C9495020C9495020C9495020C94950204
:100020000C9495020C9495020C9464280C94382935
:100030000C94C0220C9495020C9495020C94950299
:100040000C9495020C9495020C9495020C949502D4
:100050000C9495020C9417230C9495020C94950221
:100060000C9495020C9495020C9495020C949502B4
:100070000C9495020C9495020C9495020C949502A4
:100080000C9495020C9495020C9495020C94950294
:100090000C9495020C9495020C9495020C94950284
:1000A0000C9495020C9495020C94950207634236C9
:1000B000B79BD8A71A39685618AEBAAB558C1D3CF9
:1000C000B7CC5763BD6DEDFD753EF6177231BF00BD
:1000D0000000803F05A84CCDB2D44EB93836A902F5
:1000E0000C50B9918688083CA6AAAA2ABE00000036
:1000F000803F303030003030005F006000610053DE
:10010000005C005D005E00570059005A005B00284B
:10011000006200295D6342360050004F000000007D
:1001200000000000000000000000000000000000CF
:1001300000000000000000000000000000000000BF
:1001400000C35CC65CC85CCA5CC45CC75CC95CCBF1
:100150005CC55CCC5C000000000000CD5C000000D1
:10016000000000000000000000000000002A2B2812
:10017000000000000000000000000000000000007F
:1001800029000000002C1E3420212224342627259B
:100190002E362D3738271E1F2021222324252633D3
:1001A00033362E37381F0405060708090A0B0C0DD5
:1001B0000E0F101112131415161718191A1B1C1DE7
:1001C0002F3130232D350405060708090A0B0C0DC5
:1001D0000E0F101112131415161718191A1B1C1DC7
:1001E0002F3130354C0000000000000000000000FE
:1001F00000000000000000000000000000000000FF
:100200000000000000000000007E0F00D4FFFFFF90
:10021000C7000000780004643214643214783C1E75
:100220001E140A0500010101010101010101020280
:100230000202020202020203030303030303030494
:10024000040404040404050505050506060606065F
:10025000070707070708080808090909090A0A0A19
:100260000B0B0B0C0C0C0D0D0D0E0E0E0F0F0F10BB
:100270001011111112121313141415151616171745
:10028000181819191A1A1B1B1C1D1D1E1E1F2020B1
:10029000212222232424252626272829292A2B2CFB
:1002A0002D2D2E2F30313232333435363738393A1E
:1002B0003B3C3D3E3F404142434445464748494A16
:1002C0004C4D4E4F50515354555658595A5B5D5EE4
:1002D0005F616264656668696B6C6D6F707273757F
:1002E00077787A7B7D7E8082838587888A8C8E8FE3
:1002F00091939596989A9C9EA0A2A3A5A7A9ABAD11
:10030000AFB1B3B5B7BABCBEC0C2C4C6C9CBCDCFFE
:10031000D1D4D6D8DBDDDFE2E4E7E9EBEEF0F3F5AC
:10032000F8FAFDFF1A034B006100730075006D00C1
:10033000690067006100730061006E0065000000E5
:100340000C036500330077003200710000000403E5
:10035000090409025B00030100A0FA09040000017E
:10036000030101000921110100012240000705815C
:100370000308000A0904010002030000000921111A
:100380000100012222000705820320000107050366
:1003900003200001090402000103000000092111EB
:1003A000010001227B000705840320000A120110CE
:1003B0000100000008091254460100010200010674
:1003C00060FF0961A1010962150026FF00952075F3
:1003D0000881020963150026FF0095207508910227
:1003E000C005010902A10185020901A10005091941
:1003F00001290815002501950875018102050109EB
:100400003009311581257F95027508810609381557
:1004100081257F950175088106050C0A3802158132
:10042000257F950175088106C0C005010980A101DD
:10043000850319012AB700150126B700950175102B
:100440008100C0050C0901A101850419012AA0023F
:10045000150126A002950175108100C0050109064D
:10046000A101050719E029E7150025019508750187
:1004700081029501750881010507190029FF150002
:1004800026FF0095067508810005081901290595C4
:100490000575019102950175039101C011241FBEDC
:1004A000CFEFDAE0DEBFCDBF04B603FE27C08091F8
:1004B000C2029091C302A091C402B091C5028730DC
:1004C000904BA740B04BD1F41092C2021092C302DD
:1004D0001092C4021092C50214BE84B7877F84BFF5
:1004E0000FB6F894A89580916000886180936000B1
:1004F000109260000FBEE0E0F8E3099511E0A0E083
:10050000B1E0ECE1FEE502C005900D92AE3CB10712
:10051000D9F722E0AEECB1E001C01D92A23CB207D7
:10052000E1F70E9422250C94BD2E0C940000893224
:100530002DE5920729F08A329D4559F081E0089512
:10054000FB0182818823D1F386EF90E00E94810530
:10055000F5CFFB018281882389F382EF90E0F6CF0B
:1005600008958091080190910901892B39F08091BB
:1005700006019091050189238F3F39F58091030190
:1005800090910401892BD1F180910101909100019A
:1005900089238F3FA9F40895109202010E94F0224E
:1005A0008160782F909304018093030140910001B2
:1005B0005091010160910201809104010C94861711
:1005C000809102018111E8CF08958091070188236D
:1005D000A9F2109207010E94F0228160782F909377
:1005E0000901809308014091050150910601609135
:1005F0000701809109010E948617C0CF08950895D0
:10060000811117C081E06623B1F0809307010E9439
:10061000F0228160782F9093090180930801409126
:1006200005015091060160910701809109010E9426
:10063000861781E00895809302010E94F022816074
:10064000782F909304018093030140910001509111
:1006500001016091020180910401E9CF81E00895D8
:100660000C94970208950C9432031F93CF93DF9359
:1006700000D000D00F92CDB7DEB749835A836B8389
:100680003091090289819A8131111DC06623B9F028
:100690002223A9F00E942720182F682F89819A8190
:1006A0000E94D31F69817A81812F0F900F900F9044
:1006B0000F900F90DF91CF911F910C9430130E94F7
:1006C000FF1F182FEFCF0E94272069817A81EDCF7D
:1006D000FC01262F408151816281738184810C94B9
:1006E0003503CF93DF93EC0160E00E946803BE0105
:1006F000DF91CF910C9433038F929F92AF92BF9270
:10070000CF92DF92EF92FF920F931F936B017C01C8
:1007100081E090E0A0E0B0E04C015D0104C0880CF5
:10072000991CAA1CBB1C4A95D2F7B501A4014C0127
:100730005D0104C0880C991CAA1CBB1C2A95D2F729
:10074000482959296A297B2904C0880F991FAA1FA3
:10075000BB1F0A95D2F78A019B010C211D212E2176
:100760003F21041715072607370789F48C299D298F
:10077000AE29BF29BC01CD011F910F91FF90EF90D1
:10078000DF90CF90BF90AF909F908F90089580950D
:100790009095A095B0958C219D21AE21BF21EACFE7
:1007A0000F93382F262F6091510270915202809141
:1007B000530290915402042F432F0E947C030F9107
:1007C0000C94111F0E9453230E947321811102C0B7
:1007D0000E9417220C948D070C948F0708950E9495
:1007E0003D1B0E94EE032FEF84E39CE021508040EC
:1007F0009040E1F700C000000C943B230F931F933F
:10080000CF93DF93EC0161E00E9468038C01BE018D
:100810000E943611882389F1BE01C8010E9430036D
:10082000882359F1BE01C8010E946714882329F169
:10083000BE01C8010E94B9148823F9F0BE01C801A5
:100840000E94DC158823C9F0BE01C8010E94F00F88
:10085000882399F08A81882339F001158CE51807DF
:1008600051F00F3D1C4579F0CE01DF91CF911F91E2
:100870000F910C942E030E94EF0380E0DF91CF9143
:100880001F910F9108950E941722F7CFDF92EF92E8
:10089000FF920F931F93CF93DF93E82FF0E0EB5974
:1008A000FE4FD490282F26952695269530E0F90105
:1008B000EB5FFD4F0491877010E0082E02C0159584
:1008C00007950A94E2F701701127F901EB50FE4FEA
:1008D000E490F12C082E02C0F594E7940A94E2F714
:1008E00091E0E922FF24F901EB51FE4FC491D0E0E1
:1008F00002C0D595C7958A95E2F7C170DD2701152D
:10090000110519F081EE0E94BD17E114F10419F0F0
:1009100086EE0E94BD178D2D0E94BC18EF2819F09D
:1009200086EE0E944F18012B19F081EE0E944F189D
:10093000CD2B51F08CE2DF91CF911F910F91FF9061
:10094000EF90DF900C94BC18DF91CF911F910F9125
:10095000FF90EF90DF900895EF92FF920F931F9317
:10096000CF93DF93EC01162F0AE08881882309F4E6
:1009700054C0813009F04EC08981813099F47E01E4
:1009800022E0E20EF11C8A810E94BC18E701219648
:10099000812F815050F3EFE9FFE03197F1F700C06C
:1009A0000000F7CF823041F47E0182E0E80EF11CB6
:1009B0008A810E94BD17EACF833041F47E01E2E0D4
:1009C000EE0EF11C8A810E944F18E0CF843011F0A6
:1009D0002196DDCF2A81229690E080E0AE014F5F24
:1009E0005F4F2053330B2A30310548F0019778F2DE
:1009F000EFE9FFE03197F1F700C00000F7CF089F63
:100A0000B001099F700D1124C901860F971F29811C
:100A1000EA01E4CF0E944604BACFDF91CF911F9143
:100A20000F91FF90EF90089560E00C94AC04EF926A
:100A3000FF920F931F93CF93DF938C01F62E8AE0E2
:100A4000E82EF8018491882309F454C0813009F01C
:100A50004DC0E8012196FE018491813091F42196E8
:100A6000FE0184910E94BC188E010F5F1F4F8F2DD5
:100A7000815038F3EFE9FFE03197F1F700C0000053
:100A8000F7CF823039F4E8012296FE0184910E946A
:100A9000BD17EACF833039F4E8012296FE01849134
:100AA0000E944F18E1CF8430F9F6E8012296FE014A
:100AB000249190E080E0FE0131962053330B2A30E0
:100AC000310548F0019780F2EFE9FFE03197F1F747
:100AD00000C00000F7CFE89EA001E99E500D112450
:100AE000C901840F951F2491EF01E5CF0E944604B0
:100AF000E801BACFDF91CF911F910F91FF90EF9056
:100B0000089560E00C9417050C94FF0281E00895AD
:100B10000C948605CF93C82F0E9484058C2FCF910B
:100B20000C94880590E080E008950895FC01EE0F94
:100B3000FF1FEB5EFD4F859194910895CF93DF9356
:100B40000E9430130E94B306EC01811520E5920744
:100B500008F042C0811530E4930708F0BDC0883E1C
:100B6000910528F5803E910508F09DC0883A9105D1
:100B700088F4853A910508F08FC08130910509F419
:100B800092C0009709F48FC0049708F08CC0D0E0A1
:100B9000C0E089C08F3B910508F489C0805C910951
:100BA000C03CD105A0F30E949605EC017CC08115E4
:100BB000904250F4C11581E0D80708F074C0CD3ED2
:100BC000D10528F3D0656FC0C11590E3D90708F0AF
:100BD00079C0CE019F70E7CF811525E5920758F5C2
:100BE000811534E5930708F0A6C0811542E5940706
:100BF00050F4C11581E5D80708F471C0DC2FCC276B
:100C0000C16FD06A50C0982F969596959E0123701B
:100C10003327C115D34508F07FC0C1E0D0E002C042
:100C2000CC0FDD1F2A95E2F720E2929FC00111242C
:100C3000C82BD92B6FC0C11589E5D807A8F4C115F9
:100C400098E5D90708F07CC0C11526E5D20708F061
:100C50009ECF8C2F0E944A07C82FD0E0DC2FCC27D4
:100C6000CC27DF71D0621FC0C1153AE5D30708F465
:100C70006CC0CE0190568115904208F088CF8D2F20
:100C80008F710E944A0790E0982F882788279F71CC
:100C90009C012C2BE901E6CFC55AD0E0CD5ADE4F9E
:100CA000C881D0E0D064CE01DF91CF910895C85AB9
:100CB000D0E0CC0FDD1FCB5DDE4F0990D881C02D79
:100CC000D464F1CFCE019927D3FF03C0EC01D86CD7
:100CD000EACFEC01D06CE7CFDF70D06AE4CFCE0171
:100CE000E4E096958795EA95E1F783702C2F269599
:100CF0002695237090E2299F90011124382B8C2F88
:100D00008370C1E0D0E002C0CC0FDD1F8A95E2F70E
:100D1000C22BD32BDC68C7CFC1E0D0E002C0CC0F20
:100D2000DD1F2A95E2F730E2939FC0011124C82B02
:100D3000D92BDA68B8CFD82FCC27C46FD06AB3CFFD
:100D4000DC2FCC27C06FD06AAECF8C2F8F700E9463
:100D50004A0734E0D695C7953A95E1F7CF709C2FB6
:100D6000EC01D069A0CF82389105B1F1B0F48133A4
:100D7000910509F475C048F48932910509F469C0F8
:100D80008A32910509F473C008958533910509F4F9
:100D900059C08933910501F10895833E9105A9F168
:100DA00038F4803E9105F9F0823E910549F10895AD
:100DB000863E9105A9F1873E9105C9F1843E9105D2
:100DC00019F52091B40221FF1FC08091B30284FD68
:100DD00014C087EE90E008952091B3022370A1F033
:100DE00080EE90E008952091B30220FD47C030913D
:100DF000B40230FF09C024FF44C090E080E004C08A
:100E00002091B30222FDF7CF08952091B30222FD75
:100E10003BC03091B40230FDE3CF24FFF5CFEDCFDE
:100E20002091B30223FFF0CF24FDE7CFD2CF209152
:100E3000B30223FD2CC03091B40231FFEECF84EE1B
:100E400090E008952091B30225FFDECF89E290E083
:100E500008952091B30225FFD7CF85E390E0089550
:100E60002091B30226FFD0CF8AE290E0089520912E
:100E7000B30226FFC9CF81E390E0089589E390E0B3
:100E8000089583EE90E0089582EE90E0089586EE56
:100E900090E008959091B30292FF06C0282F287128
:100EA0002830F9F4877F846093FF06C0282F2871CB
:100EB0002831F1F4877E84612091B40220FF06C0BE
:100EC000382F38713830D9F4877F816021FF06C010
:100ED000282F28712831D1F4877E816194FD877E87
:100EE0000895282F24712430F9F68B7F8860DCCF99
:100EF000282F2471243101F78B7E8861DDCF382FB4
:100F00003171313019F78E7F8860E0CF282F217141
:100F1000213121F78E7E8861E1CF0C94B0020C94D0
:100F2000B10294E0899FF0011124EA58FD4F6081DD
:100F300071818281938108950895A6E5B1E041E031
:100F400050E08D918F3F91F0E82FE295EF70F0E047
:100F500061A18F709A0101C0220F8A95EAF7922F42
:100F60009095962391A382A1822B82A381E0A8363B
:100F7000B80739F71092720210927302109274023D
:100F800010927502109276021092770210927802F7
:100F90001092790281E00E9431080C94E203CF9212
:100FA000DF92EF92FF92CF93DF93C6E5D1E0F0E0BE
:100FB000E0E040E050E0BA01C12CD12C7601C394AE
:100FC00029912F3FE9F0A22FA295AF70B0E0909643
:100FD0008C9190E02F7002C0959587952A95E2F745
:100FE00080FD3BC0D701C6010E2E04C0880F991F9B
:100FF000AA1FBB1F0A94D2F7482B592B6A2B7B2BB5
:101000003196E231F105E1F680917202909173021E
:10101000A0917402B0917502C0E084179507A607ED
:10102000B70749F0409372025093730260937402C1
:1010300070937502C1E02C2F41E066E772E082E711
:1010400092E00E9432080E94EC038C2FDF91CF9136
:10105000FF90EF90DF90CF90089580E090E0DC016A
:10106000CBCF0895FF920F931F93CF93DF93F82E6A
:10107000D92F8B01C42F222349F081E08093D20124
:101080000E94F0229093D1018093D0018091D201EF
:10109000882399F08091D0019091D1010E9408237A
:1010A000069758F0EF2DFD2FD80190E080E0D0E0BA
:1010B0008C179D0744F01092D201DF91CF911F91C0
:1010C0000F91FF90089501911191219131910D930C
:1010D0001D932D933D930196EBCF8091D90180FF15
:1010E00012C060910F0185E0689FB00111247595D1
:1010F00067957595679560387105A8F56115710557
:10110000A1F1862F089581FF09C060910F0185E04C
:10111000689FB001112475956795EDCF60910F011F
:1011200082FD0AC08091D8018823D1F090910E01F0
:1011300060910F01891728F085E0689FB0011124A4
:10114000DACF869FB001112485E0869F9001879FAA
:10115000300D1124692F70E0C9010E94472ECBCFBA
:1011600065E070E0CECF8FE7089581E0089580912B
:10117000D90180FF0CC060910B0170E075956795F7
:10118000759567956115710549F1862F089581FF61
:1011900006C060910B0170E075956795F3CF609183
:1011A0000B0182FD0BC09091D7019923A1F06091B2
:1011B0000A0180910B01961738F0682F70E06038B3
:1011C000710500F38FE70895899FC001112470E035
:1011D0000E94472EF4CF61E070E0D7CF81E0089500
:1011E0008D3E31F40E946D0881958093DD01089554
:1011F0008E3E19F40E946D08F8CF8F3E31F40E94A4
:101200006D0881958093DC010895803F19F40E9458
:101210006D08F8CF893F29F40E94B7088093DE015A
:1012200008958A3F21F40E94B7088195F7CF8B3F3C
:1012300031F40E94B70881958093DF0108958C3FB7
:1012400019F40E94B708F8CF9FE0980F983070F417
:10125000815F990B21E030E001C0220F8A95EAF707
:101260008091DB01822B8093DB0108958D3F31F467
:101270008091D90181608093D90108958E3F21F436
:101280008091D9018260F7CF8F3FB9F78091D90162
:101290008460F1CF4091DC018D3E59F48091DD01F5
:1012A00087FF0DC01092DD0141110BC01092D801D3
:1012B00008C08E3E81F48091DD0118169CF3442312
:1012C00081F08091DE019091DF01892B09F05AC0F5
:1012D0001092D70108958F3E49F447FFF0CF109246
:1012E000DC018091DD018111ECCFE0CF803F19F46A
:1012F0001416ACF3E4CF9091DE01893F29F419165E
:10130000F4F61092DE01DBCF8A3F19F497FFD7CFB6
:10131000F8CF9091DF018B3F29F497FFD0CF109247
:10132000DF01CDCF8C3F19F41916CCF3C8CF9FE065
:10133000980F983090F4815F990B21E030E0B9016B
:1013400002C0660F771F8A95E2F7CB0180959091D6
:10135000DB0189238093DB01B2CF8D3F31F4809193
:10136000D9018E7F8093D901AACF8E3F21F480913D
:10137000D9018D7FF7CF8F3F09F0A1CF8091D9019F
:101380008B7FF0CF08950E94F0229C019091DC01A8
:101390008091DD01982B21F03093D6012093D50167
:1013A0009091DE018091DF01982B21F03093D401E0
:1013B0002093D3018AED91E00C942216EF92FF92D4
:1013C0000F931F93CF93DF9300D000D000D0CDB701
:1013D000DEB786E0EAEDF1E0DE01119601900D92B4
:1013E0008A95E1F7E090DC01F090DD010091DE01EB
:1013F0001091DF011092DC011092DD011092DE01EC
:101400001092DF018E2D8F2991F08091D50190915E
:10141000D6010E940823AC019091D801992309F4C8
:101420003FC0809110018417150608F447C0802F33
:10143000812B91F08091D3019091D4010E940823D7
:10144000AC019091D701992309F477C080910C01E8
:101450008417150608F47FC08091DC019091DD01AE
:10146000892B9091DE01892B9091DF01892B11F05E
:101470000E94C30986E0FE013196AAEDB1E0019019
:101480000D928A95E1F726960FB6F894DEBF0FBE4F
:10149000CDBFDF91CF911F910F91FF90EF900895F5
:1014A000209111018AE0289F90011124241735070B
:1014B00008F0BDCF9F5F9093D80102C09F3FD1F746
:1014C000EE2059F00E946D089FEF1E140CF491E07D
:1014D000899F802D11248093DC01FF2059F00E9408
:1014E0006D089FEF1F140CF491E0899F802D11244B
:1014F0008093DD013091DC01332309F498CF2091F2
:10150000DD01222309F493CF45EB3403C0011124FC
:10151000992359F09093DC0145EB240390011124A9
:10152000332339F03093DD0182CF81E08093DC01F9
:10153000F3CF81E08093DD017ACF20910D018AE025
:10154000289F900111242417350708F085CF9F5F4D
:101550009093D70102C09F3FD1F7002359F00E941A
:10156000B7089FEF10160CF491E0899F802D11248D
:101570008093DE01112359F00E94B7089FEF1116E6
:101580000CF491E0899F802D11248093DF0130912C
:10159000DE01332309F460CF2091DF01222309F417
:1015A0005BCF45EB3403C0011124992359F090938C
:1015B000DE0145EB240390011124332339F03093ED
:1015C000DF014ACF81E08093DE01F3CF81E0809399
:1015D000DF0142CF86E0EAEDF1E0DF011D928A955E
:1015E000E9F71092D8011092D7011092D90108950D
:1015F000EF92FF920F931F93CF93DF93EB01E82FAE
:10160000D11110C0442321F0F0E0EC5DFD4FE491D6
:101610006E2F7E2F8E2FDF91CF911F910F91FF9014
:10162000EF9008950D2F10E0282F30E0442329F08B
:101630002C5D3D4FF901249130E0F6E0CF9FC001D1
:101640001124EFEFF0E0BF010E94332EAB018C2F8D
:1016500090E0880F991FA5E5A49FB001A59F700D8C
:101660001124861B970B982F990F980FBF01601BB1
:10167000710B629FD001639FB00D729FB00D11245A
:101680008B2F9D9FB0011124672F7727EF01C61B79
:10169000D70BBE01629FE001639FD00D729FD00DFA
:1016A00011247F01E91AF108E09EB001E19E700D5E
:1016B000F09E700D1124672F7727E61BF70BE29F32
:1016C0008001E39F100DF29F100D1124E12F722F66
:1016D0004230510599F048F44115510569F0413007
:1016E000510581F0EB2F8D2F07C04430510569F073
:1016F00080F046305105B1F76E2F8DCFE22F7B2F52
:10170000812FFACFE22F7D2FF7CFEB2F822F712F72
:10171000F3CF7B2F822FED2FEFCF41E00C94F80A0F
:1017200008950C948D0BCF93DF93762FE901682FEA
:10173000842F0E94910B798368838A83DF91CF91F4
:101740000895473908F046E90C94930B80917A028A
:10175000982F9E7F61F48170826080937A028091DD
:101760007D02873918F086E980937D0208958C32D6
:10177000B0F381708A62F1CF88E090E00C947D2E06
:10178000CF92DF92EF92FF926B017C010E94A60B39
:10179000B701A60188E090E0FF90EF90DF90CF9036
:1017A0000C949B2E60917A0270917B0280917C0256
:1017B00090917D020C94C00BEAE7F2E083E0808315
:1017C00011828FEF828386E9838314826081718125
:1017D000828193810C94C00B80917A0280FF02C0B9
:1017E0008695089580E0089590917E02933018F4D4
:1017F0009F5F90937E02882351F060917A027091EE
:101800007B0280917C0290917D020C94C00B089524
:1018100081E00C94F40B90917E02992319F0915081
:1018200090937E02882351F060917A0270917B023E
:1018300080917C0290917D020C94C00B089581E010
:101840000C940B0C80917E02089580937E02662397
:1018500051F060917A0270917B0280917C029091AC
:101860007D020C94C00B089560E00C94250C8091CF
:101870007B02089580917C02089580917D020895F5
:1018800070E00C9458106091130180917A0280FFEF
:101890000AC08091120123E0829FC0011124815867
:1018A0009D4F0C94400C809114019091150123E000
:1018B000829FF0011124E158FD4F891750F71182E2
:1018C000108212828F5F3396F8CF90917A0290FF48
:1018D00014C0909114012091150133E0939FF00101
:1018E0001124E158FD4F921710F00C94430C8183A2
:1018F000608342839F5F3396F6CF0895CF93DF9343
:1019000000D00F92CDB7DEB790917A0290FF0AC057
:101910009E012F5F3F4F0E94A10B4B8169818A81FD
:101920000E94650C0F900F900F90DF91CF9108955A
:10193000CF93DF93EC016C8170E090E080E00E9437
:10194000342C20E030E04FE753E40E94572B2BED7E
:101950003FE049E450E40E945D2D0E94CA2D0E94A0
:10196000D12B2BE43AE34EE25FE30E94EA2A20EF18
:101970003BEF48ED52E40E945D2D0E94032C462F60
:10198000EAE7F2E0628181810E947E0C8C818F5FA8
:101990008C83DF91CF910895CF93DF93EC01EAE739
:1019A000F2E0438162818C810E947E0C8C818F5F8A
:1019B0008C83DF91CF910895EF92FF920F931F9345
:1019C000CF93DF9300D00F92CDB7DEB7082FF62E5E
:1019D000142FE22E80917A0280FF28C0E82FE6952E
:1019E000F0E0E859FE4F90819093E9018E7F8230BC
:1019F00039F59E012F5F3F4F802F0E94A10B4B8135
:101A000069818A810E94650C00937B02F0927C02BE
:101A100010937D02EE2051F060917A0270917B026A
:101A200080917C0290917D020E94C00B0F900F90DC
:101A30000F90DF91CF911F910F91FF90EF9008953C
:101A4000923019F410917D02DFCF963019F4009195
:101A50007B02DACF9930C1F6FACFEAE7F2E0918162
:101A6000282F4381628188E0890F0C94DC0C81E08F
:101A70000C942D0DEAE7F2E09181282F43816281D9
:101A800088EF890F0C94DC0C81E00C943A0DEAE7A6
:101A9000F2E0628128E0620F08F46FEF282F4381A3
:101AA00081810C94DC0C81E00C94470DEAE7F2E0B4
:101AB000628128E0621B08F460E0282F4381818165
:101AC0000C94DC0C81E00C94560DEAE7F2E04381C3
:101AD00028E0420F08F44FEF282F628181810C9497
:101AE000DC0C81E00C94650DEAE7F2E0438128E02C
:101AF000421B08F440E0282F628181810C94DC0CA9
:101B000081E00C94740D20E00C94DC0C0F931F9377
:101B1000CF93DF9300D00F92CDB7DEB78C018091C9
:101B2000E00181110AC09E012F5F3F4F46E96FEF30
:101B30000E94A10B8A818093E001F80164816130E9
:101B400069F08091E00140E0662361F040E062309E
:101B500011F44091E00180E060E004C06091E00198
:101B600040E080E00E94650CF801848190E00196DD
:101B700063E070E00E94472E84830F900F900F90D7
:101B8000DF91CF911F910F910895EF92FF921F93D4
:101B9000CF93DF93EC0110E0EE24EA94F12C6091F6
:101BA0001601161770F00E94430C9A818C8190FFE9
:101BB00027C08F5F8C83DF91CF911F91FF90EF90B3
:101BC000089520911401422F410F5527551FCA0136
:101BD0009A01220F331F280F391F21583D4F70E003
:101BE000C7010E94472E962F8C8140917D02609103
:101BF0007C02199F800D11240E94A10B1F5FCFCF83
:101C00008150D8CFBF92CF92DF92EF92FF920F9385
:101C10001F93CF93DF93FC0182810FEF80FF01E0E0
:101C200010E0809116011817C0F00E94430C8091BB
:101C3000E101013009F052C0811102C0809116010A
:101C400081508093E101DF91CF911F910F91FF901F
:101C5000EF90DF90CF90BF900895C0911401C12EF6
:101C6000D12CCC0DDD2DD11DCE01880F991FC80FB1
:101C7000D91FC158DD4F198218821A8230E1E32E34
:101C8000F12CB12C8091E1018B0D81310CF18F7021
:101C9000082E000C990BC816D90699F480917D0284
:101CA0008E9DA0018F9D500D112484E05595479580
:101CB0008A95E1F79E0160917C0280917B020E94EF
:101CC000A10BB00EF1E0EF1AF108E1F61F5FA9CF0A
:101CD00087FFDECF90911601890FDACF90E0019651
:101CE0006091160170E00E94472EABCFEAE7F2E068
:101CF00080818E7F808360817181828193810E9447
:101D0000C00B1092EA012FEF80E792E02150804053
:101D10009040E1F700C000000C94430CEAE7F2E0C9
:101D200080818E7F80831092EA012FEF80E792E01E
:101D3000215080409040E1F700C000000C94430C1B
:101D400060917A02669570E041E050E087E191E0B1
:101D50000E94682E892B19F481E08093EA010E9489
:101D6000F0229093E3018093E201089590917A022A
:101D700090FF35C09170811128C0926090937A02D3
:101D8000662351F060917A0270917B0280917C020F
:101D900090917D020E94C00B60917A02669570E07E
:101DA00041E050E087E191E00E94682E892BA1F08C
:101DB0001092EA0181E08093E50140917D026091FB
:101DC0007C0280917B020C94830D863110F09A6224
:101DD000D5CF880F982BD2CF0E94A00EEBCF0895BD
:101DE000682F90917A02969581E0890F863108F0EC
:101DF00081E00C94B60E81E00C94F00E682F909167
:101E00007A0296958FEF890F09F485E10C94B60E4E
:101E100081E00C94FE0E61E00C94B60EEAE7F2E06D
:101E200080818160808386950C940B0F80917A026B
:101E300080FD0C94760E0C940E0F60E00C94B60EA0
:101E40008091E80181112EC00E947321811104C08C
:101E50000E9417220E94DC0B0E94BC0B60937A0246
:101E600070937B0280937C0290937D026E7F61F47D
:101E70000E94DC0B0E94BC0B60937A0270937B0281
:101E800080937C0290937D020E94A60B1092EA013F
:101E900080917A0280FF03C086950E941D0F81E029
:101EA0008093E8010895EAE7F2E080818160808311
:101EB00086950C941D0F0F931F93CF93DF93809102
:101EC000EA01882309F46DC08091E901E0917A026A
:101ED000E695E81BE093E401823091F5F0E0E05EE6
:101EE000FD4FE491CE2FD0E008E91CE08091E501A0
:101EF000882361F01092E5010E94F0229093E301A3
:101F00008093E2011092E7011092E6010E94F02214
:101F1000E091E201F091E3018E1B9F0B8F3F9F4701
:101F200008F03FC0EC0FFD1FF093E301E093E201E6
:101F300082EE91E0F801DF91CF911F910F9109940A
:101F4000863049F4F0E0E35EFD4FE491CE2FD0E01F
:101F50000CEC1CE0CBCF893051F4E695F0E0E65E66
:101F6000FD4FE491CE2FD0E005EC1DE0BFCF8F30C8
:101F700051F4E695F0E0E95EFD4FE491CE2FD0E01C
:101F800002E01EE0B3CFC0EDD7E000E91BE08531F1
:101F900009F0ACCFE5E1F2E0C591D49106E81DE08F
:101FA000A5CFDF91CF911F910F910895FA01811173
:101FB00001C0FB010994CF93DF93C82FD62F0E9455
:101FC000EC0B8C1740F00E94EC0B8D1720F4DF9186
:101FD000CF910C94FB0E8C2FDF91CF910C940B0FB3
:101FE0000F931F93CF938C01FB01C281CC2309F483
:101FF0005DC00E94BC208272F801E35CFC45E431C4
:10200000F10538F4E154F14D0C945B2E0E94160F4B
:10201000C0E08C2FCF911F910F91089548E05FE0B1
:102020006BEF7EE00E94D60FF3CF4BEF5EE068E0EF
:102030007FE0F8CF44E45DE067E37DE0F3CF47E382
:102040005DE064E47DE0EECF42E65DE063E57DE0E7
:10205000E9CF43E55DE062E67DE0E4CF40E85DE0A6
:1020600061E77DE0DFCF41E75DE060E87DE0DACF6A
:102070004FE15CE068E07CE0D5CF48E05CE06FE1F8
:102080007CE0D0CF81E00E940B0FC2CF65E082E000
:102090000E94DB0FBDCF68E086E0FACF6EE089E0FA
:1020A000F7CF64E18FE0F4CF85E1EDCFC1E0B1CFB0
:1020B000529A4BB14B7F5BB15460EFB7F8949B01E0
:1020C000220F331F260F371F280F391F28173907F4
:1020D00041F4EFBF8FE594E00197F1F700C00000F5
:1020E0000895DC016D91CD0178E05BB9000000C07E
:1020F00067FF4BB9660F000000C000C000C04BB9BD
:1021000000C07A9591F7E2CF0C94000353985B9A44
:1021100052985A9A89B183FB882780F94A9905C059
:1021200090E0892B8093ED01089592E0FACFE09141
:10213000ED01EE0FEE0FE093ED0149B143FB88276F
:1021400080F949B142FB222720F942FF02C022E078
:1021500030E0822BE82BE093ED01EF70F0E0E258E5
:10216000FE4F80819091EC01890F8093EC0120E07B
:10217000843054F08091EB018F5F8093EB0160E03D
:1021800080E00E94841021E08091EC018D3F54F4A6
:102190008091EB0181508093EB0161E080E00E942F
:1021A000841021E08091EC01082E000C990B64E072
:1021B00070E00E94472E8093EC01822F089582E206
:1021C00090E00E94752E813289F483E290E00E94B3
:1021D000752E893059F484E290E00E94752E91E0CA
:1021E000883009F090E0892F8170089580E0FCCF5D
:1021F000CF93C82F6FEF811161E282E290E00E94DD
:10220000892E6FEFC11169E083E290E00E94892E70
:102210006FEFC11168E084E290E0CF910C94892EB9
:1022200080E00E94F8100C946D21089585E290E002
:102230000E94752E682F70E090E080E0089585E29E
:1022400090E00C94892E0E9415110E94DF108111DC
:102250000CC060E070E0CB010E941F110E94BB1215
:102260000E94941381E00C94F8100895CF93FB0121
:10227000C281CC2309F19C0122513F452031310517
:1022800020F582510E94A413C0E08C2FCF910895B5
:1022900081E00E94371F43E062E081E00E94D003AA
:1022A000F3CF81E00E94581F43E062E081E00E948A
:1022B000D003EBCF82E0F6CF8031FFE59F0789F3B3
:1022C00081319F45B9F3C1E0E0CF8031EFE59E0752
:1022D000F9F281319F45C9F682E0DBCF2FEFFC0197
:1022E00020830895CF93DF93EC0188818138A9F092
:1022F00028F4803871F0DF91CF910895823881F011
:102300008338C9F70E94370C89830E943A0C8A836C
:10231000F2CF0E943D0C8983EECF0E94EC0BFBCFE5
:102320000E94220CF8CFCF93DF93EC018881813893
:10233000E1F028F4803869F0DF91CF910895823878
:1023400011F18338C9F70E943D0C482F6A818981B9
:1023500008C0D9810E943A0CC82F0E94370C4D2F1B
:102360006C2FDF91CF910C94830D89810E941D0FFA
:102370008981811104C0DF91CF910C948E0EDF9181
:10238000CF910C94530F8981DF91CF910C94340C31
:102390001F93CF93DF93EC01162FDC01ED91CD015C
:1023A000E150E33108F0A5C0F0E0ED52F14D0C949E
:1023B0005B2E198289E08A83612FCE01DF91CF9154
:1023C0001F910C9417248981823069F0833071F059
:1023D0008130B1F40E94FC220E94612E6A837B83CB
:1023E0008C839D83E9CF0E941611F6CF80E00E9476
:1023F00091078A837627672776277C836B83DCCFD8
:10240000612FCE010E946E11D7CF89818230C1F732
:102410006A817B818C819D810E94612E0E941F11A7
:10242000CBCF4B816A8189810E948D1298278927A1
:1024300098279D838C83C0CF2C813D813227232711
:1024400032274B816A8189810E94A612B5CF0E94F2
:10245000BB12B2CF0E949311AFCF0E947211ACCFCA
:102460000E94D20BA9CF0E943D138983A5CF0E9461
:102470003F139827892798279A8389839DCF6B815B
:1024800070E089819A81AE014C5F5F4F9827892760
:1024900098270E94421390CF6B8170E089819A81C6
:1024A000AE014C5F5F4F9827892798270E946913D8
:1024B00083CF0E94941380CF0E947C12D6CF6B8171
:1024C00070E089819A81AE014C5F5F4F9827892720
:1024D00098270E94E21270CF6B8170E089819A8107
:1024E000AE014C5F5F4F9827892798270E940713FA
:1024F00063CF8FEF888360CF83E0089594E250E04C
:10250000440F551F699F400D511D1124899F400D97
:10251000511D1124CA01869608950F931F93CF93DE
:10252000DF930E947E128C010E94752EC82FD0E08E
:10253000DC2FCC27C80101960E94752E9E01282B06
:10254000C901DF91CF911F910F9108950F931F93B0
:10255000CF93DF93122F032F0E947E12EC01602F86
:102560000E94892E612FCE010196DF91CF911F919C
:102570000F910C94892EEF92FF920F931F93CF939C
:10258000DF9389EFE82E80E0F82ED0E08701C0E0ED
:10259000F801259134914C2F60E08D2F0E94A612F6
:1025A0000E5F1F4FCF5FC23199F784E2E80EF11C36
:1025B000DF5FD33059F7DF91CF911F910F91FF90DB
:1025C000EF900895EF92FF920F931F93CF93DF93B5
:1025D000EC018A017C01E60EF71ECE018696CE152F
:1025E000DF0539F4DF91CF911F910F91FF90EF90AC
:1025F0000895CC36D10540F40E94752EF8018083F1
:102600000F5F1F4F2196E9CFF8011082F9CFCF92CB
:10261000DF92EF92FF920F931F93CF93DF937C0192
:102620006A018C01060F171FEC01CE018696C017B8
:10263000D10749F4DF91CF911F910F91FF90EF9057
:10264000DF90CF900895CC36D10540F4FE01EE190D
:10265000FF09EC0DFD1D60810E94892E2196E5CFBA
:10266000462F833038F4711105C0623118F460E0F0
:102670000C948D1290E080E0089580E108958EE63C
:1026800093E00895EF92FF920F931F93CF93DF9300
:10269000EC018A017C01E60EF71ECE018E569F4F9B
:1026A000CE15DF0539F4DF91CF911F910F91FF9087
:1026B000EF900895CE3623E0D20740F40E94752EA5
:1026C000F80180830F5F1F4F2196E7CFF80110823A
:1026D000F9CFCF92DF92EF92FF920F931F93CF9398
:1026E000DF937C016A018C01060F171FEC01CE01FC
:1026F0008E569F4FC017D10749F4DF91CF911F919C
:102700000F91FF90EF90DF90CF900895CE3623E0A9
:10271000D20740F4FE01EE19FF09EC0DFD1D6081AA
:102720000E94892E2196E3CFCF93DF93C2E9D0E0B8
:1027300060E0CE010E94892E2196C11584E0D80761
:10274000B9F7DF91CF910895DF92EF92FF920F9347
:102750001F93CF93DF9300D000D0CDB7DEB7F82E14
:102760008FE08F1540F08FEF93E00E94752E02E905
:1027700010E08823C1F00F900F900F900F90DF9121
:10278000CF911F910F91FF90EF90DF900895011569
:1027900084E0180781F3C8010E94752E811101C0E1
:1027A000FA940F5F1F4FF110F2CF19821A821B8229
:1027B0001C82DD24D39478018FEFE81AF80AC8014F
:1027C0000E94752E89831A828823A9F29FEF980FA1
:1027D000933078F48A83D9820E5F1F4FC7010E941D
:1027E000752E8B83882339F2CE0101960E94140541
:1027F000E2CF8701F9CF0F931F93CF93DF93C42FBD
:10280000D22FFC0182818823C9F04093F0010E94FD
:10281000F0229093EF018093EE0180E28C0F8830DC
:1028200008F050C0C77081E001C0880FCA95EAF770
:10283000DF91CF911F910F910C94C4181091F0016A
:10284000141335C08091EE019091EF010E9408238E
:10285000883C910560F5C0E2CD0F1D17B9F080E20C
:10286000810F883040F4177081E001C0880F1A95FD
:10287000EAF70E94CB18C83048F481E09D2F97708A
:1028800001C0880F9A95EAF70E94C418802F0E9411
:10289000BC18C830B8F4D77081E001C0880FDA9551
:1028A000EAF7DF91CF911F910F910C94CB1880E242
:1028B0008C0F883038F4C77081E001C0880FCA954A
:1028C000EAF7EFCFDF91CF911F910F9108950F930A
:1028D0009C01CB01243F4CE5340759F1A8F4293D74
:1028E000FCE53F0701F12A3D4CE53407D1F1283DD5
:1028F0003C4591F406E221EE41EE68ED7CE50E9454
:10290000FB1380E00F910895263FFCE53F07E9F0B7
:10291000B0F0273F3C45F9F0FC018281882339F172
:102920001092F001EFCF07E225EE45EE69ED7CE570
:10293000E6CF06E221EE40EE64EF7CE5E0CF07E271
:1029400025EE44EE65EF7CE5DACF06E221EE42EEBD
:1029500066EF7CE5D4CF07E225EE46EE67EF7CE537
:10296000CECF08E221E045EE6AED7CE5C8CF81E0FC
:10297000C9CFCF93DF93EC01FB018281882309F457
:1029800019C1C230FCE5DF07C0F1C6319CE5D907AB
:1029900030F09E012B5F3C452930310570F50E94D7
:1029A00086219093B4028093B302C031ECE5DE0738
:1029B00009F4CFC008F05BC0C8308CE5D80709F433
:1029C000B6C088F5C430ECE5DE0709F4A8C0C0F451
:1029D000C2308CE5D80709F49CC08091B3028260B4
:1029E000C330DC4509F498C08091B3029091B402E1
:1029F0000E9494210E943D1B80E0DF91CF910895B9
:102A00008091B3028061C630ECE5DE0709F484C032
:102A10008091B3028860C730DC4508F47DC08091A6
:102A2000B302806279C0CC308CE5D80709F489C044
:102A300070F48091B3028C60CA30ECE5DE0709F4D3
:102A40006BC008F478C08091B3028E7F65C0CE3031
:102A50008CE5D80709F479C08091B3028B7FCF3021
:102A6000DC4508F459C08091B3028F7E55C0CC3F3D
:102A7000ECE5DE0709F457C030F5C3318CE5D80723
:102A800009F46FC078F4C131ECE5DE0709F465C0E4
:102A9000C231DC4509F0A8CF0E943D1B8091B302F2
:102AA0008F773AC0C5318CE5D80709F462C008F4C5
:102AB00076C08091B4028160CB3FDC4509F094CFB1
:102AC0008093B40291CFC115FDE5DF0709F44DC035
:102AD00088F48091B4028D7FCE3F9CE5D90781F3C5
:102AE0008091B4028E7FCF3FDC4550F38091B402D9
:102AF0008360E6CFC230FDE5DF0709F459C008F472
:102B000044C080E0C330DD4509F06ECF0E94192239
:102B10006BCF8091B30281608093B30265CF8091C7
:102B2000B3028460F9CF8091B4028260C9CF8091F2
:102B3000B3028064F1CF0E943D1B8091B302806894
:102B4000EBCF8091B3028D7FE7CF8091B302877F77
:102B5000E3CF8091B3028F7DDFCF8091B3028F7B73
:102B6000DBCF8091B302837FD7CF8091B4028C7F7B
:102B7000A7CF8091B30282FB992790F921E0922799
:102B800090FB82F990FB83F9C7CF8091B402982F14
:102B9000909591708E7F892B90FB81F991CF0E9447
:102BA0003D1B9091B302892F97FB87F98058B4CFD2
:102BB00081E0ACCF81E021CFCF93DF93EB01863171
:102BC0009C4511F50E94BC209A81992399F08A7A3C
:102BD00091E009F490E09093F101811109C089E23C
:102BE0000E9497200E94082180E0DF91CF910895F4
:102BF00085E3F6CF8091F101811104C089E20E9442
:102C00009E20F0CF85E3FBCF81E0EFCF9093F701DB
:102C10008093F6010895E091F601F091F701309765
:102C200021F00190F081E02D099480E00895E09179
:102C3000F601F091F701309721F00280F381E02D49
:102C400009940895E091F601F091F701309739F079
:102C500022E0DC012C930480F581E02D0994089595
:102C60002091F4013091F5012817390771F0909304
:102C7000F5018093F401E091F601F091F7013097AE
:102C800021F00680F781E02D099408952091F2014A
:102C90003091F3012817390771F09093F301809375
:102CA000F201E091F601F091F701309721F00084F4
:102CB000F185E02D099408950E94FC22609305029D
:102CC00070930602809307029093080260930102BA
:102CD00070930202809303029093040208950E946D
:102CE000FC22609305027093060280930702909382
:102CF00008026093FD017093FE018093FF019093A1
:102D00000002089585B7806885BF85B7806885BF54
:102D10000895089508950C94891608950C948D16BD
:102D20000E9482168BE691E20E944C230E948A1632
:102D30000C948B1681E008950C949A1608950895CA
:102D40000E94E7220E949D070E9423110E946A238D
:102D50000E94200F0E9486100C948E164F925F9254
:102D60006F927F928F929F92AF92BF92CF92DF929B
:102D7000EF92FF921F93CF93DF93CDB7DEB72A97E1
:102D80000FB6F894DEBF0FBECDBF0E949E160E9404
:102D90009F160E94CF0781110E945C1680E00E945E
:102DA00091076B017C018091F9019091FA01A0914A
:102DB000FB01B091FC012C013D014C245D246E24EB
:102DC0007F248C159D05AE05BF0509F478C0809160
:102DD000660281FD0E949C0710E0812C912C540119
:102DE0008394D301C20188219921AA21BB21892B77
:102DF0008A2B8B2B09F45BC00E949C168823C9F098
:102E00001E831F82C820D920EA20FB2081E0CD2824
:102E1000CE28CF2809F480E088870E94F0228160C4
:102E2000782F9A8789874E815F8168858A850E947D
:102E300086178091F9019091FA01A091FB01B09160
:102E4000FC0188259925AA25BB258093F90190933B
:102E5000FA01A093FB01B093FC010E945B0F0E945A
:102E6000971081110E946F160E94DE090E940B16B6
:102E70009091F8018917A1F10E940B168093F80137
:102E80002A960FB6F894DEBF0FBECDBFDF91CF916B
:102E90001F91FF90EF90DF90CF90BF90AF909F90E9
:102EA0008F907F906F905F904F900C948A051F5F7A
:102EB000880C991CAA1CBB1C123109F092CF8FEF11
:102EC00089838A831B820E94F0228160782F9D83F0
:102ED0008C8349815A816B818D810E948617BDCF79
:102EE0002A960FB6F894DEBF0FBECDBFDF91CF910B
:102EF0001F91FF90EF90DF90CF90BF90AF909F9089
:102F00008F907F906F905F904F900895DF92EF9237
:102F1000FF920F931F93CF93DF93CDB7DEB72B971D
:102F20000FB6F894DEBF0FBECDBF7A878B87F42E25
:102F3000052F162FE72ED82E61110E94DC201E824D
:102F40001D827E2DEC82DD824F2D502F612F8D2D25
:102F50009E812B960FB6F894DEBF0FBECDBFDF91DA
:102F6000CF911F910F91FF90EF90DF900C94B31DC4
:102F7000FC01808191810C946920CF93C82F882314
:102F800009F48BC08238C1F40E940B1681FD85C004
:102F900089E30E9497200E9408212FEF81EE94E0A0
:102FA000215080409040E1F700C0000089E30E947A
:102FB0009E20CF910C9408218338A1F40E940B1617
:102FC00080FD6BC083E50E9497200E9408212FEFAF
:102FD00081EE94E0215080409040E1F700C0000075
:102FE00083E5E5CF8438A1F40E940B1682FD55C01D
:102FF00087E40E9497200E9408212FEF81EE94E041
:10300000215080409040E1F700C0000087E4CFCF1E
:103010008CEF8C0F813A90F46C2F80911801909175
:1030200019010E943022882329F08C2F0E949E20B3
:103030000E9408218C2F0E949720BBCF80E28C0F2A
:10304000883048F4C77081E001C0880FCA95EAF75C
:103050000E94BF20AECFEBE5EC0FE33040F4F0E090
:10306000E454FE4F808190E0CF910C943016E8E557
:10307000EC0FE73150F4F0E0EE0FFF1FE257FE4F88
:1030800080819181CF910C944616CD3E30F08C2FEB
:103090000E94F008CF910C94C309CF910895882322
:1030A00009F452C0823871F40E940B1681FF4CC0A3
:1030B00089E30E9497200E94082189E30E949E20B4
:1030C0000C940821833859F40E940B1680FF3CC0F1
:1030D00083E50E9497200E94082183E5EFCF843882
:1030E00059F40E940B1682FF2FC087E40E9497209C
:1030F0000E94082187E4E2CF9CEF980F913AF0F20A
:1031000090E2980F983050F4877091E001C0990FC9
:103110008A95EAF7892F0E94C520D2CF9BE5980FA8
:10312000933020F490E080E00C94301698E5980FEE
:10313000973120F490E080E00C9446168D3E20F00C
:103140000E944A090C94C30908951F93CF93DF93FB
:10315000182FEB010E94BD17209731F4812FDF91CA
:10316000CF911F910C944F188FE99FE00197F1F7D1
:1031700000C000002197F0CF70E060E0893311F4C7
:1031800060E570E00C94A518882321F00E94BF2010
:103190000C9408210895882321F00E94C5200C94E6
:1031A00008210895BF92CF92DF92EF92FF920F9382
:1031B0001F93CF93DF936C01D62FC72FFC01128191
:1031C000058102950F700E94B520E82E8823A1F09A
:1031D000E12E112389F08C2F807F803429F080E24A
:1031E0008D0FE12C883040F082E00E9453210E9434
:1031F000B52091E0E82EE926BC2EB2949FE0B922DA
:10320000EB2DF0E0EA51F14D0C945B2E0C2F0F707A
:10321000C07F11F00295007F1123A9F0002359F01F
:1032200080E28D0F883010F0D11109C0802F0E94EC
:10323000BF200E9408218D2F0E94BD1714C0802F2F
:103240000E94CF20F6CF8D2F0E944F18002359F0F7
:1032500080E28D0F883010F0D1112CC0802F0E9499
:10326000C5200E9408212B2D2850330B2430310516
:1032700020F40E940B160E948A05EE2009F49EC1DC
:103280000E94B12080FD9AC1F60112820E94AB20FB
:103290000E94371FC6010E94FF1A0E94AB20DF91D7
:1032A000CF911F910F91FF90EF90DF90CF90BF9043
:1032B0000C94581F802F0E94D520D3CFFC2FFF7075
:1032C000FF2EC07FC03219F0F29480EFF822DD2388
:1032D00069F0D13049F1112391F1002351F1F60148
:1032E000858180FFA8CF8F70858323C0112381F053
:1032F000011106C00E94EF208F290E94C418B3CF8D
:103300000130C1F70E94EF208F290E94F520ABCF3A
:10331000011106C00E94FE208F2D0E94CB18A3CF62
:10332000013009F4A0CFF6CF112329F0063008F0C0
:103330009ACF8F2DE2CF053008F095CFEDCF002347
:1033400059F3D93349F4FFEF27EE33E0F150204031
:103350003040E1F700C000008D2F0E944F1883CF4E
:103360008C2F86958695837069F0813009F07BCF2C
:103370008D2F9C2F9370111102C090E080E00E946D
:10338000461671CF8D2F9C2F9370111102C090E0C3
:1033900080E00E94301667CF8D2F112329F00E9404
:1033A000F0080E94C3095FCF0E944A09FACF8C2F10
:1033B000837009F041C0111156CF4D2F42954695AB
:1033C0004770440F440F0D2F0F7010E030E020E0E5
:1033D000042E04C0000F111F221F331F0A94D2F7BE
:1033E00060E070E0CB01D4FF0FC06FE070E080E0E0
:1033F00090E004C0660F771F881F991F4A95D2F787
:103400006095709580959095C695C695C370602B14
:10341000712B822B932BC23049F058F4C13019F034
:103420000E94E91E20CF0E94D71E1DCF0E94FB1EC6
:103430001ACF0E94D51E17CF8695112311F08C2F1D
:103440008170882309F40FCF4D2F42954695477020
:10345000440F440F0D2F0F7010E030E020E0042ED9
:1034600004C0000F111F221F331F0A94D2F760E01F
:1034700070E0CB01D4FF0FC06FE070E080E090E01F
:1034800004C0660F771F881F991F4A95D2F7609571
:10349000709580959095C695C695C370602B712BDD
:1034A000822B932BC23049F058F4C13019F00E949E
:1034B000AE1FD9CE0E949C1FD6CE0E94C01FD3CE75
:1034C0000E94111FD0CECF70112329F08C2F0E94A3
:1034D000371F8D2F12CF8D2F0E94CB188C2F0E945B
:1034E000581FC1CED23F89F160F4D03FC9F0D13F1F
:1034F00029F1112309F442C001119DCE8C2F8F7147
:1035000021C0D33F39F1D43FA1F7112369F1CF7125
:103510008C2F0E94371F63E08C2F0E943E21A3CE88
:10352000112341F0053008F09ECE8C2F8F710E9440
:103530007B1F99CE063008F096CEF7CF8C2F8F7177
:10354000112369F20E94371F8ECE8C2F8F711123A9
:10355000C9F3C5CF112329F08C2F8F710E94221F30
:1035600082CE0E941D1F7FCE81E00E945321023037
:1035700008F479CE82E00E94532175CE002359F0E1
:10358000D93309F0E9CE8FEF97EEE3E08150904018
:10359000E040E1F7DFCE8C2F8F71A1CF4C2F4F7021
:1035A0006D2FC6010E9492050E944D1E5CCE4C2FCD
:1035B0004F706D2FC6010E94950555CEDF91CF91BA
:1035C0001F910F91FF90EF90DF90CF90BF900895E3
:1035D0000F931F93CF93DF93EC01688179818A81E8
:1035E0000E9473208C010E94D21F0E94D41EB80139
:1035F000CE01DF91CF911F910F910C94D218CF93F0
:10360000DF93EC018B819C81892B29F08881998142
:1036100089238F3F59F4DF91CF910895CE010E9405
:10362000E81ACE01DF91CF910C947103CE010E9474
:10363000FE038111F3CF0E94B520882361F38A81B4
:10364000882349F382E0DF91CF910C94532190E0DD
:1036500080E00E94301690E080E00E9446160E94B2
:10366000DC200E94EC200E9408210E94EA0A0C94AF
:10367000C3090E94A5200C94271B0E94CC200C9407
:10368000391BE92FE295EF70E250EE3070F4F0E074
:10369000EA50F14D0C945B2E803F19F020F4883EE7
:1036A00020F481E00895843FE1F380E00895883EAE
:1036B000C0F3813FD1F7F5CF93FB882780F90895B8
:1036C0000E9469200C94411BCF93DF9300D000D05F
:1036D0000F92CDB7DEB70F900F900F900F900F9015
:1036E000DF91CF910895CF93DF9300D000D000D029
:1036F000CDB7DEB726960FB6F894DEBF0FBECDBFAE
:10370000DF91CF9108951F93CF93DF93C0910A0269
:1037100016E080910B028C1304C0DF91CF911F91B2
:103720000895D0E01C9FF0011D9FF00D1124E45F6F
:10373000FD4F4081518162817381848195810E9416
:10374000731B2196C770E5CF40913C0250913D021A
:1037500060913E0270913F0280914002909141023F
:103760000C94731B1F93CF93DF9380914102807F52
:10377000A9F480913E02882389F080910A02C091C9
:103780000B0260913C0270913D02A0913F02B0910A
:103790004002D62FD72316E0C81304C0DF91CF9183
:1037A0001F91089590E0109711F0DF3F19F40196F2
:1037B0008770F2CF189F9001199F300D1124F901E5
:1037C000E45FFD4F41814713F2CF40814613EFCFB5
:1037D00042814111ECCF438154814A1B5B0B483C31
:1037E000510528F7809141028F70806180934102DA
:1037F000F901EF5EFD4F80818F70806180838CE3E3
:1038000092E00E94FF1ADF91CF911F910C94831BCD
:10381000AF92BF92CF92DF92EF92FF920F931F93DE
:10382000CF93DF93CDB7DEB761970FB6F894DEBFC5
:103830000FBECDBF8C0185E0F801DE011D96019021
:103840000D928A95E1F7F80140815181E2808CE385
:10385000C82E82E0D82E60913F027091400261151F
:10386000710509F461C190913C0220913D02892FBC
:1038700082238F3F09F458C1A380B480F0903E02A8
:10388000F501E61BF70BFF2009F4FCC08091410213
:10389000382F307FE83CF10508F0B2C0311179C013
:1038A000FE2C251323C0941321C0E1101FC08F707C
:1038B0008061809341020E94A41BC6010E94FF1AEE
:1038C00080914102F80185838F2D61960FB6F8949F
:1038D000DEBF0FBECDBFDF91CF911F910F91FF9043
:1038E000EF90DF90CF90BF90AF900895AB2829F074
:1038F000842F85238F3F09F033C180E0F82FF170CA
:10390000DF2E80FF3CC080910A0220910B0236E03E
:10391000821315C04D875E878D859E850E94692024
:10392000292F22952F702230F0F0243018F59F7047
:10393000F1F0F8019581907FD1F4D12C1EC090E078
:10394000389FF001399FF00D1124E45FFD4F618134
:10395000651306C06081641303C062816E110FC0DD
:1039600001968770D5CF9F7011F0882331F3805E68
:10397000883018F3C8010E94FF1AFD2CA5CFEE2055
:1039800009F4A2CF80914102816080934102F12C21
:103990009BCF251306C0941304C0F801EE2009F450
:1039A0008DC04D875E878D859E850E94601B882314
:1039B00019F1EE2009F180914102803270F02091DE
:1039C0003C0230913D0238872F831986BB86AA8638
:1039D0008C87CE0107960E94FF1A86E0F801ACE3BF
:1039E000B2E001900D928A95E1F70E94B21B0E940D
:1039F000A41BFF24F39468CFC8010E94FF1AF9CFDB
:103A0000311113C07A2DB98AA88A6E2D89890E9436
:103A1000641B8CE392E00E94FF1A86E0F60111928B
:103A20008A95E9F70E94A41BB2CF25130FC0941307
:103A30000DC0E1100BC0F8018583C8010E94FF1A78
:103A400086E0F60111928A95E9F73ECF4D875E87B1
:103A50008D859E850E94601B882371F2EE2061F2A5
:103A600080914102803208F4B8CF20913C0230911D
:103A70003D023A8329831B82BD82AC828E83CE01B4
:103A80000196A9CFE83CF10508F041C0FE2CEE20DC
:103A900009F4B2CF25132AC0941328C080914102A3
:103AA00080FD1BC0982F907FC1F0F8018583903F67
:103AB00031F0982F907F905F8F70892B8583C8019C
:103AC0000E94FF1A86E0F801ACE3B2E001900D928B
:103AD0008A95E1F70E94A41BF7CE86E0F801ACE3DB
:103AE000B2E001900D928A95E1F7EECE4D875E87A8
:103AF0008D859E850E94601B81116FCF8091410250
:103B0000816080934102C8010E94FF1ADDCE7A2DA8
:103B1000B98AA88A6E2D89890E94641B86E0F60105
:103B200011928A95E9F7D6CFEE2009F465CF4D873B
:103B30005E878D859E850E94601BF82E882309F480
:103B40005BCF86E0F801ACE3B2E001900D928A957C
:103B5000E1F78CE392E00E94B8170E94B21BBACF43
:103B600081E08E25CBCE1F93CF93DF93CDB7DEB709
:103B70002C970FB6F894DEBF0FBECDBF4F8358878A
:103B800069877A878B879C87CE0107960E94081CDD
:103B9000882369F08A859B85892B39F04F81588568
:103BA000842F85238F3F09F071C016E05FC086E047
:103BB000FE013796DE01119601900D928A95E1F78C
:103BC0008A859B85892B89F38F81988589238F3FEF
:103BD00061F320910B0230E0C901019687709927AB
:103BE00040910A024817190671F40E943D1B109279
:103BF0000B0210920A0286E0ECE3F2E0DF011D9274
:103C00008A95E9F7D2CF96E0929FD001939FB00DAD
:103C10001124A45FBD4FFE01319601900D929A953B
:103C2000E1F780930B020E94831BBFCF819FC001ED
:103C30001124845F9D4F0E94081C8823E9F0E091C5
:103C40000A021E9FF0011124E45FFD4F4081518163
:103C500062817381848195810E94731B80910A0225
:103C600090E001968770992780930A0280910A025A
:103C700090910B028913DACF2C960FB6F894DEBF21
:103C80000FBECDBFDF91CF911F91089569857A85D1
:103C90008B859C850E94731B88CFEF92FF920F93B8
:103CA0001F93CF93DF938C01892B81F0F12CEE24AD
:103CB000E394E8012196F8018491843770F484300C
:103CC00008F05FC08130B1F08230A1F1DF91CF9177
:103CD0001F910F91FF90EF900895853709F44CC024
:103CE00008F43DC09CE7980F903780F78F770E94CB
:103CF0004F1849C00E5F1F4FFE01849190E2980F4C
:103D0000983060F48770FE2D01C0FF0F8A95EAF7A6
:103D10008F2F0E94DF200E94082102C00E94BD1741
:103D20008F2D815030F2EFE9FFE03197F1F700C0BD
:103D30000000F7CF0E5F1F4FFE01849190E2980FB5
:103D4000983050F48770FE2D01C0FF0F8A95EAF776
:103D50008F2F0E94E520DFCF0E944F18E1CF0E5F2A
:103D60001F4FFE01C491C150D8F28FE99FE0019727
:103D7000F1F700C00000F7CF0E5F1F4FFE01F49077
:103D8000CFCF0E94BD178E01CBCF08950C94C51ED6
:103D90000E94C61E6093550270935602809357028C
:103DA000909358020C94271B08950C94C81E0F93EF
:103DB0001F930091550210915602209157023091A5
:103DC0005802602B712B822B932B1F910F910C9417
:103DD000C81E0F931F930091550210915602209117
:103DE00057023091580260237123822393231F913D
:103DF0000F910C94C81E0F931F93009155021091C0
:103E0000560220915702309158026027712782276D
:103E100093271F910F910C94C81E0C94C51E0C94EF
:103E20000D1F0E940F1F60935102709352028093E6
:103E30005302909354020C94271B60E070E0CB0176
:103E40000C94111F0F931F9341E050E060E070E06D
:103E50008A019B0104C0000F111F221F331F8A9586
:103E6000D2F7C901B8011F910F910C94111F0F9344
:103E70001F9341E050E060E070E004C0440F551F24
:103E8000661F771F8A95D2F7809151029091520256
:103E9000A0915302B09154028A019B01082B192B67
:103EA0002A2B3B2BC901B8011F910F910C94111FB4
:103EB0000F931F9341E050E060E070E004C0440FB6
:103EC000551F661F771F8A95D2F7CB01BA016095FF
:103ED0007095809590950091510210915202209119
:103EE00053023091540260237123822393231F9144
:103EF0000F910C94111F0F931F9341E050E060E06D
:103F000070E004C0440F551F661F771F8A95D2F7D3
:103F10008091510290915202A0915302B0915402AB
:103F20008A019B01082719272A273B27C901B801C5
:103F30001F910F910C94111F0F931F930091510229
:103F4000109152022091530230915402602B712B38
:103F5000822B932B1F910F910C94111F0F931F9382
:103F6000009151021091520220915302309154025B
:103F700060237123822393231F910F910C94111FAF
:103F80000F931F93009151021091520220915302FE
:103F90003091540260277127822793271F910F9138
:103FA0000C94111F089522E1929F800D1124982FE7
:103FB000977041E001C0440F9A95EAF7869586957F
:103FC000869595E0899FF0011124EE5BFD4F90E00E
:103FD00080E070E05191DF0111979B01082E02C033
:103FE000369527950A94E2F72170219525272423F9
:103FF00025272C9301968530910561F7089522E1DC
:10400000929F800D1124982F97708695869586959E
:1040100025E0829FF0011124EE5BFD4F50E040E06F
:1040200080E0219130E0092E02C0369527950A9450
:10403000E2F721703327042E01C0220F0A94EAF719
:10404000822B4F5F5F4F4530510559F70895BF925E
:10405000CF92DF92EF92FF920F931F93CF93DF9354
:104060008C01C0905102D0905202E0905302F09027
:1040700054028091550290915602A0915702B0913E
:104080005802C82AD92AEA2AFB2ACFE1D0E0BC2E5E
:10409000D701C6010C2E04C0B695A79597958795B4
:1040A0000A94D2F780FD0EC0219788F7B12C8B2D92
:1040B000DF91CF911F910F91FF90EF90DF90CF9004
:1040C000BF900895B8018C2F0E949E05019761F35F
:1040D000EECFCF93DF93EC010E942720BE01DF914A
:1040E000CF910C949E051F93CF93DF93EB0190919A
:1040F0000902992331F0CB01DF91CF911F910C94EC
:104100006920882379F0CB010E942720182F682F7F
:10411000CE010E94D31FBE01812FDF91CF911F914D
:104120000C949E05CB010E94FF1F182FF4CF682F1F
:1041300080911801909119010C946622682F80914A
:104140001801909119010C946822809118019091A6
:1041500019010C946A22809159028595859585955F
:10416000089580915902877008959091590297702F
:1041700081E009F480E008958091650208959091AE
:104180006502892B80936502089580959091650260
:104190009823909365020895109265020895909176
:1041A0006402892B80936402089580959091640243
:1041B0009823909364020895109264020895909158
:1041C0006302892B80936302089580959091630226
:1041D000982390936302089510926302089580914A
:1041E0005A02089508950C94F22090915A0298175B
:1041F00021F080935A020C94F320089580915A0282
:10420000882329F010925A0280E00C94F32008953C
:10421000E0911801F0911901809165028083E0918D
:104220001801F0911901808190916402892B80839B
:10423000E0911801F0911901808190916302892B1E
:10424000808390915A02992381F0E0911801F091B6
:1042500019018081892B8083809118019091190127
:104260000E941E2281110E94FE20809118019091CF
:1042700019010C94171608950C943B2198E0899F1E
:1042800090011124622B609359020E94371F809184
:1042900059028595859585950C943C21109259027B
:1042A00080E00C943C219091590280958923809361
:1042B0005902282F277071F4282F082E000C330B79
:1042C0009217130639F08595859585950E94581F9C
:1042D0000C944E21089580E008956FEF7FEF90E0F9
:1042E00080E00C94A72E90E080E00E94832E21E0D5
:1042F0008B3E9E4F09F020E0822F089582E090E0EF
:104300000C94752E83E090E00C94752ECF9384E08E
:1043100090E00E94752EC82F81E290E00E94752ED9
:10432000982F8C2FCF910895CF93C92F682F84E0B9
:1043300090E00E94892E6C2F81E290E0CF910C9446
:10434000892EAB01BC018FE090E00C949B2EAB0159
:10435000BC0183E190E00C949B2E60E070E0CB0107
:104360000C94A72160E070E0CB010E94A1210C9485
:10437000AD216BEE7EEF90E080E00E94A72E60E022
:1043800082E090E00E94892E60E083E090E00E944D
:10439000892E1092550210925602109257021092D6
:1043A000580260E084E090E00E94892E60E081E2A3
:1043B00090E00E94892E60E085E090E00E94892EC6
:1043C00060E086E090E00E94892E6FEF87E090E049
:1043D0000E94892E40E050E0BA0188E090E00E94FF
:1043E0009B2E60E08DE090E00E94892E40E050E03E
:1043F000BA0188E190E00E949B2E60E087E190E0A6
:104400000E94892E40E050E0BA018CE190E00E94C9
:104410009B2E60E080E290E00E94892E40E050E018
:10442000BA0188E190E00E949B2E0C94B2210C947A
:10443000B921682F8EE090E00C94892E9C012E5FAC
:104440003F4FAC01485F5F4F80E02417350709F408
:104450000895F90191919F019923B9F38F5FF5CFE9
:10446000662349F0FC01329608962191261729F01F
:10447000E817F907D1F780E0089581E008959C01DD
:10448000FC0132969FEF80E04191461751F09F3F2B
:1044900019F4411101C0982F8F5F8630A9F79F3F13
:1044A00009F40895290F311D97FD3A95F9016283AA
:1044B0000895FC01329608962191261303C0DF016E
:1044C00011971C92E817F907B9F708950C943F2249
:1044D0000C945922029626E0FC0111922A95E9F7E4
:1044E0000895089508950C9472228091B902843041
:1044F00049F10E94732280E00E948A0510926702AF
:1045000088E190E020E40FB6F894A89580936000CD
:104510000FBE2093600083B7817F846083BF83B721
:10452000816083BF7894889583B78E7F83BF0FB6F1
:10453000F894A89580916000886180936000109243
:1045400060000FBE089508950E9471220E94CF0757
:104550000E94A32280E00E94910721E0672B682B34
:10456000692B09F420E0822F089508950C94B52258
:104570000E943D1B0E940B160E948A050C94B622D5
:104580001F921FB61F9211248F939F93AF93BF93D7
:1045900080916702811113C08091AF029091B002A7
:1045A000A091B102B091B2024196A11DB11D8093BC
:1045B000AF029093B002A093B102B093B202BF9148
:1045C000AF919F918F911F901FBE1F90189582E011
:1045D00084BD93E095BD9AEF97BD80936E000895DA
:1045E0002FB7F8948091AF029091B002A091B102E0
:1045F000B091B2022FBF08952FB7F8946091AF0227
:104600007091B0028091B1029091B2022FBF0895D3
:104610009C014FB7F8948091AF029091B002A091A5
:10462000B102B091B2024FBF821B930B08957894F0
:104630001F921FB61F9211248F939F93AF93BF9326
:104640008091AF029091B002A091B102B091B202FC
:104650000196A11DB11D8093AF029093B002A0936B
:10466000B102B093B202BF91AF919F918F911F9011
:104670001FBE1F90189587E797E7909301088093D6
:10468000000888E19AE00FB6F894A895809360003E
:104690000FBE90936000FFCF9093CF018093CE0127
:1046A00008950C9410110E94CF072FEF86E791E038
:1046B000215080409040E1F700C000000E94CF07E9
:1046C00080E00E94910760FF04C00E9451230C9477
:1046D0003B2308950E947321811102C00E9417227A
:1046E0000E947E21809366020E9486219093B402EC
:1046F0008093B3020E948221682F70E090E080E0F6
:104700000E94D51E60915102709152028091530215
:10471000909154020C940F1F809170020895CF93D2
:10472000DF9300D00F92CDB7DEB79091B9029430ED
:1047300011F589837B836A839093E9008FEF9091D1
:10474000E800815095FD06C095ED9A95F1F70000BF
:104750008111F5CF8091E80085FF0DC050E040E069
:1047600063E070E0CE0101960E940A268091E80085
:104770008E778093E8000F900F900F90DF91CF918C
:104780000895BC0184E00C948F23BC0183E00C9459
:104790008F239C0184E08093E9009FEF8091E800E3
:1047A000915085FD06C085ED8A95F1F700009111C5
:1047B000F5CF8091E80085FF0CC050E040E066E056
:1047C00070E0C9010E940A268091E8008E778093EC
:1047D000E8000895CF93DF93EC0181E08093E90036
:1047E0008FEF9091E800815095FD06C095ED9A9568
:1047F000F1F700008111F5CF8091E80085FF14C02A
:1048000050E040E068E070E0CE010E940A2680910E
:10481000E8008E778093E80088E0FE01A8E6B2E029
:1048200001900D928A95E1F7DF91CF910895CF9392
:10483000FC01603221F58091B902843001F5C0910C
:10484000E900CF702091EC00922F917020FD90E84C
:10485000C92B82E08093E9008091E80080FF0CC0C2
:1048600050E040E060E270E0CF010E940A268091B3
:10487000E8008E778093E800CF70C093E900CF9175
:1048800008958091B802811109C00E94E9270E9411
:1048900046288091E20084608093E200089510929F
:1048A000B802089508950895089542E061EC81E00A
:1048B0000E94652742E261EC84E00E94652742E2A3
:1048C00061EC82E00E94652742E260EC83E00C9498
:1048D00065278091BB02833009F461C030F48130D8
:1048E000D1F1823009F49DC008958A3009F489C05D
:1048F0008B3009F46FC0893009F050C08091BA0242
:10490000813209F04BC08091BE029091BF020097A6
:1049100019F0029709F042C08091E800877F8093E8
:10492000E8008091E80082FF35C09091F30080910B
:10493000F200029729F48091F1008B7F813021F4FD
:104940008091F100809370028091E8008B778093D2
:10495000E8000C9499278091BA02813AF9F4809189
:10496000E800877F8093E8008091BE029091BF02AB
:10497000892B61F468E088E692E070E00E94A82646
:104980008091E8008B778093E800089560E090E0E4
:1049900080E0F3CF8091B9028111C3CF0895809157
:1049A000BA02813AD9F78091BE029091BF02892B59
:1049B000A9F78091E800877F8093E8008091E80064
:1049C00080FFFCCF809124018093F1008091E8006A
:1049D0008E77BDCF8091BA02813201F78091BE02FD
:1049E0009091BF02892BD1F68091E800877F809358
:1049F000E8000E9499278091BC02809324010C94C6
:104A00003D1B8091BA02813249F68091E800877F90
:104A10008093E8000E9499278091BD0280937102E3
:104A200008958091BA02813A09F0B8CF8091E800E8
:104A3000877F8093E8008091E80080FFFCCF809121
:104A40007102C2CFCDB7DEB7A0970FB6F894DEBF24
:104A50000FBECDBF84B7877F84BF0FB6F894A895EB
:104A600080916000886180936000109260000FBEAA
:104A700080E890E00FB6F894809361009093610015
:104A80000FBE0E9490160E94E9270E94462880913E
:104A9000E20084608093E20078940E94CF2A0E9412
:104AA000A0168AE191E00E94061613E08091B902F7
:104AB0008530C9F00E94AE168091B9028430D1F0E1
:104AC0000E949E160E949F16F1CF0E94752280912F
:104AD000B702882341F00E94A422882321F00E947B
:104AE000F4250E943D1B8091B902853071F30E942C
:104AF000B822E0CF1093E9008091E80082FFE0CF78
:104B00008091E80090E085FF09C050E040E060E25D
:104B100070E0CE0101960E94592691E08091E80054
:104B20008B778093E800992359F260E2CE010196D9
:104B30000E94C811C5CF0C949D25292F33272330FF
:104B4000310521F168F42130310509F443C02230E8
:104B5000310509F444C090E080E030E020E026C058
:104B60002132310551F122323105A9F76330710547
:104B700090F7FB01EE0FFF1FEE53FE4F20813181B6
:104B800061547E4FFB01808190E010C099278130F5
:104B9000910581F0009729F00297E9F6E4E2F3E04D
:104BA00002C0EEE4F3E0849190E09F01FA013183CA
:104BB00020830895E0E4F3E0F6CF6330710558F602
:104BC000660F771FFB01E853FE4F2081318189E09A
:104BD00090E0ECCF82E190E02DEA33E0E7CF8BE587
:104BE00090E022E533E0E2CF80E189BD82E189BD3A
:104BF00009B400FEFDCF8091D8008F7D8093D8004E
:104C00008091E00082608093E0008091E00081FD6F
:104C1000FCCF0895AF92BF92CF92DF92FF920F9395
:104C20001F93CF93DF936C01EB018A010E94B82799
:104C3000F82E811123C00115110539F0F80180818A
:104C40009181C81BD90BC80ED91EB12CA12C20975D
:104C5000A9F08091E80085FD22C08091E8008E7760
:104C60008093E80001151105A1F0F8018081918180
:104C7000A80EB91EB182A08285E0F82E8F2DDF919B
:104C8000CF911F910F91FF90DF90CF90BF90AF9089
:104C900008950E94B8278823D1F2F82EEFCFF601AD
:104CA00081916F018093F1002197FFEFAF1ABF0A46
:104CB000CECFAF92BF92CF92DF92FF920F931F930E
:104CC000CF93DF936C01EB018A010E94B827F82E85
:104CD000811123C00115110539F0F80180819181FE
:104CE000C81BD90BC80ED91EB12CA12C2097A9F036
:104CF0008091E80085FD22C08091E8008B77809349
:104D0000E80001151105A1F0F80180819181A80E3C
:104D1000B91EB182A08285E0F82E8F2DDF91CF9150
:104D20001F910F91FF90DF90CF90BF90AF900895AB
:104D30000E94B8278823D1F2F82EEFCF8091F1009E
:104D4000F60181936F012197FFEFAF1ABF0ACECF13
:104D5000FC018091C0029091C10286179707A0F0D4
:104D60006115710529F49091E8009E779093E80011
:104D700090E06115710551F4911108C08091E8002F
:104D800082FF34C080E00895BC01F2CF8091B90267
:104D90008823C1F18530C1F18091E80083FD30C0E6
:104DA0008091E80082FDEACF8091E80080FFE1CFAA
:104DB0008091F3002091F200382F6115710519F0F0
:104DC0002830310558F091E02830310509F090E0A5
:104DD0002091E8002E772093E800CBCF819180933B
:104DE000F100615071092F5F3F4FE7CF8091B90209
:104DF000882341F0853041F08091E80083FFBECFE9
:104E000081E0089582E0089583E00895FC01809197
:104E1000C0029091C10286179707A0F06115710535
:104E200029F48091E8008E778093E80090E0611586
:104E3000710551F4911108C08091E80082FF35C0DE
:104E400080E00895BC01F2CF8091B9028823C9F1B6
:104E50008530C9F18091E80083FD31C08091E80080
:104E600082FDEACF8091E80080FFE1CF8091F300DE
:104E70002091F200382F6115710519F028303105A5
:104E800058F091E02830310509F090E08091E80079
:104E90008E778093E800CBCF84918093F100319698
:104EA000615071092F5F3F4FE6CF8091B90288238F
:104EB00041F0853041F08091E80083FFBDCF81E073
:104EC000089582E0089583E00895982F973028F0A0
:104ED0008F708093E90081E008959093E900242F7A
:104EE000762F50E0981731F07091EC002091ED0092
:104EF0005091F00021FD02C09F5FE8CF3091EB00A0
:104F00003E7F3093EB003091ED003D7F3093ED001C
:104F10003091EB0031603093EB007093EC00209304
:104F2000ED005093F0002091EE0027FDE5CF80E0EA
:104F300008958091BA0287FF13C08091E80082FF34
:104F400006C08091E8008B778093E80004C08091D0
:104F5000B9028111F2CF08958091B9028823D9F363
:104F60008091E80080FFF8CF8091E8008E77ECCF49
:104F70002091E4003091E50095E6A9012091EC0034
:104F8000822F817020FF06C08091E80080FF06C05C
:104F900080E008952091E80022FD1AC08091B902B6
:104FA000882389F0853089F08091EB0085FD0FC062
:104FB0002091E4003091E50042175307F9F2915037
:104FC000E1F684E0089582E0089583E0089581E0A9
:104FD00008950E9457280E945F28E0EEF0E080814B
:104FE00081608083E8EDF0E080818F77808319BC59
:104FF000A7EDB0E08C918E7F8C9380818F7E808333
:105000001092B80208950F931F93CF93DF930E94DD
:1050100057280E945F28C8EDD0E088818F77888369
:1050200088818068888388818F7D888319BC1092ED
:10503000B9021092B5021092B7021092B60200EEB9
:1050400010E0F80180818B7F808388818160888374
:1050500042E060E080E00E946527E1EEF0E08081C0
:105060008E7F8083E2EEF0E08081816080838081AA
:1050700088608083F80180818E7F80838881806151
:105080008883DF91CF911F910F910895E8EDF0E0B3
:1050900080818F7E8083E7EDF0E080818160808376
:1050A00084E082BF81E08093B8020C940328E8ED8D
:1050B000F0E080818E7F80831092E200089510924C
:1050C000DA001092E10008951F920F920FB60F922E
:1050D00011242F933F934F935F936F937F938F93FD
:1050E0009F93AF93BF93EF93FF938091E10082FF73
:1050F0000BC08091E20082FF07C08091E1008B7FAE
:105100008093E1000E94CE2A8091DA0080FF19C0CE
:105110008091D80080FF15C08091DA008E7F809347
:10512000DA008091D90080FF96C080E189BD82E1DC
:1051300089BD09B400FEFDCF81E08093B9020E94D1
:1051400041248091E10080FF19C08091E20080FF3E
:1051500015C08091E2008E7F8093E2008091E20092
:1051600080618093E2008091D80080628093D800B3
:1051700019BC85E08093B9020E9453248091E1001C
:1051800084FF2BC08091E20084FF27C080E189BDAD
:1051900082E189BD89B5982F917080FFFBCF809106
:1051A000D8008F7D8093D8008091E1008F7E80931E
:1051B000E1008091E2008F7E8093E2008091E20026
:1051C00081608093E2008091B502882309F449C090
:1051D00084E08093B9020E9454248091E10083FF0F
:1051E00029C08091E20083FF25C08091E100877F84
:1051F0008093E10082E08093B9021092B502809121
:10520000E1008E7F8093E1008091E2008E7F8093A9
:10521000E2008091E20080618093E20042E060E081
:1052200080E00E9465278091F00088608093F00004
:105230000E945224FF91EF91BF91AF919F918F9166
:105240007F916F915F914F913F912F910F900FBE82
:105250000F901F90189519BC1092B9020E944F240C
:1052600070CF8091E30087FD93E09093B902B3CFB4
:105270001F920F920FB60F9211242F933F934F93CB
:105280005F936F937F938F939F93AF93BF93CF93CE
:10529000DF93EF93FF93D091E900DF708091EC00F2
:1052A000C82FC17080FDC0E81092E9008091F00025
:1052B000877F8093F00078940E947C291092E90007
:1052C0008091F00088608093F000CD2BCF70C09368
:1052D000E900FF91EF91DF91CF91BF91AF919F9145
:1052E0008F917F916F915F914F913F912F910F908F
:1052F0000FBE0F901F9018951F93CF93DF93CDB7DC
:10530000DEB7AA970FB6F894DEBF0FBECDBF8AEB0B
:1053100092E02091F100FC012193CF01F2E0823C68
:105320009F07B9F70E9469248091E80083FF1EC19E
:105330008091BA029091BB029A3008F017C1E92F10
:10534000F0E0EC5FF04D0C945B2E803899F08238E1
:1053500009F00CC18091BE028F70873008F006C141
:105360008093E9008091EB0085FB882780F91092FB
:10537000E90006C08091B6029091B7029111826057
:105380009091E800977F9093E8008093F10010924D
:10539000F1008091E8008E77E5C0882309F4D3C03E
:1053A000823009F0E3C08091BC028111D6C08091A7
:1053B000BE028F702FEF280F263008F0D7C08093E1
:1053C000E9002091EB0020FFC8C0933031F48091B8
:1053D000EB0080628093EB00C0C09091EB00906185
:1053E0009093EB0021E030E001C0220F8A95EAF7AC
:1053F0002093EA001092EA008091EB008860EACFE7
:105400008111B4C01091BC021F778091E3008078B5
:10541000812B8093E3008091E800877F8093E800F0
:105420000E9499278091E80080FFFCCF8091E300E3
:1054300080688093E30082E0111183E08093B902D9
:1054400095C08058823008F091C08091BC02909144
:10545000BD028C3D23E09207A1F583E08A838AE2B6
:1054600089834FB7F894DE01139620E03EE051E2C5
:10547000E32FF0E050935700E49120FF03C0E29542
:10548000EF703F5FEF708E2F90E0EA30C0F0C7966C
:105490008D939D932F5F243159F74FBF8091E80082
:1054A000877F8093E8006AE270E0CE0101960E9457
:1054B000A8268091E8008B778093E80057C0C096BB
:1054C000E7CF6091BE027091BF02AE014F5F5F4FA8
:1054D0000E949B25BC01892B09F448C09091E800EB
:1054E000977F9093E80089819A810E940627E1CFF7
:1054F0008038E1F58091E800877F8093E800809113
:10550000B5028093F10045CF811130C09091BC026B
:10551000923060F58091E800877F8093E800909357
:10552000B5020E9499278091B502882311F084E08A
:1055300005C08091E30087FDFACF81E08093B90236
:105540000E94552413C08091BC02813079F481E01F
:10555000933009F080E08093B7021092E9008091C7
:10556000E800877F8093E8000E9499278091E800F7
:1055700083FF0AC08091E800877F8093E8008091D4
:10558000EB0080628093EB00AA960FB6F894DEBF22
:105590000FBECDBFDF91CF911F9108950895CF9396
:1055A0008091B9028823A1F0C091E900CF70909159
:1055B000EC00892F817090FD80E8C82B1092E900E3
:1055C0008091E80083FD0E947C29CF70C093E900A0
:1055D000CF9108955058BB27AA270E94022B0C9404
:1055E000AD2C0E949F2C38F00E94A62C20F039F49C
:1055F0009F3F19F426F40C94752C0EF4E095E7FB0C
:105600000C946F2CE92F0E94BE2C58F3BA17620736
:1056100073078407950720F079F4A6F50C94E02C25
:105620000EF4E0950B2EBA2FA02D0B01B9019001BD
:105630000C01CA01A0011124FF27591B99F0593F01
:1056400050F4503E68F11A16F040A22F232F342F49
:105650004427585FF3CF469537952795A795F04097
:105660005395C9F77EF41F16BA0B620B730B840BAC
:10567000BAF09150A1F0FF0FBB1F661F771F881F64
:10568000C2F70EC0BA0F621F731F841F48F48795BC
:1056900077956795B795F7959E3F08F0B0CF9395AE
:1056A000880F08F09927EE0F9795879508950E9427
:1056B0006B2B0C94AD2C0E94A62C58F00E949F2CB2
:1056C00040F029F45F3F29F00C946F2C51110C9499
:1056D000E12C0C94752C0E94BE2C68F39923B1F335
:1056E000552391F3951B550BBB27AA276217730708
:1056F000840738F09F5F5F4F220F331F441FAA1F9C
:10570000A9F335D00E2E3AF0E0E832D09150504057
:10571000E695001CCAF72BD0FE2F29D0660F771F05
:10572000881FBB1F261737074807AB07B0E809F0EB
:10573000BB0B802DBF01FF2793585F4F3AF09E3F70
:10574000510578F00C946F2C0C94E12C5F3FE4F33E
:10575000983ED4F3869577956795B795F7959F5FB3
:10576000C9F7880F911D9695879597F90895E1E0FF
:10577000660F771F881FBB1F621773078407BA075E
:1057800020F0621B730B840BBA0BEE1F88F7E095B9
:10579000089529F416F00C946F2C0C94E02C0C94C2
:1057A000752C0E94C62CA8F39638A0F707F80F9224
:1057B000E8942BE33AEA48EB5FE70E94732D0F92DF
:1057C0000F920F924DB75EB70F920E94292DECEA0F
:1057D000F0E00E94782C4F915F91EF91FF91E59559
:1057E000EE1FFF1F49F0FE57E0684427EE0F441FED
:1057F000FA95E1F74195550B0E94F32C0F9007FEA7
:105800000C94E72C08950E94C62C88F09F5798F0BE
:10581000B92F9927B751B0F0E1F0660F771F881FB5
:10582000991F1AF0BA95C9F714C0B13091F00E94CF
:10583000E02CB1E008950C94E02C672F782F882796
:10584000B85F39F0B93FCCF3869577956795B395F6
:10585000D9F73EF490958095709561957F4F8F4F65
:105860009F4F0895E89409C097FB3EF4909580956A
:10587000709561957F4F8F4F9F4F9923A9F0F92F16
:1058800096E9BB279395F695879577956795B79594
:10589000F111F8CFFAF4BB0F11F460FF1BC06F5F7A
:1058A0007F4F8F4F9F4F16C0882311F096E911C08C
:1058B000772321F09EE8872F762F05C0662371F0AD
:1058C00096E8862F70E060E02AF09A95660F771FC1
:1058D000881FDAF7880F9695879597F9089597F9B5
:1058E0009F6780E870E060E008959FEF80EC089586
:1058F000DF93CF931F930F93FF92EF92DF927B0181
:105900008C01689406C0DA2EEF010E94702DFE0112
:10591000E894A5912591359145915591A6F3EF0114
:105920000E94022BFE019701A801DA9469F7DF902B
:10593000EF90FF900F911F91CF91DF910895002478
:105940000A941616170618060906089500240A94E4
:1059500012161306140605060895092E0394000C6A
:1059600011F4882352F0BB0F40F4BF2B11F460FFF9
:1059700004C06F5F7F4F8F4F9F4F089557FD905822
:10598000440F551F59F05F3F71F04795880F97FB03
:10599000991F61F09F3F79F08795089512161306BD
:1059A0001406551FF2CF4695F1DF08C016161706EC
:1059B0001806991FF1CF8695710561050894089521
:1059C000E894BB2766277727CB0197F908959B01B9
:1059D000AC0160E070E080E89FE30C94572B0C94DE
:1059E0006F2C0C94D22D0E94C62CD8F39923C9F3A6
:1059F000940F511DA3F39150504094F059F0882317
:105A000032F0660F771F881F91505040C1F79E3FBC
:105A100051052CF7880F911D9695879597F9089554
:105A20005F3FACF0983E9CF0BB27869577956795D5
:105A3000B79508F4B1609395C1F7BB0F58F711F40F
:105A400060FFE8CF6F5F7F4F8F4F9F4FE3CF0C9486
:105A5000E12CFA01DC01AA0FBB1F9B01AC01BF576F
:105A600028F4222733274427507820C0B75190F4D8
:105A7000AB2F0024469537952795011CA395D2F3AB
:105A8000002071F0220F331F441FB395DAF30ED0BC
:105A90000C94EA2A61307105A0E88A07B94630F40F
:105AA0009B01AC016627772788279078309621F0F4
:105AB000208331834283538308950E94702D0C9478
:105AC000AD2C0E949F2C38F00E94A62C20F095232C
:105AD00011F00C946F2C0C94752C11240C94E12C67
