:100000000C94FC030C9434040C9434040C943404C9
:100010000C9434040C9434040C9434040C94340480
:100020000C9434040C9434040C94AA1F0C947E2079
:100030000C94EF190C9434040C9434040C94340490
:100040000C9434040C9434040C9434040C94340450
:100050000C9434040C94761A0C9434040C943404E8
:100060000C9434040C9434040C9434040C94340430
:100070000C9434040C9434040C9434040C94340420
:100080000C9434040C9434040C9434040C94340410
:100090000C9434040C9434040C9434040C94340400
:1000A0000C9434040C9434040C94340413001200A3
:1000B0000C0018001C001700150008001A0014009E
:1000C00033000F000E000D000B000A0009000700AE
:1000D000160004003800370036001000110005003B
:1000E000190006001B001D0000000000025502510F
:1000F0002A002C000151E000000000002702260227
:100100002502240223022202210220021F021E02D3
:1001100030022F022E022D02010001000100010019
:100120000100290034023102010001000100010038
:100130000100010035023900000000004C00010000
:100140002800010001000100000000002700260037
:100150002500240023002200210020001F001E0093
:1001600030002F002E002D0001004F0052005100E2
:1001700050002B003400310001000100010001009B
:10018000E200E3003500E000000000000100010093
:1001900001000100010001000000000045004400D2
:1001A000430042000100C35CC45CC65CC85CCA5C1E
:1001B000410040003F003E0001000100C55CC75CFB
:1001C000C95CCB5C3D003C003B003A00005C010098
:1001D0000100010001000100000000000100010019
:1001E00001000100010001000000000044454255EB
:1001F000473A2064697361626C65642E0A00444565
:100200004255473A20656E61626C65642E0A000AA9
:100210000025303258006C65645F7461736B3A205E
:10022000004F6E6573686F743A2061637469766518
:100230003A2025640A000A002530313662003A204F
:100240000025303258000A722F63203031323334A7
:1002500035363738394142434445460A003F00436A
:100260003E20004C25640A000A092D205374617455
:100270007573202D0A686F73745F6B6579626F61A7
:1002800072645F6C65647328293A20253032580AFD
:100290006B6579626F6172645F70726F746F636FA8
:1002A0006C3A20253032580A6B6579626F6172644E
:1002B0005F69646C653A20253032580A74696D654F
:1002C000725F72656164333228293A202530386CB8
:1002D000580A002573000A092D20436F6E736F6C56
:1002E00065202D0A4553432F713A09717569740AC7
:1002F000000A092D204D61676963202D0A443A09DF
:100300004465627567204D65737361676520546F3E
:1003100067676C650A583A094D61747269782044C0
:1003200065627567204D6F646520546F67676C6503
:10033000202D2053686F77206B6579707265737319
:10034000657320696E206D617472697820677269C7
:10035000640A4B3A094B6579626F617264204465A7
:1003600062756720546F67676C65202D2053686F36
:1003700077206B65797072657373207265706F7228
:10038000740A4D3A094465627567204D6F7573654F
:1003900020546F67676C650A563A0956657273692F
:1003A0006F6E0A533A095374617475730A433A09BC
:1003B000416374697661746520436F6E736F6C6519
:1003C000204D6F64650A46312D4631303A09537726
:1003D0006974636820746F204C6179657220302DD8
:1003E000392028463130203D204C30290A302D3923
:1003F0003A0953776974636820746F204C6179659A
:100400007220302D390A47524156453A09537769CF
:1004100074636820746F204C6179657220302028E5
:10042000616C7465726E617465290A423A094A7595
:100430006D7020746F20426F6F746C6F61646572B1
:100440000A4553433A094A756D7020746F20426F14
:100450006F746C6F616465722028616C7465726E74
:10046000617465290A453A095072696E74204545E0
:1004700050524F4D2053657474696E67730A424140
:10048000434B53504143453A09436C6561722045E3
:100490004550524F4D0A006B65796D61705F636F17
:1004A0006E6669672E7261773A20253032580A2EBF
:1004B000737761705F636F6E74726F6C5F6361708E
:1004C000736C6F636B3A2025750A2E636170736CD1
:1004D0006F636B5F746F5F636F6E74726F6C3A20E3
:1004E00025750A2E737761705F6C63746C5F6C673F
:1004F00075693A2025750A2E737761705F7263748F
:100500006C5F726775693A2025750A2E7377617082
:100510005F6C616C745F6C6775693A2025750A2E93
:10052000737761705F72616C745F726775693A208E
:1005300025750A2E6E6F5F6775693A2025750A2E3C
:10054000737761705F67726176655F6573633A2088
:1005500025750A2E737761705F6261636B736C61DE
:1005600073685F6261636B73706163653A202575C0
:100570000A2E6E6B726F3A2025750A2E73776170A2
:100580005F6573636170655F636170736C6F636BEC
:100590003A2025750A0064656275675F636F6E6651
:1005A00069672E7261773A20253032580A2E656EBF
:1005B00061626C653A2025750A2E6D6174726978E6
:1005C0003A2025750A2E6B6579626F6172643A2054
:1005D00025750A2E6D6F7573653A2025750A0065BD
:1005E00065636F6E6669673A0A64656661756C7407
:1005F0005F6C617965723A2025750A003F000A6DCB
:100600006F7573653A206F66660A000A6D6F7573C1
:10061000653A206F6E0A000A6B6579626F617264D9
:100620003A206F66660A000A6B6579626F617264D0
:100630003A206F6E0A000A6D61747269783A206F11
:1006400066660A000A6D61747269783A206F6E0AF4
:10065000000A64656275673A206F66660A000A647C
:10066000656275673A206F6E0A000A0A4A756D70F6
:10067000696E6720746F20626F6F746C6F61646560
:10068000722E2E2E2000433E2000436C656172695D
:100690006E6720454550524F4D0A000A0025303202
:1006A0005820006B6579626F6172645F7265706F6C
:1006B00072743A20005B735D005B575D005B535DB5
:1006C000005B525D005B445D005B435D000A0365B7
:1006D0000065006B002100000018036B006C0061D6
:1006E0000063006B007900670065006100720073B1
:1006F0000000000403090409025B00030100A0FAE2
:100700000904000001030101000921110100012277
:1007100040000705810308000109040100010300EE
:100720000000092111010001223200070582032087
:100730000001090402000203000000092111010068
:10074000012222000705830320000107050303207F
:1007500000011201000200000008534A02000400D8
:10076000010200010631FF0974A101097515002677
:10077000FF009520750881020976150026FF009577
:100780002075089102C005010980A10185031901A6
:100790002AB700150126B700950175108100C00524
:1007A0000C0901A101850419012AA002150126A046
:1007B00002950175108100C005010906A101050718
:1007C00019E029E7150025019508750181029501B9
:1007D000750881010507190029FF150026FF0095FE
:1007E000067508810005081901290595057501910F
:1007F00002950175039101C011241FBECFEFDAE00D
:10080000DEBFCDBF04B603FE18C0809102039091F5
:100810000303A0910403B09105038730904BA740D8
:10082000B04B59F410920203109203031092040388
:1008300010920503E0E0F8E3099512E0A0E0B1E0D2
:10084000EAEBF5E402C005900D92A034B107D9F7A8
:1008500023E0A0E4B2E001C01D92A230B207E1F7AC
:100860000E94A7140C94C5220C940000FF93EF93F0
:10087000E0914002F0914102309709F00995EF9123
:10088000FF910895FC018591803011F0EFDFFBCFDF
:100890000895FF27E0E230E247FF0CC0419597FF43
:1008A00009C0EDE26095709580959095611D711D70
:1008B000811D911D27FF02C0219530E350E2AA2738
:1008C000660F771F881F991FAA1FA41710F0A41B7B
:1008D00063955A95A9F7AA3008F0A95FA05DAF9378
:1008E000F395611571058105910541F7ED3211F41C
:1008F000EF93F395F21718F43F93F395FBCF8F9195
:10090000B5DFFA95E1F70895E991F9918591803085
:1009100021F0853219F0AADFF9CF089520E0E8949C
:1009200055915532C1F3503311F4689455915A33AF
:1009300048F4505390F3220F022E220F220F200D65
:10094000250FF4CF0EF4219589919991533619F31F
:10095000533729F1533559F1BC0188279927E89479
:100960005C3621F48991999168945591543639F403
:1009700046EF7EF077FF0DC08FEF9FEF0AC055372F
:100980004AE039F0583540E121F0523642E009F0B2
:100990000895FF93EF937DDFEF91FF91B7CFFF9322
:1009A000EF93FC0181918030B9F360DFFBCFFF93BF
:1009B000EF9368DFF1CFDF93CF93CDB7DEB7259606
:1009C000A3DFCF91DF91089523E042E061E00E9430
:1009D0003905089581E0089581E008950E94EC04AE
:1009E000089508950E94F1040895A5E0B0E0EBEFAA
:1009F000F4E00C94452249835A833091470289815F
:100A00009A81311119C0662399F0222389F00E943E
:100A10004C0B182F682F89819A810E94280B6981BD
:100A20007A81812F0E94CD112596E3E00C946122FA
:100A30000E943A0B182FF3CF0E944C0B69817A81E8
:100A4000F1CFFC01262F4081518162817381848125
:100A50000E94F504089581E00895CF93DF93EC019F
:100A600060E00E942105BE010E94F204DF91CF9157
:100A70000895E1E0F0E0DF0102C0AA0FBB1F6A9514
:100A8000E2F7BD01DF0102C0AA0FBB1F4A95E2F7E2
:100A9000AD01462B572B02C0EE0FFF1F2A95E2F740
:100AA0009A01282339232417350719F48E2B9F2BFD
:100AB0000895E095F0958E239F2308950E940B13CF
:100AC00008950E940F13089508950E94F6090E9448
:100AD00064052FEF84E39CE0215080409040E1F7D3
:100AE00000C0000008950E9465050E949A1A0895AA
:100AF0000E9465050E94BE1A08950F931F93CF931D
:100B0000DF938C0161E00E942105EC01B8010E9495
:100B1000EE04811106C080E0DF91CF911F910F910B
:100B20000895B801CE010E947B188823A1F3B80173
:100B3000CE010E94B414882371F3B801CE010E9443
:100B4000ED17882341F3F80182818823D9F0CB3552
:100B5000FDE5DF07A9F170F4C130ECE5DE07B1F087
:100B6000CF3DFCE5DF0721F1C115DC4559F40E94BA
:100B70007305D1CFCD35EDE5DE07F9F020F1C83AA8
:100B8000DD45C1F0C8010E94EA04C6CF9091BE02C3
:100B9000892F8E7F90FF81608093BE0280FF05C009
:100BA0008EEF91E00E944204B6CF8CEE91E0FACF36
:100BB0000E9419100E947805AECF0E94570FE2CF15
:100BC0000E94610FDFCF0E94650FDCCF0E94CB191E
:100BD0000E94280608950E942C060E94D0190895AC
:100BE000829590E09C01220F331F220F331F2C7C33
:100BF00095958795959587958373282B30E0C90146
:100C0000880F991F8A7A359527952575822B089527
:100C1000CF93DF93D92F0E94F005C82F8D2F0E940C
:100C2000F0059C2FDF91CF91089508950E9415063D
:100C3000089581E008950E94190608950895CF93BC
:100C4000C82F0E9416068C2F0E941B06CF91089574
:100C500080E00E941F0608950E94D7180E941F0678
:100C60000895CF930E94D718C82F809142028C1705
:100C700089F1C09342020E945B1A60934302709311
:100C8000440280934502909346028091BE0282FF07
:100C90001EC080FF1CC086E192E00E944204809149
:100CA000BE0280FF14C01F92CF9381E192E09F9318
:100CB0008F930E94DB048091BE020F900F900F90E3
:100CC0000F9080FF04C08FE092E00E9442048C2FBE
:100CD0000E941F06CF910895ABE0B0E0E2E7F6E096
:100CE0000C9446224F83588769877A878B876111D6
:100CF0000E948F0E1E821D8285E0FE013796DE0166
:100D0000119601900D928A95E1F78C819D81892B36
:100D100061F449815A816B817C818D819E810E9421
:100D2000B80D2B96E2E00C94622289819A81892386
:100D30008F3F79F3CE0101960E942B058111E9CFF7
:100D4000F0CFFC01808191810E947E0B0895CF93AA
:100D5000C82F8823C9F08238C9F40E94D71881FDB2
:100D600013C089E30E94470E0E94B00E2FEF87EE5A
:100D700093E0215080409040E1F700C0000089E3FB
:100D80000E944F0E0E94B00ECF9108958338A1F4B7
:100D90000E94D71880FDF8CF83E50E94470E0E947D
:100DA000B00E2FEF81EE94E0215080409040E1F7AB
:100DB00000C0000083E5E4CF8438A1F40E94D71876
:100DC00082FDE2CF87E40E94470E0E94B00E2FEF13
:100DD00081EE94E0215080409040E1F700C0000097
:100DE00087E4CECF8CEF8C0F813AB8F48C2F0E9421
:100DF000AA178111C9CF6C2F809100019091010138
:100E00000E946619882329F08C2F0E944F0E0E94A1
:100E1000B00E8C2F0E94470EB5CF80E28C0F883029
:100E200048F4C77081E001C0880FCA95EAF70E94B4
:100E3000720EA8CFEBE5EC0FE33040F4F0E0E35C9A
:100E4000FE4F808190E00E9428199ECFC85AC7317A
:100E500008F09ACFEC2FF0E0EE0FFF1FE15FFE4F9E
:100E6000808191810E943E198FCF882309F44DC063
:100E7000823879F40E94D71881FF47C089E30E9425
:100E8000470E0E94B00E89E30E944F0E0E94B00EE2
:100E90000895833859F40E94D71880FF36C083E53F
:100EA0000E94470E0E94B00E83E5EECF843859F4BD
:100EB0000E94D71882FF29C087E40E94470E0E9433
:100EC000B00E87E4E1CF9CEF980F913AE8F290E200
:100ED000980F983050F4877091E001C0990F8A956F
:100EE000EAF7892F0E94780ED1CF9BE5980F9330B7
:100EF00028F490E080E00E9428190895885A8731EC
:100F000020F490E080E00E943E1908951F93CF9353
:100F1000DF93182FEB010E94A706209739F4812F49
:100F20000E943507DF91CF911F9108958FE99FE0CF
:100F30000197F1F700C000002197EFCF70E060E06B
:100F4000893311F460E570E00E94860708958823D4
:100F500021F00E94720E0E94B00E0895882321F0A5
:100F60000E94780E0E94B00E0895B0E0A0E0EBEB76
:100F7000F7E00C943F226C01D62FC72FFC011281A1
:100F8000F580F2949FE0F9220E94680EE82E8823F3
:100F9000B9F0E12E1123A1F08C2F807F803421F055
:100FA00080E28D0F8830D0F08091E00282FF16C081
:100FB00082E00E94130F0E94680E91E0E82EE9265D
:100FC000BC2EB2948FE0B822FBE0FB1508F468C099
:100FD000EB2DF0E0E953FD4D0C943022E12CF0CFE5
:100FE0000C2F0F70C07F11F00295007F112399F034
:100FF000002359F080E28D0F883010F0D11107C026
:10100000802F0E94720E0E94B00E8D2F41C0802F43
:101010000E94820EF8CF8D2F0E943507002309F41D
:101020003FC080E28D0F883010F0D11104C0802FB6
:101030000E94780E03C0802F0E94880E0E94B00E7E
:101040002FC00C2F0F70C07FC03211F00295007FAF
:10105000DD2381F0D13009F463C0112309F46DC0A0
:10106000FF2009F463C0F601858180FFCECF8F7029
:1010700085835CC08091E00282FD33C0112359F06A
:10108000002329F0802F0E94720E0E94B00E80E093
:101090000E94A70605C080E00E9435070111C7CF56
:1010A000EB2DE850FF0B349720F40E94D7180E94D4
:1010B0001F06EE2089F00E94640E80FD0DC0F6012F
:1010C00012820E945E0E0E94860AC6010E94BA0920
:1010D0000E945E0E0E94960ACDB7DEB7E9E00C943E
:1010E0005B22112389F0F11006C00E94920E802B22
:1010F0000E94A707D5CF21E0F212F7CF0E94920EEF
:10110000802B0E94990ECCCFF11006C00E94A60E33
:10111000802F0E94AE07C4CF31E0F31609F2F6CF5C
:10112000112331F085E08F1508F4BACF802FE0CF7E
:1011300094E09F1508F4B4CFEBCFFF2049F3D933E7
:1011400049F4FFEF27EE33E0F15020403040E1F763
:1011500000C000008D2F0E943507A2CF8C2F8695EE
:101160008695837069F0813009F09ACF8D2F9C2F7E
:101170009370111102C090E080E00E943E1990CF60
:101180008D2F9C2F9370111102C090E080E00E947F
:10119000281986CF8C2F8370A1F5111181CF4D2F87
:1011A000429546954770440F440F2D2F2F7030E025
:1011B000042E02C0220F331F0A94E2F790E080E071
:1011C000D4FF09C08FE090E002C0880F991F4A95B4
:1011D000E2F780959095C695C695C370822B932BA8
:1011E000C23049F058F4C13019F00E94570A58CF64
:1011F0000E944E0A55CF0E94600A52CF0E944B0AAD
:101200004FCF8695112311F08C2F8170882309F41C
:1012100047CF4D2F429546954770440F440F2D2FD1
:101220002F7030E0042E02C0220F331F0A94E2F721
:1012300090E080E0D4FF09C08FE090E002C0880F0A
:10124000991F4A95E2F780959095C695C695C3700B
:10125000822B932BC23049F058F4C13019F00E9410
:10126000C10A1ECF0E94B80A1BCF0E94CA0A18CF1B
:101270000E946C0A15CFCF70112329F08C2F0E9489
:10128000860A8D2F35CF8D2F0E94AE078C2F0E949E
:10129000960A06CFD23F51F160F4D03FB9F0D13F6A
:1012A00081F0112309F449C0F110AFCE8C2F8F715A
:1012B00021C0D33F11F1D43FA1F78091E00282FD1C
:1012C00026C08C2F8F71112311F314C0112349F004
:1012D00084E08F1508F4E4CE8C2F8F710E94A80A49
:1012E000DFCE95E09F1508F4DBCEF6CF8C2F8F7103
:1012F0001111CDCF0E94860AD3CE112329F08C2F55
:101300008F710E947A0ACCCE0E94750AC9CE112331
:1013100049F0CF718C2F0E94860A63E08C2F0E94C7
:10132000F50EBECE81E00E94130FE1E0EF1508F04C
:10133000B7CE82E00E94130FB3CEF11000CF8C2FF6
:101340008F71A5CF0F931F93CF93DF93EC0168812B
:1013500079818A810E94890B8C010E94D30A0E94A4
:101360004A0AB801CE010E94B507DF91CF911F91C3
:101370000F910895CF93DF93EC018B819C81892B92
:1013800029F08881998189238F3F51F4DF91CF9192
:101390000895CE010E94A209CE010E942D05F6CF2C
:1013A000CE010E947D058111F4CF0E94680E882332
:1013B00069F38A81882351F38091E00282FFE6CFAE
:1013C00082E00E94130FE2CF90E080E00E94281993
:1013D00090E080E00E943E190E948F0E0E94B00EA5
:1013E00008950E94570E0E94E40908950E947F0EFE
:1013F0000E94F109089592959F70963091F058F4EB
:10140000925F9F70923058F4803F19F030F4883E1C
:1014100030F481E008959A5FF4CF843FD1F380E007
:101420000895883EB0F3813FD1F7F3CFFC0183816B
:101430009481892B29F08081918189238F3F11F438
:1014400080E00895808191810E947E0B0E94FB09BB
:101450000895A5E0B0E0EFE2FAE00C94462225966C
:10146000E2E00C946222A6E0B0E0E9E3FAE00C943A
:1014700046222696E2E00C94622208950E943D0ADC
:1014800008950E943E0A90935F0280935E020E943C
:10149000E409089508950E94410A089520915E028A
:1014A00030915F02822B932B0E94410A0895209174
:1014B0005E0230915F02822393230E94410A0895C5
:1014C00020915E0230915F02822793270E94410A99
:1014D00008950E94E40408950E94690A90935D02B1
:1014E00080935C020E94E409089590E080E00E94ED
:1014F0006C0A089521E030E0A90102C0440F551F95
:101500008A95E2F7CA010E946C0A089521E030E052
:1015100002C0220F331F8A95E2F780915C029091FE
:101520005D02822B932B0E946C0A089521E030E02B
:1015300002C0220F331F8A95E2F7209530958091E3
:101540005C0290915D02822393230E946C0A0895AD
:1015500021E030E002C0220F331F8A95E2F780912C
:101560005C0290915D02822793270E946C0A089585
:1015700020915C0230915D02822B932B0E946C0AB9
:10158000089520915C0230915D02822393230E9492
:101590006C0A089520915C0230915D0282279327A6
:1015A0000E946C0A08950895262F277091E001C0CB
:1015B000990F2A95EAF723E0769567952A95E1F742
:1015C000660F771F660F771FFA01E60FF71F50E0CF
:1015D00040E0682F70E08191DF0111979B01042E9C
:1015E00002C0369527950A94E2F7217021952827A5
:1015F000292328272C934F5F5F4F4430510559F71B
:101600000895A82FA77023E0969587952A95E1F76E
:10161000880F991F880F991FFB01E80FF91F50E0F1
:1016200040E080E0219130E00A2E02C036952795F7
:101630000A94E2F721703327042E01C0220F0A9486
:10164000EAF7822B4F5F5F4F4430510559F70895F9
:10165000262F943070F48A3060F4682F70E08AE0AE
:10166000989F600D711D112448E452E0822F0E9462
:10167000D40A0895292F943068F48A3058F490E001
:1016800068E472E03AE0239F800D911D11240E94CE
:10169000010B089580E00895B0E0A0E0E2E5FBE0F2
:1016A0000C943F227C0100915C0210915D028091BC
:1016B0005E0290915F02082B192BCFE0D0E0CC2482
:1016C000C394D12CBC2EC6010C2E02C0880F991FCA
:1016D0000A94E2F780239123892B49F4219790F70C
:1016E000B12C8B2DCDB7DEB7E9E00C945B22B701AE
:1016F0008C2F0E94E811019789F3F3CFCF93DF93EA
:10170000EC010E944C0BBE010E94E811DF91CF91C9
:1017100008951F93CF93DF93EB0190914702992394
:1017200039F0CB010E947E0BDF91CF911F9108957C
:10173000882369F0CB010E944C0B182F682FCE0133
:101740000E94280BBE01812F0E94E811EDCFCB0132
:101750000E943A0B182FF6CF1F93CF93DF93C091BF
:10176000600216E0809161028C1304C0DF91CF917A
:101770001F910895D0E01C9FF0011D9FF00D1124D2
:10178000EE59FD4F40815181628173818481958141
:101790000E94330A2196C770E5CF40919202509182
:1017A00093026091940270919502809196029091BB
:1017B00097020E94330A08951F93CF93DF9380917D
:1017C0009702807F09F049C080919402882309F430
:1017D00044C080916002C091610260919202709158
:1017E0009302A0919502B0919602D62FD72316E0CE
:1017F000C81799F190E0109711F0DF3F19F40196A6
:101800008770F6CF189F9001199F300D1124F901B0
:10181000EE59FD4F41814713F2CF40814613EFCF80
:1018200042814111ECCF438154814A1B5B0B483C00
:10183000510528F7809197028F70806180939702FD
:10184000F901E959FD4F80818F708061808382E9C1
:1018500092E00E94BA090E94AC0BDF91CF911F91D8
:101860000895A1E1B0E0E7E3FCE00C943E228C0196
:1018700085E0F801DE011D9601900D928A95E1F751
:10188000F801E28082E9C82E82E0D82E60919502AC
:10189000709196026115710509F44EC19091920202
:1018A00020919302892F82238F3F09F445C1408103
:1018B0005181A380B480F0909402F501E61BF70BF0
:1018C000FF2009F4EAC080919702382F307FE83C6E
:1018D000F10508F0A3C031116DC0FE2C251316C010
:1018E000941314C0E11012C08F708061809397022E
:1018F0000E94CD0BC6010E94BA0980919702F8019F
:1019000085838F2D6196EAE00C945A22A114B104CC
:1019100029F0842F85238F3F09F027C180E0F82F1D
:10192000F170DF2E80FF3CC0809160022091610247
:1019300036E0821315C04D875E878D859E850E9497
:101940007E0B292F22952F702230F0F0243018F5CD
:101950009F70F1F0F8019581907FD1F4D12C1EC0D9
:1019600090E0389FF001399FF00D1124EE59FD4FA2
:101970006181651306C06081641303C06281E61251
:101980000FC001968770D5CF9F7011F0882331F377
:10199000805E883018F3C8010E94BA09FD2CB1CFCF
:1019A000EE2009F4AECF8091970281608093970278
:1019B000F12CA7CF251306C0941304C0F801EE2024
:1019C00009F487C0C8010E94160A882319F1EE2085
:1019D00009F180919702803270F02091920230914B
:1019E000930238872F831986BB86AA868C87CE01FF
:1019F00007960E94BA0986E0F801A2E9B2E00190D8
:101A00000D928A95E1F70E94DC0B0E94CD0BFF241A
:101A1000F39477CFC8010E94BA09F9CF311113C0EE
:101A20007A2DB98AA88A6E2D89890E94290A82E9AD
:101A300092E00E94BA0986E0F60111928A95E9F7D0
:101A40000E94CD0BB5CF25130FC094130DC0E1102C
:101A50000BC0F8018583C8010E94BA0986E0F6012F
:101A600011928A95E9F74DCFC8010E94160A882382
:101A700089F2EE2079F280919702803208F4BBCF90
:101A800020919202309193023A8329831B82BD8276
:101A9000AC828E83CE010196ACCFE83CF10508F014
:101AA0003EC0FE2CEE2009F4B5CF25132AC09413B6
:101AB00028C08091970280FD1BC0982F907FC1F0B5
:101AC000F8018583903F31F0982F907F905F8F7061
:101AD000892B8583C8010E94BA0986E0F801A2E932
:101AE000B2E001900D928A95E1F70E94CD0B09CFEB
:101AF00086E0F801A2E9B2E001900D928A95E1F743
:101B000000CFC8010E94160A811175CF80919702FB
:101B1000816080939702C8010E94BA09F2CE7A2DA3
:101B2000B98AA88A6E2D89890E94290A86E0F60161
:101B300011928A95E9F7D9CFEE2009F46BCFC8014D
:101B40000E94160AF82E882309F464CF86E0F80173
:101B5000A2E9B2E001900D928A95E1F782E992E064
:101B60000E94A1060E94DC0BC0CF81E08E25D7CE5B
:101B7000ACE0B0E0EEEBFDE00C9445224F835887DB
:101B800069877A878B879C87CE0107960E94310CE4
:101B9000882369F08A859B85892B39F04F81588588
:101BA000842F85238F3F09F06BC016E05FC086E06D
:101BB000FE013796DE01119601900D928A95E1F7AC
:101BC0008A859B85892B89F38F81988589238F3F0F
:101BD00061F32091610230E0C90101968770992775
:101BE000409160024817190671F40E94F60910929C
:101BF00061021092600286E0E2E9F2E0DF011D92EC
:101C00008A95E9F7D2CF96E0929FD001939FB00DCD
:101C10001124AE59BD4FFE01319601900D929A9557
:101C2000E1F7809361020E94AC0BBFCF819FC0019E
:101C300011248E599D4F0E94310C8823E9F0E091C8
:101C400060021E9FF0011124EE59FD4F4081518129
:101C500062817381848195810E94330A8091600240
:101C600090E00196877099278093600280916002CE
:101C7000909161028913DACF2C96E3E00C946122F3
:101C800069857A858B859C850E94330A8ECF682F63
:101C900080910001909101010E949C190895682F84
:101CA00080910001909101010E949F1908958091F7
:101CB0000001909101010E94A21908958091A00253
:101CC00085958595859508958091A00287700895E2
:101CD0009091A002977081E009F480E008958091CE
:101CE000AB0208959091AB02892B8093AB020895CB
:101CF00080959091AB0298239093AB020895109237
:101D0000AB0208959091AA02892B8093AA020895AC
:101D100080959091AA0298239093AA020895109218
:101D2000AA0208958091A102089508950E94950E37
:101D300008959091E00292FF08C09091A102981737
:101D400021F08093A1020E94960E08958091A10235
:101D5000882329F01092A10280E00E94960E089537
:101D6000CF93DF93E0910001F09101018091AB02EC
:101D70008083E0910001F091010180819091AA029D
:101D8000892B80839091A102992381F0E091000139
:101D9000F09101018081892B8083809100019091D5
:101DA00001010E94541981110E94A60EC0910001E8
:101DB000D091010148E050E068E972E0CE010E9454
:101DC0006D22892B59F088E0FE01A8E9B2E001906C
:101DD0000D928A95E1F7CE010E94E418DF91CF9130
:101DE000089508950E94F10E08959091E00292FFE7
:101DF00011C098E0899F90011124622B6093A0028A
:101E00000E94860A8091A0028595859585950E94FD
:101E1000F20E08950E94860A08951092A00280E0B2
:101E20000E94F20E08959091A002809589238093DC
:101E3000A002282F277091F4282F082E000C330BB6
:101E40009217130659F09091E00292FF07C0859512
:101E5000859585950E94960A0E940D0F0895CF934F
:101E6000C82F8091E00282FB992790F99C17E9F036
:101E7000C0FB82F98093E0028091DF029091E00242
:101E80000E94930F82E00E94130F8091BE0280FF98
:101E90000CC01F92CF9381E292E09F938F930E9498
:101EA000DB040F900F900F900F90CF9108958091C9
:101EB000E00282FB882780F991E089270E942F0F9A
:101EC000089581E00E942F0F089580E00E942F0F57
:101ED00008956FEF7FEF90E080E00E94AF220895B9
:101EE00090E080E00E948B2221E0883E9E4F09F026
:101EF00020E0822F089582E090E00E9483220895DE
:101F000083E090E00E9483220895CF9384E090E0E4
:101F10000E948322C82F82E290E00E948322982FA1
:101F20008C2FCF910895CF93C92F682F84E090E034
:101F30000E9491226C2F82E290E00E949122CF9128
:101F40000895AB01BC018FE090E00E94A3220895A8
:101F5000AB01BC0183E190E00E94A322089560E000
:101F600070E0CB010E94A80F089560E070E0CB0103
:101F70000E94A10F0E94AF0F089568EE7EEF90E0DF
:101F800080E00E94AF2260E082E090E00E94912217
:101F900060E083E090E00E94912210925F02109234
:101FA0005E0260E084E090E00E94912264E082E2C0
:101FB00090E00E94912260E085E090E00E949122F2
:101FC00060E086E090E00E9491226FEF87E090E071
:101FD0000E94912240E050E0BA0188E090E00E9427
:101FE000A32260E08DE090E00E94912240E050E06A
:101FF000BA0188E190E00E94A32260E087E190E0CE
:102000000E94912240E050E0BA018CE190E00E94F1
:10201000A32270E060E080E290E00E94AF2240E006
:1020200050E0BA0188E190E00E94A3220E94B50F1F
:1020300008950E94BD0F0895682F8EE090E00E94E1
:10204000912208950E945B1A6093BA027093BB02BA
:102050008093BC029093BD026093B6027093B70266
:102060008093B8029093B9020895089508950E944C
:102070003610089508950E943A10089581E89CE171
:102080000E94CD180E9435100E943710089581E0FB
:1020900008950E9447100895089508950E944C10D5
:1020A0000E944D1008950E94EC120E941E06089591
:1020B0000E94461A0E9408140E9453100E943B106E
:1020C0000895AAE0B0E0E7E6F0E10C943B220E941C
:1020D0001E142EEA822E22E0922E640110E0F601F8
:1020E000E190F1906F01812F0E9412131F5F143055
:1020F00009F449C0E816F90691F38091BE0281FD0A
:102100000E941B130E944910782E10E0812F0E941C
:1021100012137C01F401A190B1904F018A159B0527
:1021200061F1A826BF2400E0CC24C394D12CC501C2
:102130008C219D21892BC1F07720B1F00E831F8364
:1021400021E0C7018C219D21892B09F420E02887FB
:102150000E944F1A8160782F9A8789874E815F810C
:1021600068858A850E946C060F5FCC0CDD1C0A30E6
:10217000F1F6F4013297F182E0821F5F143031F6FC
:102180000E94221022C0E816F90609F0B6CF0E947C
:102190004F1A8C018091AC029091AD02081719077B
:1021A000A1F08FEF89838A831B820E944F1A81607E
:1021B000782F9D838C8349815A816B818D810E9408
:1021C0006C061093AD020093AC020E9431062A9671
:1021D000EDE00C945722CF93DF930E94ED11EC01B8
:1021E000811522E59207E8F5811531E5930708F09E
:1021F000A3C0883E910510F5803E910570F5883AA0
:10220000910570F4853A910508F078C08130910508
:1022100021F1009711F1049700F5D0E0C0E01DC056
:102220008F3B9105D0F7C85AD0E0CC0FDD1FC05CC2
:10223000DE4F0990D881C02DD4640FC0811540E5D0
:10224000940708F066C0C11580E4D80708F05EC0A6
:10225000CE019A9581159F4100F7CE01DF91CF9174
:102260000895811536E5930718F5811545E594071E
:1022700008F07BC0C11584E5D80708F071C09E0145
:10228000237033279C2F96959695C115D34508F456
:1022900058C0C1E0D0E002C0CC0FDD1F2A95E2F7A4
:1022A00030E2939FC0011124C82BD92BDA68D5CF17
:1022B000C1158AE5D80778F4C11529E5D20708F0D9
:1022C0005EC0C11538E5D30708F4A7CFDC2FCC27B3
:1022D000C06FD06AC2CFCE0190568115904208F0EF
:1022E0009CCF8D2F8F710E948F1290E0982F88279E
:1022F00088279F719C012C2BE9013FC0C55AD0E073
:10230000C259DE4FC881D0E0D064A7CFDF70D06A59
:10231000A4CF8370992721E030E002C0220F331F41
:102320008A95E2F7C695C69580E2C89FE001112420
:10233000C22BD32BDD6891CFD82FCC27C16FD06AA9
:102340008CCFC1E0D0E002C0CC0FDD1F2A95E2F7B0
:1023500020E2929FC0011124C82BD92BDC687DCFCD
:10236000DC2FCC27C46FD06A78CF0E948F12C82F81
:10237000D0E0DC2FCC27CC27DF71D0626ECF8C2F42
:102380008F700E948F1234E0D695C7953A95E1F789
:10239000CF709C2FEC01D06960CF972F7430A8F4D8
:1023A0006A3098F470E02AE0929F600D711D11244C
:1023B000FB0198E2899FE00DF11D1124EE0FFF1F34
:1023C000E455FF4F85919491089580E090E0089541
:1023D0000E94CD110E94EB10089582389105B9F149
:1023E000B0F48133910509F47DC048F48932910538
:1023F00009F46DC08A32910509F47BC008958533D4
:10240000910509F45FC08933910509F10895833E70
:102410009105D9F138F4803E910529F1823E91056C
:1024200079F10895863E9105D9F1873E910509F429
:102430003EC0843E910541F52091E00221FF24C079
:102440008091DF0284FD19C087EE90E0089520910D
:10245000DF02237009F05AC02091E00223FF14C06C
:1024600089E290E008952091DF0220FD38C030918C
:10247000E00230FF09C024FF43C090E080E00895EF
:102480002091DF0222FDF7CF08952091DF0222FD87
:102490003AC03091E00230FD39C024FFF5CFEDCFD6
:1024A0002091DF0223FFF0CF24FDE7CFCDCF209195
:1024B000DF0223FD2EC03091E00231FFEECF84EE2B
:1024C00090E008952091DF0225FFDECFC9CF209153
:1024D000DF0225FD21C02091E00223FFD5CF89E353
:1024E00090E0D2CF2091DF0226FFCECF8AE290E0AB
:1024F00008952091DF0226FFC7CF81E390E0089581
:1025000083EE90E0089582EE90E0089580EE90E0F2
:10251000089586EE90E0089585E390E00895909107
:10252000DF0292FF06C0282F28712830F9F4877F38
:10253000846093FF06C0282F28712831F1F4877E2C
:1025400084612091E00220FF06C0382F38713830B6
:10255000D9F4877F816021FF06C0282F2871283198
:10256000D1F4877E816194FD877E0895282F2471A0
:102570002430F9F68B7F8860DCCF282F247124313A
:1025800001F78B7E8861DDCF382F3171313019F73B
:102590008E7F8860E0CF282F2171213121F78E7E38
:1025A0008861E1CF0E94690F08950E941E148FE395
:1025B0009CE90197F1F700C000000E941E1480E022
:1025C0000E94121380FF04C00E94D2120E949A1A25
:1025D00008950E94D51208950E94700F811102C0C3
:1025E0000E9419100E947B0F8093BE020E94850FEB
:1025F0009093E0028093DF020E94E9120E94800F14
:1026000090E00E944B0A80915C0290915D020E94D2
:10261000690A089508950E940A13089508950E9472
:102620000E130895E82FF0E0EE0FFF1FE751FD4F66
:10263000808191810895B0E0A0E0E1E2F3E10C94A3
:10264000402286E492E00E94420489EEE82E82E075
:10265000F82ED0E0C0E091E4C92E92E0D92E08E334
:1026600012E0DF93CF93DF92CF920E94DB048EE3E0
:1026700092E00E944204F701819191917F010E94B2
:1026800008069F938F931F930F930E94DB0486E3AA
:1026900092E00E94420421968DB79EB708960FB62D
:1026A000F8949EBF0FBE8DBFC430D105D1F6CDB713
:1026B000DEB7E8E00C945C2280EA8A95F1F7089591
:1026C00000C008950E945C130895F894E82FE295E5
:1026D000EF70F0E031A1282F2F7081E090E001C071
:1026E000880F2A95EAF7982F9095932391A392A1AA
:1026F000892B82A378940895CF93DF9387E90E9472
:10270000651386EC0E94651384E30E94651385E3DC
:102710000E946513C1E7D1E089918F3F11F00E94BB
:10272000651381E0CB37D807B9F7DF91CF910895D2
:10273000AF92BF92DF92EF92FF920F931F93CF93CE
:10274000DF938C01D62EC62FD0E0CE0185589E4F48
:102750007C01FC0120812F3F09F44DC0F894E22F49
:10276000E295EF70F0E031A12F7081E090E001C0C0
:10277000880F2A95EAF7932F982B91A392A1809521
:10278000892382A378940E946013E1E7F1E04BE78C
:1027900051E021E030E0B12CA12C61916F3FA9F113
:1027A000A62FA295AF70B0E090968C9190E06F70DC
:1027B00002C0959587956A95E2F780FD26C0C9010C
:1027C000A82AB92A220F331F4E175F0731F7F701E6
:1027D00080818F3F11F00E94651361E0A114B10464
:1027E00009F460E08D2D0E946213CC0FDD1FC00F35
:1027F000D11FB982A882DF91CF911F910F91FF90D5
:10280000EF90DF90BF90AF90089590E080E0D8CF38
:102810000E947C1388E0E9EEF2E0DF01982F1D9220
:102820009A95E9F7E1EEF2E0DF011D928A95E9F76A
:1028300084E00E9459140E945E050895A8E0B0E06B
:10284000E4E2F4E10C9443228E010F5F1F4F88E015
:10285000F80111928A95E9F7F12C6F2DC8010E94B9
:102860009813F394F4E0FF12F8CF48E050E0B80179
:1028700081EE92E00E946D2221E0009709F420E0B1
:10288000892B41F088E0F801A1EEB2E001900D92B1
:102890008A95E1F744E069EE72E081EE92E00E94F1
:1028A0005A14182F0E946105812F2896E5E00C9498
:1028B0005F220895CF92DF92EF92FF921F93CF9302
:1028C000DF936C017B01C42F222349F081E08093C8
:1028D000C1020E944F1A9093C0028093BF021091D0
:1028E000C10211110AC010E0812FDF91CF911F9119
:1028F000FF90EF90DF90CF9008958091BF0290916C
:10290000C0020E94671A059770F3D0E0CC0FDD1F5C
:10291000AE01B601C7010E946D22892B41F0AE01C4
:10292000B601C7010E947A221092C102DDCF10E0E9
:10293000FBCF0E94FD1C0E9458100E940A1D0895A2
:102940000E940F1D0E9461100E942D1D08950E947B
:10295000E8190E94E31C0E943E100E9499140E94F4
:10296000A0140E944E10FBCFCF93DF93EC01FB012C
:102970008281882309F464C1C430FDE5DF07E0F5F6
:10298000CB3F9CE5D90730F49E0122503C452431D1
:102990003105D8F50E94850F9093E0028093DF0205
:1029A000C231ECE5DE0709F41FC108F06EC0C93082
:1029B0008CE5D80709F4F2C008F03FC0C530ECE55B
:1029C000DE0709F4DBC058F5C3308CE5D80709F4FD
:1029D000CDC008F0CFC08091DF028160C230DC45FD
:1029E00009F4AEC08091DF029091E0020E94930F43
:1029F0000E94F60980E009C0C63AEDE5DE0751F213
:102A000038F4C2369DE5D90729F2DF91CF910895B8
:102A10009E012E5A3D4523303105B8F7BBCF80913A
:102A2000DF028062C730FCE5DF0709F489C008F4E3
:102A3000B1C08091DF02806483C0CD309CE5D907AE
:102A400009F4BAC070F48091DF028E7FCB30FCE5D0
:102A5000DF0709F475C008F4A7C08091DF028D7FFD
:102A60006FC0CF309CE5D90709F4B6C008F4A8C000
:102A7000C031FCE5DF0709F4B3C0C131DC4509F022
:102A8000B1CF8091DF028F7B5BC0C1159DE5D90777
:102A900009F4B4C098F5CB3FFCE5DF0709F472C038
:102AA000B8F4C4319CE5D90709F4B6C008F4A2C053
:102AB000C531DC4509F096CF8091DF0282FB992772
:102AC00090F921E0922790FB82F990FB83F938C0BE
:102AD000CD3F8CE5D80709F477C008F457C0CE3F46
:102AE000ECE5DE0709F474C08091E0028360CF3F1B
:102AF000DC4509F077CF8093E00274CFC2368DE5D4
:102B0000D80709F496C068F4C230EDE5DE0709F491
:102B10008CC008F477C0C330DD4509F063CF80E096
:102B200085C0CE3A9DE5D907E9F068F49091DF02BF
:102B3000892F8E7F90FF8160C63ADD4509F052CF24
:102B40008093DF024FCFCF3A8DE5D80789F1C03BA4
:102B5000DD4509F047CF9091E002892F877F93FFF1
:102B60008860C9CF8091E0028860C5CF8091DF0284
:102B70008260E6CF8091DF028460E2CF8091DF0245
:102B80008860DECF8091E0028160B5CF8091E00265
:102B90008260B1CF8091DF028061D2CF0E94F609BE
:102BA0008091DF028068CCCF8091DF028C60C8CF3B
:102BB0008091E002877F9FCF8091DF028B7FC0CF23
:102BC0008091DF02877FBCCF8091E0028E7F93CF20
:102BD0008091E0028D7F8FCF8091DF028F7EB0CF1A
:102BE0008091DF028F7DACCF0E94F6098091DF02D9
:102BF0008F77A6CF8091DF02837FA2CF8091E00202
:102C00008C7F79CF8091E002982F909591708E7F84
:102C1000892B90FB81F96FCF0E94F6099091DF021A
:102C2000892F97FB87F980588BCF81E00E941C1079
:102C3000D9CE9091DF02892F8F7E94FF806180CF63
:102C400081E0E3CECF93C82F1F928F9383E692E06B
:102C50009F938F930E94DB0481E090E002C0880F75
:102C6000991FCA95E2F70E944B0A0E94F6090F903D
:102C70000F900F900F90CF910895EF92FF920F93C6
:102C80001F93CF93DF938B3109F410C108F0B0C0CC
:102C90008B3009F4CCC008F082C0863009F4DAC069
:102CA00048F4853009F4B2C08CEF95E00E944204EC
:102CB00080E0E0C0873009F4E2C08830A9F70E94C4
:102CC000800F1F928F938FED95E09F938F930E94BB
:102CD000DB040E947B0F83FB992790F91F929F933F
:102CE00082FB992790F91F929F9381FB992790F976
:102CF0001F929F93982F91701F929F931F928F9373
:102D000086E995E09F938F930E94DB040E94850FD4
:102D100093FB222720F91F922F9387FB222720F96C
:102D20001F922F9386FB222720F91F922F9385FB5A
:102D3000222720F91F922F9384FB222720F91F922C
:102D40002F9383FB222720F91F922F9382FB2227A8
:102D500020F91F922F9391FB222720F91F922F9386
:102D6000292F21701F922F9381FB222720F91F9278
:102D70002F93282F21701F922F939F938F9387E972
:102D800094E09F938F930E94DB048DB79EB78A9641
:102D90000FB6F8949EBF0FBE8DBF81E06BC080312F
:102DA00009F49CC080F48E3009F07ECF9091BE0271
:102DB000892F8B7F92FF84608093BE0282FF8BC03D
:102DC00087E296E07FC0863109F498C0893109F026
:102DD0006BCF8FE791E09F938F9383ED92E09F936A
:102DE0008F930E94DB040F900F900F900F90D5CF20
:102DF0008A3249F190F4873211F128F48E3108F4C7
:102E000053CF8D511DC0893209F04ECF8AE696E02E
:102E10000E9442040E947305C0CF833468F48A3351
:102E200008F091C0853359F0883309F03DCF81EF28
:102E300092E00E944204B1CF833409F035CF80E0A4
:102E40000E942216AACF8AE896E00E9442040E94BD
:102E50001910A3CF8091BE02807F8093BE0286EDC1
:102E600092E00E94420486E896E00E94420481E0DB
:102E70008093C202CDB7DEB7E6E00C945E2290915B
:102E8000BE02892F8E7F90FF81608093BE0280FFFB
:102E900003C08EE596E0CDCF81E596E00E94420426
:102EA0008091BE02817F8093BE0277CF9091BE0257
:102EB000892F8D7F91FF82608093BE0281FF08C0C1
:102EC00084E496E00E9442048091BE028160EBCFD0
:102ED00086E396E0AECF87E196E0ABCF9091BE025D
:102EE000892F877F93FF88608093BE0283FF03C092
:102EF0008BE096E0E7CF8EEF95E09BCF0E945B1AC8
:102F0000162F072FF82EE92ED091DE02C0910E0168
:102F10000E94D718EF92FF920F931F931F92DF9397
:102F20001F92CF931F928F9388E692E09F938F9387
:102F30000E94DB048DB79EB70C960FB6F8949EBF27
:102F40000FBE8DBF2ACF89537BCF80E008950E94AA
:102F5000A5170895CF93C82F8091C202882331F01E
:102F6000813099F01092C20280E00DC00E946F0E75
:102F70008232D1F78C2F0E94A517811119C08C2F96
:102F80000E943D168170CF9108950E946F0E82328B
:102F900089F38C2F0E94A717811119C0C431C9F081
:102FA00050F4CB3061F08DE592E00E94420413C0F2
:102FB00081E090E0E7CFC93261F0C833A1F786ED38
:102FC00092E00E9442048FE592E00E94420481E078
:102FD000D9CF1092C20280E0D5CFCF93DF93EB011F
:102FE00086319C4511F50E946F0E9A81992399F0C4
:102FF0008A7A91E009F490E09093C302811109C0AC
:1030000089E20E94470E0E94B00E80E0DF91CF91CE
:10301000089585E3F6CF8091C302811104C089E24F
:103020000E944F0EF0CF85E3FBCF81E0EFCF0F93EF
:103030001F93CF93DF93C42FD22FFC01828188236B
:10304000C9F04093C6020E944F1A9093C502809324
:10305000C40280E28C0F883040F4C77081E001C068
:10306000880FCA95EAF70E94A707DF91CF911F91B9
:103070000F9108951091C602141332C08091C402BA
:103080009091C5020E94671A883C910548F5C0E2FC
:10309000CD0F1D17B9F080E2810F883040F4177012
:1030A00081E001C0880F1A95EAF70E94AE07C83088
:1030B00048F481E09D2F977001C0880F9A95EAF738
:1030C0000E94A707802F0E949E07C83070F6D77015
:1030D00081E001C0880FDA95EAF70E94AE07C5CFFC
:1030E00080E28C0F883008F6C77081E001C0880F3D
:1030F000CA95EAF7F2CF0F939C01CB01243F4CE530
:10310000340759F1A8F4293DFCE53F0701F12A3DB8
:103110004CE53407D1F1283D3C4591F406E221EE1F
:1031200041EE68ED7CE50E94171880E00F9108954C
:10313000263FFCE53F07E9F0B0F0273F3C45F9F0BA
:10314000FC018281882339F11092C602EFCF07E299
:1031500025EE45EE69ED7CE5E6CF06E221EE40EE98
:1031600064EF7CE5E0CF07E225EE44EE65EF7CE519
:10317000DACF06E221EE42EE66EF7CE5D4CF07E23D
:1031800025EE46EE67EF7CE5CECF08E221E045EE86
:103190006AED7CE5C8CF81E0C9CF9093410280936E
:1031A000400208959093CC028093CB020895E09161
:1031B000CB02F091CC02309729F00190F081E02D04
:1031C0000995089580E00895EF92FF920F931F9361
:1031D000CF93DF938C01E091CB02F091CC0230973A
:1031E00091F10280F381E02D09958091BE0282FF6A
:1031F0002AC080FF04C083EA96E00E944204D0E027
:10320000C0E08DE9E82E86E0F82E8091BE0280FFB6
:103210000EC0F801EC0FFD1F80811F928F93FF926B
:10322000EF920E94DB040F900F900F900F90219669
:10323000C830D10551F78091BE0280FF04C08BE9F0
:1032400096E00E944204CDB7DEB7E6E00C945E2221
:103250002091C9023091CA022817390771F0909362
:10326000CA028093C902E091CB02F091CC02309760
:1032700021F00680F781E02D099508952091C7027D
:103280003091C8022817390771F09093C8028093D3
:10329000C702E091CB02F091CC02309721F000847C
:1032A000F185E02D099508959C012E5F3F4FAC01FB
:1032B000485F5F4F80E02417350709F40895F9014E
:1032C00091919F019923B9F38F5FF5CF662349F060
:1032D000FC01329608962191261729F0E817F90784
:1032E000D1F780E0089581E008959C01FC013296B9
:1032F0009FEF80E04191461751F09F3F19F4411133
:1033000001C0982F8F5F8630A9F79F3F09F4089579
:10331000290F311D97FD3A95F90162830895FC014B
:10332000329608962191261303C0DF0111971C9253
:10333000E817F907B9F708950E94751908950E94D2
:103340008F190895029626E0FC0111922A95E9F75B
:10335000089508950E94A9190895811106C081E079
:103360008093CD020E94AA19089582E0F9CF83E0EC
:103370008093CD020E94AA1908950E94AD19089564
:1033800081E08093CD020E94AA1908950E94C0197D
:103390000895089508950E94CA19089508950895FA
:1033A0000E94C9190895CF930E94CE190E941E143D
:1033B0000E94CF19C0E08C2F0E941213892B31F488
:1033C000CF5FC430C1F780E0CF91089581E0FCCF9A
:1033D00085B7806885BF85B7806885BF08951F92CF
:1033E0001FB61F9211248F939F93AF93BF93809129
:1033F000CE02811113C08091F1029091F202A0914E
:10340000F302B091F4024196A11DB11D8093F10227
:103410009093F202A093F302B093F402BF91AF91A4
:103420009F918F911F901FBE1F9018958091F90258
:10343000843031F10E94E6051092CE0288E190E0DE
:1034400020E40FB6F894A895809360000FBE2093F7
:10345000600083B7817F846083BF83B7816083BF4F
:103460007894889583B78E7F83BF0FB6F894A8951C
:1034700080916000886180936000109260000FBEB0
:1034800008950E94F6090E94EB05089582E084BD2C
:1034900093E095BD9AEF97BD80936E0008952FB786
:1034A000F8948091F1029091F202A091F302B09110
:1034B000F4022FBF08952FB7F8946091F102709134
:1034C000F2028091F3029091F4022FBF08959C01C3
:1034D0004FB7F8948091F1029091F202A091F3021B
:1034E000B091F4024FBF821B930B089578941F9202
:1034F0001FB61F9211248F939F93AF93BF93809118
:10350000F1029091F202A091F302B091F4020196BF
:10351000A11DB11D8093F1029093F202A093F302DA
:10352000B093F402BF91AF919F918F911F901FBEF6
:103530001F90189581E08093E00080E28093D8008E
:103540001092C9008FE19EE40197F1F700C00000DE
:1035500087E090EBDC018093020390930303A09338
:103560000403B093050388E19CE00FB6F894A89596
:10357000809360000FBE90936000FFCF88E19CE0D5
:103580000FB6F894A895809360000FBE90936000EA
:10359000FFCF8091DD0208950895CF93DF93EC0172
:1035A00081E08093E9008FEF9091E800815095FDD4
:1035B00006C095ED9A95F1F700008111F5CF809145
:1035C000E80085FF14C050E040E068E070E0CE0104
:1035D0000E949E1D8091E8008E778093E80088E02D
:1035E000FE01A5EDB2E001900D928A95E1F7DF9121
:1035F000CF9108958093D1027093D3026093D20249
:103600008091F902843001F582E08093E9008FEF28
:103610009091E800815095FD06C095ED9A95F1F7DF
:1036200000008111F5CF8091E80085FF0DC050E0CA
:1036300040E063E070E081ED92E00E949E1D809189
:10364000E8008E778093E8000895BC0184E00E9432
:10365000FA1A0895BC0183E00E94FA1A08950895A9
:1036600089EC96E00E9442048091F802811109C021
:103670000E942E1F0E948B1F8091E2008460809325
:10368000E200089585EC96E00E9442041092F80250
:10369000089581EC96E00E9442040E94C0190895AA
:1036A0008DEB96E00E9442046091F50281E0611189
:1036B00001C080E00E94B719089589EB96E00E944E
:1036C00042049091F90281E0943009F080E0609129
:1036D000F5020E94BD1908952091D0022F5F822F1C
:1036E00062E30E942422992319F02093D0020895C6
:1036F0001092D0028091D4028823F1F08091F902D7
:103700008430C1F49091E9009F702091EC00822FE9
:10371000817020FD80E8892B93E09093E9009091DF
:10372000EB0090FF04C09091EE0097FD08C08F70F1
:103730008093E9001092D40208951092F1009091C4
:10374000E80095FDFACF9091E80090FFF0CF9091BE
:10375000E8009E779093E800EACF42E061EC81E0D8
:103760000E94AA1E42E261EC82E00E94AA1E42E28E
:1037700061EC83E00E94AA1E9091F90281E09430EE
:1037800009F080E06091F5020E94AD1908958091E2
:10379000FB02833009F461C030F48130D1F1823012
:1037A00009F49EC008958A3009F48AC08B3009F468
:1037B0006FC0893009F050C08091FA02813209F05F
:1037C0004BC08091FE029091FF02029708F044C026
:1037D0008091E800877F8093E8008091E80082FF75
:1037E00037C09091F3008091F200029731F48091FC
:1037F000F100813011F0863021F48091F100809346
:10380000DD028091E8008B778093E8000E94DE1E45
:1038100023C08091FA02813AF9F48091E800877F11
:103820008093E8008091FE029091FF02892B61F461
:1038300068E085ED92E070E00E94ED1D8091E80067
:103840008B778093E800089560E090E080E0F3CF0C
:103850008091F9028111C1CF08958091FA02813AD5
:10386000D9F78091FE029091FF02892BA9F78091F0
:10387000E800877F8093E8008091E80080FFFCCF1C
:1038800080910E018093F1008091E8008E77BCCF8B
:103890008091FA02813201F78091FE029091FF023D
:1038A000892BD1F68091E800877F8093E8000E9401
:1038B000DE1E8091FC0280930E010E94F60908959D
:1038C0008091FA02813241F68091E800877F8093EF
:1038D000E8000E94DE1E8091FD028093DE020895C2
:1038E0008091FA02813A09F0B7CF8091E800877F92
:1038F0008093E8008091E80080FFFCCF8091DE0299
:10390000C1CF9FB7F8941092D4029FBF9091F90253
:10391000943009F048C02091E9002F703091EC00FC
:10392000932F917030FD90E8922B23E02093E900D3
:103930002091EB0020FF34C02091EE0027FF30C023
:103940002091CF02222321F02091E80025FF28C0FA
:103950001092CF0226E03091E80035FF14C080932A
:10396000F1008091E80085FD27C08091E80080FF8C
:10397000FCCF8091E8008E778093E8009F70909351
:10398000E90080E008953091F902343049F4309133
:10399000EB0035FD05C0215041F481E08093CF025A
:1039A0009F709093E9008FEF0895EFE9FFE0319762
:1039B000F1F700C00000CFCF8FB7F89421E020933B
:1039C000D4028FBFDBCF84B7877F84BF0FB6F89454
:1039D000A8958091600088618093600010926000DB
:1039E0000FBE80E890E00FB6F8948093610090934A
:1039F00061000FBE0E94C61908950E942E1F0E94EA
:103A00008B1FE2EEF0E080818460808378940E94D6
:103A10000922089582E091E00E94D21808958091D1
:103A2000F902853051F485EB96E00E9442048091C2
:103A3000F902853019F00E94411A08950E94161A61
:103A40008091F702882399F30E94D319882379F390
:103A50000E94881D0E94F609EACF08950E94311D38
:103A60000895292F33272330310521F168F42130BF
:103A7000310509F443C02230310509F444C090E017
:103A800080E030E020E026C02132310551F12232C1
:103A90003105A9F76330710590F7FB01EE0FFF1FA9
:103AA000EC5CFD4F208131816F5C7D4FFB0180819B
:103AB00090E010C099278130910581F0009729F09E
:103AC0000297E9F6EDECF6E002C0E3EFF6E0849150
:103AD00090E09F01FA01318320830895E9EDF6E03B
:103AE000F6CF6330710558F6660F771FFB01E65C71
:103AF000FD4F2081318189E090E0ECCF82E190E0C0
:103B000022E537E0E7CF8BE590E027EF36E0E2CF24
:103B100080E189BD82E189BD09B400FEFDCF8091BD
:103B2000D8008F7D8093D8008091E00082608093E0
:103B3000E0008091E00081FDFCCF0895AF92BF923C
:103B4000CF92DF92FF920F931F93CF93DF936C017D
:103B5000EB018A010E94FD1EF82E811123C0011580
:103B6000110539F0F80180819181C81BD90BC80E6D
:103B7000D91EB12CA12C2097A9F08091E80085FDD9
:103B800022C08091E8008E778093E800011511052E
:103B9000A1F0F80180819181A80EB91EB182A082A6
:103BA00085E0F82E8F2DDF91CF911F910F91FF901F
:103BB000DF90CF90BF90AF9008950E94FD1E8823A4
:103BC000D1F2F82EEFCFF60181916F018093F100D1
:103BD0002197FFEFAF1ABF0ACECFFC0180910003FF
:103BE0009091010386179707A0F06115710529F4DC
:103BF0009091E8009E779093E80090E06115710540
:103C000051F4911108C08091E80082FF34C080E037
:103C10000895BC01F2CF8091F9028823C1F185306B
:103C2000C1F18091E80083FD30C08091E80082FD01
:103C3000EACF8091E80080FFE1CF8091F3002091EE
:103C4000F200382F6115710519F02830310558F050
:103C500091E02830310509F090E02091E8002E77BE
:103C60002093E800CBCF81918093F10061507109DE
:103C70002F5F3F4FE7CF8091F902882341F08530D5
:103C800041F08091E80083FFBECF81E0089582E09B
:103C9000089583E00895FC01809100039091010351
:103CA00086179707A0F06115710529F48091E80047
:103CB0008E778093E80090E06115710551F49111C1
:103CC00008C08091E80082FF35C080E00895BC0103
:103CD000F2CF8091F9028823C9F18530C9F1809132
:103CE000E80083FD31C08091E80082FDEACF809139
:103CF000E80080FFE1CF8091F3002091F200382F9F
:103D00006115710519F02830310558F091E028301F
:103D1000310509F090E08091E8008E778093E8000B
:103D2000CBCF84918093F1003196615071092F5F60
:103D30003F4FE6CF8091F902882341F0853041F072
:103D40008091E80083FFBDCF81E0089582E008956F
:103D500083E00895982F973028F08F708093E900C2
:103D600081E008959093E900242F762F50E0981772
:103D700031F07091EC002091ED005091F00021FDA8
:103D800002C09F5FE8CF3091EB003E7F3093EB00A5
:103D90003091ED003D7F3093ED003091EB003160CC
:103DA0003093EB007093EC002093ED005093F00003
:103DB0002091EE0027FDE5CF80E008958091FA0282
:103DC00087FF13C08091E80082FF06C08091E80061
:103DD0008B778093E80004C08091F9028111F2CFC3
:103DE00008958091F9028823D9F38091E80080FF3B
:103DF000F8CF8091E8008E77ECCF2091E4003091ED
:103E0000E50095E6A9012091EC00822F817020FF4A
:103E100006C08091E80080FF06C080E008952091F0
:103E2000E80022FD1AC08091F902882389F08530CC
:103E300089F08091EB0085FD0FC02091E400309166
:103E4000E50042175307F9F29150E1F684E0089536
:103E500082E0089583E0089581E008950E949D1F07
:103E60000E94A51FE0EEF0E0808181608083E8ED94
:103E7000F0E080818F77808319BCA7EDB0E08C9152
:103E80008E7F8C9380818F7E80831092F8020895BC
:103E90000F931F93CF93DF930E949D1F0E94A51F36
:103EA000C8EDD0E088818F77888388818068888397
:103EB00088818F7D888319BC1092F9021092F502D7
:103EC0001092F7021092F60200EE10E0F8018081E5
:103ED0008B7F808388818160888342E060E080E01E
:103EE0000E94AA1EE1EEF0E080818E7F8083E2EEE8
:103EF000F0E0808181608083808188608083F80128
:103F000080818E7F8083888180618883DF91CF91DB
:103F10001F910F910895E8EDF0E080818F7E8083FE
:103F2000E7EDF0E080818160808384E082BF81E002
:103F30008093F8020E94481F0895E8EDF0E0808128
:103F40008E7F80831092E20008951092DA00109222
:103F5000E10008951F920F920FB60F9211242F9334
:103F60003F934F935F936F937F938F939F93AF9301
:103F7000BF93EF93FF938091E10082FF0BC080918C
:103F8000E20082FF07C08091E1008B7F8093E10017
:103F90000E946C1B8091DA0080FF19C08091D800CC
:103FA00080FF15C08091DA008E7F8093DA008091C7
:103FB000D90080FF96C080E189BD82E189BD09B446
:103FC00000FEFDCF81E08093F9020E94301B8091BA
:103FD000E10080FF19C08091E20080FF15C0809150
:103FE000E2008E7F8093E2008091E2008061809306
:103FF000E2008091D80080628093D80019BC85E0EF
:104000008093F9020E94501B8091E10084FF2BC035
:104010008091E20084FF27C080E189BD82E189BDF3
:1040200089B5982F917080FFFBCF8091D8008F7D4C
:104030008093D8008091E1008F7E8093E100809191
:10404000E2008F7E8093E2008091E20081608093A5
:10405000E2008091F502882309F449C084E080934E
:10406000F9020E945D1B8091E10083FF29C08091CD
:10407000E20083FF25C08091E100877F8093E1000B
:1040800082E08093F9021092F5028091E1008E7F28
:104090008093E1008091E2008E7F8093E200809126
:1040A000E20080618093E20042E060E080E00E94F4
:1040B000AA1E8091F00088608093F0000E94491B46
:1040C000FF91EF91BF91AF919F918F917F916F91F0
:1040D0005F914F913F912F910F900FBE0F901F90C6
:1040E000189519BC1092F9020E94421B70CF809162
:1040F000E30087FD93E09093F902B3CF1F920F92F4
:104100000FB60F9211242F933F934F935F936F93AA
:104110007F938F939F93AF93BF93CF93DF93EF934F
:10412000FF93D091E900DF708091EC00C82FC1703F
:1041300080FDC0E81092E9008091F000877F8093B5
:10414000F00078940E94C2201092E9008091F00063
:1041500088608093F000CD2BCF70C093E900FF9171
:10416000EF91DF91CF91BF91AF919F918F917F910F
:104170006F915F914F913F912F910F900FBE0F90D4
:104180001F901895AAE2B0E0E8ECF0E20C9445220A
:104190008AEF92E02091F100FC012193CF01F3E03E
:1041A00082309F07B9F70E94C71B8091E80083FF08
:1041B0001EC18091FA029091FB029A3008F017C15B
:1041C000E92FF0E0ED52FD4D0C943022803899F04B
:1041D000823809F00CC18091FE028F70873008F0A0
:1041E00006C18093E9008091EB0085FB882780F968
:1041F0001092E90006C08091F6029091F7029111A9
:1042000082609091E800977F9093E8008093F1009E
:104210001092F1008091E8008E77E5C0882309F4C0
:10422000D3C0823009F0E3C08091FC028111D6C076
:104230008091FE028F702FEF280F263008F0D7C034
:104240008093E9002091EB0020FFC8C0933031F447
:104250008091EB0080628093EB00C0C09091EB00F6
:1042600090619093EB0021E030E001C0220F8A952D
:10427000EAF72093EA001092EA008091EB00886050
:10428000EACF8111B4C01091FC021F778091E30046
:104290008078812B8093E3008091E800877F809372
:1042A000E8000E94DE1E8091E80080FFFCCF809134
:1042B000E30080688093E30082E0111183E0809343
:1042C000F90295C08058823008F091C08091FC02BC
:1042D0009091FD028C3D23E09207A1F583E08A8353
:1042E0008AE289834FB7F894DE01139620E03EE01E
:1042F00051E2E32FF0E050935700E49120FF03C018
:10430000E295EF703F5FEF708E2F90E0EA30C0F0E3
:10431000C7968D939D932F5F243159F74FBF80919E
:10432000E800877F8093E8006AE270E0CE010196A2
:104330000E94ED1D8091E8008B778093E80057C0C4
:10434000C096E7CF6091FE027091FF02AE014F5F11
:104350005F4F0E942E1DBC01892B09F448C090912B
:10436000E800977F9093E80089819A810E944B1E14
:10437000E1CF8038E1F58091E800877F8093E80005
:104380008091F5028093F10045CF811130C090916A
:10439000FC02923060F58091E800877F8093E8000E
:1043A0009093F5020E94DE1E8091F502882311F0A1
:1043B00084E005C08091E30087FDFACF81E080931F
:1043C000F9020E94AD1B13C08091FC02813079F488
:1043D00081E0933009F080E08093F7021092E900C9
:1043E0008091E800877F8093E8000E94DE1E809124
:1043F000E80083FF0AC08091E800877F8093E8008F
:104400008091EB0080628093EB00AA96E3E00C942D
:104410006122CF938091F9028823A1F0C091E90035
:10442000CF709091EC00892F817090FD80E8C82BAF
:104430001092E9008091E80083FD0E94C220CF70B5
:10444000C093E900CF910895991B79E004C0991FAA
:10445000961708F0961B881F7A95C9F780950895DE
:10446000EE0FFF1F0590F491E02D09942F923F92DB
:104470004F925F926F927F928F929F92AF92BF9274
:10448000CF92DF92EF92FF920F931F93CF93DF9320
:10449000CDB7DEB7CA1BDB0B0FB6F894DEBF0FBE7D
:1044A000CDBF09942A88398848885F846E847D84CA
:1044B0008C849B84AA84B984C884DF80EE80FD80CC
:1044C0000C811B81AA81B981CE0FD11D0FB6F89442
:1044D000DEBF0FBECDBFED010895FB01DC0104C0BE
:1044E0008D910190801921F441505040C8F7881BEC
:1044F000990B0895FB01DC0102C001900D9241501F
:104500005040D8F70895F999FECF92BD81BDF89A31
:10451000992780B50895A8E1B0E042E050E00C94FE
:10452000B722262FF999FECF92BD81BDF89A019747
:1045300000B4021639F01FBA20BD0FB6F894FA9AEB
:10454000F99A0FBE08950396272F0E9492220E9487
:104550009122252F0E949222242F0C9492220196C0
:10456000272F0E9492220C949122DC01CB01FC01A6
:10457000F999FECF06C0F2BDE1BDF89A319600B4BC
:104580000D9241505040B8F70895F894FFCFF007CE
:10459000F00721082108AE08500850085008CA0842
:1045A0003B094A094A09E6200E21F7210E21F7218D
:0A45B00041216221F721B921C52144
:1045BA00A202C91ACD1A2F1B2A1B251BCC1A01E2EB
:1045CA0000E900EA00B500B600B700CD008301CCCF
:1045DA00008A019201940121022302240225022663
:1045EA000227022A02B300B4006F0070008182839E
:1045FA00E200E900EA00B500B600B700CD00830189
:10460A00CC008A019201940121022302240225028C
:10461A00260227022A02B300B4006F0070008182CA
:10462A0083946636323331F7F6F5F497C634350A91
:10463A00092D2056657273696F6E202D0A564944FA
:10464A003A20307834413533286B6C61636B796773
:10465A006561727329205049443A203078303030ED
:10466A00322865656B2129205645523A2030783028
:10467A003030340A4255494C443A20202853657058
:10468A002032332032303233290A4F5054494F4EA8
:10469A00533A204C5546412045585452414B4559AE
:1046AA0020434F4E534F4C4520434F4D4D414E44AE
:1046BA0020343039360A4743433A20382E352E30D3
:1046CA00204156522D4C4942433A20322E312E3047
:1046DA00204156525F415243483A20617672350A68
:1046EA0000403222B80786076407090722073B07FA
:00000001FF
