:100000000C94EF020C940C030C940C030C94FE2142
:100010000C940C030C940C030C940C030C940C0324
:100020000C940C030C940C030C9449290C941D2A79
:100030000C9424240C940C030C940C030C940C03CB
:100040000C940C030C940C030C940C030C940C03F4
:100050000C940C030C94C7240C940C030C940C0308
:100060000C940C030C940C030C940C030C940C03D4
:100070000C940C030C940C030C940C030C940C03C4
:100080000C940C030C940C030C940C030C940C03B4
:100090000C940C030C940C030C940C030C940C03A4
:1000A0000C940C030C940C030C940C032C002B00EC
:1000B000000027022D02000027002D000000AD00E7
:1000C000AE000000F200F100000028002A0000004D
:1000D0002C442B45000028482A47000014001A0031
:1000E00009001300050004681564166117620A0010
:1000F0001D431B740600070019002C442B4500000B
:10010000000000000D000F0018001C00340010005B
:10011000116208610C6412680E000B00360037741F
:10012000384328482A4700000000000014001A0045
:1001300008001500170004681664076109620A00C8
:100140001D431B740600190005002C442B450000BC
:10015000000000001C0018000C00120013000B002F
:100160000D620E610F6434681100100036003774A0
:10017000384328482A4700000000000014001A00F5
:1001800009001300050004001500160017000A00FE
:100190001D001B000600070019002C002B000000AA
:1001A000000000000D000F0018001C0034001000BB
:1001B000110008000C0012000E000B003600370082
:1001C000380028002A000000000000007A004C02DD
:1001D000490149027900E300E200E000E10000008B
:1001E0007A004C02490149027900F100F200000056
:1001F000000000007900490249014C027A00000029
:10020000E100E000E200E3007900490249014C020C
:100210007A00F200F100000000000000005C0252D1
:10022000015200520000E300E200E000E1000000A3
:100230000000E60007520452000000000000000029
:10024000000000007900490249014C027A0039009F
:100250005000510052004F0049004A004E004B0030
:100260004D0028002A00000000000000005C02523F
:10027000015200520000E300E200E000E100000053
:100280000000E600085205520000000000000000D7
:10029000000000007900490249014C027A00000088
:1002A000EF00EE00ED00F0000000FB00FA00F900A6
:1002B000FC00F200F100000000000000005C0252AF
:1002C000015200520000E300E200E000E100000003
:1002D0000000E60009520652000000000000000085
:1002E00000000000C35CC45CC65CC85CCA5C000063
:1002F000AC00AA00A900AB00DD5C0000000000001B
:100300000000AD00AE000000000000002F0024003F
:1003100025002600300033002100220023002E009B
:1003200035001E001F002000310027002D000000B6
:10033000000000000000005201520252005C000068
:10034000E100E000E200E300000007520452E60092
:100350000000000000000000000000002F02240246
:1003600025022602300233022102220223022E023B
:1003700035021E021F022002310227022D02000058
:10038000000000000000005201520252005C000018
:10039000E100E000E200E300000008520552E60040
:1003A00000000000000000000000000045004000C8
:1003B00041004200460044003D003E003F0047002F
:1003C00043003A003B003C0048002C002B0000009A
:1003D000000000000000005201520252005C0000C8
:1003E000E100E000E200E300000009520652E600EE
:1003F00000000000000000000000000000000000FD
:10040000000000002A2B280000000000000000006F
:100410000000000000000029000000002C1E342015
:10042000212224342627252E362D3738271E1F203B
:100430002122232425263333362E37381F04050680
:100440000708090A0B0C0D0E0F10111213141516C4
:100450001718191A1B1C1D2F3130232D35040506C2
:100460000708090A0B0C0D0E0F10111213141516A4
:100470001718191A1B1C1D2F3130354C00000000B5
:10048000000000000000000000000000000000006C
:10049000000000000000000000000000000000005C
:1004A0007E0F00D4FFFFFFC7000000781A0346004C
:1004B000650072007200690073002000730077000D
:1004C0006500650070000000080344005000420011
:1004D00000000403090409023B00020100A0FA091C
:1004E0000400000103010100092111010001224063
:1004F0000007058103080001090401000103000051
:1005000000092111010001227B0007058203200060
:10051000011201000200000008ABC23939010001DC
:1005200002000105010902A10185020901A10005DE
:100530000919012908150025019508750181020591
:1005400001093009311581257F9502750881060959
:10055000381581257F950175088106050C0A38023A
:100560001581257F950175088106C0C005010980A8
:10057000A101850319012AB700150126B7009501CD
:1005800075108100C0050C0901A101850419012A1B
:10059000A002150126A002950175108100C0050179
:1005A0000906A101050719E029E7150025019508AD
:1005B000750181029501750881010507190029FF60
:1005C000150026FF00950675088100050819012908
:1005D00005950575019102950175039101C01124DE
:1005E0001FBECFEFDAE0DEBFCDBF11E0A0E0B1E08B
:1005F000E6E5F9E502C005900D92A83EB107D9F7EE
:1006000023E0A8EEB1E001C01D92A737B207E1F7E1
:100610000E945D150C94932C0C9400009C013A955B
:1006200021153F4150F5FC01EE27F170BC01662712
:100630007270AC01442754709C012227387094FFDB
:100640000EC080E1EF2B09F480E0672B09F0806297
:10065000452B09F08064232B89F08068089581E0A0
:10066000EF2B09F480E0672B09F08260452B09F03D
:100670008460232B19F08860089580E00895CF935B
:10068000DF93EB010E940E03FE010995DF91CF91EC
:100690000895CF93DF93EC01805E9109089720F0D5
:1006A0006FED77E0209711F462E975E0CE010E94CA
:1006B0003F038C2F0E94F304DF91CF910895CF93D5
:1006C000DF93EC010E943F05CE01805E91090897FF
:1006D00020F066EE77E0209711F469E975E0CE012D
:1006E0000E943F03DF91CF9108950F931F93CF9303
:1006F000DF938C01EB010E944903209741F4C8016C
:100700000E945F03DF91CF911F910F9108958FE9B0
:100710009FE00197F1F700C000002197EECF70E055
:1007200060E08933910511F460E570E00E94750383
:10073000089581E0089581E008950E949B03089543
:1007400008950E94A0030895A5E0B0E0EAEAF3E06E
:100750000C94FF2B49835A833091EF0189819A8150
:10076000311119C0662399F0222389F00E94630990
:10077000182F682F89819A810E943F0969817A81A7
:10078000812F0E941F102596E3E00C941B2C0E94E1
:100790005109182FF3CF0E94630969817A81F1CF43
:1007A000FC01262F86819781009739F44081518181
:1007B0006281738184810E94A4030895CF93DF93A3
:1007C000EC0161E00E94D003BE010E94D31EDF91C4
:1007D000CF910895CF93DF93EC0160E00E94D003A6
:1007E000BE010E94A103DF91CF9108950E94AC1138
:1007F00008950E94B011089508950E9403080E9470
:10080000FC032FEF84E39CE0215080409040E1F70F
:1008100000C0000008950E94FD030E94EB2408958B
:100820000E94FD030E94FC2408950F931F93CF9311
:10083000DF938C0161E00E94D003EC01B8010E94BB
:100840009D03811106C080E0DF91CF911F910F9130
:100850000895B801CE010E94F2188823A1F3B801CF
:10086000CE010E94541C882371F3B801CE010E946E
:100870000C21882341F3B801CE010E942D19882351
:1008800011F3B801CE010E947E208823E1F2F80125
:100890008281882361F0CB35FDE5DF0701F158F453
:1008A000C115ECE5DE0791F0CF3DDC4591F0C801C4
:1008B0000E949903C9CFCD358DE5D80769F090F036
:1008C000C83ADD45A1F70E941004BDCF0E940B0479
:1008D000BACF0E94490EF7CF0E94870DE8CF0E9441
:1008E000910DE5CF0E94950DE2CF0E9401240E9458
:1008F000920408950E9496040E9406240895089583
:100900000E947F04089581E008950E948304089561
:100910000895CF93C82F0E9480048C2F0E948504D5
:10092000CF91089580E00E94890408950E942423B5
:100930000E9489040895CF930E942423C82F809198
:10094000EA018C1779F0C093EA010E949024609329
:10095000EB017093EC018093ED019093EE018C2FED
:100960000E948904CF910895ADE0B0E0EAEBF4E095
:100970000C94002C49875A876B877C878D8761117F
:100980000E94D20C1D821E821F82188685E0FE0105
:100990003996DE01119601900D928A95E1F78C81CE
:1009A0009D81892B71F429813A814B815C816D8114
:1009B0007E818F8198850E94F00B2D96E2E00C9449
:1009C0001C2C89819A8189238F3F69F3CE0101967E
:1009D0000E94DE038111E7CFF0CFFC01808191817D
:1009E0000E9495090895CF93C82F8823B9F08CEF02
:1009F0008C0F813AA8F46C2F8091280190912901E5
:100A00000E949223882329F08C2F0E948F0C0E9431
:100A1000F30C8C2F0E94870C0E94F30CCF91089549
:100A200080E28C0F883048F4C77081E001C0880FE5
:100A3000CA95EAF70E94B20CEFCFEBE5EC0FE3307A
:100A400040F4F0E0EE54FE4F808190E00E94542389
:100A5000E5CFE8E5EC0FE73150F4F0E0EE0FFF1FD3
:100A6000EC57FE4F808191810E946A23D7CFCD3E03
:100A7000A8F28C2F0E94E1150E94B416CFCF8823D4
:100A800079F19CEF980F913A28F40E948F0C0E9404
:100A9000F30C089590E2980F983050F4877091E02D
:100AA00001C0990F8A95EAF7892F0E94B80CEFCF01
:100AB0009BE5980F933028F490E080E00E94542347
:100AC000089598E5980F973128F490E080E00E940F
:100AD0006A2308958D3E20F00E943B160E94B416B2
:100AE00008951F93CF93DF93182FEB010E94F30417
:100AF000209739F4812F0E943F05DF91CF911F91FC
:100B000008958FE99FE00197F1F700C00000219759
:100B1000EFCF70E060E0893311F460E570E00E948F
:100B200071050895882321F00E94B20C0E94F30CF5
:100B30000895882321F00E94B80C0E94F30C0895B8
:100B4000B0E0A0E0E6EAF5E00C94F92B6C01D62FBA
:100B5000C72FFC011281058102950F700E94A80C1D
:100B6000E82E8823B9F0E12E1123A1F08C2F807F8D
:100B7000803421F080E28D0F8830C8F080914C03E2
:100B800082FF15C082E00E94560D0E94A80C91E0E1
:100B9000E82EE926BC2EB2949FE0B922FBE0FB15BB
:100BA000B8F1EB2DF0E0EB56F34D0C94EA2BE12C71
:100BB000F1CF0C2F0F70C07F11F00295007F112331
:100BC00099F0002359F080E28D0F883010F0D11198
:100BD00007C0802F0E94B20C0E94F30C8D2F5AC0C8
:100BE000802F0E94C50CF8CF8D2F0E943F05002357
:100BF00079F080E28D0F883010F0D11104C0802F81
:100C00000E94B80C03C0802F0E94CB0C0E94F30CF2
:100C1000EB2DE850FF0B349720F40E9424230E9410
:100C20008904EE2089F00E94A40C80FD0DC0F6011D
:100C300012820E949E0C0E949D08C6010E94B50768
:100C40000E949E0C0E94AD08CDB7DEB7E9E00C947F
:100C5000152C2C2F2F70F22EC07FC03219F0F29479
:100C600080EFF822DD2341F0D130E9F1112309F4BE
:100C700045C00023E9F1B2CF80914C0382FD15C03D
:100C8000112359F0FF2029F08F2D0E94B20C0E94F1
:100C9000F30C80E00E94F304BBCF80E00E943F058C
:100CA000FF2009F4B5CF8F2DABCF112381F00111B7
:100CB00006C00E94D50C8F290E949205A9CF013051
:100CC000C1F70E94D50C8F290E94DC0CA1CF011125
:100CD00006C00E94E90C8F2D0E94990599CF013022
:100CE00009F496CFF6CF112329F0063008F090CF03
:100CF0008F2DE2CF053008F08BCFEDCF002359F3D5
:100D0000D93349F43FEF87EE93E031508040904073
:100D1000E1F700C000008D2F0E943F0579CF8C2F96
:100D200086958695837069F0813009F071CF8D2F9B
:100D30009C2F9370111102C090E080E00E946A2302
:100D400067CF8D2F9C2F9370111102C090E080E02F
:100D50000E9454235DCF8D2F112329F00E94E115AD
:100D60000E94B41655CF0E943B16FACF8C2F837089
:100D7000A1F511114DCF4D2F429546954770440F67
:100D8000440F2D2F2F7030E0042E02C0220F331F8E
:100D90000A94E2F790E080E0D4FF09C08FE090E091
:100DA00002C0880F991F4A95E2F780959095C695E5
:100DB000C695C370822B932BC23049F058F4C130D2
:100DC00019F00E946B0824CF0E94620821CF0E9474
:100DD00074081ECF0E945F081BCF8695112311F067
:100DE0008C2F8170882309F413CF4D2F429546959F
:100DF0004770440F440F2D2F2F7030E0042E02C097
:100E0000220F331F0A94E2F790E080E0D4FF09C07C
:100E10008FE090E002C0880F991F4A95E2F7809515
:100E20009095C695C695C370822B932BC23049F01E
:100E300058F4C13019F00E94D808EACE0E94CF08B9
:100E4000E7CE0E94E108E4CE0E948308E1CECF7095
:100E5000112329F08C2F0E949D088D2F2DCF8D2FCF
:100E60000E9499058C2F0E94AD08D2CED23F41F14D
:100E700060F4D03FB9F0D13F81F0112309F446C0AE
:100E80000111ACCE8C2F8F711FC0D33F01F1D43F25
:100E9000A1F780914C0382FD24C08C2F8F71112308
:100EA00011F312C0112341F0053008F0B1CE8C2FA0
:100EB0008F710E94BF08ACCE063008F0A9CEF7CFE4
:100EC0008C2F8F711111CFCF0E949D08A1CE1123BD
:100ED00029F08C2F8F710E9491089ACE0E948C0865
:100EE00097CE112349F0CF718C2F0E949D0863E0AB
:100EF0008C2F0E94380D8CCE81E00E94560D02305E
:100F000008F486CE82E00E94560D82CE002359F06E
:100F1000D93309F000CFEFEFF7EE23E0E150F040D6
:100F20002040E1F7F6CE8C2F8F719DCF0F931F934A
:100F3000CF93DF93EC018E819F81009781F00E9417
:100F40002E0F8C010E94EA080E945E08B801CE01B3
:100F50000E94A005DF91CF911F910F9108956881A4
:100F600079818A810E94A009ECCFCF93DF93EC01B5
:100F70008B819C81892B29F08881998189238F3FDE
:100F800051F4DF91CF910895CE010E949607CE01D2
:100F90000E94EA03F6CFCE010E9415048111F4CF1E
:100FA0000E94A80C882369F38A81882351F38091D9
:100FB0004C0382FFE6CF82E00E94560DE2CF8823E9
:100FC00021F00E94C50C0E94F30C0895882321F0A3
:100FD0000E94CB0C0E94F30C089590E080E00E94E8
:100FE000542390E080E00E946A230E94D20C0E9469
:100FF000F30C0E94D0160E94B41608950E94970C1C
:101000000E94ED0708950E94C20C0E94FE070895F9
:1010100092959F70963091F058F4925F9F70923045
:1010200058F4803F19F030F4883E30F481E00895A0
:101030009A5FF4CF843FD1F380E00895883EB0F307
:10104000813FD1F7F3CFFC0183819481892B29F073
:101050008081918189238F3F39F480E008950E9437
:101060002E0F0E9408080895868197810097B9F78E
:10107000808191810E949509F4CFA5E0B0E0E3E47E
:10108000F8E00C94002C2596E2E00C941C2CA8E0CF
:10109000B0E0EDE4F8E00C94002C2896E2E00C942B
:1010A0001C2C08950E94510808950E9452089093A4
:1010B0000702809306020E94ED07089508950E949A
:1010C000550808952091060230910702822B932B38
:1010D0000E9455080895209106023091070282234C
:1010E00093230E945508089520910602309107022B
:1010F000822793270E94550808950E945108089559
:101100000E947D0808950E948008909305028093B4
:1011100004020E94ED07089590E080E00E94830899
:10112000089521E030E0A90102C0440F551F8A95BF
:10113000E2F7CA010E948308089521E030E002C06E
:10114000220F331F8A95E2F78091040290910502E5
:10115000822B932B0E948308089521E030E002C087
:10116000220F331F8A95E2F7209530958091040273
:1011700090910502822393230E948308089521E021
:1011800030E002C0220F331F8A95E2F780910402FB
:1011900090910502822793270E9483080895209149
:1011A000040230910502822B932B0E94830808953C
:1011B0002091040230910502822393230E94830828
:1011C00008952091040230910502822793270E94FE
:1011D000830808950895262F277091E001C0990F84
:1011E0002A95EAF723E0769567952A95E1F7660F49
:1011F000771F660F771FFA01E60FF71F50E040E0F8
:10120000682F70E08191DF0111979B01042E02C0CD
:10121000369527950A94E2F72170219528272923EE
:1012200028272C934F5F5F4F4430510559F708959D
:10123000A82FA77023E0969587952A95E1F7880F48
:10124000991F880F991FFB01E80FF91F50E040E03C
:1012500080E0219130E00A2E02C0369527950A944D
:10126000E2F721703327042E01C0220F0A94EAF717
:10127000822B4F5F5F4F4430510559F70895262F59
:10128000983070F4853060F4682F70E085E0989FA6
:10129000600D711D112440EF51E0822F0E94EB0878
:1012A0000895292F983068F4853058F490E060EF65
:1012B00071E035E0239F800D911D11240E941809D3
:1012C000089580E00895B0E0A0E0E9E6F9E00C942C
:1012D000F92B7C0100910402109105028091060215
:1012E00090910702082B192BCFE0D0E0CC24C394B7
:1012F000D12CBC2EC6010C2E02C0880F991F0A9457
:10130000E2F780239123892B49F4219790F7B12CA0
:101310008B2DCDB7DEB7E9E00C94152CB7018C2FDF
:101320000E943A10019789F3F3CFCF93DF93EC013A
:101330000E946309BE010E943A10DF91CF91089587
:101340001F93CF93DF93EB019091EF01992339F035
:10135000CB010E949509DF91CF911F9108958823B9
:1013600069F0CB010E946309182F682FCE010E94FB
:101370003F09BE01812F0E943A10EDCFCB010E94A0
:101380005109182FF6CFCF93DF93C09108028091B7
:1013900009028C1303C0DF91CF910895D0E0FE01C4
:1013A00083E0EE0FFF1F8A95E1F7E65FFD4F208196
:1013B00031814281538164817581868197810E9448
:1013C00047082196C770E3CF20914A0230914B0223
:1013D00040914C0250914D0260914E0270914F022B
:1013E00080915002909151020E9447080895CF9336
:1013F000DF9380914F02807F09F049C080914C02B9
:10140000882309F444C080910802C09109026091C8
:101410004A0270914B02A0914D02B0914E02D62F1C
:10142000D723C817A1F190E0109711F0DF3F19F40E
:1014300001968770F6CF9C0143E0220F331F4A9537
:10144000E1F7F901E65FFD4F41814713F1CF40819C
:101450004613EECF42814111EBCF438154814A1BA9
:101460005B0B483C510520F780914F028F708061E3
:1014700080934F02F901E15FFD4F80818F708061A1
:1014800080838AE492E00E94B5070E94C309DF913D
:10149000CF910895A5E1B0E0E0E5FAE00C94F82BD7
:1014A0008C0185E0F801DE01519601900D928A953C
:1014B000E1F7F801E2804AE4C42E42E0D42E6091C4
:1014C0004D0270914E026115710509F46DC1909144
:1014D0004A0220914B02892F82238F3F09F464C175
:1014E00040815181A380B480F0904C02F501E61B4D
:1014F000F70BFF2009F420C180914F02382F307F75
:10150000E83CF10508F0CAC0311177C0FE2C251364
:1015100020C094131EC06091500270915102F801D6
:101520002681378162177307A1F4E11012C08F7012
:10153000806180934F020E94E409C6010E94B507B2
:1015400080914F02F80185838F2D6596EAE00C9417
:10155000142CA114B10429F0842F85238F3F09F0A6
:101560003CC180E0F82FF170DF2E80FF3CC08091FD
:10157000080220910902821315C0498B5A8B898970
:101580009A890E949509292F22952F702230F8F010
:10159000243020F59F70F9F0F8019581907FD9F4FF
:1015A000D12C1FC090E0FC0133E0EE0FFF1F3A95F5
:1015B000E1F7E65FFD4F3181351306C0308134130A
:1015C00003C032813E110FC001968770D4CF9F7047
:1015D00011F0882329F3805E883010F3C8010E943F
:1015E000B507FD2CB1CFEE2009F4AECF80914F02AC
:1015F000816080934F02F12CA7CF25131DC0941357
:101600001BC04091500250915102F8012681378150
:101610004217530789F4E1100FC08583C8010E9467
:10162000B50788E0F801AAE4B2E001900D928A952E
:10163000E1F70E94E40988CFC8010E9423088823AB
:1016400049F1EE2039F180914F028032A0F02091D3
:101650004A0230914B023A8729871B86BD86AC86A9
:101660008E878091500290915102988B8F87CE0186
:1016700009960E94B50788E0F801AAE4B2E001905B
:101680000D928A95E1F70E94F7090E94E409FF2470
:10169000F3945ACFC8010E94B507F9CF311113C096
:1016A0007A2DBD8AAC8A6E2D8D890E943D088AE410
:1016B00092E00E94B50788E0F60111928A95E9F759
:1016C0000E94E40998CF251318C0941316C04091C6
:1016D000500250915102F801268137814217530779
:1016E00061F4E1100AC08583C8010E94B50788E053
:1016F000F60111928A95E9F727CFC8010E942308C5
:10170000882341F2EE2031F280914F02803208F4BA
:10171000B2CF20914A0230914B023A8329831B8237
:10172000BD82AC828E838091500290915102988745
:101730008F83CE0101969DCFE83CF10540F5FE2C4C
:10174000EE2009F4A7CF251314C0941312C02091E2
:10175000500230915102F80186819781281739078C
:1017600041F488E0AAE4B2E001900D928A95E1F795
:10177000EBCEC8010E94230881117DCF80914F02DA
:10178000816080934F02C8010E94B507DDCE7A2D9B
:10179000BD8AAC8A6E2D8D890E943D0888E0F601D5
:1017A00011928A95E9F745CFEE2009F473CFC8016D
:1017B0000E942308F82E882309F46CCF88E0F801F2
:1017C000AAE4B2E001900D928A95E1F78AE492E0F2
:1017D0000E94ED040E94F7092CCF81E08E25C2CE35
:1017E000A0E1B0E0E6EFFBE00C94002C29873A87FB
:1017F0004B875C876D877E878F87988BCE01099694
:101800000E944A0A8823A9F08C859D85892B39F08E
:1018100029853A85822F83238F3F09F06FC08091FD
:10182000080290910902891343C06096E2E00C948B
:101830001C2C88E0FE013996DE01119601900D9274
:101840008A95E1F78C859D85892B49F389859A8551
:1018500089238F3F21F3A0910902B0E0CD010196C9
:1018600087709927209108022817190671F40E94A1
:101870000308109209021092080288E0EAE4F2E0FC
:10188000DF011D928A95E9F7CACF93E0AA0FBB1F2B
:101890009A95E1F7A65FBD4F98E0FE013196019061
:1018A0000D929A95E1F7809309020E94C309B7CF80
:1018B000B8E08B9FC0011124865F9D4F0E944A0AA9
:1018C000882309F4B2CFE091080228E0E29FF001FA
:1018D0001124E65FFD4F2081318142815381648173
:1018E0007581868197810E9447088091080290E067
:1018F0000196877099278093080291CF4B855C856C
:101900006D857E858F8598890E94470888CF682FCE
:1019100080912801909129010E94C8230895682F81
:1019200080912801909129010E94CB2308958091F4
:101930002801909129010E94CE23089580915A0296
:10194000859585958595089580915A0287700895AB
:1019500090915A02977081E009F480E00895809197
:101960006502089590916502892B80936502089520
:1019700080959091650298239093650208958093D5
:101980006502089510926502089590916402892B72
:1019900080936402089580959091640298239093B7
:1019A0006402089510926402089580915B02089584
:1019B00008950E94D80C089590914C0392FF08C09E
:1019C00090915B02981721F080935B020E94D90CE2
:1019D000089580915B02882329F010925B0280E0D9
:1019E0000E94D90C0895CF93DF93E0912801F091E4
:1019F0002901809165028083E0912801F0912901FD
:101A0000808190916402892B808390915B0299235D
:101A100081F0E0912801F09129018081892B808358
:101A200080912801909129010E94802381110E94B8
:101A3000E90CC0912801D091290148E050E062E50D
:101A400072E0CE010E943B2C892B59F088E0FE0108
:101A5000A2E5B2E001900D928A95E1F7CE010E94D5
:101A60003B23DF91CF91089508950E94340D08958E
:101A700090914C0392FF11C098E0899F900111242E
:101A8000622B60935A020E949D0880915A028595AC
:101A9000859585950E94350D08950E949D080895AD
:101AA00010925A0280E00E94350D089590915A02DA
:101AB0008095892380935A02282F277091F4282F2C
:101AC000082E000C330B9217130659F090914C031B
:101AD00092FF07C08595859585950E94AD080E9467
:101AE000500D089590914C0392FB222720F928175E
:101AF00069F080FB92F990934C0380914B03909195
:101B00004C030E94C30D82E00E94560D08958091FF
:101B10004C0382FB882780F991E089270E94720D8F
:101B2000089581E00E94720D089580E00E94720D78
:101B300008956FEF7FEF90E080E00E947D2C089584
:101B400090E080E00E94592C21E0883E9E4F09F0F1
:101B500020E0822F089582E090E00E94512C0895A9
:101B600083E090E00E94512C0895CF9384E090E0B0
:101B70000E94512CC82F82E290E00E94512C982F95
:101B80008C2FCF910895CF93C92F682F84E090E0D8
:101B90000E945F2C6C2F82E290E00E945F2CCF911C
:101BA0000895AB01BC018FE090E00E94712C089574
:101BB000AB01BC0183E190E00E94712C089560E0CC
:101BC00070E0CB010E94D80D089560E070E0CB0179
:101BD0000E94D10D0E94DF0D089568EE7EEF90E027
:101BE00080E00E947D2C60E082E090E00E945F2C0B
:101BF00060E083E090E00E945F2C10920702109258
:101C0000060260E084E090E00E945F2C64E082E2E3
:101C100090E00E945F2C60E085E090E00E945F2CE5
:101C200060E086E090E00E945F2C6FEF87E090E03C
:101C30000E945F2C40E050E0BA0188E090E00E94F2
:101C4000712C60E08DE090E00E945F2C40E050E05D
:101C5000BA0188E190E00E94712C60E087E190E099
:101C60000E945F2C40E050E0BA018CE190E00E94BD
:101C7000712C70E060E080E290E00E947D2C40E0FA
:101C800050E0BA0188E190E00E94712C0E94E50DBD
:101C900008950E94ED0D08958EE090E00E94512C71
:101CA00091E0811101C090E0892F0895682F8EE0A6
:101CB00090E00E945F2C08950E949024609374022B
:101CC000709375028093760290937702609370020E
:101CD0007093710280937202909373020895089535
:101CE00008950E94700E089508950E94740E08953C
:101CF00084E691E10E941A230E946F0E0E94710EE9
:101D000008950E944E130895089508950E94840E28
:101D10000E94850E08950E948D110E9488040E94E1
:101D2000301808950E947B240E9424110E9466139B
:101D30000E947B120E948B0E0E94EE170E94761367
:101D40000E94750E08950E944E13882321F00E9470
:101D50008C1E0E94231C0895AAE0B0E0E2EBFEE096
:101D60000C94F82B0E94CF1288E6A82E82E0B82EA1
:101D7000750110E0F70101917F01812F0E94B311DD
:101D80001F5F183009F440C00817A1F38091780252
:101D900081FD0E94B9110E94810EC82E10E0812F92
:101DA0000E94B311082FF50181915F01081731F1ED
:101DB000D02ED826F12CEE24E3948D2D8E21B1F077
:101DC000CC20A1F0FE821F8391E0802F8E2109F4A8
:101DD00090E098870E9484248160782F9A87898771
:101DE0004E815F8168858A850E94B404F394EE0C6D
:101DF000F5E0FF12E2CFF501319700831F5F183045
:101E000071F60E945C0E20C00813C0CF0E9484248B
:101E10008C01809166029091670208171907A1F062
:101E20008FEF89838A831B820E9484248160782FAC
:101E30009D838C8349815A816B818D810E94B4047A
:101E400010936702009366020E94A30E0E94F2168E
:101E50000E949B042A96EAE00C94142CCF93DF9303
:101E60000E943F10EC01811521E5920708F042C065
:101E7000811530E5930708F09FC0883E910530F545
:101E8000803E910508F094C0883A910588F4853A1F
:101E9000910508F086C08130910509F489C000974A
:101EA00009F486C0049708F083C0D0E0C0E080C089
:101EB0008F3B9105D0F7C85AD0E0CC0FDD1FCB5433
:101EC000DE4F0990D881C02DD46472C0811540E2E4
:101ED000940750F4C11581E0D80708F069C0CD3EE1
:101EE000D10518F3D06564C081159044F0F2DF701D
:101EF000D06A5EC0811535E5930718F5811544E574
:101F0000940708F085C0C11583E5D80708F06CC0B8
:101F1000C11522E5D20708F462C0CE01837099276B
:101F200021E030E002C0220F331F8A95E2F7C69508
:101F3000C69580E2C89FE0011124C22BD32BDC6838
:101F400037C0811539E59307A8F4811548E5940752
:101F500008F063C0C11586E5D80708F0A6CF8C2F1E
:101F60000E94E110C82FD0E0DC2FCC27CC27DF71F6
:101F7000D0621EC081152AE5920708F453C090561E
:101F80008115904208F091CF8D2F8F710E94E11042
:101F900090E0982F882788279F719C012C2BE901BE
:101FA000E7CFC55AD0E0CD51DE4FC881D0E0D06434
:101FB000CE01DF91CF9108958370992721E030E021
:101FC00002C0220F331F8A95E2F7C695C69540E2FC
:101FD000C49FE0011124C22BD32BDD68E9CFDC2F95
:101FE000CC27C16FD06AE4CFCE018370992721E05E
:101FF00030E002C0220F331F8A95E2F7C695C695DE
:1020000040E2C49FE0011124C22BD32BDA68D0CF69
:10201000D82FCC27C46FD06ACBCFD82FCC27C06F96
:10202000D06AC6CF8F700E94E11034E0D695C79574
:102030003A95E1F7CF709C2FEC01D069B9CF972F7B
:102040007830A8F4653098F470E025E0929F600D38
:10205000711D1124FB0198E2899FE00DF11D1124EF
:10206000EE0FFF1FE452FF4F85919491089580E099
:1020700090E008950E941F100E942E0F089582384C
:102080009105B9F1B0F48133910509F47DC048F4AC
:102090008932910509F46DC08A32910509F47BC03B
:1020A00008958533910509F45FC08933910509F1DD
:1020B0000895833E9105D9F138F4803E910529F1C8
:1020C000823E910579F10895863E9105D9F1873ECA
:1020D000910509F43EC0843E910541F520914C03E1
:1020E00021FF24C080914B0384FD19C087EE90E04E
:1020F000089520914B03237009F05AC020914C039E
:1021000023FF14C089E290E0089520914B0320FD45
:1021100038C030914C0330FF09C024FF43C090E029
:1021200080E0089520914B0322FDF7CF0895209180
:102130004B0322FD3AC030914C0330FD39C024FFDF
:10214000F5CFEDCF20914B0323FFF0CF24FDE7CF58
:10215000CDCF20914B0323FD2EC030914C0331FF96
:10216000EECF84EE90E0089520914B0325FFDECF63
:10217000C9CF20914B0325FD21C020914C0323FFA3
:10218000D5CF89E390E0D2CF20914B0326FFCECF6D
:102190008AE290E0089520914B0326FFC7CF81E3A8
:1021A00090E0089583EE90E0089582EE90E0089527
:1021B00080EE90E0089586EE90E0089585E390E04B
:1021C000089590914B0392FF06C0282F2871283064
:1021D000F9F4877F846093FF06C0282F2871283187
:1021E000F1F4877E846120914C0320FF06C0382FD4
:1021F00038713830D9F4877F816021FF06C0282FDD
:1022000028712831D1F4877E816194FD877E0895FD
:10221000282F24712430F9F68B7F8860DCCF282F9B
:102220002471243101F78B7E8861DDCF382F317125
:10223000313019F78E7F8860E0CF282F217121314E
:1022400021F78E7E8861E1CF1092470310924803F8
:102250001092490310924A030895CF92DF92EF92B1
:10226000FF926B017C010E944E1381110EC00E94EF
:102270009024C61AD70AE80AF90AC0924703D092F6
:102280004803E0924903F0924A03FF90EF90DF90F9
:10229000CF9008950F931F930E944E13882329F027
:1022A0000E9490241F910F9108950E949024009104
:1022B0004703109148032091490330914A03600F6E
:1022C000711F821F931FEECF80E008950E94990D29
:1022D0000895CF930E94CF128FE39CE90197F1F705
:1022E00000C000000E94CF120E944B13C4E0811175
:1022F000C0E08C2F0E94B31190E002C095958795A5
:10230000CA95E2F780FF04C00E9466110E94EB2488
:10231000CF9108950E94691108950E94A00D811126
:1023200002C00E94490E0E94AB0D809378020E9469
:10233000B50D90934C0380934B030E948A110E9429
:10234000B00D90E00E945F08809104029091050218
:102350000E948008089508950E94AB110895089581
:102360000E94AF110895E82FF0E0EA5AFC4F8081F7
:102370000895089508950E94BA110895EF92FF926A
:102380001F93CF93DF9300D000D0CDB7DEB70E946C
:102390004E13182F60915E03882309F447C01982F9
:1023A0001A821B821C82862F90E09E012F5F3F4F76
:1023B0007901B9018A5A9C4F0E9484138823E9F05D
:1023C00080914D0390E044E050E0B7018A5A9C4F61
:1023D0000E943B2C21E020937902892BC9F410E064
:1023E0000E94F903812F0F900F900F900F90DF91B3
:1023F000CF911F91FF90EF900895809179028823EB
:1024000071F384E0F70111928A95E9F7109279024D
:10241000E0914D03F0E0EA5AFC4F89819A81AB814B
:10242000BC8180839183A283B383DACF70E06A5A40
:102430007C4F80914D0390E08A5A9C4F0E940B1470
:102440000E94BB11CFCF1F93CF93DF932AE231E0DD
:10245000C1E0D0E0D90150E040E08D918F3F91F094
:10246000E82FE295EF70F0E011A18F70BE0101C07E
:10247000660F8A95EAF7962F9095912391A382A1F2
:10248000862B82A34F5F5F4F4530510531F72B5F9D
:102490003F4F81E02E333807E9F6DF91CF911F914E
:1024A0000895CF93DF93AC01A62FB0E085E0689F3D
:1024B000F0011124E65DFE4F75E081E060E091914E
:1024C0009F3F81F0C92FC295CF70D0E028A130E0A6
:1024D0009F7002C0359527959A95E2F7982F20FDB9
:1024E00090E0692B880F715051F7A40FB51F6C93C2
:1024F000DF91CF910895A4E1B0E0E1E8F2E10C941E
:10250000002C80913E01811126C084E1E0E7F1E0DA
:10251000DE01119601900D928A95E1F7FE01319648
:10252000AAE2B1E0CE01459620812C93218111963B
:102530002C931197228112962C9312972381139634
:102540002C931397248114962C93149735961596F3
:102550008E179F0749F780913E0194E0811190E02A
:1025600090935E0384E0891B80934D030E942312A5
:1025700088E0E6E5F3E0DF01982F1D929A95E9F7F0
:10258000EEE4F3E0DF011D928A95E9F784E00E9412
:102590000D130E94F6036496E2E00C941C2CA8E054
:1025A000B0E0E5EDF2E10C94FD2B8E010F5F1F4FC3
:1025B00088E0F80111928A95E9F7F12C6F2DC80196
:1025C0000E945112F394F4E0FF12F8CF48E050E07B
:1025D000B8018EE493E00E943B2C21E0009709F4BF
:1025E00020E0892B41F088E0F801AEE4B3E00190EF
:1025F0000D928A95E1F760915E0370E06A5A7C4F14
:1026000044E08EE493E00E940E13182F0E94BE1146
:10261000812B2896E5E00C94192C0895CF92DF9237
:10262000EF92FF920F931F93CF936C017B01042FC6
:10263000222349F081E080937C020E9484249093BD
:102640007B0280937A02C0917C02C1110AC0C0E073
:102650008C2FCF911F910F91FF90EF90DF90CF9033
:10266000089580917A0290917B020E949C240597A4
:1026700070F310E0A801B601C7010E943B2C892B22
:1026800041F0A801B601C7010E94482C10927C02BB
:10269000DFCFC0E0FBCF0E944C0E089580917F02F7
:1026A000811107C00E94C92B882351F081E08093DB
:1026B0007F0281E090917F02913009F080E00895DF
:1026C00082E080937F020E94C42BF3CF0E94A00D72
:1026D000811102C00E94490E0E944B1380933E015B
:1026E0000E944E1381110E94BA1308950E944E1346
:1026F000811102C00E94BD13089581E09091800273
:102700009A3008F080E008950F931F93CF93DF93E2
:10271000EC018B01809180028A30B8F4B801CE01BF
:102720000E940814C82F811122C0809180028F3F1F
:10273000B9F40E94842490937E0280937D028C2FB2
:10274000DF91CF911F910F91089580917D0290911B
:102750007E020E949C24843F914000F7C0E0EFCFAE
:102760008F5F809380028A3020F7C1E0E8CF10921B
:102770008002E5CF0E94B82108950E94BB210895F0
:10278000B0E0A0E0E6ECF3E10C94FB2B7901C82F5C
:10279000880FDD0B41155105A9F0FE0193E0EE0F06
:1027A000FF1F9A95E1F7E15CFE4F818192818F577F
:1027B0009D4F208130E04217530708F49A01A90188
:1027C0000E94482CCE010E94A422D82E8823D1F04A
:1027D00001151105B9F083E0CC0FDD1F8A95E1F7F3
:1027E000FE01E15CFE4F438150E00417150708F439
:1027F000A801C15CDE4F6C817D816F577D4FC701A1
:102800000E94482C8D2DCDB7DEB7E7E00C94172C35
:102810000E94021508950E9419150895A4E0B0E0E1
:10282000E4E1F4E10C94FE2B609196027091970222
:1028300080919802909199020E94AB2411E0643635
:1028400071058105910518F10E944A116E5F7F4F55
:102850008F4F9F4F69837A838B839C8310E000E0C6
:1028600030E020E044E050E0BE016F5F7F4F82E047
:102870000E94C013182F882351F00E949024609367
:102880009602709397028093980290939902812FF9
:102890002496E4E00C941A2CB0E0A0E0E2E5F4E128
:1028A0000C94F82B7C015B016A010E947D1301E00E
:1028B00010E0882311F00AE010E0C1E0D0E0B5019B
:1028C000C701F6010995811104C021960C171D0757
:1028D0002CF4CDB7DEB7EAE00C94142CCC9F900119
:1028E000CD9F300D300D112490E080E045E34A95F6
:1028F000F1F70000019682179307C1F7E0CFA5E03A
:10290000B0E0E5E8F4E10C94F82B5B01E090E6011F
:10291000F090E70101E010E09E012B5F3F4F50E097
:1029200040E070E060E080E00E94C013182F882330
:1029300009F44BC067018FEFC81AD80A6091920260
:102940007091930280919402909195020E94AB2421
:10295000643671058105910580F104E010E09E0167
:102960002F5F3F4F50E040E070E060E081E00E9468
:10297000C013F82E64E070E0C6010E94EF1711E06A
:102980009D81981310E01F2159F10E9490246093BB
:10299000920270939302809394029093950289819E
:1029A0009A81AB81BC8180938E0290938F02A09319
:1029B0009002B093910211E013C064E070E0C60190
:1029C0000E94EF179D818913C8CFF7018181928101
:1029D000A381B48189839A83AB83BC831111DFCF38
:1029E00080918E0290918F02A0919002B0919102FD
:1029F000F50180839183A283B383812F2596EAE03A
:102A00000C94142C0F931F93CF93DF93EC018B0145
:102A10004FE754E10E944C14882331F04EE054E11A
:102A2000B801CE010E944C14DF91CF911F910F91FC
:102A300008950F931F93CF93DF93C091E601D09138
:102A4000E701CE01019624E0FB01DC0101900D922B
:102A50002A95E1F764E070E00E94EF1788836D81AA
:102A60007E818F81988500918A0210918B0220913E
:102A70008C0230918D02601771078207930751F025
:102A800060938A0270938B0280938C0290938D02E4
:102A90000E942D11DF91CF911F910F9108950E94F7
:102AA0009F260E94920E0E94AC2608950E94B12695
:102AB0000E94AC0E0E94CB2608950E941D240E9405
:102AC00085260E94780E0E944F150E9456150E947E
:102AD000860EFBCF8091A20280FF0DC060915B014A
:102AE00070E0660F771F6038710570F5611571052C
:102AF00069F1862F089581FF07C060915B0184E032
:102B0000689FB0011124EFCF60915B0182FD0AC084
:102B10008091A1028823A9F020915A0160915B0164
:102B2000821710F088E0ECCF869FC001112433E0BB
:102B3000880F991F3A95E1F7622F70E00E94D62B1B
:102B4000D2CF68E070E0D5CF8FE7089581E0089597
:102B50008091A20280FF0CC06091580170E07595D1
:102B60006795759567956115710549F1862F0895EB
:102B700081FF06C06091580170E075956795F3CFAD
:102B80006091580182FD0BC09091A0029923A1F0A1
:102B90006091570180915801961738F0682F70E0C6
:102BA0006038710500F38FE70895899FC0011124F3
:102BB00070E00E94D62BF4CF61E070E0D7CF81E0C7
:102BC00008958D3E31F40E946A1581958093A60286
:102BD00008958E3E19F40E946A15F8CF8F3E31F4A5
:102BE0000E946A1581958093A5020895803F19F48B
:102BF0000E946A15F8CF893F29F40E94A815809396
:102C0000A70208958A3F21F40E94A8158195F7CF65
:102C10008B3F31F40E94A81581958093A8020895F6
:102C20008C3F19F40E94A815F8CF9FE0980F9830B8
:102C300070F4815F990B21E030E001C0220F8A958A
:102C4000EAF78091A402822B8093A40208958D3F1D
:102C500031F48091A20281608093A20208958E3F98
:102C600021F48091A2028260F7CF8F3FB9F7809163
:102C7000A2028460F1CF4091A5028D3E59F480916B
:102C8000A60287FF0DC01092A60241110BC0109240
:102C9000A10208C08E3E81F48091A60218169CF312
:102CA000442381F08091A7029091A802892B09F01A
:102CB0005AC01092A00208958F3E49F447FFF0CF0A
:102CC0001092A5028091A6028111ECCFE0CF803F47
:102CD00019F41416ACF3E4CF9091A702893F29F4BC
:102CE0001916F4F61092A702DBCF8A3F19F497FF6A
:102CF000D7CFF8CF9091A8028B3F29F497FFD0CF80
:102D00001092A802CDCF8C3F19F41916CCF3C8CF7E
:102D10009FE0980F983090F4815F990B21E030E0AC
:102D2000B90102C0660F771F8A95E2F7CB01809543
:102D30009091A40289238093A402B2CF8D3F31F4F5
:102D40008091A2028E7F8093A202AACF8E3F21F4AF
:102D50008091A2028D7FF7CF8F3F09F0A1CF8091A4
:102D6000A2028B7FF0CF08950E9484249C01909151
:102D7000A5028091A602982B21F030939F02209308
:102D80009E029091A7028091A802982B21F0309387
:102D90009D0220939C0283EA92E00E9446230895BC
:102DA00086E0E3EAF2E0DF011D928A95E9F71092EE
:102DB000A1021092A0021092A2020895FC01828149
:102DC00081110EC0838181110BC08481811108C0E3
:102DD00091E08581811101C090E0892F8170089573
:102DE00081E0FCCFA6E0B0E0E8EFF6E10C94FF2B29
:102DF00086E0E3EAF2E0DE01119601900D928A95F9
:102E0000E1F71092A5021092A6021092A70210926A
:102E1000A8028B819C81892B89F080919E029091E0
:102E20009F020E949C24AC019091A1029923C9F1B8
:102E300080915C018417150608F440C08D819E8145
:102E4000892B91F080919C0290919D020E949C247C
:102E5000AC019091A002992309F471C080915901AD
:102E60008417150608F479C0BE016F5F7F4F83EAAF
:102E700092E00E94D523811105C083EA92E00E946E
:102E8000DE1681110E94B41686E0FE013196A3EA97
:102E9000B2E001900D928A95E1F72696E3E00C945A
:102EA0001B2C20919B028AE0289F9001112424175B
:102EB000350720F69F5F9093A10202C09F3FD1F794
:102EC0001B81112359F00E946A159FEF11160CF413
:102ED00091E0899F802D11248093A5021C811123EC
:102EE00059F00E946A159FEF11160CF491E0899F2A
:102EF000802D11248093A6023091A502332309F47A
:102F00009DCF2091A602222309F498CF45EB3403EC
:102F1000C0011124992359F09093A50245EB240395
:102F200090011124332339F03093A60287CF81E03A
:102F30008093A502F3CF81E08093A6027FCF2091FA
:102F40009A028AE0289F900111242417350708F07F
:102F50008BCF9F5F9093A00202C09F3FD1F71D814E
:102F6000112359F00E94A8159FEF11160CF491E05F
:102F7000899F802D11248093A7021E81112359F06F
:102F80000E94A8159FEF11160CF491E0899F802DE7
:102F900011248093A8023091A702332309F464CF4F
:102FA0002091A802222309F45FCF45EB3403C0012E
:102FB0001124992359F09093A70245EB2403900123
:102FC0001124332339F03093A8024ECF81E080934F
:102FD000A702F3CF81E08093A80246CF0895FC01B9
:102FE000680F791F8FEF91E36E177F0709F408953B
:102FF0002191822728E030E087FF06C0880F8927CB
:1030000021503109C9F7F0CF880FFACFCF93DF9362
:10301000EC0197FF0CC0FB018281882341F00E94E4
:103020004718CE019F770E94D7180E94A61881E00A
:10303000DF91CF91089590916003923071F48A30BE
:1030400050F490E009966AE070E00E94D62B875A0F
:103050000E94890508958650FBCF0E94F81A0895B2
:103060008CE090E00E94512C90E0B0E0A0E08093D2
:10307000600390936103A0936203B0936303089588
:10308000609160038CE090E00E945F2C08950E94A4
:10309000382386958170809365030E943823817060
:1030A00080935F0380916003813039F480916503E0
:1030B000882319F089E30E9489050E94AF0C809350
:1030C00064030E94C20C0E94D20C80916003823083
:1030D00021F158F48823C1F08130D1F08FE39CE9CD
:1030E0000197F1F700C000000895843051F1853058
:1030F000A9F78BE191E00E948F0385E290E00E94A6
:103100008F0388E290E006C082EE0E94F304E6CFCF
:1031100088E193E00E948F03E1CF80915F038111EA
:1031200003C083E50E94890582EE0E94F3048FE3C9
:103130009CE90197F1F700C0000087E50E9489052E
:10314000CDCF86EE0E94890588E1F8CF809160039B
:10315000823011F148F4882381F0813091F0809120
:1031600064030E94BF0C08958430F9F08530B9F7EC
:1031700088E290E00E948F03F2CF82EE0E943F052A
:10318000EECF8CE20E94890580916503882339F394
:1031900089E30E948905E3CF82EE0E943F0580917A
:1031A0005F038111DCCF83E5F4CF88E2F2CF0F9388
:1031B0001F93CF93DF938C01CCE0D0E0C8010C2E9D
:1031C00002C0969587950A94E2F78F700E941B18AB
:1031D0002497CC3F8FEFD80789F7DF91CF911F91CC
:1031E0000F9108950F931F93CF93DF93EC018B0101
:1031F000FB018281882381F00E94AF0CC43EFCE574
:10320000DF0729F190F4C23EECE5DE07D9F081E05A
:10321000C33EFCE5DF0799F0B801CE010E94061815
:10322000DF91CF911F910F910895C63E8CE5D8078D
:1032300091F078F085E0C13BFDE5DF0769F7809309
:10324000600302C0109260030E944018E5CF82E044
:10325000F6CF83E0F4CF84E0F2CFCF93DF93EC019D
:10326000FB018281882309F464C1C430FDE5DF07D6
:10327000E0F5CB3F9CE5D90730F49E0122503C4558
:1032800024313105D8F50E94B50D90934C038093FD
:103290004B03C231ECE5DE0709F41FC108F06EC034
:1032A000C9308CE5D80709F4F2C008F03FC0C5303A
:1032B000ECE5DE0709F4DBC058F5C3308CE5D80730
:1032C00009F4CDC008F0CFC080914B038160C230BB
:1032D000DC4509F4AEC080914B0390914C030E94F1
:1032E000C30D0E94030880E009C0C63AEDE5DE0781
:1032F00051F238F4C2369DE5D90729F2DF91CF911A
:1033000008959E012E5A3D4523303105B8F7BBCFB5
:1033100080914B038062C730FCE5DF0709F489C068
:1033200008F4B1C080914B03806483C0CD309CE52C
:10333000D90709F4BAC070F480914B038E7FCB306B
:10334000FCE5DF0709F475C008F4A7C080914B03C2
:103350008D7F6FC0CF309CE5D90709F4B6C008F463
:10336000A8C0C031FCE5DF0709F4B3C0C131DC45BA
:1033700009F0B1CF80914B038F7B5BC0C1159DE5F8
:10338000D90709F4B4C098F5CB3FFCE5DF0709F491
:1033900072C0B8F4C4319CE5D90709F4B6C008F48A
:1033A000A2C0C531DC4509F096CF80914B0382FB6A
:1033B000992790F921E0922790FB82F990FB83F9FD
:1033C00038C0CD3F8CE5D80709F477C008F457C062
:1033D000CE3FECE5DE0709F474C080914C038360B6
:1033E000CF3FDC4509F077CF80934C0374CFC236D2
:1033F0008DE5D80709F496C068F4C230EDE5DE0724
:1034000009F48CC008F477C0C330DD4509F063CF00
:1034100080E085C0CE3A9DE5D907E9F068F4909147
:103420004B03892F8E7F90FF8160C63ADD4509F0FE
:1034300052CF80934B034FCFCF3A8DE5D80789F118
:10344000C03BDD4509F047CF90914C03892F877F22
:1034500093FF8860C9CF80914C038860C5CF80916D
:103460004B038260E6CF80914B038460E2CF809172
:103470004B038860DECF80914C038160B5CF809193
:103480004C038260B1CF80914B038061D2CF0E9408
:10349000030880914B038068CCCF80914B038C60F4
:1034A000C8CF80914C03877F9FCF80914B038B7F48
:1034B000C0CF80914B03877FBCCF80914C038E7F20
:1034C00093CF80914C038D7F8FCF80914B038F7E64
:1034D000B0CF80914B038F7DACCF0E9403088091C9
:1034E0004B038F77A6CF80914B03837FA2CF809130
:1034F0004C038C7F79CF80914C03982F90959170DD
:103500008E7F892B90FB81F96FCF0E9403089091E9
:103510004B03892F97FB87F980588BCF81E00E945E
:10352000560ED9CE90914B03892F8F7E94FF8061E8
:1035300080CF81E0E3CEB0E0A0E0E1EAFAE10C94D4
:10354000FB2BE82FF0E0E450FC4FD490282F269579
:103550002695269530E0F901E456FB4F04918770DB
:1035600010E0082E02C0159507950A94E2F7017045
:103570001127F901E457FB4FE490F12C082E02C00B
:10358000F594E7940A94E2F791E0E922FF24F90127
:10359000E458FB4FC491D0E002C0D595C7958A95F9
:1035A000E2F7C170DD270115110519F081EE0E94C7
:1035B000F304E114F10419F086EE0E94F3048D2D5A
:1035C0000E948905E114F10419F086EE0E943F057E
:1035D0000115110519F081EE0E943F05CD2B19F060
:1035E0008CE20E948905CDB7DEB7E7E00C94172C7A
:1035F000982F9F709A50963020F0805D0E949B1A01
:103600000895895AFBCF80915D01877F80935D018A
:1036100082E00E94CB0C80915D0184FF06C08F7E0A
:1036200080935D0182E00E94B20C80915D0185FF74
:1036300006C08F7D80935D0180E20E94B20C0E94E3
:10364000F30C089580E008958B32910539F040F431
:103650009C012E5131092A30310558F481E008953A
:103660008D32910530F089339105C0F38436910590
:10367000A9F30E94221B0895CF93DF93EC016623E8
:1036800019F082E00E94C50CCE019056811520E20F
:10369000920720F0905E8115904108F4DD27CE015D
:1036A0000E944903DF91CF9108959C013056211566
:1036B00040E2340720F0305E2115304108F49927AC
:1036C0000E945F030895FC0123E0F695E7952A9593
:1036D000E1F7EE71FF27E755FD4F20813181AC0105
:1036E0004F70552781E090E002C0880F991F4A95DE
:1036F000E2F7662329F0822B932B91838083089530
:103700008095909582239323F8CFFC0123E0F695D2
:10371000E7952A95E1F7EE71FF27E755FD4F8F708A
:10372000992721E030E002C0220F331F8A95E2F78B
:10373000808191812823392381E0232B09F480E0C3
:103740000895EF92FF920F931F93CF93DF93EC01B5
:103750007B018A0180915D0182FF5DC02091D102D1
:103760003091D2022C173D0719F0209709F053C071
:1037700090915D019B7F90935D0161E091FD10C090
:103780008091D3029091D402A701481B590B61E0AC
:1037900080915E0190915F014817590708F460E03D
:1037A000617080915D0160FB81F980935D01C901C9
:1037B0000E94631B0E94AF0C81FF08C080915D01D5
:1037C000806180935D0182E00E94B80C0E94AF0C82
:1037D00085FF08C080915D01806280935D0180E279
:1037E0000E94B80C60915D0166956170A80180919E
:1037F000D1029091D2020E943C1B60915D016695BE
:103800006170A8018091D1029091D2020E94551B53
:103810000E94031B0FC0CE010E94851BA801682FC8
:10382000CE010E94551B8091D1029091D202C817FF
:10383000D90771F3F092D402E092D302CDB7DEB78C
:10384000E6E00C94182C80915D0182FF19C00E9463
:1038500084242091D3023091D402AC01421B530B3B
:1038600020915E0130915F014217530748F049EC07
:1038700052E0BC018091D1029091D2020E94A11B22
:10388000089590915D01892F8E7F90FF81608093D4
:103890005D010E94031B089580915D018E7F8093DE
:1038A0005D010E94031B0895CF92DF92EF92FF9279
:1038B0001F93CF93DF93EC017B010E9484246C0162
:1038C000F70182818823D1F180915D0182FF07C0D9
:1038D00049EC52E0B60190E080E00E94A11BCB31A0
:1038E000FCE5DF0711F1CC312CE5D20721F1CA311B
:1038F0008CE5D80711F40E94411CCE019056811529
:10390000E0E29E0720F0905E8115904128F510922C
:10391000D2021092D10211E0812FDF91CF911F913D
:10392000FF90EF90DF90CF90089580915D018160CE
:1039300080935D01E2CF0E944C1CDFCF80915D013E
:103940008F7EC13ED10531F0C53ED105A1F58091F4
:103950005D018F7D80935D0180915D0180FFDBCFF4
:10396000B701CE010E94241BF7011281882309F4BC
:1039700061C0112309F458C00E94AF0C182F0E9497
:10398000D50C812B8D7F19F11092D2021092D102A9
:1039900060E0CE010E94631BA70160E0CE010E949F
:1039A0003C1B0E94D50C8D7F0E94DC0C82E00E94A3
:1039B000560D10E0B1CFCE0190568115904208F41B
:1039C000AACFCE0190548115904130F6A4CF88E063
:1039D000F701A9ECB2E001900D928A95E1F71092FF
:1039E000CB021092CD021092CC020E94AF0C182F85
:1039F0000E94D50C812B90915D0181FB91F99093F0
:103A00005D010E94D50C8D7F0E94DC0CD093D20208
:103A1000C093D102D092D402C092D30280915D01B2
:103A2000846080935D01C2CFA701B601CE010E94E0
:103A3000A11B72CF11116BCF6ECF08950F931F93FF
:103A4000CF93DF9380912803E091D5021CE0811190
:103A50001AC0DF91CF911F910F91089501E00E0FD1
:103A60000093D502CE2FD0E0E19FF0011124E05267
:103A7000FD4F83819481892B29F080819181892355
:103A80008F3FF9F4E02F80912803E81738F3109264
:103A900028031092D502DDCF18968D919C918F3F0F
:103AA0009807E1F061E00E941D1D1C9FF0011D9F21
:103AB000F00D1124E052FD4F148213820E94D20CAB
:103AC000E1CF1C9FD0011D9FB00D1124A052BD4F0E
:103AD00016968D919C911797892BF1F22081318157
:103AE0004281538164817581868197810E94F00BA8
:103AF000DCCF10922A0310922903209161013091AA
:103B00006201E0E0F1E090E080E02817390709F475
:103B10000895448147FF148201963596F6CFBC0183
:103B20004091DE028091DF02942F891301C0089535
:103B3000292F30E0F901EE0FFF1FEA52FD4F0190EF
:103B4000F081E02DE617F707A1F485E0869FF001EC
:103B5000879FF00D1124E050FF4F8481806484839F
:103B60009413E5CF2F5F3F4F237033272093DE025E
:103B700008952F5F3F4F922F9370D7CFB0E0A0E012
:103B8000E4ECFDE10C94F52BDB0114962C911497D9
:103B900026FD57C070902803C0EED2E0812C30E0A3
:103BA00020E061E070E0271508F049C0CA84DB849A
:103BB000AD90BC901197912C4FEF5FEFE92CF12C59
:103BC000F701EE0FFF1FEA0DFB1D05911491C016C2
:103BD000D10609F4A7010115110511F09394EECF58
:103BE0004F3F5407A9F1FB0102C0EE0FFF1F4A959A
:103BF000E2F78E2AAB01092C02C0440F551F0A942C
:103C0000E2F7415051098416150601F512964D91BF
:103C10005C9113976CE0629FF001639FF00D11249B
:103C2000E052FD4F578346832EEF208321839187F7
:103C3000808714962C911497206814962C930E94D8
:103C40008F1DCDB7DEB7EDE00C94112C1C821B82CA
:103C50002F5F3F4F2C96A7CF1F93CF93DF93C09139
:103C6000DE0215E08091DF028C1308C00E941E1D49
:103C70000E94791DDF91CF911F910895D0E0FE0140
:103C8000EE0FFF1FEA52FD4F80819181189FB00116
:103C9000199F700D112460507F4F0E94BE1D219608
:103CA000C370E0CFEF92FF921F93CF93DF93FC019D
:103CB0002081318110E040E050E0E52FF0E0EE0F90
:103CC000FF1FE20FF31FA591B4911097B9F0FB010C
:103CD000C081D18140E005C0AE15BF0509F411E0F7
:103CE0004F5FE42FF0E0EE0FFF1FEC0FFD1FE5909C
:103CF000F490E114F10481F75F5FDFCF112349F005
:103D0000451708F4CB01DF91CF911F91FF90EF9001
:103D1000089590E080E0F7CF80916001882341F121
:103D200080912B0390912C03009711F10E949C2409
:103D30002091290330912A0328173907C8F490915C
:103D4000DE028091DF02981759F00E942C1E10921B
:103D50002A031092290310922C0310922B0308952A
:103D60000E941E1D10922C0310922B030E94791D9D
:103D7000089510922C0310922B03109260018091F1
:103D8000DF028093DE020E94791D0E941E1D0895AD
:103D900080916001882319F00E94B91E089581E086
:103DA000809360010895A9E0B0E0E9EDFEE10C9494
:103DB000F02B6C013B01FB011281883FFCE59F0762
:103DC00051F4112379F081E080936001812F2996CD
:103DD000E2E10C940C2C893F2CE5920709F04DC0D0
:103DE000111148C000E011E0F12CE12C1986882463
:103DF0008394912C8091610190916201E816F906FB
:103E000008F445C0F3018281882309F465C1F9856E
:103E1000FF2309F461C10E94842490932C038093B2
:103E20002B0380912803863008F591E0980F90933A
:103E3000280398E0F301DE01119601900D929A9506
:103E4000E1F72CE0829FC001112480529D4F28E0B1
:103E5000FE013196DC0101900D922A95E1F72FEFDA
:103E60003FEFFC0131872087D386C28611E0F985B8
:103E70001F27ACCF0E94B91EA9CF8A3F9C4509F0ED
:103E8000B1CF112309F4AECF0E94C81E9FCFF80115
:103E900060817181AA24AA94BA2C90E0492F50E045
:103EA000FA01EE0FFF1FE60FF71F25913491C2169E
:103EB000D30609F45A01232B11F09F5FEFCF512C49
:103EC000FFEFAF16BF0609F466C0F8018481482FE2
:103ED000407450906001252D86FD20E0F22FF17096
:103EE0005F2EF3012281222309F493C0552009F4A7
:103EF00090C087FD16C094010A2C01C0220F0A94BD
:103F0000EAF7822BF80184832091290330912A0358
:103F1000283C310530F428EC30E030932A0320931C
:103F20002903A40102C0440F551F9A95E2F7CA0164
:103F30000197F80124812F732817190661F58091E4
:103F40002B0390912C03009751F00E949C24893CF4
:103F5000910528F0F8018481806484831CC040901E
:103F6000DE0290E080E02091DF0242121DC0801747
:103F7000910789F0A42CB12CF501EE0FFF1FEA5236
:103F8000FD4FF182E0823FEFA31AB30A43E0A4227F
:103F9000BB24A092DF02F985F529F9872FEFE21AF9
:103FA000F20A0B5F1F4F26CFA42CB12CF501EE0FA8
:103FB000FF1FEA52FD4F20813181F5E0F29FC001E1
:103FC000F39F900D11249C0120503F4F1901B8011F
:103FD000C9010E94521E0097A9F0FC0124812064AF
:103FE000248380179107B9F22091DE0242120AC0A1
:103FF0002816390639F495012F5F3F4F2370332778
:104000002093DE02FFEFAF1ABF0A2A2D2370422E43
:10401000AACF282F2F7330E087FD12C0B40102C051
:10402000660F771F9A95E2F7CB01019782179307E6
:1040300029F44423E1F1C7010E948F1D512C37C0A0
:10404000C9010A2C02C0959587950A94E2F7AC0144
:1040500041705527B9016150710926233723232B5D
:10406000B9F5452BA9F1F80182819381892B59F18A
:104070001B821C821D821E82FEEFF983FA830E943E
:1040800084248160582F9D838C83F80182819381E1
:104090008F83988729813A814B816D817E810E942F
:1040A000F00BF80184818F77848355245394C401E5
:1040B0000A2C01C0880F0A94EAF7982F9095F8010E
:1040C000848189234ACF60E0C7010E941D1DE9CF8A
:1040D000F82FF1705F2EEBCF9091DE028091DF021E
:1040E000981719F00E942C1EC1CE0E941E1D10921E
:1040F0002C0310922B030E94791DB8CECF93DF932F
:10410000EB0186319C4511F50E94AF0C9A819923F1
:1041100099F08A7A91E009F490E090932D0381114F
:1041200009C089E20E94870C0E94F30C80E0DF91B5
:10413000CF91089585E3F6CF80912D03811104C0BE
:1041400089E20E948F0CF0CF85E3FBCF81E0EFCFB7
:104150000F931F93CF93DF93C42FD22FFC01828143
:104160008823C9F0409330030E94842490932F0346
:1041700080932E0380E28C0F883040F4C77081E07A
:1041800001C0880FCA95EAF70E949205DF91CF918E
:104190001F910F91089510913003141332C0809134
:1041A0002E0390912F030E949C24883C910548F592
:1041B000C0E2CD0F1D17B9F080E2810F883040F4C6
:1041C000177081E001C0880F1A95EAF70E949905DF
:1041D000C83048F481E09D2F977001C0880F9A95F0
:1041E000EAF70E949205802F0E948905C83070F678
:1041F000D77081E001C0880FDA95EAF70E9499052F
:10420000C5CF80E28C0F883008F6C77081E001C00E
:10421000880FCA95EAF7F2CF0F939C01CB01243F98
:104220004CE5340759F1A8F4293DFCE53F0701F1BD
:104230002A3D4CE53407D1F1283D3C4591F406E296
:1042400021EE41EE68ED7CE50E94A82080E00F9110
:104250000895263FFCE53F07E9F0B0F0273F3C45D5
:10426000F9F0FC018281882339F110923003EFCFFD
:1042700007E225EE45EE69ED7CE5E6CF06E221EEAC
:1042800040EE64EF7CE5E0CF07E225EE44EE65EF1B
:104290007CE5DACF06E221EE42EE66EF7CE5D4CF94
:1042A00007E225EE46EE67EF7CE5CECF08E221E09F
:1042B00045EE6AED7CE5C8CF81E0C9CF8EE14A9B2F
:1042C00002C08150E1F74A9BFECF08955A9880E2E0
:1042D0008A95F1F75A9A0895FC013BE03A95F1F777
:1042E00098E020E080E031E040E14A95F1F7880F66
:1042F0004A9B02C08160232742E04A95F1F7000003
:1043000040E14A95F1F7915079F790E19A95F1F7EC
:1043100099B132E03A95F1F7000040E14A95F1F7A2
:1043200092FB992790F992272081920F908308950C
:10433000A1E0B0E0EEE9F1E20C94FC2B19828C01D3
:104340007C01E60EF11C0E151F0541F481E09981F8
:10435000911180E02196E6E00C94182C0E945E21D9
:10436000CE0101960E946C21F80181938F01EBCF61
:10437000529A5A9A089552985A9AEA9AE9E6F0E0BF
:1043800080818F7C808308956150770B91E001C01C
:10439000990F6A95EAF720E031E0911108C02223D5
:1043A00091F05A9A80E28A95F1F75A980895492F28
:1043B000482339F05A9A232740E24A95F1F7969517
:1043C000ECCF5A98F9CF5A98EDCFFF920F931F93E5
:1043D000CF93DF93EC018C01060F111DC017D1079D
:1043E00029F4CDB7DEB7E5E00C94192CF9900E94C2
:1043F000662168E08F2D0E94C421F0CF1F920F929A
:104400000FB60F9211240F931F932F933F934F9347
:104410005F936F937F938F939F93AF93BF93EF932C
:10442000FF93CF93DF930F92CDB7DEB719820E942F
:104430005E21CE0101960E946C21082F06950695FB
:104440000695282F22952570902F9570290F922F71
:10445000937026952695920F982797708981982BAF
:1044600009F05CC0043008F059C080E18A95F1F78A
:104470005A9A529A82E08A95F1F700C05A9888E0D9
:10448000089F80011124D801A15CBE4F1696ED91C2
:10449000FC9117973097A9F06091E6017091E701C0
:1044A00014962D913C911597260F371F11968D91DB
:1044B0009C911297680F791F13964C9113978C91CA
:1044C0000995F801E15CFE4F6381662351F020916C
:1044D000E6013091E70184819581820F931F0E944C
:1044E000E5210E94662180E18A95F1F75A98529859
:1044F0005A9A80E18A95F1F7F801E15CFE4F6081FC
:10450000662351F02091E6013091E701818192818B
:10451000820F931F0E9498210E945E210F90DF91CD
:10452000CF91FF91EF91BF91AF919F918F917F912B
:104530006F915F914F913F912F911F910F910F902C
:104540000FBE0F901F9018950F931F93CF93DF937B
:10455000EC0104970CF04CC0F894529A5A9885E0FC
:104560008A95F1F700009C2F969595708C2F857099
:10457000980F892F83709695969523E0CC0FDD1FB9
:104580002A95E1F7980F8E01092B0E94662100C041
:1045900068E0802F0E94C42180E18A95F1F752984B
:1045A0005A9A4A9B1EC087E090E04A991CC0FE01BF
:1045B000E15CFE4F63816623F9F02091E6013091C2
:1045C000E70184819581820F931F0E9498218111B8
:1045D00013C0529A5A9A7894DF91CF911F910F91FC
:1045E000089500C0DECF019729F4529A5A9A789420
:1045F00080E0F2CF00C0D9CF0E945E2180E28A9590
:10460000F1F75A98529A80E18A95F1F7C15CDE4F32
:104610006881662351F02091E6013091E70189819C
:104620009A81820F931F0E94E5210E94662178944F
:1046300081E0D2CF9093E9018093E80108959093AF
:1046400037038093360308950E944E13811103C0EF
:10465000809131030895E0913603F091370330974C
:1046600029F00190F081E02D0995089580E00895EA
:104670000E9424230895E0913603F0913703309788
:1046800021F00280F381E02D09950895E091360331
:10469000F0913703309739F022E0DC012C9304804D
:1046A000F581E02D0995089520913403309135036B
:1046B0002817390771F09093350380933403E09104
:1046C0003603F0913703309721F00680F781E02D13
:1046D0000995089520913203309133032817390743
:1046E00071F09093330380933203E0913603F0919D
:1046F0003703309721F00084F185E02D0995089566
:104700009C012E5F3F4FAC01485F5F4F80E0241754
:10471000350709F40895F90191919F019923B9F39F
:104720008F5FF5CF662349F0FC0132960896219100
:10473000261729F0E817F907D1F780E0089581E0FE
:1047400008959C01FC0132969FEF80E0419146174D
:1047500051F09F3F19F4411101C0982F8F5F8630AF
:10476000A9F79F3F09F40895290F311D97FD3A9548
:10477000F90162830895FC0132960896219126136F
:1047800003C0DF0111971C92E817F907B9F70895E4
:104790000E94A12308950E94BB230895029626E05B
:1047A000FC0111922A95E9F7089546E050E00E9435
:1047B0003B2C21E0892B09F420E0822F08950895F5
:1047C0000E94DF230895811106C081E080933803A1
:1047D0000E94E023089582E0F9CF83E080933803BC
:1047E0000E94E02308950E94E323089581E08093CE
:1047F00038030E94E02308950E94F6230895089547
:1048000008950E9400240895089508950E94FF23AA
:104810000895CF930E9404240E94CF120E94052481
:10482000C0E08C2F0E94B311811105C0CF5FC8304A
:10483000C1F7CF91089581E0FCCF85B7806885BF2F
:1048400085B7806885BF08951F921FB61F921124F7
:104850008F939F93AF93BF9380913903811113C0BE
:104860008091660390916703A0916803B0916903FA
:104870004196A11DB11D8093660390936703A09399
:104880006803B0936903BF91AF919F918F911F907F
:104890001FBE1F90189580916E03843031F10E94E5
:1048A00075041092390388E190E020E40FB6F89483
:1048B000A895809360000FBE2093600083B7817F2E
:1048C000846083BF83B7816083BF7894889583B702
:1048D0008E7F83BF0FB6F894A895809160008861A1
:1048E00080936000109260000FBE08950E9403083C
:1048F0000E947A04089582E084BD93E095BD9AEF0A
:1049000097BD80936E0008952FB7F8948091660349
:1049100090916703A0916803B09169032FBF089538
:104920002FB7F894609166037091670380916803D4
:10493000909169032FBF08959C014FB7F89480911F
:10494000660390916703A0916803B09169034FBF1C
:10495000821B930B0895CF92DF92EF92FF922FB7B5
:10496000F894C0906603D0906703E0906803F090DD
:1049700069032FBFA7019601261B370B480B590B64
:10498000CA01B901FF90EF90DF90CF90089578941D
:104990001F921FB61F9211248F939F93AF93BF93C3
:1049A0008091660390916703A0916803B0916903B9
:1049B0000196A11DB11D8093660390936703A09398
:1049C0006803B0936903BF91AF919F918F911F903E
:1049D0001FBE1F90189587E797E790930108809373
:1049E000000888E19AE00FB6F894A89580936000DB
:1049F0000FBE90936000FFCF88E19AE00FB6F89465
:104A0000A895809360000FBE90936000FFCF8091C7
:104A10004503089508959C0182E08093E9009FEF8B
:104A20008091E800915085FD06C085ED8A95F1F7EB
:104A300000009111F5CF8091E80085FF0CC050E097
:104A400040E066E070E0C9010E943D278091E800E7
:104A50008E778093E8000895CF93DF93EC0181E097
:104A60008093E9008FEF9091E800815095FD06C09A
:104A700095ED9A95F1F700008111F5CF8091E8004E
:104A800085FF14C050E040E068E070E0CE010E9475
:104A90003D278091E8008E778093E80088E0FE0152
:104AA000ADE3B3E001900D928A95E1F7DF91CF91EC
:104AB000089580933A0370933C0360933B03809185
:104AC0006E03843001F582E08093E9008FEF9091CE
:104AD000E800815095FD06C095ED9A95F1F700002C
:104AE0008111F5CF8091E80085FF0DC050E040E0D6
:104AF00063E070E08AE393E00E943D278091E80044
:104B00008E778093E8000895BC0184E00E945925C7
:104B10000895BC0183E00E945925089580916D039A
:104B2000811109C00E94CD280E942A298091E200AB
:104B300084608093E200089510926D0308950E94AE
:104B4000F623089560916A0381E0611101C080E05D
:104B50000E94ED23089590916E0381E0943009F056
:104B600080E060916A030E94F323089542E061ECC3
:104B700081E00E94492842E261EC82E00E944928DB
:104B800090916E0381E0943009F080E060916A03B7
:104B90000E94E323089580917003833009F461C07B
:104BA00030F48130D1F1823009F49EC008958A300A
:104BB00009F48AC08B3009F46FC0893009F050C005
:104BC00080916F03813209F04BC080917303909103
:104BD0007403029708F044C08091E800877F8093B7
:104BE000E8008091E80082FF37C09091F300809147
:104BF000F200029731F48091F100813011F086309B
:104C000021F48091F100809345038091E8008B7737
:104C10008093E8000E947D2823C080916F03813A31
:104C2000F9F48091E800877F8093E8008091730316
:104C300090917403892B61F468E08DE393E070E058
:104C40000E948C278091E8008B778093E80008957C
:104C500060E090E080E0F3CF80916E038111C1CFDE
:104C6000089580916F03813AD9F7809173039091F1
:104C70007403892BA9F78091E800877F8093E8006F
:104C80008091E80080FFFCCF80916F018093F1005C
:104C90008091E8008E77BCCF80916F03813201F75D
:104CA0008091730390917403892BD1F68091E80071
:104CB000877F8093E8000E947D2880917103809314
:104CC0006F010E940308089580916F03813241F6BD
:104CD0008091E800877F8093E8000E947D28809182
:104CE000720380934603089580916F03813A09F01F
:104CF000B7CF8091E800877F8093E8008091E8003B
:104D000080FFFCCF80914603C1CF84B7877F84BFEB
:104D10000FB6F894A8958091600088618093600038
:104D2000109260000FBE80E890E00FB6F894809378
:104D30006100909361000FBE0E94FC2308950E94C1
:104D4000CD280E942A29E2EEF0E0808184608083F1
:104D500078940E94A92B089583E691E00E941F2376
:104D6000089580916E03853031F480916E03853013
:104D700019F00E94762408950E944B2480916C03C0
:104D8000882399F30E940924882379F30E94272716
:104D90000E940308EACF08950E94CF260895292F84
:104DA00033272330310519F168F42130310509F436
:104DB00044C02230310509F445C090E080E030E085
:104DC00020E025C02132310549F122323105A9F711
:104DD00080E490E02EE935E061157105C1F08BE7C4
:104DE00090E023E235E06130710589F0E6CF992744
:104DF0008130910581F0009729F00297F1F6ECEAF5
:104E0000F4E002C0E2EDF4E0849190E09F01FA0149
:104E1000318320830895E8ECF4E0F6CF89E090E058
:104E200028EE34E06115710591F389E090E021E00E
:104E300035E06130710559F3C0CF82E190E021E1A6
:104E400035E0E5CF8BE390E026ED34E0E0CF80E184
:104E500089BD82E189BD09B400FEFDCF8091D800F3
:104E60008F7D8093D8008091E00082608093E00085
:104E70008091E00081FDFCCF0895AF92BF92CF9268
:104E8000DF92FF920F931F93CF93DF936C01EB019F
:104E90008A010E949C28F82E811123C0011511055A
:104EA00039F0F80180819181C81BD90BC80ED91E39
:104EB000B12CA12C2097A9F08091E80085FD22C09B
:104EC0008091E8008E778093E80001151105A1F02C
:104ED000F80180819181A80EB91EB182A08285E07F
:104EE000F82E8F2DDF91CF911F910F91FF90DF90C2
:104EF000CF90BF90AF9008950E949C288823D1F254
:104F0000F82EEFCFF60181916F018093F100219788
:104F1000FFEFAF1ABF0ACECFFC01809175039091CD
:104F2000760386179707A0F06115710529F4909113
:104F3000E8009E779093E80090E06115710551F4C8
:104F4000911108C08091E80082FF34C080E008958C
:104F5000BC01F2CF80916E038823C1F18530C1F18D
:104F60008091E80083FD30C08091E80082FDEACFA7
:104F70008091E80080FFE1CF8091F3002091F20062
:104F8000382F6115710519F02830310558F091E07E
:104F90002830310509F090E02091E8002E77209329
:104FA000E800CBCF81918093F100615071092F5FB0
:104FB0003F4FE7CF80916E03882341F0853041F069
:104FC0008091E80083FFBECF81E0089582E00895DC
:104FD00083E00895FC018091750390917603861714
:104FE0009707A0F06115710529F48091E8008E778C
:104FF0008093E80090E06115710551F4911108C0AB
:105000008091E80082FF35C080E00895BC01F2CFB6
:1050100080916E038823C9F18530C9F18091E80041
:1050200083FD31C08091E80082FDEACF8091E800E5
:1050300080FFE1CF8091F3002091F200382F6115BD
:10504000710519F02830310558F091E0283031050C
:1050500009F090E08091E8008E778093E800CBCF54
:1050600084918093F1003196615071092F5F3F4F19
:10507000E6CF80916E03882341F0853041F0809126
:10508000E80083FFBDCF81E0089582E0089583E0CA
:105090000895982F973028F08F708093E90081E071
:1050A00008959093E900242F762F50E0981731F05F
:1050B0007091EC002091ED005091F00021FD02C0B4
:1050C0009F5FE8CF3091EB003E7F3093EB00309153
:1050D000ED003D7F3093ED003091EB003160309377
:1050E000EB007093EC002093ED005093F0002091C2
:1050F000EE0027FDE5CF80E0089580916F0387FFE4
:1051000013C08091E80082FF06C08091E8008B7791
:105110008093E80004C080916E038111F2CF08955E
:1051200080916E038823D9F38091E80080FFF8CF47
:105130008091E8008E77ECCF2091E4003091E5007B
:1051400095E6A9012091EC00822F817020FF06C016
:105150008091E80080FF06C080E008952091E8007B
:1051600022FD1AC080916E03882389F0853089F072
:105170008091EB0085FD0FC02091E4003091E500A7
:1051800042175307F9F29150E1F684E0089582E066
:10519000089583E0089581E008950E943C290E94CB
:1051A0004429E0EEF0E0808181608083E8EDF0E06A
:1051B00080818F77808319BCA7EDB0E08C918E7FC2
:1051C0008C9380818F7E808310926D0308950F935E
:1051D0001F93CF93DF930E943C290E944429C8ED7E
:1051E000D0E088818F7788838881806888838881F0
:1051F0008F7D888319BC10926E0310926A031092FF
:105200006C0310926B0300EE10E0F80180818B7F3D
:10521000808388818160888342E060E080E00E9432
:105220004928E1EEF0E080818E7F8083E2EEF0E0BD
:10523000808181608083808188608083F8018081A3
:105240008E7F8083888180618883DF91CF911F91D9
:105250000F910895E8EDF0E080818F7E8083E7ED87
:10526000F0E080818160808384E082BF81E0809370
:105270006D030E94E7280895E8EDF0E080818E7FBD
:1052800080831092E20008951092DA001092E100FB
:1052900008951F920F920FB60F9211242F933F93F0
:1052A0004F935F936F937F938F939F93AF93BF932E
:1052B000EF93FF938091E10082FF0BC08091E200A9
:1052C00082FF07C08091E1008B7F8093E1000E9404
:1052D000A82B8091DA0080FF19C08091D80080FF50
:1052E00015C08091DA008E7F8093DA008091D9001A
:1052F00080FF96C080E189BD82E189BD09B400FECE
:10530000FDCF81E080936E030E948E258091E100A5
:1053100080FF19C08091E20080FF15C08091E200FB
:105320008E7F8093E2008091E20080618093E200B2
:105330008091D80080628093D80019BC85E080936A
:105340006E030E94A2258091E10084FF2BC0809112
:10535000E20084FF27C080E189BD82E189BD89B573
:10536000982F917080FFFBCF8091D8008F7D809324
:10537000D8008091E1008F7E8093E1008091E2006F
:105380008F7E8093E2008091E20081608093E20052
:1053900080916A03882309F449C084E080936E03F6
:1053A0000E94AB258091E10083FF29C08091E2003B
:1053B00083FF25C08091E100877F8093E10082E038
:1053C00080936E0310926A038091E1008E7F809338
:1053D000E1008091E2008E7F8093E2008091E20004
:1053E00080618093E20042E060E080E00E94492812
:1053F0008091F00088608093F0000E949F25FF91CB
:10540000EF91BF91AF919F918F917F916F915F913C
:105410004F913F912F910F900FBE0F901F901895B5
:1054200019BC10926E030E949C2570CF8091E300FE
:1054300087FD93E090936E03B3CF1F920F920FB648
:105440000F9211242F933F934F935F936F937F930A
:105450008F939F93AF93BF93CF93DF93EF93FF937C
:10546000D091E900DF708091EC00C82FC17080FD01
:10547000C0E81092E9008091F000877F8093F000EF
:1054800078940E94612A1092E9008091F00088606F
:105490008093F000CD2BCF70C093E900FF91EF9186
:1054A000DF91CF91BF91AF919F918F917F916F913C
:1054B0005F914F913F912F910F900FBE0F901F90D2
:1054C0001895AAE2B0E0E7E6FAE20C94FF2B8FE62B
:1054D00093E02091F100FC012193CF01F3E08737A5
:1054E0009F07B9F70E94CB258091E80083FF1EC17A
:1054F00080916F03909170039A3008F017C1E92FE3
:10550000F0E0EF55F34D0C94EA2B803899F0823897
:1055100009F00CC1809173038F70873008F006C1C9
:105520008093E9008091EB0085FB882780F9109239
:10553000E90006C080916B0390916C039111826029
:105540009091E800977F9093E8008093F10010928B
:10555000F1008091E8008E77E5C0882309F4D3C07C
:10556000823009F0E3C0809171038111D6C080912F
:1055700073038F702FEF280F263008F0D7C0809369
:10558000E9002091EB0020FFC8C0933031F48091F6
:10559000EB0080628093EB00C0C09091EB009061C3
:1055A0009093EB0021E030E001C0220F8A95EAF7EA
:1055B0002093EA001092EA008091EB008860EACF25
:1055C0008111B4C0109171031F778091E30080783E
:1055D000812B8093E3008091E800877F8093E8002F
:1055E0000E947D288091E80080FFFCCF8091E3003D
:1055F00080688093E30082E0111183E080936E0362
:1056000095C08058823008F091C0809171039091CC
:1056100072038C3D23E09207A1F583E08A838AE23E
:1056200089834FB7F894DE01139620E03EE051E203
:10563000E32FF0E050935700E49120FF03C0E29580
:10564000EF703F5FEF708E2F90E0EA30C0F0C796AA
:105650008D939D932F5F243159F74FBF8091E800C0
:10566000877F8093E8006AE270E0CE0101960E9495
:105670008C278091E8008B778093E80057C0C09614
:10568000E7CF6091730370917403AE014F5F5F4F7A
:105690000E94CC26BC01892B09F448C09091E800F7
:1056A000977F9093E80089819A810E94EA27E1CF51
:1056B0008038E1F58091E800877F8093E800809151
:1056C0006A038093F10045CF811130C0909171033E
:1056D000923060F58091E800877F8093E800909396
:1056E0006A030E947D2880916A03882311F084E078
:1056F00005C08091E30087FDFACF81E080936E03BF
:105700000E94B62513C080917103813079F481E045
:10571000933009F080E080936C031092E90080914F
:10572000E800877F8093E8000E947D288091E80050
:1057300083FF0AC08091E800877F8093E800809112
:10574000EB0080628093EB00AA96E3E00C941B2CA4
:105750000895CF9380916E038823A1F0C091E90052
:10576000CF709091EC00892F817090FD80E8C82B5C
:105770001092E9008091E80083FD0E94612ACF70B9
:10578000C093E900CF9108950E94CD2810926E0336
:105790000895E8EDF0E08081806180838AE18A9558
:1057A000F1F700C08091D9008170089597FB072E12
:1057B00016F4009407D077FD09D00E94272C07FC2F
:1057C00005D03EF4909581959F4F08957095619511
:1057D0007F4F0895EE0FFF1F0590F491E02D09947F
:1057E0002F923F924F925F926F927F928F929F92F1
:1057F000AF92BF92CF92DF92EF92FF920F931F93DF
:10580000CF93DF93CDB7DEB7CA1BDB0B0FB6F8948F
:10581000DEBF0FBECDBF09942A88398848885F84CF
:105820006E847D848C849B84AA84B984C884DF8040
:10583000EE80FD800C811B81AA81B981CE0FD11D24
:105840000FB6F894DEBF0FBECDBFED010895AA1BC1
:10585000BB1B51E107C0AA1FBB1FA617B70710F05B
:10586000A61BB70B881F991F5A95A9F7809590958D
:10587000BC01CD010895FB01DC0104C08D910190B4
:10588000801921F441505040C8F7881B990B0895A6
:10589000FB01DC0102C001900D9241505040D8F74D
:1058A0000895F999FECF92BD81BDF89A992780B5E8
:1058B0000895A8E1B0E042E050E00C94852C262F3A
:1058C000F999FECF92BD81BDF89A019700B40216F6
:1058D00039F01FBA20BD0FB6F894FA9AF99A0FBEA4
:1058E00008950396272F0E94602C0E945F2C252F7D
:1058F0000E94602C242F0C94602C0196272F0E946C
:10590000602C0C945F2CDC01CB01FC01F999FECFDB
:1059100006C0F2BDE1BDF89A319600B40D92415037
:105920005040B8F70895F894FFCFD905D905290656
:1059300029068F06AB0608060806B60627073607AF
:105940003607852AAD2A962BAD2A962BE02A012B05
:06595000962B582B642B7E
:10595600D6004C4900D000294600CA004C0000C4BD
:1059660000F30000BE00A80000B800370000B20037
:10597600260200AC006500005C02C6F7F6F5F431BD
:105986003332369391909466973435FFFFFF0100CA
:1059960000000100000000000000040100000004F7
:1059A6000500000000000028085040061001C8004D
:1059B60001080007252C250B25892584250A2501A4
:1059C600F4F5F6F7C69336323331976694909135EF
:1059D60034FFFFFFE200E900EA00B500B600B700B9
:1059E600CD008301CC008A01920194012102230299
:1059F60024022502260227022A02B300B4006F0001
:105A06007000818283E200E900EA00B500B600B7C3
:105A160000CD008301CC008A01920194012102236A
:105A26000224022502260227022A02B300B4006FCE
:085A36000070008182838102EF
:00000001FF
