:100000000C9400020C9447020C9447020C94470293
:100010000C9447020C9447020C9447020C9447023C
:100020000C9447020C9447020C94591D0C94151D16
:100030000C94561E0C9447020C9447020C944702F1
:100040000C9447020C9447020C9447020C9447020C
:100050000C9447020C94321E0C9447020C944702F5
:100060000C9447020C9447020C9447020C944702EC
:100070000C9447020C9447020C9447020C944702DC
:100080000C9447020C9447020C9447020C944702CC
:100090000C9447020C9447020C9447020C944702BC
:1000A0000C9447020C9447020C9447020B000D007D
:1000B00000001100100000000E000F0000003600CC
:1000C000100000002D002E00000008001A000000A3
:1000D00014001A0000002700260000001200130080
:1000E000000000D0D0D0D0D0D001010204081020F0
:1000F000414244484800000048485060818284885A
:1001000090A0C1C2C4D0D0D0D0D0D0C800000000D0
:1001100000000000000000000000000000000000DF
:10012000000014001A000800150017001C00180039
:100130000C001200130004611600070009000A00F9
:100140000B000D000E000F0033711D621B00060036
:100150001900050011001000360037003872000049
:100160000000296828642C422C41E1002B72000019
:1001700000001E001F002000210022002300240098
:10018000250026002700A800AA00A9007C007D0009
:100190005000510052004F00310000003500440073
:1001A000450003534A004E004B004D00340200004E
:1001B000000001000000000000000000000000003E
:1001C00000001E021F02200221022202230224023A
:1001D0002502260227023A003B003C003D003E007B
:1001E0003F0040004100420043003900E300490065
:1001F0004C002A002D002E002F003000340000009B
:1002000000000100E30028002A002C00010000008B
:100210000000015A025A035A045A045A055A065A4F
:10022000235A245A255A075A095A0B5A0D5A115A59
:100230001A5A1C5A1E5A205A225A085A0A5A0C5A3A
:100240000E5A125A1B5A1D5A1F5A215A295A000077
:10025000000003530F5A105A185A195A165A000020
:10026000000005010902A10185020901A10005099B
:10027000190129081500250195087501810205015C
:10028000093009311581257F9502750881060938E5
:100290001581257F950175088106050C0A38021520
:1002A00081257F950175088106C0C005010980A1DF
:1002B00001850319012AB700150126B700950175BC
:1002C000108100C0050C0901A101850419012AA0B3
:1002D00002150126A002950175108100C0050109D3
:1002E00006A1018506050719E029E71500250195F6
:1002F00008750181020507190029EF1500250195F0
:10030000F07501810205081901290595057501910E
:1003100002950175039101C005010906A1010507B8
:1003200019E029E71500250195087501810295015D
:10033000750881010507190029FF150026FF0095A2
:1003400006750881000508190129059505750191B3
:1003500002950175039101C009027800040100A013
:10036000FA09040000010301010009211101000143
:100370002240000705810308000A09040100010367
:1003800000000009211101000122B60007058203C7
:1003900020000A080B020202020100090402000107
:1003A00002020100052400100104240202052406B3
:1003B0000203070583030800FF09040300020A0083
:1003C000000007050502100005070584021000055E
:1003D00012010002EF020108EDFE0000010001021F
:1003E00000010C03680075006D006C0061000000E6
:1003F0000A036A006D006E00770000000403090420
:1004000011241FBECFEFDAE0DEBFCDBF04B603FE7E
:1004100027C080912D0390912E03A0912F03B091BE
:1004200030038730904BA740B04BD1F410922D038E
:1004300010922E0310922F031092300314BE84B733
:10044000877F84BF0FB6F894A8958091600088617B
:1004500080936000109260000FBEE0E0F8E3099521
:1004600011E0A0E0B1E0E2E9F4E402C005900D92F1
:10047000A03BB107D9F723E0A0EBB1E001C01D928A
:10048000AD32B207E1F70E947D1E0C9423220C943A
:100490000000E8EDF0E080818E7F80831092E20022
:1004A0001092DA001092E100A0EEB0E08C91816031
:1004B0008C9380818F77808319BCA7EDB0E08C91FD
:1004C0008E7F8C9380818F7E80831092FB020895B3
:1004D0002091E4003091E50095E6A9012091EC001F
:1004E000822F817020FF06C08091E80080FF06C047
:1004F00080E008952091E80022FD1AC08091290330
:10050000882389F0853089F08091EB0085FD0FC04C
:100510002091E4003091E50042175307F9F2915021
:10052000E1F684E0089582E0089583E0089581E093
:10053000089580912903843061F580916101909143
:100540006201A0916301B0916401892B8A2B8B2BEE
:1005500001F180914E018F708093E9009091F3003A
:100560008091F200892B11F480E008959091E800C9
:100570008091E8008E778093E80095FDF5CF0E948A
:100580006802811107C09091E8009E779093E8007F
:10059000089582E00895EF92FF920F931F93CF93F7
:1005A0007C018B010E946802C82F811117C08091C5
:1005B000E80085FD0BC08091E8008E778093E8000D
:1005C0000E946802882399F3C82F08C0F70181911F
:1005D0007F018093F1000150110949F78C2FCF91D1
:1005E0001F910F91FF90EF9008958091210387FF55
:1005F00013C08091E80082FF06C08091E8008B77ED
:100600008093E80004C0809129038111F2CF0895FE
:10061000809129038823D9F38091E80080FFF8CFE7
:100620008091E8008E77ECCF982F9093E900242FEB
:10063000762F50E0891731F07091EC002091ED0099
:100640005091F00021FD07C09F5F973071F78093B4
:10065000E90081E008953091EB003E7F3093EB009C
:100660003091ED003D7F3093ED003091EB00316033
:100670003093EB007093EC002093ED005093F0006A
:100680002091EE0027FDE0CF80E00895CF92DF9229
:10069000EF92FF920F931F93CF93DF93C8EDD0E0BB
:1006A00088818F7E8883E7EDF0E0808181608083A0
:1006B00084E082BF81E08093FB0288818E7F888303
:1006C00002EE10E0F80110821092DA0081EEC82EDE
:1006D000D12CF601108288818F7788838881806889
:1006E000888388818F7D888319BC1092290310929A
:1006F000200310921F0310921E0390EEE92EF12C9E
:10070000F70180818B7F808388818160888342E0CC
:1007100060E080E00E941403F60180818E7F808378
:10072000F801808181608083808188608083F70107
:1007300080818E7F8083888180618883DF91CF91E3
:100740001F910F91FF90EF90DF90CF900895FC01E3
:10075000809127039091280386179707A0F06115D1
:10076000710529F49091E8009E779093E80090E05D
:100770006115710551F4911108C08091E80082FF64
:1007800034C080E00895BC01F2CF80912903882312
:10079000C1F18530C1F18091E80083FD30C08091C6
:1007A000E80082FDEACF8091E80080FFE1CF8091F0
:1007B000F3002091F200382F6115710519F02830EF
:1007C000310558F091E02830310509F090E0209192
:1007D000E8002E772093E800CBCF81918093F10041
:1007E000615071092F5F3F4FE7CF80912903882324
:1007F00041F0853041F08091E80083FFBECF81E079
:10080000089582E0089583E0089508958091FD029F
:1008100008959C014FB7F8948091F2029091F302F1
:10082000A091F402B091F5024FBF821B930B089583
:100830002FB7F8948091F2029091F302A091F40204
:10084000B091F5022FBF089520914C012223C9F0E9
:100850002091F60227FF15C0E62FE695E695E6956E
:10086000EE31D8F4E80FF92FF11D677021E030E088
:1008700001C0220F6A95EAF72095828128232283FE
:100880000895FC01329608962191621303C0DF019E
:1008900011971C92E817F907B9F7089520914C01B8
:1008A0002223C1F02091F60227FF14C0E62FE6951F
:1008B000E695E695EE31F8F4E80FF92FF11D677033
:1008C00021E030E001C0220F6A95EAF78281822B95
:1008D00082830895FC0132962FEF30E04191641736
:1008E00051F02F3F19F4411101C0232F3F5F3630E3
:1008F000A9F72F3F09F40895820F911D27FD9A95BE
:10090000FC01628308952091EF023091F0022817D4
:10091000390771F09093F0028093EF02E091ED02BD
:10092000F091EE02309721F00084F185E02D0994DA
:1009300008952091EB023091EC022817390771F0ED
:100940009093EC028093EB02E091ED02F091EE02C5
:10095000309721F00680F781E02D09940895E09109
:10096000ED02F091EE02309721F00190F081E02D40
:10097000099480E00895DC016091E7028091E8022B
:10098000962F891301C00895292F30E0F901EE0F49
:10099000FF1FE152FD4F408151814A175B07A1F4CF
:1009A00087E08A9FA0018B9F500D1124445F5E4F0A
:1009B00081E0FA0184839613E6CF2F5F3F4F2370C7
:1009C00033272093E70208952F5F3F4F922F9370B4
:1009D000D8CF10927C0210927B02ECE0F1E085818E
:1009E000811102C014821682379681E0EB34F80739
:1009F000B1F708950E9418049C01909177028091AC
:100A00007802982B21F03093740220937302909116
:100A1000790280917A02982B21F030937202209310
:100A20007102E091ED02F091EE02309749F082E020
:100A3000809375020480F581E02D85E792E00994AA
:100A40000895409177028D3E59F48091780287FF96
:100A50000DC01092780241110BC010926F0208C0B5
:100A60008E3E81F48091780218169CF3442381F025
:100A70008091790290917A02892B09F05AC01092E4
:100A80006E0208958F3E49F447FFF0CF109277022F
:100A9000809178028111ECCFE0CF803F19F41416D9
:100AA000ACF3E4CF90917902893F29F41916F4F65A
:100AB00010927902DBCF8A3F19F497FFD7CFF8CF96
:100AC00090917A028B3F29F497FFD0CF10927A024F
:100AD000CDCF8C3F19F41916CCF3C8CF9FE0980FF7
:100AE000983090F4815F990B21E030E0B90102C0A9
:100AF000660F771F8A95E2F7CB0180959091760279
:100B0000892380937602B2CF8D3F31F480917002B9
:100B10008E7F80937002AACF8E3F21F48091700265
:100B20008D7FF7CF8F3F09F0A1CF809170028B7F2F
:100B3000F0CF08958091700280FD16C081FD16C02F
:100B400082FD16C080916E028823A1F0883280F465
:100B500028E0829FC001112468E270E00E94A62173
:100B6000862F672B39F0089582E0089584E0089578
:100B700088E0089581E008958091700280FD14C09E
:100B800081FD14C082FD16C080916F02882381F020
:100B9000843180F422E3829FC001112464E170E07B
:100BA0000E94A621862F08958CE0089589E108957A
:100BB00085E0089582E308958D3E31F40E94BC05DE
:100BC00081958093780208958E3E19F40E94BC05A9
:100BD000F8CF8F3E31F40E94BC0581958093770257
:100BE0000895803F19F40E94BC05F8CF893F29F48D
:100BF0000E949A058093790208958A3F21F40E9409
:100C00009A058195F7CF8B3F31F40E949A05819523
:100C100080937A0208958C3F19F40E949A05F8CFC8
:100C20009FE0980F983070F4815F990B21E030E0DD
:100C300001C0220F8A95EAF780917602822B809379
:100C4000760208958D3F31F4809170028160809327
:100C5000700208958E3F21F4809170028260F7CF78
:100C60008F3FB9F7809170028460F1CFCF93DF930B
:100C700000D000D00F92CDB7DEB76B837C838D831D
:100C80008C819D81892B21F0CA0189238F3F51F4EA
:100C900080E081700F900F900F900F900F90DF9178
:100CA000CF9108958B81F5CF80E00895F894E82FD7
:100CB000E295EF70F0E031A1282F2F7081E090E0F5
:100CC00001C0880F2A95EAF7982F9095932391A356
:100CD00092A1892B82A3789408959091F60292FFB5
:100CE00006C0282F28712830F9F4877F846093FF8D
:100CF00006C0282F28712831F1F4877E8461209165
:100D0000F70220FF06C0382F38713830D9F4877FBA
:100D1000816021FF06C0282F28712831D1F4877EF9
:100D2000816194FD877E0895282F24712430F9F67F
:100D30008B7F8860DCCF282F2471243101F78B7ED4
:100D40008861DDCF382F3171313019F78E7F88609F
:100D5000E0CF282F2171213121F78E7E8861E1CFEC
:100D6000CF93DF93EC0182389105A9F1D8F5813357
:100D7000910509F496C048F58932910509F48AC0B5
:100D80008A9709F495C0C11521E5D20708F0BCC0C7
:100D9000C11530E5D30708F014C1C83ED10508F0ED
:100DA0009CC0C03ED10560F5C83AD10508F087C0A7
:100DB000C53AD10508F0FDC0C130D10509F1209731
:100DC000F9F0C430D105E0F440C08533910509F451
:100DD0005AC0C997C1F68091F602837089F0C0EEBF
:100DE000D0E00EC0833E910599F170F4803E9105EC
:100DF00001F1823E910539F68091F60282FD21C013
:100E0000CE01DF91CF910895863E910561F1873E35
:100E1000910571F1843E910509F0B5CF8091F702FB
:100E200081FFEECF8091F602C7EED0E084FD0DC0C9
:100E3000E7CF8091F60280FD12C19091F70290FFFA
:100E4000DFCFC3EED0E084FFDBCFD0E0C0E0D8CF6F
:100E50008091F60282FD06C19091F70290FDBFCF0E
:100E600084FFCECFF2CF8091F60283FDDDCFC8CFD5
:100E70008091F60283FDF9C09091F70291FFF0CFC7
:100E8000C4EED0E0BDCF8091F60285FFB9CFC9E2B4
:100E9000D0E0B6CF8091F60285FFB2CFC5E3D0E0B7
:100EA000AFCF8091F60286FFABCFCAE2D0E0A8CFE9
:100EB0008091F60286FFA4CFC1E3D0E0A1CFCF3B63
:100EC000D10518F6C85AD0E0CC0FDD1FCD58DE4F43
:100ED0000990D881C02DD46493CFC11540E2D407C6
:100EE00058F4C11581E0D80708F08ACFCD3ED1056E
:100EF00008F4ABCFD06584CFC11590E4D90708F4CE
:100F0000A4CFDF70D06A7CCFC11525E5D20700F5EC
:100F1000C11534E5D30708F08AC0C11543E5D407ED
:100F200008F071C0C11582E5D80708F467C0CE018A
:100F30008370992721E030E002C0220F331F8A9589
:100F4000E2F7C695C69580E2C89FE001112452C021
:100F5000C11599E5D907A8F4C11528E5D20708F00D
:100F60006BC0C11536E5D30708F06FCF8C2F0E94F8
:100F70006D06C82FD0E0DC2FCC27CC27DF71D062E4
:100F80003FCFC1154AE5D40708F45BC0CE019056A7
:100F90008115904208F059CF8D2F8F710E946D06F8
:100FA00090E0982F882788279F719C012C2BE901BE
:100FB000E6CFC55AD0E0C059DE4FC881D0E0D0643A
:100FC0001FCFCE01E4E096958795EA95E1F783700F
:100FD0002C2F26952695237040E2249F9001112402
:100FE000382B8C2F8370C1E0D0E002C0CC0FDD1F06
:100FF0008A95E2F7C22BD32BDC6802CFDC2FCC27FB
:10100000C16FD06AFDCECE018370992721E030E018
:1010100002C0220F331F8A95E2F7C695C69590E26B
:10102000C99FE0011124C22BD32BDA68E9CEDC2F53
:10103000CC27C46FD06AE4CEDC2FCC27C06FD06A37
:10104000DFCE8C2F8F700E946D0634E0D695C79549
:101050003A95E1F7CF709C2FEC01D069D1CEC9E36E
:10106000D0E0CECEC2EED0E0CBCEC6EED0E0C8CE41
:1010700080913B02811110923B02089580959091DE
:101080003A02982390933A02089580913A029091FF
:101090003902892B90913802892B8093B20190916B
:1010A0003B029923A1F0892B8093B20180914C01DE
:1010B000882341F18091F60287FF24C08EE1E4EBA2
:1010C000F1E090E0815000F591110E943808E09124
:1010D000ED02F091EE023097E1F080914C0188230F
:1010E00059F08091F60287FF07C08091B20180938A
:1010F000B30186E08093B2010280F381E02D82EBA0
:1011000091E0099486E0DBCF21912223D9F29F5F01
:10111000D9CF0895809136029091F501981301C0BE
:1011200008958F5F8770FACFAF92BF92CF92DF9210
:10113000EF92FF920F931F93CF93DF93C0904302E0
:10114000D0904402E0904502F090460240913C026B
:1011500050913D0260913E0270913F02C42AD52A0F
:10116000E62AF72ACFE1D0E0082F10E02AE0929F8C
:10117000000D111D112498E2A92EBC2ED701C60125
:101180000C2E04C0B695A795979587950A94D2F72B
:1011900080FD0FC0219788F7B12C8B2DDF91CF9167
:1011A0001F910F91FF90EF90DF90CF90BF90AF9085
:1011B0000895AC9EF001AD9EF00D1124E00FF11FDB
:1011C000EE0FFF1FEE5DFE4F859194910E94B006D9
:1011D000019701F3E2CFCF93DF93EC010E949408D3
:1011E000EC2FF0E09AE0D99FE00DF11D112498E278
:1011F000899FE00DF11D1124EE0FFF1FEE5DFE4FE4
:1012000085919491DF91CF910C94B0062AE0929F42
:10121000800D1124982F977086958695869525E0E8
:10122000829FF0011124EC52FE4F50E040E080E03C
:10123000219130E0092E02C0369527950A94E2F7F5
:1012400021703327042E01C0220F0A94EAF7822B63
:101250004F5F5F4F4530510559F708952AE0929F3F
:10126000800D1124982F977041E001C0440F9A958A
:10127000EAF786958695869595E0899FF001112479
:10128000EC52FE4F90E080E070E05191DF01119749
:101290009B01082E02C0369527950A94E2F721702B
:1012A00021952527242325272C9301968530910508
:1012B00061F70895FC0186819781009779F00E947B
:1012C000B006292F2F7092959F7092509E30A0F4F7
:1012D000E92FF0E0EB5DFD4D0C94BA218081918106
:1012E0000E94EB08EECF803F19F020F4883E20F4F6
:1012F00081E00895843FE1F380E00895883EC0F3E3
:10130000813FD1F7F5CF822F8695869586950895F2
:1013100090E080E00E94990490E080E00E948304C5
:1013200010923902109238020E94450886E0E5E7E3
:10133000F2E0DF011D928A95E9F710926F02109298
:101340006E02109270020C94FA0460934302709340
:10135000440280934502909346020C9488090F93AF
:101360001F9341E050E060E070E004C0440F551F5F
:10137000661F771F8A95D2F7CB01BA0160957095E9
:10138000809590950091430210914402209145026E
:101390003091460260237123822393231F910F9182
:1013A0000C94A50990913702809589238093370288
:1013B000282F277091F4282F082E000C330B92173A
:1013C000130659F09091F70292FD07C08595859517
:1013D00085950E94AF091092370208950F931F93CD
:1013E00041E050E060E070E004C0440F551F661F0C
:1013F000771F8A95D2F78091430290914402A09181
:101400004502B09146028A019B01082B192B2A2B19
:101410003B2BC901B8011F910F910C94A509609352
:101420003C0270933D0280933E0290933F020C94E5
:101430008809882321F00E943E080C9445080895ED
:10144000882339F090913A02982B90933A020C94A9
:1014500045080895882379F19CEF980F913A38F464
:10146000682F82EB91E00E9424040C94450890E2DE
:10147000980F983050F4877091E001C0990F8A95C9
:10148000EAF7892F0E943E08F0CF9BE5980F933032
:1014900020F490E080E00C94990498E5980F97313F
:1014A00020F490E080E00C9483048D3E20F00E94B4
:1014B00021050C94FA040895CF93C82F882309F4CA
:1014C0006FC08CEF8C0F813AC0F580914C0188235E
:1014D00011F18091F60287FF1EC0EC2FE695E6958C
:1014E000E695F0E0EE54FE4F828190E04C2F47707D
:1014F00021E030E002C0220F331F4A95E2F7822339
:101500009323892B91F06C2F82EB91E00E942404AD
:101510000E9445080AC0E4EBF1E08AEB91E02191DA
:10152000C21789F38E179F07D1F76C2F82EB91E0DA
:101530000E944E04CF910C94450880E28C0F8830B5
:1015400068F4C77021E030E001C0220FCA95EAF7C5
:1015500080913A02822B80933A02ECCFEBE5EC0FBC
:10156000E33040F4F0E0E059FE4F808190E0CF910D
:101570000C949904E8E5EC0FE73150F4F0E0EE0F3D
:10158000FF1FED58FE4F80819181CF910C94830411
:10159000CD3E30F08C2F0E94DC05CF910C94FA04E4
:1015A000CF9108951F93CF93DF9300D000D00F9277
:1015B000CDB7DEB79C01FC0186819781009751F57C
:1015C00085E0DE01119601900D928A95E1F7F9010F
:1015D000228189819A81222331F1662321F10E949F
:1015E0009408182F682F89819A810E942E098A8178
:1015F000E981F0E09AE0899FE00DF11D112488E275
:10160000189FE00DF11D1124EE0FFF1FEE5DFE4F40
:10161000859194910F900F900F900F900F90DF9104
:10162000CF911F9108950E940609182FE0CF1F93B4
:10163000CF93DF93C62FD42F122FFC0182818823F2
:1016400099F060932C030E94180490932B038093CD
:101650002A03C77081E001C0880FCA95EAF7DF91BD
:10166000CF911F910C94200A80912C03681343C0E2
:1016700080912A0390912B030E940904883C9105D4
:10168000D0F5CD17C9F080E28C0F883040F4C770D8
:1016900081E001C0880FCA95EAF70E94190A80E22A
:1016A0008D0F883048F481E09D2F977001C0880F1E
:1016B0009A95EAF70E94200A812F0E945C0A8EE127
:1016C00090E0EFE9FFE03197F1F700C000000197EB
:1016D000C1F7812F0E942A0A80E28D0F883090F492
:1016E000D77081E001C0880FDA95EAF7DF91CF91DA
:1016F0001F910C94190AC77081E001C0880FCA9528
:10170000EAF7F4CFDF91CF911F910895CF93C09165
:10171000E9002091EC00922F917020FD90E820913B
:101720005D0120FF12C0CF70C92B90914E019F70B8
:101730009093E9009091EB0090FF04C09091EE002F
:1017400097FD05C0CF70C093E900CF9108959FEF3A
:101750002091E800915025FD06C025ED2A95F1F76E
:1017600000009111F5CF8093F1008DE491E00E948B
:1017700099028091E80080FFE5CF8091E8008E77A4
:101780008093E800DFCF8093F8027093FA026093B1
:10179000F90280912903843001F582E08093E90009
:1017A0008FEF9091E800815095FD06C095ED9A95D8
:1017B000F1F700008111F5CF8091E80085FF0DC0A1
:1017C00050E040E063E070E088EF92E00E94CB02DE
:1017D0008091E8008E778093E8000895BC0184E052
:1017E0000C94C30BBC0183E00C94C30B9C0182E0FE
:1017F0008093E9009FEF8091E800915085FD06C03D
:1018000085ED8A95F1F700009111F5CF8091E80000
:1018100085FF0CC050E040E066E070E0C9010E9426
:10182000CB028091E8008E778093E8000895CF93F3
:10183000DF93EC0180914C018823B1F18091F60295
:1018400087FF32C060E282E08093E9008FEF9091E1
:10185000E800815095FD06C095ED9A95F1F70000DE
:101860008111F5CF8091E80085FF1BC080914C016C
:1018700070E050E040E0811104C050E040E068E0DA
:1018800070E0CE010E94CB028091E8008E778093B9
:10189000E80080E2FE01AEEFB2E001900D928A9581
:1018A000E1F7DF91CF91089568E081E0CDCFCF934C
:1018B000C091F702C2FB992790F9981799F080FB25
:1018C000C2F9C093F7026091F60284E090E00E94B2
:1018D000EF216C2F82E290E00E94EF2182E0CF9115
:1018E0000C94D209CF91089586E0E7E6F2E0DF019B
:1018F000982F1D929A95E9F7E1E6F2E0DF011D923B
:101900008A95E9F70895CF93C82F0E94740CC0936D
:101910006D026C2F8DE090E0CF910C94EF2110922E
:101920003A0280914C01E4EBF1E0882359F0809178
:10193000F60287FF07C08EE1DF011D928A95E9F765
:101940000C94880986E0F8CF1F93CF93DF93CDB72F
:10195000DEB7AA970FB6F894DEBF0FBECDBF81E207
:1019600093E02091F100FC012193CF01F3E0893253
:101970009F07B9F780912203833009F4B9C008F0BA
:101980004CC0813009F47FC0823009F4F9C08091E5
:10199000E80083FF9CC020914D0180912503909128
:1019A00026032817190609F092C08091220381327C
:1019B00009F406C108F0F5C0803209F088C08091B2
:1019C0002103813209F083C08091E800877F8093F2
:1019D000E8008091E80082FF30C13091F100209151
:1019E000F1009091F1008091F1003093610120931A
:1019F000620190936301809364018091F100809370
:101A000065018091F100809366018091F1008093DF
:101A100067018091E8008B770BC18A3009F49FC081
:101A20008B3009F482C0893009F0B1CF8091210355
:101A3000813209F0ACCF8091250390912603029763
:101A400008F0A5CF8091E800877F8093E80080911F
:101A5000E80082FF38C09091F3008091F200029775
:101A600031F48091F100813011F0863021F48091C1
:101A7000F1008093FD028091E8008B778093E8006D
:101A80000E94F50284CF80912103813A09F07FCF33
:101A90008091E800877F8093E800809125039091F2
:101AA0002603892B61F460E28EEF92E070E00E94E1
:101AB000A7038091E8008B778093E80068CF60E00F
:101AC00090E080E0F3CF809129038111C0CF809115
:101AD000E80083FF9CC280912103909122039A30F9
:101AE00008F095C2E92FF0E0ED5CFD4D0C94BA21B1
:101AF00080912103813A09F04ACF8091250390918A
:101B00002603892B09F043CF8091E800877F8093DB
:101B1000E8008091E80080FFFCCF80914C01809329
:101B2000F1008091E8008E77A9CF80912103813266
:101B300009F02DCF8091250390912603892B09F080
:101B400026CF8091E800877F8093E8000E94F5020D
:101B50008091230380934C010E948F0C18CF8091B9
:101B60002103813209F013CF8091E800877F8093B1
:101B7000E8000E94F502809124038093FC0207CFC5
:101B800080912103813A09F002CF8091E800877F9C
:101B90008093E8008091E80080FFFCCF8091FC02F8
:101BA000BECF823209F44EC0833209F090CF8091CB
:101BB0002103813209F08BCF8091E800877F38C004
:101BC00080912103813A09F082CF8091E800877FDC
:101BD0008093E8008091E80080FFFCCF8091610154
:101BE00090916201A0916301B09164018093F10032
:101BF000492F5A2F6B2F77274093F100AD016627AD
:101C000077274093F1008B2F9927AA27BB27809332
:101C1000F100809165018093F100809166018093CD
:101C2000F100809167018093F1008091E8008E7748
:101C30008093E8000E94F5024ACF80912903811128
:101C4000C8CE45CF80912103813209F040CF8091E9
:101C5000E800877F8093E8000E94F50280912303CB
:101C60009091240390935E0180935D0130CF803882
:101C700099F0823809F0CBC1809125038F708730AD
:101C800008F0C5C18093E9008091EB0085FB8827AF
:101C900080F91092E90006C080911E0390911F0305
:101CA000911182609091E800977F9093E800809373
:101CB000F1001092F1008091E8008E77A4C1882392
:101CC00009F492C1823009F0A2C1809123038111ED
:101CD00095C1809125038F702FEF280F263008F0D3
:101CE00096C18093E9002091EB0020FF87C19330DB
:101CF00031F48091EB0080628093EB007FC1909182
:101D0000EB0090619093EB0021E030E001C0220FE6
:101D10008A95EAF72093EA001092EA008091EB009E
:101D20008860EACF811173C1109123031F778091DE
:101D3000E3008078812B8093E3008091E800877F27
:101D40008093E8000E94F5028091E80080FFFCCFBC
:101D50008091E30080688093E30082E0111183E0CA
:101D60008093290354C18058823008F050C180917B
:101D70002303909124038C3D23E09207A1F583E097
:101D80008A838AE289834FB7F894DE01139620E0B4
:101D90003EE051E2E32FF0E050935700E49120FF42
:101DA00003C0E295EF703F5FEF708E2F90E0EA3056
:101DB000C0F0C7968D939D932F5F243159F74FBF85
:101DC0008091E800877F8093E8006AE270E0CE01AE
:101DD00001960E94A7038091E8008B778093E8002A
:101DE00016C1C096E7CF4091250350912603292FB5
:101DF00033272330310509F444C078F5213031050B
:101E000009F46FC088E790E0E8E5F3E0223031059F
:101E100009F0FDC02091E800277F2093E800209181
:101E20002703309128038217930708F49C0140E0B0
:101E30002115310509F064C0411162C08091E800AC
:101E400082FDC9CF80912903882329F2853019F2B8
:101E50008091E80083FFF2CFBECF21323105A9F196
:101E60002232310509F0D3C04115510509F443C0B0
:101E70004130510509F0CBC086EB90E0E2E6F2E09C
:101E8000C9CF992781309105C1F0009759F0029789
:101E900009F0BDC0E2EEF3E0E4918E2F90E0E2EEB7
:101EA000F3E007C0ECEFF3E0E4918E2F90E0ECEF6D
:101EB000F3E0009709F4ABC0ADCFE0EFF3E0E491BD
:101EC0008E2F90E0E0EFF3E0F4CF4115510571F073
:101ED0004130510509F09BC089E090E0E3E8F3E070
:101EE00099CF82E190E0E0EDF3E094CF89E090E0DB
:101EF000EAE6F3E08FCF80E490E0E8E1F3E08ACF18
:101F000080912903882309F466CF853009F463CFD3
:101F10008091E80083FD5FCF8091E80082FD8ECF45
:101F20008091E80080FF84CF9091F3008091F200CF
:101F30002115310519F08830910550F041E00897DE
:101F400009F040E08091E8008E778093E80070CF40
:101F500044914093F1003196215031090196E8CF28
:101F6000803809F054C08091E800877F8093E800B2
:101F7000809120038093F1009ECE811148C0109182
:101F80002303123008F043C08091E800877F8093DC
:101F9000E800109320030E94F502112311F084E061
:101FA00005C08091E30087FDFACF81E0809329038B
:101FB00042E061EC81E00E94140342E261EC82E0C5
:101FC0000E94140342E061EC83E00E94140342E1AA
:101FD00060E885E00E94140342E161E884E00E9429
:101FE00014038091290313C080912303813079F475
:101FF00081E0933009F080E080931F031092E900A4
:102000008091E800877F8093E8000E94F50280912C
:10201000E80083FF0AC08091E800877F8093E80092
:102020008091EB0080628093EB00AA960FB6F89443
:10203000DEBF0FBECDBFDF91CF911F910895CF932B
:1020400084E090E00E94E121C82F82E290E00E94AB
:10205000E121982F8C2FCF91089569EE7EEF90E0CB
:1020600080E00E940D2260E082E090E00E94EF217B
:1020700060E083E090E00E94EF2110923C02109219
:102080003D0210923E0210923F0260E084E090E038
:102090000E94EF2160E082E290E00E94EF2160E088
:1020A00085E090E00E94EF2160E086E090E00E94F1
:1020B000EF216FEF87E090E00E94EF2140E050E0D9
:1020C000BA0188E090E00E94012260E08DE090E09B
:1020D0000E94EF2140E050E0BA0188E190E00E94C8
:1020E000012260E087E190E00E94EF2140E050E0B3
:1020F000BA018CE190E00E94012270E060E080E291
:1021000090E00E940D2240E050E0BA0188E190E0AA
:102110000E94012240E050E0BA018FE090E00E946E
:10212000012240E050E0BA0183E190E00C940122EA
:102130004F925F926F927F928F929F92AF92BF92D7
:10214000CF92DF92EF92FF920F931F93CF93DF9383
:102150008C01FC0183819481892B31F080819181F4
:1021600089238F3F09F001C5DF91CF911F910F9116
:10217000FF90EF90DF90CF90BF90AF909F908F90A7
:102180007F906F905F904F900895C63FECE5DE071B
:1021900009F421C108F41BC1C73F2CE5D20709F49B
:1021A0001EC1F8018281882309F41BC510922C03FB
:1021B000C430FDE5DF0708F019C1CB3F2CE5D2079D
:1021C00030F4CE0182509C45449708F014C10E941F
:1021D0001F109093F7028093F602C0318CE5D80768
:1021E00009F4DCC108F058C1C830ECE5DE0709F499
:1021F000C3C108F02AC1C4302CE5D20709F4AEC12E
:1022000008F010C1C2308CE5D80709F4A1C1809153
:10221000F6028260C330DC4509F49DC16091F6028C
:10222000C091F70284E090E00E94EF216C2F82E2DF
:1022300090E00E94EF210E948F0C0DC0F8014081B8
:1022400051816281738184810E943606882319F04E
:1022500080E00E94830C80913702877009F484CF5C
:10226000F8018281882309F47FCF8091F70282FDF3
:102270007BCF82E0DF91CF911F910F91FF90EF9084
:10228000DF90CF90BF90AF909F908F907F906F9096
:102290005F904F900C94D209F0906D02F80140814C
:1022A00051816281738184810E943606582FFF20FC
:1022B000A1F0F1E0FF1681F1C091D201F801408157
:1022C00051816281738184810E943606882309F4DA
:1022D00045C0CF5FC093D201BECFFE01FF27EE51B4
:1022E000FF4FE491AE2FA295A695A695A370B0E0FE
:1022F000882361F0ED01C959DD4F88818E2B8883D9
:10230000AF59BD4FCC91EC2BEC93D6CFA959BD4F13
:10231000E095CC91EC23F8CF8C2F67E00E949A21B6
:10232000492F90E066E070E0641B710921E030E025
:1023300001C0220F6A95EAF7FC01E959FD4F40817F
:10234000552349F0422B4083FC01EF59FD4F80811A
:10235000282B2083B1CF20952423FBCFC1501C16FE
:102360000CF4B8CF1092D201FF2031F0F1E0FF164B
:10237000A1F00E94740C6FCFC1E6D2E065E6E62EB4
:1023800062E0F62E899181110E94860BEC16FD0603
:10239000C9F780E00E94860BECCF809161028068D3
:1023A00080936102C1E6D2E057E6E52E52E0F52EB9
:1023B00089910E94860BEC16FD06D1F7DACF27E251
:1023C00045EE65EEFAC326E241EE60EEF6C327E283
:1023D00045EE64EEF2C326E241EE62EEEEC327E282
:1023E00045EE66EEEAC328E241E0EBCFC2363DE5BA
:1023F000D30709F4ECCEC631ECE5DE0709F0FEC3E5
:1024000080913A028A7A91E009F490E09093D301A6
:1024100069E2811165E382EB91E00E944E040E9423
:10242000450819CF8091F6028061C630ECE5DE07E1
:1024300009F491C08091F6028860C730DC4508F449
:102440008AC08091F602806286C08091F6028D7FFC
:10245000CC302CE5D20709F47EC058F4CA308CE5A4
:10246000D80709F493C008F48BC08091F6028E7FE0
:1024700072C08091F602877FCE30ECE5DE0709F46A
:102480006AC08091F6028B7FCF30DC4508F463C0D0
:102490008091F6028F7E5FC0CD3F2CE5D20709F414
:1024A00079C068F5C4318CE5D80709F48BC080F495
:1024B000C231ECE5DE0709F475C08091F6028F7B2E
:1024C000C331DC4508F447C08091F602837F43C0E6
:1024D000CB3F2CE5D20709F445C008F049C0C5310F
:1024E000DC4509F09BCE8091F60282FB992790F99A
:1024F00021E0922790FB82F990FB83F92CC0C13038
:102500009DE5D90709F454C088F48091F7028360EF
:10251000CF3FFCE5DF0749F18091F7028D7FC115C0
:10252000DD4518F18091F7028C7F1FC0C3303DE577
:10253000D30709F456C008F44EC0C236DD4509F091
:102540006DCE9091F602892F8F7E94FF806103C03B
:102550008091F60281608093F60260CE8091F6024F
:102560008460F9CF8091F70281608093F70256CEA4
:102570008091F7028260F9CF8091F6028064EBCF00
:102580000E948F0C8091F6028068E5CF8091F60260
:102590008C60E1CF8091F7028E7FE7CF8091F602C9
:1025A0008F7DD9CF0E948F0C8091F6028F77D3CF89
:1025B0008091F702982F909591708E7F892B90FBD8
:1025C00081F9D3CF0E948F0C9091F602892F97FB4F
:1025D00087F98058C0CF61E08EE090E00E94EF2143
:1025E0001DCE60E0F9CF0E948F0CFFEF24E33CE0AA
:1025F000F15020403040E1F700C0000087E797E746
:10260000909301088093000888E19AE00FB6F8944F
:10261000A895809360000FBE90936000FFCF81E08B
:102620000DC380E00BC38281C081D1818823D9F0A2
:10263000CE010E949408F82E682FCE010E942E0928
:10264000EC2FF0E02AE0D29FE00DF11D112438E2DA
:10265000F39EE00DF11D1124EE0FFF1FEE5DFE4F06
:1026600085919491F3C2CE010E940609F82EE8CF1D
:102670002C2F2F70E22EC07F19F0E29490EFE92208
:10268000FF20B9F0EE2069F080E28D0F883010F065
:10269000D11109C080913A02E82AE0923A020E94E0
:1026A00045088D2F4AC080913902E82AE09239020C
:1026B000F6CF8D2F0E942A0AEE2009F440C080E256
:1026C0008D0F883010F0D11104C08E2D0E943E086D
:1026D00006C0E09480913902E822E09239020E941B
:1026E00045082DC03C2F3F70E32EC07FC03219F04B
:1026F000E29480EFE822DD2381F0D13009F47AC042
:10270000FF2009F484C0BB2009F47AC0F801858158
:1027100080FFC7CF8F70858373C02091F70222FF9F
:1027200046C0FF20F1F1EE2039F080913A02E82A0C
:10273000E0923A020E94450880E00E945C0AEC2D7B
:10274000E850FF0B349710F40E94AF04DD20A9F08D
:102750008091370280FD11C0F80112828595859520
:1027600085950E94EE09C8010E9498108091370259
:102770008595859585950E94AF0960E0C801DF9138
:10278000CF911F910F91FF90EF90DF90CF90BF906E
:10279000AF909F908F907F906F905F904F900C9430
:1027A000D20A80E00E942A0AEE2049F28ECFFF2052
:1027B000A1F090913B028E2D892BB11003C00E9495
:1027C000200ABDCFE1E0BE12FACF22FDB8CF9817A4
:1027D00009F4B5CF80933B02B2CFB11006C00E947E
:1027E00038088E2D0E94190AAACFF1E0BF1609F40D
:1027F000A6CFF5CFFF2031F025E02B1508F49FCFB1
:102800008E2DDDCF34E03B1508F499CFEACFBB2005
:1028100041F3D93369F4FFEF27EE33E0F150204064
:102820003040E1F700C000008D2F0E942A0A87CFB8
:102830008FEF96E7E1E081509040E040E1F7F2CF82
:102840008C2F86958695837069F0813009F077CF5B
:102850008D2F9C2F9370F11002C090E080E00E94B9
:1028600083046DCF8D2F9C2F9370F11002C090E0E8
:1028700080E00E94990463CF8D2FFF2029F00E94F1
:10288000DC050E94FA045BCF0E942105FACF8C2F51
:10289000837009F065C0F11052CF8D2F8295869517
:1028A0008770880F880F6D2F6F70862E912CB12C3A
:1028B000A12C082E04C0880C991CAA1CBB1C0A94CD
:1028C000D2F740E050E0BA01D4FF0FC04FE050E033
:1028D00060E070E004C0440F551F661F771F8A95A3
:1028E000D2F74095509560957095C695C695C37082
:1028F000C23019F1D8F440903C0250903D026090F3
:102900003E0270903F02C13069F0482959296A2976
:102910007B29CB01BA0164217521862197210E9470
:102920000F0A0DCF84289528A628B728CB01BA0115
:10293000682979298A299B29F2CF482959296A29A6
:102940007B2980903C0290903D02A0903E02B09086
:102950003F02CB01BA01682579258A259B25DFCF67
:102960008695FF2011F08C2F8170882309F4E7CE23
:102970008D2F829586958770880F880F6D2F6F70C9
:10298000862E912CB12CA12C082E04C0880C991CE9
:10299000AA1CBB1C0A94D2F740E050E0BA01D4FF55
:1029A0000FC04FE050E060E070E004C0440F551FDE
:1029B000661F771F8A95D2F7409550956095709560
:1029C000C695C695C370C23019F1D8F44090430241
:1029D000509044026090450270904602C13069F008
:1029E000482959296A297B29CB01BA01642175211B
:1029F000862197210E94A509A2CE84289528A62881
:102A0000B728CB01BA01682979298A299B29F2CFF5
:102A1000482959296A297B298090430290904402D1
:102A2000A0904502B0904602CB01BA0168257925F5
:102A30008A259B25DFCFCF70FF2029F08C2F0E94A5
:102A4000EE098D2FBCCE8D2F0E94190A8C2F0E946B
:102A5000AF0975CED23FD1F160F4D03FB9F0D13F8C
:102A600081F0FF2009F46AC0B1101BCE8C2F8F714A
:102A700031C0D33F91F1D43FA1F78091F70282FF9B
:102A80003FC08C2F8F71FF2011F324C0FF20C9F0AD
:102A9000F4E0FB1508F453CECF7161E070E080E004
:102AA00090E004C0660F771F881F991FCA95D2F760
:102AB0008090430290904402A0904502B09046025C
:102AC000B5CF25E02B1508F43ACEE6CF8C2F8F71C9
:102AD000F110BDCF0E94EE0932CE60E070E0CB0174
:102AE000FF2009F487CFCF7161E070E080E090E0D3
:102AF00004C0660F771F881F991FCA95D2F77ACF37
:102B0000FF2089F0CF718C2F0E94EE098091F7028F
:102B100082FD07C038E0C39FC00111248360809309
:102B200037028C2FD7CF81E00E94D20981E08B152C
:102B300008F005CE82E00E94D20901CEBB2091F0C0
:102B4000D93341F49FEFE7EEF3E09150E040F040DD
:102B5000E1F768CE2FEF36E781E02150304080402A
:102B6000E1F760CE8C2F8F7172CF61E0C8010E94B7
:102B7000D20AEC018033FAE59F0709F45FCB08F530
:102B80009A558A9708F488CBC43FFCE5DF0709F41F
:102B90001ACC08F0FACAC93D3CE5D30709F40FCCBA
:102BA000CA3D8CE5D80709F41ECCC83D9CE5D90781
:102BB00009F0F7CA26E241EE61EEC8010E94170B48
:102BC0004ACB81339A4501F7F801408151816281F6
:102BD000738184810E943606882309F43CCB81E00E
:102BE00038CBC631DC4561F58091D30169E28111B2
:102BF00065E382EB91E00E94240411CCCB359DE586
:102C0000D90709F40CCD58F4C115FCE5DF0709F428
:102C1000EACCCF3DDC45A1F40E942D101CCBCC3575
:102C20003DE5D30709F4FDCCCD35DD4549F4809170
:102C3000F70282FB882780F991E089270E94570CD0
:102C4000F80186819781009709F4EDCC0E94B006C7
:102C5000D82FC92FF801F280B580B2943FE0B3229B
:102C6000809137028770C1F0DF2CFF20B1F0892FEF
:102C7000807F803421F080E28D0F883068F0809171
:102C8000F70282FD09C082E00E94D20980913702DA
:102C90008770DD24D3948111D12CCC2EC2942FE0E7
:102CA000C222FBE0FC1508F44ACDEC2DF0E0E35C19
:102CB000FD4D0C94BA21CF93DF938091F201807F78
:102CC000A1F48091EF01882381F080913602D091A8
:102CD000F5016091ED017091EE01A091F001B091CC
:102CE000F101C62FC723D81303C0DF91CF910895F8
:102CF00090E0109711F0CF3F19F401968770F3CF51
:102D00009C0143E0220F331F4A95E1F7F901EA5095
:102D1000FE4F41814713F1CF40814613EECF4281F0
:102D20004111EBCF438154814A1B5B0B483C510559
:102D300020F78091F2018F7080618093F201F90198
:102D4000E550FE4F80818F70806180838DEE91E031
:102D50000E949810DF91CF910C948A08AF92BF9295
:102D6000CF92DF92EF92FF920F931F93CF93DF9357
:102D7000CDB7DEB765970FB6F894DEBF0FBECDBFF7
:102D80008C0185E0F801DE01519601900D928A9543
:102D9000E1F7F801E2806DEEA62E61E0B62E6091BB
:102DA000F0017091F1016115710509F468C190910C
:102DB000ED014091EE01892F84238F3F09F45FC11B
:102DC00020813181C380D480F090EF01F601E61BB1
:102DD000F70BFF2009F41DC18091F201582F507F9D
:102DE000E83CF10508F0D0C0511181C0FE2C43131E
:102DF0002BC0921329C06091F3017091F401F80186
:102E00004681578164177507F9F4E1101DC08F7072
:102E100080618093F201C5010E9498108091F201B7
:102E2000F80185838F2D65960FB6F894DEBF0FBE2F
:102E3000CDBFDF91CF911F910F91FF90EF90DF9069
:102E4000CF90BF90AF900895CD2829F0822F832393
:102E50008F3F09F02FC180E0F82FF170DF2E80FF47
:102E60003CC0809136024091F501841315C0298B36
:102E70003A8B89899A890E94EB08292F22952F7015
:102E80002230F8F0243020F59F70F9F0F801958198
:102E9000907FD9F4D12C1FC090E0FC0153E0EE0FDD
:102EA000FF1F5A95E1F7EA50FE4F5181351306C0D6
:102EB0005081251303C05281E5120FC0019687701F
:102EC000D4CF9F7011F0882329F3805E883010F3EF
:102ED000C8010E949810FD2CA5CFEE2009F4A2CFC6
:102EE0008091F20181608093F201F12C9BCF43131A
:102EF0001BC0921319C04091F3015091F401F801E5
:102F0000268137814217530779F4E1100DC085837C
:102F1000C8010E94981088E0F801ADEEB1E0019080
:102F20000D928A95E1F77ECFC8010E945A09882345
:102F300039F1EE2029F18091F2018032A0F0209148
:102F4000ED013091EE013A8729871B86DD86CC861C
:102F50008E878091F3019091F401988B8F87CE0139
:102F600009960E94981088E0F801ADEEB1E001905A
:102F70000D928A95E1F70E945B16FF24F39452CFDD
:102F8000C8010E949810F9CF51110AC08DEE91E04E
:102F90000E94981088E0F50111928A95E9F7A5CF73
:102FA000431318C0921316C04091F3015091F401DD
:102FB000F801268137814217530761F4E1100AC0F6
:102FC0008583C8010E94981088E0F50111928A95C6
:102FD000E9F728CFC8010E945A09882389F2EE2018
:102FE00079F28091F201803208F4BDCF2091ED0199
:102FF0003091EE013A8329831B82DD82CC828E835D
:103000008091F3019091F40198878F83CE0101960E
:10301000A8CFE83CF105C0F6FE2CEE2009F4B0CFB5
:1030200043131FC092131DC02091F3013091F4018E
:10303000F801868197812817390799F49091F20158
:1030400090FD69CF907F09F466CF8091F20185836E
:10305000903F09F45DCF982F907F905F8F70892B00
:1030600056CFC8010E945A0981117DCF8091F2018B
:1030700081608093F201C8010E949810D3CEEE20A7
:1030800009F47ECFC8010E945A09F82E882309F45A
:1030900077CF88E0F801ADEEB1E001900D928A950E
:1030A000E1F78091ED019091EE010E94EB080E9402
:1030B0005B16B8CE81E08E25CFCECF93DF93CDB710
:1030C000DEB760970FB6F894DEBF0FBECDBF29877D
:1030D0003A874B875C876D877E878F87988BCE0179
:1030E00009960E94AE16811112C088E0FE01399641
:1030F000DE01119601900D928A95E1F78C859D85F0
:10310000892B29F089859A8589238F3FA9F580919C
:1031100036029091F50189131CC060960FB6F894A1
:10312000DEBF0FBECDBFDF91CF91089593E0AA0F10
:10313000BB1F9A95E1F7AA50BE4F98E0FE01319669
:1031400001900D929A95E1F78093F5010E948A080B
:10315000DECFB8E08B9FC00111248A509E4F0E94A1
:10316000AE168823D1F28091360290E001968770E6
:10317000992780933602CBCFA091F501B0E0CD0125
:10318000019687709927209136022817190671F643
:103190000E948F0C1092F5011092360288E0EDEE3D
:1031A000F1E0DF011D928A95E9F7B1CF0F931F93EC
:1031B000CF93DF9380917E02E0917D02CCE081117C
:1031C0001AC0DF91CF911F910F910895D1E0DE0FCA
:1031D000D0937D020E2F10E0EC9FF0011124E158F6
:1031E000FD4F83819481892B29F0808191818923EE
:1031F0008F3F51F4ED2F80917E02E81738F3109243
:103200007E0210927D02DDCFC09FD001C19FB00D24
:103210001124A158BD4F16968D919C911797892B1B
:1032200029F418968D919C91019651F42081318159
:103230004281538164817581868197810E945D18E6
:10324000C09FF001C19FF00D1124E158FD4F148281
:103250001382D0CF1092EA021092E90210924B0131
:103260008091E8028093E7020E94E9040C94D6184A
:103270002F923F924F925F926F927F928F929F9286
:10328000AF92BF92CF92DF92EF92FF920F931F9374
:10329000CF93DF93C091E702E7E0FE2E01E010E05C
:1032A000FCE02F2EAEEFEA2E8091E8028C1316C0C0
:1032B0000E94D618DF91CF911F910F91FF90EF9050
:1032C000DF90CF90BF90AF909F908F907F906F9046
:1032D0005F904F903F902F900C94E904D0E0FE0156
:1032E000EE0FFF1FE152FD4F80819181F89EF001AA
:1032F000F99EF00D1124E45FFE4F2481211158C086
:1033000030907E02AFE7B2E030E020E0412C5F0178
:10331000231508F04BC01A966D907C901B97F50111
:10332000808091804FEF5FEF512CC52CD12CF6019E
:10333000EE0FFF1FE80DF91D659174916616770673
:1033400009F4A601672B11F05394EFCF4F3F5407B8
:10335000B1F1B80102C0660F771F4A95E2F7462A1D
:10336000A80102C0440F551F5A94E2F74150510979
:103370004416150601F5229EF001239EF00D11243E
:10338000E158FD4FF89ED001F99EB00D1124A45FC5
:10339000BE4F12962D913C91139737832683E0827E
:1033A000E1829187808771E015967C930E94BB042F
:1033B0002196C37079CF14961C921E9213972F5F9B
:1033C0003F4F1C96A5CF6F927F928F929F92AF92A4
:1033D000BF92CF92DF92EF92FF920F931F93CF9302
:1033E000DF93CDB7DEB728970FB6F894DEBF0FBED8
:1033F000CDBF8E010F5F1F4F88E0F80111928A95B3
:10340000E9F791EAE92E91E0F92E680125EA622EAA
:1034100021E0722E88248394912CF70181917F0101
:103420008F3F09F446C0F894E82FE295EF70F0E082
:1034300021A18F70A40102C0440F551F8A95E2F7A5
:10344000CA01922F982B91A392A18095892382A3E0
:10345000789400C0E5EAF1E021E030E0B12CA12C45
:1034600041914F3F09F477C0A42FA295AF70B0E00F
:1034700090968C9190E04F7002C0959587954A95F3
:10348000E2F780FD68C0C901A82AB92A220F331FBC
:1034900051E0EF3AF50721F7F701319780818F3F2F
:1034A00011F00E94560680EA8A95F1F7F601B18282
:1034B000A082F2E0CF0ED11C6E147F0409F0ADCFD4
:1034C00048E050E0B80187E492E00E94D421FF2454
:1034D000F394009709F4F12C892B09F43FC088E09C
:1034E000F801A7E4B2E001900D928A95E1F781E03E
:1034F000809342020E9418049093410280934002FC
:1035000080914002909141020E940904059750F178
:1035100080914702909148029093500280934F020D
:103520008091490290914A029093520280935102F5
:1035300080914B0290914C029093540280935302DD
:1035400080914D0290914E029093560280935502C5
:103550001092420207C090E080E096CF8091420234
:103560008111CECF80914B018823F9F08091E9023F
:103570009091EA020097C9F00E94090420917B0211
:1035800030917C022817390780F49091E7028091EE
:10359000E802981701F10E94381910927C021092EB
:1035A0007B021092EA021092E9028F2D28960FB644
:1035B000F894DEBF0FBECDBFDF91CF911F910F9169
:1035C000FF90EF90DF90CF90BF90AF909F908F9043
:1035D0007F906F9008950E94D6181092EA02109280
:1035E000E9020E94E904E1CF2F923F924F925F924D
:1035F0006F927F928F929F92AF92BF92CF92DF9203
:10360000EF92FF920F931F93CF93DF93CDB7DEB767
:1036100069970FB6F894DEBF0FBECDBF498B5A8BAA
:103620006B8B7C8B8D8B6111109239021D861E86EF
:103630001F86188A85E0FE017196DE0119960190B9
:103640000D928A95E1F78C859D85892B31F08985CE
:103650009A8589238F3F09F0D4C129853A854B8506
:103660005C856D857E858F8598890E945D18C3C0B5
:1036700029EFC2162CE5D20629F4882379F00E949E
:103680002A19EBCF3AEFC3163CE5D30639F4882369
:1036900029F080914B018111F2CFC3C10CE011E000
:1036A000E12CB12CA12C88248394912C9EEF592ECF
:1036B00044244394F8016081718166246A94762CD5
:1036C00020E0422F50E0FA01EE0FFF1FE60FF71F38
:1036D00085919491C816D90609F43A01892B11F005
:1036E0002F5FEFCFF12CFFEF6F167F0609F445C077
:1036F000F8014481F0904B018F2D411180E0F82FAB
:10370000F170FF2EF801258086819B85992309F4AD
:1037100008C1FF2009F405C1211014C0A40101C093
:10372000440F6A94EAF7842B868380917B02909100
:103730007C02883C910530F448EC50E050937C02C8
:1037400040937B02C40102C0880F991F2A95E2F7BB
:103750000197F80126812817190679F48091E9026A
:103760009091EA02009709F45FC00E940904893C25
:10377000910508F459C0F8014482EF28FFEFAF1A11
:10378000BF0A095F1F4F29E0A216B10409F092CFCA
:103790008B85882309F420C1EE2009F41DC10E9405
:1037A00018049093EA028093E90280917E028830A7
:1037B00010F591E0980F90937E0298E0FE01399603
:1037C000DE01119601900D929A95E1F73CE0839FFE
:1037D000C001112481589D4F28E0FE013196DC0183
:1037E00001900D922A95E1F72FEF3FEFFC01318711
:1037F0002087D386C28669960FB6F894DEBF0FBEC7
:10380000CDBFDF91CF911F910F91FF90EF90DF908F
:10381000CF90BF90AF909F908F907F906F905F9070
:103820004F903F902F9008958091E7026090E802BA
:10383000982FF0E0E0E0861114C09093E7020E1795
:103840001F0709F49ACF90E0FC01EE0FFF1FE15231
:10385000FD4FB182A0820196837099278093E80280
:103860008CCF282E312CF101EE0FFF1FE152FD4FBE
:1038700020813181F7E0F29FD001F39FB00D112438
:10388000A45FBE4F2D913C911197398F288F712CD9
:1038900060E070E0E72FF0E0EE0FFF1F288D398D1C
:1038A000E20FF31F2591349121153105E1F0F80164
:1038B0000190F081E02DFF8BEE8B60E005C02417B6
:1038C000350709F47F2C6F5FE62FF0E0EE0FFF1F46
:1038D0004E895F89E40FF51F4591549141155105BB
:1038E00071F77F5FD7CF7720C9F0F801671708F02D
:1038F000FD0144820E171F0721F49093E702F72C75
:103900003CCF981305C0AE17BF0711F49F5F9370AB
:1039100091012F5F3F4F822F83708DCFF0E0E0E069
:10392000F7CF90E021101FC0B40102C0660F771FCF
:103930002A95E2F79B01215031092817390731F404
:10394000442309F447C0C5010E94BB04C40101C05F
:10395000880F6A94EAF7982F9095F8018681892359
:103960008683F22C0ACF9C01062C02C03595279540
:103970000A94E2F7A90141705527BC016150710911
:1039800086239723892B11F5452B01F1F8018281BC
:103990009381892BC1F01B821C821D821E82598259
:1039A0005A820E9418048160582F9D838C83F801ED
:1039B000828193818F83988729813A814B816D81A0
:1039C0007E810E945D18F8011582C0CFF22FF17040
:1039D0002F2EBCCF2F2CBACF9091E7028091E80216
:1039E000981731F00E943819EE2009F436CE03CF33
:1039F0000E94D6181092EA021092E9020E94E9048D
:103A0000F3CF61E0CE0109960E94D20A6C018B854A
:103A1000F8EFCF16FCE5DF0609F02ACE882309F47B
:103A20003DCE81E080934B0118CE1F920F920FB6CE
:103A30000F9211242F933F934F935F936F937F9334
:103A40008F939F93AF93BF93CF93DF93EF93FF93A6
:103A5000D091E900DF708091EC00C82FC17080FD2B
:103A6000C0E81092E9008091F000877F8093F00019
:103A700078940E94A40C1092E9008091F000886074
:103A80008093F000CD2BCF70C093E900FF91EF91B0
:103A9000DF91CF91BF91AF919F918F917F916F9166
:103AA0005F914F913F912F910F900FBE0F901F90FC
:103AB00018951F920F920FB60F9211242F933F93D8
:103AC0004F935F936F937F938F939F93AF93BF9326
:103AD000EF93FF938091E10082FF09C08091E200A3
:103AE00082FF05C08091E1008B7F8093E10080918F
:103AF000DA0080FF24C08091D80080FF20C0809130
:103B0000DA008E7F8093DA008091D90080FF9DC01B
:103B100080E189BD82E189BD09B400FEFDCF81E06D
:103B2000809329038091FB02811109C00E94490200
:103B30000E9446038091E20084608093E2008091BD
:103B4000E10080FF17C08091E20080FF13C08091E8
:103B5000E2008E7F8093E2008091E200806180939A
:103B6000E2008091D80080628093D80019BC85E083
:103B7000809329038091E10084FF2BC08091E200B3
:103B800084FF27C080E189BD82E189BD89B5982F76
:103B9000917080FFFBCF8091D8008F7D8093D800FB
:103BA0008091E1008F7E8093E1008091E2008F7E22
:103BB0008093E2008091E20081608093E200809136
:103BC0002003882309F447C084E08093290380916F
:103BD00029038091E10083FF27C08091E20083FFE9
:103BE00023C08091E100877F8093E10082E0809391
:103BF0002903109220038091E1008E7F8093E100E1
:103C00008091E2008E7F8093E2008091E2008061EB
:103C10008093E20042E060E080E00E941403809123
:103C2000F00088608093F000FF91EF91BF91AF9119
:103C30009F918F917F916F915F914F913F912F91C4
:103C40000F900FBE0F901F90189519BC109229036A
:103C50001092FB0274CF8091E30087FD93E0909374
:103C60002903B5CF78941F921FB61F9211248F930A
:103C70009F93AF93BF938091F2029091F302A09132
:103C8000F402B091F5020196A11DB11D8093F202DC
:103C90009093F302A093F402B093F502BF91AF9119
:103CA0009F918F911F901FBE1F9018951F921FB656
:103CB0001F9211248F939F93AF93BF938091F10232
:103CC000811113C08091F2029091F302A091F4024D
:103CD000B091F5024196A11DB11D8093F20290931F
:103CE000F302A093F402B093F502BF91AF919F91BC
:103CF0008F911F901FBE1F901895CDB7DEB76297AA
:103D00000FB6F894DEBF0FBECDBF84B7877F84BFE8
:103D10000FB6F894A8958091600088618093600048
:103D2000109260000FBE80E890E00FB6F894809388
:103D30006100909361000FBE85B7806885BF85B72D
:103D4000806885BF84E596E09093B1018093B001CF
:103D50000E9449020E9446038091E20084608093A1
:103D6000E2007894809129038823A1F01091E90062
:103D70001F709091EC00892F817090FD80E8182BC6
:103D80001092E9008091E80083FD0E94A40C1F704E
:103D90001093E90082E084BD93E095BD9AEF97BD52
:103DA00080936E0081E30E94560683E30E945606CC
:103DB00082E30E94560686E30E94560605EA11E059
:103DC000D8018D918D018F3F11F00E945606B1E010
:103DD0000F3A1B07A9F788E0EFE4F2E0DF01282F94
:103DE0001D922A95E9F7E7E4F2E0DF011D928A953A
:103DF000E9F790E080E00E94E921893E9E4F11F0B2
:103E00000E942D1082E090E00E94E12180935802F0
:103E10000E941F109093F7028093F60283E090E0D7
:103E20000E94E121682F70E090E080E00E940F0A7C
:103E300081E00E94830C90E080E00E94E921893EAD
:103E40009E4F11F00E942D108DE090E00E94E12124
:103E500080936D0282E090E09093600180935F0117
:103E600080912903843079F58091610190916201FC
:103E7000A0916301B0916401892B8A2B8B2B19F1DE
:103E8000809158018F708093E90088E0E8E6F1E0C6
:103E9000DE01119601900D928A95E1F750E040E025
:103EA00068E070E0CE0101960E94CB0250E040E055
:103EB00062E070E08FE591E00E94CB028091E80023
:103EC0008E778093E80080E091E09093EE028093FB
:103ED000ED0258E1C52ED12C60E4862E77E5A72EA1
:103EE00072E0B72EE0E19E2E8091290312E1853029
:103EF00009F499C10E94E319882359F08FB7F89407
:103F00004091F2025091F3026091F4027091F50237
:103F10008FBFEFE4F2E0A9E5B2E010E000E0702F1F
:103F2000819191912D913D912817390709F48BC109
:103F30002827392760E0EE24E394F12CA9014E21D3
:103F40005F21452B09F479C169877A879C012E216D
:103F50003F2191E0232B09F490E09B870E941804F5
:103F60008160782F9D878C8749855A856B858D85E3
:103F70000E94F41A000F111FF801E75AFD4F8081CB
:103F80009181E826F926F182E08286E0E5E7F2E019
:103F9000DE01119601900D928A95E1F7F09077027B
:103FA000E09078021091790200917A0210927702E3
:103FB000109278021092790210927A028F2D8E2937
:103FC00009F448C080917302909174020E94090420
:103FD0009C0190916F02992309F4A7C12333310505
:103FE000C8F19F3F19F09F5F90936F02FF2059F037
:103FF0000E94BC059FEF1F140CF491E0899F802D57
:10400000112480937702EE2059F00E94BC059FEFA7
:104010001E140CF491E0899F802D11248093780266
:10402000309177023323B1F020917802222391F06E
:1040300045EB3403C0011124992309F41BC190936B
:10404000770245EB240390011124332309F416C1B0
:1040500030937802812F802B09F448C0809171023F
:10406000909172020E9409049C0190916E02992322
:1040700009F456C125363105C8F19F3F19F09F5FFD
:1040800090936E02112359F00E949A059FEF11162A
:104090000CF491E0899F802D1124809379020023F4
:1040A00059F00E949A059FEF10160CF491E0899F39
:1040B000802D112480937A02309179023323B1F05C
:1040C00020917A02222391F045EB3403C0011124A0
:1040D000992309F4D7C09093790245EB240390010A
:1040E0001124332309F4D2C030937A0280917702ED
:1040F00090917802892B90917902892B90917A0284
:10410000892B11F00E94FA0486E0FE013196A5E7A2
:10411000B2E001900D928A95E1F70E94AF04909170
:104120005702891721F00E94AF04809357028091B3
:104130002903843019F5409061015090620160902C
:104140006301709064014114510461047104B1F081
:10415000809153018F708093E9009091E80092FF65
:104160000DC09091F3002091F200392F232B09F01C
:1041700091C08091E8008B778093E80080912903BB
:10418000843009F0B1CE8091610190916201A091DB
:104190006301B0916401892B8A2B8B2B09F4A4CE87
:1041A00080914E018F708093E9008091E80080FF3C
:1041B0009BCE8DE491E00E94990296CE80912903D6
:1041C000843009F11092F1020FB6F894A895C092CC
:1041D00060000FBE8092600083B7817F846083BFE0
:1041E00083B7816083BF7894889583B78E7F83BFC0
:1041F0000FB6F894A8958091600088618093600064
:10420000109260000FBE80911F03882361F00E940E
:10421000E319EFE4F2E081919191892B09F06AC0F2
:10422000AE16BF06C1F780912903853009F4C6CFC9
:104230000E948F0C0E94AF045DCE6F5FEE0CFF1CDE
:104240006A3009F07BCE0F5F1F4F0430110509F073
:1042500066CE8FEF8E878F87188A0E941804816040
:10426000782F9A8B898B4E855F8568898A890E9411
:10427000F41A8BCE81E080937702E3CE81E08093C5
:104280007802E8CE81E08093790227CF81E08093A5
:104290007A022CCF9091F3002091F200392F211552
:1042A000310509F46BCF90912903943001F5411445
:1042B000510461047104D9F08093E9009091E80001
:1042C00092FF15C09091F3004091F200592F452BB9
:1042D00011F09091F1009091F3004091F200592F6C
:1042E000452B29F49091E8009B779093E8002150AA
:1042F0003109D5CF99BC19BD09B400FEFDCF80911D
:10430000D8008F7D8093D8008091E00082608093F8
:10431000E0008091E00081FDFCCF0E948F0C83CFF4
:104320002D32314008F0ABCEE1CE2D32314008F0D5
:104330005ACE90CE991B79E004C0991F961708F0C9
:10434000961B881F7A95C9F78095089597FB072ECD
:1043500016F4009407D077FD09D00E94C02107FC15
:1043600005D03EF4909581959F4F08957095619585
:104370007F4F0895EE0FFF1F0590F491E02D0994F3
:10438000AA1BBB1B51E107C0AA1FBB1FA617B7077B
:1043900010F0A61BB70B881F991F5A95A9F7809597
:1043A0009095BC01CD010895FB01DC0104C08D9105
:1043B0000190801921F441505040C8F7881B990B97
:1043C0000895F999FECF92BD81BDF89A992780B5DD
:1043D0000895A8E1B0E042E050E00C941522262FA9
:1043E000F999FECF92BD81BDF89A019700B40216EB
:1043F00039F01FBA20BD0FB6F894FA9AF99A0FBE99
:1044000008950396272F0E94F0210E94EF21252F67
:104410000E94F021242F0C94F0210196272F0E9456
:10442000F0210C94EF21DC01CB01FC01F999FECFC6
:1044300006C0F2BDE1BDF89A319600B40D9241502C
:104440005040B8F70895F894FFCF730973097C09B9
:104450007C097E097C097C097C097309730983093D
:104460007C097C098309370E5F0E07105F0E071069
:10447000920EB30E0710B00FBD0F3813381372131E
:10448000721320143C149F139F1347141B152A15F5
:024490002A15EB
:104492000604170CF60BF20BEE0B0504DC002A00E7
:1044A200000000D6002A00000000D0002B0000000F
:1044B20000CA002900000000C4004C00000000BE39
:1044C200003802000000B8002800000000B200F12D
:1044D20000000000AC00F1000000000101028410A5
:1044E2000000010510000001830800000100000027
:1044F2000000000000000000A120000000000200F7
:10450200818283E200E900EA00B500B600B700CD7F
:10451200008301CC008A019201940121022302242A
:10452200022502260227022A02B300B4006F00709D
:10453200003133323694F4F5F6F76697C634350017
:00000001FF
