:100000000C94A0000C94BD000C94BD000C94BD0099
:100010000C94BD000C94BD000C94BD000C94BD006C
:100020000C94BD000C94BD000C9439160C940D1763
:100030000C949A110C94BD000C94BD000C94BD005E
:100040000C94BD000C94BD000C94BD000C94BD003C
:100050000C94BD000C9421120C94BD000C94BD00B6
:100060000C94BD000C94BD000C94BD000C94BD001C
:100070000C94BD000C94BD000C94BD000C94BD000C
:100080000C94BD000C94BD000C94BD000C94BD00FC
:100090000C94BD000C94BD000C94BD000C94BD00EC
:1000A0000C94BD000C94BD000C94BD0004000A0328
:1000B0006A0075006E006F0000000C0370006500A0
:1000C00072006300650000000403090409022200B5
:1000D000010100A0FA090400000103010100092147
:1000E00011010001224000070581030800011201EF
:1000F00000020000000842BC0300010001020001F0
:1001000005010906A101050719E029E715002501E8
:10011000950875018102950175088101050719008F
:1001200029FF150026FF00950675088100050819AE
:10013000012905950575019102950175039101C08D
:1001400011241FBECFEFDAE0DEBFCDBF11E0A0E08B
:10015000B1E0E2ECF2E302C005900D92A031B107EC
:10016000D9F721E0A0E1B1E001C01D92A63AB207A3
:10017000E1F70E945C0E0C9449190C94000081E098
:10018000089581E008950E94C100089508950E9495
:10019000C6000895A5E0B0E0E0EDF0E00C94C918C9
:1001A00049835A833091170189819A81311119C08D
:1001B000662399F0222389F00E945206182F682F97
:1001C00089819A810E943C0669817A81812F0E94EF
:1001D000790C2596E3E00C94E5180E944706182F49
:1001E000F3CF0E94520669817A81F1CFFC01262F5C
:1001F000408151816281738184810E94CA00089587
:1002000081E00895CF93DF93EC0160E00E94F60057
:10021000BE010E94C700DF91CF9108950E94930D07
:1002200008950E94970D089508950E9407050E9461
:1002300014012FEF84E39CE0215080409040E1F7CF
:1002400000C0000008950E9415010E944512089503
:100250000E9415010E94561208950F931F93CF9389
:10026000DF938C0161E00E94F600EC01B8010E946E
:10027000C300811106C080E0DF91CF911F910F91E3
:100280000895B801CE010E9465108823A1F3B8013A
:10029000CE010E94690E882371F3B801CE010E943D
:1002A000D70F882341F3F8018281882361F0CB3591
:1002B000FDE5DF0701F158F4C115ECE5DE0791F02B
:1002C000CF3DDC4591F0C8010E94BF00D5CFCD35B0
:1002D0008DE5D80769F090F0C83ADD45A1F70E9496
:1002E0002801C9CF0E942301C6CF0E94050BF7CF7A
:1002F0000E944A0AE8CF0E94540AE5CF0E94580A99
:10030000E2CF0E947C110E949E0108950E94A201EA
:100310000E948111089508950E948B01089581E043
:1003200008950E948F0108950895CF93C82F0E94C9
:100330008C018C2F0E949101CF91089580E00E9442
:10034000950108950E94C1100E9495010895CF93D0
:100350000E94C110C82F809112018C1779F0C093B0
:1003600012010E940612609313017093140180938E
:100370001501909316018C2F0E949501CF9108953D
:10038000ABE0B0E0E6ECF1E00C94CA184F8358877C
:1003900069877A878B8761110E9495091E821D8269
:1003A00085E0FE013796DE01119601900D928A9547
:1003B000E1F78C819D81892B61F449815A816B81A0
:1003C0007C818D819E810E94BE082B96E2E00C9478
:1003D000E61889819A8189238F3F79F3CE010196AE
:1003E0000E9400018111E9CFF0CFFC018081918151
:1003F0000E9484060895CF93C82F8823C9F08238BD
:10040000C9F40E94C11081FD13C089E30E944D0907
:100410000E94B6092FEF87EE93E021508040904074
:10042000E1F700C0000089E30E9455090E94B60967
:10043000CF9108958338A1F40E94C11080FDF8CFB8
:1004400083E50E944D090E94B6092FEF81EE94E0EA
:10045000215080409040E1F700C0000083E5E4CFE8
:100460008438A1F40E94C11082FDE2CF87E40E948B
:100470004D090E94B6092FEF81EE94E02150804093
:100480009040E1F700C0000087E4CECF8CEF8C0FE6
:10049000813A90F46C2F80910001909101010E94AB
:1004A0001711882329F08C2F0E9455090E94B60944
:1004B0008C2F0E944D09BACF80E28C0F883008F053
:1004C000B7CFC77081E001C0880FCA95EAF70E94D4
:1004D0007809ACCF882309F44DC0823879F40E94A2
:1004E000C11081FF47C089E30E944D090E94B609EF
:1004F00089E30E9455090E94B6090895833859F48A
:100500000E94C11080FF36C083E50E944D090E9401
:10051000B60983E5EECF843859F40E94C11082FFFA
:1005200029C087E40E944D090E94B60987E4E1CF03
:100530009CEF980F913AE8F290E2980F983050F4BF
:10054000877091E001C0990F8A95EAF7892F0E9480
:100550007E09D1CF9BE5980F933028F490E080E09E
:100560000E94D9100895885A873120F490E080E0E5
:100570000E94EF1008951F93CF93DF93182FEB0184
:100580000E94FB01209739F4812F0E946A02DF91BB
:10059000CF911F9108958FE99FE00197F1F700C077
:1005A00000002197EFCF70E060E0893311F460E53F
:1005B00070E00E94BB020895882321F00E94780910
:1005C0000E94B6090895882321F00E947E090E94A6
:1005D000B6090895B0E0A0E0E0EFF2E00C94C31893
:1005E0006C01D62FC72FFC011281F580F2949FE099
:1005F000F9220E946E09E82E8823B9F0E12E11231A
:10060000A1F08C2F807F803421F080E28D0F883024
:10061000D0F08091920182FF16C082E00E94190AF8
:100620000E946E0991E0E82EE926BC2EB2948FE07C
:10063000B822FBE0FB1508F468C0EB2DF0E0E55BA9
:10064000F64E0C94B418E12CF0CF0C2F0F70C07F35
:1006500011F00295007F112399F0002359F080E2F8
:100660008D0F883010F0D11107C0802F0E947809BB
:100670000E94B6098D2F41C0802F0E948809F8CFB3
:100680008D2F0E946A02002309F43FC080E28D0F83
:10069000883010F0D11104C0802F0E947E0903C061
:1006A000802F0E948E090E94B6092FC00C2F0F7058
:1006B000C07FC03211F00295007FDD2381F0D13080
:1006C00009F463C0112309F46DC0FF2009F463C06D
:1006D000F601858180FFCECF8F7085835CC08091CD
:1006E000920182FD33C0112359F0002329F0802F9D
:1006F0000E9478090E94B60980E00E94FB0105C0B3
:1007000080E00E946A020111C7CFEB2DE850FF0B79
:10071000349720F40E94C1100E949501EE2089F0C8
:100720000E946A0980FD0DC0F60112820E946409D0
:100730000E949A05C6010E94D3040E9464090E9487
:10074000AA05CDB7DEB7E9E00C94DF18112389F0D4
:10075000F11006C00E949809802B0E94DC02D5CFC0
:1007600021E0F212F7CF0E949809802B0E949F0986
:10077000CCCFF11006C00E94AC09802F0E94E3028A
:10078000C4CF31E0F31609F2F6CF112331F085E042
:100790008F1508F4BACF802FE0CF94E09F1508F4AE
:1007A000B4CFEBCFFF2049F3D93349F4FFEF27EE65
:1007B00033E0F15020403040E1F700C000008D2FC1
:1007C0000E946A02A2CF8C2F8370A1F511119DCFD8
:1007D0004D2F429546954770440F440F2D2F2F7093
:1007E00030E0042E02C0220F331F0A94E2F790E09B
:1007F00080E0D4FF09C08FE090E002C0880F991F0D
:100800004A95E2F780959095C695C695C370822B60
:10081000932BC23049F058F4C13019F00E9468059A
:1008200074CF0E945F0571CF0E9471056ECF0E9448
:100830005C056BCF8695112311F08C2F8170882376
:1008400009F463CF4D2F429546954770440F440FEE
:100850002D2F2F7030E0042E02C0220F331F0A9478
:10086000E2F790E080E0D4FF09C08FE090E002C0A2
:10087000880F991F4A95E2F780959095C695C69581
:10088000C370822B932BC23049F058F4C13019F059
:100890000E94D5053ACF0E94CC0537CF0E94DE05D5
:1008A00034CF0E94800531CFCF70112329F08C2FD7
:1008B0000E949A058D2F51CF8D2F0E94E3028C2F1D
:1008C0000E94AA0522CFD23F51F160F4D03FB9F087
:1008D000D13F81F0112309F449C0F110CBCE8C2F08
:1008E0008F7121C0D33F11F1D43FA1F780919201C4
:1008F00082FD26C08C2F8F71112311F314C0112398
:1009000049F084E08F1508F400CF8C2F8F710E947E
:10091000BC05FBCE95E09F1508F4F7CEF6CF8C2FE3
:100920008F711111CDCF0E949A05EFCE112329F0BE
:100930008C2F8F710E948E05E8CE0E948905E5CE2E
:10094000112349F0CF718C2F0E949A0563E08C2F00
:100950000E94FB09DACE81E00E94190AE1E0EF155E
:1009600008F0D3CE82E00E94190ACFCEF1101CCF3E
:100970008C2F8F71A5CF0F931F93CF93DF93EC0133
:10098000688179818A810E948F068C010E94E70527
:100990000E945B05B801CE010E94EA02DF91CF916F
:1009A0001F910F910895CF93DF93EC018B819C8170
:1009B000892B29F08881998189238F3F51F4DF9118
:1009C000CF910895CE010E94BB04CE010E94020186
:1009D000F6CFCE010E942D018111F4CF0E946E0945
:1009E000882369F38A81882351F38091920182FFE1
:1009F000E6CF82E00E94190AE2CF0E9495090E9488
:100A0000B60908950E945D090E94FD0408950E94A0
:100A100085090E940205089592959F70963091F085
:100A200058F4925F9F70923058F4803F19F030F480
:100A3000883E30F481E008959A5FF4CF843FD1F38B
:100A400080E00895883EB0F3813FD1F7F3CFFC01F9
:100A500083819481892B29F08081918189238F3F23
:100A600011F480E00895808191810E9484060E94A3
:100A70000C050895A5E0B0E0E0E4F5E00C94CA1898
:100A80002596E2E00C94E618A6E0B0E0EAE4F5E092
:100A90000C94CA182696E2E00C94E61808950E9479
:100AA0004E0508950E944F0590931F0180931E01EB
:100AB0000E94FD04089508950E9452050895209112
:100AC0001E0130911F01822B932B0E945205089525
:100AD00020911E0130911F01822393230E94520511
:100AE000089520911E0130911F01822793270E94B3
:100AF000520508950E944E0508950E947A050895B2
:100B00000E947D0590931D0180931C010E94FD04AD
:100B1000089590E080E00E948005089521E030E093
:100B2000A90102C0440F551F8A95E2F7CA010E942D
:100B30008005089521E030E002C0220F331F8A951E
:100B4000E2F780911C0190911D01822B932B0E9452
:100B50008005089521E030E002C0220F331F8A95FE
:100B6000E2F72095309580911C0190911D01822320
:100B700093230E948005089521E030E002C0220FF7
:100B8000331F8A95E2F780911C0190911D01822705
:100B900093270E948005089520911C0130911D012A
:100BA000822B932B0E948005089520911C01309187
:100BB0001D01822393230E948005089520911C012A
:100BC00030911D01822793270E9480050895089582
:100BD000262F277091E001C0990F2A95EAF723E0AC
:100BE000769567952A95E1F7660F771F660F771F51
:100BF000FA01E60FF71F50E040E0682F70E08191A6
:100C0000DF0111979B01042E02C0369527950A94A7
:100C1000E2F7217021952827292328272C934F5F5D
:100C20005F4F4430510559F70895A82FA77023E06E
:100C3000969587952A95E1F7880F991F880F991F38
:100C4000FB01E80FF91F50E040E080E0219130E027
:100C50000A2E02C0369527950A94E2F721703327B1
:100C6000042E01C0220F0A94EAF7822B4F5F5F4FD8
:100C70004430510559F70895262F892B39F448E15E
:100C800051E070E060E0822F0E94E8050895892B12
:100C900039F468E171E090E080E00E941506089563
:100CA00080E00895B0E0A0E0E8E5F6E00C94C31819
:100CB0007C0100911C0110911D0180911E019091F9
:100CC0001F01082B192BCFE0D0E0CC24C394D12CEA
:100CD000BC2EC6010C2E02C0880F991F0A94E2F7A1
:100CE00080239123892B49F4219790F7B12C8B2DE8
:100CF000CDB7DEB7E9E00C94DF18B7018C2F0E9466
:100D0000870C019789F3F3CFCF93DF93EC010E9417
:100D10005206BE010E94870CDF91CF9108951F9368
:100D2000CF93DF93EB0190911701992339F0CB0119
:100D30000E948406DF91CF911F910895882369F066
:100D4000CB010E945206182F682FCE010E943C064C
:100D5000BE01812F0E94870CEDCFCB010E94470678
:100D6000182FF6CF1F93CF93DF93C091200116E089
:100D7000809121018C1304C0DF91CF911F910895C0
:100D8000D0E01C9FF0011D9FF00D1124EE5DFE4F81
:100D90004081518162817381848195810E944405E3
:100DA0002196C770E5CF4091520150915301609157
:100DB00054017091550180915601909157010E9404
:100DC000440508951F93CF93DF9380915701807F4F
:100DD00009F049C080915401882309F444C08091EE
:100DE0002001C09121016091520170915301A091A5
:100DF0005501B0915601D62FD72316E0C81799F1A7
:100E000090E0109711F0DF3F19F401968770F6CF4C
:100E1000189F9001199F300D1124F901EE5DFE4FCE
:100E200041814713F2CF40814613EFCF42814111F8
:100E3000ECCF438154814A1B5B0B483C510528F79A
:100E4000809157018F70806180935701F901E95DAE
:100E5000FE4F80818F708061808382E591E00E94E7
:100E6000D3040E94B206DF91CF911F910895A1E1B2
:100E7000B0E0EDE3F7E00C94C2188C0185E0F801D6
:100E8000DE011D9601900D928A95E1F7F801E2804E
:100E900082E5C82E81E0D82E6091550170915601EF
:100EA0006115710509F44EC19091520120915301D1
:100EB000892F82238F3F09F445C140815181A3804E
:100EC000B480F0905401F501E61BF70BFF2009F404
:100ED000EAC080915701382F307FE83CF10508F0D7
:100EE000A3C031116DC0FE2C251316C0941314C07D
:100EF000E11012C08F708061809357010E94D30669
:100F0000C6010E94D30480915701F80185838F2D7B
:100F10006196EAE00C94DE18A114B10429F0842F44
:100F200085238F3F09F027C180E0F82FF170DF2E75
:100F300080FF3CC0809120012091210136E0821386
:100F400015C04D875E878D859E850E948406292F5A
:100F500022952F702230F0F0243018F59F70F1F0B8
:100F6000F8019581907FD1F4D12C1EC090E0389F7C
:100F7000F001399FF00D1124EE5DFE4F6181651384
:100F800006C06081641303C06281E6120FC001963F
:100F90008770D5CF9F7011F0882331F3805E883041
:100FA00018F3C8010E94D304FD2CB1CFEE2009F440
:100FB000AECF80915701816080935701F12CA7CF6C
:100FC000251306C0941304C0F801EE2009F487C06D
:100FD000C8010E942705882319F1EE2009F18091AC
:100FE0005701803270F020915201309153013887BF
:100FF0002F831986BB86AA868C87CE0107960E940E
:10100000D30486E0F801A2E5B1E001900D928A9543
:10101000E1F70E94E2060E94D306FF24F39477CF03
:10102000C8010E94D304F9CF311113C07A2DB98AB7
:10103000A88A6E2D89890E943A0582E591E00E9476
:10104000D30486E0F60111928A95E9F70E94D3064F
:10105000B5CF25130FC094130DC0E1100BC0F801DC
:101060008583C8010E94D30486E0F60111928A9517
:10107000E9F74DCFC8010E942705882389F2EE20A9
:1010800079F280915701803208F4BBCF2091520150
:10109000309153013A8329831B82BD82AC828E83B7
:1010A000CE010196ACCFE83CF10508F03EC0FE2C25
:1010B000EE2009F4B5CF25132AC0941328C08091DF
:1010C000570180FD1BC0982F907FC1F0F8018583E8
:1010D000903F31F0982F907F905F8F70892B8583A0
:1010E000C8010E94D30486E0F801A2E5B1E00190B6
:1010F0000D928A95E1F70E94D30609CF86E0F801A8
:10110000A2E5B1E001900D928A95E1F700CFC80108
:101110000E942705811175CF8091570181608093CE
:101120005701C8010E94D304F2CE7A2DB98AA88A49
:101130006E2D89890E943A0586E0F60111928A9502
:10114000E9F7D9CFEE2009F46BCFC8010E9427053B
:10115000F82E882309F464CF86E0F801A2E5B1E017
:1011600001900D928A95E1F782E591E00E94F501E8
:101170000E94E206C0CF81E08E25D7CEACE0B0E081
:10118000E4ECF8E00C94C9184F83588769877A8794
:101190008B879C87CE0107960E943707882369F0CA
:1011A0008A859B85892B39F04F815885842F85232B
:1011B0008F3F09F06BC016E05FC086E0FE013796F6
:1011C000DE01119601900D928A95E1F78A859B8543
:1011D000892B89F38F81988589238F3F61F3209133
:1011E000210130E0C90101968770992740912001C3
:1011F0004817190671F40E940705109221011092F8
:10120000200186E0E2E5F1E0DF011D928A95E9F731
:10121000D2CF96E0929FD001939FB00D1124AE5D86
:10122000BE4FFE01319601900D929A95E1F78093A1
:1012300021010E94B206BFCF819FC00111248E5DA3
:101240009E4F0E9437078823E9F0E09120011E9FFE
:10125000F0011124EE5DFE4F408151816281738166
:10126000848195810E9444058091200190E001963F
:10127000877099278093200180912001909121010E
:101280008913DACF2C96E3E00C94E51869857A850A
:101290008B859C850E9444058ECF682F809100012C
:1012A000909101010E944D110895682F80910001D5
:1012B000909101010E945011089580910001909138
:1012C00001010E94531108958091600185958595D3
:1012D00085950895809160018770089590916001CF
:1012E000977081E009F480E0089580916B01089582
:1012F00090916B01892B80936B010895809590915B
:101300006B01982390936B01089510926B010895DF
:1013100090916A01892B80936A010895809590913C
:101320006A01982390936A01089510926A010895C2
:1013300080916101089508950E949B0908959091FC
:10134000920192FF08C090916101981721F080935B
:1013500061010E949C09089580916101882329F010
:101360001092610180E00E949C090895CF93DF9361
:10137000E0910001F091010180916B018083E09187
:101380000001F0910101808190916A01892B808395
:1013900090916101992381F0E0910001F0910101A8
:1013A0008081892B808380910001909101010E94AE
:1013B000051181110E94AC09C0910001D091010179
:1013C00048E050E068E571E0CE010E94F118892BF9
:1013D00059F088E0FE01A8E5B1E001900D928A95F0
:1013E000E1F7CE010E94CE10DF91CF9108950895CC
:1013F0000E94F70908959091920192FF11C098E020
:10140000899F90011124622B609360010E949A05CC
:10141000809160018595859585950E94F8090895CC
:101420000E949A0508951092600180E00E94F809D8
:101430000895909160018095892380936001282F01
:10144000277091F4282F082E000C330B92171306E7
:1014500059F09091920192FF07C0859585958595E9
:101460000E94AA050E94130A08959091920192FB8E
:10147000222720F9281769F080FB92F990939201B6
:1014800080919101909192010E947F0A82E00E94D6
:10149000190A08958091920182FB882780F991E0D2
:1014A00089270E94350A089581E00E94350A08952F
:1014B00080E00E94350A089590E080E00E940F19B4
:1014C00021E0883E9E4F09F020E0822F089582E0BF
:1014D00090E00E940719089583E090E00E940719A8
:1014E0000895CF9384E090E00E940719C82F82E20C
:1014F00090E00E940719982F8C2FCF910895CF93D9
:10150000C92F682F84E090E00E9415196C2F82E2A9
:1015100090E00E941519CF910895AB01BC018FE0B6
:1015200090E00E9427190895AB01BC0183E190E08F
:101530000E942719089560E070E0CB010E94940A90
:10154000089560E070E0CB010E948D0A0E949B0A22
:10155000089568EE7EEF90E080E00E94331960E02D
:1015600082E090E00E94151960E083E090E00E9424
:10157000151910921F0110921E0160E084E090E0A6
:101580000E94151964E082E290E00E94151960E063
:1015900085E090E00E94151960E086E090E00E94EE
:1015A00015196FEF87E090E00E94151940E050E0B8
:1015B000BA0188E090E00E94271960E08DE090E099
:1015C0000E94151940E050E0BA0188E190E00E94C5
:1015D000271960E087E190E00E94151940E050E093
:1015E000BA018CE190E00E94271970E060E080E28F
:1015F00090E00E94331940E050E0BA0188E190E0A9
:101600000E9427190E94A10A08950E94A90A08951C
:10161000682F8EE090E00E94151908950E9406122E
:1016200060937301709374018093750190937601B8
:1016300060936F01709370018093710190937201B8
:101640000895089508950E94220B089508950E9418
:10165000260B089581E79DE00E94B7100E94210BA0
:101660000E94230B089581E008950E94330B089592
:10167000089508950E94380B0E94390B08950E9426
:10168000740D0E94940108950E94F1110E94DF0DD3
:101690000E943F0B0E94270B0895AAE0B0E0E3E50B
:1016A000FBE00C94C8180E94EB0D10916E0180E0D5
:1016B0000E949A0D181324C00E94FA118C01809187
:1016C0006C0190916D0108171907A1F08FEF8983C4
:1016D0008A831B820E94FA118160782F9D838C83FC
:1016E00049815A816B818D810E94C00110936D01E7
:1016F00000936C010E94A7012A96E4E00C94E41880
:101700008091770181FD0E94A00D0E94350B082F6A
:1017100080E00E949A0D182F80916E01912F9827DA
:10172000181303C00E940E0BE5CF90FF13C00023D7
:1017300089F01E821F82812F817088870E94FA1192
:101740008160782F9A8789874E815F8168858A8535
:101750000E94C00110936E01E5CFCF93DF930E94EA
:101760008C0CEC01811523E5920790F5811532E58B
:10177000930708F08DC0811540E29407C8F4C115A5
:1017800081E0D80788F4C53AD10548F4C430D105C2
:1017900058F4C130D10541F0D0E0C0E005C0CE0121
:1017A000805E91090897C0F7CE01DF91CF9108952F
:1017B000811521E5920708F066C0811530E5930791
:1017C00008F04EC08115904438F3DF70D06AECCF3A
:1017D000C11586E5D807F0F4C11525E5D20708F054
:1017E0006FC0C11534E5D30708F065C0CE01837022
:1017F000992721E030E002C0220F331F8A95E2F7DB
:10180000C695C69540E2C49FE0011124C22BD32B9C
:10181000DA68CACFC1154AE5D40778F4C11589E55D
:10182000D80708F058C0C11528E5D20708F4B4CF8E
:10183000DC2FCC27C06FD06AB7CFCE019056811570
:10184000904208F0A9CF8D2F8F710E942E0D90E04D
:10185000982F882788279F719C012C2BE90139C07C
:101860008370992721E030E002C0220F331F8A9550
:10187000E2F7C695C69540E2C49FE0011124C22B51
:10188000D32BDD6891CFD82FCC27C16FD06A8CCFF6
:101890008370992721E030E002C0220F331F8A9520
:1018A000E2F7C695C69580E2C89FE0011124C22BDD
:1018B000D32BDC6879CFDC2FCC27C46FD06A74CFF0
:1018C0008C2F0E942E0DC82FD0E0DC2FCC27CC27E8
:1018D000DF71D06269CF8C2F8F700E942E0D34E0A3
:1018E000D695C7953A95E1F7CF709C2FEC01D0695A
:1018F0005BCF672B49F4E82FF0E0EE0FFF1FE455B4
:10190000FF4F85919491089580E090E008950E94A2
:10191000790C0E94AD0B089582389105B9F1B0F4AD
:101920008133910509F47DC048F48932910509F4A9
:101930006DC08A32910509F47BC008958533910505
:1019400009F45FC08933910509F10895833E91053B
:10195000D9F138F4803E910529F1823E910579F163
:101960000895863E9105D9F1873E910509F43EC060
:10197000843E910541F52091920121FF24C0809180
:10198000910184FD19C087EE90E0089520919101A6
:10199000237009F05AC02091920123FF14C089E2FC
:1019A00090E008952091910120FD38C0309192017E
:1019B00030FF09C024FF43C090E080E008952091EB
:1019C000910122FDF7CF08952091910122FD3AC0A7
:1019D0003091920130FD39C024FFF5CFEDCF209139
:1019E000910123FFF0CF24FDE7CFCDCF20919101CE
:1019F00023FD2EC03091920131FFEECF84EE90E0B6
:101A000008952091910125FFDECFC9CF209191014A
:101A100025FD21C02091920123FFD5CF89E390E0DD
:101A2000D2CF2091910126FFCECF8AE290E0089597
:101A30002091910126FFC7CF81E390E0089583EEC6
:101A400090E0089582EE90E0089580EE90E0089591
:101A500086EE90E0089585E390E0089590919101DD
:101A600092FF06C0282F28712830F9F4877F846000
:101A700093FF06C0282F28712831F1F4877E8461F6
:101A80002091920120FF06C0382F38713830D9F4E8
:101A9000877F816021FF06C0282F28712831D1F46B
:101AA000877E816194FD877E0895282F24712430DC
:101AB000F9F68B7F8860DCCF282F2471243101F761
:101AC0008B7E8861DDCF382F3171313019F78E7FF1
:101AD0008860E0CF282F2171213121F78E7E886127
:101AE000E1CF80E0089508950E945C0A811102C050
:101AF0000E94050B0E94670A809377010E94710A79
:101B000090939201809391010E94730D0E946C0A40
:101B100090E00E945C0580911C0190911D010E9443
:101B20007D05089508950E94920D089508950E94DC
:101B3000960D0895E82FF0E0EC56FE4F8081089551
:101B4000089580EA8A95F1F7089500C008950E94EB
:101B5000A10D0895F89457985F9A789408950E947B
:101B6000AA0DF89485988D9A78940895EF92FF9233
:101B70001F93CF93DF937C01162FF894579A5F98A9
:101B800078940E94A50DCFB1D0E085E0D595C7959A
:101B90008A95E1F7C095D0950E94AA0D6C2F6170CF
:101BA000812F0E94A70DF701E10FF11DC170DD2704
:101BB000C083DF91CF911F91FF90EF9008950E9415
:101BC000AF0D109294011092930181E00E94100ECB
:101BD0000E940E010895A1E0B0E0E1EFFDE00C9459
:101BE000C918198260E0CE0101960E94B60D90914D
:101BF0009301898121E0981301C020E0981380931C
:101C0000930141E064E971E083E991E00E94110EE3
:101C1000182F0E941101812F2196E3E00C94E51802
:101C20000895CF92DF92EF92FF920F931F93CF937D
:101C30006C017B01042F222349F081E080937A011B
:101C40000E94FA119093790180937801C0917A01F2
:101C5000C1110AC0C0E08C2FCF911F910F91FF904E
:101C6000EF90DF90CF900895809178019091790165
:101C70000E941212059770F310E0A801B601C70187
:101C80000E94F118892B41F0A801B601C7010E94FA
:101C9000FE1810927A01DFCFC0E0FBCF0E94A113A3
:101CA0000E94440B0E94AE1308950E94B3130E9439
:101CB0004D0B0E94CD1308950E9493110E9487132B
:101CC0000E942A0B0E944E0E0E94550E0E943A0B53
:101CD000FBCFCF93DF93EC01FB018281882309F4D2
:101CE00064C1C430FDE5DF07E0F5CB3F9CE5D907D3
:101CF00030F49E0122503C4524313105D8F50E9434
:101D0000710A9093920180939101C231ECE5DE0754
:101D100009F41FC108F06EC0C9308CE5D80709F47A
:101D2000F2C008F03FC0C530ECE5DE0709F4DBC0C7
:101D300058F5C3308CE5D80709F4CDC008F0CFC002
:101D4000809191018160C230DC4509F4AEC0809180
:101D50009101909192010E947F0A0E94070580E004
:101D600009C0C63AEDE5DE0751F238F4C2369DE50A
:101D7000D90729F2DF91CF9108959E012E5A3D4552
:101D800023303105B8F7BBCF809191018062C73015
:101D9000FCE5DF0709F489C008F4B1C08091910126
:101DA000806483C0CD309CE5D90709F4BAC070F4D3
:101DB000809191018E7FCB30FCE5DF0709F475C07F
:101DC00008F4A7C0809191018D7F6FC0CF309CE552
:101DD000D90709F4B6C008F4A8C0C031FCE5DF0794
:101DE00009F4B3C0C131DC4509F0B1CF8091910154
:101DF0008F7B5BC0C1159DE5D90709F4B4C098F588
:101E0000CB3FFCE5DF0709F472C0B8F4C4319CE5B0
:101E1000D90709F4B6C008F4A2C0C531DC4509F001
:101E200096CF8091910182FB992790F921E092272A
:101E300090FB82F990FB83F938C0CD3F8CE5D80741
:101E400009F477C008F457C0CE3FECE5DE0709F48B
:101E500074C0809192018360CF3FDC4509F077CF59
:101E60008093920174CFC2368DE5D80709F496C0ED
:101E700068F4C230EDE5DE0709F48CC008F477C0E1
:101E8000C330DD4509F063CF80E085C0CE3A9DE5E3
:101E9000D907E9F068F490919101892F8E7F90FF26
:101EA0008160C63ADD4509F052CF809391014FCF52
:101EB000CF3A8DE5D80789F1C03BDD4509F047CF22
:101EC00090919201892F877F93FF8860C9CF80917D
:101ED00092018860C5CF809191018260E6CF8091A8
:101EE00091018460E2CF809191018860DECF809182
:101EF00092018160B5CF809192018260B1CF8091D3
:101F000091018061D2CF0E94070580919101806884
:101F1000CCCF809191018C60C8CF80919201877F56
:101F20009FCF809191018B7FC0CF80919101877F5E
:101F3000BCCF809192018E7F93CF809192018D7F53
:101F40008FCF809191018F7EB0CF809191018F7D55
:101F5000ACCF0E940705809191018F77A6CF809129
:101F60009101837FA2CF809192018C7F79CF809164
:101F70009201982F909591708E7F892B90FB81F91B
:101F80006FCF0E94070590919101892F97FB87F9E8
:101F900080588BCF81E00E94080BD9CE909191019F
:101FA000892F8F7E94FF806180CF81E0E3CECF9335
:101FB000DF93EB0186319C4511F50E9475099A81EA
:101FC000992399F08A7A91E009F490E090937B014B
:101FD000811109C089E20E944D090E94B60980E082
:101FE000DF91CF91089585E3F6CF80917B01811138
:101FF00004C089E20E945509F0CF85E3FBCF81E060
:10200000EFCF0F931F93CF93DF93C42FD22FFC01F9
:1020100082818823C9F040937E010E94FA11909337
:102020007D0180937C0180E28C0F883040F4C77082
:1020300081E001C0880FCA95EAF70E94DC02DF91B7
:10204000CF911F910F91089510917E01141332C00A
:1020500080917C0190917D010E941212883C910533
:1020600048F5C0E2CD0F1D17B9F080E2810F88302E
:1020700040F4177081E001C0880F1A95EAF70E94BA
:10208000E302C83048F481E09D2F977001C0880FAB
:102090009A95EAF70E94DC02802F0E94D302C83092
:1020A00070F6D77081E001C0880FDA95EAF70E94D8
:1020B000E302C5CF80E28C0F883008F6C77081E05C
:1020C00001C0880FCA95EAF7F2CF0F939C01CB01AC
:1020D000243F4CE5340759F1A8F4293DFCE53F07BE
:1020E00001F12A3D4CE53407D1F1283D3C4591F4FE
:1020F00006E221EE41EE68ED7CE50E94011080E0F1
:102100000F910895263FFCE53F07E9F0B0F0273F27
:102110003C45F9F0FC018281882339F110927E015F
:10212000EFCF07E225EE45EE69ED7CE5E6CF06E26E
:1021300021EE40EE64EF7CE5E0CF07E225EE44EED1
:1021400065EF7CE5DACF06E221EE42EE66EF7CE554
:10215000D4CF07E225EE46EE67EF7CE5CECF08E26E
:1021600021E045EE6AED7CE5C8CF81E0C9CF9093D0
:10217000110180931001089590938401809383014D
:102180000895E0918301F0918401309729F0019046
:10219000F081E02D0995089580E00895E091830194
:1021A000F0918401309721F00280F381E02D0995B0
:1021B000089520918101309182012817390771F02B
:1021C0009093820180938101E0918301F0918401D9
:1021D000309721F00680F781E02D09950895209130
:1021E0007F01309180012817390771F090938001A9
:1021F00080937F01E0918301F0918401309721F079
:102200000084F185E02D099508959C012E5F3F4FD4
:10221000AC01485F5F4F80E02417350709F408954B
:10222000F90191919F019923B9F38F5FF5CF66234F
:1022300049F0FC01329608962191261729F0E817FB
:10224000F907D1F780E0089581E008959C01FC0131
:1022500032969FEF80E04191461751F09F3F19F46D
:10226000411101C0982F8F5F8630A9F79F3F09F475
:102270000895290F311D97FD3A95F901628308955C
:10228000FC01329608962191261303C0DF011197B5
:102290001C92E817F907B9F708950E9426110895CE
:1022A0000E9440110895029626E0FC0111922A95A1
:1022B000E9F7089508950E945A110895811106C002
:1022C00081E0809385010E945B11089582E0F9CF3F
:1022D00083E0809385010E945B1108950E945E1146
:1022E000089581E0809385010E945B1108950E940A
:1022F00071110895089508950E947B11089508951D
:1023000008950E947A1108950E947F110E94EB0D9A
:102310000E94801180E00E949A0D91E0811101C01D
:1023200090E0892F089585B7806885BF85B780685C
:1023300085BF08951F921FB61F9211248F939F93FC
:10234000AF93BF9380918601811113C08091950155
:1023500090919601A0919701B09198014196A11D8D
:10236000B11D8093950190939601A0939701B0932E
:102370009801BF91AF919F918F911F901FBE1F90A9
:10238000189580919D01843031F10E948101109255
:10239000860188E190E020E40FB6F894A895809338
:1023A00060000FBE2093600083B7817F846083BF8D
:1023B00083B7816083BF7894889583B78E7F83BF0E
:1023C0000FB6F894A89580916000886180936000B2
:1023D000109260000FBE08950E9407050E948601BA
:1023E000089582E084BD93E095BD9AEF97BD8093F8
:1023F0006E0008952FB7F894809195019091960101
:10240000A0919701B09198012FBF08952FB7F8942C
:10241000609195017091960180919701909198013A
:102420002FBF08959C014FB7F8948091950190912A
:102430009601A0919701B09198014FBF821B930B19
:10244000089578941F921FB61F9211248F939F9323
:10245000AF93BF938091950190919601A0919701C0
:10246000B09198010196A11DB11D809395019093A3
:102470009601A0939701B0939801BF91AF919F915E
:102480008F911F901FBE1F90189587E797E7909335
:1024900001088093000888E19AE00FB6F894A895A7
:1024A000809360000FBE90936000FFCF88E19AE0B8
:1024B0000FB6F894A895809360000FBE90936000CB
:1024C000FFCF80918F01089508950895CF93DF93F2
:1024D000EC0181E08093E9008FEF9091E80081505A
:1024E00095FD06C095ED9A95F1F700008111F5CFA5
:1024F0008091E80085FF14C050E040E068E070E0A3
:10250000CE010E942D148091E8008E778093E80020
:1025100088E0FE01A7E8B1E001900D928A95E1F70D
:10252000DF91CF9108950895089580919C018111C4
:1025300009C00E94BD150E941A168091E2008460B5
:102540008093E200089510929C0108950E947111F9
:1025500008956091990181E0611101C080E00E94BD
:102560006811089590919D0181E0943009F080E018
:10257000609199010E946E11089542E061EC81E042
:102580000E94391590919D0181E0943009F080E01E
:10259000609199010E945E11089580919F0183309E
:1025A00009F461C030F48130D1F1823009F49EC069
:1025B00008958A3009F48AC08B3009F46FC08930DD
:1025C00009F050C080919E01813209F04BC080918A
:1025D000A2019091A301892B09F044C08091E800E9
:1025E000877F8093E8008091E80082FF37C0909158
:1025F000F3008091F200029731F48091F100813074
:1026000011F0863021F48091F10080938F01809148
:10261000E8008B778093E8000E946D1523C08091BD
:102620009E01813AF9F48091E800877F8093E80069
:102630008091A2019091A301892B61F468E087E861
:1026400091E070E00E947C148091E8008B77809389
:10265000E800089560E090E080E0F3CF80919D0174
:102660008111C1CF089580919E01813AD9F780915F
:10267000A2019091A301892BA9F78091E800877F9F
:102680008093E8008091E80080FFFCCF80910E01EC
:102690008093F1008091E8008E77BCCF80919E01FD
:1026A000813201F78091A2019091A301892BD1F68B
:1026B0008091E800877F8093E8000E946D158091EB
:1026C000A00180930E010E940705089580919E014C
:1026D000813241F68091E800877F8093E8000E9474
:1026E0006D158091A10180939001089580919E01C4
:1026F000813A09F0B7CF8091E800877F8093E800A6
:102700008091E80080FFFCCF80919001C1CF84B719
:10271000877F84BF0FB6F894A89580916000886188
:1027200080936000109260000FBE80E890E00FB6CA
:10273000F89480936100909361000FBE0E9477111E
:1027400008950E94BD150E941A16E2EEF0E0808105
:102750008460808378940E949918089582E091E0C3
:102760000E94BC10089580919D01853031F48091C4
:102770009D01853019F00E94EC1108950E94C1114D
:1027800080919B01882399F30E948411882379F317
:102790000E9417140E940705EACF08950E94D113E2
:1027A0000895292F332723303105C9F058F42130FB
:1027B000310599F122303105A9F190E080E030E057
:1027C00020E01DC02132310509F122323105A9F77F
:1027D00080E490E020E031E0672B79F710C0992782
:1027E0008130910581F0009729F0029731F7EEEAE8
:1027F000F0E002C0E8ECF0E0849190E09F01FA0183
:10280000318320830895EAEBF0E0F6CF89E090E091
:102810002EED30E0672B89F6F2CF82E190E02EEECC
:1028200030E0EDCF82E290E02CEC30E0E8CF80E1C8
:1028300089BD82E189BD09B400FEFDCF8091D80039
:102840008F7D8093D8008091E00082608093E000CB
:102850008091E00081FDFCCF0895AF92BF92CF92AE
:10286000DF92FF920F931F93CF93DF936C01EB01E5
:102870008A010E948C15F82E811123C001151105C3
:1028800039F0F80180819181C81BD90BC80ED91E7F
:10289000B12CA12C2097A9F08091E80085FD22C0E1
:1028A0008091E8008E778093E80001151105A1F072
:1028B000F80180819181A80EB91EB182A08285E0C5
:1028C000F82E8F2DDF91CF911F910F91FF90DF9008
:1028D000CF90BF90AF9008950E948C158823D1F2BD
:1028E000F82EEFCFF60181916F018093F1002197CF
:1028F000FFEFAF1ABF0ACECFFC018091A4019091E7
:10290000A50186179707A0F06115710529F490912C
:10291000E8009E779093E80090E06115710551F40E
:10292000911108C08091E80082FF34C080E00895D2
:10293000BC01F2CF80919D018823C1F18530C1F1A6
:102940008091E80083FD30C08091E80082FDEACFED
:102950008091E80080FFE1CF8091F3002091F200A8
:10296000382F6115710519F02830310558F091E0C4
:102970002830310509F090E02091E8002E7720936F
:10298000E800CBCF81918093F100615071092F5FF6
:102990003F4FE7CF80919D01882341F0853041F082
:1029A0008091E80083FFBECF81E0089582E0089522
:1029B00083E00895FC018091A4019091A501861700
:1029C0009707A0F06115710529F48091E8008E77D2
:1029D0008093E80090E06115710551F4911108C0F1
:1029E0008091E80082FF35C080E00895BC01F2CFFD
:1029F00080919D018823C9F18530C9F18091E8005B
:102A000083FD31C08091E80082FDEACF8091E8002B
:102A100080FFE1CF8091F3002091F200382F611503
:102A2000710519F02830310558F091E02830310552
:102A300009F090E08091E8008E778093E800CBCF9A
:102A400084918093F1003196615071092F5F3F4F5F
:102A5000E6CF80919D01882341F0853041F080913F
:102A6000E80083FFBDCF81E0089582E0089583E010
:102A70000895982F973028F08F708093E90081E0B7
:102A800008959093E900242F762F50E0981731F0A5
:102A90007091EC002091ED005091F00021FD02C0FA
:102AA0009F5FE8CF3091EB003E7F3093EB00309199
:102AB000ED003D7F3093ED003091EB0031603093BD
:102AC000EB007093EC002093ED005093F000209108
:102AD000EE0027FDE5CF80E0089580919E0187FFFD
:102AE00013C08091E80082FF06C08091E8008B77D8
:102AF0008093E80004C080919D018111F2CF089578
:102B000080919D018823D9F38091E80080FFF8CF60
:102B10008091E8008E77ECCF2091E4003091E500C1
:102B200095E6A9012091EC00822F817020FF06C05C
:102B30008091E80080FF06C080E008952091E800C1
:102B400022FD1AC080919D01882389F0853089F08B
:102B50008091EB0085FD0FC02091E4003091E500ED
:102B600042175307F9F29150E1F684E0089582E0AC
:102B7000089583E0089581E008950E942C160E9434
:102B80003416E0EEF0E0808181608083E8EDF0E0D3
:102B900080818F77808319BCA7EDB0E08C918E7F08
:102BA0008C9380818F7E808310929C0108950F9377
:102BB0001F93CF93DF930E942C160E943416C8ED0A
:102BC000D0E088818F778883888180688883888136
:102BD0008F7D888319BC10929D01109299011092EB
:102BE0009B0110929A0100EE10E0F80180818B7F2A
:102BF000808388818160888342E060E080E00E9479
:102C00003915E1EEF0E080818E7F8083E2EEF0E026
:102C1000808181608083808188608083F8018081E9
:102C20008E7F8083888180618883DF91CF911F911F
:102C30000F910895E8EDF0E080818F7E8083E7EDCD
:102C4000F0E080818160808384E082BF81E08093B6
:102C50009C010E94D7150895E8EDF0E080818E7FF9
:102C600080831092E20008951092DA001092E10041
:102C700008951F920F920FB60F9211242F933F9336
:102C80004F935F936F937F938F939F93AF93BF9374
:102C9000EF93FF938091E10082FF0BC08091E200EF
:102CA00082FF07C08091E1008B7F8093E1000E944A
:102CB00098188091DA0080FF19C08091D80080FFB9
:102CC00015C08091DA008E7F8093DA008091D90060
:102CD00080FF96C080E189BD82E189BD09B400FE14
:102CE000FDCF81E080939D010E9495128091E100CB
:102CF00080FF19C08091E20080FF15C08091E20042
:102D00008E7F8093E2008091E20080618093E200F8
:102D10008091D80080628093D80019BC85E08093B0
:102D20009D010E94A9128091E10084FF2BC0809137
:102D3000E20084FF27C080E189BD82E189BD89B5B9
:102D4000982F917080FFFBCF8091D8008F7D80936A
:102D5000D8008091E1008F7E8093E1008091E200B5
:102D60008F7E8093E2008091E20081608093E20098
:102D700080919901882309F449C084E080939D01E2
:102D80000E94B2128091E10083FF29C08091E2008D
:102D900083FF25C08091E100877F8093E10082E07E
:102DA00080939D01109299018091E1008E7F809324
:102DB000E1008091E2008E7F8093E2008091E2004A
:102DC00080618093E20042E060E080E00E9439157B
:102DD0008091F00088608093F0000E94A612FF911D
:102DE000EF91BF91AF919F918F917F916F915F9183
:102DF0004F913F912F910F900FBE0F901F901895FC
:102E000019BC10929D010E94A31270CF8091E30023
:102E100087FD93E090939D01B3CF1F920F920FB661
:102E20000F9211242F933F934F935F936F937F9350
:102E30008F939F93AF93BF93CF93DF93EF93FF93C2
:102E4000D091E900DF708091EC00C82FC17080FD47
:102E5000C0E81092E9008091F000877F8093F00035
:102E600078940E9451171092E9008091F0008860D8
:102E70008093F000CD2BCF70C093E900FF91EF91CC
:102E8000DF91CF91BF91AF919F918F917F916F9182
:102E90005F914F913F912F910F900FBE0F901F9018
:102EA0001895AAE2B0E0E7E5F7E10C94C9188EE9BD
:102EB00091E02091F100FC012193CF01F1E0863AED
:102EC0009F07B9F70E94CD128091E80083FF1EC1D1
:102ED00080919E0190919F019A3008F017C1E92FCF
:102EE000F0E0E95AF64E0C94B418803899F0823824
:102EF00009F00CC18091A2018F70873008F006C1E3
:102F00008093E9008091EB0085FB882780F910927F
:102F1000E90006C080919A0190919B019111826015
:102F20009091E800977F9093E8008093F1001092D1
:102F3000F1008091E8008E77E5C0882309F4D3C0C2
:102F4000823009F0E3C08091A0018111D6C0809148
:102F5000A2018F702FEF280F263008F0D7C0809382
:102F6000E9002091EB0020FFC8C0933031F480913C
:102F7000EB0080628093EB00C0C09091EB00906109
:102F80009093EB0021E030E001C0220F8A95EAF730
:102F90002093EA001092EA008091EB008860EACF6B
:102FA0008111B4C01091A0011F778091E300807857
:102FB000812B8093E3008091E800877F8093E80075
:102FC0000E946D158091E80080FFFCCF8091E300A6
:102FD00080688093E30082E0111183E080939D017B
:102FE00095C08058823008F091C08091A0019091E6
:102FF000A1018C3D23E09207A1F583E08A838AE258
:1030000089834FB7F894DE01139620E03EE051E249
:10301000E32FF0E050935700E49120FF03C0E295C6
:10302000EF703F5FEF708E2F90E0EA30C0F0C796F0
:103030008D939D932F5F243159F74FBF8091E80006
:10304000877F8093E8006AE270E0CE0101960E94DB
:103050007C148091E8008B778093E80057C0C0967D
:10306000E7CF6091A2017091A301AE014F5F5F4F66
:103070000E94CE13BC01892B09F448C09091E8004E
:10308000977F9093E80089819A810E94DA14E1CFBA
:103090008038E1F58091E800877F8093E800809197
:1030A00099018093F10045CF811130C09091A0012A
:1030B000923060F58091E800877F8093E8009093DC
:1030C00099010E946D1580919901882311F084E087
:1030D00005C08091E30087FDFACF81E080939D01D8
:1030E0000E94BD1213C08091A001813079F481E06B
:1030F000933009F080E080939B011092E900809169
:10310000E800877F8093E8000E946D158091E800B9
:1031100083FF0AC08091E800877F8093E800809158
:10312000EB0080628093EB00AA96E3E00C94E51834
:103130000895CF9380919D018823A1F0C091E9006B
:10314000CF709091EC00892F817090FD80E8C82BA2
:103150001092E9008091E80083FD0E945117CF7022
:10316000C093E900CF910895EE0FFF1F0590F491F1
:10317000E02D09942F923F924F925F926F927F922F
:103180008F929F92AF92BF92CF92DF92EF92FF9277
:103190000F931F93CF93DF93CDB7DEB7CA1BDB0B23
:1031A0000FB6F894DEBF0FBECDBF09942A883988C8
:1031B00048885F846E847D848C849B84AA84B984CF
:1031C000C884DF80EE80FD800C811B81AA81B981DB
:1031D000CE0FD11D0FB6F894DEBF0FBECDBFED01EF
:1031E0000895FB01DC0104C08D910190801921F448
:1031F00041505040C8F7881B990B0895FB01DC0132
:1032000002C001900D9241505040D8F70895F999AD
:10321000FECF92BD81BDF89A992780B50895A8E1A7
:10322000B0E042E050E00C943B19262FF999FECF14
:1032300092BD81BDF89A019700B4021639F01FBA09
:1032400020BD0FB6F894FA9AF99A0FBE0895039626
:10325000272F0E9416190E941519252F0E94161952
:10326000242F0C9416190196272F0E9416190C94DE
:103270001519DC01CB01FC01F999FECF06C0F2BDA6
:10328000E1BDF89A319600B40D9241505040B8F724
:103290000895F894FFCF25032503560356038503AD
:1032A000850385038503E3035404630463047517EE
:1032B0009D1786189D178618D017F117861848187D
:0232C0005418A0
:1032C2006201611266129312641294126512010075
:00000001FF
