:100000000C9467020C949F020C949F020C94371A74
:100010000C949F020C949F020C949F020C949F02DC
:100020000C949F020C949F020C9446140C9402149E
:100030000C9443150C949F020C949F020C949F0205
:100040000C949F020C949F020C949F020C949F02AC
:100050000C949F020C941F150C949F020C949F0209
:100060000C949F020C949F020C949F020C949F028C
:100070000C949F020C949F020C949F020C949F027C
:100080000C949F020C949F020C949F020C949F026C
:100090000C949F020C949F020C949F020C949F025C
:1000A0000C949F020C949F020C949F0205010980FE
:1000B000A101850319012AB700150126B700950192
:1000C00075108100C0050C0901A101850419012AE0
:1000D000A002150126A002950175108100C00660DE
:1000E000FF0961A1010962150026FF00952075082E
:1000F00081020963150026FF00952075089102C052
:1001000005010906A101050719E029E715002501E8
:10011000950875018102950175088101050719008F
:1001200029FF150026FF00950675088100050819AE
:10013000012905950575019102950175039101C08D
:10014000010502050305040505050000000601067A
:100150000206030604060506000701070207030757
:100160000407050701080208030804080508000041
:10017000010002000300040005000000000101016D
:10018000020103010401050100020102020203024F
:100190000402050201030203030304030503000034
:1001A0006D616B65206B6C6F723A64656661756C2E
:1001B00074000000000000000000000000000000CB
:1001C000000000000000000000000000000000002F
:1001D0000000000000007E0F00D4FFFFFFC70000FA
:1001E000007800000000000000002A2B280000001A
:1001F00000000000000000000000000000290000D6
:1002000000002C1E3420212224342627252E362DB2
:100210003738271E1F202122232425263333362E4C
:1002200037381F0405060708090A0B0C0D0E0F10BE
:100230001112131415161718191A1B1C1D2F313003
:10024000232D350405060708090A0B0C0D0E0F10A7
:100250001112131415161718191A1B1C1D2F3130E3
:10026000354C000014001A000800150017002B0080
:1002700004001600070009000A00035D055D065D25
:100280000600190005000000E000B35D2C00E2004C
:10029000A8000000130012000C0018001C0034001D
:1002A00033000F000E000D000B00E5003800370092
:1002B00036001000110000002A00B45D2800E300A1
:1002C000AE00000014001A00090013000A002B0001
:1002D000040015001600170007004C001D001B004D
:1002E0000600190005000000E000B35D2C00E200EC
:1002F000A800000033001C0018000F000D0034009F
:1003000012000C00080011000B00E5003800370057
:10031000360010000E0000002A00B45D2800E30043
:10032000AE0000003900530052002E002F022900B9
:100330004A00500051004F002F0000004D004B00BC
:1003400000004E0026020000010001000100010033
:10035000A80000005700610060005F003002340216
:100360002D005E005D005C003000010055005B0068
:100370005A0059002702000062000100010001003C
:10038000AE0000001E021F022002210222022900EC
:100390004A00500051004F002F0000004D004B005C
:1003A00000004E00260200000100010001000100D3
:1003B000A800000031000000000024022302000019
:1003C00000002114221421160000065D055D035D66
:1003D0000000000000000000010001000100010019
:1003E000AE0000001F5CE85C000000000000005C44
:1003F000015CB15D000000000000B75DB65DB25D5C
:1004000000000000000000000100010001000100E8
:10041000A8000000690042004100400000006800A0
:1004200045003F003E003D000000440043003C000A
:100430003B003A0000000000010001000100010043
:10044000AE0009025B00030100A0FA0904000001EC
:10045000030101000921110100012240000705816B
:100460000308000109040100020300000009211132
:100470000100012222000705820320000107050375
:1004800003200001090402000103000000092111FA
:10049000010001223200070584032000011201003F
:1004A00002000000083C3A01000100010200010ABC
:1004B000034B004C004F00520000000C0347004566
:1004C00000490053005400000004030904001124F3
:1004D0001FBECFEFDAE0DEBFCDBF04B603FE18C00B
:1004E00080913D0290913E02A0913F02B091400266
:1004F0008730904BA740B04B59F410923D021092B8
:100500003E0210923F0210924002E0E0F8E30995AB
:1005100011E0A0E0B1E0EAE7F8E302C005900D9237
:10052000A439B107D9F722E0A4E9B1E001C01D92D6
:10053000AD33B207E1F70E946A150C94171C0C94B6
:100540000000E8EDF0E080818E7F80831092E20071
:100550001092DA001092E100A0EEB0E08C91816080
:100560008C9380818F77808319BCA7EDB0E08C914C
:100570008E7F8C9380818F7E8083109225020895D8
:100580002091E4003091E50095E6A9012091EC006E
:10059000822F817020FF06C08091E80080FF06C096
:1005A00080E008952091E80022FD1AC08091330276
:1005B000882389F0853089F08091EB0085FD0FC09C
:1005C0002091E4003091E50042175307F9F2915071
:1005D000E1F684E0089582E0089583E0089581E0E3
:1005E0000895EF92FF920F931F93CF937C018B019D
:1005F0000E94C002C82F811117C08091E80085FDBC
:100600000BC08091E8008E778093E8000E94C002C2
:10061000882399F3C82F08C0F70181917F01809347
:10062000F1000150110949F78C2FCF911F910F91C3
:10063000FF90EF9008958091350287FF13C080915D
:10064000E80082FF06C08091E8008B778093E80085
:1006500004C0809133028111F2CF0895809133025A
:100660008823D9F38091E80080FFF8CF8091E800DB
:100670008E77ECCF982F9093E900242F762F50E0BF
:10068000891731F07091EC002091ED005091F0004D
:1006900021FD07C09F5F973071F78093E90081E0EB
:1006A00008953091EB003E7F3093EB003091ED00E8
:1006B0003D7F3093ED003091EB0031603093EB00E3
:1006C0007093EC002093ED005093F0002091EE0029
:1006D00027FDE0CF80E00895B0E0A0E0E2E7F3E09E
:1006E0000C945D1BC8EDD0E088818F7E8883E7ED98
:1006F000F0E080818160808384E082BF81E080932C
:10070000250288818E7F888302EE10E0F801108236
:100710001092DA0081EEC82ED12CF6011082888169
:100720008F77888388818068888388818F7D88839C
:1007300019BC1092330210923402109232021092BD
:10074000310290EEE92EF12CF70180818B7F8083BE
:1007500088818160888342E060E080E00E943A0303
:10076000F60180818E7F8083F801808181608083A3
:10077000808188608083F70180818E7F808388817B
:1007800080618883CDB7DEB7E8E00C94791BFC016B
:1007900080913B0290913C0286179707A0F061156B
:1007A000710529F49091E8009E779093E80090E01D
:1007B0006115710551F4911108C08091E80082FF24
:1007C00034C080E00895BC01F2CF809133028823C9
:1007D000C1F18530C1F18091E80083FD30C0809186
:1007E000E80082FDEACF8091E80080FFE1CF8091B0
:1007F000F3002091F200382F6115710519F02830AF
:10080000310558F091E02830310509F090E0209151
:10081000E8002E772093E800CBCF81918093F10000
:10082000615071092F5F3F4FE7CF809133028823DA
:1008300041F0853041F08091E80083FFBECF81E038
:10084000089582E0089583E00895089508958091C1
:10085000280208952FB7F89460911E0270911F022C
:1008600080912002909121022FBF08952FB7F89414
:1008700080911E0290911F02A0912002B09121024E
:100880002FBF089520911B0230911C0228173907B1
:1008900071F090931C0280931B02E0911902F09179
:1008A0001A02309721F00084F185E02D0995089512
:1008B00020911702309118022817390771F0909390
:1008C000180280931702E0911902F0911A023097F2
:1008D00021F00680F781E02D09950895FC01680F4D
:1008E000791F8FEF91E32191822728E030E087FF85
:1008F00009C0880F892721503109C9F7E617F70782
:1009000091F70895880FF7CF80E00895F894E82FC5
:10091000E295EF70F0E031A1282F2F7081E090E098
:1009200001C0880F2A95EAF7982F9095932391A3F9
:1009300092A1892B82A3789408958238910591F130
:10094000E8F58133910509F497C028F589329105BE
:1009500009F487C08A32910509F495C0811521E513
:10096000920708F0B0C0811540E5940708F00CC16B
:100970008F3B910508F08EC0883A910508F0F9C0C8
:10098000853A910508F0ECC08430910528F5813056
:10099000910511F141C08533910509F45DC089339A
:1009A0009105E1F62091F701237009F042C12091F1
:1009B000F80123FF11C089E290E00895833E91057C
:1009C00071F158F4803E9105E9F0823E910531F6CF
:1009D0002091F70122FD1EC00895863E910551F138
:1009E000873E910571F1843E910509F0B7CF2091C2
:1009F000F80121FFF1CF8091F70184FD0DC087EE52
:100A000090E008952091F70120FD33C03091F80166
:100A100030FFE2CF24FF07C190E080E0DDCF2091DE
:100A2000F70122FD03C13091F80130FD02C124FF1E
:100A3000D3CFF2CF2091F70123FFCECF24FDECCF0F
:100A4000DECF2091F70123FDF7C03091F80131FF8F
:100A5000EECF84EE90E008952091F70125FFBCCF02
:100A6000AACF2091F70125FDEAC02091F80123FFCC
:100A7000B3CF89E390E008952091F70126FFACCF32
:100A80008AE290E008952091F70126FFA5CF81E347
:100A900090E00895811520E2920768F4811541E005
:100AA000940708F099CF9C01205E31092830310568
:100AB00008F492CFB1CF811520E4920708F4ACCFAF
:100AC0009F70906A0895811544E5940778F4811524
:100AD00023E5920708F080C0811542E5940708F0ED
:100AE00067C0982F8827816F906A0895811529E53E
:100AF000920778F4811548E5940708F081C09C01BD
:100B000036552F3F310511F008F086CF99279066B2
:100B1000089581152AE5920708F07ECF282F2F70BF
:100B20004091F70142FF05C083FF6FC0282F277057
:100B300024603091F80130FF07C0322F387138300F
:100B400009F069C0277F216044FD277E34E0969537
:100B500087953A95E1F78F70982F822F90690895C5
:100B6000855AE82FF0E0E85CFE4F808190E09064C9
:100B70000895885AE82FF0E0EE0FFF1FE55CFE4F66
:100B80008081918194640895AC014370552721E0E0
:100B900030E002C0220F331F4A95E2F78695869512
:100BA00040E2849FC0011124822B932B9D680895FD
:100BB000AC014370552721E030E002C0220F331F03
:100BC0004A95E2F78695869540E2849FC0011124FC
:100BD000822B932B9C680895AC014370552721E02C
:100BE00030E002C0220F331F4A95E2F786958695C2
:100BF00040E2849FC0011124822B932B9A680895B0
:100C0000982F8827806F906A089582FF92CF282FAF
:100C10002B7028608ECF322F3171313009F094CF94
:100C20002E7F286091CF83EE90E0089582EE90E0D1
:100C3000089580EE90E0089586EE90E0089585E3B3
:100C400090E008950E942A040895292F983078F59D
:100C5000863068F590E036E0239F800D911D1124C9
:100C6000682F677023E0969587952A95E1F7FC0138
:100C7000EE0FFF1FE80FF91FEB55FE4F50E040E06D
:100C800080E0219130E0062E02C0369527950A9427
:100C9000E2F721703327042E01C0220F0A94EAF7ED
:100CA000822B4F5F5F4F4330510559F7089580E025
:100CB0000895292F983098F5863088F590E036E031
:100CC000239F800D911D1124282F277041E001C022
:100CD000440F2A95EAF723E0969587952A95E1F740
:100CE000FC01EE0FFF1FE80FF91FEB55FE4F30E040
:100CF00020E070E05191DF011197CB01022E02C07C
:100D0000969587950A94E2F78170819585278423CB
:100D100085278C932F5F3F4F2330310559F7089576
:100D20008093220270932402609323028091330205
:100D30008430F9F48093E9008FEF9091E8008150BE
:100D400095FD06C095ED9A95F1F700008111F5CF5C
:100D50008091E80085FF0DC050E040E063E070E066
:100D600082E292E00E94F1028091E8008E77809307
:100D7000E8000895BC0184E00E9490060895BC013B
:100D800083E00E9490060895CF93DF93EC0181E009
:100D90008093E9008FEF9091E800815095FD06C0A7
:100DA00095ED9A95F1F700008111F5CF8091E8005B
:100DB00085FF14C050E040E068E070E0CE010E9482
:100DC000F1028091E8008E778093E80088E0FE01D0
:100DD000A9E2B2E001900D928A95E1F7DF91CF91FF
:100DE000089581E08093E00080E28093D800109223
:100DF000C9008FE19EE40197F1F700C0000087E091
:100E000090EBDC0180933D0290933E02A0933F0261
:100E1000B093400288E19CE00FB6F894A8958093C7
:100E200060000FBE90936000FFCFB0E0A0E0EBE168
:100E3000F7E00C945B1B7C015B016A018091E70188
:100E400001E010E08A3010F40AE010E0C1E0D0E0E8
:100E5000B501C701F6010995811104C021960C174F
:100E60001D072CF4CDB7DEB7EAE00C94771BCC9FBE
:100E70009001CD9F300D300D112490E080E045E3CE
:100E80004A95F1F70000019682179307C1F7E0CF6A
:100E90008091CB01811110C08091D8008061809336
:100EA000D8008AE18A95F1F700C08091D90080FFCF
:100EB0000AC081E08093CB0181E09091CB01913019
:100EC00009F080E0089582E08093CB010E94A102A6
:100ED00010923302F1CF0E944807882359F0E09125
:100EE0001902F0911A02309729F00190F081E02D5B
:100EF0000995089580E00895CF93DF93C7EAD1E084
:100F000060E0CE010E94CD1B2196C11584E0D80778
:100F1000B9F7DF91CF9108951F93CF93DF93122FED
:100F20008430E0F46830D0F44630C0F4C42FD0E010
:100F3000CC0FDD1F9CE0699FC00DD11D112490E6F0
:100F4000899FC00DD11D1124632FCE0187960E9469
:100F5000CD1B612FCE0188960E94CD1BDF91CF91D2
:100F60001F910895AF92BF92CF92DF92EF92FF92BE
:100F70001F93CF93DF9382E6C82E82E0D82ED0E075
:100F80007601C0E014C0F50125913491412F6C2FFA
:100F90008D2F0E948C0782E0A80EB11C1F5F1630B7
:100FA00091F78CE0E80EF11CCF5FC83019F05701C3
:100FB00010E0E9CFDF5F80E6C80ED11CD43001F726
:100FC000DF91CF911F91FF90EF90DF90CF90BF9076
:100FD000AF900895CF93C82F6FEF811163E283E242
:100FE00090E00E94CD1B6FEFC11163E084E290E0BE
:100FF0000E94CD1B6FEFC11169E185E290E00E9474
:10100000CD1BCF91089580E00E94EA0760E086E260
:1010100090E00E94CD1B0E94B2070E947C0781E0F5
:101020000E94EA0708950F931F93CF93DF938430B4
:1010300030F5683020F5463010F5C42FD0E0CC0FE5
:10104000DD1F2CE0629FC00DD11D112430E6839F6F
:10105000C00DD11D1124CE0187960E94BF1B082F01
:1010600010E0102F0027CE0188960E94BF1B980128
:10107000282BC901DF91CF911F910F91089590E026
:1010800080E0F8CF462F843040F4783030F466307A
:1010900020F4672F0E941308089590E080E00895DF
:1010A000CF92DF92FF920F931F93CF93DF936C0148
:1010B0000091F6018091C001082BC7E0D0E010E05C
:1010C000FC2EC8010C2E02C0959587950A94E2F774
:1010D00080FD0CC02197A0F7F12C8F2DDF91CF91CF
:1010E0001F910F91FF90DF90CF900895B6018C2F44
:1010F0000E9442080E949D04019761F3EECF83E2B3
:1011000090E00E94BF1B833289F484E290E00E9449
:10111000BF1B833059F485E290E00E94BF1B91E031
:10112000893109F090E0892F8170089580E0FCCF2B
:10113000A4E0B0E0EEE9F8E00C94611B4091E3011B
:101140005091E4016091E5017091E6012FB7F894A8
:1011500080911E0290911F02A0912002B091210265
:101160002FBF841B950BA60BB70B11E0843691059E
:10117000A105B10590F10E944807882399F10E94CA
:101180002A046E5F7F4F8F4F9F4F69837A838B83D3
:101190009C83809121019091220188529E4F409121
:1011A000200150E04530510510F044E050E0BE0110
:1011B0006F5F7F4F0E940E1C84E090E00E94DD1A5A
:1011C000182F882351F00E942A046093E301709342
:1011D000E4018093E5019093E601812F2496E4E0F9
:1011E0000C947D1B0E942A040091E8011091E901F2
:1011F0002091EA013091EB01600F711F821F931F54
:10120000C0CF4F925F927F928F929F92AF92BF9288
:10121000CF92DF92EF92FF920F931F93CF93DF93C2
:101220000F92CDB7DEB7C62E4A015901482E880F5E
:101230005508C2010E94DD1A782E882309F480C067
:10124000C20133E0880F991F3A95E1F7FC01E050A5
:10125000FF4F438150E04115510511F041E050E04E
:1012600080509F4FFC016481758168527E4FCE0192
:1012700001960E940E1CF4014081518162817381AC
:101280002FB7F89480911E0290911F02A091200226
:10129000B09121022FBF841B950BA60BB70B843690
:1012A0009105A105B10540F4B701C8010E946E0483
:1012B0009981891709F444C00C2C000CDD08C60183
:1012C0000E94DD1A782E811113C0712C872D0F908A
:1012D000DF91CF911F910F91FF90EF90DF90CF9012
:1012E000BF90AF909F908F907F905F904F900895A8
:1012F000C60123E0880F991F2A95E1F7FC01E05011
:10130000FF4F438150E0E416F50608F4A701805032
:101310009F4FFC016481758168527E4FC5010E9418
:101320000E1CB701C8010E946E0499818913CDCFAC
:101330000E942A04F4016083718382839383C6CF61
:10134000A701B801C5010E940E1CC0CFA1E0B0E00A
:10135000ECEAF9E00C945F1BEE24E394F12C0EED23
:1013600011E09E012F5F3F4F44ED51E063E082E0CA
:101370000E940109182F882369F04091F9015091CA
:10138000FA01DE01119690E020E0941308C02111CB
:101390000E942206812F2196E6E00C947B1B8D9102
:1013A000E52FE90FF0E0EA5FFD4F3081831B382F16
:1013B000131644F0382F87FD30E0831B811108C0DD
:1013C0009F5FE3CF315020812F5F2083212FF0CF0B
:1013D0008F5F208121502083212FF0CFA4E0B0E047
:1013E000E4EFF9E00C945D1B6B0184E0E82EF12C36
:1013F00009ED11E09E012F5F3F4F40ED51E061E0AC
:1014000080E00E940109882361F049815A816B8143
:101410007C814093CC015093CD016093CE017093B9
:10142000CF014091CC015091CD016091CE017091DE
:10143000CF01F60140835183628373832496E8E0F1
:101440000C94791BACE0B0E0E8E2FAE00C94581B95
:101450008E010F5F1F4F88E0D8011D928A95E9F732
:101460008BE6C82E81E0D82EF12CE12CAA24A3947F
:10147000B12C25E7822E21E0922EF60181916F0199
:101480008F3F09F442C0F894E82FE295EF70F0E046
:1014900021A18F70A50102C0440F551F8A95E2F764
:1014A000CA01922F982B91A392A18095892382A3A0
:1014B000789400C0EFE6F1E0712C31E021912F3FEC
:1014C00009F476C0A22FA295AF70B0E090968C91EF
:1014D00090E02F7002C0959587952A95E2F780FDE0
:1014E00067C0832F782A330F8E169F0639F7F601CF
:1014F000319780818F3F11F00E94860450EA5A95FF
:10150000F1F7F801EE0DFF1D70828FEFE81AF80A6F
:10151000A4E0EA16F10409F0B0CF48E050E0B801C9
:101520008CEE91E00E94011C009741F028E0F80148
:10153000ACEEB1E001900D922A95E1F70091F50132
:10154000892BC1F181E08093C3010E9436049093FE
:10155000C2018093C1012091C1013091C2014FB7F6
:10156000F89480911E0290911F02A0912002B091E8
:1015700021024FBF821B930B059700F110E0015F22
:101580001D4F44E050E06CEE71E0C8010E94011C68
:10159000B12C892B51F084E0ECEEF1E0D801019000
:1015A0000D928A95E1F7BB24B3941092C30107C052
:1015B00080E098CF8091C3018111CDCFB12C0E94E2
:1015C0004807F82EE091F501882309F489C01986AF
:1015D0001A861B861C860E2F10E0015F1D4F80911E
:1015E000E7018A30E0F54EEE59E0BE01675F7F4FBC
:1015F000C8010E941507882309F461C046EA59E032
:10160000BE01675F7F4FC8010E941507882309F458
:1016100056C048E958E0BE01675F7F4FC8010E948D
:101620001507882309F44BC01092E7018091F4015B
:1016300090E044E050E0BE01675F7F4F815F9D4FC7
:101640000E94011C21E02093CA01892B51F5F12C45
:101650001F2D812F8B292C96EDE00C94741B20916B
:10166000C4013091C5014FB7F89480911E0290914A
:101670001F02A0912002B09121024FBF821B930B49
:10168000843F914008F0AFCF8091CA018823F9F2DE
:10169000FE01399684E0DF011D928A95E9F71092E8
:1016A000CA01E091F401F0E0E15FFD4F89859A8580
:1016B000AB85BC8580839183A283B383C9CF80919E
:1016C000E7018F3F31F08F5F8093E7018A3008F4A4
:1016D000ADCF0E9436049093C5018093C401D4CF4E
:1016E000F0E0E15FFD4F84E0A9EDB1E001900D92E3
:1016F0008A95E1F764E070E089ED91E00E946E0464
:101700008093D80140910B0250E060910A0270E092
:101710006A5F7D4FCE0109960E940E1C89858093D9
:10172000DE0161E070E0CE0109960E946E048093B4
:10173000DD01C090DF01D090E001E090E101F09088
:10174000E2018091C6019091C701A091C801B091BA
:10175000C901C816D906EA06FB0611F410E079CFD4
:10176000C092C601D092C701E092C801F092C901AF
:101770000E944807182F8111F1CF0E942A04C61A2F
:10178000D70AE80AF90AC092E801D092E901E0928A
:10179000EA01F092EB015DCF809126029091BF01AA
:1017A000892B8093960148E050E067EB71E086E971
:1017B00091E00E94011C892BA9F088E0E6E9F1E0A4
:1017C000A7EBB1E001900D928A95E1F7E091190243
:1017D000F0911A02309731F00280F381E02D86E912
:1017E00091E00995089590E080E00E94580490E00F
:1017F00080E00E9442041092BF010E94CC0B089529
:101800008093F6010E94F30B089521E030E001C0BF
:10181000220F8A95EAF720958091F60182230E9493
:10182000000C089521E030E001C0220F8A95EAF70C
:101830008091F601822B0E94000C08959091F60190
:1018400021E030E0F90101C0EE0F8A95EAF7D901F5
:1018500002C0AA0FBB1F6A95E2F7EA2B01C0220F54
:101860004A95EAF7892F8E23E81305C0292B822F8A
:101870000E94000C089520952923F9CF8093C00180
:101880000E94F30B0895E8E9F1E086E0DF011D9284
:101890008A95E9F70E94F30B0895AAE2B0E0E3E528
:1018A000FCE00C94621B85E392E02091F100DC01E6
:1018B0002D93CD01B2E08D339B07B9F780913602AD
:1018C000833009F472C0B8F4813009F449C0823021
:1018D00009F4B5C08091E80083FF8DC28091350284
:1018E000909136029A3008F086C2E92FF0E0E75E68
:1018F000F34E0C949E1B8A3009F490C08B3009F48F
:1019000071C0893039F780913502813219F78091A1
:10191000390290913A02009711F00297D9F680911E
:10192000E800877F8093E8008091E80082FF38C05C
:101930009091F3008091F200029731F48091F100D0
:10194000813011F0863021F48091F10080932802DB
:101950008091E8008B778093E8000E941B03BACF48
:1019600080913502813A09F0B5CF8091E800877FF8
:101970008093E8008091390290913A02892B61F4BA
:1019800068E089E292E070E00E94C7038091E8007D
:101990008B778093E8009ECF60E090E080E0F3CF0B
:1019A000809133028111C0CF95CF80913502813A69
:1019B00009F090CF8091390290913A02892B09F079
:1019C00089CF8091E800877F8093E8008091E800CC
:1019D00080FFFCCF809137018093F1008091E80077
:1019E0008E77B9CF80913502813209F073CF809123
:1019F000390290913A02892B09F06CCF8091E8006E
:101A0000877F8093E8000E941B03809137028093B8
:101A10003701109226020E94430C5CCF8091350260
:101A2000813209F057CF8091E800877F8093E800EA
:101A30000E941B0380913802809327024BCF809134
:101A40003502813A09F046CF8091E800877F809384
:101A5000E8008091E80080FFFCCF80912702BCCF96
:101A6000803899F0823809F0C6C1809139028F70B0
:101A7000873008F0C0C18093E9008091EB0085FBBE
:101A8000882780F91092E90006C080913102909178
:101A90003202911182609091E800977F9093E80064
:101AA0008093F1001092F1008091E8008E779FC141
:101AB000882309F48DC1823009F09DC180913702DD
:101AC000811190C1809139028F702FEF280F26303D
:101AD00008F091C18093E9002091EB0020FF82C1C2
:101AE000933031F48091EB0080628093EB007AC1F7
:101AF0009091EB0090619093EB0021E030E001C009
:101B0000220F8A95EAF72093EA001092EA0080916A
:101B1000EB008860EACF81116EC1109137021F7708
:101B20008091E3008078812B8093E3008091E8002E
:101B3000877F8093E8000E941B038091E80080FF6C
:101B4000FCCF8091E30080688093E30082E0111174
:101B500083E0809333024FC18058823008F04BC13C
:101B600020913702309138022C3DE3E03E07A1F589
:101B700083E08A838AE289834FB7F894DE01139663
:101B800020E03EE051E2E32FF0E050935700E49173
:101B900020FF03C0E295EF703F5FEF708E2F90E063
:101BA000EA30C0F0C7968D939D932F5F243159F78B
:101BB0004FBF8091E800877F8093E8006AE270E081
:101BC000CE0101960E94C7038091E8008B77809335
:101BD000E80011C1C096E7CF8091390290913A0296
:101BE000432F55274330510509F44AC078F5413059
:101BF000510509F47AC08BE590E0E2E4F4E042306C
:101C0000510509F0F8C02091E800277F2093E800F3
:101C100020913B0230913C028217930708F49C010B
:101C200040E02115310509F065C0411163C0809184
:101C3000E80082FDC9CF80913302882329F28530E4
:101C400019F28091E80083FFF2CFBECF41325105F7
:101C500009F43CC04232510509F0CDC083309105F2
:101C600008F0C9C0FC01EE0FFF1FE857FE4F0190BE
:101C7000F081E02D8B579E4FDC018C9190E01AC0D3
:101C8000332721303105D1F02115310561F02230A3
:101C9000310509F0B0C0EFEAF4E0E4918E2F90E056
:101CA000EFEAF4E007C0E9ECF4E0E4918E2F90E075
:101CB000E9ECF4E0009709F49EC0A5CFEBEBF4E06B
:101CC000E4918E2F90E0EBEBF4E0F4CF83309105BC
:101CD00008F091C0880F991FFC01E257FE4F019058
:101CE000F081E02D89E090E08ECF82E190E0EDE997
:101CF000F4E089CF80913302882309F465CF8530E1
:101D000009F462CF8091E80083FD5ECF8091E80006
:101D100082FD8DCF8091E80080FF83CF9091F3000A
:101D20008091F2002115310519F08830910550F0AD
:101D300041E0089709F040E08091E8008E778093B9
:101D4000E8006FCF44914093F10031962150310962
:101D50000196E8CF803809F04EC08091E800877F77
:101D60008093E800809134028093F1009DCE811130
:101D700042C0109137021230F0F58091E800877F61
:101D80008093E800109334020E941B03112311F08A
:101D900084E005C08091E30087FDFACF81E0809365
:101DA000330242E061EC81E00E943A0342E261ECDE
:101DB00084E00E943A0342E261EC82E00E943A032E
:101DC00042E260EC83E00E943A038091330213C048
:101DD00080913702813079F481E0933009F080E01E
:101DE000809332021092E9008091E800877F80930F
:101DF000E8000E941B038091E80083FF0AC08091E5
:101E0000E800877F8093E8008091EB0080628093F8
:101E1000EB00AA96E3E00C947E1B109226020E942F
:101E2000430C2FEF84E39CE0215080409040E1F789
:101E300000C0000088E19CE00FB6F894A89580935C
:101E400060000FBE90936000FFCF8823C1F19CEF2C
:101E5000980F913A78F4E8E9F1E09191891303C081
:101E6000DF0111971C9241E0EE39F407B1F70E94AF
:101E7000CC0B089590E2980F983088F4877021E099
:101E800030E0A90102C0440F551F8A95E2F7CA014C
:101E9000809590912602892380932602E8CF9BE5C6
:101EA000980F933028F490E080E00E945804089541
:101EB000885A873120F490E080E00E94420408951F
:101EC0000F931F93CF93C82F882349F18CEF8C0F6A
:101ED000813AB8F508E911E08EE991E0F801219125
:101EE000C21709F121E0EE39F207C9F7EFEF80E000
:101EF000D8019D918D01C91781F0EF3F19F491111F
:101F000001C0E82F8F5F863099F7EF3F31F00E2E3A
:101F1000000CFF0BEA56FE4FC2830E94CC0BCF9100
:101F20001F910F910895E8E9F1E02191C21303C0D8
:101F3000DF0111971C928E179F07B9F70E94CC0BF7
:101F4000D5CF80E28C0F883068F4C77021E030E094
:101F500001C0220FCA95EAF780912602822B809356
:101F60002602DBCFEBE5EC0FE33040F4F0E0E85C79
:101F7000FE4F808190E00E945804D1CFC85AC731EB
:101F800070F6EC2FF0E0EE0FFF1FE55CFE4F808156
:101F900091810E944204C3CF1F93CF93DF93182FE8
:101FA000D0E0C0E0893311F4C0E5D0E0812F0E9479
:101FB000600F209739F4812F0E94250FDF91CF9178
:101FC0001F9108958FE99FE00197F1F700C000008D
:101FD0002197EFCFB0E0A0E0E0EFFFE00C945E1BB4
:101FE000E82FF0E0EE51FE4FD490282F269526954D
:101FF000269530E0F901EE52FE4F0491877010E013
:10200000082E02C0159507950A94E2F70170112772
:10201000F901EE53FE4FE490F12C082E02C0F59426
:10202000E7940A94E2F791E0E922FF24F901EE54E3
:10203000FE4FC491D0E002C0D595C7958A95E2F7CE
:10204000C170DD270115110519F081EE0E94600FA6
:10205000E114F10419F086EE0E94600F8D2D0E94AC
:10206000CC0FE114F10419F086EE0E94250F011542
:10207000110519F081EE0E94250FCD2B19F08CE28D
:102080000E94CC0FCDB7DEB7E7E00C947A1B68EE68
:102090007EEF90E080E00E94EB1B60E082E090E049
:1020A0000E94CD1B60E083E090E00E94CD1B109267
:1020B000C00160E084E090E00E94CD1B64E082E219
:1020C00090E00E94CD1B60E085E090E00E94CD1B77
:1020D00060E086E090E00E94CD1B6FEF87E090E02B
:1020E0000E94CD1B40E050E0BA0188E090E00E94E1
:1020F000DF1B60E08DE090E00E94CD1B40E050E0EF
:10210000BA0188E190E00E94DF1B60E087E190E087
:102110000E94CD1B40E050E0BA018CE190E00E94AB
:10212000DF1B70E060E080E290E00E94EB1B40E08B
:1021300050E0BA0188E190E00E94DF1B80E00E943D
:10214000EA070E94030840E050E0BA018FE090E007
:102150000E94DF1B40E050E0BA0183E190E00E9462
:10216000DF1B0895AAE0B0E0E8EBF0E10C945B1B04
:10217000D42E4E83E52E5F83F62E688779878A8773
:1021800089859A8561111092BF01892B09F457C086
:102190002FEFE212FFC28E2D8D218F3F09F44FC029
:1021A000D982EA8289819A81F11007C00E942506AE
:1021B000182F0BC02095242323C30E945008182FEA
:1021C000682F89819A810E94590669817A81812FBD
:1021D0000E9442088C01FF2009F4D1C282519F4520
:1021E000409708F0B7C28FEF93E00E94BF1B8111A8
:1021F00026C0025147EAE42EFF24F394011123C0C4
:102200001C821B82DD24D3943AE0C32E87010F5F2A
:102210001F4FC7010E94BF1B89831A82882379F050
:102220009FEF980F9330E8F48A83D982F2E0EF0EA3
:10223000F11CC8010E94BF1B8B83811113C02A9619
:10224000EAE00C94771BE11494E0F906C1F3C701AE
:102250000E94BF1B811101C00150EFEFEE1AFE0A70
:10226000CDCF78018E010F5F1F4FF8018081882349
:1022700069F2813009F041C091818281913039F455
:102280000E5F1F4F0E94CC0F0F5F1F4FEECF92309B
:1022900029F40E5F1F4F0E94600FF6CF933029F490
:1022A0000E5F1F4F0E94250FEFCF943019F00F5F84
:1022B0001F4FEACF0E5F1F4F30E020E0B8016F5F85
:1022C0007F4FF80141818053990B8A30910550F07E
:1022D00021503109C8F28FE99FE00197F1F700C062
:1022E0000000F6CFC29EF001C39EF00D11249C01A8
:1022F0002E0F3F1F842F8B01E1CF0E94EA0FC4CF26
:1023000081E00E94120C03C081E00E94050C43E0B2
:1023100062E081E00E941E0C92CF82E0F2CFFF20AB
:1023200009F48DCF8091F80180FD15C08160809304
:10233000F8016091F7011091F80184E090E00E94AB
:10234000CD1B612F82E290E00E94CD1B10922602ED
:102350000E94430C74CF8E7FEACFFF2009F46FCF29
:1023600061E083E090E00E94CD1B81E00E943E0C82
:1023700066CFFF2009F463CF62E083E090E00E9423
:10238000CD1B82E0F3CF82E0FF2041F00E94120CCF
:1023900044E063E082E0BECF83E0F6CF0E94050C0C
:1023A000F7CF84E0FF2019F00E94120C48CF0E9462
:1023B000050C45CFFF2009F4AAC090EAA92E91E0B0
:1023C000B92E2AE0C22EF5018491882309F451C068
:1023D000813009F04AC085010F5F1F4FF8018491D9
:1023E000813059F40F5F1F4FF80184910E94CC0F88
:1023F00058012FEFA21AB20AE6CF823041F48501CC
:102400000E5F1F4FF80184910E94600FF1CF83305F
:1024100041F485010E5F1F4FF80184910E94250F42
:10242000E7CF843029F785010E5F1F4FF801249113
:1024300090E080E0F80131962053330B2A303105CB
:1024400048F00197A8F2EFE9FFE03197F1F700C0FB
:102450000000F7CFC89EA001C99E500D1124C901EC
:10246000840F951F24918F01E5CF0E94EA0F85010B
:10247000BFCF88E20E94CC0F8D2D9E2D0E94500868
:10248000182F682F8D2D9E2D0E9459066D2D7E2DA3
:10249000812F0E9442080E949D04082FD82EE92E09
:1024A000E2948FE0E82234E0E31609F48DC03E1593
:1024B000A0F181E08E1508F04CC02E2D2850330B72
:1024C0002230310508F0BBCE0E946B07B8CEFF204A
:1024D000F1F00E3D3CE51307B1F0073A8DE5180722
:1024E000A1F001151C4541F6109226020E94430CF2
:1024F000EFEFF4E32CE0E150F0402040E1F700C0C2
:1025000000000E94F1060E9447100E940D0F8D2DC1
:102510009E2D0E942506182FB9CFE8E0EE1609F48B
:102520006DC0F9E0EF1609F4DAC026E0E212C5CF7B
:1025300033EF031709F406C1301708F4EFC080EF3A
:10254000081709F4F5C092EF0913B7CFF092A40170
:10255000B4CF192F1F70907F11F01295107F802F2C
:10256000FF20C9F0112369F090E2900F983010F02D
:1025700001110BC080912602182B109326020E9495
:10258000CC0B802F0E94600F98CF8091BF01182B39
:102590001093BF01F4CF0E94250F112309F48DCFB2
:1025A0001095005E083010F0D11008C0809126020E
:1025B0001823109326020E94CC0B7FCF8091BF017D
:1025C00018231093BF01F7CF892F869586958370C6
:1025D00061F0813009F071CF802F9370F11002C04B
:1025E00090E080E00E94420468CF802F9370F11049
:1025F00002C090E080E00E9458045FCF892F837072
:10260000A1F5F1105ACF802F829586958770880F9B
:10261000880F402F4F70082E01C0440F0A94EAF72C
:10262000202F207104FF07C02FE030E001C0220FEF
:102630008A95EAF72095969596959370923081F059
:10264000822F842B933030F48091C001913029F097
:10265000242B82230E943E0C30CF842B822BFACF76
:10266000242B8091C0018227F5CF8695FF2011F0A1
:10267000892F8170882309F420CF802F8295869539
:102680008770880F880F402F4F70082E01C0440FAD
:102690000A94EAF7202F207104FF07C02FE030E0F2
:1026A00001C0220F8A95EAF720959695969593702A
:1026B000923081F0822F842B933030F48091F60198
:1026C000913029F0242B82230E94000CF6CE842B1B
:1026D000822BFACF242B8091F6018227F5CF192F78
:1026E0001F70FF2061F0812F0E94120C002309F45B
:1026F000E4CE80912602802B809326025CCF0023BB
:1027000049F0802F8095909126028923809326029C
:102710000E94CC0B812F0E94050CCFCEE4EF0E1748
:10272000A1F0F5EF0F13C9CEF110C7CE81E007C0BD
:102730008091A40191E08927FF2009F4BECE809307
:10274000A401BBCE81E0F82601CFF110B6CE1092E5
:10275000A401B3CE00313FE5130709F4D1CD013117
:102760008FE5180709F4D9CDF801E15BFD45E730A5
:10277000F10508F0ACCEED5DF34E0C949E1B0031DC
:102780009FE5190709F4C0CD0131EFE51E0761F798
:1027900082E0BBCDF7E0FE1508F4FDCC35E03D1539
:1027A00008F4F9CCED2DF0E086E0E89EE00DF11D97
:1027B0001124CF018770992721E030E001C0220F5A
:1027C0008A95EAF7DF0163E0B695A7956A95E1F788
:1027D000A256BE4F4C918091A401F11002C0842FEB
:1027E0008223882309F4E6CCCF01880F991FFC01CE
:1027F000EF5BFE4FE490FC01E05CFE4FD490242B95
:102800002C93C9CC1F920F920FB60F9211242F93C5
:102810003F934F935F936F937F938F939F93AF9368
:10282000BF93CF93DF93EF93FF93D091E900DF70D5
:102830008091EC00C82FC17080FDC0E81092E900C3
:102840008091F000877F8093F00078940E944D0C77
:102850001092E9008091F00088608093F000CD2B09
:10286000CF70C093E900FF91EF91DF91CF91BF91BD
:10287000AF919F918F917F916F915F914F913F9118
:102880002F910F900FBE0F901F9018951F920F92CF
:102890000FB60F9211242F933F934F935F936F9333
:1028A0007F938F939F93AF93BF93EF93FF93809109
:1028B000E10082FF09C08091E20082FF05C08091A3
:1028C000E1008B7F8093E1008091DA0080FF24C0DB
:1028D0008091D80080FF20C08091DA008E7F8093A5
:1028E000DA008091D90080FF9DC080E189BD82E13E
:1028F00089BD09B400FEFDCF81E080933302809151
:102900002502811109C00E94A1020E946C038091DE
:10291000E20084608093E2008091E10080FF17C0B4
:102920008091E20080FF13C08091E2008E7F80934F
:10293000E2008091E20080618093E2008091D80003
:1029400080628093D80019BC85E080933302809127
:10295000E10084FF2BC08091E20084FF27C080E16A
:1029600089BD82E189BD89B5982F917080FFFBCF29
:102970008091D8008F7D8093D8008091E1008F7E78
:102980008093E1008091E2008F7E8093E20080914D
:10299000E20081608093E20080913402882309F490
:1029A00047C084E080933302809133028091E1003C
:1029B00083FF27C08091E20083FF23C08091E10064
:1029C000877F8093E10082E080933302109234028B
:1029D0008091E1008E7F8093E1008091E2008E7F04
:1029E0008093E2008091E20080618093E20042E007
:1029F00060E080E00E943A038091F000886080935C
:102A0000F000FF91EF91BF91AF919F918F917F91D6
:102A10006F915F914F913F912F910F900FBE0F904B
:102A20001F90189519BC109233021092250274CF92
:102A30008091E30087FD93E090933302B5CF7894C3
:102A40001F921FB61F9211248F939F93AF93BF9332
:102A500080911E0290911F02A0912002B09121024C
:102A60000196A11DB11D80931E0290931F02A09399
:102A70002002B0932102BF91AF919F918F911F903F
:102A80001FBE1F9018951F921FB61F9211248F937F
:102A90009F93AF93BF9380911D02811113C08091CA
:102AA0001E0290911F02A0912002B0912102419636
:102AB000A11DB11D80931E0290931F02A0932002BE
:102AC000B0932102BF91AF919F918F911F901FBE34
:102AD0001F901895CDB7DEB7AA970FB6F894DEBF52
:102AE0000FBECDBF85B7806885BF85B7806885BFBD
:102AF00084B7877F84BF0FB6F894A8958091600053
:102B0000886180936000109260000FBE80E890E0C2
:102B10000FB6F89480936100909361000FBE84E833
:102B200094E090939501809394010E94A1020E94E9
:102B30006C038091E20084608093E200789480913D
:102B400033028823A1F01091E9001F709091EC00EE
:102B5000892F817090FD80E8182B1092E9008091F8
:102B6000E80083FD0E944D0C1F701093E90082E085
:102B700084BD93E095BD9AEF97BD80936E0010924F
:102B8000E8011092E9011092EA011092EB010E9413
:102B90007F08811102C00E9403080E9448078093A9
:102BA00028010E94480781110E94F1198091280193
:102BB0008091280194E0811190E09093F50184E0E8
:102BC000891B8093F40186E60E94860487E90E94AF
:102BD000860486EC0E94860484E30E9486040FE645
:102BE00011E075E7E72E71E0F72ED8018D918D0188
:102BF0008F3F11F00E948604E016F106B1F788E0DD
:102C0000EFE0F2E0DF01282F1D922A95E9F7ECEEC4
:102C1000F1E0DF011D928A95E9F790E080E00E94E3
:102C2000C71B883E9E4F21F40E947F08811102C07D
:102C30000E94471082E090E00E94BF1B8093FD013C
:102C400084E090E00E94BF1B182F82E290E00E9477
:102C5000BF1B982F812F9093F8018093F7010E945A
:102C6000220AEFE3FCE93197F1F700C000000E946F
:102C7000220A80910F0280FF08C06FEF7FEF90E083
:102C800080E00E94EB1B0E94F10683E090E00E942E
:102C9000BF1B0E943E0C9091280181E098279093E1
:102CA0000A02F82FF91BF093FA0190912801809302
:102CB0000B02909128018093F901809128018111E4
:102CC00006C084EF8093360185EF80933501209113
:102CD0003601E22FE295EF70F0E061A12F7081E004
:102CE00090E0AC0101C0440F2A95EAF7342F3095EB
:102CF000362331A322A1242B22A320913501E22FD8
:102D0000E295EF70F0E031A12F7001C0880F2A9595
:102D1000EAF7982F9095932391A392A1892B82A3F0
:102D20008FE891E00197F1F700C0000010910B02CD
:102D30006CE072E045E351E086E3E82E81E0F82E96
:102D4000FB0128C0D7012D917D01822F82958F70C4
:102D500090E0DC0190968C9190E02F7002C09595E8
:102D600087952A95E2F78170DA019D91AD01292FAF
:102D700022952F7030E0D90190962C9130E09F7011
:102D800002C0359527959A95E2F790E020FD92E0F4
:102D9000892B81938E2F861B8117A0F20E944807F2
:102DA000811102C00E94F41989E291E090931A0205
:102DB0008093190248E1642E712C57E1E52E52E010
:102DC000F52E62E0C62ED12C8091330200E112E193
:102DD000853009F480C00E94220A0EEF11E03FE026
:102DE000A32E32E0B32E26E032E0D501F801919116
:102DF0008D912E173F0709F47AC09817C1F30E94EE
:102E00004807282E912CF50181905F01D8013D9053
:102E10008D01381429F13824512C44244394832DF6
:102E20008421B1F02220A1F05EA29FA291E0882D22
:102E3000842109F490E098A70E9436048160782FDD
:102E40009AA789A74EA15FA168A58AA50E94B21082
:102E50005394440CB6E05B12E2CFF80131978082C4
:102E60009394E8E09E12CFCF0E942A0460C0809124
:102E70003302843011F110921D02B0E40FB6F894C1
:102E8000A895609260000FBEB093600083B7817F09
:102E9000846083BF83B7816083BF7894889583B74C
:102EA0008E7F83BF0FB6F894A895809160008861EB
:102EB00080936000109260000FBE809132028823E0
:102EC00051F00E94220AEFE0F2E0819181110EC2DE
:102ED000EE16FF06D1F780913302853009F4C7CF93
:102EE000109226020E94430C0E946B0774CF981325
:102EF00086CF0E9436048C018091FB019091FC01E9
:102F000008171907A1F08FEF89A38AA31BA20E94BB
:102F100036048160782F9DA38CA349A15AA16BA18F
:102F20008DA10E94B2101093FC010093FB010E943E
:102F3000480750900B0280900A02E8E0F2E025E397
:102F4000A22E21E0B22E06E311E02CE032E040E0B8
:102F5000912C45113CC091100E9422060E946B07E3
:102F600090910E02891721F080930E020E942A048C
:102F700080913302843009F027CF83E08093E90009
:102F80008091E80082FF20CF8091E80090E085FFEB
:102F90000CC00E94C00290E2A92EB12C8E010F5FDE
:102FA0001F4F882309F47DC091E08091E8008B7762
:102FB0008093E800992309F407CFE981E150E331D8
:102FC00008F0E0C0F0E0E65DF34E0C949E1BD801E3
:102FD0008D918D01A82FA295AF70B0E09096AC9125
:102FE000B0E08F7002C0B595A7958A95E2F76A2F79
:102FF0006170D5015D915D01852F82958F7090E0A4
:10300000DC0190968C9190E05F7002C09595879559
:103010005A95E2F780FD2FC080E0682BD9018D9191
:103020009D01982F9370691719F1880F880F862BCF
:1030300011978C93942F980D8F70A82FB0E0AB58F8
:10304000BE4F5C918081850F80838230B4F0A92FC0
:10305000B0E0AA5FBD4F9C919F5F9C934424439432
:10306000082E000C990BB6010E948A1B80839428BD
:103070004F5F31966ECF82E0D0CF412C8F3F84F7E7
:10308000A92FB0E0AA5FBD4F9C919150E6CF8091EF
:10309000F100F80181938F01F1E0AF1AB10809F452
:1030A00083CF8091E80085FDF2CF8091E8008B7797
:1030B0008093E8000E94C002882399F375CF1A829A
:1030C0008AE08B8311C08A81823009F427C1833062
:1030D00091F1813009F056C00E942A040E94A41B7D
:1030E0006B837C838D839E8380913302843009F0CF
:1030F0006BCE1091E9001F709091EC00892F8170C8
:1031000090FD80E8182B82E08093E9008091E80030
:1031100080FF0DC050E040E060E270E0CE0101961B
:103120000E94F1028091E8008E778093E8001F7082
:103130001093E90049CE80910F028B838091100299
:103140008C83809111028D83809112028E838091F5
:1031500013028F83809114028887809115028987DA
:10316000809116028A87C0CF8A81823059F46B81A0
:103170007C818D819E810E94A41B86E290E00E944A
:10318000CD1BB2CF8FEF8983AFCF4C816B818A810A
:103190000E9413089827892798279E838D83A4CFA0
:1031A0002D813E813227232732274C816B818A81F2
:1031B0000E948C0799CF0E94B20796CF80E18A8344
:1031C00093CF82E08A8389E57CCFAA80BB80BA2432
:1031D000AB24BA248E010F5F1F4F8C80800E912E7E
:1031E000911CC50189559E4F8016910609F47CCF2C
:1031F00029E5A21622E0B20658F40E94BF1BD801AE
:1032000014968C93FFEFAF1ABF0A0F5F1F4FE9CFE1
:10321000F8011482F7CF0A811B811027012710279C
:10322000CE0101964C01AC80A00EB12EB11CC8019C
:1032300089559E4F0A151B0509F456CF0935A2E0A2
:103240001A0720F4F40164810E94CD1BFFEF8F1A4E
:103250009F0A0F5F1F4FEBCF0E947C0745CF84E092
:10326000AECFAA80BB80BA24AB24BA248E010F5FF4
:103270001F4F8C80800E912E911CC5018796801661
:10328000910609F431CF20E8A21621E0B20658F4E5
:103290000E94BF1BD80114968C93FFEFAF1ABF0A90
:1032A0000F5F1F4FEACFF8011482F7CF0A811B810D
:1032B000102701271027CE0101964C01AC80A00EEB
:1032C000B12EB11CC80187960A151B0509F40CCF55
:1032D0000038A1E01A0720F4F40164810E94CD1B9C
:1032E000FFEF8F1A9F0A0F5F1F4FECCF09BD19BD6B
:1032F00009B400FEFDCF8091D8008F7D8093D80067
:103300008091E00082608093E0008091E00081FD88
:10331000FCCF109226020E94430CDDCD86E290E0A5
:103320000E94BF1B1B821C821D828E83DDCE8EE11C
:103330004A9B02C08150E1F74A9BFECF08955A98FC
:1033400080E28A95F1F75A9A0895FC013BE03A959C
:10335000F1F798E020E080E031E040E14A95F1F7B4
:10336000880F4A9B02C08160232742E04A95F1F70B
:10337000000040E14A95F1F7915079F790E19A9574
:10338000F1F799B132E03A95F1F7000040E14A9542
:10339000F1F792FB992790F992272081920F908361
:1033A0000895A1E0B0E0E7EDF9E10C945F1B19820C
:1033B0008C017C01E60EF11C0E151F0541F481E025
:1033C0009981911180E02196E6E00C947B1B0E948C
:1033D0009719CE0101960E94A519F80181938F01DA
:1033E000EBCF529A5A9A089552985A9AEA9AE9E675
:1033F000F0E080818F7C808308956150770B91E0AD
:1034000001C0990F6A95EAF720E031E0911108C0F8
:10341000222391F05A9A80E28A95F1F75A980895FA
:10342000492F482339F05A9A232740E24A95F1F769
:103430009695ECCF5A98F9CF5A98EDCFFF920F930B
:103440001F93CF93DF93EC018C01060F111DC01762
:10345000D10729F4CDB7DEB7E5E00C947C1BF990D9
:103460000E949F1968E08F2D0E94FD19F0CF1F92D6
:103470000F920FB60F9211240F931F932F933F9328
:103480004F935F936F937F938F939F93AF93BF936C
:10349000EF93FF93CF93DF930F92CDB7DEB71982EF
:1034A0000E949719CE0101960E94A519082F069532
:1034B00006950695282F22952570902F9570290F37
:1034C000922F937026952695920F98279770898151
:1034D000982B09F05CC0063008F059C080E18A954D
:1034E000F1F75A9A529A82E08A95F1F700C05A98F9
:1034F00088E0089F80011124D801A050BF4F169684
:10350000ED91FC9117973097A9F060916901709146
:103510006A0114962D913C911597260F371F11962D
:103520008D919C911297680F791F13964C91139768
:103530008C910995F801E050FF4F6381662351F0AB
:103540002091690130916A0184819581820F931FD6
:103550000E941E1A0E949F1980E18A95F1F75A98DD
:1035600052985A9A80E18A95F1F7F801E050FF4F9E
:103570006081662351F02091690130916A01818157
:103580009281820F931F0E94D1190E9497190F9068
:10359000DF91CF91FF91EF91BF91AF919F918F916B
:1035A0007F916F915F914F913F912F911F910F915B
:1035B0000F900FBE0F901F9018950F931F93CF93EE
:1035C000DF93EC0106970CF04CC0F894529A5A988D
:1035D00085E08A95F1F700009C2F969595708C2FC9
:1035E0008570980F892F83709695969523E0CC0F60
:1035F000DD1F2A95E1F7980F8E01092B0E949F1974
:1036000000C068E0802F0E94FD1980E18A95F1F7E3
:1036100052985A9A4A9B1EC087E090E04A991CC073
:10362000FE01E050FF4F63816623F9F020916901AC
:1036300030916A0184819581820F931F0E94D11974
:10364000811113C0529A5A9A7894DF91CF911F91A9
:103650000F91089500C0DECF019729F4529A5A9A2B
:10366000789480E0F2CF00C0D9CF0E94971980E211
:103670008A95F1F75A98529A80E18A95F1F7C050ED
:10368000DF4F6881662351F02091690130916A0112
:1036900089819A81820F931F0E941E1A0E949F198E
:1036A000789481E0D2CF2F923F924F925F926F92A7
:1036B0007F928F929F92AF92BF92CF92DF92EF92C2
:1036C000FF920F931F93CF93DF93CDB7DEB7CA1B43
:1036D000DB0B0FB6F894DEBF0FBECDBF09942A886E
:1036E000398848885F846E847D848C849B84AA8416
:1036F000B984C884DF80EE80FD800C811B81AA81A3
:10370000B981CE0FD11D0FB6F894DEBF0FBECDBF6D
:10371000ED01089597FB072E16F4009407D077FD6E
:1037200009D00E94AB1B07FC05D03EF49095819513
:103730009F4F0895709561957F4F0895EE0FFF1F7D
:103740000590F491E02D0994692796276927782739
:10375000872778270895AA1BBB1B51E107C0AA1F22
:10376000BB1FA617B70710F0A61BB70B881F991F22
:103770005A95A9F780959095BC01CD010895F999C6
:10378000FECF92BD81BDF89A992780B50895A8E132
:10379000B0E042E050E00C94F31B262FF999FECFE5
:1037A00092BD81BDF89A019700B4021639F01FBA94
:1037B00020BD0FB6F894FA9AF99A0FBE08950396B1
:1037C000272F0E94CE1B0E94CD1B252F0E94CE1BAF
:1037D000242F0C94CE1B0196272F0E94CE1B0C94F5
:1037E000CD1BDC01CB01FC01F999FECF06C0F2BD77
:1037F000E1BDF89A319600B40D9241505040B8F7AF
:103800000895FB01DC0104C08D910190801921F421
:1038100041505040C8F7881B990B0895FB01DC010B
:1038200002C001900D9241505040D8F70895F8948D
:10383000FFCF300D580DFB0E580DFB0E8B0DAC0D50
:10384000FB0EAA0EB70EAD11B911C311CC11D111D7
:103850008F11DA115F186318B418C518D018DB1867
:10386000C218C218C218C218C218DE18E118E5182A
:0A3870000B192C192F1931195619E4
:10387A000000000100000000000000040100000038
:10388A000000000105000000000000010600000021
:10389A000407000000000000012704C4062604BF34
:1038AA0006BA062504F4F501818283E200E900EAFA
:1038BA0000B500B600B700CD008301CC008A0192A2
:1038CA000194012102230224022502260227022A48
:1038DA0002B300B4006F007000D8016697C634F6D0
:1038EA00F73133323600FF0100010000FFFF00000C
:1038FA00010001FF004022320001DE00AC00540446
:04390A006D048D04B7
:00000001FF
