:100000004EC7000084C7000082C700000C94F7228E
:100010007EC700007CC700007AC7000078C70000D8
:1000200076C7000074C700000C94072A0C94D42AE9
:100030000C94F2246CC700006AC7000068C7000077
:1000400066C7000064C7000062C7000060C7000008
:100050005EC700000C9495255AC7000058C70000E1
:1000600056C7000054C7000052C7000050C7000028
:100070004EC700004CC700004AC7000048C7000038
:1000800046C7000044C7000042C7000040C7000048
:100090003EC700003CC700003AC7000038C7000058
:1000A00036C7000034C7000032C700000105020552
:1000B0000305040505050000000601060206030607
:1000C00004060506000701070207030704070507E2
:1000D00001080208030804080508000001000200E6
:1000E00003000400050000000001010102010301FA
:1000F00004010501000201020202030204020502DA
:10010000010302030303040305030000716D6B2068
:10011000636F6D70696C65202D6B62206B6C6F7204
:10012000202D6B6D2064656661756C7400000000A5
:1001300000000000000000000000000000000000BF
:1001400000000000000000000000000000F0F0F0DF
:10015000F0FFFFFFFFFFFFFFFFFFFFFFFFFFFFFFBE
:10016000FFFFFFFFFFFFFFFFFFFFFFFFFFFFFFFF9F
:10017000FFFFFFFFFFFFFFFFFFFFFFFFFFFFFFFF8F
:10018000FFFFFFFFFFFFFFFFFFF0F0F0F0000000B8
:10019000000000000000000000000000000000005F
:1001A000000000000000000000000000000000004F
:1001B000000000000000000000000000000000003F
:1001C00000000000000000000000000000FFFFFF32
:1001D000FFFFFFFFFFFFFFFFFFFFFFFFFFFFFFFF2F
:1001E000FFFFFFFFFFFFFFFFFFFFFFFFFFFFFFFF1F
:1001F000FFFFFFFFFFFFFFFFFFFFFFFFFFFFFFFF0F
:10020000FFFFFFFFFFFFFFFFFFFFFFFFFF000000FB
:1002100000000000000000000000000000000000DE
:1002200000000000000000000000000000000000CE
:10023000000000000000000000F0F0F0F0FFFFFF01
:10024000FFFFFFFFFFFFFFFFFFFFFFFFFFFFFFFFBE
:10025000FFFFFFFFFF0F0F0F0F0000000000000067
:10026000000F0F0F0FFFFFFFFFFFFFFFFFFFFFFF5D
:10027000FFFFFFFFFF0F0F0F0F0000000000000047
:10028000000F0F0F0FFFFFFFFFFFFFFFFFFFFFFF3D
:10029000FFFFFFFFFFFFFFFFFFFFFFFFFFF0F0F09B
:1002A000F00000000000000000000000000000005E
:1002B000000000000000000000FFFFFFFFFFFFFF45
:1002C000FFFFFFFFFFFFFFFFFFFFFFFFFFFFFFFF3E
:1002D000FFFFFFFFFFF0F0F0F00000000000000063
:1002E00000F0F0F0F0FFFFFFFFFFFFFFFFFFFFFF59
:1002F000FFFFFFFFFFF0F0F0F00000000000000043
:1003000000F0F0F0F0FFFFFFFFFFFFFFFFFFFFFF38
:10031000FFFFFFFFFFFFFFFFFFFFFFFFFFFFFFFFED
:10032000FF000000000000000000000000000000CE
:10033000000000000000000000FFFFFFFFFFFFFFC4
:10034000FFFFFFFFFFFFFFFFFFFFFFFFFFFFFFFFBD
:10035000FFFFFFFFFFFFFFFFFFFFFFFFFFFFFFFFAD
:10036000FFFFFFFFFF0F0F0F0F0F0F0F0F0F0F0FED
:100370000F0F0F0F0FFFFFFFFFFFFFFFFFFFFFFF3D
:10038000FFFFFFFFFFFFFFFFFFFFFFFFFFFFFFFF7D
:10039000FFFFFFFFFFFFFFFFFFFFFFFFFFFFFFFF6D
:1003A000FF0000000000000000000000000000004E
:1003B0000000000000000000000F0F0F0FFFFFFF04
:1003C000FFFFFFFFFFFFFFFFFFFFFFFFFFFFFFFF3D
:1003D000FFFFFFFFFFFFFFFFFFFFFFFFFFFFFFFF2D
:1003E000FF0F0F0F0F00000000F0F0F0F0F0F0F042
:1003F000F0000000000F0F0F0FFFFFFFFFFFFFFFD8
:10040000FFFFFFFFFFFFFFFFFFFFFFFFFFFFFFFFFC
:10041000FFFFFFFFFFFFFFFFFFFFFFFFFF0F0F0FBC
:100420000F000000000000000000000000000000BD
:1004300000000000000000000000000000000000BC
:1004400000000000000000000000000000FFFFFFAF
:10045000FFFFFFFFFFFFFFFFFFFFFFFFFF0F0F0F7C
:100460000F00000000F0F0F0F0FFFFFFFFFFFFFFC4
:10047000FFF0F0F0F0000000000F0F0F0FFFFFFF84
:10048000FFFFFFFFFFFFFFFFFFFFFFFFFF00000079
:10049000000000000000000000000000000000005C
:1004A000000000000000000000000000000000004C
:1004B000000000000000000000000000000000003C
:1004C00000000000000000000000000000FFFFFF2F
:1004D000FFFFFFFFFFFFFFFFFFFFFFFFFFF0F0F059
:1004E000F0F0F0F0F0FFFFFFFFFFFFFFFFFFFFFF67
:1004F000FFFFFFFFFFF0F0F0F0F0F0F0F0FFFFFF84
:10050000FFFFFFFFFFFFFFFFFFFFFFFFFF000000F8
:1005100000000000000000000000000000000000DB
:1005200000000000000000000000000000E1E1E128
:10053000E1E1E1E1E1E1E1E1008F9000939400E18C
:10054000E100919200A0A1A2A3A4E100B7B800B578
:10055000B6008081828384E100E1E1E1E1E1E1E153
:10056000E1E1E1E1E1E100979800959600C0C0C0AB
:10057000C0C0C0C0C0C0C0C0C0C0C0C0C0C0C0C07B
:10058000C0C000000014001A000800150017002B5E
:100590000004001600070009000A004C001D001BA3
:1005A000000600190005000000E000B45D2C00E228
:1005B00000A8000000130012000C0018001C0034FA
:1005C0000033000F000E000D000B00E5003800376F
:1005D0000036001000110000002A00B55D2800E37D
:1005E00000AE00000014001A00090013000A002BDE
:1005F000000468156416611762070014001D001BD3
:100600000006001900050000004C00B45D2C002914
:1006100000E100000033001C0018000F000D003442
:100620000012680C64086111720B00310038003749
:1006300000360010000E0000002A00B55D2800E31F
:1006400000AE0000003900530052002E002F022996
:10065000004A00500051004F002F0000004D004B99
:100660000016014E002602000001000100010001F9
:1006700000A80000005700610060005F00300234F5
:10068000022D005E005D005C003000010055005B43
:10069000005A005900270200006200010001000119
:1006A00000AE0000001E021F0220022102220235BD
:1006B000000000000000000000000000000000003A
:1006C0000000000000000000000100010001000126
:1006D00000A8000000310020142502240223024655
:1006E000006400000000000000000048000000005E
:1006F00000000000000000000001000100010001F6
:1007000000AE0000001F5CE95CC65CC45C00000039
:100710005C015CB25DC85C00000000B85DB75DB311
:100720005DCA5C0000000000000100010001000142
:1007300000A800000069004200410040000000687D
:100740000045003F003E003D000000440043003CE7
:10075000003B003A00000000000100010001000120
:1007600000AE0000AE00AF00DA1281FFD9F1DB204D
:10077000A4A62EAF00A0C000A1C800AED580A83F9F
:10078000D300408D1420000000000000003E5B4FAD
:100790005B3E003E6B4F6B3E001C3E7C3E1C0018D7
:1007A0003C7E3C18001C577D571C001C5E7F5E1C65
:1007B0000000183C180000FFE7C3E7FF0000182402
:1007C000180000FFE7DBE7FF0030483A060E00267E
:1007D0002979292600407F05050700407F05253F30
:1007E000005A3CE73C5A007F3E1C1C0800081C1CB9
:1007F0003E7F0014227F2214005F5F005F5F0006CF
:10080000097F017F00006689956A00606060606012
:100810000094B6FFB69400080C7E0C080010307EE1
:1008200030100008083E1C0800081C3E0808001E86
:1008300010101010000C1E0C1E0C0030383E38300A
:1008400000060E3E0E060000000000000000005FE3
:10085000000000000700070000143E143E14002EA4
:100860002A7F2A3A002012082402003749493750CB
:1008700000000807030000001C2241000000412284
:100880001C00002A1C7F1C2A0008083E08080000E3
:100890008070300000080808080800000060600050
:1008A000002010080402007F5149457F000804021F
:1008B0007F0000714949494F004141494977000F84
:1008C0001010107F004F49494971007E4949497015
:1008D0000001017109070077494949770007494933
:1008E000493F0000001400000000403400000000F8
:1008F0000814224100141414141400004122140896
:1009000000010159090F007F415D594F007F09091E
:10091000097F007F49494976007F41414141007F7D
:100920004141417E007F49494949007F0909090940
:10093000007F4141497B007F0808087F0000007F5D
:10094000000000704040407F007F08080877007F6B
:1009500040404040007F011F017F007F0408107F5E
:10096000007F4141417F007F0909090F007F4171EC
:10097000417F007F0909196F004749494979000102
:10098000017F0101007F4040407F001F2040201F69
:10099000007F407F407F007708080877004F484875
:1009A000487F00615149454300007F4141000002FA
:1009B00004081020000041417F00000402010204ED
:1009C00000404040404000000007080000605454D0
:1009D000547C007F44444478007C44444444007880
:1009E0004444447F007C5454545C00087F09090946
:1009F0000038A4A4A4FC007F040404780000007D57
:100A00000000007040407D00007F0808087600006C
:100A1000007F4000007C047C047C007C040404789B
:100A2000007C4444447C00FC2424243800382424E2
:100A300024FC007C04040404005C5454547400043A
:100A4000047F0404007C4040407C001C2040201CAB
:100A5000007C407C407C006C1010106C00BCA0A09E
:100A6000A0FC004464544C440000083641000000DF
:100A70000077000000004136080000020102040275
:100A8000003C2623263C000000E0F0F0F0F0FEFFE2
:100A90009F0F0F9FFFFFFFFF9F0F0F9FFFFEF0F0C5
:100AA000F0F0E00000FF000000000000C0300C0388
:100AB00000000000FF0000000000000000E010083F
:100AC00004020202010101010101020202040810F4
:100AD000E000000000FF010101010101010101012D
:100AE000FF7F515555457F415F5F5F7F007F417BB1
:100AF00077417F415F5F5F7F007F415D5D5D7F414B
:100B00005F5F5F7F00C0E0F0F0F0E0E6F7F3F060D9
:100B1000007C7C7C7C7C007C7C7C7C7C00F81CDE0B
:100B20001FFFFFFF1FDE1CF800C0E2B4F8F8F8F862
:100B3000F8B4E2C000000000000000000000000067
:100B4000000000000000000000070F0F0F0FFFFF64
:100B5000FFFF9F87E1F9F9E1879FFFFFFFFF0F0F7D
:100B60000F0F070000FF0000C0300C33C000000072
:100B700000000000FF000000000000003FC0000077
:100B80000000000000000000000000000000000065
:100B9000C03F000000FF08080808080838C8080817
:100BA0000F7E00007F00007800007E0000242412E9
:100BB00012242448482424121200000000000000DF
:100BC00000000000000F1F3F7F7F3F3F7F7F3810F6
:100BD000001F1F1F1F1F001F1F1F1F1F000F14219B
:100BE000404541454021140F007D7D7D7D7D7D7D0B
:100BF0007D7D7D7D00000000000000000000000001
:100C000000000000000000080808080808000000B4
:100C100000000000000000000000000000000000D4
:100C200000000000003F0C030000000000030C3037
:100C3000000000003F20202020202020200102046E
:100C4000081010102020202020201010100804026E
:100C500001000000003F0000000000000000030C45
:100C6000304000004000004000004000001C3E3EBC
:100C70003E1C003E1C1C0808003E3E3E3E3E00005E
:100C80000000000000000000000000000000000064
:100C90000000000000000000000000000000000054
:100CA0000000000000000000000000000000000044
:100CB0000000000000000000000000000000000034
:100CC0000000000000000000000000000000002AFA
:100CD0002B280000000000000000000000000000C1
:100CE000000029000000002C1E342021222434267C
:100CF00027252E362D3738271E1F20212223242575
:100D0000263333362E37381F0405060708090A0B29
:100D10000C0D0E0F101112131415161718191A1B9B
:100D20001C1D2F3130232D350405060708090A0B39
:100D30000C0D0E0F101112131415161718191A1B7B
:100D40001C1D2F3130354C00000000000000000059
:100D50000000000000000000000000000000000093
:100D600000000000000000000000007E0F00D4FF23
:100D7000FFFFC7000000780A034B004C004F0052F1
:100D80000000000C034700450049005300540000D8
:100D9000000403090409023B00020100A0FA09044F
:100DA000000001030101000921110100012240009E
:100DB0000705810308000109040100010300000088
:100DC000092111010001227B000705820320000197
:100DD00012010002000000083C3A0100010001027B
:100DE000000105010902A10185020901A10005090F
:100DF00019012908150025019508750181020501D1
:100E0000093009311581257F950275088106093859
:100E10001581257F950175088106050C0A38021594
:100E200081257F950175088106C0C005010980A153
:100E300001850319012AB700150126B70095017530
:100E4000108100C0050C0901A101850419012AA027
:100E500002150126A002950175108100C005010947
:100E600006A101050719E029E71500250195087578
:100E70000181029501750881010507190029FF15F7
:100E80000026FF009506750881000508190129054F
:100E9000950575019102950175039101C00011241A
:100EA0001FBECFEFDAE0DEBFCDBF04B603FE18C031
:100EB0008091A8079091A907A091AA07B091AB07CC
:100EC0008730904BA740B04B59F41092A80710926E
:100ED000A9071092AA071092AB07E0E0F8E3099582
:100EE00012E0A0E0B1E0EEEDFAE502C005900D924F
:100EF000A231B107D9F727E0A2E1B2E001C01D920B
:100F0000A83AB207E1F70E948A190C94502D78C8CC
:100F100008950895CF9360E08DE695E00E94B01D9E
:100F200080917C0360E080FF55C08AE695E00E94D6
:100F30009F1D60E089E595E00E949F1D60E082E5CD
:100F400095E00E949F1D80917C0360E080FF45C07A
:100F50008FE495E00E949F1D60E089E595E00E9486
:100F60009F1D60E085E495E00E949F1D60E08DE696
:100F700095E00E94B01D0E942524C82F60E082E405
:100F800095E0C0FD02C08FE395E00E949F1D60E0E8
:100F90008CE395E0C1FD02C08FE395E00E949F1DA8
:100FA00060E089E395E0C2FD02C08FE395E00E9416
:100FB0009F1D60E08DE295E00E949F1D60E08FE341
:100FC00095E00E949F1D60E08FE395E00E949F1DC9
:100FD000CF91089587E695E0AACF8CE495E0BACF4B
:100FE000CF93DF93EC012091540230915502809110
:100FF000560290915702822B932B96D16AE671E0AC
:101000008230A1F058F461E571E0882379F06EE553
:1010100071E0813059F06DE771E008C060E771E080
:10102000833021F066E771E08430A9F78FE593E023
:101030000E940E2D80911402909115021816190627
:1010400034F06FE573E086E192E00E940E2D24E01B
:1010500043E062E0CE01ECD0DF91CF91089582E0D1
:1010600008950E94271F882351F00E9406178823A5
:1010700041F060E086E192E00E949B1D4BDF80E042
:10108000089560E074E08DE291E00E94B41DF7CF16
:10109000CF93825B9D458730910508F049C0FC01E4
:1010A000EE5AF24DDB011296CC910C94B22CCC236B
:1010B000A1F080917C0380FD0EC0816080937C0351
:1010C00080917B0390917C030E94D211C6D4C0E032
:1010D0008C2FCF9108958E7FF1CFCC23C9F381E07F
:1010E00096D0F5CF80E0CC2399F3FACF82E0CC23E1
:1010F00041F04CD544E063E082E0BFD0E8CF83E02C
:10110000F6CF53D544E063E082E0B7D0E1CF84E08E
:10111000CC2311F03BD5DBCF48D5DACFCC2341F03F
:1011200060E08CE091E00E94B81F88E29AD2D0CFB4
:10113000C1E0CECFCF93C62F811111C083E014D56B
:10114000882341F08CEFC11101C08BEF8AD281E07E
:10115000CF91089589EAC111F9CF8AEAF7CF81309A
:10116000B1F782E001D5882329F08BEAC111EECFD7
:101170008CEAECCF83E0F8D4882361F38AEFC111C5
:10118000E5CF89EFE3CF81E0089582CF08950895F8
:10119000FECF0895A5E0B0E0E0EDF8E00C94C72C98
:1011A00049835A833091390289819A81311116C05D
:1011B000662389F0222379F0A7D5182F682F89811B
:1011C0009A8180D569817A81812F0E940E1425969B
:1011D000E3E00C94E32C87D5182FF4CF95D56981E3
:1011E0007A81F3CFFC01262F408151816281738186
:1011F0008481D0CF089581E00895CF93DF93EC01EF
:1012000060E0F0DFBE01C4DFDF91CF910895CF939E
:10121000DF93C1E0D0E002C0CC0FDD1F8A95E2F77A
:101220008C2F0E94BE11CE0166D4DF91CF9108951C
:10123000E1E0F0E0DF0102C0AA0FBB1F6A95E2F710
:10124000BD01DF0102C0AA0FBB1F4A95E2F7AD0145
:10125000462B572B02C0EE0FFF1F2A95E2F79A018B
:10126000282339232417350719F48E2B9F2B089533
:10127000E095F0958E239F230895242F462F682F05
:101280008091540290915502D3DF4FC408950C947D
:101290006A1508950C946C1508950895DED3FDDF4A
:1012A0002FEF84E39CE0215080409040E1F700C0A4
:1012B00000000895F3DF0C94B9250895EFDF0C9436
:1012C000DD2508950F931F93CF93DF93EC0161E029
:1012D00089DF8C01BE0159DF882381F08A81882350
:1012E000B1F00F3D8CE5180771F0083A8DE518074D
:1012F00061F001151C4559F4DDDF80E0DF91CF91ED
:101300001F910F9108950E945412D8DFF6CFCE019D
:101310003ADFF4CF0E94D3243AD00C940A1F0895E8
:1013200039D00C94D7240895292F332740E0211574
:10133000310511F0C90148E09C0164E0369527951C
:101340006A95E1F72115310511F04C5FC9019C0147
:1013500036952795369527952115310511F04E5F65
:10136000C90196958795892B09F04F5F842F0895C1
:101370000895FECF089581E00895FDCF0895089562
:10138000CF93C82FF6DF8C2FF8DFCF91089580E040
:10139000F7CF08950E941124F3CF0895CF930E94B0
:1013A0001124C82F80912E028C1771F0C0932E0249
:1013B0000E945E2560932F02709330028093310269
:1013C000909332028C2FDCDFCF910895442319F0E3
:1013D00080913B0208959C0143E0369527954A95FC
:1013E000E1F7620F731F8770992721E030E001C099
:1013F000220F8A95EAF7FB019081922381E009F49C
:1014000080E00895FC01E770FF2721E030E001C093
:10141000220FEA95EAF733E0969587953A95E1F73A
:10142000FB01E80FF91F8081442319F0282B20834A
:10143000089520952823FBCF0F931F93CF93DF931D
:101440008C01DC0111968C911197883038F5CC9184
:10145000C63020F5D0E0B6E08B9FC00DD11D112421
:10146000F801428163E372E0CE01B0DF40E08823FF
:1014700089F0CE01880F991FFC01E355FF4FE491DD
:10148000D8011196EC931197FC01E455FF4FE491BC
:10149000EC9341E063E372E0CE01B4DFDF91CF91E2
:1014A0001F910F910895ABE0B0E0E9E5FAE00C94EC
:1014B000C82C4F83588769877A878B87611146D7F5
:1014C0008A859B85892B29F08F81988589238F3F79
:1014D00029F51E821D8285E0FE013796DE011196F8
:1014E00001900D928A95E1F78C819D81892B59F4A9
:1014F00049815A816B817C818D819E813DD62B965D
:10150000E2E00C94E42C89819A8189238F3F81F356
:10151000CE01019670DE8111EBCFF1CFCE0107969F
:101520008BDFD7CFFC01808191811FD492959F7072
:10153000963051F4863F41F080913B0291E089273B
:1015400080933B0290933A020895CF93C82F88234B
:1015500099F08CEF8C0F813A88F46C2F8091000108
:10156000909101010E946C24882319F08C2F95D64C
:10157000A3D68C2F8AD6A0D6CF91089580E28C0F67
:10158000883040F4C77081E001C0880FCA95EAF73F
:10159000C0D6F1CFEBE5EC0FE33040F4F0E0EE54D1
:1015A000FE4F808190E00E944024E6CFE8E5EC0FFA
:1015B000E73150F4F0E0EE0FFF1FEC57FE4F808153
:1015C00091810E945624D8CFCD3EB0F28C2F0E943C
:1015D0000A1A0E94D51AD0CF882361F19CEF980F88
:1015E000913A18F45AD668C6089590E2980F983048
:1015F00048F4877091E001C0990F8A95EAF7892F26
:101600008ED6F1CF9BE5980F933028F490E080E0E0
:101610000C944024089598E5980F973128F490E0B1
:1016200080E00C94562408958D3E20F00E945C1AB0
:101630000C94D51A08951F93CF93DF93182FEB01C5
:1016400084DF209731F4812FC7DFDF91CF911F9185
:1016500008958FE99FE00197F1F700C000002197FE
:10166000F0CF70E060E0893311F460E570E0E3CF23
:101670000895882311F04DD61FC60895882311F0D0
:101680004ED61AC60895EF92FF920F931F93CF93F1
:10169000DF937C01C62F972FF70122813581329588
:1016A0003F70872F82958F70082F10E08C3058F58F
:1016B000F801E75AF24D0C94B22CD72FDF70907FCF
:1016C00011F0D295D07F222389F0DD2349F080E20A
:1016D0008C0F883010F0C11106C08D2F1AD6ECD5B2
:1016E0008C2F33DF10C08D2F24D6F9CF8C2F74DFD1
:1016F000DD2349F080E28C0F883010F0C11110C05A
:101700008D2F0DD6D9D5085011090430110518F4C4
:101710000E94112435DECDB7DEB7E6E00C94E02C54
:101720008D2F0DD6EFCF872F8F70907F903211F0D5
:101730008295807FC13051F4222321F0363018F792
:1017400098DFE1CF3530F8F699DFDDCF222319F0AD
:101750003323B1F3C5CF3323B9F3C93349F4FFEFD2
:1017600027EE83E0F15020408040E1F700C0000008
:101770008C2F32DFC8CF872F86958695837061F0D6
:10178000813009F0C0CF862F9370211102C090E004
:1017900080E00E945624B7CF862F9370211102C09B
:1017A00090E080E00E944024AECF862F222329F0D3
:1017B0000E940A1A0E94D51AA6CF0E945C1AFACF7C
:1017C000872F837091F521119ECF862F8295869564
:1017D0008770880F880F462F4F7050E0082E02C088
:1017E000440F551F0A94E2F730E020E064FF09C07F
:1017F0002FE030E002C0220F331F8A95E2F72095D8
:101800003095792F769576957370C901842B952B39
:10181000723039F040F4713011F077D174CF6DD15E
:1018200072CF7BD170CF67D16ECF8695222311F016
:10183000872F8170882309F466CF8C2F8295869537
:101840008770880F880F4C2F4F7050E0082E02C011
:10185000440F551F0A94E2F730E020E0C4FF09C0AE
:101860002FE030E002C0220F331F8A95E2F7209567
:101870003095792F769576957370C901842B952BC9
:10188000723039F040F4713011F0B7D13CCFADD1A6
:101890003ACFBBD138CF49D136CFD72FDF702223F3
:1018A00021F08D2F73D18C2F4BCF862FE7DE8D2F1C
:1018B0007CD129CF613F09F148F4603F89F02223B0
:1018C00049F131110DCF892F8F711BC0623FD9F0C3
:1018D000633FA9F72223E1F0872F8F714CD113CFFB
:1018E000222339F0353008F00ECF892F8F716ED159
:1018F0000ACF363008F007CFF8CF872F8F71222319
:10190000B9F244D100CF872F8F712223D1F3D0CFEA
:1019100013D1F9CE332359F0C93309F029CF9FEF02
:10192000E7EEF3E09150E040F040E1F71FCF892F60
:101930008F71BECF623F99F1E8F4603F21F1613FC2
:10194000B1F180913A02332309F43DC0882341F07C
:1019500080913B0291E0892780933B0210923A02EA
:101960008C2F2111BECE38DE86E0F70111928A95C8
:10197000E9F7C9CE643FB1F080F0653F11F721115E
:10198000C2CE81E007C0222309F4BDCE80913B0284
:1019900091E0892780933B02B6CE81E028272093EF
:1019A0003B02B1CE2111AFCE10923B02ACCE22232E
:1019B00039F080913A02882349F310923A02A3CE7B
:1019C000353020F3A0CE882309F49DCE21119BCE83
:1019D00080913B0291E0892780933B02EECF0F93E9
:1019E0001F93CF93DF93EC01688179818A81C6D1FF
:1019F0008C0113D17FD0B801CE0145DEDF91CF91AC
:101A00001F910F910895CF93DF93EC018B819C81FF
:101A1000892B29F08881998189238F3F19F4DF91DF
:101A2000CF910895CE014EDC8823C9F3CE01D7DFD4
:101A3000CE01E3DBF4CF90E080E00E94402490E010
:101A400080E00E94562482D437D40E94F11A0C946C
:101A5000D51A08952AD4EFCF089568D4FBCF0895FE
:101A600092959F70963091F058F4925F9F709230EB
:101A700058F4803F19F030F4883E30F481E0089546
:101A80009A5FF4CF843FD1F380E00895883EB0F3AD
:101A9000813FD1F7F3CFFC0183819481892B29F019
:101AA0008081918189238F3F11F480E008958081A6
:101AB00091815BD1D5CF0895A5E0B0E0E2E6FDE0ED
:101AC0000C94C82C2596E2E00C94E42CA6E0B0E03F
:101AD000ECE6FDE00C94C82C2696E2E00C94E42C95
:101AE0000895FECF0895FDDF90935702809356022C
:101AF000A2CF08950895F7CF08952091560230910E
:101B00005702822B932BEFCF0895209156023091EC
:101B1000570282239323E7CF0895209156023091F4
:101B2000570282279327DFCF08955ADA9093550200
:101B30008093540280CF089590E080E0F6CF08951E
:101B4000009729F481E0662371F080E00CC021E069
:101B500030E002C0220F331F6A95E2F728233923B1
:101B600081E0232B91F30895682F80915402909186
:101B70005502E6CF089521E030E0A90102C0440FEC
:101B8000551F8A95E2F7CA01D0CF089521E030E0D1
:101B900002C0220F331F8A95E2F780915402909180
:101BA0005502822B932BC1CF089521E030E002C073
:101BB000220F331F8A95E2F72095309580915402C9
:101BC0009091550282239323B0CF089521E030E015
:101BD00002C0220F331F8A95E2F780915402909140
:101BE000550282279327A1CF089520915402309166
:101BF0005502822B932B99CF089520915402309156
:101C000055028223932391CF08952091540230915D
:101C100055028227932789CF08950895262F27708C
:101C200091E001C0990F2A95EAF723E07695679530
:101C30002A95E1F7660F771F660F771FFA01E60F07
:101C4000F71F50E040E0682F70E08191DF011197AD
:101C50009B01042E02C0369527950A94E2F7217065
:101C600021952827292328272C934F5F5F4F443045
:101C7000510559F70895A82FA77023E096958795E9
:101C80002A95E1F7880F991F880F991FFB01E80F2C
:101C9000F91F50E040E080E0219130E00A2E02C0C0
:101CA000369527950A94E2F721703327042E01C058
:101CB000220F0A94EAF7822B4F5F5F4F44305105A1
:101CC00059F70895262F983068F4863058F4682F15
:101CD00070E086E0989F600D711D11244CE352E086
:101CE000822F9CCF0895292F983060F4863050F4CD
:101CF00090E06CE372E036E0239F800D911D11248B
:101D0000BACF089580E00895B0E0A0E0EAE8FEE0F0
:101D10000C94C12C7C0100915402109155028091C9
:101D2000560290915702082B192BCFE0D0E0CC241B
:101D3000C394D12CBC2EC6010C2E02C0880F991F53
:101D40000A94E2F780239123892B49F4219790F795
:101D5000B12C8B2DCDB7DEB7E9E00C94DD2CB701AB
:101D60008C2F77D5019791F3F4CFCF93DF93EC01CC
:101D7000CBDFBE016ED5DF91CF9108951F93CF9336
:101D8000DF93EB0190913902992331F0CB01EDDF24
:101D9000DF91CF911F910895882351F0CB01B4DFDB
:101DA000182F682FCE018EDFBE01812F52D5F0CFC4
:101DB000CB0199DF182FF8CF1F93CF93DF93C091FA
:101DC000580216E0809159028C1304C0DF91CF9124
:101DD0001F910895D0E01C9FF0011D9FF00D11246C
:101DE000E65AFD4F408151816281738184819581E2
:101DF0006DDE2196C770E6CF40918A0250918B022A
:101E000060918C0270918D0280918E0290918F0270
:101E10005DCE08951F93CF93DF9380918F02807FD3
:101E200009F047C080918C02882309F442C0809158
:101E30005802C091590260918A0270918B02A09160
:101E40008D02B0918E02D62FD72316E0C81789F1E4
:101E500090E0109711F0DF3F19F401968770F6CFEC
:101E6000189F9001199F300D1124F901E65AFD4F7A
:101E700041814713F2CF40814613EFCF4281411198
:101E8000ECCF438154814A1B5B0B4A3A510528F73A
:101E900080918F028F70806180938F02F901E15AE7
:101EA000FD4F80818F70806180838AE892E0ABDD96
:101EB00083DFDF91CF911F910895A1E1B0E0E3E6C8
:101EC000FFE00C94C02C8C0185E0F801DE011D962A
:101ED00001900D928A95E1F7F801E2808AE8C82E18
:101EE00082E0D82E60918D0270918E02611571058D
:101EF00009F429C190918A0220918B02892F8223B3
:101F00008F3F09F420C140815181A380B480F090BB
:101F10008C02F501E61BF70BFF2009F4E8C0809165
:101F20008F02382F307FEA3AF10508F0A6C0311150
:101F300069C0FE2C251314C0941312C0E11010C008
:101F40008F70806180938F0257DFC6015CDD8091C6
:101F50008F02F80185838F2D6196EAE00C94DC2CCA
:101F6000A114B10429F0842F85238F3F09F001C10A
:101F700080E0F82FF170DF2E80FF3AC08091580288
:101F80002091590236E0821314C04D875E878D85FB
:101F90009E85EBDE292F22952F702230F0F0243021
:101FA00018F59F70F1F0F8019581907FD1F4D12C54
:101FB0001DC090E0389FF001399FF00D1124E65AC2
:101FC000FD4F6181651306C06081641303C06281A7
:101FD000E6120EC001968770D6CF9F7011F088234D
:101FE00031F3805E883018F3C8010DDDFD2CB3CFCE
:101FF000EE2009F4B0CF80918F02816080938F0230
:10200000F12CA9CF251312C0941310C0E1100EC0FB
:10201000F8018583C801F7DC86E0F801AAE8B2E0A0
:1020200001900D928A95E1F7E7DE95CFC80133DD87
:10203000882301F1EE20F1F080918F02803268F068
:1020400020918A0230918B0238872F831986BB86B4
:10205000AA868C87CE010796D6DC86E0F801AAE82E
:10206000B2E001900D928A95E1F7D4DEC5DEFF243F
:10207000F39471CFC801C7DCFACF311110C07A2DAB
:10208000B98AA88A6E2D898917DD8AE892E0BBDCBF
:1020900086E0F60111928A95E9F7AEDEB1CF2513FD
:1020A0000EC094130CC0E1100AC0F8018583C8016A
:1020B000AADC86E0F60111928A95E9F74CCFC801B7
:1020C000EADC8823B9F2EE20A9F280918F028032F7
:1020D00008F4C3CF20918A0230918B023A8329837E
:1020E0001B82BD82AC828E83CE010196B5CFEA3AC7
:1020F000F105E8F4FE2CEE2009F4BCCF25130BC04B
:10210000941309C086E0F801AAE8B2E001900D92AC
:102110008A95E1F720CFC801BEDC81119ECF809166
:102120008F02816080938F02C8016DDC14CF7A2DFD
:10213000B98AA88A6E2D8989BFDC86E0F6011192E2
:102140008A95E9F771CFEE2009F494CFC801A3DC9A
:10215000F82E882309F48ECF86E0F801AAE8B2E0D1
:1021600001900D928A95E1F78AE892E0DBD952DE80
:102170005BCF81E08E25FDCEACE0B0E0E2ECF0E19B
:102180000C94C72C4F83588769877A878B879C87E5
:10219000CE01079692DE882369F08A859B85892B7C
:1021A00039F04F815885842F85238F3F09F067C010
:1021B00016E05BC086E0FE013796DE0111960190C5
:1021C0000D928A95E1F78A859B85892B89F38F810A
:1021D000988589238F3F61F32091590230E0C9012E
:1021E000019687709927409158024817190669F49B
:1021F00034DC109259021092580286E0EAE8F2E0CC
:10220000DF011D928A95E9F7D3CF96E0929FD00126
:10221000939FB00D1124A65ABD4FFE013196019037
:102220000D929A95E1F780935902C6DDC1CF819F47
:10223000C0011124865A9D4F40DE8823E1F0E091D1
:1022400058021E9FF0011124E65AFD4F4081518132
:10225000628173818481958139DC8091580290E09C
:102260000196877099278093580280915802909127
:1022700059028913DCCF2C96E3E00C94E32C69859A
:102280007A858B859C8522DC93CF682F8091000115
:10229000909101010C94A2240895682F809100016F
:1022A000909101010C94A4240895809100019091D3
:1022B00001010C94A6240895CF93DF93E0910001CF
:1022C000F09101018091A1028083E0910001F091E1
:1022D000010180819091A002892B8083C09100012F
:1022E000D091010148E050E060E972E0CE010E9427
:1022F000F82C892B59F088E0FE01A0E9B2E00190AA
:102300000D928A95E1F7CE010E942724DF91CF91AB
:1023100008959091A102892B8093A1020895809540
:102320009091A10298239093A10208951092A10286
:1023300008959091A002892B8093A0020895809522
:102340009091A00298239093A00208951092A00269
:10235000089590E080E00E941D2D21E0883E9E4F70
:1023600009F020E0822F089582E090E00C94152D72
:10237000089583E090E00C94152D0895682F83E074
:1023800090E00C94222D0895CF9384E090E00E9479
:10239000152DC82F82E290E00E94152D982F8C2FCA
:1023A000CF910895CF93C92F682F84E090E00E94C9
:1023B000222D6C2F82E290E00E94222DCF91089571
:1023C000AB01BC018FE090E00C94342D0895AB017B
:1023D000BC0183E190E00C94342D089560E070E03E
:1023E000CB01F5CF089560E070E0CB01E9DFF6CFD7
:1023F000089568EE7EEF90E080E00E943C2D60E062
:1024000082E090E00E94222D60E083E090E00E9454
:10241000222D109257021092560260E084E090E064
:102420000E94222D64E082E290E00E94222D60E072
:1024300085E090E00E94222D60E086E090E00E941E
:10244000222D6FEF87E090E00E94222D40E050E0C7
:10245000BA0188E090E00E94342D60E08DE090E0C9
:102460000E94222D40E050E0BA0188E190E00E94F5
:10247000342D60E087E190E00E94222D40E050E0A2
:10248000BA018CE190E00E94342D70E060E080E2BF
:1024900090E00E943C2D40E050E0BA0188E190E0DD
:1024A0000E94342DA0CF0895A4CF08950E945E25E8
:1024B0006093B4027093B5028093B6029093B70212
:1024C0006093B0027093B1028093B2029093B30212
:1024D00008950E945E256093B4027093B5028093C4
:1024E000B6029093B7026093AC027093AD028093F2
:1024F000AE029093AF02089508950895FECF089517
:102500000C94880708958FE495E10E940724F4DF76
:10251000F5CF08957BC4089508950895FDDFFDCF9C
:102520000895C0D20C94BF0908950E94492579D21C
:1025300087D4D2D3F6DF0E94091C80E00E94601C81
:102540000E94292084D4DCCF0895AAE0B0E0EBEA11
:10255000F2E10C94C02CE1D384EAA82E82E0B82EDC
:10256000750110E0F70101917F01812FB8D21F5F43
:10257000183009F43DC00817A9F38091B80281FD15
:10258000B4D2C8DFC82E10E0812FA9D2082FF501E0
:1025900081915F01081731F1D02ED826F12CEE245D
:1025A000E3948D2D8E21B1F0CC20A1F0FE821F830B
:1025B00091E0802F8E2109F490E098870E945225A7
:1025C0008160782F9A8789874E815F8168858A85A7
:1025D0000E94530AF394EE0CF6E0FF12E2CFF501ED
:1025E000319700831F5F183079F660DF11E021C05A
:1025F0000813C3CF0E9452258C018091A2029091B2
:10260000A30208171907A1F08FEF89838A831B8221
:102610000E9452258160782F9D838C8349815A8145
:102620006B818D810E94530A1093A3020093A20232
:1026300010E0ECD30E94AC20082F81114ADF0E94E9
:10264000291F111101C001110E94F41DECD70E9435
:10265000CE092A96EAE00C94DC2CCF93DF93FCD0D1
:10266000EC01811521E5920708F042C0811530E5A3
:10267000930708F0ABC0883E910530F5803E910588
:1026800008F0A0C0883A910588F4853A910508F0D1
:1026900092C08130910509F495C0009709F492C069
:1026A000049708F08FC0D0E0C0E08CC08F3B91054C
:1026B000D0F7C85AD0E0CC0FDD1FCB54DE4F0990C5
:1026C000D881C02DD4647EC0811540E2940750F4B7
:1026D000C11581E0D80708F075C0CD3ED10518F3CB
:1026E000D06570C081159044F0F2DF70D06A6AC086
:1026F000811537E59307D0F58115964508F08BC015
:10270000C11583E5D807C8F4C11522E5D20708F43E
:1027100070C0CE018370992721E030E002C0220F03
:10272000331F8A95E2F7C695C69580E2C89FE001FF
:102730001124C22BD32BDC6845C0C11534E5D30767
:1027400008F0B1CFCE018370992721E030E002C0BC
:10275000220F331F8A95E2F7C695C69540E2C49FC3
:10276000E0011124C22BD32BDA682CC081154AE575
:10277000940778F4C11589E5D80708F03FC0C11562
:1027800028E5D20708F48FCFDC2FCC27C06FD06AA2
:1027900019C090568115904208F085CF8D2F8F710A
:1027A000FDD090E0982F882788279F719C012C2BC3
:1027B000E901D06207C0C55AD0E0CD51DE4FC881D3
:1027C000D0E0D064CE01DF91CF9108958370992736
:1027D00021E030E002C0220F331F8A95E2F7C69550
:1027E000C69540E2C49FE0011124C22BD32BDD68C3
:1027F000E9CFDC2FCC27C16FD06AE4CF8C2F8F704C
:10280000CDD034E0D695C7953A95E1F7CF709C2F9F
:10281000EC01D069D7CFDD27D066D4CF972F7830A1
:10282000A8F4663098F470E026E0929F600D711D68
:102830001124FB0190E3899FE00DF11D1124EE0F9F
:10284000FF1FED57FA4F85919491089580E090E035
:102850000895E4DF02CF089582389105B9F1B0F40C
:102860008133910509F47DC048F48932910509F45A
:102870006DC08A32910509F47BC0089585339105B6
:1028800009F45FC08933910509F10895833E9105EC
:10289000D9F138F4803E910529F1823E910579F114
:1028A0000895863E9105D9F1873E910509F43EC011
:1028B000843E910541F520917C0321FF24C0809145
:1028C0007B0384FD19C087EE90E0089520917B037F
:1028D000237009F05AC020917C0323FF14C089E2C1
:1028E00090E0089520917B0320FD38C030917C0357
:1028F00030FF09C024FF43C090E080E0089520919C
:102900007B0322FDF7CF089520917B0322FD3AC07F
:1029100030917C0330FD39C024FFF5CFEDCF2091FD
:102920007B0323FFF0CF24FDE7CFCDCF20917B03A6
:1029300023FD2EC030917C0331FFEECF84EE90E07A
:10294000089520917B0325FFDECFC9CF20917B0323
:1029500025FD21C020917C0323FFD5CF89E390E0A2
:10296000D2CF20917B0326FFCECF8AE290E008955C
:1029700020917B0326FFC7CF81E390E0089583EE8B
:1029800090E0089582EE90E0089580EE90E0089542
:1029900086EE90E0089585E390E0089590917B03A2
:1029A00092FF06C0282F28712830F9F4877F8460B1
:1029B00093FF06C0282F28712831F1F4877E8461A7
:1029C00020917C0320FF06C0382F38713830D9F4AD
:1029D000877F816021FF06C0282F28712831D1F41C
:1029E000877E816194FD877E0895282F247124308D
:1029F000F9F68B7F8860DCCF282F2471243101F712
:102A00008B7E8861DDCF382F3171313019F78E7FA1
:102A10008860E0CF282F2171213121F78E7E8861D7
:102A2000E1CF1092770310927803109279031092FD
:102A30007A030895CF92DF92EF92FF926B017C01AF
:102A4000E5D181110EC00E945E25C61AD70AE80A98
:102A5000F90AC0927703D0927803E0927903F0925A
:102A60007A03FF90EF90DF90CF9008950F931F931C
:102A7000CDD1882329F00E945E251F910F910895E2
:102A80000E945E25009177031091780320917903CD
:102A900030917A03600F711F821F931FEECF80E089
:102AA0000895089556DC811101C0FEDC5DDC809341
:102AB000B8026ADC90937C0380937B03F2DF59DCDD
:102AC00090E019D880915402909155020C94F0072F
:102AD00008950895FECF08950C9489070895E82F6E
:102AE000F0E0EA57FC4F80810895089580EA8A95C6
:102AF000F1F7089500C00895F9CF08950895FECF25
:102B00000895EF92FF921F93CF93DF9300D000D0F0
:102B1000CDB7DEB77BD1182F60918E03882309F4DF
:102B200046C019821A821B821C82862F90E09E0169
:102B30002F5F3F4F7901B9018A579C4F94D1882369
:102B4000E9F080917D0390E044E050E0B7018A57BE
:102B50009C4F0E94F82C21E02093B902892BC9F4E4
:102B600010E00E944A09812F0F900F900F900F9054
:102B7000DF91CF911F91FF90EF9008958091B9025E
:102B8000882371F384E0F70111928A95E9F7109296
:102B9000B902E0917D03F0E0EA57FC4F89819A8108
:102BA000AB81BC8180839183A283B383DACF70E051
:102BB0006A577C4F80917D0390E08A579C4FD8D113
:102BC0009EDFD1CFF894E82FE295EF70F0E031A1CD
:102BD000282F2F7081E090E001C0880F2A95EAF736
:102BE000982F9095932391A392A1892B82A37894F7
:102BF0000895CF93DF9386E6E5DF87E9E3DF86EC90
:102C0000E1DF84E3DFDFC6EED1E089918F3F09F099
:102C1000D9DF81E0CC3ED807C1F7DF91CF9108958D
:102C2000B0E0A0E0E6E1F6E10C94C22CEC01D62E77
:102C3000062F10E0C80184519E4F7C01FC01808169
:102C40008F3F09F442C0F894E82FE295EF70F0E06E
:102C500091A18F7021E030E001C0220F8A95EAF740
:102C6000892F822B81A382A12095282322A37894E7
:102C700041DFE6EEF1E04CEE51E031E0C12C219174
:102C80002F3F41F1A22FA295AF70B0E090968C91AA
:102C900090E02F7002C0959587952A95E2F780FD08
:102CA00019C0832FC82A330F4E175F0741F7F7016A
:102CB00080818F3F09F086DF61E0C11001C060E0D4
:102CC0008D2D1ADFC00FD11FC882CDB7DEB7E8E067
:102CD0000C94DE2C80E0E6CF80910201809102010D
:102CE00094E0811190E090938E0384E0891B80939F
:102CF0007D037FDF88E0E6E8F3E0DF01982F1D9297
:102D00009A95E9F7EEE7F3E0DF011D928A95E9F77E
:102D100084E03ED00C9447090895A8E0B0E0E3E9D0
:102D2000F6E10C94C52C8E010F5F1F4F88E0F8016F
:102D300011928A95E9F7F12C6F2DC80171DFF39498
:102D4000F4E0FF12F9CF48E050E0B8018EE793E0DD
:102D50000E94F82C21E0009709F420E0892B41F033
:102D600088E0F801AEE7B3E001900D928A95E1F7B3
:102D700060918E0370E06A577C4F44E08EE793E0E9
:102D800008D0182FBEDE812B2896E5E00C94E12CAC
:102D90000895CF92DF92EF92FF920F931F93CF93FC
:102DA0006C017B01042F222349F081E08093BC0257
:102DB0000E9452259093BB028093BA02C091BC023C
:102DC000C1110AC0C0E08C2FCF911F910F91FF90CD
:102DD000EF90DF90CF9008958091BA029091BB025E
:102DE0000E946A25059770F310E0A801B601C7019B
:102DF0000E94F82C892B41F0A801B601C7010E945E
:102E0000052D1092BC02DFCFC0E0FBCF8091BF0246
:102E1000811107C00E94722C882351F081E08093B9
:102E2000BF0281E09091BF02913009F080E00895E7
:102E300082E08093BF020E946E2CF3CFE7CF08950B
:102E4000FDDF80930201E2DF811142C00895DEDFE1
:102E5000811101C040C0089581E09091C0029A3074
:102E600008F080E008950F931F93CF93DF93EC0158
:102E70008B018091C0028A30B0F4B801CE0176D0C7
:102E8000C82F811122C08091C0028F3FB9F40E94E7
:102E900052259093BE028093BD028C2FDF91CF917B
:102EA0001F910F9108958091BD029091BE020E94E2
:102EB0006A25843F914008F7C0E0EFCF8F5F809391
:102EC000C0028A3020F7C1E0E8CF1092C002E5CFFF
:102ED0000C94B32208950C94B6220895B0E0A0E0BB
:102EE000E4E7F7E10C94C32C7901C82F880FDD0BC0
:102EF00041155105A9F0FE0193E0EE0FFF1F9A95D1
:102F0000E1F7ED5FFE4F818192818F539D4F2081CC
:102F100030E04217530708F49A01A9010E94052DD9
:102F2000CE010E949723D82E8823D1F001151105D8
:102F3000B9F083E0CC0FDD1F8A95E1F7FE01ED5F6C
:102F4000FE4F438150E00417150708F4A801CD5F38
:102F5000DE4F6C817D816F537D4FC7010E94052D2F
:102F60008D2DCDB7DEB7E7E00C94DF2C58C1089566
:102F70007BC10895A4E0B0E0E0ECF7E10C94C62C2E
:102F80006091DD027091DE028091DF029091E0029B
:102F90000E94792511E0643671058105910508F1DB
:102FA00065DD6E5F7F4F8F4F9F4F69837A838B8381
:102FB0009C8310E000E030E020E044E050E0BE01FF
:102FC0006F5F7F4F84E08ADF182F882351F00E94C3
:102FD0005E256093DD027093DE028093DF029093A2
:102FE000E002812F2496E4E00C94E22CA1E0B0E012
:102FF000ECEFF7E10C94BD2C762E4A0159016801E3
:1030000001E010E09E012F5F3F4F50E040E070E094
:1030100060E064DF182F882381F1F4016081718101
:10302000828193810E94792564367105810591051D
:10303000F0F08701950150E040E070E060E0872DFE
:103040004DDFB82EB701C601E5D311E09981981381
:1030500010E01B2139F00E945E25F401608371832A
:1030600082839383812F2196EDE00C94D92CB701B4
:10307000C601D0D399818913DCCFA701B601C50160
:103080000E94052DEFCFA1E0B0E0E9E4F8E10C9457
:10309000C42C0091F0011091F1010A5F1F4FEE2442
:1030A000E394F12C9E012F5F3F4F49ED52E063E026
:1030B00082E09CDF182F882321F0CE0101960E9428
:1030C0003A21812F2196E6E00C94E02CA4E0B0E0B8
:1030D000ECE6F8E10C94C22C6B010091F001109128
:1030E000F1010F5F1F4F84E0E82EF12C9E012F5F4E
:1030F0003F4F45ED52E061E080E078DF882361F0EA
:1031000049815A816B817C814093D1025093D202D4
:103110006093D3027093D4024091D1025091D202B5
:103120006091D3027091D402F6014083518362838F
:1031300073832496E8E00C94DE2CB0E0A0E0E3EA90
:10314000F8E10C94C02C7C015B016A0185DE01E092
:1031500010E0882311F00AE010E0C1E0D0E0B501F2
:10316000C701F6010995811104C021960C171D07AE
:103170002CF4CDB7DEB7EAE00C94DC2CCC9F9001A8
:10318000CD9F300D300D112490E080E045E34A954D
:10319000F1F70000019682179307C1F7E0CFA1E095
:1031A000B0E0E5EDF8E10C94C62C4ED6082F8983EB
:1031B000E091F001F091F10113856091E1027091CD
:1031C000E2028091E3029091E4020E947925643644
:1031D00071058105910530F4812F90E011E0081709
:1031E0001906C1F010E000E030E020E041E050E0DE
:1031F000BE016F5F7F4F85E071DE182F882351F08D
:103200000E945E256093E1027093E2028093E302E4
:103210009093E402812F2196E4E00C94E22C0F932A
:103220001F93CF93DF93EC018B0146E658E185DFD6
:10323000811106C080E0DF91CF911F910F91089519
:1032400043E458E1B801CE0178DF882399F34AEBD3
:1032500057E1B801CE0171DF882361F34FEC58E1EB
:10326000B801CE016ADFE7CFA1E0B0E0EAE3F9E11F
:103270000C94C22C0091F0011091F101C80101964B
:1032800024E0FB01DC0101900D922A95E1F764E056
:1032900070E0C0D2F8018083CE010196E0D7898129
:1032A000F801868361E070E0CE010196B3D2F801A7
:1032B00085836781708581859285C090CD02D0908D
:1032C000CE02E090CF02F090D0026C157D058E0505
:1032D0009F0549F06093CD027093CE028093CF0298
:1032E0009093D002A7DBF8018385882329F07CD452
:1032F0002196E8E00C94DE2C8DD5FACF0E946E2743
:1033000014D90C94782708950E947C271ED90C9418
:10331000922708950E94EB240E945527F4D8EEDFEF
:10332000F3DFFCD8FDCF8091EB0280FF0DC06091F0
:10333000380170E0660F771F6038710570F5611510
:10334000710569F1862F089581FF07C060913801EA
:1033500084E0689FB0011124EFCF6091380182FDB5
:103360000AC08091EA028823A9F020913701609178
:103370003801821710F088E0ECCF869FC00111243D
:1033800033E0880F991F3A95E1F7622F70E00E94B1
:103390009F2CD2CF68E070E0D5CF8FE7089581E011
:1033A00008958091EB0280FF0CC06091340170E0C1
:1033B00075956795759567956115710549F1862F26
:1033C000089581FF06C06091340170E0759567959E
:1033D000F3CF6091340182FD0BC09091E9029923F3
:1033E000A1F06091330180913401961738F0682F75
:1033F00070E06038710500F38FE70895899FC00180
:10340000112470E00E949F2CF4CF61E070E0D7CFD0
:1034100081E008958D3E29F486DF81958093EF0247
:1034200008958E3E11F47FDFF9CF8F3E29F47BDFC4
:1034300081958093EE020895803F11F474DFF9CFF7
:10344000893F21F4AEDF8093F00208958A3F19F49A
:10345000A8DF8195F8CF8B3F29F4A3DF8195809376
:10346000F10208958C3F11F49CDFF9CF9FE0980F93
:10347000983070F4815F990B21E030E001C0220F99
:103480008A95EAF78091ED02822B8093ED020895F0
:103490008D3F31F48091EB0281608093EB020895BF
:1034A0008E3F21F48091EB028260F7CF8F3FB9F716
:1034B0008091EB028460F1CF4091EE028D3E59F491
:1034C0008091EF0287FF0DC01092EF0241110BC0F7
:1034D0001092EA0208C08E3E81F48091EF02181625
:1034E0009CF3442381F08091F0029091F102892BAA
:1034F00009F05AC01092E90208958F3E49F447FF3F
:10350000F0CF1092EE028091EF028111ECCFE0CF6C
:10351000803F19F41416ACF3E4CF9091F002893F88
:1035200029F41916F4F61092F002DBCF8A3F19F451
:1035300097FFD7CFF8CF9091F1028B3F29F497FFF7
:10354000D0CF1092F102CDCF8C3F19F41916CCF3E5
:10355000C8CF9FE0980F983090F4815F990B21E0DD
:1035600030E0B90102C0660F771F8A95E2F7CB0100
:1035700080959091ED0289238093ED02B2CF8D3F2B
:1035800031F48091EB028E7F8093EB02AACF8E3FC5
:1035900021F48091EB028D7FF7CF8F3F09F0A1CF0F
:1035A0008091EB028B7FF0CF08950E9452259C0101
:1035B0009091EE028091EF02982B21F03093E80277
:1035C0002093E7029091F0028091F102982B21F074
:1035D0003093E6022093E5028CEE92E00C943224C4
:1035E000089586E0ECEEF2E0DF011D928A95E9F79E
:1035F0001092EA021092E9021092EB020895FC0187
:10360000828181110EC0838181110BC0848181115F
:1036100008C091E08581811101C090E0892F8170FF
:10362000089581E0FCCFA6E0B0E0E9E1FBE10C9475
:10363000C72C86E0ECEEF2E0DE01119601900D92CF
:103640008A95E1F71092EE021092EF021092F002CA
:103650001092F1028B819C81892B89F08091E70285
:103660009091E8020E946A25AC019091EA029923A8
:10367000B9F1809139018417150608F43EC08D8197
:103680009E81892B91F08091E5029091E6020E9443
:103690006A25AC019091E902992309F46DC08091EB
:1036A00035018417150608F475C0BE016F5F7F4FA2
:1036B0008CEE92E00E94AD24811104C08CEE92E069
:1036C0009EDF811172DF86E0FE013196ACEEB2E042
:1036D00001900D928A95E1F72696E3E00C94E32C95
:1036E00020913A018AE0289F900111242417350780
:1036F00030F69F5F9093EA0202C09F3FD1F71B8193
:10370000112351F010DE9FEF11160CF491E0899F08
:10371000802D11248093EE021C81112351F003DED1
:103720009FEF11160CF491E0899F802D1124809356
:10373000EF023091EE02332309F4A1CF2091EF0282
:10374000222309F49CCF45EB3403C00111249923B3
:1037500059F09093EE0245EB24039001112433239A
:1037600039F03093EF028BCF81E08093EE02F3CFFC
:1037700081E08093EF0283CF209136018AE0289F79
:10378000900111242417350708F08FCF9F5F909385
:10379000E90202C09F3FD1F71D81112351F001DEE4
:1037A0009FEF11160CF491E0899F802D11248093D6
:1037B000F0021E81112351F0F4DD9FEF11160CF47D
:1037C00091E0899F802D11248093F1023091F002C5
:1037D000332309F46ACF2091F102222309F465CF43
:1037E00045EB3403C0011124992359F09093F00262
:1037F00045EB240390011124332339F03093F10277
:1038000054CF81E08093F002F3CF81E08093F10206
:103810004CCF0895FC01680F791F8FEF91E36E176D
:103820007F0709F408952191822728E030E087FF7F
:1038300006C0880F892721503109C9F7F0CF880FBA
:10384000FACFB0E0A0E0E7E2FCE10C94C22C6C01FE
:103850007B0164E670E088E755D5EC0197FD11C067
:1038600010E000E0F601E00FF11F849164E670E0E3
:10387000AFD5EC01892B29F40F5F1F4F0E151F05E3
:1038800089F715D6CE01CDB7DEB7E8E00C94DE2C73
:103890000895FECF0895EFE8F3E080E094E0DF01C3
:1038A0009C011D9221503040E1F7F0939607E09380
:1038B00095078FEF9FEF90933E0380933D0308950C
:1038C0000E942F08E6DF8093390380FD0DC080E859
:1038D0008093380311D56DE070E08AE797E0B1DF9F
:1038E000892B21F080E0089580E4F2CF80913903A4
:1038F00063E070E081FD23C087E797E0A2DF892BBA
:1039000089F76DE070E087E697E09BDF892B51F740
:103910000E945E25605A75418F4F9F4F60939107BB
:10392000709392078093930790939407B4DF81E09C
:1039300080933C0380933B0310923A03089584E7FD
:1039400097E0DCCF2091380336E0839FC00111243B
:10395000629F800D911D1124811524E0920714F0BF
:1039600090E080E081579C4F909396078093950755
:10397000089520919507309196072958334040913A
:103980003803642F70E0C9010E948B2C481B46301D
:1039900010F4240F311D211584E0380710F030E0B9
:1039A00020E021573C4F30939607209395070895C8
:1039B0001F93CF93DF93162F8A3031F481E06FD0BD
:1039C000DF91CF911F9108958D3011F480E0F7CFF2
:1039D000C0919507D091960796E0FE01A2EFB2E064
:1039E00001900D929A95E1F7803EB0F086E0FE01DD
:1039F00011928A95E9F711111BC0C0919507D091DA
:103A0000960746E050E0BE0182EF92E00E94F82C5B
:103A1000892BE1F4AEDFD4CFF6E08F9FB001112403
:103A20006957784F46E050E0CE010E94EF2CE3CF7B
:103A3000E0919507F09196079F012A5F3F4F2E175F
:103A40003F07D9F2808180958193F9CFCF58D34039
:103A5000CE0126E0969587952A95E1F721E030E0A2
:103A6000A90102C0440F551F8A95E2F7CA0140918F
:103A70003D0350913E03842B952B259646E0D69529
:103A8000C7954A95E1F702C0220F331FCA95E2F7A6
:103A9000822B932B90933E0380933D03BBCFCF9318
:103AA000382FE0919507F0919607EF58F340209159
:103AB0003803622F70E0CF010E948B2C281B822FCD
:103AC000332361F066E00E947F2CC82FC15010F4B0
:103AD000CF91089560E080E26BDFF8CF9F01280F5F
:103AE000311D2115344018F080E0F0E0E0E08E0F49
:103AF0009F2F911D81579C4F909396078093950718
:103B0000E7CFFF920F931F93CF93DF93EC01F62E35
:103B1000FC0101900020E9F78F0101501109C01745
:103B2000D10728F0CDB7DEB7E5E00C94E12C6F2D7E
:103B300089913EDFF4CFE5DF81E0B1CF08951F9397
:103B4000CF93DF93EC01162FFE018491811104C005
:103B5000DF91CF911F910895612F2ADF2196F4CF35
:103B6000EEDF81E09CCF0895CF93DF9320919507FE
:103B7000309196072F583340A901460F571F413007
:103B8000544020F060E074E0621B730B40913D03F1
:103B900050913E03FC01C901620F731FC1E0D0E0E8
:103BA0008617970738F050933E0340933D03DF910B
:103BB000CF9108952491DC01A157BC4F3C9132175D
:103BC00081F02C939C01A6E036952795AA95E1F704
:103BD000DE0102C0AA0FBB1F2A95E2F79D014A2B06
:103BE000532B01963196DCCF80913C03811103C0A9
:103BF00080913B03089562D7605A75418F4F9F4F64
:103C00006093910770939207809393079093940722
:103C100080913B038111ECCF62E070E085E697E094
:103C200010DE892B29F781E080933B03E1CF2F92AF
:103C30003F925F926F927F928F929F92AF92BF92CC
:103C4000CF92DF92EF92FF920F931F93CF93DF9368
:103C500080913C03882369F020913D0330913E031D
:103C60002115310531F080913A0361E070E088233D
:103C700099F0DF91CF911F910F91FF90EF90DF901E
:103C8000CF90BF90AF909F908F907F906F905F90FC
:103C90003F902F9008958F5F082F10E01B01082E92
:103CA00002C0220C331C0A94E2F7A90142215321DD
:103CB000452B89F39091390390FD40C08295880F80
:103CC000880F807480933D01980136952795209345
:103CD0004001815C80933E011092410124E630E076
:103CE00047E050E06BE371E088E79ED3892B09F051
:103CF000C0CFA80126E0440F551F2A95E1F7809117
:103D0000390380FD29C041575C4F04E610E020E4F0
:103D100030E060E488E7A7D3892B09F0AACF64DFFD
:103D2000E101C095D09580913D0390913E03C82359
:103D3000D923D0933E03C0933D039BCF880F880FB8
:103D4000880F80933D0110924001895F80933E016E
:103D500087E080934101C2CFE8EFF2E080E4DF0129
:103D60001D928A95E9F7AAEFB1E002EF11E082E037
:103D7000C82E82E0D82E97E0592E772473948D9127
:103D8000E80129918E01240F352F311D21573C4F19
:103D9000E82FF0E0E850FD4F90E080E0652C681AD5
:103DA000872C082E01C0880C0A94EAF77901A12C0F
:103DB000E701B9907E01B820662D6A196770962ECA
:103DC000062E000C770BDB2D01C0DD0F9A94EAF76D
:103DD0007195619571096770772701C0B6946A95EE
:103DE000EAF7BD2A6081962E9B289082A39468E012
:103DF000A612DECF019631968830910579F6CA1663
:103E0000DB0609F0BCCF04E610E020E430E048EF28
:103E100052E07FCF80913B0390913C03911103C00E
:103E200091E089270895882361F062E070E083E6DD
:103E300097E007DD892B19F080913B0308951092DC
:103E40003B0380913B03ECCF80913B03089581E0DD
:103E500008950F931F9380913C03882349F180912B
:103E60008F079091900736D6C29750F01BD690934B
:103E7000900780938F0760E080E064DD0E94310846
:103E8000D6DE80913B03882399F018D600919107E4
:103E9000109192072091930730919407601B710B4A
:103EA000820B930B6F3F7F4F8F4F9F4708F4B2DF1A
:103EB0001F910F910895B0E0A0E0E1E6FFE10C94BE
:103EC000C32CE82FF0E0E953F34FD490282F269528
:103ED0002695269530E0F901E959F24F0491877053
:103EE00010E0082E02C0159507950A94E2F70170BC
:103EF0001127F901E95AF24FE490F12C082E02C083
:103F0000F594E7940A94E2F791E0E922FF24F9019D
:103F1000E95BF24FC491D0E002C0D595C7958A9570
:103F2000E2F7C170DD270115110519F081EE0E943D
:103F3000A50AE114F10419F086EE0E94A50A8D2D60
:103F40000E94310BE114F10419F086EE0E94EC0A94
:103F50000115110519F081EE0E94EC0ACD2B19F024
:103F60008CE20E94310BCDB7DEB7E7E00C94DF2C7A
:103F7000EF92FF920F931F93CF93DF938C01F62E56
:103F80008AE0E82EF8018491882309F453C0813037
:103F900009F04DC0E8012196FE018491813091F431
:103FA0002196FE0184910E94310B8E010F5F1F4FFD
:103FB0008F2D815038F3EFE9FFE03197F1F700C022
:103FC0000000F7CF823039F4E8012296FE01849197
:103FD0000E94A50AEACF833039F4E8012296FE0157
:103FE00084910E94EC0AE1CF8430F9F6E801229630
:103FF000FE01249190E080E0FE0131962053330BC6
:104000002A30310548F0019780F2EFE9FFE031975F
:10401000F1F700C00000F7CFE89EA001E99E500D27
:104020001124C901840F951F2491EF01E5CF43DFCF
:10403000E801BBCFCDB7DEB7E6E00C94E02C8FE80B
:1040400091E00197F1F700C0000008950C949A08E0
:1040500008950F931F93CF93DF939091020181E016
:10406000982790934303282F291B20934203909174
:104070000201809344039091020180934103809157
:104080000201811106C084EF8093430185EF809384
:10409000420120914301E22FE295EF70F0E061A12F
:1040A0002F7081E090E0AC0101C0440F2A95EAF73F
:1040B000342F3095362331A322A1242B22A3209123
:1040C0004201E22FE295EF70F0E031A12F7001C0C4
:1040D000880F2A95EAF7982F9095932391A392A1A0
:1040E000892B82A3ACDF6091440347E453E0C3E42F
:1040F000D1E002E411E0FA0126C02991822F8295D5
:104100008F7090E0DC0190968C9190E02F7002C04F
:10411000959587952A95E2F78170D8019D918D013B
:10412000292F22952F7030E0D90190962C9130E004
:104130009F7002C0359527959A95E2F790E020FD93
:1041400092E0892B81938E2F841B8617B0F2DF912A
:10415000CF911F910F910895CF92DF92FF920F930D
:104160001F93CF93DF9310E000E082E0C82ED12CA4
:1041700080914403181748F0802FDF91CF911F9151
:104180000F91FF90DF90CF900895C12FD0E0FE01F6
:10419000ED5BFE4F8081E82FE295EF70F0E0E0A14B
:1041A000F0E08F7002C0F595E7958A95E2F7E1702F
:1041B000DE01AE5BBE4F4C91A42FA295AF70B0E074
:1041C00090968C9190E04F7002C0959587954A9596
:1041D000E2F780FD42C080E08E2BDE01A95BBC4F80
:1041E000EC919E2F93709817B1F1EE0FEE0FE82B24
:1041F000EC93F0904303F10EEF70F0E0EE5FFD4FB3
:10420000CB5BDC4F80819881890F888320E08230EE
:104210005CF0EF2DF0E0E15CFC4F80818F5F8083EC
:1042200060E08F2D13DF21E088818F3F5CF4EF2D5C
:10423000F0E0E15CFC4F80818150808361E08F2D54
:1042400005DF21E08881082E000C990BB6010E9441
:104250009F2C8883022B1F5F8BCF82E0BDCF4091C4
:10426000440350E06091430370E0615C7C4F0C9428
:10427000052D0895B0E0A0E0E0E4F1E20C94C22C3A
:104280006C01D0E080E090914103D91740F081119A
:104290000E946912CDB7DEB7E8E00C94DE2CF090F6
:1042A0004203FD0E0F2D10E0015C1C4FF601ED0FD7
:1042B000F11DC081F8019081C91BEC2E1E1444F041
:1042C0009C2FC7FD90E0C91BC1110CC0DF5FDBCF85
:1042D000EA94F80180818F5F808360E08F2DB6DEE5
:1042E00081E0ECCFCF5FF80180818150808361E075
:1042F0008F2DACDE81E0E8CF1092B9008CE0809386
:10430000B8000895B0E0A0E0E8E8F1E20C94BF2C1A
:10431000B82EEB01C7D36C01EE24E394F12CC43129
:10432000D10560F025E0E22EF12CCF3FDC0731F023
:10433000CE0164E170E00E948B2C7B0184EAA82E00
:1043400094E8992E1092BC00A092BC00ABD38C01D3
:104350008091BC0087FF0DC08091B900887F8830B4
:10436000E9F08091B900887F8031C1F00FEF1FEF35
:1043700007C0C801AFD3E816F90650F70EEF1FEFDC
:10438000CF3FDC07F9F2C601A5D3C817D907D0F68D
:10439000C801CDB7DEB7EBE00C94DB2CB092BB00CC
:1043A0009092BC007FD38C018091BC0087FF0AC033
:1043B0008091B900887F883111F08034B9F610E01F
:1043C00000E0E6CFC80186D3E816F90668F7D6CF35
:1043D0000F931F93CF93DF93EB018093BB0084E88F
:1043E0008093BC005FD38C018091BC0087FF11C01B
:1043F0002091B900287F81E090E0283211F490E00C
:1044000080E0919581959109DF91CF911F910F9156
:104410000895CF3FDC0741F3C8015CD3C817D90723
:1044200018F78EEF9FEFF0CFB0E0A0E0EAE1F2E204
:104430000C94C22C6B018A017901B90163DFE6019A
:104440000C0D1D1DC017D10711F097FF08C024E9FE
:104450002093BC00CDB7DEB7E8E00C94DE2CB701AA
:104460008991B6DFEFCFB0E0A0E0E9E3F2E20C948F
:10447000C22CC62F6A017901B80144DF97FD0BC039
:10448000B8018C2FA5DFE601EC0CFD1CCE15DF0575
:1044900011F097FF08C024E92093BC00CDB7DEB728
:1044A000E8E00C94DE2CB801899192DFEFCF84E92B
:1044B0008093BC0008958EE14A9B02C08150E1F7D1
:1044C0004A9BFECF08955A9880E28A95F1F75A9A4E
:1044D0000895FC013BE03A95F1F798E020E080E098
:1044E00031E040E14A95F1F7880F4A9B02C08160B4
:1044F000232742E04A95F1F7000040E14A95F1F7A1
:10450000915079F790E19A95F1F799B132E03A95A7
:10451000F1F7000040E14A95F1F792FB992790F9F5
:1045200092272081920F90830895A1E0B0E0EBE9FB
:10453000F2E20C94C42C19828C017C01E60EF11C71
:104540000E151F0541F481E09981911180E02196BB
:10455000E6E00C94E02CAFDFCE010196BADFF80163
:1045600081938F01EDCF529A5A9A089552985A9A90
:10457000EA9AE9E6F0E080818F7C808308956150BB
:10458000770B91E001C0990F6A95EAF720E031E0DE
:10459000911108C0222391F05A9A80E28A95F1F78E
:1045A0005A980895492F482339F05A9A232740E210
:1045B0004A95F1F79695ECCF5A98F9CF5A98EDCFE6
:1045C000FF920F931F93CF93DF93EC018C01060FA3
:1045D000111DC017D10729F4CDB7DEB7E5E00C9463
:1045E000E12CF99070DF68E08F2DC9DFF2CF1F92C8
:1045F0000F920FB60F9211240F931F932F933F9397
:104600004F935F936F937F938F939F93AF93BF93DA
:10461000EF93FF93CF93DF930F92CDB7DEB719825D
:104620004ADFCE01019655DF082F069506950695BF
:10463000282F22952570902F9570290F922F937017
:1046400026952695920F982797708981982B09F0C7
:1046500058C0073008F055C080E18A95F1F75A9AA2
:10466000529A82E08A95F1F700C05A9888E0089F34
:1046700080011124D801AD5FBE4F1696ED91FC91DB
:1046800017973097A9F06091F0017091F10114969D
:104690002D913C911597260F371F11968D919C9166
:1046A0001297680F791F13964C9113978C91099567
:1046B000F801ED5FFE4F6381662349F02091F00120
:1046C0003091F10184819581820F931F79DFFBDEA8
:1046D00080E18A95F1F75A9852985A9A80E18A9522
:1046E000F1F7F801ED5FFE4F6081662349F02091FC
:1046F000F0013091F10181819281820F931F15DFCA
:10470000DADE0F90DF91CF91FF91EF91BF91AF91E2
:104710009F918F917F916F915F914F913F912F91D9
:104720001F910F910F900FBE0F901F9018950F9330
:104730001F93CF93DF93EC0107970CF049C0F894D7
:10474000529A5A9885E08A95F1F700009C2F969529
:1047500095708C2F8570980F892F837096959695FC
:1047600023E0CC0FDD1F2A95E1F7980F8E01092B6E
:10477000AADE00C068E0802F02DF80E18A95F1F7B1
:1047800052985A9A4A9B1DC087E090E04A991BC0F4
:10479000FE01ED5FFE4F63816623F1F02091F00191
:1047A0003091F10184819581820F931FBEDE8111CA
:1047B00013C0529A5A9A7894DF91CF911F910F911A
:1047C000089500C0DFCF019729F4529A5A9A78943D
:1047D00080E0F2CF00C0DACF6EDE80E28A95F1F79A
:1047E0005A98529A80E18A95F1F7CD5FDE4F688141
:1047F000662349F02091F0013091F10189819A817D
:10480000820F931FDDDE5FDE789481E0D5CF909339
:10481000130280931202089590934F0380934E03E6
:1048200008950E940617811103C0809149030895DD
:10483000E0914E03F0914F03309729F00190F08101
:10484000E02D0995089580E00895EBCF0895E0915B
:104850004E03F0914F03309721F00280F381E02D59
:1048600009950895E0914E03F0914F03309739F088
:1048700022E0DC012C930480F581E02D0995089558
:1048800020914C0330914D032817390771F0909314
:104890004D0380934C03E0914E03F0914F0330970A
:1048A00021F00680F781E02D0995089520914A03B3
:1048B00030914B032817390771F090934B03809385
:1048C0004A03E0914E03F0914F03309721F00084AA
:1048D000F185E02D09950895662349F0FC01329693
:1048E00008962191261729F0E817F907D1F780E0FB
:1048F000089581E008959C01FC0132969FEF80E0CD
:104900004191461751F09F3F19F4411101C0982F72
:104910008F5F8630A9F79F3F09F40895290F311D55
:1049200097FD3A95F90162830895FC013296089645
:104930002191261303C0DF0111971C92E817F90794
:10494000B9F70895D8CF0895F0CF0895029626E0DC
:10495000FC0111922A95E9F7089546E050E00E9483
:10496000F82C21E0892B09F420E0822F0895089586
:10497000FECF0895811105C081E080935003F8CFE8
:10498000089582E0FACF83E080935003F1CF089539
:10499000F1CF089581E080935003EACF0895FACFD4
:1049A000089508950895FECF089508950895F9CFC4
:1049B0000895CF93FADF0E948D16F8DFC0E08C2FA8
:1049C0000E946F15811105C0CF5FC830C1F7CF912C
:1049D000089581E0FCCF85B7806885BF85B7806882
:1049E00085BF08951F921FB61F9211248F939F9326
:1049F000AF93BF9380915103811113C080919707AA
:104A000090919807A0919907B0919A074196A11D9E
:104A1000B11D8093970790939807A0939907B0933F
:104A20009A07BF91AF919F918F911F901FBE1F90CA
:104A3000189580919F07843031F10E948A09109265
:104A4000510388E190E020E40FB6F894A895809394
:104A500060000FBE2093600083B7817F846083BFB6
:104A600083B7816083BF7894889583B78E7F83BF37
:104A70000FB6F894A89580916000886180936000DB
:104A8000109260000FBE08950E942D0D0C949009A5
:104A9000089582E084BD93E095BD9AEF97BD809321
:104AA0006E0008952FB7F89480919707909198071A
:104AB000A0919907B0919A072FBF08952FB7F89446
:104AC00060919707709198078091990790919A0744
:104AD0002FBF08959C014FB7F8948091970790914C
:104AE0009807A0919907B0919A074FBF821B930B2B
:104AF0000895CF92DF92EF92FF922FB7F894C09073
:104B00009707D0909807E0909907F0909A072FBFE9
:104B1000A7019601261B370B480B590BCA01B90197
:104B2000FF90EF90DF90CF90089578941F921FB67A
:104B30001F9211248F939F93AF93BF9380919707F8
:104B400090919807A0919907B0919A070196A11D9D
:104B5000B11D8093970790939807A0939907B093FE
:104B60009A07BF91AF919F918F911F901FBE1F9089
:104B7000189581E08093E00080E28093D800109245
:104B8000C9008FE19EE40197F1F700C0000087E0C3
:104B900090EBDC018093A8079093A907A093AA0744
:104BA000B093AB0788E19CE00FB6F894A89580938A
:104BB00060000FBE90936000FFCF88E19CE00FB6CD
:104BC000F894A895809360000FBE90936000FFCF8B
:104BD00080915D03089508959C0182E08093E9002F
:104BE0009FEF8091E800915085FD06C085ED8A9584
:104BF000F1F700009111F5CF8091E80085FF0BC01F
:104C000050E040E066E070E0C901FDD18091E8002D
:104C10008E778093E8000895CF93DF93EC0181E0D5
:104C20008093E9008FEF9091E800815095FD06C0D8
:104C300095ED9A95F1F700008111F5CF8091E8008C
:104C400085FF13C050E040E068E070E0CE01DBD1AA
:104C50008091E8008E778093E80088E0FE01A5E56A
:104C6000B3E001900D928A95E1F7DF91CF9108951D
:104C700080935203709354036093530380919F0772
:104C80008430F9F482E08093E9008FEF9091E8009E
:104C9000815095FD06C095ED9A95F1F700008111C0
:104CA000F5CF8091E80085FF0CC050E040E063E064
:104CB00070E082E593E0A7D18091E8008E77809341
:104CC000E8000895BC0184E0D3CF0895BC0183E0DF
:104CD000CFCF089580919E07811107C022D379D349
:104CE0008091E20084608093E200089510929E0714
:104CF000089550CE089560919B0781E0611101C035
:104D000080E041CE089590919F0781E0943009F0B2
:104D100080E060919B073CCE089542E061EC81E029
:104D20007CD242E261EC82E078D290919F0781E0F0
:104D3000943009F080E060919B071CCE089580912B
:104D4000A107833009F45FC030F48130C9F18230AB
:104D500009F49AC008958A3009F487C08B3009F4A9
:104D60006DC0893009F04EC08091A007813209F0F2
:104D700049C08091A4079091A507029708F042C00E
:104D80008091E800877F8093E8008091E80082FFAF
:104D900035C09091F3008091F200029731F4809138
:104DA000F100813011F0863021F48091F100809380
:104DB0005D038091E8008B778093E80062D222C087
:104DC0008091A007813AF1F48091E800877F809379
:104DD000E8008091A4079091A507892B59F468E019
:104DE00085E593E070E05CD18091E8008B7780935B
:104DF000E800089560E090E080E0F4CF80919F07A4
:104E00008111C3CF08958091A007813AD9F780918D
:104E1000A4079091A507892BA9F78091E800877FC7
:104E20008093E8008091E80080FFFCCF80915001E2
:104E30008093F1008091E8008E77BECF8091A0072B
:104E4000813201F78091A4079091A507892BD1F6B3
:104E50008091E800877F8093E80013D28091A207B9
:104E6000809350010C942D0D08958091A0078132FC
:104E700049F68091E800877F8093E80002D2809114
:104E8000A30780935E0308958091A007813A09F0FB
:104E9000B9CF8091E800877F8093E8008091E80097
:104EA00080FFFCCF80915E03C3CF84B7877F84BF30
:104EB0000FB6F894A8958091600088618093600097
:104EC000109260000FBE80E890E00FB6F8948093D7
:104ED0006100909361000FBE62CD089522D279D215
:104EE000E2EEF0E08081846080837894DDC40895F0
:104EF00084E491E091CC089580919F07853029F456
:104F000080919F07853011F0BFCD089592DD80918B
:104F10009D078823A9F34DDD882391F35ED00E947D
:104F20002D0DEECF089501C00895292F332723308A
:104F3000310519F168F42130310509F444C02230FB
:104F4000310509F445C090E080E030E020E025C064
:104F50002132310549F122323105A9F780E490E090
:104F60002DE53EE061157105C1F08BE790E022EE82
:104F70003DE06130710589F0E6CF992781309105D8
:104F800081F0009729F00297F1F6E7E7FDE002C013
:104F9000E1E9FDE0849190E09F01FA0131832083F3
:104FA0000895E3E8FDE0F6CF89E090E027EA3DE0F0
:104FB0006115710591F389E090E020EC3DE06130EE
:104FC000710559F3C0CF82E190E020ED3DE0E5CFDF
:104FD0008BE390E025E93DE0E0CF80E189BD82E10F
:104FE00089BD09B400FEFDCF8091D8008F7D8093EC
:104FF000D8008091E00082608093E0008091E00022
:1050000081FDFCCF0895AF92BF92CF92DF92FF92C5
:105010000F931F93CF93DF936C01EB018A0150D163
:10502000F82E811123C00115110539F0F801808196
:105030009181C81BD90BC80ED91EB12CA12C209769
:10504000A9F08091E80085FD21C08091E8008E776D
:105050008093E80001151105A1F0F801808191818C
:10506000A80EB91EB182A08285E0F82E8F2DDF91A7
:10507000CF911F910F91FF90DF90CF90BF90AF9095
:1050800008951ED18823D9F2F82EF0CFF601819130
:105090006F018093F1002197FFEFAF1ABF0ACFCFC6
:1050A000FC018091A6079091A70786179707A0F0AB
:1050B0006115710529F49091E8009E779093E800BE
:1050C00090E06115710551F4911108C08091E800DC
:1050D00082FF34C080E00895BC01F2CF80919F0729
:1050E0008823C1F18530C1F18091E80083FD30C093
:1050F0008091E80082FDEACF8091E80080FFE1CF57
:105100008091F3002091F200382F6115710519F09C
:105110002830310558F091E02830310509F090E051
:105120002091E8002E772093E800CBCF81918093E7
:10513000F100615071092F5F3F4FE7CF80919F07CA
:10514000882341F0853041F08091E80083FFBECF95
:1051500081E0089582E0089583E00895FC01809144
:10516000A6079091A70786179707A0F0611571050C
:1051700029F48091E8008E778093E80090E0611533
:10518000710551F4911108C08091E80082FF35C08B
:1051900080E00895BC01F2CF80919F078823C9F178
:1051A0008530C9F18091E80083FD31C08091E8002D
:1051B00082FDEACF8091E80080FFE1CF8091F3008B
:1051C0002091F200382F6115710519F02830310552
:1051D00058F091E02830310509F090E08091E80026
:1051E0008E778093E800CBCF84918093F100319645
:1051F000615071092F5F3F4FE6CF80919F07882351
:1052000041F0853041F08091E80083FFBDCF81E01F
:10521000089582E0089583E00895982F973028F04C
:105220008F708093E90081E008959093E900242F26
:10523000762F50E0981731F07091EC002091ED003E
:105240005091F00021FD02C09F5FE8CF3091EB004C
:105250003E7F3093EB003091ED003D7F3093ED00C9
:105260003091EB0031603093EB007093EC002093B1
:10527000ED005093F0002091EE0027FDE5CF80E097
:1052800008958091A00787FF13C08091E80082FFF6
:1052900006C08091E8008B778093E80004C080917D
:1052A0009F078111F2CF089580919F078823D9F33A
:1052B0008091E80080FFF8CF8091E8008E77ECCFF6
:1052C0002091E4003091E50095E6A9012091EC00E1
:1052D000822F817020FF06C08091E80080FF06C009
:1052E00080E008952091E80022FD1AC080919F0778
:1052F000882389F0853089F08091EB0085FD0FC00F
:105300002091E4003091E50042175307F9F29150E3
:10531000E1F684E0089582E0089583E0089581E055
:10532000089568D06FD0E0EEF0E0808181608083E6
:10533000E8EDF0E080818F77808319BCA7EDB0E0C5
:105340008C918E7F8C9380818F7E808310929E07BC
:1053500008950F931F93CF93DF934CD053D0C8ED94
:10536000D0E088818F77888388818068888388816E
:105370008F7D888319BC10929F0710929B07109213
:105380009D0710929C0700EE10E0F80180818B7F52
:10539000808388818160888342E060E080E03DDF37
:1053A000E1EEF0E080818E7F8083E2EEF0E08081AC
:1053B00081608083808188608083F80180818E7F16
:1053C0008083888180618883DF91CF911F910F91C5
:1053D0000895E8EDF0E080818F7E8083E7EDF0E0D6
:1053E00080818160808384E082BF81E080939E071A
:1053F000B0CF0895E8EDF0E080818E7F8083109239
:10540000E20008951092DA001092E10008951F92D0
:105410000F920FB60F9211242F933F934F935F93E8
:105420006F937F938F939F93AF93BF93EF93FF936C
:105430008091E10082FF0AC08091E20082FF06C0F5
:105440008091E1008B7F8093E1002DD28091DA0082
:1054500080FF18C08091D80080FF14C08091DA00CE
:105460008E7F8093DA008091D90080FF91C080E127
:1054700089BD82E189BD09B400FEFDCF81E0809342
:105480009F0728DC8091E10080FF18C08091E20036
:1054900080FF14C08091E2008E7F8093E2008091B3
:1054A000E20080618093E2008091D8008062809366
:1054B000D80019BC85E080939F071DDC8091E10036
:1054C00084FF2AC08091E20084FF26C080E189BD6C
:1054D00082E189BD89B5982F917080FFFBCF8091C3
:1054E000D8008F7D8093D8008091E1008F7E8093DB
:1054F000E1008091E2008F7E8093E2008091E200E3
:1055000081608093E20080919B07882309F445C065
:1055100084E080939F07F7DB8091E10083FF27C041
:105520008091E20083FF23C08091E100877F809318
:10553000E10082E080939F0710929B078091E10039
:105540008E7F8093E1008091E2008E7F8093E20065
:105550008091E20080618093E20042E060E080E0C0
:105560005CDE8091F00088608093F000C2DBFF91E8
:10557000EF91BF91AF919F918F917F916F915F91CB
:105580004F913F912F910F900FBE0F901F90189544
:1055900019BC10929F07AADB75CF8091E30087FDAD
:1055A00093E090939F07B7CF1F920F920FB60F9281
:1055B00011242F933F934F935F936F937F938F9318
:1055C0009F93AF93BF93CF93DF93EF93FF93D091CC
:1055D000E900DF708091EC00C82FC17080FDC0E849
:1055E0001092E9008091F000877F8093F00078941A
:1055F0001ED01092E9008091F00088608093F00046
:10560000CD2BCF70C093E900FF91EF91DF91CF9147
:10561000BF91AF919F918F917F916F915F914F91CA
:105620003F912F910F900FBE0F901F901895AAE2F7
:10563000B0E0ECE1FBE2ABC180EA97E02091F10041
:10564000FC012193CF01F7E0883A9F07B9F777DB98
:105650008091E80083FF16C18091A0079091A10777
:105660009A3008F00FC1E92FF0E0EB59F24D7AC102
:10567000803899F0823809F005C18091A4078F70B5
:10568000873008F0FFC08093E9008091EB0085FB34
:10569000882780F91092E90006C080919C079091BC
:1056A0009D07911182609091E800977F9093E800A8
:1056B0008093F1001092F1008091E8008E77DFC0B6
:1056C000882309F4CDC0823009F0DCC08091A207A4
:1056D0008111D0C08091A4078F702FEF280F263042
:1056E00008F0D0C08093E9002091EB0020FFC2C0F9
:1056F000933031F48091EB0080628093EB00BAC06C
:105700009091EB0090619093EB0021E030E001C0BC
:10571000220F8A95EAF72093EA001092EA0080911E
:10572000EB008860EACF8111ADC01091A2071F770E
:105730008091E3008078812B8093E3008091E800E2
:10574000877F8093E8009DDD8091E80080FFFCCF9B
:105750008091E30080688093E30082E0111183E090
:1057600080939F078FC08058823008F08BC0809153
:10577000A2079091A3078C3D23E0920799F583E05F
:105780008A838AE289834FB7F894DE01139620E07A
:105790003EE051E2E32FF0E050935700E49120FF08
:1057A00003C0E295EF703F5FEF708E2F90E0EA301C
:1057B000B8F0C7968D939D932F5F243159F74FBF53
:1057C0008091E800877F8093E8006AE270E0CE0174
:1057D000019666DC8091E8008B778093E80052C0E8
:1057E000C096E8CF6091A4077091A507AE014F5F06
:1057F0005F4F99DBBC01892B09F444C09091E8000C
:10580000977F9093E80089819A81A8DCE3CF803864
:10581000C9F58091E800877F8093E80080919B071D
:105820008093F10049CF81112DC09091A207923051
:1058300048F58091E800877F8093E80090939B076C
:1058400020DD80919B07882311F084E005C08091C2
:10585000E30087FDFACF81E080939F075EDA12C0F4
:105860008091A207813071F481E0933009F080E0EB
:1058700080939D071092E9008091E800877F8093D4
:10588000E800FFDC8091E80083FF0AC08091E80017
:10589000877F8093E8008091EB0080628093EB002B
:1058A000AA96E3E090C00895CF9380919F07882344
:1058B00099F0C091E900CF709091EC00892F817030
:1058C00090FD80E8C82B1092E9008091E80083FDEC
:1058D000AEDECF70C093E900CF91089522DD109223
:1058E0009F070895E8EDF0E08081806180838AE180
:1058F0008A95F1F700C08091D90081700895991BB5
:1059000079E004C0991F961708F0961B881F7A95B6
:10591000C9F780950895AA1BBB1B51E107C0AA1FB8
:10592000BB1FA617B70710F0A61BB70B881F991F40
:105930005A95A9F780959095BC01CD01089597FBE4
:10594000072E16F4009406D077FD08D0E4DF07FC9C
:1059500005D03EF4909581959F4F0895709561957F
:105960007F4F0895EE0FFF1F0590F491E02D0994ED
:105970002F923F924F925F926F927F928F929F925F
:10598000AF92BF92CF92DF92EF92FF920F931F934D
:10599000CF93DF93CDB7DEB7CA1BDB0B0FB6F894FE
:1059A000DEBF0FBECDBF09942A88398848885F843E
:1059B0006E847D848C849B84AA84B984C884DF80AF
:1059C000EE80FD800C811B81AA81B981CE0FD11D93
:1059D0000FB6F894DEBF0FBECDBFED010895FB01F9
:1059E000DC0102C005900D9241505040D8F7089557
:1059F000FB01DC0104C08D910190801921F441501C
:105A00005040C8F7881B990B0895FB01DC0102C0C8
:105A100001900D9241505040D8F70895FB01DC01F0
:105A200001900D920020E1F70895F999FECF92BD03
:105A300081BDF89A992780B50895A8E1B0E042E0C9
:105A400050E020C0262FF999FECF92BD81BDF89A73
:105A5000019700B4021639F01FBA20BD0FB6F894B2
:105A6000FA9AF99A0FBE08950396272FECDFEADF22
:105A7000252FE9DF242FE7CF0196272FE4DFE2CFA0
:105A8000DC01CB01FC01F999FECF06C0F2BDE1BDFE
:105A9000F89A319600B40D9241505040B8F70895ED
:105AA000F894FFCF72086D0876087F0887085708BA
:105AB0008E085D0B5D0B930B930BBB0BD50B9A0CF8
:105AC000830BE00B4D0C5A0C5A0C382B602B422CDC
:0E5AD000602B422C932BB32B422C072C132C53
