:100000000C9427010C94C2190C9444010C944401E3
:100010000C9444010C9444010C9444010C9444014C
:100020000C9444010C9444010C940A210C94DE219C
:100030000C94E51B0C9444010C9444010C94440171
:100040000C9444010C9444010C9444010C9444011C
:100050000C9444010C94881C0C9444010C944401AD
:100060000C9444010C9444010C9444010C944401FC
:100070000C9444010C9444010C9444010C944401EC
:100080000C9444010C9444010C9444010C944401DC
:100090000C9444010C9444010C9444010C944401CC
:1000A0000C9444010C9444010C9444010400050098
:1000B000060007000800090004000500060007000C
:1000C00008000900040005000600070008000900F8
:1000D0000400050006000700080009000F000E00DC
:1000E0000D000C000B000A000F000E000D000C00AC
:1000F0000B000A000F000E000D000C000B000A00A0
:100100000F000E000D000C000B000A001C034C0039
:100110006500740073002000530070006C006900DB
:1001200074002000760032000000160357006F00B4
:100130006F0074007000610074006F006F00740045
:1001400000000403090409023B00020100A0FA09AF
:1001500004000001030101000921110100012240F6
:1001600000070581030800010904010001030000E4
:1001700000092111010001227B00070582032000F4
:10018000011201000200000008776F020002000166
:1001900002000105010902A10185020901A1000572
:1001A0000919012908150025019508750181020525
:1001B00001093009311581257F95027508810609ED
:1001C000381581257F950175088106050C0A3802CE
:1001D0001581257F950175088106C0C0050109803C
:1001E000A101850319012AB700150126B700950161
:1001F00075108100C0050C0901A101850419012AAF
:10020000A002150126A002950175108100C005010C
:100210000906A101050719E029E715002501950840
:10022000750181029501750881010507190029FFF3
:10023000150026FF0095067508810005081901299B
:1002400005950575019102950175039101C0112471
:100250001FBECFEFDAE0DEBFCDBF11E0A0E0B1E01E
:10026000E8EDF8E402C005900D92AE39B107D9F778
:1002700022E0AEE9B1E001C01D92A639B207E1F774
:100280000E94E1120C9454240C94000081E0089523
:1002900081E008950E944801089508950E944D014B
:1002A0000895A5E0B0E0E7E5F1E00C94C0234983B0
:1002B0005A833091A50189819A81311119C0662331
:1002C00099F0222389F00E944907182F682F89810D
:1002D0009A810E94250769817A81812F0E94BD0D34
:1002E0002596E3E00C94DC230E943707182FF3CF08
:1002F0000E94490769817A81F1CFFC01262F408154
:1003000051816281738184810E945101089581E04D
:100310000895CF93DF93EC0160E00E947D01BE0160
:100320000E944E01DF91CF9108950E94240F0895FD
:100330000E94280F089508950E94F0050E949B01D5
:100340002FEF84E39CE0215080409040E1F700C013
:10035000000008950E949C010E94AC1C08950E9418
:100360009C010E94BD1C08950F931F93CF93DF93B0
:100370008C0161E00E947D01EC01B8010E944A01FC
:10038000811106C080E0DF91CF911F910F910895F8
:10039000B801CE010E94D2188823A1F3B801CE0182
:1003A0000E948A15882371F3B801CE010E94441877
:1003B000882341F3F8018281882361F0CB35FDE584
:1003C000DF0701F158F4C115ECE5DE0791F0CF3DF0
:1003D000DC4591F0C8010E944601D5CFCD358DE5B1
:1003E000D80769F090F0C83ADD45A1F70E94AF0147
:1003F000C9CF0E94AA01C6CF0E94FC0BF7CF0E9472
:10040000410BE8CF0E944B0BE5CF0E944F0BE2CF90
:100410000E94C21B0E94250208950E9429020E9488
:10042000C71B089508950E941202089581E008955F
:100430000E94160208950895CF93C82F0E941302B8
:100440008C2F0E941802CF91089580E00E941C0218
:1004500008950E94E81A0E941C020895CF930E94FA
:10046000E81AC82F8091A0018C1779F0C093A001E1
:100470000E94511C6093A1017093A2018093A3017B
:100480009093A4018C2F0E941C02CF910895ABE0A1
:10049000B0E0EDE4F2E00C94C1234F835887698704
:1004A0007A878B8761110E948C0A1E821D8285E0EB
:1004B000FE013796DE01119601900D928A95E1F7C3
:1004C0008C819D81892B61F449815A816B817C816A
:1004D0008D819E810E94B5092B96E2E00C94DD236C
:1004E00089819A8189238F3F79F3CE0101960E94F9
:1004F00087018111E9CFF0CFFC01808191810E94B9
:100500007B070895CF93C82F8823C9F08238C9F498
:100510000E94E81A81FD13C089E30E94440A0E94E8
:10052000AD0A2FEF87EE93E0215080409040E1F735
:1005300000C0000089E30E944C0A0E94AD0ACF91DE
:1005400008958338A1F40E94E81A80FDF8CF83E56E
:100550000E94440A0E94AD0A2FEF81EE94E02150E0
:1005600080409040E1F700C0000083E5E4CF84388C
:10057000A1F40E94E81A82FDE2CF87E40E94440AB7
:100580000E94AD0A2FEF81EE94E021508040904010
:10059000E1F700C0000087E4CECF8CEF8C0F813AEA
:1005A000B8F48C2F0E9489178111C9CF6C2F8091CC
:1005B0000001909101010E94531B882329F08C2F88
:1005C0000E944C0A0E94AD0A8C2F0E94440AB5CFAB
:1005D00080E28C0F883048F4C77081E001C0880F3A
:1005E000CA95EAF70E946F0AA8CFEBE5EC0FE3305B
:1005F00040F4F0E0E25AFE4F808190E00E94151B2B
:100600009ECFE8E5EC0FE73150F4F0E0EE0FFF1F6E
:10061000E05DFE4F808191810E942B1B90CFCD3EEB
:1006200008F48DCF8C2F0E9465130E94381487CF59
:10063000882309F455C0823879F40E94E81A81FFB2
:100640004FC089E30E94440A0E94AD0A89E30E94D8
:100650004C0A0E94AD0A0895833859F40E94E81AA2
:1006600080FF3EC083E50E94440A0E94AD0A83E5F4
:10067000EECF843859F40E94E81A82FF31C087E433
:100680000E94440A0E94AD0A87E4E1CF9CEF980FD4
:10069000913AE8F290E2980F983050F4877091E028
:1006A00001C0990F8A95EAF7892F0E94750AD1CF68
:1006B0009BE5980F933028F490E080E00E94151B92
:1006C000089598E5980F973128F490E080E00E9413
:1006D0002B1B08958D3E20F00E94BF130E943814FA
:1006E00008951F93CF93DF93182FEB010E9482028E
:1006F000209739F4812F0E941803DF91CF911F9129
:1007000008958FE99FE00197F1F700C0000021975D
:10071000EFCF70E060E0893311F460E570E00E9493
:1007200071030895882321F00E946F0A0E94AD0A88
:100730000895882321F00E94750A0E94AD0A089549
:10074000B0E0A0E0E6EAF3E00C94BA236C01D62F07
:10075000C72FFC011281F580F2949FE0F9220E94DC
:10076000650AE82E8823B9F0E12E1123A1F08C2F21
:10077000807F803421F080E28D0F8830D0F080912E
:10078000720282FF16C082E00E94100B0E94650A6E
:1007900091E0E82EE926BC2EB2948FE0B822FBE06F
:1007A000FB1508F468C0EB2DF0E0EA5AFB4D0C9401
:1007B000AB23E12CF0CF0C2F0F70C07F11F002950E
:1007C000007F112399F0002359F080E28D0F8830CB
:1007D00010F0D11107C0802F0E946F0A0E94AD0A4D
:1007E0008D2F41C0802F0E947F0AF8CF8D2F0E944D
:1007F0001803002309F43FC080E28D0F883010F009
:10080000D11104C0802F0E94750A03C0802F0E945E
:10081000850A0E94AD0A2FC00C2F0F70C07FC03216
:1008200011F00295007FDD2381F0D13009F463C01F
:10083000112309F46DC0FF2009F463C0F60185811E
:1008400080FFCECF8F7085835CC08091720282FD65
:1008500033C0112359F0002329F0802F0E946F0A22
:100860000E94AD0A80E00E94820205C080E00E94E2
:1008700018030111C7CFEB2DE850FF0B349720F47C
:100880000E94E81A0E941C02EE2089F00E94610A70
:1008900080FD0DC0F60112820E945B0A0E94830651
:1008A000C6010E94B0050E945B0A0E949306CDB764
:1008B000DEB7E9E00C94D623112389F0F11006C0CD
:1008C0000E948F0A802B0E949203D5CF21E0F21262
:1008D000F7CF0E948F0A802B0E94960ACCCFF1108E
:1008E00006C00E94A30A802F0E949903C4CF31E062
:1008F000F31609F2F6CF112331F085E08F1508F4D5
:10090000BACF802FE0CF94E09F1508F4B4CFEBCF9F
:10091000FF2049F3D93349F4FFEF27EE33E0F150DC
:1009200020403040E1F700C000008D2F0E941803E6
:10093000A2CF8C2F86958695837069F0813009F05F
:100940009ACF8D2F9C2F9370111102C090E080E000
:100950000E942B1B90CF8D2F9C2F9370111102C0E2
:1009600090E080E00E94151B86CF8D2F112329F087
:100970000E9465130E9438147ECF0E94BF13FACFE5
:100980008C2F8370A1F5111176CF4D2F429546958E
:100990004770440F440F2D2F2F7030E0042E02C0FB
:1009A000220F331F0A94E2F790E080E0D4FF09C0E1
:1009B0008FE090E002C0880F991F4A95E2F780957A
:1009C0009095C695C695C370822B932BC23049F083
:1009D00058F4C13019F00E9451064DCF0E944806CC
:1009E0004ACF0E945A0647CF0E94450644CF8695BB
:1009F000112311F08C2F8170882309F43CCF4D2FE7
:100A0000429546954770440F440F2D2F2F7030E0CC
:100A1000042E02C0220F331F0A94E2F790E080E018
:100A2000D4FF09C08FE090E002C0880F991F4A955B
:100A3000E2F780959095C695C695C370822B932B4F
:100A4000C23049F058F4C13019F00E94BE0613CFED
:100A50000E94B50610CF0E94C7060DCF0E946906FE
:100A60000ACFCF70112329F08C2F0E9483068D2F7F
:100A70002ACF8D2F0E9499038C2F0E949306FBCEC4
:100A8000D23F51F160F4D03FB9F0D13F81F0112352
:100A900009F449C0F110A4CE8C2F8F7121C0D33F2F
:100AA00011F1D43FA1F78091720282FD26C08C2FF4
:100AB0008F71112311F314C0112349F084E08F15B5
:100AC00008F4D9CE8C2F8F710E94A506D4CE95E064
:100AD0009F1508F4D0CEF6CF8C2F8F711111CDCF8A
:100AE0000E948306C8CE112329F08C2F8F710E949B
:100AF0007706C1CE0E947206BECE112349F0CF7197
:100B00008C2F0E94830663E08C2F0E94F20AB3CEE2
:100B100081E00E94100BE1E0EF1508F0ACCE82E01E
:100B20000E94100BA8CEF110F5CE8C2F8F71A5CF9F
:100B30000F931F93CF93DF93EC01688179818A81B2
:100B40000E9486078C010E94D0060E944406B801CC
:100B5000CE010E94A003DF91CF911F910F910895C4
:100B6000CF93DF93EC018B819C81892B29F08881C5
:100B7000998189238F3F51F4DF91CF910895CE0160
:100B80000E949805CE010E948901F6CFCE010E94F5
:100B9000B4018111F4CF0E94650A882369F38A8128
:100BA000882351F38091720282FFE6CF82E00E9497
:100BB000100BE2CF90E080E00E94151B90E080E0F7
:100BC0000E942B1B0E948C0A0E94AD0A0E945414A2
:100BD0000E94381408950E94540A0E94DA0508956C
:100BE0000E947C0A0E94EB05089592959F709630B2
:100BF00091F058F4925F9F70923058F4803F19F052
:100C000030F4883E30F481E008959A5FF4CF843F59
:100C1000D1F380E00895883EB0F3813FD1F7F3CF60
:100C2000FC0183819481892B29F080819181892322
:100C30008F3F11F480E00895808191810E947B07AD
:100C40000E94F5050895A5E0B0E0E9E2F6E00C9415
:100C5000C1232596E2E00C94DD23A6E0B0E0E3E3B7
:100C6000F6E00C94C1232696E2E00C94DD2308956F
:100C70000E94370608950E9438069093C101809320
:100C8000C0010E94DA05089508950E943B06089568
:100C90002091C0013091C101822B932B0E943B0611
:100CA00008952091C0013091C101822393230E94B5
:100CB0003B0608952091C0013091C10182279327FE
:100CC0000E943B0608950E94370608950E9463061D
:100CD00008950E9466069093BF018093BE010E9412
:100CE000DA05089590E080E00E946906089521E009
:100CF00030E0A90102C0440F551F8A95E2F7CA01EE
:100D00000E946906089521E030E002C0220F331FDF
:100D10008A95E2F78091BE019091BF01822B932BBF
:100D20000E946906089521E030E002C0220F331FBF
:100D30008A95E2F7209530958091BE019091BF0190
:100D4000822393230E946906089521E030E002C0C7
:100D5000220F331F8A95E2F78091BE019091BF0167
:100D6000822793270E94690608952091BE01309141
:100D7000BF01822B932B0E94690608952091BE012A
:100D80003091BF01822393230E9469060895209128
:100D9000BE013091BF01822793270E946906089502
:100DA0000895262F277091E001C0990F2A95EAF740
:100DB00023E0769567952A95E1F7660F771F660F12
:100DC000771FFA01E60FF71F50E040E0682F70E050
:100DD0008191DF0111979B01042E02C03695279562
:100DE0000A94E2F7217021952827292328272C939C
:100DF0004F5F5F4F4430510559F70895A82FA770F2
:100E000023E0969587952A95E1F7880F991F880F1B
:100E1000991FFB01E80FF91F50E040E080E02191AD
:100E200030E00A2E02C0369527950A94E2F7217029
:100E30003327042E01C0220F0A94EAF7822B4F5F5A
:100E40005F4F4430510559F70895262F983070F4BC
:100E5000863060F4682F70E086E0989F600D711D09
:100E6000112446EA51E0822F0E94D1060895292FCD
:100E7000983068F4863058F490E066EA71E036E025
:100E8000239F800D911D11240E94FE06089580E08D
:100E90000895B0E0A0E0EFE4F7E00C94BA237C0101
:100EA0000091BE011091BF018091C0019091C101DC
:100EB000082B192BCFE0D0E0CC24C394D12CBC2E2E
:100EC000C6010C2E02C0880F991F0A94E2F78023F6
:100ED0009123892B49F4219790F7B12C8B2DCDB715
:100EE000DEB7E9E00C94D623B7018C2F0E94D80D11
:100EF000019789F3F3CFCF93DF93EC010E94490769
:100F0000BE010E94D80DDF91CF9108951F93CF931A
:100F1000DF93EB019091A501992339F0CB010E9459
:100F20007B07DF91CF911F910895882369F0CB0152
:100F30000E944907182F682FCE010E942507BE0185
:100F4000812F0E94D80DEDCFCB010E943707182FBB
:100F5000F6CF1F93CF93DF93C091C20116E080912B
:100F6000C3018C1304C0DF91CF911F910895D0E08D
:100F70001C9FF0011D9FF00D1124EC53FE4F40818A
:100F8000518162817381848195810E942D06219611
:100F9000C770E5CF4091F4015091F5016091F601E1
:100FA0007091F7018091F8019091F9010E942D064E
:100FB00008951F93CF93DF938091F901807F09F00B
:100FC00049C08091F601882309F444C08091C20190
:100FD000C091C3016091F4017091F501A091F701F6
:100FE000B091F801D62FD72316E0C81799F190E0F9
:100FF000109711F0DF3F19F401968770F6CF189F14
:101000009001199F300D1124F901EC53FE4F4181DD
:101010004713F2CF40814613EFCF42814111ECCF0D
:10102000438154814A1B5B0B483C510528F7809152
:10103000F9018F7080618093F901F901E753FE4F48
:1010400080818F708061808384EF91E00E94B00581
:101050000E94A907DF91CF911F910895A1E1B0E00F
:10106000E4E3F8E00C94B9238C0185E0F801DE019B
:101070001D9601900D928A95E1F7F801E28084EFC8
:10108000C82E81E0D82E6091F7017091F8016115AA
:10109000710509F44EC19091F4012091F501892F59
:1010A00082238F3F09F445C140815181A380B480E0
:1010B000F090F601F501E61BF70BFF2009F4EAC0FA
:1010C0008091F901382F307FE83CF10508F0A3C08A
:1010D00031116DC0FE2C251316C0941314C0E110FD
:1010E00012C08F7080618093F9010E94CA07C60107
:1010F0000E94B0058091F901F80185838F2D6196DA
:10110000EAE00C94D523A114B10429F0842F85239F
:101110008F3F09F027C180E0F82FF170DF2E80FFAC
:101120003CC08091C2012091C30136E0821315C0FA
:101130004D875E878D859E850E947B07292F22958E
:101140002F702230F0F0243018F59F70F1F0F80184
:101150009581907FD1F4D12C1EC090E0389FF00192
:10116000399FF00D1124EC53FE4F6181651306C0C9
:101170006081641303C06281E6120FC0019687701C
:10118000D5CF9F7011F0882331F3805E883018F33B
:10119000C8010E94B005FD2CB1CFEE2009F4AECFFE
:1011A0008091F90181608093F901F12CA7CF25137B
:1011B00006C0941304C0F801EE2009F487C0C801EA
:1011C0000E941006882319F1EE2009F18091F9019F
:1011D000803270F02091F4013091F50138872F832F
:1011E0001986BB86AA868C87CE0107960E94B00519
:1011F00086E0F801A4EFB1E001900D928A95E1F745
:101200000E94D9070E94CA07FF24F39477CFC80130
:101210000E94B005F9CF311113C07A2DB98AA88A7E
:101220006E2D89890E94230684EF91E00E94B0050B
:1012300086E0F60111928A95E9F70E94CA07B5CFB8
:1012400025130FC094130DC0E1100BC0F801858366
:10125000C8010E94B00586E0F60111928A95E9F76F
:101260004DCFC8010E941006882389F2EE2079F242
:101270008091F901803208F4BBCF2091F4013091C4
:10128000F5013A8329831B82BD82AC828E83CE0115
:101290000196ACCFE83CF10508F03EC0FE2CEE20F4
:1012A00009F4B5CF25132AC0941328C08091F90101
:1012B00080FD1BC0982F907FC1F0F8018583903F7F
:1012C00031F0982F907F905F8F70892B8583C801B4
:1012D0000E94B00586E0F801A4EFB1E001900D9204
:1012E0008A95E1F70E94CA0709CF86E0F801A4EFCA
:1012F000B1E001900D928A95E1F700CFC8010E94FC
:101300001006811175CF8091F90181608093F901F8
:10131000C8010E94B005F2CE7A2DB98AA88A6E2D36
:1013200089890E94230686E0F60111928A95E9F7E1
:10133000D9CFEE2009F46BCFC8010E941006F82E19
:10134000882309F464CF86E0F801A4EFB1E00190AE
:101350000D928A95E1F784EF91E00E947C020E9451
:10136000D907C0CF81E08E25D7CEACE0B0E0EBEB63
:10137000F9E00C94C0234F83588769877A878B875D
:101380009C87CE0107960E942E08882369F08A85E3
:101390009B85892B39F04F815885842F85238F3F7A
:1013A00009F06BC016E05FC086E0FE013796DE01F3
:1013B000119601900D928A95E1F78A859B85892B7C
:1013C00089F38F81988589238F3F61F32091C30131
:1013D00030E0C9010196877099274091C2014817F2
:1013E000190671F40E94F0051092C3011092C20117
:1013F00086E0E4EFF1E0DF011D928A95E9F7D2CFB4
:1014000096E0929FD001939FB00D1124AC53BE4F34
:10141000FE01319601900D929A95E1F78093C301F8
:101420000E94A907BFCF819FC00111248C539E4FFA
:101430000E942E088823E9F0E091C2011E9FF0016E
:101440001124EC53FE4F408151816281738184816C
:1014500095810E942D068091C20190E001968770CF
:1014600099278093C2018091C2019091C301891391
:10147000DACF2C96E3E00C94DC2369857A858B85A2
:101480009C850E942D068ECF682F8091000190913F
:1014900001010E94891B0895682F8091000190919D
:1014A00001010E948C1B089580910001909101011F
:1014B0000E948F1B089580910202859585958595E0
:1014C00008958091020287700895909102029770AA
:1014D00081E009F480E0089580910D0208959091D3
:1014E0000D02892B80930D020895809590910D0235
:1014F000982390930D02089510920D0208959091F3
:101500000C02892B80930C020895809590910C0217
:10151000982390930C02089510920C0208958091E4
:101520000302089508950E94920A0895909172020C
:1015300092FF08C090910302981721F08093030254
:101540000E94930A089580910302882329F0109243
:10155000030280E00E94930A0895CF93DF93E09105
:101560000001F091010180910D028083E091000162
:10157000F0910101808190910C02892B80839091E0
:101580000302992381F0E0910001F0910101808133
:10159000892B808380910001909101010E94411B61
:1015A00081110E94A30AC0910001D091010148E07D
:1015B00050E06AEF71E0CE010E94FC23892B59F0C4
:1015C00088E0FE01AAEFB1E001900D928A95E1F763
:1015D000CE010E94FC1ADF91CF91089508950E94D8
:1015E000EE0A08959091720292FF11C098E0899FCF
:1015F00090011124622B609302020E948306809165
:1016000002028595859585950E94EF0A08950E94AE
:10161000830608951092020280E00E94EF0A089566
:10162000909102028095892380930202282F2770CF
:1016300091F4282F082E000C330B9217130659F043
:101640009091720292FF07C08595859585950E94BD
:1016500093060E940A0B08959091720292FB222732
:1016600020F9281769F080FB92F99093720280911B
:101670007102909172020E94760B82E00E94100B20
:1016800008958091720282FB882780F991E0892772
:101690000E942C0B089581E00E942C0B089580E09D
:1016A0000E942C0B089590E080E00E941A2421E013
:1016B000883E9E4F09F020E0822F089582E090E05E
:1016C0000E941224089583E090E00E94122408955D
:1016D000CF9384E090E00E941224C82F82E290E031
:1016E0000E941224982F8C2FCF910895CF93C92F49
:1016F000682F84E090E00E9420246C2F82E290E02A
:101700000E942024CF910895AB01BC018FE090E0AE
:101710000E9432240895AB01BC0183E190E00E9455
:101720003224089560E070E0CB010E948B0B089595
:1017300060E070E0CB010E94840B0E94920B089540
:1017400068EE7EEF90E080E00E943E2460E082E060
:1017500090E00E94202460E083E090E00E9420243A
:101760001092C1011092C00160E084E090E00E94FC
:10177000202464E082E290E00E94202460E085E082
:1017800090E00E94202460E086E090E00E94202407
:101790006FEF87E090E00E94202440E050E0BA0123
:1017A00088E090E00E94322460E08DE090E00E94AA
:1017B000202440E050E0BA0188E190E00E94322409
:1017C00060E087E190E00E94202440E050E0BA0110
:1017D0008CE190E00E94322470E060E080E290E0D2
:1017E0000E943E2440E050E0BA0188E190E00E946F
:1017F00032240E94980B08950E94A00B0895682F30
:101800008EE090E00E94202408950E94511C609375
:101810001C0270931D0280931E0290931F0260931E
:1018200018027093190280931A0290931B02089574
:10183000089508950E94190C089508950E941D0CA2
:10184000089582E09FE00E94DE1A0E94180C0E9418
:101850001A0C08950E94D5100895089508950E94C5
:101860002D0C0E942E0C08950E94050F0E941B0251
:1018700008950E943C1C0E94C20E0E94F0100E941B
:1018800036100E94340C0E9472150E94FA100E94B9
:101890001E0C0895AAE0B0E0E0E5FCE00C94B9234A
:1018A0000E94591080E1A82E82E0B82E750110E048
:1018B000F70101917F01812F0E942B0F1F5F1830CC
:1018C00009F440C00817A1F38091200281FD0E9415
:1018D000310F0E942A0CC82E10E0812F0E942B0F7E
:1018E000082FF50181915F01081731F1D02ED8261C
:1018F000F12CEE24E3948D2D8E21B1F0CC20A1F0BB
:10190000FE821F8391E0802F8E2109F490E098875A
:101910000E94451C8160782F9A8789874E815F815C
:1019200068858A850E944702F394EE0CF6E0FF1268
:10193000E2CFF501319700831F5F183071F60E94E6
:10194000050C20C00813C0CF0E94451C8C0180915B
:101950000E0290910F0208171907A1F08FEF8983EB
:101960008A831B820E94451C8160782F9D838C8313
:1019700049815A816B818D810E94470210930F0229
:1019800000930E020E94D5100E9476140E942E022F
:101990002A96EAE00C94D523CF93DF930E94DD0DC5
:1019A000EC01811521E5920708F042C0811530E570
:1019B000930708F09FC0883E910530F5803E910561
:1019C00008F094C0883A910588F4853A910508F0AA
:1019D00086C08130910509F489C0009709F486C05A
:1019E000049708F083C0D0E0C0E080C08F3B910531
:1019F000D0F7C85AD0E0CC0FDD1FCF59DE4F099089
:101A0000D881C02DD46472C0811540E2940750F48F
:101A1000C11581E0D80708F069C0CD3ED10518F3A3
:101A2000D06564C081159044F0F2DF70D06A5EC06A
:101A3000811535E5930718F5811544E5940708F0FD
:101A400085C0C11583E5D80708F06CC0C11522E533
:101A5000D20708F462C0CE018370992721E030E0FC
:101A600002C0220F331F8A95E2F7C695C69580E221
:101A7000C89FE0011124C22BD32BDC6837C081152D
:101A800039E59307A8F4811548E5940708F063C089
:101A9000C11586E5D80708F0A6CF8C2F0E947F0ECF
:101AA000C82FD0E0DC2FCC27CC27DF71D0621EC03E
:101AB00081152AE5920708F453C09056811590428B
:101AC00008F091CF8D2F8F710E947F0E90E0982F9C
:101AD000882788279F719C012C2BE901E7CFC55AE5
:101AE000D0E0C157DE4FC881D0E0D064CE01DF9195
:101AF000CF9108958370992721E030E002C0220F32
:101B0000331F8A95E2F7C695C69540E2C49FE0016F
:101B10001124C22BD32BDD68E9CFDC2FCC27C16F7A
:101B2000D06AE4CFCE018370992721E030E002C073
:101B3000220F331F8A95E2F7C695C69540E2C49FEF
:101B4000E0011124C22BD32BDA68D0CFD82FCC27B9
:101B5000C46FD06ACBCFD82FCC27C06FD06AC6CF86
:101B60008F700E947F0E34E0D695C7953A95E1F7C5
:101B7000CF709C2FEC01D069B9CF972F7830A8F4A3
:101B8000663098F470E026E0929F600D711D11247C
:101B9000FB0190E3899FE00DF11D1124EE0FFF1F63
:101BA000E455FF4F85919491089580E090E0089569
:101BB0000E94BD0D0E94CC0C089582389105B9F1A8
:101BC000B0F48133910509F47DC048F48932910560
:101BD00009F46DC08A32910509F47BC008958533FC
:101BE000910509F45FC08933910509F10895833E99
:101BF0009105D9F138F4803E910529F1823E910595
:101C000079F10895863E9105D9F1873E910509F451
:101C10003EC0843E910541F52091720221FF24C00F
:101C20008091710284FD19C087EE90E008952091A3
:101C30007102237009F05AC02091720223FF14C070
:101C400089E290E008952091710220FD38C0309122
:101C5000720230FF09C024FF43C090E080E0089585
:101C60002091710222FDF7CF08952091710222FD8B
:101C70003AC03091720230FD39C024FFF5CFEDCF6C
:101C80002091710223FFF0CF24FDE7CFCDCF20912B
:101C9000710223FD2EC03091720231FFEECF84EE2F
:101CA00090E008952091710225FFDECFC9CF2091E9
:101CB000710225FD21C02091720223FFD5CF89E357
:101CC00090E0D2CF2091710226FFCECF8AE290E041
:101CD00008952091710226FFC7CF81E390E0089517
:101CE00083EE90E0089582EE90E0089580EE90E01B
:101CF000089586EE90E0089585E390E00895909130
:101D0000710292FF06C0282F28712830F9F4877FCE
:101D1000846093FF06C0282F28712831F1F4877E54
:101D200084612091720220FF06C0382F387138304C
:101D3000D9F4877F816021FF06C0282F28712831C0
:101D4000D1F4877E816194FD877E0895282F2471C8
:101D50002430F9F68B7F8860DCCF282F2471243162
:101D600001F78B7E8861DDCF382F3171313019F763
:101D70008E7F8860E0CF282F2171213121F78E7E60
:101D80008861E1CF10926D0210926E0210926F0284
:101D9000109270020895CF92DF92EF92FF926B0142
:101DA0007C010E94D51081110EC00E94511CC61AE0
:101DB000D70AE80AF90AC0926D02D0926E02E09248
:101DC0006F02F0927002FF90EF90DF90CF90089535
:101DD0000F931F930E94D510882329F00E94511C55
:101DE0001F910F9108950E94511C00916D02109156
:101DF0006E0220916F0230917002600F711F821F7E
:101E0000931FEECF80E0089508950E94530B811137
:101E100002C00E94FC0B0E945E0B809320020E9475
:101E2000680B90937202809371020E94040F0E94CB
:101E3000630B90E00E9445068091BE019091BF0126
:101E40000E946606089508950E94230F089508953C
:101E50000E94270F0895E82FF0E0E458FD4F80819D
:101E60000895089580EA8A95F1F7089500C00895CD
:101E70000E94320F089508950E943B0F0895EF923B
:101E8000FF921F93CF93DF9300D000D0CDB7DEB782
:101E90000E94D510182F60918402882309F447C04E
:101EA00019821A821B821C82862F90E09E012F5F6E
:101EB0003F4F7901B90184589D4F0E940811882332
:101EC000E9F08091730290E044E050E0B70184585B
:101ED0009D4F0E94FC2321E020932102892BC9F40D
:101EE00010E00E949801812F0F900F900F900F909B
:101EF000DF91CF911F91FF90EF9008958091210283
:101F0000882371F384E0F70111928A95E9F7109222
:101F10002102E0917302F0E0E458FD4F89819A813B
:101F2000AB81BC8180839183A283B383DACF70E0DD
:101F300064587D4F8091730290E084589D4F0E94B9
:101F40008F110E943C0FCFCFF894E82FE295EF70ED
:101F5000F0E031A1282F2F7081E090E001C0880FC0
:101F60002A95EAF7982F9095932391A392A1892B14
:101F700082A378940895CF93DF9387E90E94A40FFA
:101F800086EC0E94A40F84E30E94A40F85E30E94C4
:101F9000A40FC2E9D1E089918F3F11F00E94A40FF4
:101FA00081E0C839D807B9F7DF91CF910895B0E043
:101FB000A0E0EDEDFFE00C94BB23EC01D62E062F44
:101FC00010E0C80188569E4F7C01FC0180818F3F44
:101FD00009F445C0F894E82FE295EF70F0E091A184
:101FE0008F7021E030E001C0220F8A95EAF7892F37
:101FF000822B81A382A12095282322A378940E947A
:10200000360FE2E9F1E048E951E031E0C12C2191DD
:102010002F3F51F1A22FA295AF70B0E090968C9116
:1020200090E02F7002C0959587952A95E2F780FD84
:102030001BC0832FC82A330F4E175F0741F7F701E4
:1020400080818F3F11F00E94A40F61E0C11001C098
:1020500060E08D2D0E94380FC00FD11FC882CDB710
:10206000DEB7E8E00C94D72380E0E4CF8091020152
:102070008091020194E0811190E09093840284E0C9
:10208000891B809373020E94BB0F88E0ECE7F2E0AB
:10209000DF01982F1D929A95E9F7E4E7F2E0DF015E
:1020A0001D928A95E9F784E00E9497100E9495019D
:1020B0000895A8E0B0E0EFE5F0E10C94BE238E01B6
:1020C0000F5F1F4F88E0F80111928A95E9F7F12C14
:1020D0006F2DC8010E94D70FF394F4E0FF12F8CFE0
:1020E00048E050E0B80184E792E00E94FC2321E040
:1020F000009709F420E0892B41F088E0F801A4E77B
:10210000B2E001900D928A95E1F76091840270E04F
:1021100064587D4F44E084E792E00E949810182FA5
:102120000E943F0F812B2896E5E00C94DA23089556
:10213000CF92DF92EF92FF920F931F93CF936C0198
:102140007B01042F222349F081E0809324020E9426
:10215000451C9093230280932202C0912402C11156
:102160000AC0C0E08C2FCF911F910F91FF90EF908C
:10217000DF90CF90089580912202909123020E94D7
:102180005D1C059770F310E0A801B601C7010E941D
:10219000FC23892B41F0A801B601C7010E94092444
:1021A00010922402DFCFC0E0FBCF80912702811183
:1021B00007C00E948A23882351F081E08093270280
:1021C00081E090912702913009F080E0089582E04B
:1021D000809327020E948523F3CF0E94D510089593
:1021E0000E94ED10809302010E94D51081110E947F
:1021F0003E1108950E94D510811102C00E94411124
:10220000089581E0909128029A3008F080E00895C6
:102210000F931F93CF93DF93EC018B0180912802E2
:102220008A30B8F4B801CE010E948C11C82F8111F8
:1022300022C0809128028F3FB9F40E94451C9093E0
:102240002602809325028C2FDF91CF911F910F9151
:10225000089580912502909126020E945D1C843F82
:10226000914000F7C0E0EFCF8F5F809328028A3063
:1022700020F7C1E0E8CF10922802E5CF0E947C1938
:1022800008950E947F190895B0E0A0E0EAE4F1E12A
:102290000C94BC237901C82F880FDD0B4115510523
:1022A000A9F0FE0193E0EE0FFF1F9A95E1F7ED5FB5
:1022B000FE4F81819281875D9D4F208130E04217E2
:1022C000530708F49A01A9010E940924CE010E9433
:1022D000681AD82E8823D1F001151105B9F083E0D2
:1022E000CC0FDD1F8A95E1F7FE01ED5FFE4F4381C4
:1022F00050E00417150708F4A801CD5FDE4F6C818C
:102300007D81675D7D4FC7010E9409248D2DCDB76A
:10231000DEB7E7E00C94D8230E94861208950E944D
:102320009D120895A4E0B0E0E8E9F1E10C94BF2328
:1023300060913E0270913F02809140029091410273
:102340000E946C1C11E0643671058105910518F13D
:102350000E94E80E6E5F7F4F8F4F9F4F69837A8395
:102360008B839C8310E000E030E020E044E050E00C
:10237000BE016F5F7F4F82E00E944411182F8823B7
:1023800051F00E94511C60933E0270933F02809373
:10239000400290934102812F2496E4E00C94DB23C9
:1023A000B0E0A0E0E6EDF1E10C94B9237C015B0123
:1023B0006A010E94011101E010E0882311F00AE097
:1023C00010E0C1E0D0E0B501C701F6010995811127
:1023D00004C021960C171D072CF4CDB7DEB7EAE038
:1023E0000C94D523CC9F9001CD9F300D300D11243E
:1023F00090E080E045E34A95F1F7000001968217EE
:102400009307C1F7E0CFA5E0B0E0E9E0F2E10C947A
:10241000B9235B01E0909C01F0909D0101E010E088
:102420009E012B5F3F4F50E040E070E060E080E0B5
:102430000E944411182F882309F44BC067018FEFC5
:10244000C81AD80A60913A0270913B0280913C020E
:1024500090913D020E946C1C6436710581059105C6
:1024600080F104E010E09E012F5F3F4F50E040E01C
:1024700070E060E081E00E944411F82E64E070E0BA
:10248000C6010E94731511E09D81981310E01F2171
:1024900059F10E94511C60933A0270933B02809361
:1024A0003C0290933D0289819A81AB81BC818093EB
:1024B000360290933702A0933802B093390211E0AC
:1024C00013C064E070E0C6010E9473159D818913FA
:1024D000C8CFF70181819281A381B48189839A83D6
:1024E000AB83BC831111DFCF80913602909137020C
:1024F000A0913802B0913902F50180839183A283C3
:10250000B383812F2596EAE00C94D5230F931F9374
:10251000CF93DF93EC018B0143E052E10E94D01195
:10252000882331F042E951E1B801CE010E94D01177
:10253000DF91CF911F910F9108950F931F93CF9328
:10254000DF93C0919C01D0919D01CE01019624E0C2
:10255000FB01DC0101900D922A95E1F764E070E047
:102560000E94731588836D817E818F81988500918B
:1025700032021091330220913402309135026017FB
:1025800071078207930751F0609332027093330210
:1025900080933402909335020E94CB0EDF91CF914D
:1025A0001F910F9108950E94601E0E94390C0E9495
:1025B0006D1E08950E94721E0E944A0C0E948C1E7D
:1025C00008950E94DE1B0E94461E0E94210C0E945C
:1025D000D3120E94DA120E942F0CFBCF8091480286
:1025E00080FF0DC06091200170E0660F771F60389A
:1025F000710570F56115710569F1862F089581FFE8
:1026000007C06091200184E0689FB0011124EFCFE2
:102610006091200182FD0AC0809147028823A9F0C1
:1026200020911F0160912001821710F088E0ECCF0B
:10263000869FC001112433E0880F991F3A95E1F776
:10264000622F70E00E949723D2CF68E070E0D5CF70
:102650008FE7089581E008958091480280FF0CC0C3
:1026600060911C0170E0759567957595679561158A
:10267000710549F1862F089581FF06C060911C0104
:1026800070E075956795F3CF60911C0182FD0BC0DA
:10269000909146029923A1F060911B0180911C0149
:1026A000961738F0682F70E06038710500F38FE7F7
:1026B0000895899FC001112470E00E949723F4CFF0
:1026C00061E070E0D7CF81E008958D3E31F40E9443
:1026D000EE12819580934C0208958E3E19F40E946B
:1026E000EE12F8CF8F3E31F40E94EE128195809366
:1026F0004B020895803F19F40E94EE12F8CF893FF3
:1027000029F40E942C1380934D0208958A3F21F4EE
:102710000E942C138195F7CF8B3F31F40E942C132C
:10272000819580934E0208958C3F19F40E942C13DA
:10273000F8CF9FE0980F983070F4815F990B21E0FB
:1027400030E001C0220F8A95EAF780914A02822B7D
:1027500080934A0208958D3F31F480914802816050
:102760008093480208958E3F21F480914802826050
:10277000F7CF8F3FB9F7809148028460F1CF409145
:102780004B028D3E59F480914C0287FF0DC0109290
:102790004C0241110BC01092470208C08E3E81F4DA
:1027A00080914C0218169CF3442381F080914D02D5
:1027B00090914E02892B09F05AC01092460208955A
:1027C0008F3E49F447FFF0CF10924B0280914C02AC
:1027D0008111ECCFE0CF803F19F41416ACF3E4CFB5
:1027E00090914D02893F29F41916F4F610924D028A
:1027F000DBCF8A3F19F497FFD7CFF8CF90914E02E5
:102800008B3F29F497FFD0CF10924E02CDCF8C3F53
:1028100019F41916CCF3C8CF9FE0980F983090F4B4
:10282000815F990B21E030E0B90102C0660F771F8C
:102830008A95E2F7CB01809590914A028923809393
:102840004A02B2CF8D3F31F4809148028E7F80934F
:102850004802AACF8E3F21F4809148028D7FF7CFA6
:102860008F3F09F0A1CF809148028B7FF0CF089570
:102870000E94451C9C0190914B0280914C02982B28
:1028800021F0309345022093440290914D028091B3
:102890004E02982B21F0309343022093420289E4A8
:1028A00092E00E94071B089586E0E9E4F2E0DF0170
:1028B0001D928A95E9F710924702109246021092F3
:1028C00048020895FC01828181110EC0838181112B
:1028D0000BC08481811108C091E08581811101C004
:1028E00090E0892F8170089581E0FCCFA6E0B0E0F0
:1028F000ECE7F4E10C94C02386E0E9E4F2E0DE01C9
:10290000119601900D928A95E1F710924B02109268
:102910004C0210924D0210924E028B819C81892BA9
:1029200089F080914402909145020E945D1CAC01A7
:10293000909147029923C9F18091210184171506CE
:1029400008F440C08D819E81892B91F080914202D4
:10295000909143020E945D1CAC0190914602992324
:1029600009F471C080911D018417150608F479C01F
:10297000BE016F5F7F4F89E492E00E94961B811138
:1029800005C089E492E00E94621481110E9438140B
:1029900086E0FE013196A9E4B2E001900D928A959D
:1029A000E1F72696E3E00C94DC23209122018AE0F3
:1029B000289F900111242417350720F69F5F9093DC
:1029C000470202C09F3FD1F71B81112359F00E949B
:1029D000EE129FEF11160CF491E0899F802D1124C7
:1029E00080934B021C81112359F00E94EE129FEF3D
:1029F00011160CF491E0899F802D112480934C02D4
:102A000030914B02332309F49DCF20914C022223B5
:102A100009F498CF45EB3403C0011124992359F0F0
:102A200090934B0245EB240390011124332339F09A
:102A300030934C0287CF81E080934B02F3CF81E04B
:102A400080934C027FCF20911E018AE0289F900145
:102A500011242417350708F08BCF9F5F909346020F
:102A600002C09F3FD1F71D81112359F00E942C1302
:102A70009FEF11160CF491E0899F802D1124809313
:102A80004D021E81112359F00E942C139FEF111645
:102A90000CF491E0899F802D112480934E02309197
:102AA0004D02332309F464CF20914E02222309F40E
:102AB0005FCF45EB3403C0011124992359F0909363
:102AC0004D0245EB240390011124332339F0309358
:102AD0004E024ECF81E080934D02F3CF81E0809390
:102AE0004E0246CF0895FC01680F791F8FEF91E3E6
:102AF0006E177F0709F408952191822728E030E0BE
:102B000087FF06C0880F892721503109C9F7F0CF08
:102B1000880FFACFCF93DF93EC01FB0182818823EA
:102B200009F464C1C430FDE5DF07E0F5CB3F9CE567
:102B3000D90730F49E0122503C4524313105D8F5A7
:102B40000E94680B9093720280937102C231ECE58F
:102B5000DE0709F41FC108F06EC0C9308CE5D80744
:102B600009F4F2C008F03FC0C530ECE5DE0709F417
:102B7000DBC058F5C3308CE5D80709F4CDC008F0A8
:102B8000CFC0809171028160C230DC4509F4AEC0D3
:102B900080917102909172020E94760B0E94F00562
:102BA00080E009C0C63AEDE5DE0751F238F4C236DE
:102BB0009DE5D90729F2DF91CF9108959E012E5A04
:102BC0003D4523303105B8F7BBCF8091710280625B
:102BD000C730FCE5DF0709F489C008F4B1C0809173
:102BE0007102806483C0CD309CE5D90709F4BAC076
:102BF00070F4809171028E7FCB30FCE5DF0709F421
:102C000075C008F4A7C0809171028D7F6FC0CF306E
:102C10009CE5D90709F4B6C008F4A8C0C031FCE5AA
:102C2000DF0709F4B3C0C131DC4509F0B1CF8091B1
:102C300071028F7B5BC0C1159DE5D90709F4B4C053
:102C400098F5CB3FFCE5DF0709F472C0B8F4C43156
:102C50009CE5D90709F4B6C008F4A2C0C531DC452B
:102C600009F096CF8091710282FB992790F921E0BB
:102C7000922790FB82F990FB83F938C0CD3F8CE519
:102C8000D80709F477C008F457C0CE3FECE5DE075B
:102C900009F474C0809172028360CF3FDC4509F073
:102CA00077CF8093720274CFC2368DE5D80709F4CE
:102CB00096C068F4C230EDE5DE0709F48CC008F474
:102CC00077C0C330DD4509F063CF80E085C0CE3AE0
:102CD0009DE5D907E9F068F490917102892F8E7F04
:102CE00090FF8160C63ADD4509F052CF80937102B2
:102CF0004FCFCF3A8DE5D80789F1C03BDD4509F0CC
:102D000047CF90917202892F877F93FF8860C9CF48
:102D1000809172028860C5CF809171028260E6CF97
:102D2000809171028460E2CF809171028860DECF71
:102D3000809172028160B5CF809172028260B1CFC2
:102D4000809171028061D2CF0E94F0058091710262
:102D50008068CCCF809171028C60C8CF8091720264
:102D6000877F9FCF809171028B7FC0CF809171024E
:102D7000877FBCCF809172028E7F93CF8091720249
:102D80008D7F8FCF809171028F7EB0CF8091710245
:102D90008F7DACCF0E94F005809171028F77A6CF16
:102DA00080917102837FA2CF809172028C7F79CF54
:102DB00080917202982F909591708E7F892B90FB55
:102DC00081F96FCF0E94F00590917102892F97FBD6
:102DD00087F980588BCF81E00E94FF0BD9CE90916C
:102DE0007102892F8F7E94FF806180CF81E0E3CED6
:102DF0008B3109F465C040F58B3071F078F4863082
:102E000009F447C020F4853059F180E008958730F7
:102E100009F448C08830C9F781E00895803109F489
:102E20005DC068F48E3089F790912002892F8B7FE6
:102E300092FF84608093200282FD4CC0EDCF8631EA
:102E400059F3893149F3E1CF8A3201F160F48732D5
:102E5000B1F020F48E31C8F28D514CC08932A9F600
:102E60000E94AA01D9CF833440F48A3308F041C0CC
:102E7000853329F0883381F2C8CF833431F681E07D
:102E800090E00E9445060E94F005C6CF0E94FC0B10
:102E9000C3CF80912002807F8093200281E08093C5
:102EA0005202089590912002892F8E7F90FF8160B9
:102EB0008093200280FDB0CF817F80932002ACCF31
:102EC00090912002892F8D7F91FF82608093200254
:102ED00081FFA2CF809120028160EFCF90912002EC
:102EE000892F877F93FF88608093200283FDF2CF34
:102EF00093CF895321E030E0A90102C0440F551F50
:102F00008A95E2F7CA01BDCF80E008950E94841738
:102F10000895CF93C82F809152028130B9F0882351
:102F200031F08230A1F11092520280E00DC00E9477
:102F30006C0A8232D1F78C2F0E94841781111BC03A
:102F40008C2F0E94F8168170CF9108950E946C0A10
:102F5000823289F38C2F0E94861781110AC0C431F6
:102F600099F060F4CB3029F0C03169F782E08093AA
:102F7000520281E0E8CF81E090E0E5CFC93221F054
:102F8000C833B9F380E0DFCF10925202FBCFC932D1
:102F900009F440C0F0F4C431E9F1A8F481E0C7308D
:102FA00099F68093220184E1809321018AE0809345
:102FB00020018EE180931F0188E080931C0188E24C
:102FC00080931B0104C082EE8C0F8A3070F181E087
:102FD000BBCFC03509F450C0B8F48AE0CF34B9F79C
:102FE000E0914F02F0915002309789F32081082E32
:102FF000000C990B820F911D8F3F910509F00CF485
:103000003FC08FEF8083E3CFC135C1F181E0C2358E
:1030100039F39ACF809151028823C9F2109251025C
:103020001092500210924F02D2CFCD51C093510254
:10303000C330C9F048F4C13099F081E291E0C23068
:1030400051F010925102C3CFC53099F078F08BE166
:1030500091E0C630B1F79093500280934F02B7CF02
:1030600082E291E0F8CF80E291E0F5CF8FE191E04C
:10307000F2CF8CE191E0EFCF86EFB2CF8FEFB0CF00
:1030800097FFC0CF1082A3CFCF93DF93EB018631A0
:103090009C4511F50E946C0A9A81992399F08A7ACD
:1030A00091E009F490E090935302811109C089E204
:1030B0000E94440A0E94AD0A80E0DF91CF910895FA
:1030C00085E3F6CF80915302811104C089E20E940A
:1030D0004C0AF0CF85E3FBCF81E0EFCF0F931F9336
:1030E000CF93DF93C42FD22FFC0182818823C9F0B4
:1030F000409356020E94451C9093550280935402BF
:1031000080E28C0F883040F4C77081E001C0880FE6
:10311000CA95EAF70E949203DF91CF911F910F9118
:10312000089510915602141332C080915402909168
:1031300055020E945D1C883C910548F5C0E2CD0F08
:103140001D17B9F080E2810F883040F4177081E0DC
:1031500001C0880F1A95EAF70E949903C83048F415
:1031600081E09D2F977001C0880F9A95EAF70E9421
:103170009203802F0E948903C83070F6D77081E0D7
:1031800001C0880FDA95EAF70E949903C5CF80E263
:103190008C0F883008F6C77081E001C0880FCA958F
:1031A000EAF7F2CF0F939C01CB01243F4CE53407A3
:1031B00059F1A8F4293DFCE53F0701F12A3D4CE512
:1031C0003407D1F1283D3C4591F406E221EE41EE71
:1031D00068ED7CE50E946E1880E00F910895263F0F
:1031E000FCE53F07E9F0B0F0273F3C45F9F0FC0172
:1031F0008281882339F110925602EFCF07E225EE43
:1032000045EE69ED7CE5E6CF06E221EE40EE64EFA7
:103210007CE5E0CF07E225EE44EE65EF7CE5DACF12
:1032200006E221EE42EE66EF7CE5D4CF07E225EE22
:1032300046EE67EF7CE5CECF08E221E045EE6AED91
:103240007CE5C8CF81E0C9CF8EE1489B02C08150A8
:10325000E1F7489BFECF0895589880E28A95F1F7F0
:10326000589A0895FC013BE03A95F1F798E020E088
:1032700080E031E040E14A95F1F7880F489B02C0B9
:103280008160232742E04A95F1F7000040E14A952A
:10329000F1F7915079F790E19A95F1F799B132E011
:1032A0003A95F1F7000040E14A95F1F791709227C5
:1032B0002081920F90830895A1E0B0E0E2E6F9E169
:1032C0000C94BD2319828C017C01E60EF11C0E15B5
:1032D0001F0541F481E09981911180E02196E6E09B
:1032E0000C94D9230E942419CE0101960E94321910
:1032F000F80181938F01EBCF509A589A0895509816
:10330000589AE89AE9E6F0E080818C7F80830895FE
:103310006150770B91E001C0990F6A95EAF720E0C0
:1033200031E0911108C0222391F0589A80E28A95E9
:10333000F1F758980895492F482339F0589A2327D0
:1033400040E24A95F1F79695ECCF5898F9CF589806
:10335000EDCFFF920F931F93CF93DF93EC018C017E
:10336000060F111DC017D10729F4CDB7DEB7E5E070
:103370000C94DA23F9900E942C1968E08F2D0E949A
:103380008819F0CF1F920F920FB60F9211240F934E
:103390001F932F933F934F935F936F937F938F93DD
:1033A0009F93AF93BF93EF93FF93CF93DF930F92CE
:1033B000CDB7DEB719820E942419CE0101960E9472
:1033C0003219082F069506950695282F2295257007
:1033D000902F9570290F922F937026952695920F16
:1033E000982797708981982B09F05CC0043008F009
:1033F00059C080E18A95F1F7589A509A82E08A95EF
:10340000F1F700C0589888E0089F80011124D80186
:10341000AD5FBE4F1696ED91FC9117973097A9F0CE
:1034200060919C0170919D0114962D913C9115978E
:10343000260F371F11968D919C911297680F791F57
:1034400013964C9113978C910995F801ED5FFE4FFF
:103450006381662351F020919C0130919D0184810C
:103460009581820F931F0E94A9190E942C1980E157
:103470008A95F1F758985098589A80E18A95F1F713
:10348000F801ED5FFE4F6081662351F020919C01B1
:1034900030919D0181819281820F931F0E945C195E
:1034A0000E9424190F90DF91CF91FF91EF91BF916E
:1034B000AF919F918F917F916F915F914F913F91CC
:1034C0002F911F910F910F900FBE0F901F90189585
:1034D0000F931F93CF93DF93EC0104970CF04CC034
:1034E000F894509A589885E08A95F1F700009C2F3F
:1034F000969595708C2F8570980F892F837096956F
:10350000969523E0CC0FDD1F2A95E1F7980F8E01E9
:10351000092B0E942C1900C068E0802F0E94881996
:1035200080E18A95F1F75098589A489B1EC087E031
:1035300090E048991CC0FE01ED5FFE4F6381662359
:10354000F9F020919C0130919D0184819581820F39
:10355000931F0E945C19811113C0509A589A789455
:10356000DF91CF911F910F91089500C0DECF019799
:1035700029F4509A589A789480E0F2CF00C0D9CFBD
:103580000E94241980E28A95F1F75898509A80E1B8
:103590008A95F1F7CD5FDE4F6881662351F0209167
:1035A0009C0130919D0189819A81820F931F0E9415
:1035B000A9190E942C19789481E0D2CF90939F0191
:1035C00080939E01089590935D0280935C0208951C
:1035D0000E94D510811103C0809157020895E09197
:1035E0005C02F0915D02309729F00190F081E02DAE
:1035F0000995089580E00895E0915C02F0915D02E4
:10360000309721F00280F381E02D09950895E09133
:103610005C02F0915D02309739F022E0DC012C93DE
:103620000480F581E02D0995089520915A0230918A
:103630005B022817390771F090935B0280935A025E
:10364000E0915C02F0915D02309721F00680F781F5
:10365000E02D0995089520915802309159022817BC
:10366000390771F09093590280935802E0915C02FF
:10367000F0915D02309721F00084F185E02D0995ED
:1036800008959C012E5F3F4FAC01485F5F4F80E083
:103690002417350709F40895F90191919F019923A1
:1036A000B9F38F5FF5CF662349F0FC013296089697
:1036B0002191261729F0E817F907D1F780E008953E
:1036C00081E008959C01FC0132969FEF80E04191DA
:1036D000461751F09F3F19F4411101C0982F8F5F99
:1036E0008630A9F79F3F09F40895290F311D97FDF2
:1036F0003A95F90162830895FC013296089621916A
:10370000261303C0DF0111971C92E817F907B9F7D8
:1037100008950E94621B08950E947C1B08950296E2
:1037200026E0FC0111922A95E9F7089546E050E061
:103730000E94FC2321E0892B09F420E0822F0895C8
:1037400008950E94A01B0895811106C081E0809316
:103750005E020E94A11B089582E0F9CF83E080936E
:103760005E020E94A11B08950E94A41B089581E09F
:1037700080935E020E94A11B08950E94B71B0895CA
:10378000089508950E94C11B0895089508950E9408
:10379000C01B0895CF930E94C51B0E9459100E9420
:1037A000C61BC0E08C2F0E942B0F811105C0CF5F7C
:1037B000C830C1F7CF91089581E0FCCF85B780680C
:1037C00085BF85B7806885BF08951F921FB61F9279
:1037D00011248F939F93AF93BF9380915F028111C8
:1037E00013C08091850290918602A0918702B091CA
:1037F00088024196A11DB11D809385029093860297
:10380000A0938702B0938802BF91AF919F918F914F
:103810001F901FBE1F90189580918D02843031F14A
:103820000E94080210925F0288E190E020E40FB647
:10383000F894A895809360000FBE2093600083B732
:10384000817F846083BF83B7816083BF78948895CC
:1038500083B78E7F83BF0FB6F894A89580916000E0
:10386000886180936000109260000FBE08950E94EE
:10387000F0050E940D02089582E084BD93E095BD9D
:103880009AEF97BD80936E0008952FB7F8948091BA
:10389000850290918602A0918702B09188022FBF85
:1038A00008952FB7F89460918502709186028091F7
:1038B0008702909188022FBF08959C014FB7F8941A
:1038C0008091850290918602A0918702B091880232
:1038D0004FBF821B930B0895CF92DF92EF92FF921E
:1038E0002FB7F894C0908502D0908602E0908702AE
:1038F000F09088022FBFA7019601261B370B480BBB
:10390000590BCA01B901FF90EF90DF90CF90089555
:1039100078941F921FB61F9211248F939F93AF9399
:10392000BF938091850290918602A0918702B09109
:1039300088020196A11DB11D809385029093860295
:10394000A0938702B0938802BF91AF919F918F910E
:103950001F901FBE1F90189587E797E79093010867
:103960008093000888E19AE00FB6F894A8958093B8
:1039700060000FBE90936000FFCF88E19AE00FB621
:10398000F894A895809360000FBE90936000FFCFDD
:1039900080916B02089508959C0182E08093E90074
:1039A0009FEF8091E800915085FD06C085ED8A95D6
:1039B000F1F700009111F5CF8091E80085FF0CC070
:1039C00050E040E066E070E0C9010E94FE1E809178
:1039D000E8008E778093E8000895CF93DF93EC01A1
:1039E00081E08093E9008FEF9091E800815095FD90
:1039F00006C095ED9A95F1F700008111F5CF809101
:103A0000E80085FF14C050E040E068E070E0CE01BF
:103A10000E94FE1E8091E8008E778093E80088E087
:103A2000FE01A3E6B2E001900D928A95E1F7DF91E5
:103A3000CF91089580936002709362026093610257
:103A400080918D02843001F582E08093E9008FEF50
:103A50009091E800815095FD06C095ED9A95F1F79B
:103A600000008111F5CF8091E80085FF0DC050E086
:103A700040E063E070E080E692E00E94FE1E8091EC
:103A8000E8008E778093E8000895BC0184E00E94EE
:103A90001A1D0895BC0183E00E941A1D08958091AB
:103AA0008C02811109C00E948E200E94EB2080911F
:103AB000E20084608093E200089510928C020895E1
:103AC0000E94B71B08956091890281E0611101C0D5
:103AD00080E00E94AE1B089590918D0281E09430A9
:103AE00009F080E0609189020E94B41B089542E0D1
:103AF00061EC81E00E940A2042E261EC82E00E94D7
:103B00000A2090918D0281E0943009F080E060916C
:103B100089020E94A41B089580918F02833009F4CA
:103B200061C030F48130D1F1823009F49EC0089533
:103B30008A3009F48AC08B3009F46FC0893009F0EB
:103B400050C080918E02813209F04BC08091920268
:103B500090919302029708F044C08091E800877F1B
:103B60008093E8008091E80082FF37C09091F300D5
:103B70008091F200029731F48091F100813011F0D0
:103B8000863021F48091F10080936B028091E800EF
:103B90008B778093E8000E943E2023C080918E02A4
:103BA000813AF9F48091E800877F8093E800809162
:103BB000920290919302892B61F468E083E692E08F
:103BC00070E00E944D1F8091E8008B778093E800A1
:103BD000089560E090E080E0F3CF80918D02811144
:103BE000C1CF089580918E02813AD9F780919202D7
:103BF00090919302892BA9F78091E800877F8093A9
:103C0000E8008091E80080FFFCCF80912F01809335
:103C1000F1008091E8008E77BCCF80918E028132D6
:103C200001F78091920290919302892BD1F68091B5
:103C3000E800877F8093E8000E943E2080919002F8
:103C400080932F010E94F005089580918E028132A9
:103C500041F68091E800877F8093E8000E943E2033
:103C60008091910280936C02089580918E02813A36
:103C700009F0B7CF8091E800877F8093E8008091BA
:103C8000E80080FFFCCF80916C02C1CF84B7877FB2
:103C900084BF0FB6F894A8958091600088618093E6
:103CA0006000109260000FBE80E890E00FB6F894BC
:103CB00080936100909361000FBE0E94BD1B089528
:103CC0000E948E200E94EB20E2EEF0E08081846072
:103CD000808378940E946A23089583E291E00E9491
:103CE000E31A089580918D02853031F480918D0220
:103CF000853019F00E94371C08950E940C1C809199
:103D00008B02882399F30E94CA1B882379F30E94AF
:103D1000E81E0E94F005EACF08950E94901E0895C3
:103D2000292F33272330310519F168F4213031056B
:103D300009F444C02230310509F445C090E080E028
:103D400030E020E025C02132310549F12232310531
:103D5000A9F780E490E02EE032E061157105C1F032
:103D60008BE790E023E931E06130710589F0E6CF1F
:103D700099278130910581F0009729F00297F1F69B
:103D8000ECE0F1E002C0E2E4F1E0849190E09F0118
:103D9000FA01318320830895EAE2F1E0F6CF89E069
:103DA00090E028E531E06115710591F389E090E03C
:103DB00021E731E06130710559F3C0CF82E190E035
:103DC00021E831E0E5CF8BE390E026E431E0E0CF7D
:103DD00080E189BD82E189BD09B400FEFDCF8091FB
:103DE000D8008F7D8093D8008091E000826080931E
:103DF000E0008091E00081FDFCCF0895AF92BF927A
:103E0000CF92DF92FF920F931F93CF93DF936C01BA
:103E1000EB018A010E945D20F82E811123C001155B
:103E2000110539F0F80180819181C81BD90BC80EAA
:103E3000D91EB12CA12C2097A9F08091E80085FD16
:103E400022C08091E8008E778093E800011511056B
:103E5000A1F0F80180819181A80EB91EB182A082E3
:103E600085E0F82E8F2DDF91CF911F910F91FF905C
:103E7000DF90CF90BF90AF9008950E945D2088237F
:103E8000D1F2F82EEFCFF60181916F018093F1000E
:103E90002197FFEFAF1ABF0ACECFFC0180919402A9
:103EA0009091950286179707A0F06115710529F486
:103EB0009091E8009E779093E80090E0611571057D
:103EC00051F4911108C08091E80082FF34C080E075
:103ED0000895BC01F2CF80918D028823C1F1853015
:103EE000C1F18091E80083FD30C08091E80082FD3F
:103EF000EACF8091E80080FFE1CF8091F30020912C
:103F0000F200382F6115710519F02830310558F08D
:103F100091E02830310509F090E02091E8002E77FB
:103F20002093E800CBCF81918093F100615071091B
:103F30002F5F3F4FE7CF80918D02882341F085307E
:103F400041F08091E80083FFBECF81E0089582E0D8
:103F5000089583E00895FC01809194029091950268
:103F600086179707A0F06115710529F48091E80084
:103F70008E778093E80090E06115710551F49111FE
:103F800008C08091E80082FF35C080E00895BC0140
:103F9000F2CF80918D028823C9F18530C9F18091DB
:103FA000E80083FD31C08091E80082FDEACF809176
:103FB000E80080FFE1CF8091F3002091F200382FDC
:103FC0006115710519F02830310558F091E028305D
:103FD000310509F090E08091E8008E778093E80049
:103FE000CBCF84918093F1003196615071092F5F9E
:103FF0003F4FE6CF80918D02882341F0853041F01C
:104000008091E80083FFBDCF81E0089582E00895AC
:1040100083E00895982F973028F08F708093E900FF
:1040200081E008959093E900242F762F50E09817AF
:1040300031F07091EC002091ED005091F00021FDE5
:1040400002C09F5FE8CF3091EB003E7F3093EB00E2
:104050003091ED003D7F3093ED003091EB00316009
:104060003093EB007093EC002093ED005093F00040
:104070002091EE0027FDE5CF80E0089580918E022B
:1040800087FF13C08091E80082FF06C08091E8009E
:104090008B778093E80004C080918D028111F2CF6C
:1040A000089580918D028823D9F38091E80080FFE4
:1040B000F8CF8091E8008E77ECCF2091E40030912A
:1040C000E50095E6A9012091EC00822F817020FF88
:1040D00006C08091E80080FF06C080E0089520912E
:1040E000E80022FD1AC080918D02882389F0853076
:1040F00089F08091EB0085FD0FC02091E4003091A4
:10410000E50042175307F9F29150E1F684E0089573
:1041100082E0089583E0089581E008950E94FD20E3
:104120000E940521E0EEF0E0808181608083E8ED6F
:10413000F0E080818F77808319BCA7EDB0E08C918F
:104140008E7F8C9380818F7E808310928C02089565
:104150000F931F93CF93DF930E94FD200E940521B0
:10416000C8EDD0E088818F778883888180688883D4
:1041700088818F7D888319BC10928D0210928902EC
:1041800010928B0210928A0200EE10E0F8018081FA
:104190008B7F808388818160888342E060E080E05B
:1041A0000E940A20E1EEF0E080818E7F8083E2EEC3
:1041B000F0E0808181608083808188608083F80165
:1041C00080818E7F8083888180618883DF91CF9119
:1041D0001F910F910895E8EDF0E080818F7E80833C
:1041E000E7EDF0E080818160808384E082BF81E040
:1041F00080938C020E94A8200895E8EDF0E0808171
:104200008E7F80831092E20008951092DA0010925F
:10421000E10008951F920F920FB60F9211242F9371
:104220003F934F935F936F937F938F939F93AF933E
:10423000BF93EF93FF938091E10082FF0BC08091C9
:10424000E20082FF07C08091E1008B7F8093E10054
:104250000E9469238091DA0080FF19C08091D80004
:1042600080FF15C08091DA008E7F8093DA00809104
:10427000D90080FF96C080E189BD82E189BD09B483
:1042800000FEFDCF81E080938D020E944F1D809142
:10429000E10080FF19C08091E20080FF15C080918D
:1042A000E2008E7F8093E2008091E2008061809343
:1042B000E2008091D80080628093D80019BC85E02C
:1042C00080938D020E94631D8091E10084FF2BC0CA
:1042D0008091E20084FF27C080E189BD82E189BD31
:1042E00089B5982F917080FFFBCF8091D8008F7D8A
:1042F0008093D8008091E1008F7E8093E1008091CF
:10430000E2008F7E8093E2008091E20081608093E2
:10431000E20080918902882309F449C084E08093F7
:104320008D020E946C1D8091E10083FF29C0809165
:10433000E20083FF25C08091E100877F8093E10048
:1043400082E080938D02109289028091E1008E7F3D
:104350008093E1008091E2008E7F8093E200809163
:10436000E20080618093E20042E060E080E00E9431
:104370000A208091F00088608093F0000E94601D08
:10438000FF91EF91BF91AF919F918F917F916F912D
:104390005F914F913F912F910F900FBE0F901F9003
:1043A000189519BC10928D020E945D1D70CF8091EE
:1043B000E30087FD93E090938D02B3CF1F920F929D
:1043C0000FB60F9211242F933F934F935F936F93E8
:1043D0007F938F939F93AF93BF93CF93DF93EF938D
:1043E000FF93D091E900DF708091EC00C82FC1707D
:1043F00080FDC0E81092E9008091F000877F8093F3
:10440000F00078940E9422221092E9008091F0003E
:1044100088608093F000CD2BCF70C093E900FF91AE
:10442000EF91DF91CF91BF91AF919F918F917F914C
:104430006F915F914F913F912F910F900FBE0F9011
:104440001F901895AAE2B0E0E8E2F2E20C94C023D3
:104450008EE892E02091F100FC012193CF01F2E07F
:1044600086399F07B9F70E948C1D8091E80083FF71
:104470001EC180918E0290918F029A3008F017C170
:10448000E92FF0E0EE59FB4D0C94AB23803899F006
:10449000823809F00CC1809192028F70873008F049
:1044A00006C18093E9008091EB0085FB882780F9A5
:1044B0001092E90006C080918A0290918B029111BE
:1044C00082609091E800977F9093E8008093F100DC
:1044D0001092F1008091E8008E77E5C0882309F4FE
:1044E000D3C0823009F0E3C0809190028111D6C020
:1044F000809192028F702FEF280F263008F0D7C0DE
:104500008093E9002091EB0020FFC8C0933031F484
:104510008091EB0080628093EB00C0C09091EB0033
:1045200090619093EB0021E030E001C0220F8A956A
:10453000EAF72093EA001092EA008091EB0088608D
:10454000EACF8111B4C0109190021F778091E300EF
:104550008078812B8093E3008091E800877F8093AF
:10456000E8000E943E208091E80080FFFCCF80910F
:10457000E30080688093E30082E0111183E0809380
:104580008D0295C08058823008F091C080919002D1
:10459000909191028C3D23E09207A1F583E08A83FC
:1045A0008AE289834FB7F894DE01139620E03EE05B
:1045B00051E2E32FF0E050935700E49120FF03C055
:1045C000E295EF703F5FEF708E2F90E0EA30C0F021
:1045D000C7968D939D932F5F243159F74FBF8091DC
:1045E000E800877F8093E8006AE270E0CE010196E0
:1045F0000E944D1F8091E8008B778093E80057C0A0
:10460000C096E7CF6091920270919302AE014F5F26
:104610005F4F0E948D1EBC01892B09F448C0909108
:10462000E800977F9093E80089819A810E94AB1FF0
:10463000E1CF8038E1F58091E800877F8093E80042
:10464000809189028093F10045CF811130C0909113
:104650009002923060F58091E800877F8093E800B7
:10466000909389020E943E2080918902882311F054
:1046700084E005C08091E30087FDFACF81E080935C
:104680008D020E94771D13C080919002813079F4D1
:1046900081E0933009F080E080938B021092E90072
:1046A0008091E800877F8093E8000E943E208091FF
:1046B000E80083FF0AC08091E800877F8093E800CC
:1046C0008091EB0080628093EB00AA96E3E00C946B
:1046D000DC230895CF9380918D028823A1F0C091AF
:1046E000E900CF709091EC00892F817090FD80E8F7
:1046F000C82B1092E9008091E80083FD0E942222DD
:10470000CF70C093E900CF9108950E948E2010923F
:104710008D020895E8EDF0E08081806180838AE178
:104720008A95F1F700C08091D9008170089597FBB8
:10473000072E16F4009407D077FD09D00E94E823D5
:1047400007FC05D03EF4909581959F4F0895709594
:1047500061957F4F0895EE0FFF1F0590F491E02DB6
:1047600009942F923F924F925F926F927F928F9215
:104770009F92AF92BF92CF92DF92EF92FF920F93F0
:104780001F93CF93DF93CDB7DEB7CA1BDB0B0FB6FA
:10479000F894DEBF0FBECDBF09942A8839884888B7
:1047A0005F846E847D848C849B84AA84B984C8844D
:1047B000DF80EE80FD800C811B81AA81B981CE0F44
:1047C000D11D0FB6F894DEBF0FBECDBFED01089529
:1047D000AA1BBB1B51E107C0AA1FBB1FA617B70727
:1047E00010F0A61BB70B881F991F5A95A9F7809543
:1047F0009095BC01CD010895FB01DC0104C08D91B1
:104800000190801921F441505040C8F7881B990B42
:104810000895FB01DC0102C001900D92415050400F
:10482000D8F70895F999FECF92BD81BDF89A9927DE
:1048300080B50895A8E1B0E042E050E00C94462431
:10484000262FF999FECF92BD81BDF89A019700B449
:10485000021639F01FBA20BD0FB6F894FA9AF99AE9
:104860000FBE08950396272F0E9421240E94202422
:10487000252F0E942124242F0C9421240196272FD8
:104880000E9421240C942024DC01CB01FC01F99925
:10489000FECF06C0F2BDE1BDF89A319600B40D928C
:1048A00041505040B8F70895F894FFCFDB03DB0385
:1048B0000C040C049904B5043B043B04C00431050A
:1048C0004005400546226E2257236E225723A1221F
:0848D000C222572319232523FE
:1048D80004020100000001000000000000000401C3
:1048E8000000000405000000000000280850011E18
:1048F8000A1401C81CED1CCC1C4A1D451DCB1C010B
:10490800E200E900EA00B500B600B700CD00830177
:10491800CC008A019201940121022302240225027B
:10492800260227022A02B300B4006F0070008182B9
:1049380083E200E900EA00B500B600B700CD0083C5
:1049480001CC008A0192019401210223022402254C
:1049580002260227022A02B300B4006F0070008109
:0E4968008283F6F73133323697C63435290292
:00000001FF
