:100000000C943C030C9464280C9459030C945903ED
:100010000C9459030C9459030C9459030C945903F0
:100020000C9459030C9459030C9458210C941421EA
:100030000C9455220C9459030C9459030C945903B5
:100040000C9459030C9459030C9459030C945903C0
:100050000C9459030C9431220C9459030C945903B9
:100060000C9459030C9459030C9459030C945903A0
:100070000C9459030C9459030C9459030C94590390
:100080000C9459030C9459030C9459030C94590380
:100090000C9459030C9459030C9459030C94590370
:1000A0000C9459030C9459030C945903050109024B
:1000B000A10185020901A1000509190129081500FE
:1000C0002501950875018102050109300931158165
:1000D000257F95027508810609381581257F9501D0
:1000E00075088106050C0A38021581257F95017572
:1000F000088106C0C005010980A101850319012AF4
:10010000B700150126B700950175108100C0050CD8
:100110000901A101850419012AA002150126A002E6
:10012000950175108100C00660FF0961A101096297
:10013000150026FF00952075088102096315002629
:10014000FF00952075089102C005010906A101056F
:100150000719E029E7150025019508750181029529
:1001600001750881010507190029FF150026FF0008
:100170009506750881000508190129059505750181
:100180009102950175039101C0000000000000007C
:10019000000000000000000000000000000000005F
:1001A000000000000000000000000000007E0F00C2
:1001B000D4FFFFFFC700000078000000000000002F
:1001C000002A2B28000000000000000000000000B2
:1001D0000000000029000000002C1E3420212224F1
:1001E000342627252E362D3738271E1F202122237F
:1001F0002425263333362E37381F04050607080911
:100200000A0B0C0D0E0F10111213141516171819D6
:100210001A1B1C1D2F3130232D3504050607080934
:100220000A0B0C0D0E0F10111213141516171819B6
:100230001A1B1C1D2F3130354C00047F3F1F6432C8
:1002400014643214783C1E1E140A050001010101D9
:100250000101010101020202020202020202030381
:100260000303030303030404040404040405050551
:100270000505060606060607070707070808080813
:10028000090909090A0A0A0B0B0B0C0C0C0D0D0DC0
:100290000E0E0E0F0F0F1010111111121213131456
:1002A00014151516161717181819191A1A1B1B1CCE
:1002B0001D1D1E1E1F202021222223242425262628
:1002C000272829292A2B2C2D2D2E2F30313232335D
:1002D0003435363738393A3B3C3D3E3F4041424366
:1002E0004445464748494A4C4D4E4F50515354554A
:1002F0005658595A5B5D5E5F616264656668696BFA
:100300006C6D6F7072737577787A7B7D7E80828377
:100310008587888A8C8E8F91939596989A9C9EA0BB
:10032000A2A3A5A7A9ABADAFB1B3B5B7BABCBEC0C8
:10033000C2C4C6C9CBCDCFD1D4D6D8DBDDDFE2E491
:10034000E7E9EBEEF0F3F5F8FAFDFFFFAA7F554081
:100350002223252628292A2C2D2F303233353638D2
:100360003A3B3D3E4042434547494A4C4E5051532B
:100370005557595A5C5E6062646668696B6D6F714F
:10038000737577797B7D7F81838587898A8C8E9051
:10039000929496989A9C9E9FA1A3A5A7A8AAACAE5A
:1003A000AFB1B3B4B6B8B9BBBCBEBFC1C2C3C5C69A
:1003B000C7C9CACBCCCDCED0D1D2D2D3D4D5D6D743
:1003C000D7D8D9D9DADADBDBDBDCDCDCDCDCDDDD81
:1003D000DDDDDCDCDCDCDCDBDBDBDADAD9D9D8D771
:1003E000D7D6D5D4D3D2D2D1D0CECDCCCBCAC9C713
:1003F000C6C5C3C2C1BFBEBCBBB9B8B6B4B3B1AF4A
:10040000AEACAAA8A7A5A3A19F9E9C9A98969492E9
:10041000908E8C8A89878583817F7D7B79777573C0
:10042000716F6D6B6968666462605E5C5A5957559E
:100430005351504E4C4A4947454342403E3D3B3A5A
:100440003836353332302F2D2C2A292826252322E1
:100450002B0014001A0008001500170029000400E2
:100460001600070009000A00E1001D001B0006003D
:1004700019000500005CE000E200E30001512C00DF
:100480002A00130012000C0018001C003400330076
:100490000F000E000D000B0028003800370036005A
:1004A000100011004F0052005100500002512C006A
:1004B00035021E021F022002210222024C003A00D5
:1004C0003B003C003D003E00010040004100420076
:1004D000430044000100010001000100010001008F
:1004E0004C00270226022502240223023102300298
:1004F0002F022E022D023F000100010001006402C4
:1005000032024500AE00A900AA00AB000351010071
:1005100035001E001F002000210022004C003A0080
:100520003B003C003D003E00010040004100420015
:10053000430044000100010001000100010001002E
:100540004C00270026002500240023003100300045
:100550002F002E002D003F0001000100010064006B
:1005600032004500AE00A900AA00AB000100010066
:100570000100005C01000100010001000100010018
:10058000C35C1D5C1E5C135C0100010001000100E6
:100590000100010001000100010001000100010053
:1005A0004C000100010001000100010001000100F8
:1005B0000100010001000A5C0100010001000100CE
:1005C0000100010001000100010001000100010023
:1005D00009025B00030100A0FA0904000001030105
:1005E00001000921110100012240000705810308D3
:1005F00000010904010002030000000921110100AB
:1006000001222200070582032000010705030320C1
:10061000000109040200010300000009211101008A
:1006200001227B0007058403200001120100020063
:10063000000008776F02000200010200011C034C59
:10064000006500740073002000530070006C0069A6
:100650000074002000760032000000160357006F7F
:10066000006F0074007000610074006F006F007410
:10067000000000040309040011241FBECFEFDAE0DC
:10068000DEBFCDBF11E0A0E0B1E0EEEDF5E502C0C8
:1006900005900D92A63AB107D9F722E0A6EAB1E09B
:1006A00001C01D92A23BB207E1F70E947C220C948C
:1006B000C42A0C940000FC01AC014C5F5F4F8FEF2B
:1006C00091E32191822728E030E087FF09C0880F5D
:1006D000892721503109C9F7E417F50791F70895E3
:1006E000880FF7CFE8EDF0E080818E7F8083109255
:1006F000E2001092DA001092E100A0EEB0E08C91DE
:1007000081608C9380818F77808319BCA7EDB0E0E6
:100710008C918E7F8C9380818F7E80831092970244
:1007200008952091E4003091E50095E6A90120911B
:10073000EC00822F817020FF06C08091E80080FFCE
:1007400006C080E008952091E80022FD1AC0809143
:10075000A402882389F0853089F08091EB0085FD23
:100760000FC02091E4003091E50042175307F9F2E1
:100770009150E1F684E0089582E0089583E00895C1
:1007800081E00895EF92FF920F931F93CF937C0126
:100790008B010E949103C82F811117C08091E8003E
:1007A00085FD0BC08091E8008E778093E8000E9461
:1007B0009103882399F3C82F08C0F70181917F0125
:1007C0008093F1000150110949F78C2FCF911F91AF
:1007D0000F91FF90EF9008958091A60287FF13C0BC
:1007E0008091E80082FF06C08091E8008B778093BB
:1007F000E80004C08091A4028111F2CF0895809195
:10080000A4028823D9F38091E80080FFF8CF80917B
:10081000E8008E77ECCF982F9093E900242F762F65
:1008200050E0891731F07091EC002091ED0050916B
:10083000F00021FD07C09F5F973071F78093E900BA
:1008400081E008953091EB003E7F3093EB003091D2
:10085000ED003D7F3093ED003091EB00316030933F
:10086000EB007093EC002093ED005093F00020918A
:10087000EE0027FDE0CF80E00895B0E0A0E0E3E4E3
:10088000F4E00C948A29C8EDD0E088818F7E8883BB
:10089000E7EDF0E080818160808384E082BF81E0C9
:1008A0008093970288818E7F888302EE10E0F801A2
:1008B00010821092DA0081EEC82ED12CF60110823F
:1008C00088818F77888388818068888388818F7DFD
:1008D000888319BC1092A4021092A5021092A30260
:1008E0001092A20290EEE92EF12CF70180818B7F0D
:1008F000808388818160888342E060E080E00E949C
:100900000B04F60180818E7F8083F80180818160F5
:100910008083808188608083F70180818E7F8083DF
:10092000888180618883CDB7DEB7E8E00C94A62982
:10093000FC018091AC029091AD0286179707A0F060
:100940006115710529F49091E8009E779093E80075
:1009500090E06115710551F4911108C08091E80093
:1009600082FF34C080E00895BC01F2CF8091A402E0
:100970008823C1F18530C1F18091E80083FD30C04A
:100980008091E80082FDEACF8091E80080FFE1CF0E
:100990008091F3002091F200382F6115710519F054
:1009A0002830310558F091E02830310509F090E009
:1009B0002091E8002E772093E800CBCF819180939F
:1009C000F100615071092F5F3F4FE7CF8091A40282
:1009D000882341F0853041F08091E80083FFBECF4D
:1009E00081E0089582E0089583E00895089580915C
:1009F0009902089587E797E790930108809300088C
:100A000088E19AE00FB6F894A895809360000FBE35
:100A100090936000FFCF9C014FB7F89480919002B3
:100A200090919102A0919202B09193024FBF821BCC
:100A3000930B08952FB7F8946091900270919102F2
:100A400080919202909193022FBF08952FB7F8944E
:100A50008091900290919102A0919202B0919302A4
:100A60002FBF089520918D0230918E0228173907EB
:100A700071F090938E0280938D02E0918B02F09141
:100A80008C02309721F00084F185E02D09950895BE
:100A90002091890230918A022817390771F09093CA
:100AA0008A0280938902E0918B02F0918C02309748
:100AB00021F00680F781E02D09950895FA01811152
:100AC00001C0FB0109950895089580918402982F33
:100AD0009E7F29F4817082608093840208958A3415
:100AE000E8F381708864F8CFAF92BF92DF92EF9203
:100AF000FF920F931F93CF93DF93082F162FE901D7
:100B0000E42FF0E0E55BFD4F611110C0E4915E2F32
:100B10004E2F4983E8835A83DF91CF911F910F9124
:100B2000FF90EF90DF90BF90AF900895E62EF12CEC
:100B30004491D42EE42FF0E026E0829FC0011124DE
:100B40002FEF30E0B9010E94C529802F90E0880F77
:100B5000991F55E5569FD001579FB00D11248A1B50
:100B60009B0B982F990F890F5901AE18BF08AE9EA5
:100B7000D001AF9EB00DBE9EB00D11245B2F189F0B
:100B800080011124012F11275901A01AB10AAE9E2C
:100B90008001AF9E100DBE9E100D11245901A81AA0
:100BA000B108AE9CC001AF9C900DBE9C900D11246D
:100BB000892F9927281B390B2E9FC0012F9F900D3D
:100BC0003E9F900D1124E92F62307105A1F050F481
:100BD0006115710509F49DCF6130710581F0EB2F2E
:100BE000512F97CF6430710569F080F06630710540
:100BF00009F48FCFF4CFE42F4B2F592F8ACFE42F56
:100C0000412F87CFEB2F542F492F83CF4B2F5D2DB3
:100C1000E12F7FCF0E9426059C0190915702809181
:100C20005802982B21F03093540220935302909154
:100C3000590280915A02982B21F03093520220934E
:100C40005102E0918B02F0918C02309749F082E0E2
:100C5000809355020480F581E02D85E592E00995A9
:100C6000089540915702803F59F48091580287FFC0
:100C70000DC01092580241110BC010924F0208C0D3
:100C8000813F81F48091580218169CF3442381F02F
:100C90008091590290915A02892B09F05AC0109202
:100CA0004E020895823F49F447FFF0CF1092570259
:100CB000809158028111ECCFE0CF833F19F41416D4
:100CC000ACF3E4CF90915902893F29F41916F4F658
:100CD00010925902DBCF8A3F19F497FFD7CFF8CF94
:100CE00090915A028B3F29F497FFD0CF10925A026D
:100CF000CDCF8C3F19F41916CCF3C8CF9CE0980FD8
:100D0000953090F4845F990B21E030E0B90102C086
:100D1000660F771F8A95E2F7CB0180959091560276
:100D2000892380935602B2CF8D3F31F480915002D7
:100D30008E7F80935002AACF8E3F21F48091500283
:100D40008D7FF7CF8F3F09F0A1CF809150028B7F2D
:100D5000F0CF08958091500280FD16C081FD16C02D
:100D600082FD16C080914E028823A1F0883280F463
:100D700028E0829FC001112468E270E00E94D92916
:100D8000862F672B39F0089582E0089584E0089556
:100D900088E0089581E008958091500280FD14C09C
:100DA00081FD14C082FD16C080914F02882381F01E
:100DB0008E3180F420E5829FC00111246EE170E045
:100DC0000E94D929862F089584E1089588E2089524
:100DD00088E0089580E50895803F31F40E94CC06B4
:100DE0008195809358020895813F19F40E94CC06A2
:100DF000F8CF823F31F40E94CC0681958093570250
:100E00000895833F19F40E94CC06F8CF893F29F456
:100E10000E94AA068093590208958A3F21F40E94F5
:100E2000AA068195F7CF8B3F31F40E94AA068195DF
:100E300080935A0208958C3F19F40E94AA06F8CFB5
:100E40009CE0980F953070F4845F990B21E030E0BE
:100E500001C0220F8A95EAF780915602822B809377
:100E6000560208958D3F31F4809150028160809345
:100E7000500208958E3F21F4809150028260F7CF96
:100E80008F3FB9F7809150028460F1CF80E00895E0
:100E9000F894E82FE295EF70F0E031A1282F2F7041
:100EA00081E090E001C0880F2A95EAF7982F90958D
:100EB000932391A392A1892B82A378940895909172
:100EC000370292FF06C0282F28712830F9F4877F57
:100ED000846093FF06C0282F28712831F1F4877EA3
:100EE00084612091380220FF06C0382F38713830D5
:100EF000D9F4877F816021FF06C0282F287128310F
:100F0000D1F4877E816194FD877E0895282F247116
:100F10002430F9F68B7F8860DCCF282F24712431B0
:100F200001F78B7E8861DDCF382F3171313019F7B1
:100F30008E7F8860E0CF282F2171213121F78E7EAE
:100F40008861E1CFCF93DF93EC0182389105B1F155
:100F500008F040C08133910509F49DC048F58932FD
:100F6000910509F48DC08A9709F49CC0C11521E54B
:100F7000D20708F0C3C0C11530E5D30708F01EC181
:100F8000C83ED10508F0A3C0C13ED10588F5C83AD6
:100F9000D10508F08EC0C53AD10508F007C1C130AF
:100FA000D10531F1209721F1C430D10508F545C0B4
:100FB0008533910509F45FC0C997C1F68091370266
:100FC000837009F043C18091380283FF11C0C9E2E8
:100FD000D0E00EC0833E910599F170F4803E9105FA
:100FE00001F1823E910511F68091370282FD21C008
:100FF000CE01DF91CF910895863E910561F1873E44
:10100000910571F1843E910509F0B0CF80913802CD
:1010100081FFEECF80913702C7EED0E084FD0DC096
:10102000E7CF8091370280FD33C09091380290FF66
:10103000DFCFC3EED0E084FFDBCFD0E0C0E0D8CF7D
:101040008091370282FDFFC09091380290FDFEC072
:1010500084FFCECFF2CF8091370283FDDDCFC8CFA2
:101060008091370283FDF5C09091380291FFF0CF57
:10107000C4EED0E0BDCF8091370285FFB9CFA7CFB6
:101080008091370285FDE8C08091380283FFB0CFA0
:10109000C9E3D0E0ADCF8091370286FFA9CFCAE285
:1010A000D0E0A6CF8091370286FFA2CFC1E3D0E087
:1010B0009FCFCF3BD10508F6C85AD0E0CC0FDD1F3B
:1010C000C95CDE4F0990D881C02DD46491CFC11581
:1010D00040E2D40758F4C11581E0D80708F088CF62
:1010E000C03FD10508F4A9CFD06582CFC11520E457
:1010F000D20708F4A2CFDF70D06A7ACFC11535E5E8
:10110000D30718F5C11544E5D40708F084C0C1150C
:1011100083E5D80708F06BC0C11522E5D20708F4B3
:1011200061C0CE018370992721E030E002C0220F18
:10113000331F8A95E2F7C695C69580E2C89FE00105
:101140001124C22BD32BDC6853CFC11539E5D3074B
:10115000A8F4C11548E5D40708F062C0C11586E5BA
:10116000D80708F06ACF8C2F0E945F07C82FD0E005
:10117000DC2FCC27CC27DF71D0623ACFC1152AE50E
:10118000D20708F452C0CE0190568115904208F063
:1011900054CF8D2F8F710E945F0790E0982F882782
:1011A00088279F719C012C2BE901E6CFC55AD0E01E
:1011B000CC5CDE4FC881D0E0D0641ACFCE01837002
:1011C000992721E030E002C0220F331F8A95E2F711
:1011D000C695C69540E2C49FE0011124C22BD32BD3
:1011E000DD6806CFDC2FCC27C16FD06A01CFCE01DE
:1011F0008370992721E030E002C0220F331F8A95C7
:10120000E2F7C695C69540E2C49FE0011124C22BC7
:10121000D32BDA68EDCEDC2FCC27C46FD06AE8CEB2
:10122000DC2FCC27C06FD06AE3CE8C2F8F700E944A
:101230005F0734E0D695C7953A95E1F7CF709C2FBC
:10124000EC01D069D5CEC2EED0E0D2CEC0EED0E077
:10125000CFCEC6EED0E0CCCEC5E3D0E0C9CE8091F3
:101260000602811110920602089580959091050260
:101270009823909305020895EAEAF1E09191891389
:1012800003C0DF0111971C9291E0E03BF907B1F731
:101290000895AAEAB1E0EFEF90E02D91821751F0A6
:1012A000EF3F19F4211101C0E92F9F5F9630A9F794
:1012B000EF3F09F408950E2E000CFF0BE855FE4F8A
:1012C000828308958091FA019091C901981301C019
:1012D00008958F5F8770FACF292F983078F5863080
:1012E00068F590E036E0239F800D911D1124682F52
:1012F000677023E0969587952A95E1F7FC01EE0F3C
:10130000FF1FE80FF91FEF54FE4F50E040E080E070
:10131000219130E0062E02C0369527950A94E2F717
:1013200021703327042E01C0220F0A94EAF7822B82
:101330004F5F5F4F4330510559F7089580E008959E
:10134000292F983098F5863088F590E036E0239F75
:10135000800D911D1124282F277041E001C0440FFA
:101360002A95EAF723E0969587952A95E1F7FC01FF
:10137000EE0FFF1FE80FF91FEF54FE4F30E020E0A3
:1013800070E05191DF011197CB01022E02C09695BA
:1013900087950A94E2F781708195852784238527B4
:1013A0008C932F5F3F4F2330310559F70895809379
:1013B000940270939602609395028091A402843007
:1013C000F9F48093E9008FEF9091E800815095FD4A
:1013D00006C095ED9A95F1F700008111F5CF809147
:1013E000E80085FF0DC050E040E063E070E084E974
:1013F00092E00E94C2038091E8008E778093E8001B
:101400000895BC0184E00E94D7090895BC0183E0DF
:101410000E94D70908959C0184E08093E9009FEF22
:101420008091E800915085FD06C085ED8A95F1F721
:1014300000009111F5CF8091E80085FF0CC050E0CD
:1014400040E066E070E0C9010E94C2038091E800BC
:101450008E778093E8000895CF93DF93EC0181E0CD
:101460008093E9008FEF9091E800815095FD06C0D0
:1014700095ED9A95F1F700008111F5CF8091E80084
:1014800085FF14C050E040E068E070E0CE010E94AB
:10149000C2038091E8008E778093E80088E0FE0127
:1014A000AAE9B2E001900D928A95E1F7DF91CF9120
:1014B00008958091840280FD0AC0E6E6F2E0118280
:1014C00010821282339652E0E438F507C1F7539A3E
:1014D0003BB1377F2BB128604FB7F89486E692E096
:1014E000FC015191CF0168E02BB9000000C057FF0B
:1014F0003BB9550F000000C000C000C03BB900C0A0
:101500006A9591F7F2E084389F0751F74FBF8FE556
:1015100094E00197F1F700C000000895EF92FF9268
:101520000F931F93CF93DF938C01C6E6D2E0F12C8B
:10153000E12CF80194816091860280918502F5E0AA
:10154000EF16F104ECF49923E9F09E014091870233
:101550000E9474052FEFE21AF20A23968AE0E81639
:10156000F10439F70E94590AF801848190E001964C
:10157000817099278483CDB7DEB7E6E00C94A82963
:10158000992319F39E0140E0E3CFB0E0A0E0EBEC3B
:10159000FAE00C948629EC014C81042F10E09801AC
:1015A000D8010E94242A9B01AC010E943A2A4B01D7
:1015B0005C01E0E2F0E0E01BF10BA5E5B0E0AC017E
:1015C0009B010E943A2A6B017C019F01DF010E946E
:1015D0001C2A9B01AC010E94452A9B01AC01280DED
:1015E000391D4A1D5B1DC701B6010E94ED29F22E6F
:1015F000822F90E039E23F1598F143E0249F90015B
:10160000112435952795122F109596E6C92E92E054
:10161000D92E00E085E5E82EEF188E2D01FD8F2DE7
:101620009601412F609186020E9474050F5F53E07E
:10163000C50ED11C0A3089F70E94590A9C8181E0AD
:10164000992319F0903219F48FEF80933201809131
:101650003201890F8C83CDB7DEB7ECE00C94A22960
:1016600025E530E0A901481B590BCA019A01220F58
:10167000331F280F391F37FFC4CF2F5F3F4FC1CF14
:101680000F931F93CF93DF93C6E6D2E0FE01118242
:1016900010821282339682E0E438F807C1F710E036
:1016A00000E080916402082E000C990B08171907BE
:1016B0008CF180913101082E000C990B8017910755
:1016C0004CF19E01409187026091860280918502D3
:1016D0000E9474050F5F1F4F23960A30110509F70A
:1016E0000E94590A8091300190916402980F909362
:1016F000640220913101280F20933101121614F455
:1017000099301CF0819580933001DF91CF911F912A
:101710000F910895198218821A82DCCFB0E0A0E000
:10172000E4E9FBE00C948929FC018281DD24DA9450
:1017300080FD02C0DD24D39406E612E0D0E0C0E0D4
:101740002AE0B22EF80111821082128294E0E92E72
:10175000F12CC12C809163028C0D8B30C4F16B2D68
:101760000E94B729892F082E000C990B8C179D0712
:1017700091F4809187028E9DA0018F9D500D1124C0
:1017800055954795559547959801609186028091AA
:1017900085020E947405CD0CF1E0EF1AF108D1F634
:1017A00021960D5F1F4FCA30D10561F60E94590A7C
:1017B0008091630291E0D91210C081110CC089E0C0
:1017C00080936302CDB7DEB7E9E00C94A52987FFCB
:1017D000CACF865FC8CF8150F3CF90E00196BE019B
:1017E0000E94D929EDCFEF92FF921F93CF93DF9301
:1017F000EC0186E6E82E82E0F82E10E08C8197015D
:101800004091870260918602810F0E947405175EE5
:1018100083E0E80EF11C1A3F89F70E94590A9A8169
:101820008C8190FF08C08F5F8C83DF91CF911F91D7
:10183000FF90EF9008958150F7CF9091840290FF30
:101840000CC0E6E6F2E0818360834283339692E047
:10185000E438F907C1F70E94590A0895A3E0B0E0FF
:10186000E4E3FCE00C948E298C01809165028111E7
:101870000AC09E012F5F3F4F4FEF6FEF0E9474052C
:101880008A8180936502F8016481613069F08091FA
:10189000650240E0662361F040E0623011F440915F
:1018A000650280E060E004C06091650240E080E095
:1018B0000E941D0CF801848190E0019663E070E0C5
:1018C0000E94D92984832396E4E00C94AA29A3E0FA
:1018D000B0E0EDE6FCE00C9490299091840290FF3A
:1018E0000AC09E012F5F3F4F0E9474054B816981A2
:1018F0008A810E941D0C2396E2E00C94AC29CF93C0
:10190000DF93EC01E4E8F2E0438162818C810E9484
:10191000670C8C818F5F8C83DF91CF910895CF937B
:10192000DF93EC01EC81F0E0E05BFC4F4491E4E8F4
:10193000F2E0628181810E94670C8C818F5F8C83D1
:10194000DF91CF910895B0E0A0E0E9EAFCE00C94CB
:1019500088297C015B016A018091280201E010E086
:101960008A3010F40AE010E0C1E0D0E0B501C70110
:10197000F6010995811104C021960C171D072CF45E
:10198000CDB7DEB7EAE00C94A429CC9F9001CD9F9F
:10199000300D300D112490E080E045E34A95F1F7D9
:1019A0000000019682179307C1F7E0CF80911202E1
:1019B000811110C08091D80080618093D8008AE1A5
:1019C0008A95F1F700C08091D90080FF0AC081E0BC
:1019D0008093120281E090911202913009F080E030
:1019E000089582E0809312020E9472031092A40272
:1019F000F1CF0E94D60C882359F0E0918B02F09130
:101A00008C02309729F00190F081E02D099508951E
:101A100080E008950F931F930E94D60C882329F02D
:101A20000E941A051F910F9108950E941A050091B6
:101A3000290210912A0220912B0230912C02600F72
:101A4000711F821F931FEECF0E94D60C882319F0BE
:101A50000E94260508950E940A0DCB010895CF9398
:101A6000DF93C7EAD1E060E0CE010E946D2A2196A3
:101A7000C11584E0D807B9F7DF91CF9108951F937E
:101A8000CF93DF93122F8430E0F46830D0F44630E7
:101A9000C0F4C42FD0E0CC0FDD1F9CE0699FC00DC7
:101AA000D11D112490E6899FC00DD11D1124632FF3
:101AB000CE0187960E946D2A612FCE0188960E94E2
:101AC0006D2ADF91CF911F910895AF92BF92CF926F
:101AD000DF92EF92FF921F93CF93DF9380E5C82EA2
:101AE00084E0D82ED0E07601C0E014C0F501259145
:101AF0003491412F6C2F8D2F0E943F0D82E0A80E54
:101B0000B11C1F5F163091F78CE0E80EF11CCF5F1F
:101B1000C83019F0570110E0E9CFDF5F80E6C80E4A
:101B2000D11CD43001F7DF91CF911F91FF90EF903E
:101B3000DF90CF90BF90AF900895CF93C82F6FEFF5
:101B4000811163E283E290E00E946D2A6FEFC11180
:101B500063E084E290E00E946D2A6FEFC11169E1B9
:101B600085E290E00E946D2ACF91089580E00E9466
:101B70009D0D60E086E290E00E946D2A0E94650D56
:101B80000E942F0D81E00E949D0D08950F931F93D9
:101B9000CF93DF93843030F5683020F5463010F570
:101BA000C42FD0E0CC0FDD1F2CE0629FC00DD11DF3
:101BB000112430E6839FC00DD11D1124CE018796DC
:101BC0000E94592A082F10E0102F0027CE01889676
:101BD0000E94592A9801282BC901DF91CF911F91AA
:101BE0000F91089590E080E0F8CF462F843040F4C4
:101BF000783030F4663020F4672F0E94C60D0895C7
:101C000090E080E00895CF92DF92FF920F931F93B0
:101C1000CF93DF936C010091B10280910702082BF2
:101C2000C7E0D0E010E0FC2EC8010C2E02C0959554
:101C300087950A94E2F780FD0CC02197A0F7F12C5C
:101C40008F2DDF91CF911F910F91FF90DF90CF905B
:101C50000895B6018C2F0E94F50D0E94A2070197EE
:101C600061F3EECFCF93DF93EC010E94030EBE0130
:101C70000E94F50D0E94A207DF91CF910895FC010B
:101C800083819481892B29F08081918189238F3FE1
:101C900051F480E00895843FE1F717C0883EA8F032
:101CA000813FB9F712C0808191810E94320E9295D6
:101CB0009F70963099F358F4925F9F70923048F776
:101CC000803F19F040F7883E20F781E008959A5F41
:101CD000F4CF83E290E00E94592A833289F484E2AF
:101CE00090E00E94592A833059F485E290E00E94E6
:101CF000592A91E0893109F090E0892F8170089587
:101D000080E0FCCFCF9384E090E00E94592AC82F56
:101D100082E290E00E94592A982F8C2FCF9108954B
:101D2000CF92DF92EF92FF926B017C010E946505DA
:101D3000B701A60188E090E00E947F2AFF90EF9013
:101D4000DF90CF900895A3E0B0E0E9EAFEE00C94C4
:101D50008329F82E762EE42E622E9091840290FF35
:101D600029C0E92FE695AE2FB0E0AF58BE4F8C9159
:101D7000809361029E7F923009F59E012F5F3F4F55
:101D80008F2D0E9474054B8169818A810E941D0CF0
:101D9000F092850270928602E0928702662051F0EE
:101DA00060918402709185028091860290918702F1
:101DB0000E94900E2396EFE00C949F29823019F434
:101DC000E0908702E5CF863019F4F0908502E0CFED
:101DD0008930D9F38931E1F6E9518E2F8170582E7F
:101DE000E695F0E0E55BFC4FE4910E2F10E086E60F
:101DF000C82E82E0D82EB12CA12C9AE0892E912CED
:101E0000C501B4010E94C5298F2D511013C0860F42
:101E100096014E2D672D0E947405A00EB11E83E021
:101E2000C80ED11C84E8C81682E0D80649F70E9483
:101E3000590AAECF861BECCFE4E8F2E0438121E102
:101E4000421B08F440E021E0628181810E94A30EE0
:101E50000895E4E8F2E0438121E1420F08F44FEFF6
:101E600021E0628181810E94A30E0895E4E8F2E0FE
:101E7000628121E1621B08F460E021E043818181FD
:101E80000E94A30E0895E4E8F2E0628121E1620F6E
:101E900008F46FEF21E0438181810E94A30E089531
:101EA000E4E8F2E0818121E04381628188500E9470
:101EB000A30E0895E4E8F2E0818121E0438162818C
:101EC000885F0E94A30E089580918802882319F0EC
:101ED0008150809388026091840270918502809184
:101EE0008602909187020E94900E08958091880248
:101EF000833018F48F5F8093880260918402709120
:101F0000850280918602909187020E94900E08952A
:101F10009091840290FF2CC0917081112AC0926030
:101F200090938402662351F060918402709185023F
:101F300080918602909187020E94900E60918402A7
:101F4000669570E04BE050E085E291E00E94A12AA6
:101F5000892BB1F01092620281E080935E0220E052
:101F60004091870260918602809185020E94A30EB3
:101F70000895853210F09864D3CF880F982BD0CF76
:101F800081E0809362020E94240D90935C02809312
:101F90005B02E2CF809184028695815009F484E24D
:101FA00061E00E94880F08958091840286958F5F7A
:101FB000853208F081E061E00E94880F08959091D9
:101FC000840290FF08C09695981728F0961718F489
:101FD0000E94D40F089561E00E94880F0895E4E8FC
:101FE000F2E083E0808311828FEF82838383148207
:101FF00060817181828193810E94900E0895809109
:10200000050290910402892B8093A8019091060209
:10201000992391F0892B8093A80120E08AEA91E02E
:10202000FC013191CF0131112F5FF1E0803B9F071F
:10203000B9F721110E942F0948E050E06CEF71E0E0
:1020400088EA91E00E94AE2A892BA9F088E0E8EAAC
:10205000F1E0ACEFB1E001900D928A95E1F7E091EB
:102060008B02F0918C02309731F00280F381E02DE9
:1020700088EA91E00995089590E080E00E94480583
:1020800090E080E00E943205109204020E94FF0F4F
:1020900086E0E5E5F2E0DF011D928A95E9F710920E
:1020A0004F0210924E02109250020E940A060895AA
:1020B0008093B1020E943C1008958091B102982F44
:1020C0009670963021F488600E9458100895877F9A
:1020D000FBCF21E030E001C0220F8A95EAF720957E
:1020E0008091B10282230E94581008959091FB01C3
:1020F000809589238093FB01282F277091F4282F46
:10210000082E000C330B9217130659F090913802E9
:1021100092FF07C08595859585950E94691010925C
:10212000FB010895CF93C0913802C2FB992790F923
:10213000981791F080FBC2F9C09338026091370282
:1021400084E090E00E946D2A6C2F82E290E00E9471
:102150006D2A82E00E947610CF91089521E030E050
:1021600001C0220F8A95EAF78091B102822B0E946A
:1021700058100895809307020E943C100895882308
:1021800021F00E9435090E94FF0F0895882339F03D
:1021900090910502982B909305020E94FF0F0895DD
:1021A000882309F455C0823879F40E94F90C81FF24
:1021B0004FC089E30E9449090E94FF0F89E30E94F2
:1021C0003C090E94FF0F0895833859F40E94F90CCE
:1021D00080FF3EC083E50E9449090E94FF0F83E50E
:1021E000EECF843859F40E94F90C82FF31C087E4A5
:1021F0000E9449090E94FF0F87E4E1CF9CEF980FEE
:10220000913AE8F290E2980F983050F4877091E09C
:1022100001C0990F8A95EAF7892F0E943509D1CF1D
:102220009BE5980F933028F490E080E00E944805E9
:10223000089598E5980F973128F490E080E00E9487
:1022400032050895803F20F00E9431060E940A0660
:102250000895CF93C82F8823C9F08238C9F40E940B
:10226000F90C81FD13C089E30E9449090E94FF0F08
:102270002FEF87EE93E0215080409040E1F700C0BF
:10228000000089E30E943C090E94FF0FCF9108954E
:102290008338A1F40E94F90C80FDF8CF83E50E94F9
:1022A00049090E94FF0F2FEF81EE94E021508040FA
:1022B0009040E1F700C0000083E5E4CF8438A1F44A
:1022C0000E94F90C82FDE2CF87E40E9449090E9436
:1022D000FF0F2FEF81EE94E0215080409040E1F716
:1022E00000C0000087E4CECF8CEF8C0F813A68F4F9
:1022F000EAEAF1E08191C817E1F121E0E03BF20761
:10230000C9F78C2F0E944909BFCF80E28C0F88301B
:1023100068F4C77021E030E001C0220FCA95EAF7E7
:1023200080910502822B80930502AECFEBE5EC0F86
:10233000E33040F4F0E0EC5CFE4F808190E00E94DE
:102340004805A4CFE8E5EC0FE73150F4F0E0EE0FDC
:10235000FF1FE95CFE4F808191810E94320596CF7C
:10236000C03F08F493CF8C2F0E94EC060E940A060F
:102370008DCF8C2F0E943C090E94FF0FC2CF1F936C
:10238000CF93DF93182FD0E0C0E0893311F4C0E57C
:10239000D0E0812F0E942911209739F4812F0E94CB
:1023A000D010DF91CF911F9108958FE99FE00197A1
:1023B000F1F700C000002197EFCF0F931F93CF9349
:1023C000DF93C62FD42F022FFC0182818823A9F02E
:1023D0006093B0020E9426059093AF028093AE02F4
:1023E000C77081E001C0880FCA95EAF70E94C61045
:1023F000DF91CF911F910F9108958091B0026813E2
:1024000032C08091AE029091AF020E940B05883CD1
:10241000910548F510E21D0FCD17B9F080E28C0F41
:10242000883040F4C77081E001C0880FCA95EAF790
:102430000E94BF10183048F481E09D2F977001C0B2
:10244000880F9A95EAF70E94C610802F0E94BF114C
:10245000183070F6D77081E001C0880FDA95EAF77E
:102460000E94BF10C5CFC77081E001C0880FCA9518
:10247000EAF7F6CF68EE7EEF90E080E00E948B2ACC
:1024800060E082E090E00E946D2A60E083E090E0EE
:102490000E946D2A1092070260E084E090E00E94A2
:1024A0006D2A64E082E290E00E946D2A60E085E09F
:1024B00090E00E946D2A60E086E090E00E946D2A24
:1024C0006FEF87E090E00E946D2A40E050E0BA0193
:1024D00088E090E00E947F2A60E08DE090E00E941A
:1024E0006D2A40E050E0BA0188E190E00E947F2A26
:1024F00060E087E190E00E946D2A40E050E0BA0180
:102500008CE190E00E947F2A70E060E080E290E041
:102510000E948B2A40E050E0BA0188E190E00E94DE
:102520007F2A80E00E949D0D0E94B60D40E050E0A1
:10253000BA018FE090E00E947F2A40E050E0BA01AB
:1025400083E190E00E947F2A089510920502EAEA52
:10255000F1E086E0DF011D928A95E9F70E943C10C8
:102560000895AAE2B0E0E7EBF2E10C948F2986EA45
:1025700092E02091F100DC012D93CD01B2E08E3A82
:102580009B07B9F78091A702833009F472C0B8F4B1
:10259000813009F449C0823009F4B3C08091E80069
:1025A00083FF8BC28091A6029091A7029A3008F017
:1025B00084C2E92FF0E0EA53F54D0C940F2A8A30DB
:1025C00009F48EC08B3009F471C0893039F78091DD
:1025D000A602813219F78091AA029091AB0200976E
:1025E00011F00297D9F68091E800877F8093E80088
:1025F0008091E80082FF38C09091F3008091F20052
:10260000029731F48091F100813011F0863021F48D
:102610008091F100809399028091E8008B778093FC
:10262000E8000E94EC03BACF8091A602813A09F03B
:10263000B5CF8091E800877F8093E8008091AA025F
:102640009091AB02892B61F468E08AE992E070E036
:102650000E9498048091E8008B778093E8009ECFD9
:1026600060E090E080E0F3CF8091A4028111C0CFC0
:1026700095CF8091A602813A09F090CF8091AA026D
:102680009091AB02892B09F089CF8091E800877F78
:102690008093E8008091E80080FFFCCF80913301B7
:1026A0008093F1008091E8008E77B9CF8091A602E7
:1026B000813209F073CF8091AA029091AB02892BED
:1026C00009F06CCF8091E800877F8093E8000E943A
:1026D000EC038091A802809333010E94A5125ECF83
:1026E0008091A602813209F059CF8091E800877F5E
:1026F0008093E8000E94EC038091A90280939802E5
:102700004DCF8091A602813A09F048CF8091E80030
:10271000877F8093E8008091E80080FFFCCF809164
:102720009802BECF803899F0823809F0C6C18091F6
:10273000AA028F70873008F0C0C18093E9008091B1
:10274000EB0085FB882780F91092E90006C0809194
:10275000A2029091A302911182609091E800977F6C
:102760009093E8008093F1001092F1008091E800CE
:102770008E779FC1882309F48DC1823009F09DC1F5
:102780008091A802811190C18091AA028F702FEFD1
:10279000280F263008F091C18093E9002091EB00CA
:1027A00020FF82C1933031F48091EB0080628093EE
:1027B000EB007AC19091EB0090619093EB0021E0E7
:1027C00030E001C0220F8A95EAF72093EA001092C8
:1027D000EA008091EB008860EACF81116EC1109110
:1027E000A8021F778091E3008078812B8093E3001B
:1027F0008091E800877F8093E8000E94EC0380913D
:10280000E80080FFFCCF8091E30080688093E300C4
:1028100082E0111183E08093A4024FC1805882307E
:1028200008F04BC12091A8023091A9022C3DE3E0B1
:102830003E07A1F583E08A838AE289834FB7F89443
:10284000DE01139620E03EE051E2E32FF0E05093EA
:102850005700E49120FF03C0E295EF703F5FEF70F7
:102860008E2F90E0EA30C0F0C7968D939D932F5F36
:10287000243159F74FBF8091E800877F8093E800AB
:102880006AE270E0CE0101960E9498048091E8000F
:102890008B778093E80011C1C096E7CF8091AA02A0
:1028A0009091AB02432F55274330510509F44AC09C
:1028B00078F54130510509F47AC08BE590E0E0ED00
:1028C000F5E04230510509F0F8C02091E800277F7B
:1028D0002093E8002091AC023091AD02821793075B
:1028E00008F49C0140E02115310509F065C0411153
:1028F00063C08091E80082FDC9CF8091A402882343
:1029000029F2853019F28091E80083FFF2CFBECF23
:102910004132510509F43CC04232510509F0CDC0A5
:102920008330910508F0C9C0FC01EE0FFF1FE75688
:10293000FE4F0190F081E02D8A569E4FDC018C9174
:1029400090E01AC0332721303105D1F0211531052F
:1029500061F02230310509F0B0C0EDE3F6E0E4911A
:102960008E2F90E0EDE3F6E007C0E3E7F6E0E491B8
:102970008E2F90E0E3E7F6E0009709F49EC0A5CF24
:10298000EBE5F6E0E4918E2F90E0EBE5F6E0F4CF96
:102990008330910508F091C0880F991FFC01E15622
:1029A000FE4F0190F081E02D89E090E08ECF82E132
:1029B00090E0EBE2F6E089CF8091A402882309F44D
:1029C00065CF853009F462CF8091E80083FD5ECF4A
:1029D0008091E80082FD8DCF8091E80080FF83CF59
:1029E0009091F3008091F2002115310519F08830A3
:1029F000910550F041E0089709F040E08091E8002F
:102A00008E778093E8006FCF44914093F100319628
:102A1000215031090196E8CF803809F04EC08091ED
:102A2000E800877F8093E8008091A5028093F10001
:102A30009DCE811142C01091A8021230F0F5809114
:102A4000E800877F8093E8001093A5020E94EC03C2
:102A5000112311F084E005C08091E30087FDFACFD7
:102A600081E08093A40242E061EC81E00E940B04CB
:102A700042E261EC84E00E940B0442E261EC82E0FD
:102A80000E940B0442E260EC83E00E940B04809100
:102A9000A40213C08091A802813079F481E09330C0
:102AA00009F080E08093A3021092E9008091E80091
:102AB000877F8093E8000E94EC038091E80083FF09
:102AC0000AC08091E800877F8093E8008091EB0046
:102AD00080628093EB00AA96E3E00C94AB290E94FD
:102AE000A5122FEF84E39CE0215080409040E1F755
:102AF00000C0000088E19AE00FB6F894A895809392
:102B000060000FBE90936000FFCFA5E0B0E0EBE85F
:102B1000F5E10C9481298C01FC0183819481892B3E
:102B200031F08081918189238F3F09F0CEC52596B0
:102B3000E1E10C949D290E94030EF82E682F8981F3
:102B40009A810E94A00969817A818F2D0E94F50DDA
:102B50007C01F8018281882309F4AAC597012251DA
:102B60003F452031310508F076C58FEF93E00E9494
:102B7000592A811128C0FEEEEF0E57EA852E9924BE
:102B80009394E11032C01C821B82442443944AE097
:102B9000342E74018FEFE81AF80AC4010E94592AF2
:102BA00089831A82882379F09FEF980F933058F524
:102BB0008A83498292E0890E911CC7010E94592A9A
:102BC0008B83811121C08091FB01877009F4AFCF05
:102BD000F8018281882309F4AACF8091380282FF0C
:102BE000A6CF82E00E947610A2CF811424E0920644
:102BF00051F3C4010E94592A811101C0EA943FEFA8
:102C0000831A930ABECF4701FE0131967F01F70177
:102C10002081222309F4BDCF213009F047C09181E2
:102C20008281913031F4F2E0EF0EF11C0E94BF116D
:102C300007C0923049F422E0E20EF11C0E942911F3
:102C40003FEFE31AF30AE3CF933031F432E0E30EBF
:102C5000F11C0E94D010F4CF943021F08FEFE81ACD
:102C6000F80AEECF92E0E90EF11C30E020E0B70167
:102C70006F5F7F4FF70141818053990B8A30910537
:102C800050F021503109E0F28FE99FE00197F1F710
:102C900000C00000F6CF329EF001339EF00D1124EB
:102CA0009C012E0F3F1F842F7B01E1CFE22FF0E02C
:102CB000E754FE4F5490822F86958695869590E036
:102CC000FC01E755FE4F64902770712C022E02C064
:102CD000759467940A94E2F7E1E06E227724FC0190
:102CE000E756FE4FA490B12C022E02C0B594A794D3
:102CF0000A94E2F7F1E0AF22BB24FC01E757FE4F54
:102D0000C490D12C02C0D594C7942A95E2F721E053
:102D1000C222DD246114710419F081EE0E94291190
:102D2000A114B10419F086EE0E942911852D0E948C
:102D3000BF11A114B10419F086EE0E94D0106114E5
:102D4000710419F081EE0E94D010C114D10409F46D
:102D500077CF8CE26BCF81E00E94AE100E945D10B5
:102D600032CF81E00E946910F9CF82E0F5CF95EF74
:102D7000E9169CE5F90609F46CC008F466C027E280
:102D800045EE66EEF6EFEF16FCE5FF0609F48CC49F
:102D9000882309F4ABC41092B00223E0E2162DE5BB
:102DA000F20608F05DC03AEFE3163CE5F30630F4B6
:102DB000C70182509C45449708F05FC00E94820E74
:102DC0009093380280933702F2E1EF16FCE5FF069C
:102DD00009F476C108F0B4C039E0E3163CE5F30627
:102DE00009F44CC108F077C095E0E9169CE5F906B6
:102DF00009F434C108F05DC0F3E0EF16FCE5FF060E
:102E000009F424C108F026C180913702816032E0C4
:102E1000E3163CE5F30609F490C060913702F090A8
:102E2000380284E090E00E946D2A6F2D82E290E0EB
:102E30000E946D2A0E94A512C6CE27E245EE65EEDD
:102E400033C426E241EE60EE2FC427E245EE64EE85
:102E50002BC426E241EE62EE27C428E241E0EFCF28
:102E600085EAE8168DE5F80609F4A8CFE0F4E1E676
:102E7000EE16EDE5FE0609F4A1CF96E1E9169CE514
:102E8000F90609F040C4809105028A7A91E009F4BC
:102E900090E09093B00181113DC189E20E944909FF
:102EA0000E94FF0F90CEC7018D5A9D45039728F7CA
:102EB00085CF87E0E8168CE5F80609F4DBC0809141
:102EC0003702806198E0E9169CE5F906B0F180913F
:102ED0003702806432C0EDE0EE16ECE5FE0609F440
:102EE000D7C0A0F4809137028E7F2BE0E2162CE54C
:102EF000F20619F1809137028C603CE0E3163CE564
:102F0000F306D8F0809137028D7F17C08FE0E81666
:102F10008CE5F80609F4CCC008F4BEC0E0E1EE167A
:102F2000ECE5FE0609F4C8C0809137028F7BF1E121
:102F3000EF16FCE5FF0609F070CF809337026DCFE6
:102F40002FEFE2162CE5F20609F4C4C0D8F58AEF9B
:102F5000E8168CE5F80609F485C0D0F4E4E1EE1635
:102F6000ECE5FE0609F4C4C008F4B0C025E1E216A1
:102F70002CE5F20609F051CF8091370282FB9927A8
:102F800090F921E0922790FB82F990FB83F9D5CF4D
:102F90003CEFE3163CE5F30609F482C008F466C092
:102FA0009DEFE9169CE5F90609F47EC08091380290
:102FB0008360EEEFEE16ECE5FE0609F02ECF80936F
:102FC00038022BCFF1E6EF16FDE5FF0609F49BC0B2
:102FD000A0F431E0E3163DE5F30609F492C008F4ED
:102FE0007DC060E092E0E9169DE5F90609F015CF95
:102FF0008EE090E00E946D2A10CFEDEAEE16EDE52E
:10300000FE0601F168F490913702892F8E7F90FFC0
:10301000816025EAE2162DE5F20609F48ECFFDCE99
:103020003EEAE3163DE5F30679F18FEAE8168DE511
:10303000F80609F0F2CE90913802892F877F93FF2E
:103040008860BDCF809138028860B9CF8091370207
:10305000826073CF8091370284606FCF8091370296
:1030600088606BCF809138028160A9CF809138024F
:103070008260A5CF8091370280625FCF0E94A51247
:1030800080913702806859CF80913802877F97CF2F
:10309000809137028B7F51CF80913702877F4DCF50
:1030A000809138028E7F8BCF809138028D7F87CFC1
:1030B000809137028F7E41CF809137028F7D3DCF47
:1030C0000E94A512809137028F7737CF8091370207
:1030D000837F33CF809138028C7F71CF809138020B
:1030E000982F909591708E7F892B90FB81F967CFF7
:1030F0000E94A51290913702892F97FB87F980587B
:103100001CCF61E075CF90913702892F8F7E94FF9D
:10311000806113CF85E3C2CE85E3F2C281608093E4
:10312000840261E086950E94880F4DCD4AEC5FE0F5
:1031300064ED7FE00E945E0546CD44ED5FE06AEC01
:103140007FE0F8CF4AE55FE060E57FE0F3CF46E35C
:103150005FE063E47FE0EECF4CE15FE069E27FE0B7
:10316000E9CF49E25FE06CE17FE0E4CF46E75FE072
:1031700064E67FE0DFCF61E081E0D5CF65E082E00B
:103180000E94DF0F20CD68E086E0FACF64E18FE097
:10319000F7CF67E185E1F4CF62E289E1F1CF61E049
:1031A00083E2C1CF0E94A5123FEF84E39CE031503F
:1031B00080409040E1F700C000000E94FA04809136
:1031C000380282FB882780F991E089270E949210BB
:1031D000F8018281E080F180882309F445C0C701AD
:1031E0000E94030ED82E682FC7010E94A009B701C4
:1031F0008D2D0E94F50D0E94A2077C01882EF801FA
:10320000D280B580B2943FE0B3228091FB018770F9
:10321000C1F0AD2CDD20B1F08F2D807F803421F006
:1032200080E28E0D883068F08091380282FF09C0FC
:1032300082E00E9476108091FB018770AA24A394FB
:103240008111A12C9F2C92942FE09222FBE0F91582
:1032500008F479C0E92DF0E0E053F54D0C940F2A05
:1032600081E0B4CF80E0B2CFC7010E946C09D82EB4
:10327000BECF2F2D2F70C22E8F2D807F19F0C294BC
:1032800090EFC922DD20B9F0CC2069F080E28E0DEC
:10329000883010F0811009C080910502C82AC092C0
:1032A00005020E94FF0F8E2D4CC080910402C82A97
:1032B000C0920402F6CF8E2D0E94D010CC2009F4CB
:1032C00042C080E28E0D883010F0811004C08C2D39
:1032D0000E94350906C0C09480910402C822C092A1
:1032E00004020E94FF0F2FC03F2D3F70C32E8F2D71
:1032F000807F803219F0C29480EFC822882089F044
:1033000081E0881609F468C0DD2009F472C0BB2092
:1033100009F468C0F801858180FFC5CF8F7085836F
:1033200061C02091380222FD35C0DD2069F1CC203A
:1033300039F080910502C82AC09205020E94FF0F51
:1033400080E00E942911292D2850330B24303105AB
:1033500010F40E94F90CAA2009F4E9CB8091FB013A
:1033600080FDE5CBF80112828595859585950E94B3
:10337000AE10C8010E9485158091FB018595859549
:1033800085950E946910D3CB80E00E94D010CC209C
:10339000D1F29DCFDD2099F0909106028C2D892BE2
:1033A000B11003C00E94C610CECFE1E0BE12FACF2A
:1033B00022FFC9CF981739F280930602C4CFB1100B
:1033C00006C00E942F098C2D0E94BF10BCCFF1E0D7
:1033D000BF1609F4B8CFF5CFDD2031F025E02B156D
:1033E00008F4B1CF8C2DDECF34E03B1508F4ABCF21
:1033F000EACFBB2041F3F9E38F1209C02FEF37EE7C
:1034000083E0215030408040E1F700C000008E2D65
:103410000E94D01098CF8F2D86958695837061F08D
:10342000813009F090CFC7019370D11002C090E0B5
:1034300080E00E94320587CFC7019370D11002C08F
:1034400090E080E00E9448057ECF8E2DDD2029F09F
:103450000E94EC060E940A0676CF0E943106FACF3F
:103460008F2D837091F5D1106ECF4E2D42954695DC
:103470004770440F440F8E2D8F70042E01C0880FAB
:103480000A94EAF72E2D2071E4FE07C02FE030E009
:1034900001C0220F4A95EAF720953F2D36953695C3
:1034A0003370323069F050F440910702313029F026
:1034B000822B84230E94BA1046CF842B822BFACF12
:1034C000282B809107028227F5CF8695DD2011F009
:1034D0008F2D8170882309F436CF4E2D4295469565
:1034E0004770440F440F8E2D8F70042E01C0880F3B
:1034F0000A94EAF72E2D2071E4FE07C02FE030E099
:1035000001C0220F4A95EAF720953F2D3695369552
:103510003370323069F050F44091B102313029F00B
:10352000822B84230E9458100ECF842B822BFACF3B
:10353000282B8091B1028227F5CF9F2D9F70F92E05
:10354000DD2029F0892F0E94AE108E2D2BCF8E2DDD
:103550000E94BF108F2D0E946910F5CE8E2DE2EFD4
:103560008E16B1F1E81570F0F0EF8F16D1F021EF63
:10357000821691F0DD2009F45EC0B11094CE8F2D3B
:103580008F712AC033EF831651F194EF8912F2CF75
:103590008091380282FD2FC08F2D8F71DD20D9F2EE
:1035A0001BC0DD2081F0E4E0EB1508F4CCCE2F2D1C
:1035B0002F7181E090E001C0880F2A95EAF7909181
:1035C000B1028927AFCFF5E0FB1508F4BCCEEFCFF1
:1035D0008F2D8F71D110BFCF0E94AE10B4CE80E07E
:1035E000DD2009F49FCF9F2D9F7181E001C0880FDE
:1035F0009A95EAF797CFDD2099F02F2D2F71F22EB3
:10360000822F0E94AE108091380282FF07C038E0FE
:10361000F39EC001112483608093FB018F2DDCCFCA
:1036200081E00E94761081E08B1508F08CCE82E05C
:103630000E94761088CEBB2059F0893309F0E7CE7E
:103640009FEFE7EEF3E09150E040F040E1F7DDCE90
:103650008F2D8F7180CFF0E1EF16FFE5FF0609F4A3
:103660007ACB21E1E2162FE5F20609F47ECB93EF47
:10367000E9169CE5F90609F4E4CB08F078CBF8EDFF
:10368000EF16FCE5FF0609F4D8CB29EDE2162CE590
:10369000F20609F4E2CB37EDE3163CE5F30609F058
:1036A00077CB26E241EE61EEC8010E94DD118BCAA4
:1036B00030E1E3163FE5F30609F453CB91E1E91657
:1036C0009FE5F906A1F682E04DCB85E0DE0111967B
:1036D00001900D928A95E1F7F801228189819A8102
:1036E000211129CA0E946C09F82E2DCAF6E1EF16A5
:1036F000FCE5FF0661F58091B00181110DCD89E2F5
:103700000E943C09CDCB2AE5E2162DE5F20609F42C
:10371000A7CD78F4E1148CE5F80609F443CD9EEDCD
:10372000E9169CE5F90609F053CD0E943A120E9471
:103730006F15ECE5EE16EDE5FE0609F440CD08F454
:1037400091CD27EAE2162DE5F20689F341CD80916D
:10375000050282723CECE3163CE5F30609F406CD63
:1037600008F06DC0E6ECEE16ECE5FE0609F4EACCD6
:10377000E8F523ECE2162CE5F20609F4D7CC28F59F
:1037800082ECE8168CE5F80609F022CD80918402DF
:1037900080FFC4CC8E7F80938402609184027091FC
:1037A000850280918602909187020E94900E10926D
:1037B0006202EFEFF0E722E0E150F0402040E1F755
:1037C00000C000000E94590AFEC994ECE9169CE56D
:1037D000F90609F4B2CC40E55FE06AE57FE0E5EC8C
:1037E000EE16ECE5FE0609F4A5CCF2CCF9ECEF16EA
:1037F000FCE5FF0609F4B0CC88F437ECE3163CE5B1
:10380000F30609F4A4CC43E45FE066E37FE098ECC0
:10381000E9169CE5F90609F48DCCDACCEAECEE1653
:10382000ECE5FE0609F49DCC44E65FE066E77FE048
:10383000FBECEF16FCE5FF0609F47CCCC9CC21EDCE
:10384000E2162CE5F20609F4A1CCB8F48EECE816E9
:103850008CE5F80609F492CC08F48DCCEFECEE166A
:10386000ECE5FE0609F48FCC6EE089E0F0EDEF1692
:10387000FCE5FF0609F484CCABCC24EDE2162CE584
:10388000F20609F489CC78F482EDE8168CE5F806A6
:1038900009F47FCC61E088E193EDE9169CE5F90637
:1038A00009F441CC95CCE5EDEE16ECE5FE0609F405
:1038B00076CCFDE5EF16FF0609F485C989CC1F9388
:1038C000CF93DF938091C801807F09F049C0809138
:1038D000C501882309F444C08091FA01D091C9013F
:1038E0006091C3017091C401A091C601B091C7015C
:1038F000C62FC72316E0D81799F190E0109711F062
:10390000CF3F19F401968770F6CF189F9001199F49
:10391000300D1124F901E653FE4F41814713F2CFD8
:1039200040814613EFCF42814111ECCF4381548156
:103930004A1B5B0B483C510528F78091C8018F70EA
:1039400080618093C801F901E153FE4F80818F703F
:103950008061808383EC91E00E9485150E9462095A
:10396000DF91CF911F910895A1E1B0E0EAEBFCE176
:103970000C9488298C0185E0F801DE011D960190E8
:103980000D928A95E1F7F801E28083ECA82E81E0A0
:10399000B82E6091C6017091C7016115710509F4D7
:1039A00026C19091C3014091C401892F84238F3F88
:1039B00009F41DC120813181C380D480F090C501FC
:1039C000F601E61BF70BFF2009F4DCC08091C8016B
:1039D000582F507FE83CF10508F09FC051116BC093
:1039E000FE2C431314C0921312C0E11010C08F704C
:1039F00080618093C801C5010E9485158091C8012E
:103A0000F80185838F2D6196EAE00C94A429C114F6
:103A1000D10429F0822F83238F3F09F003C180E076
:103A2000F82FF170DF2E80FF3CC08091FA014091A9
:103A3000C90156E0841315C02D873E878D859E856C
:103A40000E94320E292F22952F702230F0F0243060
:103A500018F59F70F1F0F8019581907FD1F4D12C89
:103A60001EC090E0589FF001599FF00D1124E653BD
:103A7000FE4F6181361306C06081261303C0628148
:103A8000E6120FC001968770D5CF9F7011F0882382
:103A900031F3805E883018F3C8010E948515FD2C33
:103AA000B1CFEE2009F4AECF8091C8018160809340
:103AB000C801F12CA7CF431306C0921304C0F8012C
:103AC000EE2009F479C0C8010E943F0E882309F155
:103AD000EE20F9F08091C801803270F02091C3018E
:103AE0003091C40138872F831986DB86CA868C877C
:103AF000CE0107960E94851586E0F801A3ECB1E09F
:103B000001900D928A95E1F70E945F1CFF24F394C7
:103B100079CFC8010E948515F9CF51110AC083ECF5
:103B200091E00E94851586E0F50111928A95E9F7EA
:103B3000C0CF43130FC092130DC0E1100BC0F801AA
:103B40008583C8010E94851586E0F50111928A954A
:103B5000E9F758CFC8010E943F0E8823D1F2EE202A
:103B6000C1F28091C801803238F22091C3013091B6
:103B7000C4013A8329831B82DD82CC828E83CE01ED
:103B80000196B8CFE83CF105F8F6FE2CEE2009F2DC
:103B900043131FC092131DC08091C80180FD10C047
:103BA000982F907F69F0F8018583903F31F0982F2E
:103BB000907F905F8F70892B8583C8010E94851547
:103BC00086E0F801A3ECB1E001900D928A95E1F74F
:103BD00019CFC8010E943F0E81118ECF8091C8017C
:103BE00081608093C801C8010E9485150BCFEE202B
:103BF00009F48FCFC8010E943F0EF82E882309F4E4
:103C000088CF86E0F801A3ECB1E001900D928A958F
:103C1000E1F78091C3019091C4010E94320E0E948D
:103C20005F1CF0CE81E08E25FBCEA7E1B0E0EBE19A
:103C3000FEE10C948F294B8B5C8B6D8B7E8B8F8B75
:103C40006111109204021A8A198A85E0FE017396A6
:103C5000DE011D9601900D928A95E1F786E0FE0146
:103C60003D96DE01179601900D928A95E1F7CE01FF
:103C700007960E94B41C882359F016E08091FA013F
:103C80009091C901891343C06796E3E00C94AB2976
:103C900086E0FE013796DE01119601900D928A951D
:103CA000E1F78A859B85892B41F38F81988589234C
:103CB0008F3F19F32091C90130E0C9010196877047
:103CC00099274091FA014817190671F40E94A5122C
:103CD0001092C9011092FA0186E0E3ECF1E0DF01F5
:103CE0001D928A95E9F7C9CF96E0929FD001939FE4
:103CF000B00D1124A653BE4FFE01319601900D92D6
:103D00009A95E1F78093C9010E946209B6CF819F1D
:103D1000C001112486539E4F0E94B41C882309F4CD
:103D2000B3CF8091FA0190E0019687709927809334
:103D3000FA01A4CFA4E0B0E0E0EAFEE10C948F2900
:103D40004091240250912502609126027091270231
:103D50002FB7F8948091900290919102A0919202D5
:103D6000B09193022FBF841B950BA60BB70B11E0EC
:103D700084369105A105B10570F10E940A0D6E5FB0
:103D80007F4F8F4F9F4F69837A838B839C83809172
:103D9000110190911201855E9D4F4091100150E0FC
:103DA0004530510510F044E050E0BE016F5F7F4F99
:103DB0000E94BB2A82E090E00E940A29182F8823E3
:103DC00051F00E941A05609324027093250280939B
:103DD000260290932702812F2496E3E00C94AB29CE
:103DE000EF92FF921F93CF93DF9300D000D00F92FA
:103DF000CDB7DEB77B0190E080E00E940A29182F42
:103E0000882309F487C04091030150E04115510512
:103E100011F041E050E06091040170910501655E90
:103E20007D4FCE0105960E94BB2A4091170250910A
:103E300018026091190270911A022FB7F8948091BC
:103E4000900290919102A0919202B09193022FBFA3
:103E5000841B950BA60BB70B84369105A105B10504
:103E600040F48CE192E00E945B039D81891709F484
:103E700051C081E090E00E940A2981111AC010E02F
:103E80008091130290911402A0911502B091160234
:103E9000F70180839183A283B383812F0F900F90CA
:103EA0000F900F900F90DF91CF911F91FF90EF90A7
:103EB000089540910B0150E04530510510F044E069
:103EC00050E060910C0170910D01655E7D4FCE0157
:103ED00001960E94BB2A8CE192E00E945B039D81C7
:103EE0008913CDCF0E941A056093170270931802B0
:103EF0008093190290931A0289819A81AB81BC81C7
:103F00008093130290931402A0931502B0931602AB
:103F100011E0B6CF80911C0290911D02A0911E026B
:103F2000B0911F0289839A83AB83BC831111E4CFC4
:103F3000A7CFACE0B0E0EFE9FFE10C9485298E015A
:103F40000F5F1F4F88E0D8011D928A95E9F787E639
:103F5000C82E81E0D82EF12CE12CAA24A394B12CF8
:103F600021E7822E21E0922EF60181916F018F3F91
:103F700009F442C0F894E82FE295EF70F0E021A137
:103F80008F70A50102C0440F551F8A95E2F7CA0140
:103F9000922F982B91A392A18095892382A3789444
:103FA00000C0EBE6F1E0712C31E021912F3F09F4E4
:103FB0006BC0A22FA295AF70B0E090968C9190E06C
:103FC0002F7002C0959587952A95E2F780FD5CC019
:103FD000832F782A330F8E169F0639F7F601319713
:103FE00080818F3F11F00E94480750EA5A95F1F7FF
:103FF000F801EE0DFF1D70828FEFE81AF80AA4E0B9
:10400000EA16F10409F0B0CF48E050E0B8018DE2C3
:1040100092E00E94AE2A009741F028E0F801ADE25C
:10402000B2E001900D922A95E1F700913602892BBA
:1040300069F181E080930A020E94260590930902AB
:104040008093080280910802909109020E940B055A
:10405000059700F110E00A5B1D4F44E050E06DE26F
:1040600072E0C8010E94AE2AB12C892B51F084E085
:10407000EDE2F2E0D80101900D928A95E1F7BB24C0
:10408000B39410920A0207C080E0A3CF80910A0285
:104090008111D8CFB12C0E94D60CF82EE0913602B7
:1040A000882309F472C019861A861B861C860E2F77
:1040B00010E00A5B1D4F809128028A3088F540EF9E
:1040C0005EE1BE01675F7F4FC8010E94A30C882399
:1040D00009F44AC04AE95EE1BE01675F7F4FC8014B
:1040E0000E94A30C882309F43FC0109228028091FB
:1040F000350290E044E050E0BE01675F7F4F8A5B8D
:104100009D4F0E94AE2A21E020931102892BF1F4E9
:10411000F12C1F2D812F8B292C96EDE00C94A129D9
:1041200080910B0290910C020E940B05843F9140FC
:1041300030F680911102882359F3FE01399684E00C
:10414000DF011D928A95E9F710921102E091350284
:10415000F0E0EA5BFD4F89859A85AB85BC8580835D
:104160009183A283B383D5CF809128028F3F31F012
:104170008F5F809328028A3008F4B9CF0E94260509
:1041800090930C0280930B02D4CFF0E0EA5BFD4FDA
:1041900084E0ACE1B2E001900D928A95E1F78CE108
:1041A00092E00E945B0380931B02C0902002D0909B
:1041B0002102E0902202F090230280910D02909162
:1041C0000E02A0910F02B0911002C816D906EA069D
:1041D000FB0611F410E09ECFC0920D02D0920E02A9
:1041E000E0920F02F09210020E94D60C182F81115B
:1041F000F1CF0E941A05C61AD70AE80AF90AC09236
:104200002902D0922A02E0922B02F0922C0282CF55
:1042100090E080E00E94672A883E9E4F19F40E9439
:10422000690E089580E008951F920F920FB60F92C5
:1042300011242F933F934F935F936F937F938F93AB
:104240009F93AF93BF93CF93DF93EF93FF93D0915F
:10425000E900DF708091EC00C82FC17080FDC0E8DC
:104260001092E9008091F000877F8093F0007894AD
:104270000E94B1121092E9008091F0008860809352
:10428000F000CD2BCF70C093E900FF91EF91DF914B
:10429000CF91BF91AF919F918F917F916F915F91DE
:1042A0004F913F912F910F900FBE0F901F90189537
:1042B0001F920F920FB60F9211242F933F934F939B
:1042C0005F936F937F938F939F93AF93BF93EF937E
:1042D000FF938091E10082FF09C08091E20082FF9C
:1042E00005C08091E1008B7F8093E1008091DA002E
:1042F00080FF24C08091D80080FF20C08091DA0028
:104300008E7F8093DA008091D90080FF9DC080E18C
:1043100089BD82E189BD09B400FEFDCF81E08093B3
:10432000A40280919702811109C00E9472030E9429
:104330003D048091E20084608093E2008091E1007E
:1043400080FF17C08091E20080FF13C08091E200DF
:104350008E7F8093E2008091E20080618093E20092
:104360008091D80080628093D80019BC85E080934A
:10437000A4028091E10084FF2BC08091E20084FFC1
:1043800027C080E189BD82E189BD89B5982F9170F0
:1043900080FFFBCF8091D8008F7D8093D8008091E3
:1043A000E1008F7E8093E1008091E2008F7E809318
:1043B000E2008091E20081608093E2008091A5029A
:1043C000882309F447C084E08093A4028091A4026A
:1043D0008091E10083FF27C08091E20083FF23C02A
:1043E0008091E100877F8093E10082E08093A402C6
:1043F0001092A5028091E1008E7F8093E100809170
:10440000E2008E7F8093E2008091E20080618093E1
:10441000E20042E060E080E00E940B048091F00046
:1044200088608093F000FF91EF91BF91AF919F91D1
:104430008F917F916F915F914F913F912F910F904D
:104440000FBE0F901F90189519BC1092A4021092E5
:10445000970274CF8091E30087FD93E09093A402CC
:10446000B5CF78941F921FB61F9211248F939F93FC
:10447000AF93BF938091900290919102A09192028C
:10448000B09193020196A11DB11D8093900290936B
:104490009102A0939202B0939302BF91AF919F912A
:1044A0008F911F901FBE1F9018951F921FB61F92CD
:1044B00011248F939F93AF93BF9380918F028111AB
:1044C00013C08091900290919102A0919202B091BC
:1044D00093024196A11DB11D809390029093910289
:1044E000A0939202B0939302BF91AF919F918F914D
:1044F0001F901FBE1F901895CDB7DEB7AA970FB6B5
:10450000F894DEBF0FBECDBF85B7806885BF85B785
:10451000806885BF84B7877F84BF0FB6F894A8955D
:1045200080916000886180936000109260000FBEEF
:1045300080E890E00FB6F89480936100909361005A
:104540000FBE86E497E09093A7018093A6010E9496
:1045500072030E943D048091E20084608093E20037
:1045600078948091A4028823A1F01091E9001F7033
:104570009091EC00892F817090FD80E8182B1092AB
:10458000E9008091E80083FD0E94B1121F70109332
:10459000E90082E084BD93E095BD9AEF97BD8093DA
:1045A0006E001092290210922A0210922B02109291
:1045B0002C020E94690E811102C00E94B60D0E9459
:1045C000D60C809318010E94D60C81110E941E28DF
:1045D000809118018091180194E0811190E09093EE
:1045E000360284E0891B8093350287E90E944807E0
:1045F00086EC0E94480784E30E94480785E30E94F6
:1046000048070BE611E0D8018D918D018F3F11F025
:104610000E944807B1E001371B07A9F788E0E6E4EC
:10462000F2E0DF01282F1D922A95E9F7EDE2F2E092
:10463000DF011D928A95E9F70E940821811102C0CD
:104640000E943A1282E090E00E94592A80933C0234
:104650000E94820E90933802809337020E94991F25
:10466000EFE3FCE93197F1F700C000000E94991FC9
:104670008091460280FF08C06FEF7FEF90E080E0FE
:104680000E948B2A0E94FA0483E090E00E94592A3B
:104690000E94BA1080913902811133C00E94082112
:1046A000811104C00E943A120E94EF0F88E090E04E
:1046B0000E94612A6093840270938502809386022F
:1046C000909387026E7F71F40E94EF0F88E090E074
:1046D0000E94612A6093840270938502809386020F
:1046E000909387020E946505109262028091840275
:1046F00080FF04C060E086950E94880F81E080936F
:1047000039020E94D60C811102C00E94212889E141
:1047100091E090938C0280938B02BEE4CB2EB2E0AA
:10472000DB2E15E4A12E12E0B12E8091A40200E14F
:1047300012E1853009F484C00E94991F0DE312E054
:10474000A6E48A2EA2E09A2ED401F80191918D91CF
:10475000AE16BF0609F47EC09817C1F30E94D60CAE
:10476000382EF6E4EF2EF2E0FF2E712CF701619067
:104770007F01D8012D908D01261429F12624512C7A
:1047800044244394822D8421B1F03320A1F05EA211
:104790007FA291E0862D842109F490E098A70E94E1
:1047A00026058160782F9AA789A74EA15FA168A5E9
:1047B0008AA50E94151E5394440CB6E05B12E2CF0A
:1047C000F801319760827394E8E07E12CFCF0E94A7
:1047D0001A0560C08091A402843021F110928F02EA
:1047E00088E190E0A0E40FB6F894A895809360006B
:1047F0000FBEA093600083B7817F846083BF83B7BF
:10480000816083BF7894889583B78E7F83BF0FB60E
:10481000F894A89580916000886180936000109260
:1048200060000FBE8091A302882351F00E94991F5F
:10483000E6E4F2E08191811180C3CE16DF06D1F764
:104840008091A402853009F4C5CF0E94A5120E9470
:10485000F90C72CF981382CF0E9426058C018091AB
:104860003A0290913B0208171907A1F08FEF89A334
:104870008AA31BA20E9426058160782F9DA38CA38A
:1048800049A15AA16BA18DA10E94151E10933B0254
:1048900000933A020E94D60C809162028823D1F1E3
:1048A00080916102E0918402E695E81BE0935D024D
:1048B000823009F033C1F0E0E95BFD4FE4910E2F47
:1048C00010E0EFE8EE2EECE0FE2E80915E028823F1
:1048D00061F010925E020E94240D90935C0280931E
:1048E0005B021092600210925F020E94240DE09120
:1048F0005B02F0915C028E1B9F0B8F3F9F4750F431
:10490000E00FF11FF0935C02E0935B028BE592E015
:10491000F701099586E0E5E5F2E0DE0111960190E8
:104920000D928A95E1F71092570210925802109258
:10493000590210925A028B819C81892B09F44AC03A
:1049400080915302909154020E940B059C0190911A
:104950004F02992309F415C325313105D8F19F3F42
:1049600019F09F5F90934F021B81112359F00E9411
:10497000CC069FEF11160CF491E0899F802D112435
:10498000809357021C81112359F00E94CC069FEF9F
:1049900011160CF491E0899F802D11248093580208
:1049A000309157023323B1F020915802222391F025
:1049B00045EB3403C0011124992309F409C19093F4
:1049C000570245EB240390011124332309F404C159
:1049D000309358028D819E81892B09F44AC08091C1
:1049E0005102909152020E940B059C0190914E023F
:1049F000992309F4C1C221353105D8F19F3F19F03F
:104A00009F5F90934E021D81112359F00E94AA06C8
:104A10009FEF11160CF491E0899F802D1124809353
:104A200059021E81112359F00E94AA069FEF111608
:104A30000CF491E0899F802D112480935A023091CB
:104A400059023323B1F020915A02222391F045EB11
:104A50003403C0011124992309F4C2C09093590270
:104A600045EB240390011124332309F4BDC0309396
:104A70005A0246E050E0BE016F5F7F4F85E592E04D
:104A80000E94AE2A892B61F48091570290915802BE
:104A9000892B90915902892B90915A02892B11F000
:104AA0000E940A0686E0FE013196A5E5B2E001907B
:104AB0000D928A95E1F70E94F90C909145028917B1
:104AC00021F0809345020E941A058091A40284304F
:104AD00009F02BCE83E08093E9008091E80082FF0B
:104AE00024CE8091E80090E085FF06C00E949103EB
:104AF000882309F47DC091E08091E8008B77809352
:104B0000E800992309F411CEE981E150E33108F07E
:104B1000DFC0F0E0E452F54D0C940F2A863059F4D2
:104B2000F0E0EC5BFD4FE4910E2F10E07FE7E72E05
:104B30007CE0F72ECACE893061F4E695F0E0EF5BB9
:104B4000FD4FE4910E2F10E063EFE62E6BE0F62EA2
:104B5000BCCE8F3061F4E695F0E0E25CFD4FE4916D
:104B60000E2F10E05EE8E52E5BE0F52EAECE85312F
:104B700059F4F0E0E55CFD4FE4910E2F10E040E4C5
:104B8000E42E4BE0F42EA1CE08E210E095ECE92EE5
:104B90009AE0F92E883109F498CE833249F4E9E39A
:104BA000F2E0059114913EE2E32E3CE0F32E8DCE2F
:104BB00004EF11E02EE8E22E2AE0F22E843209F40E
:104BC00084CE00ED17E084E6E82E85E0F82E7DCE59
:104BD00081E080935702F5CE81E080935802FACEAF
:104BE00081E0809359023CCF81E080935A0241CF0B
:104BF00000E210E0CE0101967C018091E80085FD85
:104C00000AC08091E8008B778093E8000E949103AE
:104C1000882399F370CF8091F100D7018D937D01A6
:104C20000150110951F767CF1A828AE08B8311C0B6
:104C30008A81823009F497C1833091F1813009F083
:104C400047C00E941A050E94152A6B837C838D83BE
:104C50009E838091A402843009F067CD1091E90011
:104C60001F709091EC00892F817090FD80E8182BC7
:104C700082E08093E9008091E80080FF0DC050E061
:104C800040E060E270E0CE0101960E94C203809194
:104C9000E8008E778093E8001F701093E90045CDFF
:104CA000FE013396D4018D914D018193CA16DB0626
:104CB000C9F7CFCF8A81823059F46B817C818D8195
:104CC0009E810E94152A86E290E00E946D2AC1CF43
:104CD0008FEF8983BECF4C816B818A810E94C60D84
:104CE0009827892798279E838D83B3CF2D813E8176
:104CF0003227232732274C816B818A810E943F0D06
:104D0000A8CF0E94650DA5CF8A81813809F1A8F44A
:104D1000803809F09ECF8B81BFEF8B9FC00111249B
:104D20006FEF70E00E94C529462F20E06091860257
:104D3000809185020E94A30E8CCF823859F183386E
:104D400009F087CF20E0409187026C818B81F2CF00
:104D500060E08B810E94880F9B8180918402911179
:104D600011C08E7F8093840210926202EFEFF0E711
:104D700022E0E150F0402040E1F700C000000E9436
:104D8000590A67CF81608093840260E086950E9413
:104D9000880F5FCF8B81809388025BCF8A818138B7
:104DA000E1F078F4803809F054CF809187024FEF1A
:104DB000849FC00111246FEF70E00E94C5296B83AE
:104DC00048CF823891F0833809F043CF8091850233
:104DD0008B83809186028C833CCF8091840280FFFC
:104DE00002C0869523CF80E021CF809188021ECF1C
:104DF0006091840270918502809186029091870271
:104E00000E94900E26CF80E18A8323CF82E08A839E
:104E100089E50CCF0A811B81102701271027CE01BD
:104E200001967C018C80DC01A80DB11D4D01C801EB
:104E300089559E4F8E149F0409F40BCF0935B2E0BB
:104E40001B0750F40E94592AF70184830F5F1F4FFC
:104E5000BFEFEB1AFB0AEBCFD70114961C92F6CFEB
:104E60000A811B81102701271027FE0131964F016F
:104E7000EC80E00EF12EF11CC80189559E4FE01622
:104E8000F10609F4E6CE0935F2E01F0728F4D40153
:104E900014966C910E946D2ABFEF8B1A9B0A0F5FCC
:104EA0001F4FEACF0E942F0DD4CE84E0ADCF0A81F0
:104EB0001B81102701271027FE0131967F018C806E
:104EC000CF01880D911D4C01C8018796E814F904A3
:104ED00009F4BFCE0038A1E01A0750F40E94592A05
:104EE000F70184830F5F1F4FBFEFEB1AFB0AECCF74
:104EF000D70114961C92F6CF0A811B811027012737
:104F00001027FE0131964F01EC80E00EF12EF11CCE
:104F1000C80187960E151F0509F49BCE0038F1E0F5
:104F20001F0728F4D40114966C910E946D2ABFEFDC
:104F30008B1A9B0A0F5F1F4FEBCF09BD19BD09B438
:104F400000FEFDCF8091D8008F7D8093D8008091A6
:104F5000E00082608093E0008091E00081FDFCCF62
:104F60000E94A5126DCC86E290E00E94592A1B8215
:104F70001C821D828E836DCE2B30310508F040CD12
:104F800078CD2B30310508F0ECCC24CD8EE1489B58
:104F900002C08150E1F7489BFECF0895589880E207
:104FA0008A95F1F7589A0895FC013BE03A95F1F79C
:104FB00098E020E080E031E040E14A95F1F7880F89
:104FC000489B02C08160232742E04A95F1F7000028
:104FD00040E14A95F1F7915079F790E19A95F1F710
:104FE00099B132E03A95F1F7000040E14A95F1F7C6
:104FF000917092272081920F90830895A1E0B0E0F4
:10500000E4E0F8E20C948C2919828C017C01E60E14
:10501000F11C0E151F0541F481E09981911180E08A
:105020002196E6E00C94A8290E94C627CE0101969D
:105030000E94D427F80181938F01EBCF509A589AA0
:1050400008955098589AE89AE9E6F0E080818C7FBC
:10505000808308956150770B91E001C0990F6A95A4
:10506000EAF720E031E0911108C0222391F0589A2C
:1050700080E28A95F1F758980895492F482339F02E
:10508000589A232740E24A95F1F79695ECCF589825
:10509000F9CF5898EDCFFF920F931F93CF93DF93E3
:1050A000EC018C01060F111DC017D10729F4CDB7F3
:1050B000DEB7E5E00C94A929F9900E94CE2768E0BC
:1050C0008F2D0E942A28F0CF1F920F920FB60F92B9
:1050D00011240F931F932F933F934F935F936F93DD
:1050E0007F938F939F93AF93BF93EF93FF93CF9350
:1050F000DF930F92CDB7DEB719820E94C627CE018B
:1051000001960E94D427082F069506950695282F0C
:1051100022952570902F9570290F922F93702695C8
:105120002695920F982797708981982B09F05CC07B
:10513000043008F059C080E18A95F1F7589A509AE6
:1051400082E08A95F1F700C0589888E0089F8001B6
:105150001124D801A050BF4F1696ED91FC911797DE
:105160003097A9F0609165017091660114962D91B8
:105170003C911597260F371F11968D919C91129790
:10518000680F791F13964C9113978C910995F8012C
:10519000E050FF4F6381662351F02091650130910B
:1051A000660184819581820F931F0E944B280E9483
:1051B000CE2780E18A95F1F758985098589A80E167
:1051C0008A95F1F7F801E050FF4F6081662351F0B6
:1051D000209165013091660181819281820F931F38
:1051E0000E94FE270E94C6270F90DF91CF91FF916A
:1051F000EF91BF91AF919F918F917F916F915F914F
:105200004F913F912F911F910F910F900FBE0F90D3
:105210001F9018950F931F93CF93DF93EC01049782
:105220000CF04CC0F894509A589885E08A95F1F7A4
:1052300000009C2F969595708C2F8570980F892F64
:1052400083709695969523E0CC0FDD1F2A95E1F7A4
:10525000980F8E01092B0E94CE2700C068E0802F96
:105260000E942A2880E18A95F1F75098589A489B25
:105270001EC087E090E048991CC0FE01E050FF4F3F
:1052800063816623F9F02091650130916601848184
:105290009581820F931F0E94FE27811113C0509A9F
:1052A000589A7894DF91CF911F910F91089500C083
:1052B000DECF019729F4509A589A789480E0F2CF83
:1052C00000C0D9CF0E94C62780E28A95F1F758988E
:1052D000509A80E18A95F1F7C050DF4F68816623CC
:1052E00051F0209165013091660189819A81820F88
:1052F000931F0E944B280E94CE27789481E0D2CF42
:105300002F923F924F925F926F927F928F929F92D5
:10531000AF92BF92CF92DF92EF92FF920F931F93C3
:10532000CF93DF93CDB7DEB7CA1BDB0B0FB6F89474
:10533000DEBF0FBECDBF09942A88398848885F84B4
:105340006E847D848C849B84AA84B984C884DF8025
:10535000EE80FD800C811B81AA81B981CE0FD11D09
:105360000FB6F894DEBF0FBECDBFED01089587FBE9
:10537000082E062687FD819567FD61950E944D2ABE
:105380000EF4919507FC81950895AA1BBB1B51E172
:1053900007C0AA1FBB1FA617B70710F0A61BB70BA5
:1053A000881F991F5A95A9F780959095BC01CD014A
:1053B000089597FB072E16F4009407D077FD09D0C7
:1053C0000E94C52907FC05D03EF4909581959F4F1A
:1053D0000895709561957F4F0895A1E21A2EAA1B3A
:1053E000BB1BFD010DC0AA1FBB1FEE1FFF1FA21795
:1053F000B307E407F50720F0A21BB30BE40BF50B92
:10540000661F771F881F991F1A9469F7609570951A
:10541000809590959B01AC01BD01CF010895EE0FE1
:10542000FF1F0590F491E02D0994692796276927BD
:1054300078278727782708950E94242A332312F497
:105440008A1B9B0B0C94352AA29FB001B39FC0010D
:10545000A39F700D811D1124911DB29F700D811DA0
:105460001124911D08950E94242AB7FF0895821BDC
:10547000930B08950E94242AA59F900DB49F900D30
:10548000A49F800D911D11240895B7FF0C943A2A12
:105490000E943A2A821B930B0895991B79E004C05D
:1054A000991F961708F0961B881F7A95C9F7809563
:1054B0000895F999FECF92BD81BDF89A992780B5DC
:1054C0000895A6E1B0E044E050E00C94932AA8E1EE
:1054D000B0E042E050E00C94932A262FF999FECFD9
:1054E00092BD81BDF89A019700B4021639F01FBA37
:1054F00020BD0FB6F894FA9AF99A0FBE0895039654
:10550000272F0E946E2A0E946D2A252F0E946E2A44
:10551000242F0C946E2A0196272F0E946E2A0C9439
:105520006D2ADC01CB01FC01F999FECF06C0F2BD6A
:10553000E1BDF89A319600B40D9241505040B8F751
:105540000895FC014150504030F001900616D1F70B
:105550003197CF010895882799270895FB01DC0131
:1055600004C08D910190801921F441505040C8F73A
:10557000881B990B0895FB01DC0102C001900D927C
:1055800041505040D8F70895F894FFCF9213BA13C2
:105590005D15BA135D15ED130E145D150C15191577
:1055A00039193919741974190B1A251AA319A31961
:1055B000301A9D1AAE1AAE1A142618265A266B26D1
:1055C000762681268426CE26F82668266826032796
:0E55D00006270A2730275227552757277C2702
:1055DE0000000001000000000000000401000000B7
:1055EE00040500000000000001F7042C0A0B0A0657
:1055FE000A010AF60401191A1B1C1D1E1F20212266
:10560E0001020101818283E200E900EA00B500B6E1
:10561E0000B700CD008301CC008A019201940121D4
:10562E0002230224022502260227022A02B300B414
:10563E00006F0070001B0297C63435F6F731333217
:10564E0036000102020202060606090909090909C5
:10565E000F0F0F0F0F0F15151518191919191919F5
:10566E0019191919232440227B49012701AC00E2A4
:06567E0005FB051B060000
:00000001FF
