:100000000C9426020C9443020C9443020C94430279
:100010000C9443020C9443020C9443020C9443024C
:100020000C9443020C9443020C94CB230C949F2415
:100030000C94AF1E0C9443020C9443020C944302A4
:100040000C9443020C9443020C9443020C9443021C
:100050000C9443020C94361F0C9443020C944302FC
:100060000C9443020C9443020C9443020C944302FC
:100070000C9443020C9443020C9443020C944302EC
:100080000C9443020C9443020C9443020C944302DC
:100090000C9443020C9443020C9443020C944302CC
:1000A0000C9443020C9443020C9443023900AB00BD
:1000B000AE00AC00390000047F3F1F64321464328C
:1000C00014783C1E1E140A052223252628292A2CD2
:1000D0002D2F3032333536383A3B3D3E4042434592
:1000E00047494A4C4E5051535557595A5C5E6062CD
:1000F000646668696B6D6F71737577797B7D7F81DD
:10010000838587898A8C8E90929496989A9C9E9FDC
:10011000A1A3A5A7A8AAACAEAFB1B3B4B6B8B9BBFA
:10012000BCBEBFC1C2C3C5C6C7C9CACBCCCDCED069
:10013000D1D2D2D3D4D5D6D7D7D8D9D9DADADBDB56
:10014000DBDCDCDCDCDCDDDDDDDDDCDCDCDCDCDBED
:10015000DBDBDADAD9D9D8D7D7D6D5D4D3D2D2D136
:10016000D0CECDCCCBCAC9C7C6C5C3C2C1BFBEBC29
:10017000BBB9B8B6B4B3B1AFAEACAAA8A7A5A3A19A
:100180009F9E9C9A98969492908E8C8A898785835C
:10019000817F7D7B79777573716F6D6B696866643C
:1001A00062605E5C5A5957555351504E4C4A49470C
:1001B000454342403E3D3B3A3836353332302F2DB1
:1001C0002C2A292826252322FFAA7F554000010139
:1001D0000101010101010102020202020202020206
:1001E00003030303030303030404040404040405D6
:1001F000050505050606060606070707070708089A
:100200000808090909090A0A0A0B0B0B0C0C0C0D4A
:100210000D0D0E0E0E0F0F0F1010111111121213E3
:10022000131414151516161717181819191A1A1B5E
:100230001B1C1D1D1E1E1F202021222223242425BD
:100240002626272829292A2B2C2D2D2E2F303132F6
:1002500032333435363738393A3B3C3D3E3F404106
:1002600042434445464748494A4C4D4E4F505153EE
:1002700054555658595A5B5D5E5F616264656668A5
:10028000696B6C6D6F7072737577787A7B7D7E8029
:1002900082838587888A8C8E8F91939596989A9C75
:1002A0009EA0A2A3A5A7A9ABADAFB1B3B5B7BABC89
:1002B000BEC0C2C4C6C9CBCDCFD1D4D6D8DBDDDF5A
:1002C000E2E4E7E9EBEEF0F3F5F8FAFDFF16036D73
:1002D0000069006E0069004D004100430052004F6C
:1002E00000350000001E036C0065006100660063BD
:1002F00000750074007400650072006C006100629B
:1003000000730000000403090409023B000201001D
:10031000A0FA0904000001030101000921110100F4
:1003200001224000070581030800010904010001C2
:100330000300000009211101000122B60007058217
:10034000032000011201000200000008EBCE0700AC
:1003500001000102000105010902A1018502090154
:10036000A100050919012908150025019508750145
:1003700081020501093009311581257F9502750833
:10038000810609381581257F950175088106050CC0
:100390000A38021581257F950175088106C0C005C0
:1003A000010980A101850319012AB700150126B7AB
:1003B00000950175108100C0050C0901A10185049B
:1003C00019012AA002150126A002950175108100CD
:1003D000C005010906A1018506050719E029E715F1
:1003E0000025019508750181020507190029EF15FF
:1003F00000250195F075018102050819012905956F
:100400000575019102950175039101C00501090669
:10041000A101050719E029E71500250195087501D7
:1004200081029501750881010507190029FF150052
:1004300026FF009506750881000508190129059514
:100440000575019102950175039101C011241FBE2C
:10045000CFEFDAE0DEBFCDBF11E0A0E0B1E0E6E330
:10046000FFE402C005900D92A03DB107D9F722E04C
:10047000A0EDB1E001C01D92A23FB207E1F70E94DA
:1004800063100C9483270C940000811108C089EA42
:10049000611101C08AEA0E943F0481E00895813021
:1004A00029F481E26623B9F380E2F5CF823029F4A2
:1004B00082E26111F0CF83E2EECF833029F484E24F
:1004C0006111E9CF85E2E7CF843039F7E0CF81E0F1
:1004D000089581E008950E946902089508950E9498
:1004E0006E020895A5E0B0E0E8E7F2E00C94E4269F
:1004F00049835A833091D70189819A81311119C07A
:10050000662399F0222389F00E94F607182F682F9E
:1005100089819A810E94DB0769817A81812F0E94FB
:100520006C0E2596E3E00C9400270E94E807182F34
:10053000F3CF0E94F60769817A81F1CFFC01262F63
:10054000408151816281738184810E947202089589
:1005500081E00895CF93DF93EC0160E00E949E025A
:10056000BE010E946F02DF91CF9108950E948D0F0E
:1005700008950E94910F089508950E94A6060E9472
:10058000BC022FEF84E39CE0215080409040E1F7D3
:1005900000C0000008950E94BD020E945A1F0895E5
:1005A0000E94BD020E946B1F08950F931F93CF936B
:1005B000DF938C0161E00E949E02EC01B8010E9471
:1005C0006B02811106C080E0DF91CF911F910F91E6
:1005D0000895B801CE010E94E61C8823A1F3B8015A
:1005E000CE010E94F219882371F3B801CE010E9456
:1005F000581C882341F3B801CE010E94FE188823BD
:1006000011F3F8018281882361F0CB35FDE5DF0726
:1006100001F158F4C115ECE5DE0791F0CF3DDC4562
:1006200091F0C8010E946702CFCFCD358DE5D80784
:1006300069F090F0C83ADD45A1F70E94D002C3CF1F
:100640000E94CB02C0CF0E94A90CF7CF0E94EE0BF4
:10065000E8CF0E94F80BE5CF0E94FC0BE2CF0E948E
:10066000911E0E944C0308950E9450030E94961E02
:10067000089508950E943903089581E008950E9425
:100680003D0308950895CF93C82F0E943A038C2FFD
:100690000E943F03CF91089580E00E944303089594
:1006A0000E94421D0E9443030895CF930E94421D61
:1006B000C82F8091D2018C1779F0C093D2010E948B
:1006C0001B1F6093D3017093D4018093D501909345
:1006D000D6018C2F0E944303CF910895ABE0B0E088
:1006E000E4E7F3E00C94E5264F83588769877A871F
:1006F0008B8761110E94390B1E821D8285E0FE01ED
:100700003796DE01119601900D928A95E1F78C8162
:100710009D81892B61F449815A816B817C818D8116
:100720009E810E94620A2B96E2E00C940127898147
:100730009A8189238F3F79F3CE0101960E94A80206
:100740008111E9CFF0CFFC01808191810E942808BE
:100750000895CF93C82F8823B9F08CEF8C0F813A7E
:10076000A8F46C2F80910001909101010E94B71DA7
:10077000882329F08C2F0E94F90A0E945A0B8C2F93
:100780000E94F10A0E945A0BCF91089580E28C0FCB
:10079000883048F4C77081E001C0880FCA95EAF735
:1007A0000E941C0BEFCFEBE5EC0FE33040F4F0E0E0
:1007B000E85AFE4F808190E00E94771DE5CFE8E582
:1007C000EC0FE73150F4F0E0EE0FFF1FE65DFE4F57
:1007D000808191810E948D1DD7CFCD3EA8F28C2FB4
:1007E0000E94E7100E94BA11CFCF882379F19CEFC5
:1007F000980F913A28F40E94F90A0E945A0B089522
:1008000090E2980F983050F4877091E001C0990FF2
:100810008A95EAF7892F0E94220BEFCF9BE5980F6C
:10082000933028F490E080E00E94771D089598E5C9
:10083000980F973128F490E080E00E948D1D089574
:100840008D3E20F00E9441110E94BA1108951F931D
:10085000CF93DF93182FEB010E94A903209739F45F
:10086000812F0E94F503DF91CF911F9108958FE9A9
:100870009FE00197F1F700C000002197EFCF70E0F3
:1008800060E0893311F460E570E00E942704089568
:10089000882321F00E941C0B0E945A0B0895882384
:1008A00021F00E94220B0E945A0B0895B0E0A0E0B4
:1008B000ECE5F4E00C94DE266C01D62FC72FFC018A
:1008C0001281F580F2949FE0F9220E94120BE82E2B
:1008D0008823B9F0E12E1123A1F08C2F807F803482
:1008E00021F080E28D0F8830D0F08091CA0282FF23
:1008F00016C082E00E94BD0B0E94120B91E0E82E10
:10090000E926BC2EB2948FE0B822FBE0FB1508F478
:1009100068C0EB2DF0E0EB57F84D0C949E26E12CCF
:10092000F0CF0C2F0F70C07F11F00295007F1123C4
:1009300099F0002359F080E28D0F883010F0D1112A
:1009400007C0802F0E941C0B0E945A0B8D2F41C0A4
:10095000802F0E942C0BF8CF8D2F0E94F5030023CF
:1009600009F43FC080E28D0F883010F0D11104C02F
:10097000802F0E94220B03C0802F0E94320B0E9406
:100980005A0B2FC00C2F0F70C07FC03211F0029590
:10099000007FDD2381F0D13009F463C0112309F415
:1009A0006DC0FF2009F463C0F601858180FFCECFC2
:1009B0008F7085835CC08091CA0282FD33C0112391
:1009C00059F0002329F0802F0E941C0B0E945A0B23
:1009D00080E00E94A90305C080E00E94F503011198
:1009E000C7CFEB2DE850FF0B349720F40E94421D37
:1009F0000E944303EE2089F00E940E0B80FD0DC083
:100A0000F60112820E94080B0E943907C6010E945B
:100A100066060E94080B0E944907CDB7DEB7E9E0E1
:100A20000C94FA26112389F0F11006C00E943C0BA9
:100A3000802B0E944804D5CF21E0F212F7CF0E940C
:100A40003C0B802B0E94430BCCCFF11006C00E94C0
:100A5000500B802F0E944F04C4CF31E0F31609F2EF
:100A6000F6CF112331F085E08F1508F4BACF802F2F
:100A7000E0CF94E09F1508F4B4CFEBCFFF2049F30B
:100A8000D93349F4FFEF27EE33E0F15020403040F6
:100A9000E1F700C000008D2F0E94F503A2CF8C2F3C
:100AA00086958695837069F0813009F09ACF8D2FF5
:100AB0009C2F9370111102C090E080E00E948D1D68
:100AC00090CF8D2F9C2F9370111102C090E080E089
:100AD0000E94771D86CF8D2F112329F00E94E710E9
:100AE0000E94BA117ECF0E944111FACF8C2F8370E1
:100AF000A1F5111176CF4D2F429546954770440FC1
:100B0000440F2D2F2F7030E0042E02C0220F331F10
:100B10000A94E2F790E080E0D4FF09C08FE090E013
:100B200002C0880F991F4A95E2F780959095C69567
:100B3000C695C370822B932BC23049F058F4C13054
:100B400019F00E9407074DCF0E94FE064ACF0E946F
:100B5000100747CF0E94FB0644CF8695112311F062
:100B60008C2F8170882309F43CCF4D2F42954695F8
:100B70004770440F440F2D2F2F7030E0042E02C019
:100B8000220F331F0A94E2F790E080E0D4FF09C0FF
:100B90008FE090E002C0880F991F4A95E2F7809598
:100BA0009095C695C695C370822B932BC23049F0A1
:100BB00058F4C13019F00E94740713CF0E946B07DC
:100BC00010CF0E947D070DCF0E941F070ACFCF7064
:100BD000112329F08C2F0E9439078D2F2ACF8D2FBA
:100BE0000E944F048C2F0E944907FBCED23F51F147
:100BF00060F4D03FB9F0D13F81F0112309F449C02E
:100C0000F110A4CE8C2F8F7121C0D33F11F1D43FAE
:100C1000A1F78091CA0282FD26C08C2F8F7111230B
:100C200011F314C0112349F084E08F1508F4D9CED4
:100C30008C2F8F710E945B07D4CE95E09F1508F42E
:100C4000D0CEF6CF8C2F8F711111CDCF0E943907E6
:100C5000C8CE112329F08C2F8F710E942D07C1CE91
:100C60000E942807BECE112349F0CF718C2F0E941D
:100C7000390763E08C2F0E949F0BB3CE81E00E9466
:100C8000BD0BE1E0EF1508F0ACCE82E00E94BD0B99
:100C9000A8CEF110F5CE8C2F8F71A5CF0F931F9397
:100CA000CF93DF93EC01688179818A810E943308B8
:100CB0008C010E9486070E94FA06B801CE010E94AC
:100CC0005604DF91CF911F910F910895CF93DF9339
:100CD000EC018B819C81892B29F088819981892362
:100CE0008F3F51F4DF91CF910895CE010E944E06BF
:100CF000CE010E94AA02F6CFCE010E94D502811138
:100D0000F4CF0E94120B882369F38A81882351F360
:100D10008091CA0282FFE6CF82E00E94BD0BE2CF43
:100D200090E080E00E94771D90E080E00E948D1DA1
:100D30000E94390B0E945A0B0E94D6110E94BA11D0
:100D400008950E94010B0E94900608950E94290BAD
:100D50000E94A106089592959F70963091F058F4E4
:100D6000925F9F70923058F4803F19F030F4883EC3
:100D700030F481E008959A5FF4CF843FD1F380E0AE
:100D80000895883EB0F3813FD1F7F3CFFC01838112
:100D90009481892B29F08081918189238F3F11F4DF
:100DA00080E00895808191810E9428080E94AB060E
:100DB0000895A5E0B0E0EFEDF6E00C94E526259669
:100DC000E2E00C940127A6E0B0E0E9EEF6E00C9436
:100DD000E5262696E2E00C94012708950E94ED0690
:100DE00008950E94EE069093DF018093DE010E9439
:100DF0009006089508950E94F10608952091DE015D
:100E00003091DF01822B932B0E94F10608952091EF
:100E1000DE013091DF01822393230E94F1060895C1
:100E20002091DE013091DF01822793270E94F10695
:100E300008950E94ED0608950E94190708950E94E2
:100E40001C079093DD018093DC010E9490060895B9
:100E500090E080E00E941F07089521E030E0A901A2
:100E600002C0440F551F8A95E2F7CA010E941F076E
:100E7000089521E030E002C0220F331F8A95E2F787
:100E80008091DC019091DD01822B932B0E941F0742
:100E9000089521E030E002C0220F331F8A95E2F767
:100EA000209530958091DC019091DD018223932380
:100EB0000E941F07089521E030E002C0220F331F77
:100EC0008A95E2F78091DC019091DD0182279327DA
:100ED0000E941F0708952091DC013091DD01822BD3
:100EE000932B0E941F0708952091DC013091DD01B2
:100EF000822393230E941F0708952091DC013091E3
:100F0000DD01822793270E941F0708950895262F49
:100F1000277091E001C0990F2A95EAF723E07695B2
:100F200067952A95E1F7660F771F660F771FFA011D
:100F3000E60FF71F50E040E0682F70E08191DF017D
:100F400011979B01042E02C0369527950A94E2F76B
:100F5000217021952827292328272C934F5F5F4F45
:100F60004430510559F70895A82FA77023E09695AE
:100F700087952A95E1F7880F991F880F991FFB0124
:100F8000E80FF91F50E040E080E0219130E00A2EA8
:100F900002C0369527950A94E2F721703327042E74
:100FA00001C0220F0A94EAF7822B4F5F5F4F443053
:100FB000510559F70895262F911109C0853038F44D
:100FC000682F70E048ED51E0822F0E948707089556
:100FD00091110AC0853030F468ED71E090E00E9414
:100FE000B407982F892F089590E0FCCFB0E0A0E0DF
:100FF000ECEFF7E00C94DE267C010091DC0110910F
:10100000DD018091DE019091DF01082B192BCFE0EB
:10101000D0E0CC24C394D12CBC2EC6010C2E02C02F
:10102000880F991F0A94E2F780239123892B49F4B2
:10103000219790F7B12C8B2DCDB7DEB7E9E00C945A
:10104000FA26B7018C2F0E94810E019789F3F3CF06
:10105000CF93DF93EC010E94F607BE010E94810E40
:10106000DF91CF9108951F93CF93DF93EB01909180
:10107000D701992339F0CB010E942808DF91CF9145
:101080001F910895882369F0CB010E94F607182F5D
:10109000682FCE010E94DB07BE01812F0E94810EC6
:1010A000EDCFCB010E94E807182FF6CF1F93CF9307
:1010B000DF93C091E00116E08091E1018C1304C040
:1010C000DF91CF911F910895D0E01C9FF0011D9FEB
:1010D000F00D1124EE51FE4F4081518162817381E8
:1010E000848195810E94E3062196C770E5CF4091E7
:1010F00012025091130260911402709115028091B6
:101100001602909117020E94E30608951F93CF9351
:10111000DF9380911702807F09F049C0809114020B
:10112000882309F444C08091E001C091E1016091FD
:10113000120270911302A0911502B0911602D62FDF
:10114000D72316E0C81799F190E0109711F0DF3F10
:1011500019F401968770F6CF189F9001199F300DF2
:101160001124F901EE51FE4F41814713F2CF408126
:101170004613EFCF42814111ECCF438154814A1B8A
:101180005B0B483C510528F7809117028F708061F6
:1011900080931702F901E951FE4F80818F708061C1
:1011A000808382E192E00E9466060E945608DF91E9
:1011B000CF911F910895A1E1B0E0E1EEF8E00C9429
:1011C000DD268C0185E0F801DE011D9601900D926F
:1011D0008A95E1F7F801E28082E1C82E82E0D82EFC
:1011E00060911502709116026115710509F44EC1E6
:1011F0009091120220911302892F82238F3F09F4CC
:1012000045C140815181A380B480F0901402F50162
:10121000E61BF70BFF2009F4EAC080911702382F74
:10122000307FE83CF10508F0A3C031116DC0FE2C01
:10123000251316C0941314C0E11012C08F70806182
:10124000809317020E947708C6010E94660680916B
:101250001702F80185838F2D6196EAE00C94F92638
:10126000A114B10429F0842F85238F3F09F027C1F1
:1012700080E0F82FF170DF2E80FF3CC08091E0010C
:101280002091E10136E0821315C04D875E878D8580
:101290009E850E942808292F22952F702230F0F079
:1012A000243018F59F70F1F0F8019581907FD1F40A
:1012B000D12C1EC090E0389FF001399FF00D112411
:1012C000EE51FE4F6181651306C06081641303C057
:1012D0006281E6120FC001968770D5CF9F7011F022
:1012E000882331F3805E883018F3C8010E946606B7
:1012F000FD2CB1CFEE2009F4AECF809117028160B2
:1013000080931702F12CA7CF251306C0941304C0B5
:10131000F801EE2009F487C0C8010E94C6068823A0
:1013200019F1EE2009F180911702803270F02091BE
:1013300012023091130238872F831986BB86AA8642
:101340008C87CE0107960E94660686E0F801A2E12E
:10135000B2E001900D928A95E1F70E9486080E9402
:101360007708FF24F39477CFC8010E946606F9CF6F
:10137000311113C07A2DB98AA88A6E2D89890E94ED
:10138000D90682E192E00E94660686E0F60111929B
:101390008A95E9F70E947708B5CF25130FC09413FB
:1013A0000DC0E1100BC0F8018583C8010E946606DC
:1013B00086E0F60111928A95E9F74DCFC8010E94A7
:1013C000C606882389F2EE2079F2809117028032D6
:1013D00008F4BBCF20911202309113023A83298383
:1013E0001B82BD82AC828E83CE010196ACCFE83CDD
:1013F000F10508F03EC0FE2CEE2009F4B5CF251310
:101400002AC0941328C08091170280FD1BC0982F1A
:10141000907FC1F0F8018583903F31F0982F907F45
:10142000905F8F70892B8583C8010E94660686E0D5
:10143000F801A2E1B2E001900D928A95E1F70E94D5
:10144000770809CF86E0F801A2E1B2E001900D92A1
:101450008A95E1F700CFC8010E94C606811175CFB9
:1014600080911702816080931702C8010E9466066E
:10147000F2CE7A2DB98AA88A6E2D89890E94D90662
:1014800086E0F60111928A95E9F7D9CFEE2009F4AA
:101490006BCFC8010E94C606F82E882309F464CFDA
:1014A00086E0F801A2E1B2E001900D928A95E1F7A1
:1014B00082E192E00E94A3030E948608C0CF81E0EF
:1014C0008E25D7CEACE0B0E0E8E6FAE00C94E42656
:1014D0004F83588769877A878B879C87CE010796C9
:1014E0000E94DB08882369F08A859B85892B39F067
:1014F0004F815885842F85238F3F09F06BC016E0FC
:101500005FC086E0FE013796DE01119601900D92D4
:101510008A95E1F78A859B85892B89F38F81988548
:1015200089238F3F61F32091E10130E0C9010196E9
:10153000877099274091E0014817190671F40E94BD
:10154000A6061092E1011092E00186E0E2E1F2E0ED
:10155000DF011D928A95E9F7D2CF96E0929FD001E4
:10156000939FB00D1124AE51BE4FFE0131960190F4
:101570000D929A95E1F78093E1010E945608BFCF42
:10158000819FC00111248E519E4F0E94DB08882349
:10159000E9F0E091E0011E9FF0011124EE51FE4FB1
:1015A0004081518162817381848195810E94E3062B
:1015B0008091E00190E00196877099278093E00187
:1015C0008091E0019091E1018913DACF2C96E3E05C
:1015D0000C94002769857A858B859C850E94E3069B
:1015E0008ECF682F80910001909101010E94371EDB
:1015F0000895682F80910001909101010E94451E7D
:10160000089580910001909101010E94531E089558
:101610008091380285958595859508958091380249
:101620008770089590913802977081E009F480E006
:10163000089580915B02089590915B02892B8093BD
:101640005B020895809590915B02982390935B02D2
:10165000089510925B02089590915A02892B80930D
:101660005A020895809590915A02982390935A02B5
:10167000089510925A0208958091390208950895AC
:101680000E943F0B08959091CA0292FF08C090916A
:101690003902981721F0809339020E94400B089577
:1016A00080913902882329F01092390280E00E944B
:1016B000400B0895CF93DF93E0910001F091010179
:1016C00080915B028083E0910001F09101018081B3
:1016D00090915A02892B808390913902992381F04D
:1016E000E0910001F09101018081892B808380913C
:1016F0000001909101010E94A31D81110E94500BD5
:10170000C0910001D091010140E250E068E172E037
:10171000CE010E942527892B59F080E2FE01A8E125
:10172000B2E001900D928A95E1F7CE010E944F1D23
:10173000DF91CF91089508950E949B0B0895909199
:10174000CA0292FF11C098E0899F90011124622B78
:10175000609338020E9439078091380285958595FB
:1017600085950E949C0B08950E9439070895109258
:10177000380280E00E949C0B089590913802809579
:10178000892380933802282F277091F4282F082E60
:10179000000C330B9217130659F09091CA0292FF76
:1017A00007C08595859585950E9449070E94B70BCE
:1017B00008959091CA0292FB222720F9281769F018
:1017C00080FB92F99093CA028091C9029091CA025B
:1017D0000E94230C82E00E94BD0B08958091CA02F2
:1017E00082FB882780F991E089270E94D90B089510
:1017F00081E00E94D90B089580E00E94D90B0895E2
:1018000090E080E00E94492721E0883E9E4F09F049
:1018100020E0822F089582E090E00E943B27089507
:1018200083E090E00E943B270895CF9384E090E00E
:101830000E943B27C82F82E290E00E943B27982F0E
:101840008C2FCF910895CF93C92F682F84E090E01B
:101850000E944F276C2F82E290E00E944F27CF9189
:101860000895AB01BC018FE090E00E9461270895CC
:10187000AB01BC0183E190E00E946127089560E024
:1018800070E0CB010E94380C089560E070E0CB015D
:101890000E94310C0E943F0C089568EE7EEF90E0AC
:1018A00080E00E946D2760E082E090E00E944F2778
:1018B00060E083E090E00E944F271092DF011092D9
:1018C000DE0160E084E090E00E944F2764E082E265
:1018D00090E00E944F2760E085E090E00E944F2753
:1018E00060E086E090E00E944F276FEF87E090E095
:1018F0000E944F2740E050E0BA0188E090E00E944B
:10190000612760E08DE090E00E944F2740E050E0CA
:10191000BA0188E190E00E94612760E087E190E0F1
:101920000E944F2740E050E0BA018CE190E00E9415
:10193000612770E060E080E290E00E946D2740E067
:1019400050E0BA0188E190E00E9461270E94450CB6
:1019500008950E944D0C0895682F8EE090E00E943B
:101960004F2708950E941B1F6093670270936802BF
:101970008093690290936A02609363027093640299
:10198000809365029093660208950E941B1F6093E6
:101990006702709368028093690290936A02609371
:1019A0005F027093600280936102909362020895D7
:1019B000089508950E94D90C089508950E94DD0CA1
:1019C00008958BE69FE00E94381D0E94D80C0E946B
:1019D000DA0C089581E008950E94EA0C08950895B4
:1019E00008950E94EF0C0E94F00C08950E946E0F63
:1019F0000E94420308950E94061F0E94E60F0E9463
:101A0000F60C0E9422180E946A1B0E94DE0C0895A8
:101A1000AAE0B0E0EEE0FDE00C94E0260E94F20FB8
:101A200010915E0280E00E94940F18132DC00E9456
:101A30000F1F8C0180915C0290915D0208171907BD
:101A4000A1F08FEF89838A831B820E940F1F816020
:101A5000782F9D838C8349815A816B818D810E946F
:101A60006E0310935D0200935C020E9455180E9461
:101A7000DB1B81110E94C50C0E94F8110E945503C6
:101A80002A96E7E00C94FC2680916B0281FD0E946F
:101A90009A0F0E94EC0CD82E80E00E94940F182F11
:101AA00080915E02181721F1E12EE82600E0FF2464
:101AB000F3948E2D8F21B1F0DD20A1F00E831F82D3
:101AC00091E0812F8F2109F490E098870E940F1FE9
:101AD0008160782F9A8789874E815F8168858A85A2
:101AE0000E946E030F5FFF0C053019F710935E0222
:101AF0000E94B20CBACFCF93DF930E94860EEC0106
:101B0000811521E5920708F042C0811530E5930761
:101B100008F09FC0883E910530F5803E910508F0A1
:101B200094C0883A910588F4853A910508F086C0FA
:101B30008130910509F489C0009709F486C00497A3
:101B400008F083C0D0E0C0E080C08F3B9105D0F7A3
:101B5000C85AD0E0CC0FDD1FC55ADE4F0990D8819E
:101B6000C02DD46472C0811540E2940750F4C115B1
:101B700081E0D80708F069C0CD3ED10518F3D065E3
:101B800064C081159044F0F2DF70D06A5EC08115A8
:101B900035E5930718F5811544E5940708F085C0ED
:101BA000C11583E5D80708F06CC0C11522E5D2073E
:101BB00008F462C0CE018370992721E030E002C0B2
:101BC000220F331F8A95E2F7C695C69580E2C89F1B
:101BD000E0011124C22BD32BDC6837C0811539E515
:101BE0009307A8F4811548E5940708F063C0C11570
:101BF00086E5D80708F0A6CF8C2F0E94280FC82FA3
:101C0000D0E0DC2FCC27CC27DF71D0621EC081153D
:101C10002AE5920708F453C090568115904208F0C7
:101C200091CF8D2F8F710E94280F90E0982F8827D9
:101C300088279F719C012C2BE901E7CFC55AD0E082
:101C4000C757DE4FC881D0E0D064CE01DF91CF917D
:101C500008958370992721E030E002C0220F331FDE
:101C60008A95E2F7C695C69540E2C49FE00111242B
:101C7000C22BD32BDD68E9CFDC2FCC27C16FD06A14
:101C8000E4CFCE018370992721E030E002C0220F1B
:101C9000331F8A95E2F7C695C69540E2C49FE001DE
:101CA0001124C22BD32BDA68D0CFD82FCC27C46F06
:101CB000D06ACBCFD82FCC27C06FD06AC6CF8F7059
:101CC0000E94280F34E0D695C7953A95E1F7CF707A
:101CD0009C2FEC01D069B9CF711110C0653070F440
:101CE000E62FF0E095E0899FE00DF11D1124EE0F45
:101CF000FF1FE455FF4F85919491089580E090E097
:101D000008950E946C0E0E947B0D08958238910503
:101D1000B9F1B0F48133910509F47DC048F48932FA
:101D2000910509F46DC08A32910509F47BC00895CC
:101D30008533910509F45FC08933910509F1089550
:101D4000833E9105D9F138F4803E910529F1823E18
:101D5000910579F10895863E9105D9F1873E910567
:101D600009F43EC0843E910541F52091CA0221FF4D
:101D700024C08091C90284FD19C087EE90E00895C7
:101D80002091C902237009F05AC02091CA0223FF92
:101D900014C089E290E008952091C90220FD38C066
:101DA0003091CA0230FF09C024FF43C090E080E0B8
:101DB00008952091C90222FDF7CF08952091C9020C
:101DC00022FD3AC03091CA0230FD39C024FFF5CF60
:101DD000EDCF2091C90223FFF0CF24FDE7CFCDCF77
:101DE0002091C90223FD2EC03091CA0231FFEECFEF
:101DF00084EE90E008952091C90225FFDECFC9CF7F
:101E00002091C90225FD21C02091CA0223FFD5CF10
:101E100089E390E0D2CF2091C90226FFCECF8AE29B
:101E200090E008952091C90226FFC7CF81E390E09A
:101E3000089583EE90E0089582EE90E0089580EE9C
:101E400090E0089586EE90E0089585E390E008958F
:101E50009091C90292FF06C0282F28712830F9F40A
:101E6000877F846093FF06C0282F28712831F1F402
:101E7000877E84612091CA0220FF06C0382F387106
:101E80003830D9F4877F816021FF06C0282F287160
:101E90002831D1F4877E816194FD877E0895282FB3
:101EA00024712430F9F68B7F8860DCCF282F2471D1
:101EB000243101F78B7E8861DDCF382F31713130CD
:101EC00019F78E7F8860E0CF282F2171213121F70B
:101ED0008E7E8861E1CF80E0089508950E94000C15
:101EE000811102C00E94A90C0E940B0C80936B020E
:101EF0000E94150C9093CA028093C9020E946D0F34
:101F00000E94100C90E00E94FB068091DC019091F1
:101F1000DD010E941C07089508950E948C0F08950A
:101F200008950E94900F0895E82FF0E0E453FD4FCC
:101F3000808108950895CF93ACE8B1E041E951E084
:101F400061E070E08D918F3F91F0E82FE295EF70A6
:101F5000F0E0C1A18F709B0101C0220F8A95EAF7C2
:101F6000922F90959C2391A382A1822B82A34A1742
:101F70005B0741F7CF910895CF93DF93AC01A62F74
:101F8000B0E085E0689FF0011124E457FE4F75E052
:101F900081E060E091919F3F81F0C92FC295CF70A1
:101FA000D0E028A130E09F7002C0359527959A9522
:101FB000E2F7982F20FD90E0692B880F715051F7C0
:101FC000A40FB51F6C93DF91CF9108950E949B0FD2
:101FD0001092CC021092CB0281E00E9417100E9456
:101FE000B6020895A1E0B0E0E8EFFFE00C94E4262B
:101FF000198260E0CE0101960E94BC0F9091CB0245
:10200000898121E0981301C020E098138093CB02CE
:1020100041E06CEC72E08BEC92E00E941810182FFB
:102020000E94B902812F2196E3E00C9400270895C5
:10203000CF92DF92EF92FF920F931F93CF936C0199
:102040007B01042F222349F081E080936E020E94DD
:102050000F1F90936D0280936C02C0916E02C111AC
:102060000AC0C0E08C2FCF911F910F91FF90EF908D
:10207000DF90CF90089580916C0290916D020E9444
:10208000271F059770F310E0A801B601C7010E9451
:102090002527892B41F0A801B601C7010E943227EC
:1020A00010926E02DFCFC0E0FBCF0E9421210E9480
:1020B000FB0C0E942E2108950E9433210E94080DDE
:1020C0000E944D2108950E94A81E0E9407210E948F
:1020D000E10C0E9455100E945C100E94F10CFBCF95
:1020E0008091750280FF0DC06091070170E0660F5E
:1020F000771F6038710570F56115710569F1862FDC
:10210000089581FF07C06091070184E0689FB001D6
:102110001124EFCF6091070182FD0AC08091740203
:102120008823A9F02091060160910701821710F021
:1021300088E0ECCF869FC001112433E0880F991FFF
:102140003A95E1F7622F70E00E946826D2CF68E0EE
:1021500070E0D5CF8FE7089581E0089580917502F2
:1021600080FF0CC06091030170E0759567957595CF
:1021700067956115710549F1862F089581FF06C0A5
:102180006091030170E075956795F3CF609103014D
:1021900082FD0BC0909173029923A1F0609102011E
:1021A00080910301961738F0682F70E06038710550
:1021B00000F38FE70895899FC001112470E00E9409
:1021C0006826F4CF61E070E0D7CF81E008958D3EBE
:1021D00031F40E94701081958093790208958E3EAB
:1021E00019F40E947010F8CF8F3E31F40E947010E5
:1021F0008195809378020895803F19F40E947010B1
:10220000F8CF893F29F40E94AE1080937A02089596
:102210008A3F21F40E94AE108195F7CF8B3F31F4B5
:102220000E94AE10819580937B0208958C3F19F433
:102230000E94AE10F8CF9FE0980F983070F4815F45
:10224000990B21E030E001C0220F8A95EAF78091D6
:102250007702822B8093770208958D3F31F480912D
:10226000750281608093750208958E3F21F48091FC
:1022700075028260F7CF8F3FB9F780917502846055
:10228000F1CF409178028D3E59F48091790287FF19
:102290000DC01092790241110BC01092740208C057
:1022A0008E3E81F48091790218169CF3442381F0CC
:1022B00080917A0290917B02892B09F05AC010928A
:1022C000730208958F3E49F447FFF0CF10927802D1
:1022D000809179028111ECCFE0CF803F19F4141680
:1022E000ACF3E4CF90917A02893F29F41916F4F601
:1022F00010927A02DBCF8A3F19F497FFD7CFF8CF3D
:1023000090917B028B3F29F497FFD0CF10927B02F4
:10231000CDCF8C3F19F41916CCF3C8CF9FE0980F9E
:10232000983090F4815F990B21E030E0B90102C050
:10233000660F771F8A95E2F7CB018095909177021F
:10234000892380937702B2CF8D3F31F4809175025B
:102350008E7F80937502AACF8E3F21F48091750203
:102360008D7FF7CF8F3F09F0A1CF809175028B7FD2
:10237000F0CF08950E940F1F9C01909178028091E8
:102380007902982B21F03093720220937102909180
:102390007A0280917B02982B21F030937002209377
:1023A0006F0286E792E00E94691D089586E0E6E7E5
:1023B000F2E0DF011D928A95E9F710927402109203
:1023C0007302109275020895FC01828181110EC082
:1023D000838181110BC08481811108C091E08581C6
:1023E000811101C090E0892F8170089581E0FCCFB8
:1023F000A6E0B0E0EEEFF1E10C94E42686E0E6E73B
:10240000F2E0DE01119601900D928A95E1F71092AB
:1024100078021092790210927A0210927B028B81DC
:102420009C81892B89F080917102909172020E94A7
:10243000271FAC01909174029923C9F18091080182
:102440008417150608F440C08D819E81892B91F078
:1024500080916F02909170020E94271FAC019091B1
:102460007302992309F471C0809104018417150641
:1024700008F479C0BE016F5F7F4F86E792E00E944B
:10248000651E811105C086E792E00E94E41181116A
:102490000E94BA1186E0FE013196A6E7B2E00190F3
:1024A0000D928A95E1F72696E3E00C94002720919F
:1024B00009018AE0289F900111242417350720F68E
:1024C0009F5F9093740202C09F3FD1F71B8111233D
:1024D00059F00E9470109FEF11160CF491E0899F43
:1024E000802D1124809378021C81112359F00E94C1
:1024F00070109FEF11160CF491E0899F802D11242C
:102500008093790230917802332309F49DCF209192
:102510007902222309F498CF45EB3403C00111243A
:10252000992359F09093780245EB240390011124EC
:10253000332339F03093790287CF81E0809378029A
:10254000F3CF81E0809379027FCF209105018AE06B
:10255000289F900111242417350708F08BCF9F5F27
:102560009093730202C09F3FD1F71D81112359F050
:102570000E94AE109FEF11160CF491E0899F802D00
:10258000112480937A021E81112359F00E94AE100B
:102590009FEF11160CF491E0899F802D11248093F8
:1025A0007B0230917A02332309F464CF20917B02BD
:1025B000222309F45FCF45EB3403C0011124992392
:1025C00059F090937A0245EB2403900111243323B0
:1025D00039F030937B024ECF81E080937A02F3CFC3
:1025E00081E080937B0246CFEF92FF920F931F937F
:1025F000CF93DF93EB01E82FD1110EC0442321F0DC
:10260000F0E0E353FE4FE4916E2F7E2F8E2FCDB777
:10261000DEB7E6E00C94FD260D2F10E0282F30E009
:10262000442329F023533E4FF901249130E0F6E092
:10263000CF9FC0011124EFEFF0E0BF010E945426AC
:10264000AB018C2F90E0880F991FA5E5A49FB001E6
:10265000A59F700D1124861B970B982F990F980F2B
:10266000BF01601B710B629FD001639FB00D729F11
:10267000B00D11248B2F9D9FB0011124672F772758
:10268000EF01C61BD70BBE01629FE001639FD00D17
:10269000729FD00D11247F01E91AF108E09EB0016C
:1026A000E19E700DF09E700D1124672F7727E61BB9
:1026B000F70BE29F8001E39F100DF29F100D112494
:1026C000E12F722F4230510599F048F44115510520
:1026D00069F04130510581F0EB2F8D2F07C0443058
:1026E000510569F080F046305105B1F76E2F8FCF5C
:1026F000E22F7B2F812FFACFE22F7D2FF7CFEB2F09
:10270000822F712FF3CF7B2F822FED2FEFCF41E060
:102710000E94F412089508950E9487130895CF939C
:10272000DF93762FE901682F842F0E948C13798321
:1027300068838A83DF91CF9108958091CD02982F8D
:102740009E7F29F4817082608093CD0208958A343F
:10275000E8F381708864F8CF88E090E00E94432716
:102760000895CF92DF92EF92FF926B017C010E945D
:102770009D13B701A60188E090E00E946127FF90B9
:10278000EF90DF90CF900895EDECF2E083E080834E
:1027900011828FEF828383831482608171818281B1
:1027A00093810E94B11308958091CD0280FF02C0F1
:1027B0008695089580E008959091D102933018F4A1
:1027C0009F5F9093D102882351F06091CD02709168
:1027D000CE028091CF029091D0020E94B113089551
:1027E00081E00E94DC1308959091D102992319F0A1
:1027F00091509093D102882351F06091CD02709155
:10280000CE028091CF029091D0020E94B113089520
:1028100081E00E94F413089570E00E94C6190895A3
:1028200060910E018091CD0280FF0BC080910D015F
:1028300023E0829FC00111248E529D4F0E940C14F0
:10284000089580910F019091100123E0829FF00183
:102850001124EE52FD4F891748F71182108212821F
:102860008F5F3396F8CF9091CD0290FF0EC090917C
:102870000F012091100133E0939FF0011124EE52DB
:10288000FD4F921718F00E94101408958183608301
:1028900042839F5F3396F5CFA3E0B0E0E2E5F4E139
:1028A0000C94E5269091CD0290FF0AC09E012F5F07
:1028B0003F4F0E948F134B8169818A810E9433149C
:1028C0002396E2E00C940127CF93DF93EC01EC8197
:1028D000F0E0E853FF4F4491EDECF2E0628181813A
:1028E0000E944C148C818F5F8C83DF91CF9108956F
:1028F000CF93DF93EC01EDECF2E0438162818C81B8
:102900000E944C148C818F5F8C83DF91CF9108954E
:10291000A3E0B0E0EEE8F4E10C94E3268C018091B2
:102920007C0281110AC09E012F5F3F4F4FEF6FEF76
:102930000E948F138A8180937C02F8016481613048
:1029400069F080917C0240E0662361F040E06230F3
:1029500011F440917C0280E060E004C060917C0250
:1029600040E080E00E943314F801848190E00196F9
:1029700063E070E00E94682684832396E4E00C9470
:10298000FF26A3E0B0E0E7ECF4E10C94DE26082F8C
:10299000D62EE42EC22E9091CD0290FF29C0E92FB1
:1029A000E695AE2FB0E0AF56BE4F8C918093860275
:1029B0009E7F923009F59E012F5F3F4F802F0E942E
:1029C0008F134B8169818A810E9433140093CE0258
:1029D000D092CF02E092D002CC2051F06091CD0293
:1029E0007091CE028091CF029091D0020E94B113DB
:1029F0002396E9E00C94FA26823019F4E090D00294
:102A0000E5CF863019F40091CE02E0CF8930D9F3BA
:102A10008931E1F6E9516E2F6170B62EE695F0E04E
:102A2000E853FE4F1491F12C60911101F61618F045
:102A30000E941014CBCFF19EC001112470E00E94BF
:102A40005426802FB11014C0860F20910F01622FE1
:102A50006F0D7727771F9B01220F331F260F371F1C
:102A60002E523D4F4E2D6D2D0E948F13F394DCCFCF
:102A7000861BEBCFEDECF2E09181282F4381628140
:102A800088E0890F0E94C114089581E00E943A15E0
:102A90000895EDECF2E09181282F4381628188EF67
:102AA000890F0E94C114089581E00E94491508957C
:102AB000EDECF2E0628121E1620F08F46FEF282F64
:102AC000438181810E94C114089581E00E945815BC
:102AD0000895EDECF2E0628121E1621B08F460E010
:102AE000282F438181810E94C114089581E00E94B2
:102AF00069150895EDECF2E0438121E1420F08F4FD
:102B00004FEF282F628181810E94C114089581E0D6
:102B10000E947A150895EDECF2E0438121E1421B19
:102B200008F440E0282F628181810E94C114089539
:102B300081E00E948B15089520E00E94C114089541
:102B4000EF92FF921F93CF93DF93EC0110E0EE24FE
:102B5000EA94F12C60911101161770F00E94101484
:102B60009A818C8190FF27C08F5F8C83DF91CF91FA
:102B70001F91FF90EF90089520910F01422F410F78
:102B80005527551FCA019A01220F331F280F391FDD
:102B90002E523D4F70E0C7010E946826962F8C810F
:102BA0004091D0026091CF02199F800D11240E94A4
:102BB0008F131F5FCFCF8150D8CFB0E0A0E0E3EEFE
:102BC000F5E10C94DD26FC0182810FEF80FF01E02E
:102BD00010E045E0A42E80911101181798F00E9492
:102BE000101480917E02013009F04FC0811102C0A3
:102BF00080911101815080937E02CDB7DEB7EAE06B
:102C00000C94F926C0910F01C12ED12CCC0DDD2DD5
:102C1000D11DCE01880F991FC80FD91FCE52DD4F8D
:102C2000198218821A8234E0E32EF12CB12C8091A3
:102C30007E028B0D86301CF16A2D0E944626892F5C
:102C4000082E000C990BC816D90691F48091D00279
:102C50008E9DA0018F9D500D11245595479555953A
:102C600047959E016091CF028091CE020E948F1302
:102C7000B00EF1E0EF1AF108D1F61F5FACCF87FF7D
:102C8000DFCF90911101890FDBCF90E00196609129
:102C9000110170E00E946826AECF0F931F93CF936F
:102CA000DF9380910F019091100123E0829FF0014A
:102CB0001124EE52FD4F891740F1C0E0D3E060913E
:102CC0001101C61740F10E94101420910B01809150
:102CD0007D02820F80937D0290910C01920F909360
:102CE0000C01191654F4082E000C990B4091110197
:102CF0004150550B841795071CF0219520930B012B
:102D0000DF91CF911F910F9108951182108212824D
:102D10008F5F3396D0CF0C2F10E070E0C8010E9477
:102D2000682620910F01820F482F50E020917D02EC
:102D3000022E000C330B02171307BCF020910C017C
:102D4000022E000C330B201731077CF08D9F900171
:102D500011242E523D4F4091D0026091CF028091BC
:102D6000CE020E948F13CF5FAACFFA01EE0FFF1F92
:102D7000E40FF51FEE52FD4F118210821282F3CF45
:102D8000B0E0A0E0E6ECF6E10C94DB26EC014C812F
:102D9000042F10E09801D8010E94AC269B01AC01E1
:102DA0000E94C2264B015C01E0E2F0E0E01BF10B67
:102DB000A5E5B0E0AC019B010E94C2266B017C013D
:102DC0009F01DF010E94A4269B01AC010E94CD2639
:102DD0009B01AC01280D391D4A1D5B1DC701B601C1
:102DE0000E947C26F22E822F90E039E23F1520F1DE
:102DF00043E0249F9001112435952795122F1095BB
:102E000000E085E5E82EEF1880911101081718F110
:102E10000E9410149C8181E0992319F0903219F4DA
:102E20008FEF80930A0180910A01890F8C83CDB7BF
:102E3000DEB7ECE00C94F72625E530E0B901681B1D
:102E4000790B9B01220F331F260F371F37FFD4CF7B
:102E50002F5F3F4FD1CF8E2D01FD8F2D20910F0180
:102E6000622F600F7727771F9B01220F331F260FDA
:102E7000371F2E523D4F412F6091CF020E948F137A
:102E80000F5FC2CF0F931F93CF93DF93EC0110E03E
:102E900000E0909111019017110609F06CF40E9466
:102EA00010148C8190E00196817099278C83DF91BA
:102EB000CF911F910F91089520910F01A801420F0A
:102EC000511D9A01220F331F240F351F2E523D4FE3
:102ED0004C816091CF028091CE0296959017110699
:102EE00051F04CF0442349F04091D0020E948F13DE
:102EF0000F5F1F4FCECF4423B9F340E0F7CFEDEC87
:102F0000F2E080818E7F80836081718182819381F4
:102F10000E94B113109287022FEF80E792E02150B8
:102F200080409040E1F700C000000E941014089516
:102F30006091CD02669570E04BE050E082E191E057
:102F40000E941827892B19F481E0809387020E9440
:102F50000F1F9093800280937F0208959091CD027D
:102F600090FF2BC09170811129C092609093CD0287
:102F7000662351F06091CD027091CE028091CF0214
:102F80009091D0020E94B1136091CD02669570E0DD
:102F90004BE050E082E191E00E941827892BA9F0D4
:102FA0001092870281E0809382024091D00260916A
:102FB000CF028091CE020E949C150895853210F0B8
:102FC0009864D4CF880F982BD1CF0E949817EACF5E
:102FD000682F9091CD02969581E0890F853208F097
:102FE00081E00E94AE17089581E00E94E8170895DD
:102FF000682F9091CD0296958FEF890F09F484E2A6
:103000000E94AE17089581E00E94F817089561E0CC
:103010000E94AE170895EDECF2E08081816080831C
:1030200086950E94071808958091CD0280FF03C005
:103030000E947F1708950E940B18089560E00E9477
:10304000AE1708958091850281112EC00E94000C58
:10305000811104C00E94A90C0E94C4130E94AC13E9
:103060006093CD027093CE028093CF029093D002F2
:103070006E7F61F40E94C4130E94AC136093CD0272
:103080007093CE028093CF029093D0020E949D1342
:10309000109287028091CD0280FF03C086950E9426
:1030A0001E1881E08093850208950F931F93CF939C
:1030B000DF93809187028823B9F180918602E091A5
:1030C000CD02E695E81BE0938102823091F5F0E0B5
:1030D000EC53FF4FE491CE2FD0E004E614E1809151
:1030E0008202882361F0109282020E940F1F909347
:1030F000800280937F0210928402109283020E94C9
:103100000F1FE0917F02F09180028E1B9F0B8F3F7B
:103110009F4750F4EC0FFD1FF0938002E0937F0275
:103120008FE792E0F8010995DF91CF911F910F9100
:103130000895863049F4F0E0EF53FF4FE491CE2F2D
:10314000D0E008E714E1CBCF893051F4E695F0E008
:10315000E254FF4FE491CE2FD0E000EA15E1BFCF5B
:103160008F3051F4E695F0E0E554FF4FE491CE2F17
:10317000D0E00DED15E1B3CF853149F4F0E0E8542E
:10318000FF4FE491CE2FD0E00DE416E1A8CFC8E2C6
:10319000D0E000EC16E1883109F4A1CF833239F494
:1031A000E6EBF0E0C591D49108E814E198CFC4EFC4
:1031B000D1E002E417E1843209F491CFC0EDD7E009
:1031C0000BE813E18CCFFA01811101C0FB010995D5
:1031D0000895CF93DF93C82FD62F0E94D4138C1756
:1031E00048F00E94D4138D1728F40E94F417DF9141
:1031F000CF9108958C2F0E940718F9CF1F93CF937A
:10320000DF93EC01FB01128111117EC00E94190BAA
:103210008272CD3CFCE5DF0709F49CC008F041C098
:10322000C73CECE5DE0709F481C0D8F4C43C9CE55A
:10323000D90709F471C030F4C33CDC4509F469C016
:1032400011E062C0C53C9CE5D90709F46AC044E5B9
:1032500055E165E475E1C63CDC4591F70E94E31851
:1032600053C0CA3CFCE5DF0709F46AC068F4C83CF7
:10327000ECE5DE0709F45FC045E655E166E775E178
:10328000C93CDC4559F3DCCFCB3C9CE5D90709F4BC
:103290005CC048E054E160EF73E1CC3CDC45F1F206
:1032A000CFCFC23DFCE5DF0709F465C098F4CF3C01
:1032B0009CE5D90709F457C008F451C0C03DFCE5AE
:1032C000DF0709F455C0C13DDC4509F0B9CF6EE018
:1032D00089E04BC0C53D9CE5D90709F452C058F4BC
:1032E000C33DFCE5DF0709F449C0C43DDC4509F0F6
:1032F000A7CF88E135C0C63D9CE5D90709F444C095
:10330000CE35DD4509F09CCF812FDF91CF911F9104
:1033100008950E941418F8CF43E058E164EF77E174
:103320009DCF44EF57E163E078E198CF45E455E164
:1033300064E575E193CF46E755E165E675E18ECF2B
:1033400048E955E167E875E189CF47E855E168E963
:1033500075E184CF40EF53E168E074E17FCF81E015
:103360000E940718D1CF65E082E00E94E918CCCF17
:1033700068E086E0FACF64E18FE0F7CF67E185E1AE
:10338000F4CF62E289E1F1CF83E2EACF259A45B139
:103390004F7D55B15062EFB7F8949B01220F331F58
:1033A000260F371F280F391F2817390741F4EFBFA1
:1033B0008FE594E00197F1F700C000000895DC016B
:1033C0006D91CD0178E055B9000000C067FF45B9A7
:1033D000660F000000C000C000C045B900C07A956B
:1033E00091F7E2CFCF93DF93EC01FB018281882339
:1033F00009F464C1C430FDE5DF07E0F5CB3F9CE58F
:10340000D90730F49E0122503C4524313105D8F5CE
:103410000E94150C9093CA028093C902C231ECE558
:10342000DE0709F41FC108F06EC0C9308CE5D8076B
:1034300009F4F2C008F03FC0C530ECE5DE0709F43E
:10344000DBC058F5C3308CE5D80709F4CDC008F0CF
:10345000CFC08091C9028160C230DC4509F4AEC0A2
:103460008091C9029091CA020E94230C0E94A60674
:1034700080E009C0C63AEDE5DE0751F238F4C23605
:103480009DE5D90729F2DF91CF9108959E012E5A2B
:103490003D4523303105B8F7BBCF8091C90280622A
:1034A000C730FCE5DF0709F489C008F4B1C080919A
:1034B000C902806483C0CD309CE5D90709F4BAC045
:1034C00070F48091C9028E7FCB30FCE5DF0709F4F0
:1034D00075C008F4A7C08091C9028D7F6FC0CF303E
:1034E0009CE5D90709F4B6C008F4A8C0C031FCE5D2
:1034F000DF0709F4B3C0C131DC4509F0B1CF8091D9
:10350000C9028F7B5BC0C1159DE5D90709F4B4C022
:1035100098F5CB3FFCE5DF0709F472C0B8F4C4317D
:103520009CE5D90709F4B6C008F4A2C0C531DC4552
:1035300009F096CF8091C90282FB992790F921E08A
:10354000922790FB82F990FB83F938C0CD3F8CE540
:10355000D80709F477C008F457C0CE3FECE5DE0782
:1035600009F474C08091CA028360CF3FDC4509F042
:1035700077CF8093CA0274CFC2368DE5D80709F49D
:1035800096C068F4C230EDE5DE0709F48CC008F49B
:1035900077C0C330DD4509F063CF80E085C0CE3A07
:1035A0009DE5D907E9F068F49091C902892F8E7FD3
:1035B00090FF8160C63ADD4509F052CF8093C90281
:1035C0004FCFCF3A8DE5D80789F1C03BDD4509F0F3
:1035D00047CF9091CA02892F877F93FF8860C9CF18
:1035E0008091CA028860C5CF8091C9028260E6CF0F
:1035F0008091C9028460E2CF8091C9028860DECFE9
:103600008091CA028160B5CF8091CA028260B1CF39
:103610008091C9028061D2CF0E94A6068091C90222
:103620008068CCCF8091C9028C60C8CF8091CA02DB
:10363000877F9FCF8091C9028B7FC0CF8091C902C5
:10364000877FBCCF8091CA028E7F93CF8091CA02C0
:103650008D7F8FCF8091C9028F7EB0CF8091C902BC
:103660008F7DACCF0E94A6068091C9028F77A6CF2E
:103670008091C902837FA2CF8091CA028C7F79CFCB
:103680008091CA02982F909591708E7F892B90FB24
:1036900081F96FCF0E94A6069091C902892F97FBEE
:1036A00087F980588BCF81E00E94AC0CD9CE9091E5
:1036B000C902892F8F7E94FF806180CF81E0E3CEA5
:1036C0008FE891E00197F1F700C0000008950E9493
:1036D00045020895FF920F931F93CF93DF9385E0E8
:1036E00080938D020BEC11E0C6ECD1E0AE01D80165
:1036F00021E030E08D91E82FE295EF70F0E0F1A04D
:103700008F70B90101C0660F8A95EAF7962F9095E0
:103710009F2191A382A1862B82A3FA018191AF01FF
:10372000E82FE295EF70F0E0F1A08F70B90101C0D1
:10373000660F8A95EAF7962F90959F2191A382A113
:10374000862B82A3F1E0A03DBF07A1F60E94601B7B
:1037500060918D0243E952E0FA018E2F841B861797
:1037600028F0CDB7DEB7E5E00C94FE26D8012D9108
:103770008D01A22FA295AF70B0E090968C9190E051
:103780002F7002C0959587952A95E2F781709991DF
:10379000A92FA295AF70B0E090962C9130E09F7069
:1037A00002C0359527959A95E2F790E020FD92E0CA
:1037B000892B8193D2CFB0E0A0E0E1EEFBE10C9445
:1037C000DF26F12CE12C82E0C82ED12C80918D02D5
:1037D000F81630F08E2DCDB7DEB7E8E00C94FB265E
:1037E0000F2D10E0F801E553FE4F8081E82FE295A0
:1037F000EF70F0E0E0A1F0E08F7002C0F595E79582
:103800008A95E2F7E170D801AA53BE4F2C91A22FFE
:10381000A295AF70B0E090968C9190E02F7002C0AE
:10382000959587952A95E2F780FD40C080E08E2B24
:10383000D801AD56BD4FEC919E2F93709817A1F112
:10384000EE0FEE0FE82BEC93EF70F0E0EA54FE4F32
:10385000E801C257DD4F80819881890F888320E07D
:1038600082305CF0F801E857FD4F80818F5F8083E4
:1038700060E08F2D0E94671B21E088818F3F5CF400
:10388000F801E857FD4F80818150808361E08F2DE2
:103890000E94671B21E08881082E000C990BB6015D
:1038A0000E9468268883E22AF39490CF82E0BFCFFB
:1038B000CF93DF93EB0186319C4511F50E94190BE4
:1038C0009A81992399F08A7A91E009F490E0909393
:1038D0009802811109C089E20E94F10A0E945A0BE4
:1038E00080E0DF91CF91089585E3F6CF8091980233
:1038F000811104C089E20E94F90AF0CF85E3FBCF71
:1039000081E0EFCF0F931F93CF93DF93C42FD22F7C
:10391000FC0182818823C9F040939B020E940F1F03
:1039200090939A028093990280E28C0F883040F441
:10393000C77081E001C0880FCA95EAF70E94480469
:10394000DF91CF911F910F91089510919B02141355
:1039500032C08091990290919A020E94271F883C60
:10396000910548F5C0E2CD0F1D17B9F080E2810F37
:10397000883040F4177081E001C0880F1A95EAF78B
:103980000E944F04C83048F481E09D2F977001C019
:10399000880F9A95EAF70E944804802F0E943F04FE
:1039A000C83070F6D77081E001C0880FDA95EAF769
:1039B0000E944F04C5CF80E28C0F883008F6C77094
:1039C00081E001C0880FCA95EAF7F2CF0F939C01FE
:1039D000CB01243F4CE5340759F1A8F4293DFCE51F
:1039E0003F0701F12A3D4CE53407D1F1283D3C4524
:1039F00091F406E221EE41EE68ED7CE50E94821C26
:103A000080E00F910895263FFCE53F07E9F0B0F014
:103A1000273F3C45F9F0FC018281882339F110925F
:103A20009B02EFCF07E225EE45EE69ED7CE5E6CFA0
:103A300006E221EE40EE64EF7CE5E0CF07E225EE02
:103A400044EE65EF7CE5DACF06E221EE42EE66EF6A
:103A50007CE5D4CF07E225EE46EE67EF7CE5CECFDE
:103A600008E221E045EE6AED7CE5C8CF81E0C9CFF0
:103A70009093D1018093D00108959093A1028093F7
:103A8000A0020895E091A002F091A102309729F0E0
:103A90000190F081E02D0995089580E00895E0916E
:103AA000A002F091A102309799F0209129012223E0
:103AB00059F02091C90227FF07C0DC012C91119613
:103AC0002C93119726E02C930280F381E02D099529
:103AD0000895E091A002F091A102309739F022E020
:103AE000DC012C930480F581E02D09950895209147
:103AF0009E0230919F022817390771F090939F0220
:103B000080939E02E091A002F091A102309721F0F3
:103B10000680F781E02D0995089520919C0230914F
:103B20009D022817390771F090939D0280939C02A3
:103B3000E091A002F091A102309721F00084F1857C
:103B4000E02D09950895FC01329680912901882382
:103B500021F08091C9029EE187FF96E080E09150BC
:103B600008F4089521912223D1F38F5FF8CF6623C3
:103B700001F1209129012223F1F02091C90227FFB0
:103B80001AC0462F4695469546954E3190F467707B
:103B900021E030E002C0220F331F6A95E2F7840F64
:103BA000911DFC01828190E02823392381E0232BA1
:103BB00069F480E00895FC01329608962191261759
:103BC00021F0E817F907D1F7F4CF81E008959C01BF
:103BD000FC0132969FEF80E04191461751F09F3FE4
:103BE00019F4411101C0982F8F5F8630A9F79F3FCC
:103BF00009F40895290F311D97FD3A95F901628363
:103C00000895FC01329608962191261303C0DF0126
:103C100011971C92E817F907B9F70895E62FE69572
:103C2000E695E695EE3168F4E80FF92FF11D67701F
:103C300021E030E001C0220F6A95EAF78281822BF1
:103C400082830895E62FE695E695E695EE3170F4C9
:103C5000E80FF92FF11D677021E030E001C0220F5D
:103C60006A95EAF72095828128232283089520917E
:103C70002901222339F02091C90227FF03C00E94A5
:103C80000E1E08950E94E71D089520912901222308
:103C900039F02091C90227FF03C00E94221E089517
:103CA0000E94011E0895FC0132968091290188230B
:103CB00051F08091C90287FF06C08EE1DF011D929D
:103CC0008A95E9F7089586E0F9CF46E050E00E9432
:103CD000252721E0892B09F420E0822F08950895FB
:103CE0000E946F1E0895811106C081E08093A20298
:103CF0000E94701E089582E0F9CF83E08093A202B3
:103D00000E94701E08950E94731E089581E08093A2
:103D1000A2020E94701E08950E94861E08950895B2
:103D200008950E94901E0895089508950E948F1E80
:103D300008950E94941E0E94F20F0E94951E80E03A
:103D40000E94940F91E0811101C090E0892F0895A5
:103D500085B7806885BF85B7806885BF08951F9245
:103D60001FB61F9211248F939F93AF93BF9380919F
:103D7000A302811113C08091E1029091E202A0910F
:103D8000E302B091E4024196A11DB11D8093E102CE
:103D90009093E202A093E302B093E402BF91AF914B
:103DA0009F918F911F901FBE1F9018958091E902DF
:103DB000843031F10E942F031092A30288E190E039
:103DC00020E40FB6F894A895809360000FBE20936E
:103DD000600083B7817F846083BF83B7816083BFC6
:103DE0007894889583B78E7F83BF0FB6F894A89593
:103DF00080916000886180936000109260000FBE27
:103E000008950E94A6060E943403089582E084BDAE
:103E100093E095BD9AEF97BD80936E0008952FB7FC
:103E2000F8948091E1029091E202A091E302B091B6
:103E3000E4022FBF08952FB7F8946091E1027091CA
:103E4000E2028091E3029091E4022FBF08959C0169
:103E50004FB7F8948091E1029091E202A091E302C1
:103E6000B091E4024FBF821B930B089578941F9288
:103E70001FB61F9211248F939F93AF93BF9380918E
:103E8000E1029091E202A091E302B091E402019676
:103E9000A11DB11D8093E1029093E202A093E30281
:103EA000B093E402BF91AF919F918F911F901FBE7D
:103EB0001F90189587E797E7909301088093000873
:103EC00088E19AE00FB6F894A895809360000FBE41
:103ED00090936000FFCF88E19AE00FB6F894A89520
:103EE000809360000FBE90936000FFCF8091C70267
:103EF000089508959C0182E08093E9009FEF8091EE
:103F0000E800915085FD06C085ED8A95F1F7000027
:103F10009111F5CF8091E80085FF0CC050E040E0A2
:103F200066E070E0C9010E94BF218091E8008E77B1
:103F30008093E8000895CF93DF93EC0180912901ED
:103F40008823B1F18091C90287FF32C060E282E02C
:103F50008093E9008FEF9091E800815095FD06C0B5
:103F600095ED9A95F1F700008111F5CF8091E80069
:103F700085FF1BC08091290170E050E040E0811175
:103F800004C050E040E068E070E0CE010E94BF2134
:103F90008091E8008E778093E80080E2FE01A7EA36
:103FA000B2E001900D928A95E1F7DF91CF910895EB
:103FB00068E081E0CDCF8093A4027093A602609365
:103FC000A5028091E902843001F582E08093E90046
:103FD0008FEF9091E800815095FD06C095ED9A9580
:103FE000F1F700008111F5CF8091E80085FF0DC049
:103FF00050E040E063E070E084EA92E00E94BF217C
:104000008091E8008E778093E8000895BC0184E0F9
:104010000E94DB1F0895BC0183E00E94DB1F08950E
:104020008091E802811109C00E944F230E94AC23B5
:104030008091E20084608093E20008951092E8028B
:1040400008950E94861E08956091E50281E0611145
:1040500001C080E00E947D1E08959091E90281E0F8
:10406000943009F080E06091E5020E94831E08957B
:1040700042E061EC81E00E94CB2242E261EC82E00E
:104080000E94CB229091E90281E0943009F080E017
:104090006091E5020E94731E08958091EB028330C7
:1040A00009F461C030F48130D1F1823009F49EC04E
:1040B00008958A3009F48AC08B3009F46FC08930C2
:1040C00009F050C08091EA02813209F04BC0809122
:1040D000EE029091EF02029708F044C08091E80050
:1040E000877F8093E8008091E80082FF37C090913D
:1040F000F3008091F200029731F48091F100813059
:1041000011F0863021F48091F1008093C7028091F4
:10411000E8008B778093E8000E94FF2223C0809103
:10412000EA02813AF9F48091E800877F8093E80001
:104130008091EE029091EF02892B61F460E287EAB0
:1041400092E070E00E940E228091E8008B778093CD
:10415000E800089560E090E080E0F3CF8091E9020C
:104160008111C1CF08958091EA02813AD9F78091F7
:10417000EE029091EF02892BA9F78091E800877FEA
:104180008093E8008091E80080FFFCCF80912901B6
:104190008093F1008091E8008E77BCCF8091EA0295
:1041A000813201F78091EE029091EF02892BD1F6D6
:1041B0008091E800877F8093E8000E94FF22809131
:1041C000EC02809329010E94A60608958091EA02DC
:1041D000813241F68091E800877F8093E8000E9459
:1041E000FF228091ED028093C80208958091EA0237
:1041F000813A09F0B7CF8091E800877F8093E8008B
:104200008091E80080FFFCCF8091C802C1CF84B7C5
:10421000877F84BF0FB6F894A8958091600088616D
:1042200080936000109260000FBE80E890E00FB6AF
:10423000F89480936100909361000FBE0E948C1EE1
:1042400008950E944F230E94AC23E2EEF0E08081AB
:104250008460808378940E942B2608958DE191E0FC
:104260000E943D1D08958091E902853031F48091CE
:10427000E902853019F00E94011F08950E94D61EA0
:104280008091E702882399F30E94991E882379F38D
:104290000E94A9210E94A606EACF08950E945121FA
:1042A0000895292F33272330310519F168F421307F
:1042B000310509F444C02230310509F445C090E0CD
:1042C00080E030E020E025C02132310549F1223282
:1042D0003105A9F780E490E02CE034E06115710528
:1042E000C1F086EB90E026E533E06130710589F09E
:1042F000E6CF99278130910581F0009729F0029748
:10430000F1F6EDECF2E002C0E5E0F3E0849190E03C
:104310009F01FA01318320830895E5EEF2E0F6CFA4
:1043200089E090E02BE133E06115710591F389E0BC
:1043300090E024E333E06130710559F3C0CF82E1AE
:1043400090E024E433E0E5CF8BE390E029E033E034
:10435000E0CF80E189BD82E189BD09B400FEFDCFD7
:104360008091D8008F7D8093D8008091E00082609A
:104370008093E0008091E00081FDFCCF0895AF9232
:10438000BF92CF92DF92FF920F931F93CF93DF9351
:104390006C01EB018A010E941E23F82E811123C0BB
:1043A0000115110539F0F80180819181C81BD90BE5
:1043B000C80ED91EB12CA12C2097A9F08091E8003D
:1043C00085FD22C08091E8008E778093E80001157A
:1043D0001105A1F0F80180819181A80EB91EB1826A
:1043E000A08285E0F82E8F2DDF91CF911F910F9144
:1043F000FF90DF90CF90BF90AF9008950E941E2352
:104400008823D1F2F82EEFCFF60181916F018093CE
:10441000F1002197FFEFAF1ABF0ACECFFC018091C8
:10442000F0029091F10286179707A0F061157105CF
:1044300029F49091E8009E779093E80090E0611550
:10444000710551F4911108C08091E80082FF34C0D9
:1044500080E00895BC01F2CF8091E9028823C1F188
:104460008530C1F18091E80083FD30C08091E80083
:1044700082FDEACF8091E80080FFE1CF8091F300D8
:104480002091F200382F6115710519F0283031059F
:1044900058F091E02830310509F090E02091E800D3
:1044A0002E772093E800CBCF81918093F10061506B
:1044B00071092F5F3F4FE7CF8091E902882341F0D8
:1044C000853041F08091E80083FFBECF81E0089500
:1044D00082E0089583E00895FC018091F0029091BC
:1044E000F10286179707A0F06115710529F48091F4
:1044F000E8008E778093E80090E06115710551F433
:10450000911108C08091E80082FF35C080E00895D5
:10451000BC01F2CF8091E9028823C9F18530C9F14D
:104520008091E80083FD31C08091E80082FDEACFF0
:104530008091E80080FFE1CF8091F3002091F200AC
:10454000382F6115710519F02830310558F091E0C8
:104550002830310509F090E08091E8008E77809353
:10456000E800CBCF84918093F100319661507109BE
:104570002F5F3F4FE6CF8091E902882341F08530DD
:1045800041F08091E80083FFBDCF81E0089582E093
:10459000089583E00895982F973028F08F708093C6
:1045A000E90081E008959093E900242F762F50E0F0
:1045B000981731F07091EC002091ED005091F000CF
:1045C00021FD02C09F5FE8CF3091EB003E7F30932A
:1045D000EB003091ED003D7F3093ED003091EB002A
:1045E00031603093EB007093EC002093ED0050931A
:1045F000F0002091EE0027FDE5CF80E00895809146
:10460000EA0287FF13C08091E80082FF06C0809114
:10461000E8008B778093E80004C08091E902811163
:10462000F2CF08958091E9028823D9F38091E800C0
:1046300080FFF8CF8091E8008E77ECCF2091E400E6
:104640003091E50095E6A9012091EC00822F817060
:1046500020FF06C08091E80080FF06C080E008953A
:104660002091E80022FD1AC08091E902882389F098
:10467000853089F08091EB0085FD0FC02091E4002A
:104680003091E50042175307F9F29150E1F684E0CA
:10469000089582E0089583E0089581E008950E94DE
:1046A000BE230E94C623E0EEF0E08081816080831B
:1046B000E8EDF0E080818F77808319BCA7EDB0E052
:1046C0008C918E7F8C9380818F7E80831092E80204
:1046D00008950F931F93CF93DF930E94BE230E94F0
:1046E000C623C8EDD0E088818F7788838881806871
:1046F000888388818F7D888319BC1092E90210928B
:10470000E5021092E7021092E60200EE10E0F801D6
:1047100080818B7F808388818160888342E060E034
:1047200080E00E94CB22E1EEF0E080818E7F8083EA
:10473000E2EEF0E080818160808380818860808308
:10474000F80180818E7F8083888180618883DF91FA
:10475000CF911F910F910895E8EDF0E080818F7E59
:104760008083E7EDF0E080818160808384E082BF18
:1047700081E08093E8020E9469230895E8EDF0E06B
:1047800080818E7F80831092E20008951092DA007B
:104790001092E10008951F920F920FB60F9211240C
:1047A0002F933F934F935F936F937F938F939F9339
:1047B000AF93BF93EF93FF938091E10082FF0BC013
:1047C0008091E20082FF07C08091E1008B7F80939F
:1047D000E1000E942A268091DA0080FF19C08091B2
:1047E000D80080FF15C08091DA008E7F8093DA00B8
:1047F0008091D90080FF96C080E189BD82E189BDAA
:1048000009B400FEFDCF81E08093E9020E941020F0
:104810008091E10080FF19C08091E20080FF15C007
:104820008091E2008E7F8093E2008091E2008061BF
:104830008093E2008091D80080628093D80019BCF8
:1048400085E08093E9020E9424208091E10084FFAA
:104850002BC08091E20084FF27C080E189BD82E106
:1048600089BD89B5982F917080FFFBCF8091D800CA
:104870008F7D8093D8008091E1008F7E8093E1004E
:104880008091E2008F7E8093E2008091E20081605F
:104890008093E2008091E502882309F449C084E016
:1048A0008093E9020E942D208091E10083FF29C0BE
:1048B0008091E20083FF25C08091E100877F809393
:1048C000E10082E08093E9021092E5028091E1002C
:1048D0008E7F8093E1008091E2008E7F8093E200E2
:1048E0008091E20080618093E20042E060E080E03D
:1048F0000E94CB228091F00088608093F0000E949B
:104900002120FF91EF91BF91AF919F918F917F9166
:104910006F915F914F913F912F910F900FBE0F902C
:104920001F90189519BC1092E9020E941E2070CFAA
:104930008091E30087FD93E09093E902B3CF1F924B
:104940000F920FB60F9211242F933F934F935F93C3
:104950006F937F938F939F93AF93BF93CF93DF9387
:10496000EF93FF93D091E900DF708091EC00C82FA6
:10497000C17080FDC0E81092E9008091F000877F4F
:104980008093F00078940E94E3241092E9008091D3
:10499000F00088608093F000CD2BCF70C093E900C9
:1049A000FF91EF91DF91CF91BF91AF919F918F9147
:1049B0007F916F915F914F913F912F910F900FBE1B
:1049C0000F901F901895AAE2B0E0E9EEF4E20C9483
:1049D000E4268AEE92E02091F100FC012193CF01C0
:1049E000F2E0823F9F07B9F70E944D208091E800D6
:1049F00083FF1EC18091EA029091EB029A3008F089
:104A000017C1E92FF0E0EF56F84D0C949E26803840
:104A100099F0823809F00CC18091EE028F708730D6
:104A200008F006C18093E9008091EB0085FB8827A0
:104A300080F91092E90006C08091E6029091E702A9
:104A4000911182609091E800977F9093E8008093A5
:104A5000F1001092F1008091E8008E77E5C0882384
:104A600009F4D3C0823009F0E3C08091EC028111D7
:104A7000D6C08091EE028F702FEF280F263008F0FD
:104A8000D7C08093E9002091EB0020FFC8C093308D
:104A900031F48091EB0080628093EB00C0C0909174
:104AA000EB0090619093EB0021E030E001C0220F19
:104AB0008A95EAF72093EA001092EA008091EB00D1
:104AC0008860EACF8111B4C01091EC021F77809109
:104AD000E3008078812B8093E3008091E800877F5A
:104AE0008093E8000E94FF228091E80080FFFCCFC5
:104AF0008091E30080688093E30082E0111183E0FD
:104B00008093E90295C08058823008F091C080916E
:104B1000EC029091ED028C3D23E09207A1F583E039
:104B20008A838AE289834FB7F894DE01139620E0E6
:104B30003EE051E2E32FF0E050935700E49120FF74
:104B400003C0E295EF703F5FEF708E2F90E0EA3088
:104B5000C0F0C7968D939D932F5F243159F74FBFB7
:104B60008091E800877F8093E8006AE270E0CE01E0
:104B700001960E940E228091E8008B778093E800D6
:104B800057C0C096E7CF6091EE027091EF02AE0180
:104B90004F5F5F4F0E944E21BC01892B09F448C032
:104BA0009091E800977F9093E80089819A810E9414
:104BB0006C22E1CF8038E1F58091E800877F809317
:104BC000E8008091E5028093F10045CF811130C06B
:104BD0009091EC02923060F58091E800877F80939D
:104BE000E8009093E5020E94FF228091E50288236D
:104BF00011F084E005C08091E30087FDFACF81E0E9
:104C00008093E9020E94382013C08091EC02813029
:104C100079F481E0933009F080E08093E70210920C
:104C2000E9008091E800877F8093E8000E94FF22DE
:104C30008091E80083FF0AC08091E800877F80931D
:104C4000E8008091EB0080628093EB00AA96E3E09D
:104C50000C9400270895CF938091E9028823A1F056
:104C6000C091E900CF709091EC00892F817090FD88
:104C700080E8C82B1092E9008091E80083FD0E9433
:104C8000E324CF70C093E900CF91089587FB082EED
:104C9000062687FD819567FD61950E940C270EF41D
:104CA000919507FC81950895AA1BBB1B51E107C094
:104CB000AA1FBB1FA617B70710F0A61BB70B881FAC
:104CC000991F5A95A9F780959095BC01CD0108953B
:104CD00097FB072E16F4009407D077FD09D00E94A9
:104CE000542607FC05D03EF4909581959F4F08957A
:104CF000709561957F4F0895A1E21A2EAA1BBB1BE8
:104D0000FD010DC0AA1FBB1FEE1FFF1FA217B30797
:104D1000E407F50720F0A21BB30BE40BF50B661FAD
:104D2000771F881F991F1A9469F760957095809571
:104D300090959B01AC01BD01CF010895EE0FFF1FBF
:104D40000590F491E02D09940E94AC26332312F4CF
:104D50008A1B9B0B0C94BD26A29FB001B39FC00180
:104D6000A39F700D811D1124911DB29F700D811D97
:104D70001124911D08950E94AC26B7FF0895821B4F
:104D8000930B08950E94AC26A59F900DB49F900DA3
:104D9000A49F800D911D11240895B7FF0C94C22685
:104DA0000E94C226821B930B08952F923F924F922E
:104DB0005F926F927F928F929F92AF92BF92CF92AB
:104DC000DF92EF92FF920F931F93CF93DF93CDB7B4
:104DD000DEB7CA1BDB0B0FB6F894DEBF0FBECDBF2C
:104DE00009942A88398848885F846E847D848C84FD
:104DF0009B84AA84B984C884DF80EE80FD800C8106
:104E00001B81AA81B981CE0FD11D0FB6F894DEBFE8
:104E10000FBECDBFED010895991B79E004C0991F25
:104E2000961708F0961B881F7A95C9F78095089504
:104E3000FC014150504030F001900616D1F73197F7
:104E4000CF010895882799270895FB01DC0104C04C
:104E50008D910190801921F441505040C8F7881B72
:104E6000990B0895FB01DC0102C001900D924150A5
:104E70005040D8F70895F999FECF92BD81BDF89AB8
:104E8000992780B50895A6E1B0E044E050E00C9485
:104E90007527A8E1B0E042E050E00C947527262F7A
:104EA000F999FECF92BD81BDF89A019700B4021620
:104EB00039F01FBA20BD0FB6F894FA9AF99A0FBECE
:104EC00008950396272F0E9450270E944F27252FD1
:104ED0000E945027242F0C9450270196272F0E94C0
:104EE00050270C944F27DC01CB01FC01F999FECF30
:104EF00006C0F2BDE1BDF89A319600B40D92415062
:104F00005040B8F70895F894FFCF91049104C2047B
:104F1000C2044F056B05F104F1047605E705F605BB
:104F2000F60507252F2518262F2518266225832507
:064F30001826DA25E62533
:104F36003A02280850011E0A140101010200050068
:104F4600050501191A1B1C1D1E1F202122761F9BF9
:104F56001F7A1F0B200620791F01E200E900EA00F4
:104F6600B500B600B700CD008301CC008A019201DE
:104F760094012102230224022502260227022A0284
:104F8600B300B4006F007000818283E200E900EA9A
:104F960000B500B600B700CD008301CC008A0192AF
:104FA6000194012102230224022502260227022A55
:104FB60002B300B4006F007000818283F43632972A
:104FC6003400010202020206060609090909090956
:104FD6000F0F0F0F0F0F1515151819191919191984
:104FE60019191919232400FF0100010000FFFF0011
:104FF60000010001FF0093F6F79466F5929190C6C2
:00000001FF
