:100000000C94B3060C94D0060C94D0060C94D00635
:100010000C94D0060C94D0060C94D0060C94D00608
:100020000C94D0060C94D0060C94B42A0C94882B13
:100030000C940C250C94D0060C94D0060C94D0068D
:100040000C94D0060C94D0060C94D0060C94D006D8
:100050000C94D0060C9493250C94D0060C94D006E6
:100060000C94D0060C94D0060C94D0060C94D006B8
:100070000C94D0060C94D0060C94D0060C94D006A8
:100080000C94D0060C94D0060C94D0060C94D00698
:100090000C94D0060C94D0060C94D0060C94D00688
:1000A0000C94D0060C94D0060C94D0062B001400AF
:1000B0001A00080015001700E000040016000700F1
:1000C00009000A00E1001D001B00060019000500E0
:1000D0001C0018000C00120013002A000B000D0079
:1000E0000E000F00330034001100100036003700FE
:1000F00038002872E20001512C000251E700000094
:1001000001001E021F0220022102220201002D0214
:100110002E022F023002310201002900E300E2002A
:1001200039003402230224022502260227024C0051
:100130005000510052004F00350035024A004D007A
:100140004B004E0046002C72010001002800010007
:100150000100000001001E001F00200021002200FD
:1001600001002D002E002F00300031000100290079
:10017000E700E600390034002300240025002600B3
:1001800027004C003A003B003C003D003E003F0091
:1001900040004100420043004400450001000100CE
:1001A0002A00010001000000CA5CC85CC65CC45C97
:1001B0000000C35CCB5CC95CC75CC55C0000000090
:1001C000000000000000000000000000000000002F
:1001D000000000000000000000000000000000001F
:1001E00000000000005C00000000000000000000B3
:1001F00001000100000001000100000044454255DB
:10020000473A2064697361626C65642E0A00444554
:100210004255473A20656E61626C65642E0A000A99
:100220000025303258006C65645F7461736B3A204E
:10023000004F6E6573686F743A2061637469766508
:100240003A2025640A000A0025303862003A20006E
:1002500025303258000A722F632030313233343562
:1002600036370A007267626C696768742074696D5A
:1002700065722064697361626C652E0A0072676240
:100280006C696768742074696D657220656E61625F
:100290006C65642E0A007267626C6967687420730B
:1002A000657420687376205B4E4F454550524F4D24
:1002B0005D3A2025752C25752C25750A007267621C
:1002C0006C696768742073657420687376205B4579
:1002D0004550524F4D5D3A2025752C25752C2575BE
:1002E0000A007267626C69676874207261696E6285
:1002F0006F7720736574206873763A2025642C2507
:10030000642C25642C25750A007267626C69676825
:10031000742064697361626C65205B4E4F45455083
:10032000524F4D5D3A207267626C696768745F6313
:100330006F6E6669672E656E61626C65203D202573
:10034000750A007267626C6967687420646973611A
:10035000626C65205B454550524F4D5D3A20726797
:10036000626C696768745F636F6E6669672E656E3D
:1003700061626C65203D2025750A007267626C69B8
:1003800067687420656E61626C65205B4E4F454501
:1003900050524F4D5D3A207267626C696768745FB6
:1003A000636F6E6669672E656E61626C65203D20C5
:1003B00025750A007267626C6967687420656E61F2
:1003C000626C65205B454550524F4D5D3A20726727
:1003D000626C696768745F636F6E6669672E656ECD
:1003E00061626C65203D2025750A007267626C6948
:1003F00067687420746F67676C65205B4545505271
:100400004F4D5D3A207267626C696768745F636F15
:100410006E6669672E656E61626C65203D2025758C
:100420000A007267626C69676874206D6F6465208A
:100430005B4E4F454550524F4D5D3A2025750A00A1
:100440007267626C69676874206D6F6465205B45D4
:100450004550524F4D5D3A2025750A007267626C17
:10046000696768745F696E6974207267626C696736
:1004700068745F636F6E6669672E6D6F6465203D9B
:1004800020302E2057726974652064656661756C32
:10049000742076616C75657320746F2045455052E9
:1004A0004F4D2E0A007267626C696768745F696EEF
:1004B0006974206565636F6E666967206973206E75
:1004C0006F7420656E61626C65642E0A00726762EB
:1004D0006C696768745F696E6974207374617274A3
:1004E000210A007267626C696768745F696E69747B
:1004F0002063616C6C65642E0A007267626C6967C8
:1005000068745F636F6E6669672E737065656420DB
:100510003D2025640A007267626C696768745F63D6
:100520006F6E6669672E76616C203D2025640A0037
:100530007267626C696768745F636F6E6669672E65
:10054000736174203D2025640A007267626C6967DC
:1005500068745F636F6E6669672E687565203D20FD
:1005600025640A007267686C696768745F636F6E00
:100570006669672E6D6F6465203D2025640A0072F0
:1005800067626C696768745F636F6E6669672E6522
:100590006E61626C65203D2025640A007267626CA2
:1005A000696768745F636F6E66696720454550527E
:1005B0004F4D3A0A0000047F3F1F64321464321426
:1005C000783C1E1E140A052223252628292A2C2DB4
:1005D0002F3032333536383A3B3D3E404243454773
:1005E000494A4C4E5051535557595A5C5E606264AB
:1005F0006668696B6D6F71737577797B7D7F8183B9
:100600008587898A8C8E90929496989A9C9E9FA1B9
:10061000A3A5A7A8AAACAEAFB1B3B4B6B8B9BBBCDA
:10062000BEBFC1C2C3C5C6C7C9CACBCCCDCED0D14F
:10063000D2D2D3D4D5D6D7D7D8D9D9DADADBDBDB47
:10064000DCDCDCDCDCDDDDDDDDDCDCDCDCDCDBDBE8
:10065000DBDADAD9D9D8D7D7D6D5D4D3D2D2D1D03C
:10066000CECDCCCBCAC9C7C6C5C3C2C1BFBEBCBB39
:10067000B9B8B6B4B3B1AFAEACAAA8A7A5A3A19FB1
:100680009E9C9A98969492908E8C8A898785838175
:100690007F7D7B79777573716F6D6B696866646256
:1006A000605E5C5A5957555351504E4C4A49474524
:1006B0004342403E3D3B3A3836353332302F2D2CC5
:1006C0002A292826252322FFAA7F5540000101015F
:1006D00001010101010102020202020202020203FF
:1006E00003030303030303040404040404040505CF
:1006F0000505050606060606070707070708080892
:1007000008090909090A0A0A0B0B0B0C0C0C0D0D40
:100710000D0E0E0E0F0F0F101011111112121313D8
:100720001414151516161717181819191A1A1B1B51
:100730001C1D1D1E1E1F20202122222324242526AD
:1007400026272829292A2B2C2D2D2E2F30313232E5
:10075000333435363738393A3B3C3D3E3F404142F1
:10076000434445464748494A4C4D4E4F50515354D7
:10077000555658595A5B5D5E5F616264656668698B
:100780006B6C6D6F7072737577787A7B7D7E80820B
:10079000838587888A8C8E8F91939596989A9C9E54
:1007A000A0A2A3A5A7A9ABADAFB1B3B5B7BABCBE64
:1007B000C0C2C4C6C9CBCDCFD1D4D6D8DBDDDFE231
:1007C000E4E7E9EBEEF0F3F5F8FAFDFF3F00433E16
:1007D00020004C25640A000A092D205374617475A9
:1007E00073202D0A686F73745F6B6579626F617235
:1007F000645F6C65647328293A20253032580A6B8F
:100800006579626F6172645F70726F746F636F6C31
:100810003A20253032580A6B6579626F6172645FE5
:1008200069646C653A20253032580A74696D6572C6
:100830005F72656164333228293A202530386C585C
:100840000A002573000A092D20436F6E736F6C65D3
:10085000202D0A4553432F713A09717569740A00B6
:100860000A092D204D61676963202D0A443A094425
:1008700065627567204D65737361676520546F67A6
:10088000676C650A583A094D61747269782044654D
:10089000627567204D6F646520546F67676C6520D3
:1008A0002D2053686F77206B65797072657373655F
:1008B0007320696E206D6174726978206772696453
:1008C0000A4B3A094B6579626F6172642044656234
:1008D000756720546F67676C65202D2053686F77AC
:1008E000206B65797072657373207265706F7274B6
:1008F0000A4D3A094465627567204D6F757365202E
:10090000546F67676C650A563A0956657273696F6A
:100910006E0A533A095374617475730A433A094174
:100920006374697661746520436F6E736F6C6520C4
:100930004D6F64650A46312D4631303A0953776967
:1009400074636820746F204C6179657220302D3992
:100950002028463130203D204C30290A302D393AAC
:100960000953776974636820746F204C61796572EC
:1009700020302D390A47524156453A095377697458
:10098000636820746F204C61796572203020286183
:100990006C7465726E617465290A423A094A756D14
:1009A0007020746F20426F6F746C6F616465720A9F
:1009B0004553433A094A756D7020746F20426F6F3A
:1009C000746C6F616465722028616C7465726E610D
:1009D0007465290A453A095072696E74204545507C
:1009E000524F4D2053657474696E67730A424143D8
:1009F0004B53504143453A09436C6561722045456C
:100A000050524F4D0A006B65796D61705F636F6E78
:100A10006669672E7261773A20253032580A2E7344
:100A20007761705F636F6E74726F6C5F6361707318
:100A30006C6F636B3A2025750A2E636170736C6F5F
:100A4000636B5F746F5F636F6E74726F6C3A2025B7
:100A5000750A2E737761705F6C63746C5F6C677579
:100A6000693A2025750A2E737761705F7263746C22
:100A70005F726775693A2025750A2E737761705F1A
:100A80006C616C745F6C6775693A2025750A2E730A
:100A90007761705F72616C745F726775693A202567
:100AA000750A2E6E6F5F6775693A2025750A2E7379
:100AB0007761705F67726176655F6573633A202561
:100AC000750A2E737761705F6261636B736C61731B
:100AD000685F6261636B73706163653A2025750AB4
:100AE0002E6E6B726F3A2025750A2E737761705FD8
:100AF0006573636170655F636170736C6F636B3A9C
:100B00002025750A0064656275675F636F6E6669AC
:100B1000672E7261773A20253032580A2E656E6151
:100B2000626C653A2025750A2E6D61747269783A97
:100B30002025750A2E6B6579626F6172643A2025F3
:100B4000750A2E6D6F7573653A2025750A00656507
:100B5000636F6E6669673A0A64656661756C745F97
:100B60006C617965723A2025750A003F000A6D6F45
:100B70007573653A206F66660A000A6D6F75736556
:100B80003A206F6E0A000A6B6579626F6172643A8F
:100B9000206F66660A000A6B6579626F6172643A5B
:100BA000206F6E0A000A6D61747269783A206F6670
:100BB000660A000A6D61747269783A206F6E0A00E5
:100BC0000A64656275673A206F66660A000A6465A2
:100BD0006275673A206F6E0A000A0A4A756D70697D
:100BE0006E6720746F20626F6F746C6F61646572E2
:100BF0002E2E2E2000433E2000436C656172696EEC
:100C00006720454550524F4D0A000A0025303258A2
:100C100020006B6579626F6172645F7265706F72DC
:100C2000743A20005B735D005B575D005B535D00B1
:100C30005B525D005B445D005B435D00140372002A
:100C400065007600690075006E00670034003100B1
:100C500000000C036700740069007000730000005E
:100C60000403090409025B00030100A0FA0904005F
:100C700000010301010009211101000122400007C8
:100C800005810308000109040100010300000009B7
:100C90002111010001223200070582032000010911
:100CA00004020002030000000921110100012222B8
:100CB000000705830320000107050303200001123C
:100CC000010002000000080778CBDC0100010200EF
:100CD000010631FF0974A1010975150026FF009571
:100CE00020750881020976150026FF0095207508F9
:100CF0009102C005010980A101850319012AB700ED
:100D0000150126B700950175108100C0050C090179
:100D1000A101850419012AA002150126A00295014E
:100D200075108100C005010906A101050719E02918
:100D3000E715002501950875018102950175088167
:100D4000010507190029FF150026FF009506750803
:100D50008100050819012905950575019102950184
:100D600075039101C00011241FBECFEFDAE0DEBF92
:100D7000CDBF12E0A0E0B1E0E6E0FDE502C00590E5
:100D80000D92A637B107D9F723E0A6E7B2E001C07C
:100D90001D92AD36B207E1F70E9400170C946B2E3E
:100DA0000C940000FF93EF93E0917602F0917702AC
:100DB000309709F00995EF91FF910895FC01859115
:100DC000803011F0EFDFFBCF0895FF27E0E230E243
:100DD00047FF0CC0419597FF09C0EDE26095709503
:100DE00080959095611D711D811D911D27FF02C089
:100DF000219530E350E2AA27660F771F881F991FBD
:100E0000AA1FA41710F0A41B63955A95A9F7AA303E
:100E100008F0A95FA05DAF93F39561157105810599
:100E2000910541F7ED3211F4EF93F395F21718F4B1
:100E30003F93F395FBCF8F91B5DFFA95E1F70895D6
:100E4000E991F9918591803021F0853219F0AADF7E
:100E5000F9CF089520E0E89455915532C1F350330D
:100E600011F4689455915A3348F4505390F3220F7B
:100E7000022E220F220F200D250FF4CF0EF4219504
:100E800089919991533619F3533729F1533559F113
:100E9000BC0188279927E8945C3621F489919991BF
:100EA00068945591543639F446EF7EF077FF0DC0C3
:100EB0008FEF9FEF0AC055374AE039F0583540E1CF
:100EC00021F0523642E009F00895FF93EF937DDF61
:100ED000EF91FF91B7CFFF93EF93FC0181918030A9
:100EE000B9F360DFFBCFFF93EF9368DFF1CFDF93C0
:100EF000CF93CDB7DEB72596A3DFCF91DF910895CD
:100F000023E042E061E00E94D507089581E0089562
:100F100081E008950E948807089508950E948D0732
:100F20000895A5E0B0E0E7E9F7E00C94D82D4983F7
:100F30005A8330917D0289819A81311119C06623CB
:100F400099F0222389F00E94E50D182F682F8981DE
:100F50009A810E94C10D69817A81812F0E94571464
:100F60002596E3E00C94F42D0E94D30D182FF3CFB7
:100F70000E94E50D69817A81F1CFFC01262F408125
:100F800051816281738184810E949107089581E07B
:100F90000895CF93DF93EC0160E00E94BD07BE018E
:100FA0000E948E07DF91CF910895E1E0F0E0DF012C
:100FB00002C0AA0FBB1F6A95E2F7BD01DF0102C0A4
:100FC000AA0FBB1F4A95E2F7AD01462B572B02C073
:100FD000EE0FFF1F2A95E2F79A01282339232417E1
:100FE000350719F48E2B9F2B0895E095F0958E23ED
:100FF0009F2308950E947C1508950E9480150895EE
:1010000008950E948F0C0E9400082FEF84E39CE05B
:10101000215080409040E1F700C0000008950E94F8
:1010200001080E94B72508950E9401080E94C82562
:1010300008950F931F93CF93DF938C0161E00E947B
:10104000BD07EC01B8010E948A07811106C080E04B
:10105000DF91CF911F910F910895B801CE010E94A9
:1010600099238823A1F3B801CE010E94D21F8823BF
:1010700071F3B801CE010E940B23882341F3B8011C
:10108000CE010E94DE1E882311F3F801828188239D
:10109000D9F0CB35FDE5DF07A9F170F4C130ECE5FF
:1010A000DE07B1F0CF3DFCE5DF0721F1C115DC45DE
:1010B00059F40E940F08CBCFCD35EDE5DE07F9F0EE
:1010C00020F1C83ADD45C1F0C8010E948607C0CFB3
:1010D0009091F702892F8E7F90FF81608093F702B5
:1010E00080FF05C08EE092E00E94DE06B0CF8CEF5C
:1010F00091E0FACF0E94AB120E941408A8CF0E9480
:10110000F011E2CF0E94FA11DFCF0E94FE11DCCF76
:101110000E94E9240E94C1080E94241E08950E9492
:10112000C5080E94A91D0E94EE240895829590E0B2
:101130009C01220F331F220F331F2C7C959587951E
:10114000959587958373282B30E0C901880F991FE7
:101150008A7A359527952575822B089508950E94E2
:10116000AE08089581E008950E94B2080895089598
:10117000CF93C82F0E94AF088C2F0E94B408CF9144
:10118000089580E00E94B80808950E94F5230E9407
:10119000B8080895CF930E94F523C82F8091780254
:1011A0008C1789F1C09378020E94782560937902A8
:1011B00070937A0280937B0290937C028091F70275
:1011C00082FF1EC080FF1CC086E292E00E94DE0605
:1011D0008091F70280FF14C01F92CF9381E292E0CA
:1011E0009F938F930E9477078091F7020F900F9043
:1011F0000F900F9080FF04C08FE192E00E94DE0606
:101200008C2F0E94B808CF910895ABE0B0E0EBE0DE
:10121000F9E00C94D92D4F83588769877A878B879B
:1012200061110E9428111E821D8285E0FE01379601
:10123000DE01119601900D928A95E1F78C819D81D6
:10124000892B61F449815A816B817C818D819E81DA
:101250000E9451102B96E2E00C94F52D89819A8121
:1012600089238F3F79F3CE0101960E94C707811130
:10127000E9CFF0CFFC01808191810E94170E089583
:10128000CF93C82F8823C9F08238C9F40E94F52370
:1012900081FD13C089E30E94E0100E9449112FEFE5
:1012A00087EE93E0215080409040E1F700C00000BD
:1012B00089E30E94E8100E944911CF910895833874
:1012C000A1F40E94F52380FDF8CF83E50E94E01091
:1012D0000E9449112FEF81EE94E021508040904010
:1012E000E1F700C0000083E5E4CF8438A1F40E9458
:1012F000F52382FDE2CF87E40E94E0100E944911AD
:101300002FEF81EE94E0215080409040E1F700C043
:10131000000087E4CECF8CEF8C0F813AB8F48C2F8D
:101320000E94C8228111C9CF6C2F80910001909139
:1013300001010E948424882329F08C2F0E94E81048
:101340000E9449118C2F0E94E010B5CF80E28C0FD3
:10135000883048F4C77081E001C0880FCA95EAF769
:101360000E940B11A8CFEBE5EC0FE33040F4F0E066
:10137000E05BFE4F808190E00E9446249ECFC85AD9
:10138000C73108F09ACFEC2FF0E0EE0FFF1FEE5DB3
:10139000FE4F808191810E945C248FCF882309F4C5
:1013A0004DC0823879F40E94F52381FF47C089E35C
:1013B0000E94E0100E94491189E30E94E8100E94F7
:1013C00049110895833859F40E94F52380FF36C0EF
:1013D00083E50E94E0100E94491183E5EECF843836
:1013E00059F40E94F52382FF29C087E40E94E0108F
:1013F0000E94491187E4E1CF9CEF980F913AE8F2FF
:1014000090E2980F983050F4877091E001C0990FE6
:101410008A95EAF7892F0E941111D1CF9BE5980F89
:10142000933028F490E080E00E9446240895885A82
:10143000873120F490E080E00E945C2408951F939F
:10144000CF93DF93182FEB010E944009209739F4C6
:10145000812F0E94CE09DF91CF911F9108958FE9CE
:101460009FE00197F1F700C000002197EFCF70E0F7
:1014700060E0893311F460E570E00E941F0A08956E
:10148000882321F00E940B110E944911089588239E
:1014900021F00E9411110E9449110895B0E0A0E0CE
:1014A000E4E5FAE00C94D22D6C01D62FC72FFC0195
:1014B0001281F580F2949FE0F9220E940111E82E3A
:1014C0008823B9F0E12E1123A1F08C2F807F803486
:1014D00021F080E28D0F8830D0F08091270382FFC9
:1014E00016C082E00E94AC110E94011191E0E82E2A
:1014F000E926BC2EB2948FE0B822FBE0FB1508F47D
:1015000068C0EB2DF0E0E359F14D0C94922DE12CE5
:10151000F0CF0C2F0F70C07F11F00295007F1123C8
:1015200099F0002359F080E28D0F883010F0D1112E
:1015300007C0802F0E940B110E9449118D2F41C0BE
:10154000802F0E941B11F8CF8D2F0E94CE090023FF
:1015500009F43FC080E28D0F883010F0D11104C033
:10156000802F0E94111103C0802F0E9421110E9420
:1015700049112FC00C2F0F70C07FC03211F002959F
:10158000007FDD2381F0D13009F463C0112309F419
:101590006DC0FF2009F463C0F601858180FFCECFC6
:1015A0008F7085835CC08091270382FD33C0112337
:1015B00059F0002329F0802F0E940B110E9449113D
:1015C00080E00E94400905C080E00E94CE09011120
:1015D000C7CFEB2DE850FF0B349720F40E94F52382
:1015E0000E94B808EE2089F00E94FD1080FD0DC019
:1015F000F60112820E94F7100E941F0DC6010E9480
:10160000530C0E94F7100E942F0DCDB7DEB7E9E012
:101610000C94EE2D112389F0F11006C00E942B11BD
:10162000802B0E94400AD5CF21E0F212F7CF0E9412
:101630002B11802B0E943211CCCFF11006C00E94DA
:101640003F11802F0E94470AC4CF31E0F31609F200
:10165000F6CF112331F085E08F1508F4BACF802F33
:10166000E0CF94E09F1508F4B4CFEBCFFF2049F30F
:10167000D93349F4FFEF27EE33E0F15020403040FA
:10168000E1F700C000008D2F0E94CE09A2CF8C2F61
:1016900086958695837069F0813009F09ACF8D2FF9
:1016A0009C2F9370111102C090E080E00E945C2496
:1016B00090CF8D2F9C2F9370111102C090E080E08D
:1016C0000E94462486CF8C2F8370A1F5111181CF03
:1016D0004D2F429546954770440F440F2D2F2F7084
:1016E00030E0042E02C0220F331F0A94E2F790E08C
:1016F00080E0D4FF09C08FE090E002C0880F991FFE
:101700004A95E2F780959095C695C695C370822B51
:10171000932BC23049F058F4C13019F00E94F00CFC
:1017200058CF0E94E70C55CF0E94F90C52CF0E946F
:10173000E40C4FCF8695112311F08C2F81708823F4
:1017400009F447CF4D2F429546954770440F440FFB
:101750002D2F2F7030E0042E02C0220F331F0A9469
:10176000E2F790E080E0D4FF09C08FE090E002C093
:10177000880F991F4A95E2F780959095C695C69572
:10178000C370822B932BC23049F058F4C13019F04A
:101790000E945A0D1ECF0E94510D1BCF0E94630D57
:1017A00018CF0E94050D15CFCF70112329F08C2F73
:1017B0000E941F0D8D2F35CF8D2F0E94470A8C2F31
:1017C0000E942F0D06CFD23F51F160F4D03FB9F007
:1017D000D13F81F0112309F449C0F110AFCE8C2F15
:1017E0008F7121C0D33F11F1D43FA1F7809127031E
:1017F00082FD26C08C2F8F71112311F314C0112389
:1018000049F084E08F1508F4E4CE8C2F8F710E948C
:10181000410DDFCE95E09F1508F4DBCEF6CF8C2F7F
:101820008F711111CDCF0E941F0DD3CE112329F03E
:101830008C2F8F710E94130DCCCE0E940E0DC9CE3D
:10184000112349F0CF718C2F0E941F0D63E08C2F64
:101850000E948E11BECE81E00E94AC11E1E0EF1536
:1018600008F0B7CE82E00E94AC11B3CEF11000CFE9
:101870008C2F8F71A5CF0F931F93CF93DF93EC0124
:10188000688179818A810E94220E8C010E946C0DF0
:101890000E94E30CB801CE010E944E0ADF91CF9165
:1018A0001F910F910895CF93DF93EC018B819C8161
:1018B000892B29F08881998189238F3F51F4DF9109
:1018C000CF910895CE010E943B0CCE010E94C90722
:1018D000F6CFCE010E9419088111F4CF0E940111A8
:1018E000882369F38A81882351F38091270382FF3B
:1018F000E6CF82E00E94AC11E2CF90E080E00E944F
:10190000462490E080E00E945C240E9428110E94FE
:10191000491108950E94F0100E947D0C08950E94C4
:1019200018110E948A0C089592959F70963091F03C
:1019300058F4925F9F70923058F4803F19F030F461
:10194000883E30F481E008959A5FF4CF843FD1F36C
:1019500080E00895883EB0F3813FD1F7F3CFFC01DA
:1019600083819481892B29F08081918189238F3F04
:1019700011F480E00895808191810E94170E0E94E9
:10198000940C0895A5E0B0E0E8ECFCE00C94D92DAF
:101990002596E2E00C94F52DA6E0B0E0E2EDFCE047
:1019A0000C94D92D2696E2E00C94F52D08950E9412
:1019B000D60C08950E94D70C9093990280939802B8
:1019C0000E947D0C089508950E94DA0C08952091DC
:1019D000980230919902822B932B0E94DA0C089581
:1019E0002091980230919902822393230E94DA0C6D
:1019F00008952091980230919902822793270E949E
:101A0000DA0C08950E94800708950E94020D9093B9
:101A10009702809396020E947D0C089590E080E0EA
:101A20000E94050D089521E030E0A90102C0440F95
:101A3000551F8A95E2F7CA010E94050D089521E01D
:101A400030E002C0220F331F8A95E2F780919602A0
:101A500090919702822B932B0E94050D089521E00F
:101A600030E002C0220F331F8A95E2F720953095AF
:101A70008091960290919702822393230E94050DF4
:101A8000089521E030E002C0220F331F8A95E2F76B
:101A90008091960290919702822793270E94050DCC
:101AA00008952091960230919702822B932B0E94E9
:101AB000050D089520919602309197028223932379
:101AC0000E94050D08952091960230919702822779
:101AD00093270E94050D08950895262F277091E001
:101AE00001C0990F2A95EAF723E0769567952A9524
:101AF000E1F7660F771F660F771FFA01E60FF71FF2
:101B000050E040E0682F70E08191DF0111979B0168
:101B1000042E02C0369527950A94E2F7217021958C
:101B20002827292328272C934F5F5F4F44305105E6
:101B300059F70895A82FA77023E0969587952A95C1
:101B4000E1F7880F991F880F991FFB01E80FF91F14
:101B500050E040E080E0219130E00A2E02C036954E
:101B600027950A94E2F721703327042E01C0220F33
:101B70000A94EAF7822B4F5F5F4F4430510559F7C3
:101B80000895262F973070F4863060F4682F70E047
:101B900086E0989F600D711D11244EE752E0822F60
:101BA0000E946D0D0895292F973068F4863058F4FF
:101BB00090E06EE772E036E0239F800D911D1124C6
:101BC0000E949A0D089580E00895B0E0A0E0EBEE49
:101BD000FDE00C94D22D7C010091960210919702A9
:101BE0008091980290919902082B192BCFE0D0E0B8
:101BF000CC24C394D12CBC2EC6010C2E02C0880F5D
:101C0000991F0A94E2F780239123892B49F42197A5
:101C100090F7B12C8B2DCDB7DEB7E9E00C94EE2D0B
:101C2000B7018C2F0E947214019789F3F3CFCF93E1
:101C3000DF93EC010E94E50DBE010E947214DF915A
:101C4000CF9108951F93CF93DF93EB0190917D0285
:101C5000992339F0CB010E94170EDF91CF911F918C
:101C60000895882369F0CB010E94E50D182F682F95
:101C7000CE010E94C10DBE01812F0E947214EDCFD2
:101C8000CB010E94D30D182FF6CF1F93CF93DF9374
:101C9000C0919A0216E080919B028C1304C0DF91E0
:101CA000CF911F910895D0E01C9FF0011D9FF00D72
:101CB0001124E456FD4F40815181628173818481FA
:101CC00095810E94CC0C2196C770E5CF4091CC0243
:101CD0005091CD026091CE027091CF028091D002DE
:101CE0009091D1020E94CC0C08951F93CF93DF9363
:101CF0008091D102807F09F049C08091CE02882373
:101D000009F444C080919A02C0919B026091CC0278
:101D10007091CD02A091CF02B091D002D62FD723DF
:101D200016E0C81799F190E0109711F0DF3F19F411
:101D300001968770F6CF189F9001199F300D1124DE
:101D4000F901E456FD4F41814713F2CF408146131C
:101D5000EFCF42814111ECCF438154814A1B5B0B91
:101D6000483C510528F78091D1028F7080618093A3
:101D7000D102F901EF55FD4F80818F708061808322
:101D80008CEC92E00E94530C0E94450EDF91CF91A3
:101D90001F910895A1E1B0E0E0EDFEE00C94D12D9B
:101DA0008C0185E0F801DE011D9601900D928A9567
:101DB000E1F7F801E2808CECC82E82E0D82E609129
:101DC000CF027091D0026115710509F44EC1909156
:101DD000CC022091CD02892F82238F3F09F445C187
:101DE00040815181A380B480F090CE02F501E61BC2
:101DF000F70BFF2009F4EAC08091D102382F307F21
:101E0000E83CF10508F0A3C031116DC0FE2C25138C
:101E100016C0941314C0E11012C08F7080618093BB
:101E2000D1020E94660EC6010E94530C8091D1021D
:101E3000F80185838F2D6196EAE00C94ED2DA114B5
:101E4000B10429F0842F85238F3F09F027C180E05A
:101E5000F82FF170DF2E80FF3CC080919A02209114
:101E60009B0236E0821315C04D875E878D859E8567
:101E70000E94170E292F22952F702230F0F0243067
:101E800018F59F70F1F0F8019581907FD1F4D12C75
:101E90001EC090E0389FF001399FF00D1124E456E8
:101EA000FD4F6181651306C06081641303C06281C8
:101EB000E6120FC001968770D5CF9F7011F088236E
:101EC00031F3805E883018F3C8010E94530CFD2C5A
:101ED000B1CFEE2009F4AECF8091D1028160809322
:101EE000D102F12CA7CF251306C0941304C0F8012A
:101EF000EE2009F487C0C8010E94AF0C882319F1B5
:101F0000EE2009F18091D102803270F02091CC0254
:101F10003091CD0238872F831986BB86AA868C879D
:101F2000CE0107960E94530C86E0F801ACECB2E0BB
:101F300001900D928A95E1F70E94750E0E94660E3F
:101F4000FF24F39477CFC8010E94530CF9CF3111CD
:101F500013C07A2DB98AA88A6E2D89890E94C20C75
:101F60008CEC92E00E94530C86E0F60111928A9567
:101F7000E9F70E94660EB5CF25130FC094130DC06C
:101F8000E1100BC0F8018583C8010E94530C86E064
:101F9000F60111928A95E9F74DCFC8010E94AF0C66
:101FA000882389F2EE2079F28091D102803208F400
:101FB000BBCF2091CC023091CD023A8329831B8282
:101FC000BD82AC828E83CE010196ACCFE83CF10598
:101FD00008F03EC0FE2CEE2009F4B5CF25132AC030
:101FE000941328C08091D10280FD1BC0982F907F50
:101FF000C1F0F8018583903F31F0982F907F905F7A
:102000008F70892B8583C8010E94530C86E0F801EC
:10201000ACECB2E001900D928A95E1F70E94660E59
:1020200009CF86E0F801ACECB2E001900D928A9500
:10203000E1F700CFC8010E94AF0C811175CF8091EC
:10204000D10281608093D102C8010E94530CF2CE6C
:102050007A2DB98AA88A6E2D89890E94C20C86E0E1
:10206000F60111928A95E9F7D9CFEE2009F46BCFEA
:10207000C8010E94AF0CF82E882309F464CF86E0D3
:10208000F801ACECB2E001900D928A95E1F78CEC8E
:1020900092E00E943A090E94750EC0CF81E08E2521
:1020A000D7CEACE0B0E0E7E5F0E10C94D82D4F835B
:1020B000588769877A878B879C87CE0107960E940D
:1020C000CA0E882369F08A859B85892B39F04F8158
:1020D0005885842F85238F3F09F06BC016E05FC0C1
:1020E00086E0FE013796DE01119601900D928A95E9
:1020F000E1F78A859B85892B89F38F8198858923D0
:102100008F3F61F320919B0230E0C90101968770F7
:10211000992740919A024817190671F40E948F0C72
:1021200010929B0210929A0286E0ECECF2E0DF0142
:102130001D928A95E9F7D2CF96E0929FD001939FA6
:10214000B00D1124A456BD4FFE01319601900D92A1
:102150009A95E1F780939B020E94450EBFCF819F25
:10216000C001112484569D4F0E94CA0E8823E9F0B5
:10217000E0919A021E9FF0011124E456FD4F408128
:10218000518162817381848195810E94CC0C809100
:102190009A0290E001968770992780939A02809125
:1021A0009A0290919B028913DACF2C96E3E00C946B
:1021B000F42D69857A858B859C850E94CC0C8ECF09
:1021C000682F80910001909101010E94BA24089526
:1021D000682F80910001909101010E94BD24089513
:1021E00080910001909101010E94C0240895809186
:1021F000DA0285958595859508958091DA02877034
:1022000008959091DA02977081E009F480E00895D2
:102210008091E50208959091E502892B8093E50273
:10222000089580959091E50298239093E502089592
:102230001092E50208959091E402892B8093E402C4
:10224000089580959091E40298239093E402089574
:102250001092E40208958091DB02089508950E948F
:102260002E1108959091270392FF08C09091DB02F0
:10227000981721F08093DB020E942F11089580911E
:10228000DB02882329F01092DB0280E00E942F11EC
:102290000895CF93DF93E0910001F09101018091C7
:1022A000E5028083E0910001F0910101808190912D
:1022B000E402892B80839091DB02992381F0E091E5
:1022C0000001F09101018081892B808380910001C0
:1022D000909101010E94722481110E943F11C091CE
:1022E0000001D091010148E050E062ED72E0CE01C2
:1022F0000E940D2E892B59F088E0FE01A2EDB2E07C
:1023000001900D928A95E1F7CE010E940224DF919F
:10231000CF91089508950E948A11089590912703FE
:1023200092FF11C098E0899F90011124622B609365
:10233000DA020E941F0D8091DA02859585958595B8
:102340000E948B1108950E941F0D08951092DA02C9
:1023500080E00E948B1108959091DA028095892384
:102360008093DA02282F277091F4282F082E000C72
:10237000330B9217130659F09091270392FF07C071
:102380008595859585950E942F0D0E94A61108952B
:10239000CF93C82F8091270382FB992790F99C1730
:1023A000E9F0C0FB82F98093270380912603909186
:1023B00027030E94251282E00E94AC118091F7024F
:1023C00080FF0CC01F92CF9381E392E09F938F9385
:1023D0000E9477070F900F900F900F90CF91089564
:1023E0008091270382FB882780F991E089270E944A
:1023F000C811089581E00E94C811089580E00E94EC
:10240000C811089590E080E00E94312E21E0883EBE
:102410009E4F09F020E0822F089582E090E00E9414
:10242000232E089583E090E00E94232E0895CF93F9
:1024300084E090E00E94232EC82F82E290E00E9468
:10244000232E982F8C2FCF910895CF93C92F682FCB
:1024500084E090E00E94372E6C2F82E290E00E9490
:10246000372ECF910895AB01BC018FE090E00E9420
:10247000492E0895AB01BC0183E190E00E94492EF2
:10248000089560E070E0CB010E943A12089560E088
:1024900070E0CB010E9433120E944112089568EE51
:1024A0007EEF90E080E00E94552E60E082E090E0B8
:1024B0000E94372E60E083E090E00E94372E109259
:1024C00099021092980260E084E090E00E94372E1A
:1024D00064E082E290E00E94372E60E085E090E0C8
:1024E0000E94372E60E086E090E00E94372E6FEF6A
:1024F00087E090E00E94372E40E050E0BA0188E08B
:1025000090E00E94492E60E08DE090E00E94372E1E
:1025100040E050E0BA0188E190E00E94492E60E07E
:1025200087E190E00E94372E40E050E0BA018CE154
:1025300090E00E94492E70E060E080E290E00E940E
:10254000552E40E050E0BA0188E190E00E94492E0B
:102550000E94471208950E944F120895682F8EE03E
:1025600090E00E94372E08950E9478256093F30230
:102570007093F4028093F5029093F6026093EF0259
:102580007093F0028093F1029093F20208950895FF
:1025900008950E94C812089508950E94CC120895CB
:1025A0008BE897E20E94EB230E94C7120E94C91297
:1025B000089581E008950E94D9120895089508951C
:1025C0000E94DE120E94DF1208950E945D150E9493
:1025D000B70808950E9463250E9463160E94E512C1
:1025E0000E94281D0E94CD120895AAE0B0E0EBEFF2
:1025F000F2E10C94D12D0E94791688EEA82E82E08B
:10260000B82E750110E0F70101917F01812F0E9422
:1026100083151F5F173009F440C00817A1F380919C
:10262000F70281FD0E9489150E94DB12C82E10E07E
:10263000812F0E948315082FF50181915F010817F2
:1026400031F1D02ED826F12CEE24E3948D2D8E215D
:10265000B1F0CC20A1F0FE821F8391E0802F8E216B
:1026600009F490E098870E946C258160782F9A8702
:1026700089874E815F8168858A850E940509F39468
:10268000EE0CF6E0FF12E2CFF501319700831F5FF9
:10269000173071F60E94B41220C00813C0CF0E94F8
:1026A0006C258C018091E6029091E70208171907CA
:1026B000A1F08FEF89838A831B820E946C25816041
:1026C000782F9D838C8349815A816B818D810E94F3
:1026D00005091093E7020093E6020E94351E0E944E
:1026E000CA082A96EAE00C94ED2DCF93DF930E945E
:1026F0007714EC01811522E59207E8F5811531E5A3
:10270000930708F0A3C0883E910510F5803E91051F
:1027100070F5883A910570F4853A910508F078C013
:102720008130910521F1009711F1049700F5D0E077
:10273000C0E01DC08F3B9105D0F7C85AD0E0CC0F48
:10274000DD1FCD5ADE4F0990D881C02DD4640FC053
:10275000811540E5940708F066C0C11580E4D807EC
:1027600008F05EC0CE019A9581159F4100F7CE0119
:10277000DF91CF910895811536E5930718F58115FE
:1027800045E5940708F07BC0C11584E5D80708F03B
:1027900071C09E01237033279C2F96959695C11585
:1027A000D34508F458C0C1E0D0E002C0CC0FDD1F13
:1027B0002A95E2F730E2939FC0011124C82BD92B50
:1027C000DA68D5CFC1158AE5D80778F4C11529E5AF
:1027D000D20708F05EC0C11538E5D30708F4A7CFCB
:1027E000DC2FCC27C06FD06AC2CFCE0190568115A6
:1027F000904208F09CCF8D2F8F710E94191590E0A8
:10280000982F882788279F719C012C2BE9013FC0B6
:10281000C55AD0E0CF57DE4FC881D0E0D064A7CFF3
:10282000DF70D06AA4CF8370992721E030E002C026
:10283000220F331F8A95E2F7C695C69580E2C89F9E
:10284000E0011124C22BD32BDD6891CFD82FCC27E8
:10285000C16FD06A8CCFC1E0D0E002C0CC0FDD1FC9
:102860002A95E2F720E2929FC0011124C82BD92BB0
:10287000DC687DCFDC2FCC27C46FD06A78CF0E9474
:102880001915C82FD0E0DC2FCC27CC27DF71D06200
:102890006ECF8C2F8F700E94191534E0D695C79596
:1028A0003A95E1F7CF709C2FEC01D06960CF972F5C
:1028B0007730A8F4663098F470E026E0929F600DBF
:1028C000711D1124FB019AE2899FE00DF11D112475
:1028D000EE0FFF1FE455FF4F85919491089580E01E
:1028E00090E008950E9457140E947513089582384D
:1028F0009105B9F1B0F48133910509F47DC048F434
:102900008932910509F46DC08A32910509F47BC0C2
:1029100008958533910509F45FC08933910509F164
:102920000895833E9105D9F138F4803E910529F14F
:10293000823E910579F10895863E9105D9F1873E51
:10294000910509F43EC0843E910541F5209127038D
:1029500021FF24C08091260384FD19C087EE90E0FA
:10296000089520912603237009F05AC0209127036F
:1029700023FF14C089E290E008952091260320FDF2
:1029800038C03091270330FF09C024FF43C090E0D6
:1029900080E008952091260322FDF7CF089520912D
:1029A000260322FD3AC03091270330FD39C024FFB1
:1029B000F5CFEDCF2091260323FFF0CF24FDE7CF05
:1029C000CDCF2091260323FD2EC03091270331FF68
:1029D000EECF84EE90E008952091260325FFDECF10
:1029E000C9CF2091260325FD21C02091270323FF75
:1029F000D5CF89E390E0D2CF2091260326FFCECF1A
:102A00008AE290E008952091260326FFC7CF81E354
:102A100090E0089583EE90E0089582EE90E00895AE
:102A200080EE90E0089586EE90E0089585E390E0D2
:102A300008959091260392FF06C0282F2871283010
:102A4000F9F4877F846093FF06C0282F287128310E
:102A5000F1F4877E84612091270320FF06C0382F80
:102A600038713830D9F4877F816021FF06C0282F64
:102A700028712831D1F4877E816194FD877E089585
:102A8000282F24712430F9F68B7F8860DCCF282F23
:102A90002471243101F78B7E8861DDCF382F3171AD
:102AA000313019F78E7F8860E0CF282F21712131D6
:102AB00021F78E7E8861E1CF08950E940212811174
:102AC00002C00E94AB120E940D128093F7020E9476
:102AD000171290932703809326030E945C150E948F
:102AE000121290E00E94E40C80919602909197025D
:102AF0000E94020D089508950E947B15089508957F
:102B00000E947F150895E82FF0E0E15DFC4F808181
:102B10000895B0E0A0E0EFE8F5E10C94D32D85E551
:102B200092E00E94DE068FE2E82E83E0F82ED0E0ED
:102B3000C0E090E5C92E92E0D92E08E412E0DF93C0
:102B4000CF93DF92CF920E9477078DE492E00E94AC
:102B5000DE06F70181917F010E9496081F928F93F4
:102B60001F930F930E94770786E492E00E94DE068F
:102B700021968DB79EB708960FB6F8949EBF0FBEEC
:102B80008DBFC730D105D9F6CDB7DEB7E8E00C94DC
:102B9000EF2D80EA8A95F1F7089500C008950E940C
:102BA000C9150895F894E82FE295EF70F0E031A18F
:102BB000282F2F7081E090E001C0880F2A95EAF756
:102BC000982F9095932391A392A1892B82A3789417
:102BD0000895CF93DF93CAE8D1E089918F3F11F038
:102BE0000E94D21581E0C139D807B9F7C4E8D1E015
:102BF00089918F3F11F00E94D21581E0CA38D80721
:102C0000B9F7DF91CF910895B0E0A0E0EAE0F6E1F6
:102C10000C94D32DEC01D62E062F10E0C801865758
:102C20009E4F7C01FC0180818F3F09F445C0F894E0
:102C3000E82FE295EF70F0E091A18F7021E030E095
:102C400001C0220F8A95EAF7892F822B81A382A1E6
:102C50002095282322A378940E94CD15E4E8F1E082
:102C60004AE851E031E0C12C21912F3F51F1A22FD0
:102C7000A295AF70B0E090968C9190E02F7002C05A
:102C8000959587952A95E2F780FD1BC0832FC82A6A
:102C9000330F4E175F0741F7F70180818F3F11F027
:102CA0000E94D21561E0C11001C060E08D2D0E942C
:102CB000CF15C00FD11FC882CDB7DEB7E8E00C94A6
:102CC000EF2D80E0E4CF0E94E91587E0EFE2F3E02A
:102CD000DF01982F1D929A95E9F7E8E2F3E0DF0112
:102CE0001D928A95E9F787E00E94B4160E94FA07C0
:102CF0000895A7E0B0E0EFE7F6E10C94D62D8E0141
:102D00000F5F1F4F87E0F80111928A95E9F7F12CC8
:102D10006F2DC8010E940416F394F7E0FF12F8CF5C
:102D200047E050E0B80188E293E00E940D2E21E0D8
:102D3000009709F420E0892B41F087E0F801A8E230
:102D4000B3E001900D928A95E1F747E06FE273E0FE
:102D500088E293E00E94B516182F0E94FD07812F8C
:102D60002796E5E00C94F22D0895CF92DF92EF9232
:102D7000FF920F931F93CF936C017B01042F2223AB
:102D800049F081E08093FA020E946C259093F90249
:102D90008093F802C091FA02C1110AC0C0E08C2FE2
:102DA000CF911F910F91FF90EF90DF90CF900895FA
:102DB0008091F8029091F9020E948425059770F3A2
:102DC00010E0A801B601C7010E940D2E892B41F029
:102DD000A801B601C7010E941A2E1092FA02DFCF95
:102DE000C0E0FBCF0E9407280E94EA120E9414282C
:102DF00008950E9419280E94F5120E94372808950C
:102E00000E9405250E94ED270E94D0120E94F21612
:102E10000E94F9160E94E012FBCFEF92FF920F93EF
:102E20001F93CF93DF93EB01E82FD1110EC0442302
:102E300021F0F0E0E453F94FE4916E2F7E2F8E2FB6
:102E4000CDB7DEB7E6E00C94F12D0D2F10E0282F62
:102E500030E0442329F02453394FF901249130E024
:102E6000F6E0CF9FC0011124EFEFF0E0BF010E9418
:102E7000482DAB018C2F90E0880F991FA5E5A49FEA
:102E8000B001A59F700D1124861B970B982F990FE9
:102E9000980FBF01601B710B629FD001639FB00D43
:102EA000729FB00D11248B2F9D9FB0011124672FAD
:102EB0007727EF01C61BD70BBE01629FE001639F1E
:102EC000D00D729FD00D11247F01E91AF108E09E08
:102ED000B001E19E700DF09E700D1124672F7727D1
:102EE000E61BF70BE29F8001E39F100DF29F100D90
:102EF0001124E12F722F4230510599F048F4411509
:102F0000510569F04130510581F0EB2F8D2F07C03D
:102F10004430510569F080F046305105B1F76E2F0D
:102F20008FCFE22F7B2F812FFACFE22F7D2FF7CF8C
:102F3000EB2F822F712FF3CF7B2F822FED2FEFCF2F
:102F400041E00E940D17089508950E94A01708956A
:102F5000CF93DF93762FE901682F842F0E94A51766
:102F6000798368838A83DF91CF91089580913603B6
:102F7000982F9E7F29F48170826080933603089594
:102F80008A34E8F381708864F8CF88E090E00E948A
:102F90002B2E0895CF92DF92EF92FF926B017C016E
:102FA0000E94B617B701A60188E090E00E94492E62
:102FB000FF90EF90DF90CF900895E6E3F3E083E099
:102FC000808311828FEF8283838314826081718179
:102FD000828193810E94CA1708958091F70280FF31
:102FE00076C08CE995E09F938F930E94770780913C
:102FF000F7020F900F9080FF6AC0809136038170B6
:103000001F928F938FE795E09F938F930E9477078E
:103010008091F7020F900F900F900F9080FF57C094
:103020008091360386951F928F9384E695E09F9357
:103030008F930E9477078091F7020F900F900F9067
:103040000F9080FF44C0809137031F928F938AE4D2
:1030500095E09F938F930E9477078091F7020F90DE
:103060000F900F900F9080FF32C0809138031F9215
:103070008F9380E395E09F938F930E9477078091D1
:10308000F7020F900F900F900F9080FF20C080915B
:1030900039031F928F9386E195E09F938F930E944F
:1030A00077078091F7020F900F900F900F9080FF9D
:1030B0000EC080913A031F928F938AEF94E09F9302
:1030C0008F930E9477070F900F900F900F900895A5
:1030D0008091360380FF02C08695089580E00895B0
:1030E00090913A03933018F49F5F90933A038823AA
:1030F00051F06091360370913703809138039091BD
:1031000039030E94CA17089581E00E94701808953B
:1031100090913A03992319F0915090933A038823A0
:1031200051F060913603709137038091380390918C
:1031300039030E94CA17089581E00E9488180895F3
:1031400070E00E94A61F08956091060180913603E9
:1031500080FF0BC08091050123E0829FC0011124F4
:10316000855C9C4F0E94A018089580910701909162
:10317000080123E0829FF0011124E55CFC4F8917D0
:1031800048F71182108212828F5F3396F8CF9091A8
:10319000360390FF0EC0909107012091080133E0A3
:1031A000939FF0011124E55CFC4F921718F00E94E8
:1031B000A41808958183608342839F5F3396F5CF7F
:1031C000A3E0B0E0E6EEF8E10C94D92D909136033F
:1031D00090FF0AC09E012F5F3F4F0E94A8174B81AE
:1031E00069818A810E94C7182396E2E00C94F52D2C
:1031F000CF93DF93EC01EC81F0E0E953FA4F449177
:10320000E6E3F3E0628181810E94E0188C818F5FA8
:103210008C83DF91CF910895CF93DF93EC01E6E3A8
:10322000F3E0438162818C810E94E0188C818F5F82
:103230008C83DF91CF910895A3E0B0E0E2E2F9E161
:103240000C94D72D8C018091FB0281110AC09E0144
:103250002F5F3F4F4FEF6FEF0E94A8178A81809337
:10326000FB02F8016481613069F08091FB0240E06B
:10327000662361F040E0623011F44091FB0280E08F
:1032800060E004C06091FB0240E080E00E94C7184B
:10329000F801848190E0019663E070E00E945C2D6B
:1032A00084832396E4E00C94F32DA3E0B0E0EBE5F7
:1032B000F9E10C94CC2D082FE62EF42EC22E90911D
:1032C000360390FF45C0E92FE695AE2FB0E0AF562C
:1032D000BE4F8C91809307039E7F9230E9F59E014B
:1032E0002F5F3F4F802F0E94A8174B8169818A81F1
:1032F0000E94C71800933703E0923803F092390315
:10330000CC2009F486C06091360370913703809118
:103310003803909139030E94CA178091F70280FF09
:1033200017C0809139031F928F93809138031F92A9
:103330008F93809137031F928F938DEB92E09F9331
:103340008F930E9477070FB6F894DEBF0FBECDBFF4
:103350002396EFE00C94E82D823019F4F0903903B5
:10336000C9CF863019F400913703C4CF8930D9F31F
:10337000893109F0BFCFE9518E2F8170782E8E2FC1
:1033800080958170D82EE695F0E0E953F94F1491BD
:10339000612C92EEA92E92E0B92E60910901661679
:1033A00018F00E94A418A6CF619EC001112470E0FD
:1033B0000E94482D502E71102AC0560E862C912C3A
:1033C0008091F70280FF11C01F921F931F92DF921E
:1033D0001F925F921F926F92BF92AF920E947707E7
:1033E0000FB6F894DEBF0FBECDBF20910701820E4D
:1033F000911C9401220F331F280D391D255C3C4F71
:103400004F2D6E2D852D0E94A8176394C6CF561A96
:10341000D5CF8091F70280FF9BCF1F92FF921F9222
:10342000EF921F920F9386E992E089CFE6E3F3E0F3
:103430009181282F4381628180E1890F0E94551973
:10344000089581E00E94161A0895E6E3F3E0918161
:10345000282F4381628180EF890F0E9455190895BA
:1034600081E00E94251A0895E6E3F3E0628120E1FD
:10347000620F08F46FEF282F438181810E94551954
:10348000089581E00E94341A0895E6E3F3E0628132
:1034900020E1621B08F460E0282F438181810E94B3
:1034A0005519089581E00E94451A0895E6E3F3E076
:1034B000438120E1420F08F44FEF282F6281818180
:1034C0000E945519089581E00E94561A0895E6E376
:1034D000F3E0438120E1421B08F440E0282F6281A1
:1034E00081810E945519089581E00E94671A08950C
:1034F00020E00E9455190895EF92FF921F93CF93F9
:10350000DF93EC0110E0EE24EA94F12C60910901C4
:10351000161770F00E94A4189A818C8190FF27C022
:103520008F5F8C83DF91CF911F91FF90EF90089573
:1035300020910701422F410F5527551FCA019A01BB
:10354000220F331F280F391F255C3C4F70E0C70145
:103550000E945C2D962F8C81409139036091380335
:10356000199F800D11240E94A8171F5FCFCF815093
:10357000D8CFB0E0A0E0EFEBFAE10C94D12DFC0144
:1035800082810FEF80FF01E010E04BE0A42E8091DC
:103590000901181798F00E94A4188091FD020130CB
:1035A00009F04FC0811102C08091090181508093C0
:1035B000FD02CDB7DEB7EAE00C94ED2DC091070116
:1035C000C12ED12CCC0DDD2DD11DCE01880F991F20
:1035D000C80FD91FC55CDC4F198218821A8234E0EB
:1035E000E32EF12CB12C8091FD028B0D8C301CF15F
:1035F0006A2D0E943A2D892F082E000C990BC816AF
:10360000D90691F4809139038E9DA0018F9D500DB4
:10361000112455954795559547959E01609138031E
:10362000809137030E94A817B00EF1E0EF1AF1085D
:10363000D1F61F5FACCF87FFDFCF90910901890FD3
:10364000DBCF90E001966091090170E00E945C2D53
:10365000AECF0F931F93CF93DF938091070190918B
:10366000080123E0829FF0011124E55CFC4F8917DB
:1036700040F1C0E0D3E060910901C61740F10E941B
:10368000A418209103018091FC02820F8093FC0218
:1036900090910401920F90930401191654F4082E8E
:1036A000000C990B409109014150550B8417950767
:1036B0001CF0219520930301DF91CF911F910F9171
:1036C00008951182108212828F5F3396D0CF0C2F13
:1036D00010E070E0C8010E945C2D20910701820F6C
:1036E000482F50E02091FC02022E000C330B0217F1
:1036F0001307BCF020910401022E000C330B20179D
:1037000031077CF08D9F90011124255C3C4F409146
:10371000390360913803809137030E94A817CF5F67
:10372000AACFFA01EE0FFF1FE40FF51FE55CFC4F77
:10373000118210821282F3CFB0E0A0E0E2EAFBE156
:103740000C94CF2DEC014C81042F10E09801D8018E
:103750000E94A02D9B01AC010E94B62D4B015C0183
:10376000E0E2F0E0E01BF10BA5E5B0E0AC019B016D
:103770000E94B62D6B017C019F01DF010E94982DF4
:103780009B01AC010E94C12D9B01AC01280D391D8C
:103790004A1D5B1DC701B6010E94702DF22E822FBB
:1037A00090E039E23F1520F143E0249F900111247D
:1037B00035952795122F109500E085E5E82EEF1836
:1037C00080910901081718F10E94A4189C8181E0DA
:1037D000992319F0903219F48FEF809302018091B0
:1037E0000201890F8C83CDB7DEB7ECE00C94EB2D92
:1037F00025E530E0B901681B790B9B01220F331FCF
:10380000260F371F37FFD4CF2F5F3F4FD1CF8E2DDD
:1038100001FD8F2D20910701622F600F7727771F01
:103820009B01220F331F260F371F255C3C4F412F72
:10383000609138030E94A8170F5FC2CF0F931F93A8
:10384000CF93DF93EC0110E000E090910901901715
:10385000110609F06CF40E94A4188C8190E0019686
:10386000817099278C83DF91CF911F910F910895DB
:1038700020910701A801420F511D9A01220F331F09
:10388000240F351F255C3C4F4C816091380380919B
:10389000370396959017110651F04CF0442349F0E8
:1038A000409139030E94A8170F5F1F4FCECF4423CA
:1038B000B9F340E0F7CF60913603669570E04BE0D6
:1038C00050E08AE091E00E94002E892B19F481E0FB
:1038D000809308030E946C259093FF028093FE0260
:1038E0008091F70280FF08C08DE792E09F938F934D
:1038F0000E9477070F900F9008951092080380910F
:10390000F70280FF08C084E692E09F938F930E94A5
:1039100077070F900F9008959091360390FF3EC067
:10392000917081113CC09260909336036623F1F14F
:103930006091360370913703809138039091390379
:103940000E94CA178091F70280FF0FC08091360352
:1039500086951F928F9380E494E09F938F930E94AB
:1039600077070F900F900F900F9060913603669538
:1039700070E04BE050E08AE091E00E94002E892B3D
:1039800009F10E947D1C81E080930103409139037D
:1039900060913803809137030E94781A0895853228
:1039A00010F09864C1CF880F982BBECF8091F7029A
:1039B00080FFDBCF8091360386951F928F9382E242
:1039C00094E0CBCF0E945B1CDECF682F9091360332
:1039D000969581E0890F853208F081E00E948C1C69
:1039E000089581E00E94E51C0895682F90913603A8
:1039F00096958FEF890F09F484E20E948C1C08953C
:103A000081E00E94F51C089561E00E948C1C0895DD
:103A1000809136038160809336038091F70280FFA6
:103A20000DC01F9281E08F9384EB93E09F938F935F
:103A30000E9477070F900F900F900F9080913603A0
:103A400086950E94041D089560E00E948C1C0895D4
:103A500080910603811160C08091F70280FF14C03D
:103A600083EE94E09F938F930E9477078091F702F3
:103A70000F900F9080FF08C08DEC94E09F938F9380
:103A80000E9477070F900F900E940212811110C0C0
:103A90008091F70280FF08C085EA94E09F938F939E
:103AA0000E9477070F900F900E94AB120E94DD17C3
:103AB0000E94C517609336037093370380933803D1
:103AC000909339036E7FC1F48091F70280FF08C0A4
:103AD0008CE594E09F938F930E9477070F900F904F
:103AE0000E94DD170E94C517609336037093370359
:103AF00080933803909339030E94B6170E94ED1704
:103B0000109208038091360380FF03C086950E94BF
:103B1000241D81E08093060308958091360381601F
:103B2000809336038091F70280FF0DC01F9281E0E1
:103B30008F938BE793E09F938F930E9477070F906B
:103B40000F900F900F908091360386950E94241D50
:103B50000895109205038091040381110E948D1D28
:103B60000E945B1C0895809136038E7F80933603FC
:103B70006091360370913703809138039091390337
:103B80000E94CA178091F70280FF0FC08091360310
:103B900081701F928F9383E493E09F938F930E9491
:103BA00077070F900F900F900F900E947D1C2FEFC2
:103BB00080E792E0215080409040E1F700C0000093
:103BC0000E94A41808958091F70280FF10C0809190
:103BD0003603809581701F928F938BEE93E09F93B5
:103BE0008F930E9477070F900F900F900F90809106
:103BF000360380FF03C00E94B31D08950E94081D74
:103C00000895809136038E7F809336038091F7026A
:103C100080FF0CC01F921F9289E093E09F938F93C7
:103C20000E9477070F900F900F900F900E947D1CBD
:103C30002FEF80E792E0215080409040E1F700C0F4
:103C400000000E94A41808950E947D1C8091050325
:103C500081110AC081E08093050380913603817051
:103C6000809304030E94011E08950F931F93CF9326
:103C7000DF93809108038823B9F180910703E091D5
:103C80003603E695E81BE0930003823091F5F0E0FF
:103C9000ED53FA4FE491CE2FD0E008EF18E1809178
:103CA0000103882361F0109201030E946C25909318
:103CB000FF028093FE0210920303109202030E94FF
:103CC0006C25E091FE02F091FF028E1B9F0B8F3F4F
:103CD0009F4750F4EC0FFD1FF093FF02E093FE02AC
:103CE0008EEF92E0F8010995DF91CF911F910F912E
:103CF0000895863049F4F0E0E054FA4FE491CE2F75
:103D0000D0E00CE019E1CBCF893051F4E695F0E03A
:103D1000E354FA4FE491CE2FD0E00CE71AE1BFCF85
:103D20008F3051F4E695F0E0E654FA4FE491CE2F4F
:103D3000D0E009EB1AE1B3CF853149F4F0E0E95462
:103D4000FA4FE491CE2FD0E009E21BE1A8CFC8E200
:103D5000D0E00CE91BE1883109F4A1CF833239F4BA
:103D6000E5EBF5E0C591D4910CE119E198CFC4EFF2
:103D7000D1E00EE11CE1843209F491CFC0EDD7E02F
:103D800004EA17E18CCFFA01811101C0FB0109950A
:103D90000895CF93DF93C82FD62F0E9468188C17F1
:103DA00048F00E9468188D1728F40E94F11CDF91DA
:103DB000CF9108958C2F0E94041DF9CF1F93CF93AC
:103DC000DF93EC01FB01128111117EC00E940811EA
:103DD0008272CD3CFCE5DF0709F49CC008F041C0CD
:103DE000C73CECE5DE0709F481C0D8F4C43C9CE58F
:103DF000D90709F471C030F4C33CDC4509F469C04B
:103E000011E062C0C53C9CE5D90709F46AC040E3F3
:103E10005AE161E27AE1C63CDC4591F70E94C31E9B
:103E200053C0CA3CFCE5DF0709F46AC068F4C83C2B
:103E3000ECE5DE0709F45FC041E45AE162E57AE1AE
:103E4000C93CDC4559F3DCCFCB3C9CE5D90709F4F0
:103E50005CC04CE958E164E878E1CC3CDC45F1F227
:103E6000CFCFC23DFCE5DF0709F465C098F4CF3C35
:103E70009CE5D90709F457C008F451C0C03DFCE5E2
:103E8000DF0709F455C0C13DDC4509F0B9CF6EE04C
:103E900089E04BC0C53D9CE5D90709F452C058F4F0
:103EA000C33DFCE5DF0709F449C0C43DDC4509F02A
:103EB000A7CF88E135C0C63D9CE5D90709F444C0C9
:103EC000CE35DD4509F09CCF812FDF91CF911F9139
:103ED00008950E94E31DF8CF40E05DE161EF7CE1D1
:103EE0009DCF41EF5CE160E07DE198CF41E25AE196
:103EF00060E37AE193CF42E55AE161E47AE18ECF63
:103F000044E75AE163E67AE189CF43E65AE164E7A0
:103F10007AE184CF44E858E16CE978E17FCF81E031
:103F20000E94041DD1CF65E082E00E94C91ECCCF63
:103F300068E086E0FACF64E18FE0F7CF67E185E1E2
:103F4000F4CF62E289E1F1CF83E2EACF539A4BB139
:103F5000477F5BB15860EFB7F8949B01220F331F86
:103F6000260F371F280F391F2817390741F4EFBFD5
:103F70008FE594E00197F1F700C000000895DC019F
:103F80006D91CD0178E05BB9000000C067FF4BB9CF
:103F9000660F000000C000C000C04BB900C07A9599
:103FA00091F7E2CFCF93DF93EC01FB01828188236D
:103FB00009F464C1C430FDE5DF07E0F5CB3F9CE5C3
:103FC000D90730F49E0122503C4524313105D8F503
:103FD0000E9417129093270380932603C231ECE5C9
:103FE000DE0709F41FC108F06EC0C9308CE5D807A0
:103FF00009F4F2C008F03FC0C530ECE5DE0709F473
:10400000DBC058F5C3308CE5D80709F4CDC008F003
:10401000CFC0809126038160C230DC4509F4AEC078
:1040200080912603909127030E9425120E948F0CF5
:1040300080E009C0C63AEDE5DE0751F238F4C23639
:104040009DE5D90729F2DF91CF9108959E012E5A5F
:104050003D4523303105B8F7BBCF80912603806200
:10406000C730FCE5DF0709F489C008F4B1C08091CE
:104070002603806483C0CD309CE5D90709F4BAC01B
:1040800070F4809126038E7FCB30FCE5DF0709F4C6
:1040900075C008F4A7C0809126038D7F6FC0CF3014
:1040A0009CE5D90709F4B6C008F4A8C0C031FCE506
:1040B000DF0709F4B3C0C131DC4509F0B1CF80910D
:1040C00026038F7B5BC0C1159DE5D90709F4B4C0F9
:1040D00098F5CB3FFCE5DF0709F472C0B8F4C431B2
:1040E0009CE5D90709F4B6C008F4A2C0C531DC4587
:1040F00009F096CF8091260382FB992790F921E061
:10410000922790FB82F990FB83F938C0CD3F8CE574
:10411000D80709F477C008F457C0CE3FECE5DE07B6
:1041200009F474C0809127038360CF3FDC4509F018
:1041300077CF8093270374CFC2368DE5D80709F473
:1041400096C068F4C230EDE5DE0709F48CC008F4CF
:1041500077C0C330DD4509F063CF80E085C0CE3A3B
:104160009DE5D907E9F068F490912603892F8E7FA9
:1041700090FF8160C63ADD4509F052CF8093260357
:104180004FCFCF3A8DE5D80789F1C03BDD4509F027
:1041900047CF90912703892F877F93FF8860C9CFEE
:1041A000809127038860C5CF809126038260E6CF87
:1041B000809126038460E2CF809126038860DECF61
:1041C000809127038160B5CF809127038260B1CFB2
:1041D000809126038061D2CF0E948F0C80912603AC
:1041E0008068CCCF809126038C60C8CF8091270354
:1041F000877F9FCF809126038B7FC0CF809126033E
:10420000877FBCCF809127038E7F93CF8091270338
:104210008D7F8FCF809126038F7EB0CF8091260334
:104220008F7DACCF0E948F0C809126038F77A6CF15
:1042300080912603837FA2CF809127038C7F79CF43
:1042400080912703982F909591708E7F892B90FBFA
:1042500081F96FCF0E948F0C90912603892F97FBD5
:1042600087F980588BCF81E00E94AE12D9CE909111
:104270002603892F8F7E94FF806180CF81E0E3CE7B
:10428000CF93C82F1F928F9382ED97E09F938F93C8
:104290000E94770781E090E002C0880F991FCA95BD
:1042A000E2F70E94E40C0E948F0C0F900F900F9089
:1042B0000F90CF910895EF92FF920F931F93CF939A
:1042C000DF938B3109F410C108F0B0C08B3009F4D2
:1042D000CCC008F082C0863009F4DAC048F48530DA
:1042E00009F4B2C08BE69BE00E94DE0680E0E0C0ED
:1042F000873009F4E2C08830A9F70E9412121F9299
:104300008F938EE49BE09F938F930E9477070E9488
:104310000D1283FB992790F91F929F9382FB992797
:1043200090F91F929F9381FB992790F91F929F9379
:10433000982F91701F929F931F928F9385E09BE01F
:104340009F938F930E9477070E94171293FB222757
:1043500020F91F922F9387FB222720F91F922F937A
:1043600086FB222720F91F922F9385FB222720F915
:104370001F922F9384FB222720F91F922F9383FBF8
:10438000222720F91F922F9382FB222720F91F92C8
:104390002F9391FB222720F91F922F93292F217011
:1043A0001F922F9381FB222720F91F922F93282FF2
:1043B00021701F922F939F938F9386E09AE09F9393
:1043C0008F930E9477078DB79EB78A960FB6F894A1
:1043D0009EBF0FBE8DBF81E06BC0803109F49CC0D1
:1043E00080F48E3009F07ECF9091F702892F8B7F79
:1043F00092FF84608093F70282FF8BC086E99BE086
:104400007FC0863109F498C0893109F06BCF86EB03
:1044100091E09F938F9382E498E09F938F930E9403
:1044200077070F900F900F900F90D5CF8A3249F1F8
:1044300090F4873211F128F48E3108F453CF8D5166
:104440001DC0893209F04ECF89ED9BE00E94DE0647
:104450000E940F08C0CF833468F48A3308F091C0FB
:10446000853359F0883309F03DCF80E698E00E940B
:10447000DE06B1CF833409F035CF80E00E944021C1
:10448000AACF89EF9BE00E94DE060E94AB12A3CF69
:104490008091F702807F8093F70285E498E00E9484
:1044A000DE0685EF9BE00E94DE0681E08093090333
:1044B000CDB7DEB7E6E00C94F12D9091F702892F8D
:1044C0008E7F90FF81608093F70280FF03C08DECA8
:1044D0009BE0CDCF80EC9BE00E94DE068091F7024E
:1044E000817F8093F70277CF9091F702892F8D7F9C
:1044F00091FF82608093F70281FF08C083EB9BE00D
:104500000E94DE068091F7028160EBCF85EA9BE096
:10451000AECF86E89BE0ABCF9091F702892F877FE3
:1045200093FF88608093F70283FF03C08AE79BE0D4
:10453000E7CF8DE69BE09BCF0E947825162F072FB3
:10454000F82EE92ED0912503C09121010E94F52378
:10455000EF92FF920F931F931F92DF931F92CF93BF
:104560001F928F9387ED97E09F938F930E94770719
:104570008DB79EB70C960FB6F8949EBF0FBE8DBF39
:104580002ACF89537BCF80E008950E94C3220895EB
:10459000CF93C82F80910903882331F0813099F09F
:1045A0001092090380E00DC00E9408118232D1F7F9
:1045B0008C2F0E94C322811119C08C2F0E945B2175
:1045C0008170CF9108950E940811823289F38C2F57
:1045D0000E94C522811119C0C431C9F050F4CB30FA
:1045E00061F08CEC97E00E94DE0613C081E090E061
:1045F000E7CFC93261F0C833A1F785E498E00E94A3
:10460000DE068EEC97E00E94DE0681E0D9CF1092A4
:10461000090380E0D5CFCF93DF93EB0186319C4532
:1046200011F50E9408119A81992399F08A7A91E0F4
:1046300009F490E090930A03811109C089E20E9475
:10464000E0100E94491180E0DF91CF91089585E349
:10465000F6CF80910A03811104C089E20E94E8101C
:10466000F0CF85E3FBCF81E0EFCF0F931F93CF9384
:10467000DF93C42FD22FFC0182818823C9F040939D
:104680000D030E946C2590930C0380930B0380E232
:104690008C0F883040F4C77081E001C0880FCA9544
:1046A000EAF70E94400ADF91CF911F910F91089580
:1046B00010910D03141332C080910B0390910C03E1
:1046C0000E948425883C910548F5C0E2CD0F1D1756
:1046D000B9F080E2810F883040F4177081E001C0AA
:1046E000880F1A95EAF70E94470AC83048F481E01B
:1046F0009D2F977001C0880F9A95EAF70E94400A93
:10470000802F0E94370AC83070F6D77081E001C050
:10471000880FDA95EAF70E94470AC5CF80E28C0F2E
:10472000883008F6C77081E001C0880FCA95EAF7A3
:10473000F2CF0F939C01CB01243F4CE5340759F194
:10474000A8F4293DFCE53F0701F12A3D4CE534077B
:10475000D1F1283D3C4591F406E221EE41EE68EDB1
:104760007CE50E94352380E00F910895263FFCE50B
:104770003F07E9F0B0F0273F3C45F9F0FC018281AA
:10478000882339F110920D03EFCF07E225EE45EEB5
:1047900069ED7CE5E6CF06E221EE40EE64EF7CE5D4
:1047A000E0CF07E225EE44EE65EF7CE5DACF06E2E6
:1047B00021EE42EE66EF7CE5D4CF07E225EE46EE31
:1047C00067EF7CE5CECF08E221E045EE6AED7CE5BF
:1047D000C8CF81E0C9CF9093770280937602089585
:1047E00090931303809312030895E0911203F091C4
:1047F0001303309729F00190F081E02D0995089579
:1048000080E00895EF92FF920F931F93CF93DF9371
:104810008C01E0911203F0911303309791F1028023
:10482000F381E02D09958091F70282FF2AC080FF75
:1048300004C082E19CE00E94DE06D0E0C0E08CE093
:10484000E82E8CE0F82E8091F70280FF0EC0F80170
:10485000EC0FFD1F80811F928F93FF92EF920E94B9
:1048600077070F900F900F900F902196C830D105C9
:1048700051F78091F70280FF04C08AE09CE00E941B
:10488000DE06CDB7DEB7E6E00C94F12D20911003E3
:10489000309111032817390771F090931103809319
:1048A0001003E0911203F0911303309721F006807A
:1048B000F781E02D0995089520910E0330910F03A3
:1048C0002817390771F090930F0380930E03E0913E
:1048D0001203F0911303309721F00084F185E02D4D
:1048E000099508959C012E5F3F4FAC01485F5F4FD3
:1048F00080E02417350709F40895F90191919F018B
:104900009923B9F38F5FF5CF662349F0FC01329606
:1049100008962191261729F0E817F907D1F780E0CA
:10492000089581E008959C01FC0132969FEF80E09C
:104930004191461751F09F3F19F4411101C0982F42
:104940008F5F8630A9F79F3F09F40895290F311D25
:1049500097FD3A95F90162830895FC013296089615
:104960002191261303C0DF0111971C92E817F90764
:10497000B9F708950E94932408950E94AD240895E4
:10498000029626E0FC0111922A95E9F70895089510
:104990000E94C7240895811106C081E0809314030A
:1049A0000E94C824089582E0F9CF83E08093140325
:1049B0000E94C82408950E94CB24089581E080932A
:1049C00014030E94C82408950E94DE2408950895C7
:1049D00008950E94E8240895089508950E94E72408
:1049E0000895CF930E94EC240E9479160E94ED2432
:1049F000C0E08C2F0E948315811105C0CF5FC730A6
:104A0000C1F7CF91089581E0FCCF85B7806885BF5D
:104A100085B7806885BF08951F921FB61F92112425
:104A20008F939F93AF93BF9380911503811113C010
:104A300080915C0390915D03A0915E03B0915F0350
:104A40004196A11DB11D80935C0390935D03A093DB
:104A50005E03B0935F03BF91AF919F918F911F90C1
:104A60001FBE1F90189580916403843031F10E941D
:104A700088081092150388E190E020E40FB6F894BE
:104A8000A895809360000FBE2093600083B7817F5C
:104A9000846083BF83B7816083BF7894889583B730
:104AA0008E7F83BF0FB6F894A895809160008861CF
:104AB00080936000109260000FBE08950E948F0CDA
:104AC0000E948F08089582E084BD93E095BD9AEF1F
:104AD00097BD80936E0008952FB7F89480915C0382
:104AE00090915D03A0915E03B0915F032FBF089585
:104AF0002FB7F89460915C0370915D0380915E0321
:104B000090915F032FBF08959C014FB7F894809157
:104B10005C0390915D03A0915E03B0915F034FBF72
:104B2000821B930B089578941F921FB61F92112435
:104B30008F939F93AF93BF9380915C0390915D039C
:104B4000A0915E03B0915F030196A11DB11D8093FA
:104B50005C0390935D03A0935E03B0935F03BF91EA
:104B6000AF919F918F911F901FBE1F90189587E75F
:104B700097E7909301088093000888E19AE00FB6C8
:104B8000F894A895809360000FBE90936000FFCFCB
:104B900088E19AE00FB6F894A895809360000FBE64
:104BA00090936000FFCF8091240308950895CF93E0
:104BB000DF93EC0181E08093E9008FEF9091E800B2
:104BC000815095FD06C095ED9A95F1F70000811191
:104BD000F5CF8091E80085FF14C050E040E068E028
:104BE00070E0CE010E94A8288091E8008E77809323
:104BF000E80088E0FE01ACE1B3E001900D928A95F7
:104C0000E1F7DF91CF9108958093180370931A0311
:104C10006093190380916403843001F582E08093EE
:104C2000E9008FEF9091E800815095FD06C095ED69
:104C30009A95F1F700008111F5CF8091E80085FF8A
:104C40000DC050E040E063E070E088E193E00E9436
:104C5000A8288091E8008E778093E8000895BC0131
:104C600084E00E9404260895BC0183E00E9404268B
:104C70000895089588E39CE00E94DE068091630316
:104C8000811109C00E94382A0E94952A8091E20071
:104C900084608093E200089584E39CE00E94DE0635
:104CA00010926303089580E39CE00E94DE060E9458
:104CB000DE2408958CE29CE00E94DE066091600391
:104CC00081E0611101C080E00E94D524089588E24E
:104CD0009CE00E94DE069091640381E0943009F02C
:104CE00080E0609160030E94DB2408952091170307
:104CF0002F5F822F62E30E942E2D992319F02093BB
:104D0000170308951092170380911B038823F1F075
:104D1000809164038430C1F49091E9009F702091E8
:104D2000EC00822F817020FD80E8892B93E0909326
:104D3000E9009091EB0090FF04C09091EE0097FD88
:104D400008C08F708093E90010921B0308951092A1
:104D5000F1009091E80095FDFACF9091E80090FF66
:104D6000F0CF9091E8009E779093E800EACF42E080
:104D700061EC81E00E94B42942E261EC82E00E9491
:104D8000B42942E261EC83E00E94B429909164036B
:104D900081E0943009F080E0609160030E94CB24B0
:104DA000089580916603833009F461C030F4813046
:104DB000D1F1823009F49EC008958A3009F48AC086
:104DC0008B3009F46FC0893009F050C080916503C1
:104DD000813209F04BC08091690390916A03029778
:104DE00008F044C08091E800877F8093E8008091BC
:104DF000E80082FF37C09091F3008091F2000297A3
:104E000031F48091F100813011F0863021F48091ED
:104E1000F100809324038091E8008B778093E80071
:104E20000E94E82923C080916503813AF9F48091BA
:104E3000E800877F8093E8008091690390916A037E
:104E4000892B61F468E08CE193E070E00E94F72820
:104E50008091E8008B778093E800089560E090E00F
:104E600080E0F3CF809164038111C1CF08958091D8
:104E70006503813AD9F78091690390916A03892B80
:104E8000A9F78091E800877F8093E8008091E8008F
:104E900080FFFCCF809121018093F1008091E80098
:104EA0008E77BCCF80916503813201F780916903D1
:104EB00090916A03892BD1F68091E800877F8093D7
:104EC000E8000E94E82980916703809321010E94F5
:104ED0008F0C089580916503813241F68091E8003E
:104EE000877F8093E8000E94E8298091680380937F
:104EF0002503089580916503813A09F0B7CF809129
:104F0000E800877F8093E8008091E80080FFFCCF75
:104F100080912503C1CF9FB7F89410921B039FBFC8
:104F200090916403943009F048C02091E9002F70FB
:104F30003091EC00932F917030FD90E8922B23E09C
:104F40002093E9002091EB0020FF34C02091EE0077
:104F500027FF30C020911603222321F02091E80082
:104F600025FF28C01092160326E03091E80035FF97
:104F700014C08093F1008091E80085FD27C08091E6
:104F8000E80080FFFCCF8091E8008E778093E800F6
:104F90009F709093E90080E008953091640334306D
:104FA00049F43091EB0035FD05C0215041F481E01A
:104FB000809316039F709093E9008FEF0895EFE9B7
:104FC000FFE03197F1F700C00000CFCF8FB7F89422
:104FD00021E020931B038FBFDBCF84B7877F84BF83
:104FE0000FB6F894A8958091600088618093600066
:104FF000109260000FBE80E890E00FB6F8948093A6
:105000006100909361000FBE0E94E42408950E9405
:10501000382A0E94952AE2EEF0E080818460808345
:1050200078940E94132D089585E191E00E94F02369
:10503000089580916403853051F484E29CE00E94DD
:10504000DE0680916403853019F00E945E25089584
:105050000E94332580916203882399F30E94F124F2
:10506000882379F30E9492280E948F0CEACF08953A
:105070000E943B280895292F33272330310521F141
:1050800068F42130310509F443C02230310509F4B8
:1050900044C090E080E030E020E026C021323105BD
:1050A00051F122323105A9F76330710590F7FB0108
:1050B000EE0FFF1FE659FD4F2081318169597D4F69
:1050C000FB01808190E010C099278130910581F02B
:1050D000009729F00297E9F6ECE3FCE002C0E0E675
:1050E000FCE0849190E09F01FA01318320830895D0
:1050F000E2E5FCE0F6CF6330710558F6660F771FE6
:10510000FB01E059FD4F2081318189E090E0ECCF37
:1051100082E190E02FEB3CE0E7CF8BE590E024E6E6
:105120003CE0E2CF80E189BD82E189BD09B400FEA7
:10513000FDCF8091D8008F7D8093D8008091E000D2
:1051400082608093E0008091E00081FDFCCF0895B3
:10515000AF92BF92CF92DF92FF920F931F93CF93A4
:10516000DF936C01EB018A010E94072AF82E81115E
:1051700023C00115110539F0F80180819181C81B08
:10518000D90BC80ED91EB12CA12C2097A9F0809163
:10519000E80085FD22C08091E8008E778093E800CA
:1051A00001151105A1F0F80180819181A80EB91EA9
:1051B000B182A08285E0F82E8F2DDF91CF911F91D3
:1051C0000F91FF90DF90CF90BF90AF9008950E9415
:1051D000072A8823D1F2F82EEFCFF60181916F01D3
:1051E0008093F1002197FFEFAF1ABF0ACECFFC01E9
:1051F00080916B0390916C0386179707A0F061155F
:10520000710529F49091E8009E779093E80090E072
:105210006115710551F4911108C08091E80082FF79
:1052200034C080E00895BC01F2CF809164038823EC
:10523000C1F18530C1F18091E80083FD30C08091DB
:10524000E80082FDEACF8091E80080FFE1CF809105
:10525000F3002091F200382F6115710519F0283004
:10526000310558F091E02830310509F090E02091A7
:10527000E8002E772093E800CBCF81918093F10056
:10528000615071092F5F3F4FE7CF809164038823FE
:1052900041F0853041F08091E80083FFBECF81E08E
:1052A000089582E0089583E00895FC0180916B03E6
:1052B00090916C0386179707A0F06115710529F48A
:1052C0008091E8008E778093E80090E06115710589
:1052D00051F4911108C08091E80082FF35C080E050
:1052E0000895BC01F2CF809164038823C9F1853011
:1052F000C9F18091E80083FD31C08091E80082FD12
:10530000EACF8091E80080FFE1CF8091F300209107
:10531000F200382F6115710519F02830310558F069
:1053200091E02830310509F090E08091E8008E7717
:105330008093E800CBCF84918093F1003196615047
:1053400071092F5F3F4FE6CF80916403882341F0BE
:10535000853041F08091E80083FFBDCF81E0089562
:1053600082E0089583E00895982F973028F08F7099
:105370008093E90081E008959093E900242F762F2F
:1053800050E0981731F07091EC002091ED005091B1
:10539000F00021FD02C09F5FE8CF3091EB003E7F1F
:1053A0003093EB003091ED003D7F3093ED00309174
:1053B000EB0031603093EB007093EC002093ED0034
:1053C0005093F0002091EE0027FDE5CF80E0089596
:1053D0008091650387FF13C08091E80082FF06C0BB
:1053E0008091E8008B778093E80004C0809164038B
:1053F0008111F2CF0895809164038823D9F38091BD
:10540000E80080FFF8CF8091E8008E77ECCF209104
:10541000E4003091E50095E6A9012091EC00822F8F
:10542000817020FF06C08091E80080FF06C080E008
:1054300008952091E80022FD1AC08091640388231A
:1054400089F0853089F08091EB0085FD0FC02091B7
:10545000E4003091E50042175307F9F29150E1F66C
:1054600084E0089582E0089583E0089581E008953E
:105470000E94A72A0E94AF2AE0EEF0E080818160BE
:105480008083E8EDF0E080818F77808319BCA7ED01
:10549000B0E08C918E7F8C9380818F7E8083109280
:1054A000630308950F931F93CF93DF930E94A72A5E
:1054B0000E94AF2AC8EDD0E088818F7788838881E9
:1054C0008068888388818F7D888319BC10926403EB
:1054D00010926003109262031092610300EE10E0DC
:1054E000F80180818B7F808388818160888342E09E
:1054F00060E080E00E94B429E1EEF0E080818E7FE0
:105500008083E2EEF0E0808181608083808188602A
:105510008083F80180818E7F808388818061888389
:10552000DF91CF911F910F910895E8EDF0E0808118
:105530008F7E8083E7EDF0E080818160808384E06E
:1055400082BF81E0809363030E94522A0895E8EDB0
:10555000F0E080818E7F80831092E20008951092A7
:10556000DA001092E10008951F920F920FB60F9289
:1055700011242F933F934F935F936F937F938F9358
:105580009F93AF93BF93EF93FF938091E10082FFCE
:105590000BC08091E20082FF07C08091E1008B7F09
:1055A0008093E1000E9476268091DA0080FF19C086
:1055B0008091D80080FF15C08091DA008E7F8093A3
:1055C000DA008091D90080FF96C080E189BD82E138
:1055D00089BD09B400FEFDCF81E0809364030E9481
:1055E0003A268091E10080FF19C08091E20080FF9F
:1055F00015C08091E2008E7F8093E2008091E200EE
:1056000080618093E2008091D80080628093D8000E
:1056100019BC85E0809364030E945A268091E100C2
:1056200084FF2BC08091E20084FF27C080E189BD08
:1056300082E189BD89B5982F917080FFFBCF809161
:10564000D8008F7D8093D8008091E1008F7E809379
:10565000E1008091E2008F7E8093E2008091E20081
:1056600081608093E20080916003882309F449C03F
:1056700084E0809364030E9467268091E10083FFA9
:1056800029C08091E20083FF25C08091E100877FDF
:105690008093E10082E08093640310926003809124
:1056A000E1008E7F8093E1008091E2008E7F809305
:1056B000E2008091E20080618093E20042E060E0DD
:1056C00080E00E94B4298091F00088608093F0000F
:1056D0000E945326FF91EF91BF91AF919F918F91BF
:1056E0007F916F915F914F913F912F910F900FBEDE
:1056F0000F901F90189519BC109264030E944C26BD
:1057000070CF8091E30087FD93E090936403B3CF63
:105710001F920F920FB60F9211242F933F934F9326
:105720005F936F937F938F939F93AF93BF93CF9329
:10573000DF93EF93FF93D091E900DF708091EC004D
:10574000C82FC17080FDC0E81092E9008091F00080
:10575000877F8093F00078940E94CC2B1092E90010
:105760008091F00088608093F000CD2BCF70C093C3
:10577000E900FF91EF91DF91CF91BF91AF919F91A0
:105780008F917F916F915F914F913F912F910F90EA
:105790000FBE0F901F901895AAE2B0E0E2EDFBE279
:1057A0000C94D82D85E693E02091F100FC01219323
:1057B000CF01F3E08D369F07B9F70E94D126809183
:1057C000E80083FF1EC180916503909166039A30C3
:1057D00008F017C1E92FF0E0E758F14D0C94922D35
:1057E000803899F0823809F00CC1809169038F707C
:1057F000873008F006C18093E9008091EB0085FBBB
:10580000882780F91092E90006C080916103909189
:105810006203911182609091E800977F9093E80075
:105820008093F1001092F1008091E8008E77E5C03E
:10583000882309F4D3C0823009F0E3C08091670364
:105840008111D6C0809169038F702FEF280F263009
:1058500008F0D7C08093E9002091EB0020FFC8C07A
:10586000933031F48091EB0080628093EB00C0C0F4
:105870009091EB0090619093EB0021E030E001C04B
:10588000220F8A95EAF72093EA001092EA008091AD
:10589000EB008860EACF8111B4C0109167031F77D5
:1058A0008091E3008078812B8093E3008091E80071
:1058B000877F8093E8000E94E8298091E80080FFBC
:1058C000FCCF8091E30080688093E30082E01111B7
:1058D00083E08093640395C08058823008F091C0C3
:1058E00080916703909168038C3D23E09207A1F5B6
:1058F00083E08A838AE289834FB7F894DE011396A6
:1059000020E03EE051E2E32FF0E050935700E491B5
:1059100020FF03C0E295EF703F5FEF708E2F90E0A5
:10592000EA30C0F0C7968D939D932F5F243159F7CD
:105930004FBF8091E800877F8093E8006AE270E0C3
:10594000CE0101960E94F7288091E8008B77809322
:10595000E80057C0C096E7CF6091690370916A0371
:10596000AE014F5F5F4F0E943828BC01892B09F4BC
:1059700048C09091E800977F9093E80089819A81D0
:105980000E945529E1CF8038E1F58091E800877FBA
:105990008093E800809160038093F10045CF8111EE
:1059A00030C090916703923060F58091E800877F66
:1059B0008093E800909360030E94E829809160033F
:1059C000882311F084E005C08091E30087FDFACFC1
:1059D00081E0809364030E94B72613C0809167031F
:1059E000813079F481E0933009F080E080936203A4
:1059F0001092E9008091E800877F8093E8000E9480
:105A0000E8298091E80083FF0AC08091E800877F41
:105A10008093E8008091EB0080628093EB00AA966F
:105A2000E3E00C94F42DCF93809164038823A1F0DC
:105A3000C091E900CF709091EC00892F817090FDAA
:105A400080E8C82B1092E9008091E80083FD0E9455
:105A5000CC2BCF70C093E900CF910895991B79E0CA
:105A600004C0991F961708F0961B881F7A95C9F7EE
:105A70008095089587FB082E062687FD819567FD92
:105A800061950E942E2D0EF4919507FC8195089545
:105A9000AA1BBB1B51E107C0AA1FBB1FA617B70754
:105AA00010F0A61BB70B881F991F5A95A9F7809570
:105AB0009095BC01CD01089597FB072E16F4009434
:105AC00007D077FD09D00E94482D07FC05D03EF491
:105AD000909581959F4F0895709561957F4F08959A
