:100000000C9476050C9493050C9493050C9493052D
:100010000C9493050C9493050C9493050C94930500
:100020000C9493050C9493050C9442260C9416277B
:100030000C9487200C9493050C9493050C949305D1
:100040000C9493050C9493050C9493050C949305D0
:100050000C9493050C940E210C9493050C94930529
:100060000C9493050C9493050C9493050C949305B0
:100070000C9493050C9493050C9493050C949305A0
:100080000C9493050C9493050C9493050C94930590
:100090000C9493050C9493050C9493050C94930580
:1000A0000C9493050C9493050C94930500570157F9
:1000B00044454255473A2064697361626C65642E19
:1000C0000A0044454255473A20656E61626C65649A
:1000D0002E0A000A0025303258006C65645F746196
:1000E000736B3A20004F6E6573686F743A206163DA
:1000F000746976653A2025640A000A002530386262
:10010000003A200025303258000A722F6320303127
:100110003233343536370A007267626C6967687447
:100120002073657420687376205B4E4F45455052AE
:100130004F4D5D3A2025752C25752C25750A0072CA
:1001400067626C69676874207365742068737620D1
:100150005B454550524F4D5D3A2025752C25752C39
:1001600025750A007267626C696768742064697338
:1001700061626C65205B454550524F4D5D3A20727F
:1001800067626C696768745F636F6E6669672E6526
:100190006E61626C65203D2025750A007267626C95
:1001A0006967687420656E61626C65205B454550C7
:1001B000524F4D5D3A207267626C696768745F6385
:1001C0006F6E6669672E656E61626C65203D2025E5
:1001D000750A007267626C6967687420746F67677C
:1001E0006C65205B454550524F4D5D3A2072676209
:1001F0006C696768745F636F6E6669672E656E61B0
:10020000626C65203D2025750A007267626C696723
:100210006874206D6F6465205B4E4F454550524FAA
:100220004D5D3A2025750A007267626C69676874D3
:10023000206D6F6465205B454550524F4D5D3A20FF
:1002400025750A007267626C696768745F696E6918
:1002500074207267626C696768745F636F6E666949
:10026000672E6D6F6465203D20302E2057726974B3
:10027000652064656661756C742076616C75657364
:1002800020746F20454550524F4D2E0A0072676210
:100290006C696768745F696E6974206565636F6E09
:1002A000666967206973206E6F7420656E61626C89
:1002B00065642E0A007267626C696768745F696EB4
:1002C0006974207374617274210A007267626C69C8
:1002D0006768745F696E69742063616C6C65642E15
:1002E0000A007267626C696768745F636F6E666943
:1002F000672E7370656564203D2025640A0072676F
:10030000626C696768745F636F6E6669672E766199
:100310006C203D2025640A007267626C696768740E
:100320005F636F6E6669672E736174203D2025647C
:100330000A007267626C696768745F636F6E6669F2
:10034000672E687565203D2025640A007267686C19
:10035000696768745F636F6E6669672E6D6F646549
:10036000203D2025640A007267626C696768745FCB
:10037000636F6E6669672E656E61626C65203D20F5
:1003800025640A007267626C696768745F636F6EE8
:1003900066696720454550524F4D3A0A00000101F9
:1003A0000101010101010102020202020202020234
:1003B0000303030303030303040404040404040504
:1003C00005050505060606060607070707070808C8
:1003D0000808090909090A0A0A0B0B0B0C0C0C0D79
:1003E0000D0D0E0E0E0F0F0F101011111112121312
:1003F000131414151516161717181819191A1A1B8D
:100400001B1C1D1D1E1E1F202021222223242425EB
:100410002626272829292A2B2C2D2D2E2F30313224
:1004200032333435363738393A3B3C3D3E3F404134
:1004300042434445464748494A4C4D4E4F5051531C
:1004400054555658595A5B5D5E5F616264656668D3
:10045000696B6C6D6F7072737577787A7B7D7E8057
:1004600082838587888A8C8E8F91939596989A9CA3
:100470009EA0A2A3A5A7A9ABADAFB1B3B5B7BABCB7
:10048000BEC0C2C4C6C9CBCDCFD1D4D6D8DBDDDF88
:10049000E2E4E7E9EBEEF0F3F5F8FAFDFF3F0043A5
:1004A0003E20004C25640A000A092D205374617413
:1004B0007573202D0A686F73745F6B6579626F6165
:1004C00072645F6C65647328293A20253032580ABB
:1004D0006B6579626F6172645F70726F746F636F66
:1004E0006C3A20253032580A6B6579626F6172640C
:1004F0005F69646C653A20253032580A6B65796D06
:1005000061705F636F6E6669672E6E6B726F3A2003
:10051000253032580A74696D65725F7265616433A3
:100520003228293A202530386C580A002573000AF1
:10053000092D20436F6E736F6C65202D0A45534360
:100540002F713A09717569740A000A092D204D61ED
:10055000676963202D0A443A094465627567204D36
:1005600065737361676520546F67676C650A583AF5
:10057000094D6174726978204465627567204D6F1A
:10058000646520546F67676C65202D2053686F7712
:10059000206B65797072657373657320696E206D69
:1005A000617472697820677269640A4B3A094B6515
:1005B00079626F61726420446562756720546F6769
:1005C000676C65202D2053686F77206B657970729A
:1005D000657373207265706F72740A4D3A094465D1
:1005E000627567204D6F75736520546F67676C6522
:1005F0000A563A0956657273696F6E0A533A09537F
:1006000074617475730A433A09416374697661745D
:100610006520436F6E736F6C65204D6F64650A468D
:10062000312D4631303A0953776974636820746F0D
:10063000204C6179657220302D39202846313020D8
:100640003D204C30290A302D393A095377697463BB
:100650006820746F204C6179657220302D390A470B
:10066000524156453A0953776974636820746F2084
:100670004C6179657220302028616C7465726E61FE
:100680007465290A423A094A756D7020746F2042D8
:100690006F6F746C6F616465720A4553433A094A1F
:1006A000756D7020746F20426F6F746C6F6164653C
:1006B000722028616C7465726E617465290A453A0E
:1006C000095072696E7420454550524F4D20536554
:1006D0007474696E67730A4241434B5350414345FA
:1006E0003A09436C65617220454550524F4D0A4EA0
:1006F0003A094E4B524F20546F67676C650A006B86
:1007000065796D61705F636F6E6669672E72617780
:100710003A20253032580A2E737761705F636F6E0E
:1007200074726F6C5F636170736C6F636B3A2025DA
:10073000750A2E636170736C6F636B5F746F5F63B8
:100740006F6E74726F6C3A2025750A2E7377617024
:100750005F6C63746C5F6C6775693A2025750A2E4F
:10076000737761705F7263746C5F726775693A204A
:1007700025750A2E737761705F6C616C745F6C67AE
:1007800075693A2025750A2E737761705F72616C06
:10079000745F726775693A2025750A2E6E6F5F6700
:1007A00075693A2025750A2E737761705F677261EB
:1007B00076655F6573633A2025750A2E73776170DD
:1007C0005F6261636B736C6173685F6261636B73BB
:1007D000706163653A2025750A2E6E6B726F3A2040
:1007E00025750A2E737761705F6573636170655F4D
:1007F000636170736C6F636B3A2025750A006465E2
:100800006275675F636F6E6669672E7261773A2003
:10081000253032580A2E656E61626C653A20257566
:100820000A2E6D61747269783A2025750A2E6B65FF
:1008300079626F6172643A2025750A2E6D6F757347
:10084000653A2025750A006565636F6E6669673ACB
:100850000A64656661756C745F6C617965723A20D3
:1008600025750A003F004E4B524F3A206F66660ACC
:10087000004E4B524F3A206F6E0A000A6D6F75732F
:10088000653A206F66660A000A6D6F7573653A20D7
:100890006F6E0A000A6B6579626F6172643A206F4D
:1008A00066660A000A6B6579626F6172643A206F4E
:1008B0006E0A000A6D61747269783A206F66660A82
:1008C000000A6D61747269783A206F6E0A000A64DA
:1008D000656275673A206F66660A000A646562752C
:1008E000673A206F6E0A000A0A4A756D70696E6772
:1008F00020746F20626F6F746C6F616465722E2E4E
:100900002E2000433E2000436C656172696E6720B3
:10091000454550524F4D0A000A00253032582000FC
:100920006B6579626F6172645F7265706F72743A41
:10093000200064656C5F6B65795F6269743A20635F
:10094000616E27742064656C3A20253032580A00A5
:100950006164645F6B65795F6269743A2063616E9C
:100960002774206164643A20253032580A005B7392
:100970005D005B575D005B535D005B525D005B4457
:100980005D005B435D0010033200250020004D0038
:1009900069006C006B0000001203530070006100DE
:1009A000630065006D0061006E000000040309042F
:1009B00009025B00030100A0FA0904000001030121
:1009C00001000921110100012240000705810308EF
:1009D00000010904010001030000000921110100C8
:1009E00001226D00070582032000010904020002B4
:1009F00003000000092111010001222200070583E4
:100A0000032000010705030320000112010002007A
:100A1000000008425325320100010200010631FFA7
:100A20000974A1010975150026FF0095207508813C
:100A3000020976150026FF00952075089102C00571
:100A4000010980A101850319012AB700150126B704
:100A500000950175108100C0050C0901A1018504F4
:100A600019012AA002150126A00295017510810026
:100A7000C005010906A1018506050719E029E7154A
:100A80000025019508750181020507190029EF1558
:100A900000250195F07501810205081901290595C8
:100AA0000575019102950175039101C005010906C3
:100AB000A101050719E029E7150025019508750131
:100AC00081029501750881010507190029FF1500AC
:100AD00026FF00950675088100050819012905956E
:100AE0000575019102950175039101C011241FBE86
:100AF000CFEFDAE0DEBFCDBF12E0A0E0B1E0ECE97D
:100B0000F3E502C005900D92AC35B107D9F723E0AB
:100B1000ACE5B2E001C01D92A335B207E1F70E9437
:100B200075150C9477290C940000FF93EF93E091D6
:100B30005C02F0915D02309709F00995EF91FF9109
:100B40000895FC018591803011F0EFDFFBCF08950F
:100B5000FF27E0E230E247FF0CC0419597FF09C054
:100B6000EDE26095709580959095611D711D811DD8
:100B7000911D27FF02C0219530E350E2AA27660F9E
:100B8000771F881F991FAA1FA41710F0A41B639535
:100B90005A95A9F7AA3008F0A95FA05DAF93F39525
:100BA000611571058105910541F7ED3211F4EF935F
:100BB000F395F21718F43F93F395FBCF8F91B5DFC0
:100BC000FA95E1F70895E991F9918591803021F046
:100BD000853219F0AADFF9CF089520E0E894559105
:100BE0005532C1F3503311F4689455915A3348F497
:100BF000505390F3220F022E220F220F200D250FAB
:100C0000F4CF0EF4219589919991533619F3533706
:100C100029F1533559F1BC0188279927E8945C36AE
:100C200021F48991999168945591543639F446EF9D
:100C30007EF077FF0DC08FEF9FEF0AC055374AE077
:100C400039F0583540E121F0523642E009F008957C
:100C5000FF93EF937DDFEF91FF91B7CFFF93EF937A
:100C6000FC0181918030B9F360DFFBCFFF93EF93FC
:100C700068DFF1CFDF93CF93CDB7DEB72596A3DF43
:100C8000CF91DF910895CF93DF93EC018A8181307A
:100C900051F489E198E00E94F906CE010E94C01E3D
:100CA000DF91CF910895823019F489E19AE0F3CF72
:100CB0008330B1F78BE298E0EECFCF93DF93EC0176
:100CC0008A81813051F486E098E00E94F906CE01D5
:100CD0000E94C01EDF91CF910895823019F48BE1FC
:100CE00098E0F3CF8330B1F78BE20E942909EFCF70
:100CF0009C013A9521153F4150F5FC01EE27F1701A
:100D0000BC0166277270AC01442754709C012227F5
:100D1000387094FF0EC080E1EF2B09F480E0672B60
:100D200009F08062452B09F08064232B89F08068EC
:100D3000089581E0EF2B09F480E0672B09F08260D1
:100D4000452B09F08460232B19F08860089580E01A
:100D50000895CF93DF93EB010E947806FE01099579
:100D6000DF91CF910895CF93DF93EC01805E9109DD
:100D7000089720F06FE67BE0209711F462E379E0BA
:100D8000CE010E94A9068C2F0E949E08DF91CF9170
:100D90000895CF93DF93EC010E94E708CE01805EB7
:100DA0009109089720F066E77BE0209711F469E34A
:100DB00079E0CE010E94A906DF91CF9108950F93AB
:100DC0001F93CF93DF938C01EB010E94B306209712
:100DD00041F4C8010E94C906DF91CF911F910F9184
:100DE00008958FE99FE00197F1F700C00000219777
:100DF000EECF70E060E08933910511F460E570E0BA
:100E00000E94DF06089581E0089581E008950E9420
:100E10000507089508950E940A070895A5E0B0E027
:100E2000E4E1F7E00C94F12849835A83309163029E
:100E300089819A81311119C0662399F0222389F0A2
:100E40000E94DE0C182F682F89819A810E94C40CA1
:100E500069817A81812F0E9446132596E3E00C94E4
:100E60000D290E94D10C182FF3CF0E94DE0C69814E
:100E70007A81F1CFFC01262F4081518162817381FB
:100E800084810E940E07089581E00895CF93DF9337
:100E9000EC0160E00E943A07BE010E940B07DF915F
:100EA000CF9108950E94641408950E9468140895D3
:100EB00008950E948F0B0E9458072FEF84E39CE057
:100EC000215080409040E1F700C0000008950E944A
:100ED00059070E94322108950E9459070E94432118
:100EE00008950F931F93CF93DF938C0161E00E94CD
:100EF0003A07EC01B8010E94241EB801CE010E94FD
:100F00000707811106C080E0DF91CF911F910F91FB
:100F10000895B801CE010E94451E8823A1F3B801AF
:100F2000CE010E94931D882371F3B801CE010E9467
:100F3000E519882341F3B801CE010E94051D8823DD
:100F400011F3B801CE010E9440198823E1F2F801A3
:100F500082818823D9F0CB35FDE5DF07A9F170F454
:100F6000C130ECE5DE07B1F0CF3DFCE5DF0721F154
:100F7000C115DC4559F40E946707C5CFCD35EDE5B5
:100F8000DE07F9F020F1C83ADD45C1F0C8010E9442
:100F90000307BACF9091F402892F8E7F90FF816072
:100FA0008093F40280FF05C082EC90E00E94A105CE
:100FB000AACF80EB90E0FACF0E94A7110E946C07A5
:100FC000A2CF0E94EC10E2CF0E94F610DFCF0E9469
:100FD000FA10DCCF0E9463200E941F0808950E942F
:100FE00023080E9468200895829590E09C01220FBA
:100FF000331F220F331F2C7C9595879595958795E8
:101000008373282B30E0C901880F991F8A7A3595A0
:1010100027952575822B089508950E940C08089540
:1010200081E008950E94100808950895CF93C82F75
:101030000E940D088C2F0E941208CF91089580E025
:101040000E94160808950E94D11E0E941608089555
:10105000CF930E94D11EC82F80915E028C1789F118
:10106000C0935E020E94F32060935F02709360025F
:1010700080936102909362028091F40282FF1EC00D
:1010800080FF1CC08AED90E00E94A1058091F402CF
:1010900080FF14C01F92CF9385ED90E09F938F93B4
:1010A0000E943A068091F4020F900F900F900F90DB
:1010B00080FF04C083ED90E00E94A1058C2F0E9468
:1010C0001608CF910895ABE0B0E0E9E6F8E00C94A3
:1010D000F2284F83588769877A878B8761110E942E
:1010E00024101E821D8285E0FE013796DE011196D6
:1010F00001900D928A95E1F78C819D81892B61F495
:1011000049815A816B817C818D819E810E944A0F29
:101110002B96E2E00C940E2989819A8189238F3FD6
:1011200079F3CE0101960E9444078111E9CFF0CFF7
:10113000FC01808191810E94100D0895CF93C82FEA
:101140008823E1F08CEF8C0F813AD0F48C2F0E9431
:10115000C21C811113C06C2F80911C0190911D0144
:101160000E94711F882329F08C2F0E94E10F0E949A
:1011700045108C2F0E94D90F0E944510CF910895E1
:1011800080E28C0F883048F4C77081E001C0880F7E
:10119000CA95EAF70E940410EFCFEBE5EC0FE330BD
:1011A00040F4F0E0E25AFE4F808190E00E94311F4F
:1011B000E5CFC85AC73110F7EC2FF0E0EE0FFF1F54
:1011C000E05DFE4F808191810E94471FD7CF882329
:1011D00039F19CEF980F913A28F40E94E10F0E9498
:1011E0004510089590E2980F983050F4877091E080
:1011F00001C0990F8A95EAF7892F0E940A10EFCF54
:101200009BE5980F933028F490E080E00E94311F16
:101210000895885A873120F490E080E00E94471FAB
:1012200008951F93CF93DF93182FEB010E949E0820
:10123000209739F4812F0E94E708DF91CF911F9109
:1012400008958FE99FE00197F1F700C00000219712
:10125000EFCF70E060E0893311F460E570E00E9448
:1012600011090895882321F00E9404100E9445105E
:101270000895882321F00E940A100E9445100895C5
:10128000B0E0A0E0E6E4F9E00C94EB286C01D62F86
:10129000C72FFC011281F580F2949FE0F9220E9491
:1012A000FA0FE82E8823B9F0E12E1123A1F08C2F3C
:1012B000807F803421F080E28D0F8830D0F08091E3
:1012C000350382FF16C082E00E94A8100E94FA0F28
:1012D00091E0E82EE926BC2EB2948FE0B822FBE024
:1012E000FB1508F468C0EB2DF0E0E758F64D0C94C0
:1012F000DC28E12CF0CF0C2F0F70C07F11F002958D
:10130000007F112399F0002359F080E28D0F88307F
:1013100010F0D11107C0802F0E9404100E944510C8
:101320008D2F41C0802F0E941710F8CF8D2F0E9463
:10133000E708002309F43FC080E28D0F883010F0E9
:10134000D11104C0802F0E940A1003C0802F0E9478
:101350001D100E9445102FC00C2F0F70C07FC0328F
:1013600011F00295007FDD2381F0D13009F463C0D4
:10137000112309F46DC0FF2009F463C0F6018581D3
:1013800080FFCECF8F7085835CC08091350382FD56
:1013900033C0112359F0002329F0802F0E9404103C
:1013A0000E94451080E00E949E0805C080E00E94D7
:1013B000E7080111C7CFEB2DE850FF0B349720F45D
:1013C0000E94D11E0E941608EE2089F00E94F60F9E
:1013D00080FD0DC0F60112820E94F00F0E94220CC7
:1013E000C6010E94450B0E94F00F0E94320CCDB73F
:1013F000DEB7E9E00C940729112389F0F11006C04B
:101400000E942710802B0E943209D5CF21E0F212D2
:10141000F7CF0E942710802B0E942E10CCCFF11006
:1014200006C00E943B10802F0E943909C4CF31E0D2
:10143000F31609F2F6CF112331F085E08F1508F489
:10144000BACF802FE0CF94E09F1508F4B4CFEBCF54
:10145000FF2049F3D93349F4FFEF27EE33E0F15091
:1014600020403040E1F700C000008D2F0E94E708C7
:10147000A2CF8C2F86958695837069F0813009F014
:101480009ACF8D2F9C2F9370111102C090E080E0B5
:101490000E94471F90CF8D2F9C2F9370111102C077
:1014A00090E080E00E94311F86CF8C2F8370A1F5E1
:1014B000111181CF4D2F429546954770440F440F2F
:1014C0002D2F2F7030E0042E02C0220F331F0A94FC
:1014D000E2F790E080E0D4FF09C08FE090E002C026
:1014E000880F991F4A95E2F780959095C695C69505
:1014F000C370822B932BC23049F058F4C13019F0DD
:101500000E94F00B58CF0E94E70B55CF0E94F90BB9
:1015100052CF0E94E40B4FCF8695112311F08C2FF0
:101520008170882309F447CF4D2F42954695477027
:10153000440F440F2D2F2F7030E0042E02C0220FD5
:10154000331F0A94E2F790E080E0D4FF09C08FE0F7
:1015500090E002C0880F991F4A95E2F78095909518
:10156000C695C695C370822B932BC23049F058F4B0
:10157000C13019F00E945D0C1ECF0E94540C1BCF8D
:101580000E94660C18CF0E94080C15CFCF70112353
:1015900029F08C2F0E94220C8D2F35CF8D2F0E9489
:1015A00039098C2F0E94320C06CFD23F51F160F4E2
:1015B000D03FB9F0D13F81F0112309F449C0F110B7
:1015C000AFCE8C2F8F7121C0D33F11F1D43FA1F743
:1015D0008091350382FD26C08C2F8F71112311F36A
:1015E00014C0112349F084E08F1508F4E4CE8C2F49
:1015F0008F710E94440CDFCE95E09F1508F4DBCE7E
:10160000F6CF8C2F8F711111CDCF0E94220CD3CE2B
:10161000112329F08C2F8F710E94160CCCCE0E94C2
:10162000110CC9CE112349F0CF718C2F0E94220CCE
:1016300063E08C2F0E948A10BECE81E00E94A81029
:10164000E1E0EF1508F0B7CE82E00E94A810B3CE1B
:10165000F11000CF8C2F8F71A5CF0F931F93CF93D5
:10166000DF93EC01688179818A810E941B0D8C01D6
:101670000E946F0C0E94E30BB801CE010E9440094A
:10168000DF91CF911F910F910895CF93DF93EC01DC
:101690008B819C81892B29F08881998189238F3FB7
:1016A00051F4DF91CF910895CE010E942D0BCE0110
:1016B0000E944607F6CFCE010E9471078111F4CF38
:1016C0000E94FA0F882369F38A81882351F380915D
:1016D000350382FFE6CF82E00E94A810E2CF882384
:1016E00021F00E9417100E9445100895882321F0D0
:1016F0000E941D100E944510089590E080E00E9415
:10170000311F90E080E00E94471F0E9424100E9439
:10171000451008950E94E90F0E947D0B08950E94D4
:1017200011100E948A0B089592959F70963091F047
:1017300058F4925F9F70923058F4803F19F030F463
:10174000883E30F481E008959A5FF4CF843FD1F36E
:1017500080E00895883EB0F3813FD1F7F3CFFC01DC
:1017600083819481892B29F08081918189238F3F06
:1017700011F480E00895808191810E94100D0E94F3
:10178000940B0895A5E0B0E0E8ECFBE00C94F2289F
:101790002596E2E00C940E29A6E0B0E0E2EDFBE035
:1017A0000C94F2282696E2E00C940E2908950E94EB
:1017B000D60B08950E94D70B90936B0280936A0218
:1017C0000E947D0B089508950E94DA0B08952091E0
:1017D0006A0230916B02822B932B0E94DA0B0895E0
:1017E00020916A0230916B02822393230E94DA0BCC
:1017F000089520916A0230916B02822793270E94FC
:10180000DA0B08950E94D60B08950E94020C0895E9
:101810000E94050C90936902809368020E947D0BE0
:10182000089590E080E00E94080C089521E030E0E7
:10183000A90102C0440F551F8A95E2F7CA010E9410
:10184000080C089521E030E002C0220F331F8A9572
:10185000E2F78091680290916902822B932B0E949B
:10186000080C089521E030E002C0220F331F8A9552
:10187000E2F7209530958091680290916902822369
:1018800093230E94080C089521E030E002C0220F4B
:10189000331F8A95E2F7809168029091690282274E
:1018A00093270E94080C08952091680230916902E4
:1018B000822B932B0E94080C08952091680230918E
:1018C0006902822393230E94080C089520916802E4
:1018D00030916902822793270E94080C0895089589
:1018E000262F277091E001C0990F2A95EAF723E08F
:1018F000769567952A95E1F7660F771F660F771F34
:10190000FA01E60FF71F50E040E0682F70E0819188
:10191000DF0111979B01042E02C0369527950A948A
:10192000E2F7217021952827292328272C934F5F40
:101930005F4F4430510559F70895A82FA77023E051
:10194000969587952A95E1F7880F991F880F991F1B
:10195000FB01E80FF91F50E040E080E0219130E00A
:101960000A2E02C0369527950A94E2F72170332794
:10197000042E01C0220F0A94EAF7822B4F5F5F4FBB
:101980004430510559F70895282F862F923040F49E
:10199000211106C0692F70E044E652E00E94700CED
:1019A0000895923048F4811107C064E672E0892FEF
:1019B00090E00E949D0C089580E00895B0E0A0E0C2
:1019C000E4EEFCE00C94EB287C010091680210919D
:1019D000690280916A0290916B02082B192BCFE06B
:1019E000D0E0CC24C394D12CBC2EC6010C2E02C056
:1019F000880F991F0A94E2F780239123892B49F4D9
:101A0000219790F7B12C8B2DCDB7DEB7E9E00C9480
:101A10000729B7018C2F0E945A13019789F3F3CF3E
:101A2000CF93DF93EC010E94DE0CBE010E945A139B
:101A3000DF91CF9108951F93CF93DF93EB019091A6
:101A40006302992339F0CB010E94100DDF91CF91F1
:101A50001F910895882369F0CB010E94DE0C182F96
:101A6000682FCE010E94C40CBE01812F0E945A1320
:101A7000EDCFCB010E94D10C182FF6CF1F93CF933F
:101A8000DF93C0916C0216E080916D028C1304C04C
:101A9000DF91CF911F910895D0E01C9FF0011D9F11
:101AA000F00D1124E259FD4F408151816281738113
:101AB000848195810E94CC0B2196C770E5CF40911F
:101AC0009E0250919F026091A0027091A1028091AC
:101AD000A2029091A3020E94CC0B08951F93CF9372
:101AE000DF938091A302807F09F049C08091A0021A
:101AF000882309F444C080916C02C0916D0260910A
:101B00009E0270919F02A091A102B091A202D62FD5
:101B1000D72316E0C81799F190E0109711F0DF3F36
:101B200019F401968770F6CF189F9001199F300D18
:101B30001124F901E259FD4F41814713F2CF408151
:101B40004613EFCF42814111ECCF438154814A1BB0
:101B50005B0B483C510528F78091A3028F70806190
:101B60008093A302F901ED58FD4F80818F70806151
:101B700080838EE992E00E94450B0E943E0DDF912A
:101B8000CF911F910895A1E1B0E0E9ECFDE00C9444
:101B9000EA288C0185E0F801DE011D9601900D9286
:101BA0008A95E1F7F801E2808EE9C82E82E0D82E0E
:101BB0006091A1027091A2026115710509F44EC1F4
:101BC00090919E0220919F02892F82238F3F09F4DA
:101BD00045C140815181A380B480F090A002F501FD
:101BE000E61BF70BFF2009F4EAC08091A302382F0F
:101BF000307FE83CF10508F0A3C031116DC0FE2C28
:101C0000251316C0941314C0E11012C08F708061A8
:101C10008093A3020E945F0DC6010E94450B809134
:101C2000A302F80185838F2D6196EAE00C940629C2
:101C3000A114B10429F0842F85238F3F09F027C117
:101C400080E0F82FF170DF2E80FF3CC080916C02A5
:101C500020916D0236E0821315C04D875E878D8519
:101C60009E850E94100D292F22952F702230F0F0B2
:101C7000243018F59F70F1F0F8019581907FD1F430
:101C8000D12C1EC090E0389FF001399FF00D112437
:101C9000E259FD4F6181651306C06081641303C082
:101CA0006281E6120FC001968770D5CF9F7011F048
:101CB000882331F3805E883018F3C8010E94450BF9
:101CC000FD2CB1CFEE2009F4AECF8091A30281604C
:101CD0008093A302F12CA7CF251306C0941304C050
:101CE000F801EE2009F487C0C8010E94AF0B8823D9
:101CF00019F1EE2009F18091A302803270F0209159
:101D00009E0230919F0238872F831986BB86AA8650
:101D10008C87CE0107960E94450B86E0F801AEE95C
:101D2000B2E001900D928A95E1F70E946E0D0E943B
:101D30005F0DFF24F39477CFC8010E94450BF9CFC4
:101D4000311113C07A2DB98AA88A6E2D89890E9413
:101D5000C20B8EE992E00E94450B86E0F6011192DB
:101D60008A95E9F70E945F0DB5CF25130FC0941334
:101D70000DC0E1100BC0F8018583C8010E94450B1E
:101D800086E0F60111928A95E9F74DCFC8010E94CD
:101D9000AF0B882389F2EE2079F28091A302803282
:101DA00008F4BBCF20919E0230919F023A83298391
:101DB0001B82BD82AC828E83CE010196ACCFE83C03
:101DC000F10508F03EC0FE2CEE2009F4B5CF251336
:101DD0002AC0941328C08091A30280FD1BC0982FB5
:101DE000907FC1F0F8018583903F31F0982F907F6C
:101DF000905F8F70892B8583C8010E94450B86E018
:101E0000F801AEE9B2E001900D928A95E1F70E94E7
:101E10005F0D09CF86E0F801AEE9B2E001900D92C6
:101E20008A95E1F700CFC8010E94AF0B811175CFF1
:101E30008091A30281608093A302C8010E94450B98
:101E4000F2CE7A2DB98AA88A6E2D89890E94C20B9A
:101E500086E0F60111928A95E9F7D9CFEE2009F4D0
:101E60006BCFC8010E94AF0BF82E882309F464CF12
:101E700086E0F801AEE9B2E001900D928A95E1F7B3
:101E80008EE992E00E9498080E946E0DC0CF81E01A
:101E90008E25D7CEACE0B0E0E0E5FFE00C94F12871
:101EA0004F83588769877A878B879C87CE010796EF
:101EB0000E94C30D882369F08A859B85892B39F0A0
:101EC0004F815885842F85238F3F09F06BC016E022
:101ED0005FC086E0FE013796DE01119601900D92FB
:101EE0008A95E1F78A859B85892B89F38F8198856F
:101EF00089238F3F61F320916D0230E0C901019683
:101F00008770992740916C024817190671F40E9456
:101F10008F0B10926D0210926C0286E0EEE9F2E0F7
:101F2000DF011D928A95E9F7D2CF96E0929FD0010A
:101F3000939FB00D1124A259BD4FFE01319601901F
:101F40000D929A95E1F780936D020E943E0DBFCFEE
:101F5000819FC001112482599D4F0E94C30D882387
:101F6000E9F0E0916C021E9FF0011124E259FD4F4F
:101F70004081518162817381848195810E94CC0B63
:101F800080916C0290E001968770992780936C0293
:101F900080916C0290916D028913DACF2C96E3E068
:101FA0000C940D2969857A858B859C850E94CC0BC4
:101FB0008ECF682F80911C0190911D010E941320EB
:101FC0000895682F80911C0190911D010E9421208D
:101FD000089580911C0190911D010E942F20089569
:101FE0008091C40285958595859508958091C40258
:101FF000877008959091C402977081E009F480E0A1
:1020000008958091E70208959091E702892B8093CB
:10201000E702089580959091E70298239093E70254
:1020200008951092E70208958091E6020895909134
:10203000E602892B8093E602089580959091E6024E
:1020400098239093E60208951092E60208958091F5
:10205000C502089508950E942A10089590913503AD
:1020600092FF08C09091C502981721F08093C50295
:102070000E942B1008958091C502882329F01092A8
:10208000C50280E00E942B100895CF93DF93E0916A
:102090001C01F0911D018091E7028083E0911C01F9
:1020A000F0911D0180819091E602892B80839091AF
:1020B000C502992381F0E0911C01F0911D018081FE
:1020C000892B808380911C0190911D010E945D1FCE
:1020D00081110E943B10C0911C01D0911D0140E272
:1020E00050E064EA72E0CE010E941929892B59F070
:1020F00080E2FE01A4EAB2E001900D928A95E1F738
:10210000CE010E94DE1EDF91CF91089508950E94B6
:10211000861008959091350392FF11C098E0899F31
:1021200090011124622B6093C4020E94220C8091C2
:10213000C4028595859585950E94871008950E9413
:10214000220C08951092C40280E00E948710089526
:102150009091C402809589238093C402282F277010
:1021600091F4282F082E000C330B9217130659F008
:102170009091350392FF07C08595859585950E94BE
:10218000320C0E94A2100895CF93C82F809135037E
:1021900082FB992790F99C17E9F0C0FB82F98093A4
:1021A000350380913403909135030E94211182E020
:1021B0000E94A8108091F40280FF0CC01F92CF9360
:1021C00085EE90E09F938F930E943A060F900F90B8
:1021D0000F900F90CF9108958091350382FB88274F
:1021E00080F991E089270E94C410089581E00E943F
:1021F000C410089580E00E94C410089590E080E02B
:102200000E943D2921E0883E9E4F09F020E0822F68
:10221000089582E090E00E942F29089583E090E0E5
:102220000E942F290895CF9384E090E00E942F29E7
:10223000C82F82E290E00E942F29982F8C2FCF91F7
:102240000895CF93C92F682F84E090E00E9443291E
:102250006C2F82E290E00E944329CF910895AB0158
:10226000BC018FE090E00E9455290895AB01BC01AC
:1022700083E190E00E945529089560E070E0CB0171
:102280000E943611089560E070E0CB010E942F118A
:102290000E943D11089568EE7EEF90E080E00E947C
:1022A000612960E082E090E00E94432960E083E0E1
:1022B00090E00E94432910926B0210926A0260E043
:1022C00084E090E00E94432964E082E290E00E9472
:1022D000432960E085E090E00E94432960E086E0C9
:1022E00090E00E9443296FEF87E090E00E9443292D
:1022F00040E050E0BA0188E090E00E94552960E09B
:102300008DE090E00E94432940E050E0BA0188E16E
:1023100090E00E94552960E087E190E00E94432907
:1023200040E050E0BA018CE190E00E94552970E055
:1023300060E080E290E00E94612940E050E0BA0154
:1023400088E190E00E9455290E94431108950E945F
:102350004B110895682F8EE090E00E944329089564
:102360000E94F3206093F0027093F1028093F202D6
:102370009093F3026093EC027093ED028093EE026F
:102380009093EF020895089508950E94C41108954E
:1023900008950E94C811089589E193E20E94C71E22
:1023A0000E94C3110E94C511089581E008950E9402
:1023B000D5110895089508950E94DA110E94DB1145
:1023C00008950E9445140E94150808950E94DE2079
:1023D0000E94E3140E94E1110E94D7180E94C911C3
:1023E0000895AAE0B0E0E7EFF1E10C94ED280E9437
:1023F000F3141091EA0280E00E946B1418132DC0B0
:102400001091EB0281E00E946B14181326C00E9409
:10241000E7208C018091E8029091E90208171907E2
:10242000A1F08FEF89838A831B820E94E72081605D
:10243000782F9D838C8349815A816B818D810E9485
:1024400063081093E9020093E8020E94A01E0E9414
:1024500028082A96E7E00C9409298091F40281FD6E
:102460000E9471140E94D711D82E8AEEE82E82E0C5
:10247000F82E10E0812F0E946B14082FF701819134
:102480007F01081307C0113019F40E94B011DDCF8D
:1024900011E0F0CF802780FF13C0DD2089F01E827D
:1024A0001F83802F817088870E94E7208160782FAA
:1024B0009A8789874E815F8168858A850E94630833
:1024C000F70131970083DFCFCF93DF930E945F1333
:1024D000EC01811522E59207E8F5811531E59307B6
:1024E00008F0A3C0883E910510F5803E910570F577
:1024F000883A910570F4853A910508F078C08130EA
:10250000910521F1009711F1049700F5D0E0C0E0AA
:102510001DC08F3B9105D0F7C85AD0E0CC0FDD1F0E
:10252000CF59DE4F0990D881C02DD4640FC08115DA
:1025300040E5940708F066C0C11580E4D80708F0AC
:102540005EC0CE019A9581159F4100F7CE01DF91C3
:10255000CF910895811536E5930718F5811545E566
:10256000940708F07BC0C11584E5D80708F071C056
:102570009E01237033279C2F96959695C115D345C0
:1025800008F458C0C1E0D0E002C0CC0FDD1F2A958E
:10259000E2F730E2939FC0011124C82BD92BDA68EF
:1025A000D5CFC1158AE5D80778F4C11529E5D2073A
:1025B00008F05EC0C11538E5D30708F4A7CFDC2FBB
:1025C000CC27C06FD06AC2CFCE0190568115904201
:1025D00008F09CCF8D2F8F710E94011490E0982FEE
:1025E000882788279F719C012C2BE9013FC0C55A81
:1025F000D0E0C157DE4FC881D0E0D064A7CFDF70F4
:10260000D06AA4CF8370992721E030E002C0220F66
:10261000331F8A95E2F7C695C69580E2C89FE00110
:102620001124C22BD32BDD6891CFD82FCC27C16FBB
:10263000D06A8CCFC1E0D0E002C0CC0FDD1F2A955C
:10264000E2F720E2929FC0011124C82BD92BDC684D
:102650007DCFDC2FCC27C46FD06A78CF0E940114C5
:10266000C82FD0E0DC2FCC27CC27DF71D0626ECF13
:102670008C2F8F700E94011434E0D695C7953A953F
:10268000E1F7CF709C2FEC01D06960CF723078F405
:1026900061110DC0E82FF0E0EE0FFF1FE70FF11DF5
:1026A000EE0FFF1FE455FF4F85919491089580E050
:1026B00090E008950E9446130E94641208958238A3
:1026C0009105B9F1B0F48133910509F47DC048F466
:1026D0008932910509F46DC08A32910509F47BC0F5
:1026E00008958533910509F45FC08933910509F197
:1026F0000895833E9105D9F138F4803E910529F182
:10270000823E910579F10895863E9105D9F1873E83
:10271000910509F43EC0843E910541F520913503B1
:1027200021FF24C08091340384FD19C087EE90E01E
:10273000089520913403237009F05AC02091350385
:1027400023FF14C089E290E008952091340320FD16
:1027500038C03091350330FF09C024FF43C090E0FA
:1027600080E008952091340322FDF7CF0895209151
:10277000340322FD3AC03091350330FD39C024FFC7
:10278000F5CFEDCF2091340323FFF0CF24FDE7CF29
:10279000CDCF2091340323FD2EC03091350331FF7E
:1027A000EECF84EE90E008952091340325FFDECF34
:1027B000C9CF2091340325FD21C02091350323FF8B
:1027C000D5CF89E390E0D2CF2091340326FFCECF3E
:1027D0008AE290E008952091340326FFC7CF81E379
:1027E00090E0089583EE90E0089582EE90E00895E1
:1027F00080EE90E0089586EE90E0089585E390E005
:1028000008959091340392FF06C0282F2871283034
:10281000F9F4877F846093FF06C0282F2871283140
:10282000F1F4877E84612091350320FF06C0382FA4
:1028300038713830D9F4877F816021FF06C0282F96
:1028400028712831D1F4877E816194FD877E0895B7
:10285000282F24712430F9F68B7F8860DCCF282F55
:102860002471243101F78B7E8861DDCF382F3171DF
:10287000313019F78E7F8860E0CF282F2171213108
:1028800021F78E7E8861E1CF08950E94FE108111AC
:1028900002C00E94A7110E9409118093F4020E94B5
:1028A000131190933503809334030E9444140E94C3
:1028B0000E1190E00E94E40B8091680290916902F1
:1028C0000E94050C089508950E94631408950895C8
:1028D0000E9467140895E82FF0E0E85CFC4F8081C7
:1028E0000895EF92FF920F931F93CF93DF9389E0A8
:1028F00091E00E94A1051F921F9204E011E01F9336
:102900000F930E943A0681E091E00E94A10588E3BE
:10291000E82E83E0F82EF70180810E94F4071F92D1
:102920008F93CCEFD0E0DF93CF930E943A068AEFEB
:1029300090E00E94A1051F9281E08F931F930F9357
:102940000E943A0681E091E00E94A105F701818191
:102950000E94F4071F928F93DF93CF930E943A0651
:102960008AEF90E00E94A105EDB7FEB770960FB612
:10297000F894FEBF0FBEEDBFCDB7DEB7E6E00C9416
:102980000A2954985C9A3E98469A0895AC0170E0E2
:10299000FB01EE56FE4F908120E09F3F79F0E92F3A
:1029A000E295EF70F0E020A130E09F7002C0359515
:1029B00027959A95E2F7209530952170640F751F41
:1029C000FB01208308950E94C114109239031092D4
:1029D0003803109237031092360382E00E942915C3
:1029E0000E9452070895A2E0B0E0E9EFF4E10C94F0
:1029F000F1281A82198260E0CE0101960E94C61465
:102A000061E0CE0101960E94C61442E050E0BE0192
:102A10006F5F7F4F86E393E00E94192921E00097C2
:102A200009F420E0892B31F089819A819093370352
:102A30008093360342E068E373E086E393E00E940C
:102A40002A15182F0E945507812F2296E3E00C9437
:102A50000D290895CF92DF92EF92FF920F931F936B
:102A6000CF936C017B01042F222349F081E08093F6
:102A7000F7020E94E7209093F6028093F502C0913E
:102A8000F702C1110AC0C0E08C2FCF911F910F91A6
:102A9000FF90EF90DF90CF9008958091F502909194
:102AA000F6020E94FF20059770F310E0A801B6011E
:102AB000C7010E941929892B41F0A801B601C7015D
:102AC0000E9426291092F702DFCFC0E0FBCF0E94C0
:102AD00095230E94E6110E94A22308950E94A72335
:102AE0000E94F1110E94C52308950E9480200E9437
:102AF0007B230E94CC110E9467150E946E150E94D4
:102B0000DC11FBCFEF92FF920F931F93CF93DF93D4
:102B1000EB01E82FD1110EC0442321F0F0E0E35681
:102B2000FC4FE4916E2F7E2F8E2FCDB7DEB7E6E0FF
:102B30000C940A290D2F10E0282F30E0442329F0AF
:102B400023563C4FF901249130E0F6E0CF9FC001BD
:102B50001124EFEFF0E0BF010E94C828AB018C2FD9
:102B600090E0880F991FA5E5A49FB001A59F700D67
:102B70001124861B970B982F990F980FBF01601B8C
:102B8000710B629FD001639FB00D729FB00D112435
:102B90008B2F9D9FB0011124672F7727EF01C61B54
:102BA000D70BBE01629FE001639FD00D729FD00DD5
:102BB00011247F01E91AF108E09EB001E19E700D39
:102BC000F09E700D1124672F7727E61BF70BE29F0D
:102BD0008001E39F100DF29F100D1124E12F722F41
:102BE0004230510599F048F44115510569F04130E2
:102BF000510581F0EB2F8D2F07C04430510569F04E
:102C000080F046305105B1F76E2F8FCFE22F7B2F2A
:102C1000812FFACFE22F7D2FF7CFEB2F822F712F4D
:102C2000F3CF7B2F822FED2FEFCF41E00E94821553
:102C300008950E9415160895CF93DF93762FE9012A
:102C4000682F842F0E941916798368838A83DF9105
:102C5000CF91089580913A03982F9E7F39F4809107
:102C60003A038170826080933A0308958430B8F704
:102C7000089588E090E00E9437290895CF92DF926E
:102C8000EF92FF926B017C010E942A16B701A60108
:102C900088E090E00E945529FF90EF90DF90CF9060
:102CA0000895EAE3F3E083E0808311828FEF82836B
:102CB0008383148260817181828193810E943E1698
:102CC00008958091F40280FF76C084E893E09F939A
:102CD0008F930E943A068091F4020F900F9080FF2C
:102CE0006AC080913A0381701F928F9387E693E0C8
:102CF0009F938F930E943A068091F4020F900F9059
:102D00000F900F9080FF57C080913A0386951F92D5
:102D10008F938CE493E09F938F930E943A06809167
:102D2000F4020F900F900F900F9080FF44C080919D
:102D30003B031F928F9382E393E09F938F930E94B4
:102D40003A068091F4020F900F900F900F9080FF41
:102D500032C080913C031F928F9388E193E09F9350
:102D60008F930E943A068091F4020F900F900F907B
:102D70000F9080FF20C080913D031F928F938EEFB4
:102D800092E09F938F930E943A068091F4020F90F5
:102D90000F900F900F9080FF0EC080913E031F9206
:102DA0008F9382EE92E09F938F930E943A060F904A
:102DB0000F900F900F90089590913E03933018F468
:102DC0009F5F90933E03882351F060913A03709186
:102DD0003B0380913C0390913D030E943E16089571
:102DE00081E00E94DC16089590913E03992319F02A
:102DF000915090933E03882351F060913A03709173
:102E00003B0380913C0390913D030E943E16089540
:102E100081E00E94F416089570E00E94B9190895A7
:102E200060911F0180913A0380FF0BC080911E01C9
:102E300023E0829FC0011124815C9C4F0E940C17EB
:102E40000895E091200180912101E81778F78E2FF5
:102E500090E0FC01EE0FFF1FE80FF91FE15CFC4F53
:102E6000118210821282E2CF80913A038E7F80938A
:102E70003A0360913A0370913B0380913C03909137
:102E80003D030E943E168091F40280FF0FC08091A6
:102E90003A0381701F928F9384E691E09F938F9302
:102EA0000E943A060F900F900F900F902FEF80E73F
:102EB00092E0215080409040E1F700C000000E9465
:102EC0001017089590913A0390FF14C0E0912001EB
:102ED00090912101E91760F42E2F30E0F901EE0FF7
:102EE000FF1FE20FF31FE15CFC4F8183608342838D
:102EF0000E9410170895A3E0B0E0E1E8F7E10C9418
:102F0000EE28182F062FF42EE22E80913A0380FF30
:102F100043C0E82FE695F0E0EC56FE4F9081909389
:102F2000F9028E7F823059F49E012F5F3F4F812F2F
:102F30000E941C164B8169818A810E94621710933E
:102F40003B0300933C03F0923D03EE2049F1609176
:102F50003A0370913B0380913C0390913D030E94A2
:102F60003E168091F40280FF17C080913D031F92AE
:102F70008F9380913C031F928F9380913B031F920C
:102F80008F938FE391E09F938F930E943A060FB641
:102F9000F894DEBF0FBECDBF2396E6E00C940A295D
:102FA0008091F40280FFF8CF1F92FF921F920F933F
:102FB0001F921F9388E191E0E6CFEAE3F3E091816D
:102FC000282F4381628188E0890F0E947B17089532
:102FD00081E00E94DD170895EAE3F3E09181282F54
:102FE0004381628188EF890F0E947B17089581E0F9
:102FF0000E94EC170895EAE3F3E0628121E1620F99
:1030000008F46FEF282F438181810E947B17089578
:1030100081E00E94FB170895EAE3F3E0628121E179
:10302000621B08F460E0282F438181810E947B1796
:10303000089581E00E940C180895EAE3F3E04381CB
:1030400021E1420F08F44FEF282F628181810E9415
:103050007B17089581E00E941D180895EAE3F3E0CC
:10306000438121E1421B08F440E0282F62818181E5
:103070000E947B17089581E00E942E18089520E099
:103080000E947B17089580913A0380FF2BC08170C6
:10309000826080933A03662331F160913A03709124
:1030A0003B0380913C0390913D030E943E1680912A
:1030B000F40280FF0FC080913A0386951F928F9390
:1030C00088E292E09F938F930E943A060F900F90B0
:1030D0000F900F9040913D0360913C0380913B0322
:1030E0000E943F1808958091F40280FFF3CF1F9251
:1030F00081E08F938AE092E0E5CF682F81E00E9423
:103100004318089581E00E947D180895682F9091DA
:103110003A0396958FEF890F09F481E00E944318D6
:10312000089581E00E948618089561E00E94431886
:10313000089580913A03816080933A038091F4026C
:1031400080FF0DC01F9281E08F938CE991E09F93E7
:103150008F930E943A060F900F900F900F908091DE
:103160003A0386950E94951808958091F40280FF95
:1031700010C080913A03809581701F928F9383EDE8
:1031800091E09F938F930E943A060F900F900F90BB
:103190000F9080913A0380FF03C00E943417089576
:1031A0000E949918089560E00E9443180895809144
:1031B000F80281115EC08091F40280FF14C08BEC94
:1031C00092E09F938F930E943A068091F4020F90B1
:1031D0000F9080FF08C085EB92E09F938F930E9431
:1031E0003A060F900F900E94FE10811110C080913E
:1031F000F40280FF08C08DE892E09F938F930E94B5
:103200003A060F900F900E94A7110E9451160E943B
:10321000391660933A0370933B0380933C03909379
:103220003D036E7FC1F48091F40280FF08C084E406
:1032300092E09F938F930E943A060F900F900E9406
:1032400051160E94391660933A0370933B038093A2
:103250003C0390933D030E942A160E9461168091C0
:103260003A0380FF03C086950E94D31881E08093C3
:10327000F8020895FA01811101C0FB010995089532
:103280001F93CF93DF93EC01FB01128111114FC00B
:103290000E9401108272CA3CFCE5DF0709F460C09D
:1032A00030F5C63CECE5DE0709F455C060F4C43CDB
:1032B0009CE5D90709F443C008F048C0C33CDC458D
:1032C000D9F111E034C049E158E168E078E1C83C47
:1032D0009CE5D907C1F148EE57E167EF77E1C93CBA
:1032E000DC4588F148E058E169E178E12CC0CE3C4A
:1032F000FCE5DF07D1F1A0F448E057E160EF76E1AB
:10330000CC3CECE5DE07F9F04AE258E16BE378E10A
:10331000CD3CDC45C0F040EF56E168E077E113C0FA
:10332000C73D8CE5D80718F0CE35DD4551F6812F25
:10333000DF91CF911F9108950E94B518F8CF41E910
:1033400058E162E878E10E943A19F1CF42E858E189
:1033500061E978E1F8CF47EF57E168EE77E1F3CF25
:103360004BE358E16AE278E1EECF81E00E949518E4
:10337000DECF269A45B14F7B55B15064EFB7F89434
:103380009B01220F331F260F371F280F391F2817C5
:10339000390741F4EFBF8FE594E00197F1F700C0E2
:1033A00000000895DC016D91CD0178E055B9000071
:1033B00000C067FF45B9660F000000C000C000C034
:1033C00045B900C07A9591F7E2CFCF93DF93EC0136
:1033D000FB018281882309F464C1C430FDE5DF0765
:1033E000E0F5CB3F9CE5D90730F49E0122503C45E7
:1033F00024313105D8F50E94131190933503809341
:103400003403C231ECE5DE0709F41FC108F06EC0D9
:10341000C9308CE5D80709F4F2C008F03FC0C530C8
:10342000ECE5DE0709F4DBC058F5C3308CE5D807BE
:1034300009F4CDC008F0CFC0809134038160C23060
:10344000DC4509F4AEC080913403909135030E94AD
:1034500021110E948F0B80E009C0C63AEDE5DE071E
:1034600051F238F4C2369DE5D90729F2DF91CF91A8
:1034700008959E012E5A3D4523303105B8F7BBCF44
:10348000809134038062C730FCE5DF0709F489C00E
:1034900008F4B1C080913403806483C0CD309CE5D2
:1034A000D90709F4BAC070F4809134038E7FCB3011
:1034B000FCE5DF0709F475C008F4A7C08091340368
:1034C0008D7F6FC0CF309CE5D90709F4B6C008F4F2
:1034D000A8C0C031FCE5DF0709F4B3C0C131DC4549
:1034E00009F0B1CF809134038F7B5BC0C1159DE59E
:1034F000D90709F4B4C098F5CB3FFCE5DF0709F420
:1035000072C0B8F4C4319CE5D90709F4B6C008F418
:10351000A2C0C531DC4509F096CF8091340382FB0F
:10352000992790F921E0922790FB82F990FB83F98B
:1035300038C0CD3F8CE5D80709F477C008F457C0F0
:10354000CE3FECE5DE0709F474C08091350383605B
:10355000CF3FDC4509F077CF8093350374CFC23677
:103560008DE5D80709F496C068F4C230EDE5DE07B2
:1035700009F48CC008F477C0C330DD4509F063CF8F
:1035800080E085C0CE3A9DE5D907E9F068F49091D6
:103590003403892F8E7F90FF8160C63ADD4509F0A4
:1035A00052CF809334034FCFCF3A8DE5D80789F1BE
:1035B000C03BDD4509F047CF90913503892F877FC8
:1035C00093FF8860C9CF809135038860C5CF809113
:1035D00034038260E6CF809134038460E2CF80912F
:1035E00034038860DECF809135038160B5CF809150
:1035F00035038260B1CF809134038061D2CF0E94C5
:103600008F0B809134038068CCCF809134038C6021
:10361000C8CF80913503877F9FCF809134038B7F04
:10362000C0CF80913403877FBCCF809135038E7FDC
:1036300093CF809135038D7F8FCF809134038F7E20
:10364000B0CF809134038F7DACCF0E948F0B8091DF
:1036500034038F77A6CF80913403837FA2CF8091EC
:1036600035038C7F79CF80913503982F9095917099
:103670008E7F892B90FB81F96FCF0E948F0B9091E9
:103680003403892F97FB87F980588BCF81E00E9404
:10369000AA11D9CE90913403892F8F7E94FF806137
:1036A00080CF81E0E3CECF93C82F1F928F9383EA20
:1036B00094E09F938F930E943A0681E090E002C0CD
:1036C000880F991FCA95E2F70E94E40B0E948F0BA6
:1036D0000F900F900F900F90CF910895B0E0A0E061
:1036E000E4E7FBE10C94ED28EBEFE80FEF3308F093
:1036F0003EC1F0E0EB57F64D0C94DC280E940E1111
:103700001F928F9387E498E09F938F930E943A06CD
:103710000E94091183FB992790F91F929F9382FBC6
:10372000992790F91F929F9381FB992790F91F92F7
:103730009F93982F91701F929F931F928F938EEF5C
:1037400097E09F938F930E943A060E94131193FB78
:10375000222720F91F922F9387FB222720F91F92FF
:103760002F9386FB222720F91F922F9385FB222778
:1037700020F91F922F9384FB222720F91F922F9369
:1037800083FB222720F91F922F9382FB222720F907
:103790001F922F9391FB222720F91F922F93292FFD
:1037A00021701F922F9381FB222720F91F922F93C4
:1037B000282F21701F922F939F938F938FEF96E066
:1037C0009F938F930E943A068DB79EB78A960FB645
:1037D000F8949EBF0FBE8DBF81E01CC087E099E0CA
:1037E0000E94A1050E94A711F7CF8AE495E00E94EC
:1037F000A105F2CF8091F402807F8093F4028FE2E2
:1038000095E00E94A10583E099E00E94A10581E076
:103810008093FB02CDB7DEB7E7E00C94092987EE71
:1038200098E00E94A1050E946707D6CF9091F4020C
:10383000892F8E7F90FF81608093F40280FF03C008
:103840008BED98E0D4CF8EEC98E00E94A10580919A
:10385000F402817F8093F402BFCF9091F402892F0C
:103860008D7F91FF82608093F40281FF08C081EC1C
:1038700098E00E94A1058091F4028160EBCF83EB78
:1038800098E0B5CF9091F402892F8B7F92FF8460EE
:103890008093F40282FF03C084EA98E0EACF84E9CF
:1038A00098E0A5CF9091F402892F877F93FF8860DD
:1038B0008093F40283FF03C088E898E0DACF8BE7B7
:1038C00098E095CF86E991E09F938F938CE295E005
:1038D0009F938F930E943A060F900F900F900F9036
:1038E0007BCF0E94F320062FF72EE82ED92EC09111
:1038F0003403C7FBCC27C0F910913303D0912F01BB
:103900000E94D11EDF92EF92FF920F931F92CF93EE
:103910001F921F931F92DF931F928F9388EA94E068
:103920009F938F930E943A068DB79EB70E960FB65F
:10393000F8949EBF0FBE8DBF4FCF0E948F0B90910A
:103940003403892F97FB87F980588093340387FFCE
:1039500003C081E798E04BCF86E698E048CF80E04F
:103960000E94531B39CF8953FBCF8D51F9CF84E689
:1039700098E00E94A10580E04DCF80E008950E946C
:10398000BD1C0895CF93C82F8091FB02882331F08E
:10399000813099F01092FB0280E00DC00E9401106E
:1039A0008232D1F78C2F0E94BD1C811119C08C2F3F
:1039B0000E946E1B8170CF9108950E940110823287
:1039C00089F38C2F0E94BF1C811119C0C431C9F02A
:1039D00050F4CB3061F08DE994E00E94A10513C052
:1039E00081E090E0E7CFC93261F0C833A1F78FE200
:1039F00095E00E94A1058FE994E00E94A10581E075
:103A0000D9CF1092FB0280E0D5CFCF93DF93EB01AB
:103A100086319C4511F50E9401109A81992399F0F5
:103A20008A7A91E009F490E09093FC02811109C038
:103A300089E20E94D90F0E94451080E0DF91CF916A
:103A4000089585E3F6CF8091FC02811104C089E2DC
:103A50000E94E10FF0CF85E3FBCF81E0EFCF0F9322
:103A60001F93CF93DF93C42FD22FFC018281882331
:103A7000C9F04093FF020E94E7209093FE028093DA
:103A8000FD0280E28C0F883040F4C77081E001C0F5
:103A9000880FCA95EAF70E943209DF91CF911F91F2
:103AA0000F9108951091FF02141332C08091FD020E
:103AB0009091FE020E94FF20883C910548F5C0E2EB
:103AC000CD0F1D17B9F080E2810F883040F41770D8
:103AD00081E001C0880F1A95EAF70E943909C830C1
:103AE00048F481E09D2F977001C0880F9A95EAF7FE
:103AF0000E943209802F0E942909C83070F6D770C1
:103B000081E001C0880FDA95EAF70E943909C5CF34
:103B100080E28C0F883008F6C77081E001C0880F02
:103B2000CA95EAF7F2CF0F939C01CB01243F4CE5F5
:103B3000340759F1A8F4293DFCE53F0701F12A3D7E
:103B40004CE53407D1F1283D3C4591F406E221EEE5
:103B500041EE68ED7CE50E942F1D80E00F910895F5
:103B6000263FFCE53F07E9F0B0F0273F3C45F9F080
:103B7000FC018281882339F11092FF02EFCF07E226
:103B800025EE45EE69ED7CE5E6CF06E221EE40EE5E
:103B900064EF7CE5E0CF07E225EE44EE65EF7CE5DF
:103BA000DACF06E221EE42EE66EF7CE5D4CF07E203
:103BB00025EE46EE67EF7CE5CECF08E221E045EE4C
:103BC0006AED7CE5C8CF81E0C9CFCF93DF93EC01EC
:103BD000EA85FB85309719F06C857D8509958B8189
:103BE0000E941D108C810E940A100E94451086E0E0
:103BF000FE0111928A95E9F7DF91CF910895CF9355
:103C0000DF93EC018D8181FD12C082608D838B81F9
:103C10000E9417108C810E9404100E944510E885B4
:103C2000F985309721F06C857D85CE01099510923C
:103C30000303109202038D8180FD03C0CE010E9418
:103C4000E51DDF91CF910895FB0122812223E1F050
:103C5000E0910203F09103033097B1F0E817F90700
:103C600099F02EE0E29FF0011124DF01AB5FBE4F1F
:103C70002C9124602C93E050FF4F91838083CF01DF
:103C80000E94FF1D0E9424100895EF92FF920F934F
:103C90001F93CF93DF938C0197558F3F910511F0C0
:103CA00008F041C07801FF248EE0089FF001112444
:103CB000EF01C050DF4FDB0112962C91EB5FFE4FFE
:103CC000808120FB80F98083222399F10E94E720E4
:103CD00090930103809300038A818F5F8A830E94FF
:103CE00001108B830E9414109B81892B8B830E946F
:103CF00027108C83EE81FF81309721F06C857D85C4
:103D0000CE0109958EE08E9DF0018F9DF00D11245E
:103D1000E050FF4F858181FF02C010E000E010936A
:103D200003030093020381E0CDB7DEB7E6E00C9415
:103D30000A298D8181FFF7CFCE010E94E51DF3CFC7
:103D40008091020390910303892BC9F080910003B5
:103D5000909101030E94FF20893C910580F08091A1
:103D600002032EE0829FC0011124FC01EB5FFE4F95
:103D7000208122FD04C080509F4F0E94FF1D0895A6
:103D800010920303109202030E94E51D0895909380
:103D90005D0280935C020895909309038093080369
:103DA0000895E0910803F0910903309729F00190FC
:103DB000F081E02D0995089580E00895EF92FF923B
:103DC0000F931F93CF93DF93EC01E0910803F091E1
:103DD0000903309709F440C080912F01882341F0F6
:103DE0008091340387FF04C08881898386E08883BB
:103DF0000280F381E02DCE0109958091F40282FFCB
:103E00002BC080FF04C080E299E00E94A10510E071
:103E100000E08AE1E82E89E0F82E8091F40280FF2C
:103E20000EC0FE01E00FF11F80811F928F93FF9261
:103E3000EF920E943A060F900F900F900F900F5F35
:103E40001F4F0830110549F78091F40280FF04C02C
:103E500088E199E00E94A105CDB7DEB7E6E00C94B9
:103E60000A2920910603309107032817390771F0BA
:103E70009093070380930603E0910803F0910903F0
:103E8000309721F00680F781E02D09950895209163
:103E90000403309105032817390771F09093050347
:103EA00080930403E0910803F0910903309721F017
:103EB0000084F185E02D09950895FC0132968091EA
:103EC0002F01882321F0809134039EE187FF96E043
:103ED00080E0915008F4089521912223D1F38F5F5F
:103EE000F8CF662301F120912F012223F1F02091D8
:103EF000340327FF1AC0462F4695469546954E3106
:103F000090F4677021E030E002C0220F331F6A9501
:103F1000E2F7840F911DFC01828190E02823392370
:103F200081E0232B69F480E00895FC013296089625
:103F30002191261721F0E817F907D1F7F4CF81E096
:103F400008959C01FC0132969FEF80E04191461755
:103F500051F09F3F19F4411101C0982F8F5F8630B7
:103F6000A9F79F3F09F40895290F311D97FD3A9550
:103F7000F90162830895FC01329608962191261377
:103F800003C0DF0111971C92E817F907B9F70895EC
:103F9000E62FE695E695E695EE3170F4E80FF92FF9
:103FA000F11D677021E030E001C0220F6A95EAF749
:103FB0008281822B828308958091F40280FF0CC05D
:103FC0001F926F9380E599E09F938F930E943A062A
:103FD0000F900F900F900F900895E62FE695E695BD
:103FE000E695EE3178F4E80FF92FF11D677021E0C6
:103FF00030E001C0220F6A95EAF7209582812823DC
:10400000228308958091F40280FF0CC01F926F9369
:1040100082E399E09F938F930E943A060F900F904E
:104020000F900F90089520912F01222339F02091B5
:10403000340327FF03C00E94C81F08950E94A11FD8
:10404000089520912F01222339F02091340327FF76
:1040500003C00E94ED1F08950E94BB1F0895FC013C
:10406000329680912F01882351F08091340387FF8D
:1040700006C08EE1DF011D928A95E9F7089586E07A
:10408000F9CF08950E9441200895811106C081E072
:1040900080930A030E944220089582E0F9CF83E0D2
:1040A00080930A030E94422008950E9445200895AB
:1040B00081E080930A030E94422008950E945820C4
:1040C0000895089508950E9462200895089508951E
:1040D0000E94612008950E9466200E94F3140E94AD
:1040E000672080E00E946B1491E0811107C081E09D
:1040F0000E946B1491E0811101C090E0892F089516
:1041000085B7806885BF85B7806885BF08951F9291
:104110001FB61F9211248F939F93AF93BF938091EB
:104120000B03811113C08091420390914303A0912E
:104130004403B09145034196A11DB11D80934203F4
:1041400090934303A0934403B0934503BF91AF9171
:104150009F918F911F901FBE1F90189580914A03C9
:10416000843031F10E94EA0710920B0388E190E05D
:1041700020E40FB6F894A895809360000FBE2093BA
:10418000600083B7817F846083BF83B7816083BF12
:104190007894889583B78E7F83BF0FB6F894A895DF
:1041A00080916000886180936000109260000FBE73
:1041B00008950E948F0B0E94EF07089582E084BD4E
:1041C00093E095BD9AEF97BD80936E0008952FB749
:1041D000F8948091420390914303A0914403B091DD
:1041E00045032FBF08952FB7F89460914203709153
:1041F000430380914403909145032FBF08959C0190
:104200004FB7F8948091420390914303A0914403E7
:10421000B09145034FBF821B930B089578941F9272
:104220001FB61F9211248F939F93AF93BF938091DA
:10423000420390914303A0914403B091450301963A
:10424000A11DB11D8093420390934303A0934403A7
:10425000B0934503BF91AF919F918F911F901FBE67
:104260001F90189587E797E79093010880930008BF
:1042700088E19AE00FB6F894A895809360000FBE8D
:1042800090936000FFCF88E19AE00FB6F894A8956C
:10429000809360000FBE90936000FFCF8091320347
:1042A00008950895CF93DF93EC0180912F01882327
:1042B000B1F18091340387FF32C060E282E08093E5
:1042C000E9008FEF9091E800815095FD06C095EDD3
:1042D0009A95F1F700008111F5CF8091E80085FFF4
:1042E0001BC080912F0170E050E040E0811104C0BC
:1042F00050E040E068E070E0CE010E9436248091FA
:10430000E8008E778093E80080E2FE01A2E1B3E04E
:1043100001900D928A95E1F7DF91CF91089568E0C1
:1043200081E0CDCF80930E037093100360930F0351
:1043300080914A03843001F582E08093E9008FEF99
:104340009091E800815095FD06C095ED9A95F1F7A2
:1043500000008111F5CF8091E80085FF0DC050E08D
:1043600040E063E070E08EE093E00E9436248091AC
:10437000E8008E778093E8000895BC0184E00E94F5
:1043800092210895BC0183E00E949221089508952E
:1043900082E899E00E94A10580914903811109C03A
:1043A0000E94C6250E9423268091E20084608093AB
:1043B000E20008958EE799E00E94A105109249035A
:1043C00008958AE799E00E94A1050E945820089567
:1043D00086E799E00E94A1056091460381E06111A2
:1043E00001C080E00E944F20089582E799E00E947A
:1043F000A10590914A0381E0943009F080E060913A
:1044000046030E945520089520910D032F5F822FAF
:1044100062E30E94BC28992319F020930D030895AC
:1044200010920D03809111038823F1F080914A03CB
:104430008430C1F49091E9009F702091EC00822FAC
:10444000817020FD80E8892B93E09093E9009091A2
:10445000EB0090FF04C09091EE0097FD08C08F70B4
:104460008093E9001092110308951092F100909149
:10447000E80095FDFACF9091E80090FFF0CF909181
:10448000E8009E779093E800EACF42E061EC81E09B
:104490000E94422542E261EC82E00E94422542E213
:1044A00061EC83E00E94422590914A0381E09430C0
:1044B00009F080E0609146030E94452008958091B4
:1044C0004C03833009F461C030F48130D1F1823083
:1044D00009F49EC008958A3009F48AC08B3009F42B
:1044E0006FC0893009F050C080914B03813209F0D0
:1044F0004BC080914F0390915003029708F044C045
:104500008091E800877F8093E8008091E80082FF37
:1045100037C09091F3008091F200029731F48091BE
:10452000F100813011F0863021F48091F100809308
:1045300032038091E8008B778093E8000E94762513
:1045400023C080914B03813AF9F48091E800877F82
:104550008093E80080914F0390915003892B61F480
:1045600060E282E193E070E00E9485248091E8009F
:104570008B778093E800089560E090E080E0F3CFCF
:1045800080914A038111C1CF089580914B03813AF4
:10459000D9F780914F0390915003892BA9F780910F
:1045A000E800877F8093E8008091E80080FFFCCFDF
:1045B00080912F018093F1008091E8008E77BCCF2D
:1045C00080914B03813201F780914F03909150030A
:1045D000892BD1F68091E800877F8093E8000E94C4
:1045E000762580914D0380932F010E948F0B0895B3
:1045F00080914B03813241F68091E800877F809360
:10460000E8000E94762580914E038093330308953D
:1046100080914B03813A09F0B7CF8091E800877F02
:104620008093E8008091E80080FFFCCF8091330305
:10463000C1CF9FB7F894109211039FBF90914A0386
:10464000943009F048C02091E9002F703091EC00BF
:10465000932F917030FD90E8922B23E02093E90096
:104660002091EB0020FF34C02091EE0027FF30C0E6
:1046700020910C03222321F02091E80025FF28C07F
:1046800010920C0326E03091E80035FF14C08093AF
:10469000F1008091E80085FD27C08091E80080FF4F
:1046A000FCCF8091E8008E778093E8009F70909314
:1046B000E90080E0089530914A03343049F43091A4
:1046C000EB0035FD05C0215041F481E080930C03DF
:1046D0009F709093E9008FEF0895EFE9FFE0319725
:1046E000F1F700C00000CFCF8FB7F89421E02093FE
:1046F00011038FBFDBCF84B7877F84BF0FB6F894D9
:10470000A89580916000886180936000109260009D
:104710000FBE80E890E00FB6F8948093610090930C
:1047200061000FBE0E945E2008950E94C6250E946F
:104730002326E2EEF0E080818460808378940E94FA
:10474000A128089583E291E00E94CC1E08958091F3
:104750004A03853051F48EE699E00E94A1058091CC
:104760004A03853019F00E94D92008950E94AE2096
:1047700080914803882399F30E946B20882379F362
:104780000E9420240E948F0BEACF08950E94C92323
:104790000895292F33272330310521F168F4213082
:1047A000310509F443C02230310509F444C090E0DA
:1047B00080E030E020E026C02132310551F1223284
:1047C0003105A9F76330710590F7FB01EE0FFF1F6C
:1047D000E05BFD4F20813181635B7D4FFB01808178
:1047E00090E010C099278130910581F0009729F061
:1047F0000297E9F6E6E8F9E002C0ECEAF9E0849114
:1048000090E09F01FA01318320830895E8E9F9E0FF
:10481000F6CF6330710558F6660F771FFB01EA5A31
:10482000FD4F2081318189E090E0ECCF82E190E082
:104830002BE03AE0E7CF8BE590E020EB39E0E2CFE8
:1048400080E189BD82E189BD09B400FEFDCF809180
:10485000D8008F7D8093D8008091E00082608093A3
:10486000E0008091E00081FDFCCF0895AF92BF92FF
:10487000CF92DF92FF920F931F93CF93DF936C0140
:10488000EB018A010E949525F82E811123C00115A4
:10489000110539F0F80180819181C81BD90BC80E30
:1048A000D91EB12CA12C2097A9F08091E80085FD9C
:1048B00022C08091E8008E778093E80001151105F1
:1048C000A1F0F80180819181A80EB91EB182A08269
:1048D00085E0F82E8F2DDF91CF911F910F91FF90E2
:1048E000DF90CF90BF90AF9008950E9495258823C8
:1048F000D1F2F82EEFCFF60181916F018093F10094
:104900002197FFEFAF1ABF0ACECFFC018091510370
:104910009091520386179707A0F06115710529F44D
:104920009091E8009E779093E80090E06115710502
:1049300051F4911108C08091E80082FF34C080E0FA
:104940000895BC01F2CF80914A038823C1F18530DC
:10495000C1F18091E80083FD30C08091E80082FDC4
:10496000EACF8091E80080FFE1CF8091F3002091B1
:10497000F200382F6115710519F02830310558F013
:1049800091E02830310509F090E02091E8002E7781
:104990002093E800CBCF81918093F10061507109A1
:1049A0002F5F3F4FE7CF80914A03882341F0853046
:1049B00041F08091E80083FFBECF81E0089582E05E
:1049C000089583E00895FC01809151039091520372
:1049D00086179707A0F06115710529F48091E8000A
:1049E0008E778093E80090E06115710551F4911184
:1049F00008C08091E80082FF35C080E00895BC01C6
:104A0000F2CF80914A038823C9F18530C9F18091A2
:104A1000E80083FD31C08091E80082FDEACF8091FB
:104A2000E80080FFE1CF8091F3002091F200382F61
:104A30006115710519F02830310558F091E02830E2
:104A4000310509F090E08091E8008E778093E800CE
:104A5000CBCF84918093F1003196615071092F5F23
:104A60003F4FE6CF80914A03882341F0853041F0E3
:104A70008091E80083FFBDCF81E0089582E0089532
:104A800083E00895982F973028F08F708093E90085
:104A900081E008959093E900242F762F50E0981735
:104AA00031F07091EC002091ED005091F00021FD6B
:104AB00002C09F5FE8CF3091EB003E7F3093EB0068
:104AC0003091ED003D7F3093ED003091EB0031608F
:104AD0003093EB007093EC002093ED005093F000C6
:104AE0002091EE0027FDE5CF80E0089580914B03F3
:104AF00087FF13C08091E80082FF06C08091E80024
:104B00008B778093E80004C080914A038111F2CF33
:104B1000089580914A038823D9F38091E80080FFAB
:104B2000F8CF8091E8008E77ECCF2091E4003091AF
:104B3000E50095E6A9012091EC00822F817020FF0D
:104B400006C08091E80080FF06C080E008952091B3
:104B5000E80022FD1AC080914A03882389F085303D
:104B600089F08091EB0085FD0FC02091E400309129
:104B7000E50042175307F9F29150E1F684E00895F9
:104B800082E0089583E0089581E008950E9435262B
:104B90000E943D26E0EEF0E0808181608083E8EDB8
:104BA000F0E080818F77808319BCA7EDB0E08C9115
:104BB0008E7F8C9380818F7E80831092490308952D
:104BC0000F931F93CF93DF930E9435260E943D26BB
:104BD000C8EDD0E088818F7788838881806888835A
:104BE00088818F7D888319BC10924A0310924603F6
:104BF000109248031092470300EE10E0F801808104
:104C00008B7F808388818160888342E060E080E0E0
:104C10000E944225E1EEF0E080818E7F8083E2EE0B
:104C2000F0E0808181608083808188608083F801EA
:104C300080818E7F8083888180618883DF91CF919E
:104C40001F910F910895E8EDF0E080818F7E8083C1
:104C5000E7EDF0E080818160808384E082BF81E0C5
:104C6000809349030E94E0250895E8EDF0E08081FB
:104C70008E7F80831092E20008951092DA001092E5
:104C8000E10008951F920F920FB60F9211242F93F7
:104C90003F934F935F936F937F938F939F93AF93C4
:104CA000BF93EF93FF938091E10082FF0BC080914F
:104CB000E20082FF07C08091E1008B7F8093E100DA
:104CC0000E9404228091DA0080FF19C08091D800F0
:104CD00080FF15C08091DA008E7F8093DA0080918A
:104CE000D90080FF96C080E189BD82E189BD09B409
:104CF00000FEFDCF81E080934A030E94C82180918D
:104D0000E10080FF19C08091E20080FF15C0809112
:104D1000E2008E7F8093E2008091E20080618093C8
:104D2000E2008091D80080628093D80019BC85E0B1
:104D300080934A030E94E8218091E10084FF2BC008
:104D40008091E20084FF27C080E189BD82E189BDB6
:104D500089B5982F917080FFFBCF8091D8008F7D0F
:104D60008093D8008091E1008F7E8093E100809154
:104D7000E2008F7E8093E2008091E2008160809368
:104D8000E20080914603882309F449C084E08093BF
:104D90004A030E94F5218091E10083FF29C08091A0
:104DA000E20083FF25C08091E100877F8093E100CE
:104DB00082E080934A03109246038091E1008E7F47
:104DC0008093E1008091E2008E7F8093E2008091E9
:104DD000E20080618093E20042E060E080E00E94B7
:104DE00042258091F00088608093F0000E94E121CC
:104DF000FF91EF91BF91AF919F918F917F916F91B3
:104E00005F914F913F912F910F900FBE0F901F9088
:104E1000189519BC10924A030E94DA2170CF809134
:104E2000E30087FD93E090934A03B3CF1F920F9264
:104E30000FB60F9211242F933F934F935F936F936D
:104E40007F938F939F93AF93BF93CF93DF93EF9312
:104E5000FF93D091E900DF708091EC00C82FC17002
:104E600080FDC0E81092E9008091F000877F809378
:104E7000F00078940E945A271092E9008091F00087
:104E800088608093F000CD2BCF70C093E900FF9134
:104E9000EF91DF91CF91BF91AF919F918F917F91D2
:104EA0006F915F914F913F912F910F900FBE0F9097
:104EB0001F901895AAE2B0E0E0E6F7E20C94F12822
:104EC0008BE493E02091F100FC012193CF01F3E00A
:104ED00083359F07B9F70E945F228091E80083FF26
:104EE0001EC180914B0390914C039A3008F017C17A
:104EF000E92FF0E0EC53F64D0C94DC28803899F063
:104F0000823809F00CC180914F038F70873008F010
:104F100006C18093E9008091EB0085FB882780F92A
:104F20001092E90006C080914703909148039111C7
:104F300082609091E800977F9093E8008093F10061
:104F40001092F1008091E8008E77E5C0882309F483
:104F5000D3C0823009F0E3C080914D038111D6C0E7
:104F600080914F038F702FEF280F263008F0D7C0A5
:104F70008093E9002091EB0020FFC8C0933031F40A
:104F80008091EB0080628093EB00C0C09091EB00B9
:104F900090619093EB0021E030E001C0220F8A95F0
:104FA000EAF72093EA001092EA008091EB00886013
:104FB000EACF8111B4C010914D031F778091E300B7
:104FC0008078812B8093E3008091E800877F809335
:104FD000E8000E9476258091E80080FFFCCF809158
:104FE000E30080688093E30082E0111183E0809306
:104FF0004A0395C08058823008F091C080914D03DB
:1050000090914E038C3D23E09207A1F583E08A83C3
:105010008AE289834FB7F894DE01139620E03EE0E0
:1050200051E2E32FF0E050935700E49120FF03C0DA
:10503000E295EF703F5FEF708E2F90E0EA30C0F0A6
:10504000C7968D939D932F5F243159F74FBF809161
:10505000E800877F8093E8006AE270E0CE01019665
:105060000E9485248091E8008B778093E80057C0E8
:10507000C096E7CF60914F0370915003AE014F5F30
:105080005F4F0E94C623BC01892B09F448C0909150
:10509000E800977F9093E80089819A810E94E32439
:1050A000E1CF8038E1F58091E800877F8093E800C8
:1050B000809146038093F10045CF811130C09091DB
:1050C0004D03923060F58091E800877F8093E8007F
:1050D000909346030E94762580914603882311F021
:1050E00084E005C08091E30087FDFACF81E08093E2
:1050F0004A030E94452213C080914D03813079F408
:1051000081E0933009F080E0809348031092E90039
:105110008091E800877F8093E8000E947625809147
:10512000E80083FF0AC08091E800877F8093E80051
:105130008091EB0080628093EB00AA96E3E00C94F0
:105140000D29CF9380914A038823A1F0C091E900F3
:10515000CF709091EC00892F817090FD80E8C82B72
:105160001092E9008091E80083FD0E945A27CF70D9
:10517000C093E900CF910895991B79E004C0991F6D
:10518000961708F0961B881F7A95C9F780950895A1
:10519000AA1BBB1B51E107C0AA1FBB1FA617B7075D
:1051A00010F0A61BB70B881F991F5A95A9F7809579
:1051B0009095BC01CD010895EE0FFF1F0590F4916D
:1051C000E02D09942F923F924F925F926F927F92BF
:1051D0008F929F92AF92BF92CF92DF92EF92FF9207
:1051E0000F931F93CF93DF93CDB7DEB7CA1BDB0BB3
:1051F0000FB6F894DEBF0FBECDBF09942A88398858
:1052000048885F846E847D848C849B84AA84B9845E
:10521000C884DF80EE80FD800C811B81AA81B9816A
:10522000CE0FD11D0FB6F894DEBF0FBECDBFED017E
:105230000895FB01DC0104C08D910190801921F4D7
:1052400041505040C8F7881B990B0895FB01DC01C1
:1052500002C001900D9241505040D8F70895F9993D
:10526000FECF92BD81BDF89A992780B50895A6E139
:10527000B0E044E050E00C946929A8E1B0E042E0DD
:1052800050E00C946929262FF999FECF92BD81BD7B
:10529000F89A019700B4021639F01FBA20BD0FB674
:1052A000F894FA9AF99A0FBE08950396272F0E9450
:1052B00044290E944329252F0E944429242F0C941D
:1052C00044290196272F0E9444290C944329DC018C
:1052D000CB01FC01F999FECF06C0F2BDE1BDF89A01
:1052E000319600B40D9241505040B8F70895F894AB
:1052F000FFCF7B097B09AC09AC09390ADB09DB0963
:10530000DB09550AC60AD50AD50A0F1CFA1B161C5A
:105310007E1BB71CB71CF51BB71CB71C421CB71C67
:10532000521C9D1CB71CB71CB71CB71C711CB71CAA
:10533000B71C621CB71C2D1CB71CB71CB51CB51CB8
:10534000B51CB51CB51CB51CB51CB51CB51CAF1CDB
:10535000B71C0F1CEE1BB71CB71CB71CB71CB71C27
:10536000B71CB71CB71CB71CB71CAF1CB71CB71CAD
:10537000F51BB71CB31CB31CB31CB31CB31CB31C70
:10538000B31CB31CB31CAF1C7E27A6278F28A627EF
:0C5390008F28D927FA278F2851285D2884
:10539C0000000000000000005D060000000000009E
:1053AC00000000000000430600000000C6020001DF
:1053BC000001014E215221C721C221BD21512101E1
:1053CC00E200E900EA00B500B600B700CD008301A9
:1053DC00CC008A01920194012102230224022502AD
:1053EC00260227022A02B300B4006F0070008182EB
:1053FC0083E200E900EA00B500B600B700CD0083F7
:10540C0001CC008A0192019401210223022402257D
:10541C0002260227022A02B300B4006F007000813A
:10542C008283946600010A092D2056657273696F98
:10543C006E202D0A5649443A2030783533343228C0
:10544C0053706163656D616E29205049443A203078
:10545C007833323235283225204D696C6B29205631
:10546C0045523A203078303030310A4255494C445C
:10547C003A2020284D6172203130203230323429CC
:10548C000A4F5054494F4E533A204C5546412045F3
:10549C00585452414B455920434F4E534F4C452085
:1054AC00434F4D4D414E44204E4B524F20343039DA
:1054BC00360A4743433A20382E352E302041565277
:1054CC002D4C4942433A20322E312E302041565237
:1054DC005F415243483A20617672350A00406D2292
:0C54EC00AC0A3F0A1D0AC209DB09F409E2
:00000001FF
