:100000000C9436060C9453060C9453060C94530629
:100010000C9453060C9453060C9453060C945306FC
:100020000C9453060C9453060C94B32C0C94872D0B
:100030000C94F8260C9453060C9453060C94530617
:100040000C9453060C9453060C9453060C945306CC
:100050000C9453060C947F270C9453060C9453066F
:100060000C9453060C9453060C9453060C945306AC
:100070000C9453060C9453060C9453060C9453069C
:100080000C9453060C9453060C9453060C9453068C
:100090000C9453060C9453060C9453060C9453067C
:1000A0000C9453060C9453060C9453060A0A002031
:1000B0002020000A00202020000A00202020000A22
:1000C00000202020000A00202020000A00202020FC
:1000D000000A00202020000A00202020000A002022
:1000E0002020000A00202020000A0020202000B24A
:1000F0005DB35D04F40100C8F9010014F40100A32C
:10010000F3010031F30100E7F90100B0F40100113F
:10011000F90100B8F40100B2F401004BF40100440D
:10012000454255473A2064697361626C65642E0AE2
:100130000044454255473A20656E61626C65642E05
:100140000A000A0025303258006C65645F746173E0
:100150006B3A20004F6E6573686F743A2061637468
:100160006976653A2025640A000A00253038620065
:100170003A200025303258000A722F632030313285
:1001800033343536370A007267626C6967687420E9
:1001900073657420687376205B4E4F454550524F0F
:1001A0004D5D3A2025752C25752C25750A00726742
:1001B000626C696768742073657420687376205B6D
:1001C000454550524F4D5D3A2025752C25752C25FF
:1001D000750A007267626C6967687420646973618C
:1001E000626C65205B454550524F4D5D3A20726709
:1001F000626C696768745F636F6E6669672E656EAF
:1002000061626C65203D2025750A007267626C6929
:1002100067687420656E61626C65205B454550526D
:100220004F4D5D3A207267626C696768745F636FF7
:100230006E6669672E656E61626C65203D2025756E
:100240000A007267626C6967687420746F67676C14
:1002500065205B454550524F4D5D3A207267626C98
:10026000696768745F636F6E6669672E656E616249
:100270006C65203D2025750A007267626C696768AD
:1002800074206D6F6465205B4E4F454550524F4D55
:100290005D3A2025750A007267626C696768742090
:1002A0006D6F6465205B454550524F4D5D3A20258A
:1002B000750A007267626C696768745F696E697459
:1002C000207267626C696768745F636F6E666967E6
:1002D0002E6D6F6465203D20302E20577269746545
:1002E0002064656661756C742076616C7565732039
:1002F000746F20454550524F4D2E0A007267626C54
:10030000696768745F696E6974206565636F6E669E
:100310006967206973206E6F7420656E61626C6519
:10032000642E0A007267626C696768745F696E693F
:1003300074207374617274210A007267626C696759
:1003400068745F696E69742063616C6C65642E0A01
:10035000007267626C696768745F636F6E66696775
:100360002E7370656564203D2025640A0072676203
:100370006C696768745F636F6E6669672E76616C1F
:10038000203D2025640A007267626C696768745FAB
:10039000636F6E6669672E736174203D2025640A61
:1003A000007267626C696768745F636F6E66696725
:1003B0002E687565203D2025640A007267686C69A7
:1003C0006768745F636F6E6669672E6D6F64652022
:1003D0003D2025640A007267626C696768745F6318
:1003E0006F6E6669672E656E61626C65203D2025C3
:1003F000640A007267626C696768745F636F6E6637
:10040000696720454550524F4D3A0A0000010101ED
:1004100001010101010102020202020202020203C1
:100420000303030303030304040404040404050591
:100430000505050606060606070707070708080854
:1004400008090909090A0A0A0B0B0B0C0C0C0D0D03
:100450000D0E0E0E0F0F0F1010111111121213139B
:100460001414151516161717181819191A1A1B1B14
:100470001C1D1D1E1E1F2020212222232424252670
:1004800026272829292A2B2C2D2D2E2F30313232A8
:10049000333435363738393A3B3C3D3E3F404142B4
:1004A000434445464748494A4C4D4E4F505153549A
:1004B000555658595A5B5D5E5F616264656668694E
:1004C0006B6C6D6F7072737577787A7B7D7E8082CE
:1004D000838587888A8C8E8F91939596989A9C9E17
:1004E000A0A2A3A5A7A9ABADAFB1B3B5B7BABCBE27
:1004F000C0C2C4C6C9CBCDCFD1D4D6D8DBDDDFE2F4
:10050000E4E7E9EBEEF0F3F5F8FAFDFF556E696309
:100510006F646520696E707574206D6F646520630B
:1005200079636C6520746F3A2025750A00556E69F1
:10053000636F646520696E707574206D6F646520EB
:1005400073657420746F3A2025750A00556E6963CF
:100550006F646520696E707574206D6F64652069C5
:100560006E697420746F3A2025750A00000000003F
:10057000000000002A2B28000000000000000000FE
:100580000000000000000029000000002C1E3420A4
:10059000212224342627252E362D3738271E1F20CA
:1005A0002122232425263333362E37381F0405060F
:1005B0000708090A0B0C0D0E0F1011121314151653
:1005C0001718191A1B1C1D2F3130232D3504050651
:1005D0000708090A0B0C0D0E0F1011121314151633
:1005E0001718191A1B1C1D2F3130354C0000000044
:1005F00000000000000000000000000000000000FB
:1006000000000000000000000000000000000000EA
:100610007E0F00D4FFFFFFC7000000783F00433E7D
:1006200020004C25640A000A092D2053746174755A
:1006300073202D0A686F73745F6B6579626F6172E6
:10064000645F6C65647328293A20253032580A6B40
:100650006579626F6172645F70726F746F636F6CE3
:100660003A20253032580A6B6579626F6172645F97
:1006700069646C653A20253032580A6B65796D6182
:10068000705F636F6E6669672E6E6B726F3A2025BE
:100690003032580A74696D65725F72656164333215
:1006A00028293A202530386C580A002573000A0999
:1006B0002D20436F6E736F6C65202D0A4553432FB9
:1006C000713A09717569740A000A092D204D616734
:1006D0006963202D0A443A094465627567204D65B7
:1006E000737361676520546F67676C650A583A09D0
:1006F0004D6174726978204465627567204D6F643E
:100700006520546F67676C65202D2053686F7720D4
:100710006B65797072657373657320696E206D61A6
:100720007472697820677269640A4B3A094B65797B
:10073000626F61726420446562756720546F6767F9
:100740006C65202D2053686F77206B65797072651A
:100750007373207265706F72740A4D3A0944656252
:100760007567204D6F75736520546F67676C650AF8
:10077000563A0956657273696F6E0A533A09537493
:10078000617475730A433A094163746976617465EB
:1007900020436F6E736F6C65204D6F64650A463140
:1007A0002D4631303A0953776974636820746F209D
:1007B0004C6179657220302D392028463130203D3A
:1007C000204C30290A302D393A095377697463680F
:1007D00020746F204C6179657220302D390A4752A0
:1007E0004156453A0953776974636820746F204C09
:1007F0006179657220302028616C7465726E617455
:1008000065290A423A094A756D7020746F20426F5B
:100810006F746C6F616465720A4553433A094A7597
:100820006D7020746F20426F6F746C6F61646572BD
:100830002028616C7465726E617465290A453A09F5
:100840005072696E7420454550524F4D2053657467
:1008500074696E67730A4241434B53504143453AB2
:1008600009436C65617220454550524F4D0A4E3A1E
:10087000094E4B524F20546F67676C650A006B65D9
:10088000796D61705F636F6E6669672E7261773A2A
:1008900020253032580A2E737761705F636F6E7453
:1008A000726F6C5F636170736C6F636B3A20257558
:1008B0000A2E636170736C6F636B5F746F5F636F3D
:1008C0006E74726F6C3A2025750A2E737761705FB3
:1008D0006C63746C5F6C6775693A2025750A2E73BA
:1008E0007761705F7263746C5F726775693A202517
:1008F000750A2E737761705F6C616C745F6C6775DD
:10090000693A2025750A2E737761705F72616C7485
:100910005F726775693A2025750A2E6E6F5F67757D
:10092000693A2025750A2E737761705F6772617668
:10093000655F6573633A2025750A2E737761705F72
:100940006261636B736C6173685F6261636B737028
:100950006163653A2025750A2E6E6B726F3A202509
:10096000750A2E737761705F6573636170655F638D
:100970006170736C6F636B3A2025750A0064656261
:1009800075675F636F6E6669672E7261773A2025BF
:100990003032580A2E656E61626C653A2025750A00
:1009A0002E6D61747269783A2025750A2E6B65790F
:1009B000626F6172643A2025750A2E6D6F757365DA
:1009C0003A2025750A006565636F6E6669673A0AA5
:1009D00064656661756C745F6C617965723A202537
:1009E000750A003F004E4B524F3A206F66660A0070
:1009F0004E4B524F3A206F6E0A000A6D6F75736549
:100A00003A206F66660A000A6D6F7573653A206F4B
:100A10006E0A000A6B6579626F6172643A206F66D4
:100A2000660A000A6B6579626F6172643A206F6EC4
:100A30000A000A6D61747269783A206F66660A006E
:100A40000A6D61747269783A206F6E0A000A6465F3
:100A50006275673A206F66660A000A6465627567A8
:100A60003A206F6E0A000A0A4A756D70696E672037
:100A7000746F20626F6F746C6F616465722E2E2EBE
:100A80002000433E2000436C656172696E6720451B
:100A90004550524F4D0A000A002530325820006B55
:100AA0006579626F6172645F7265706F72743A200B
:100AB0000064656C5F6B65795F6269743A2063619D
:100AC0006E27742064656C3A20253032580A006124
:100AD00064645F6B65795F6269743A2063616E2755
:100AE00074206164643A20253032580A005B735DDB
:100AF000005B575D005B535D005B525D005B445DD6
:100B0000005B435D0010033200250020004D0069AA
:100B1000006C006B00000012035300700061006362
:100B20000065006D0061006E000000040309040907
:100B3000025B00030100A0FA0904000001030101A7
:100B4000000921110100012240000705810308006E
:100B50000109040100010300000009211101000145
:100B6000226D000705820320000109040200020330
:100B70000000000921110100012222000705830362
:100B800020000107050303200001120100020000FC
:100B90000008425325320100010200010631FF091D
:100BA00074A1010975150026FF00952075088102C2
:100BB0000976150026FF00952075089102C00501F1
:100BC0000980A101850319012AB700150126B70084
:100BD000950175108100C0050C0901A1018504195A
:100BE000012AA002150126A002950175108100C0FE
:100BF00005010906A1018506050719E029E7150089
:100C000025019508750181020507190029EF1500D6
:100C1000250195F075018102050819012905950541
:100C200075019102950175039101C005010906A1A5
:100C300001050719E029E7150025019508750181CF
:100C4000029501750881010507190029FF15002685
:100C5000FF0095067508810005081901290595050D
:100C600075019102950175039101C00011241FBE09
:100C7000CFEFDAE0DEBFCDBF12E0A0E0B1E0E4E20A
:100C8000F2E602C005900D92A43BB107D9F723E02C
:100C9000A4EBB2E001C01D92AF3AB207E1F70E94A7
:100CA000D6180C94BB300C940000FF93EF93E091A6
:100CB000B402F091B502309709F00995EF91FF91D8
:100CC0000895FC018591803011F0EFDFFBCF08958E
:100CD000FF27E0E230E247FF0CC0419597FF09C0D3
:100CE000EDE26095709580959095611D711D811D57
:100CF000911D27FF02C0219530E350E2AA27660F1D
:100D0000771F881F991FAA1FA41710F0A41B6395B3
:100D10005A95A9F7AA3008F0A95FA05DAF93F395A3
:100D2000611571058105910541F7ED3211F4EF93DD
:100D3000F395F21718F43F93F395FBCF8F91B5DF3E
:100D4000FA95E1F70895E991F9918591803021F0C4
:100D5000853219F0AADFF9CF089520E0E894559183
:100D60005532C1F3503311F4689455915A3348F415
:100D7000505390F3220F022E220F220F200D250F29
:100D8000F4CF0EF4219589919991533619F3533785
:100D900029F1533559F1BC0188279927E8945C362D
:100DA00021F48991999168945591543639F446EF1C
:100DB0007EF077FF0DC08FEF9FEF0AC055374AE0F6
:100DC00039F0583540E121F0523642E009F00895FB
:100DD000FF93EF937DDFEF91FF91B7CFFF93EF93F9
:100DE000FC0181918030B9F360DFFBCFFF93EF937B
:100DF00068DFF1CFDF93CF93CDB7DEB72596A3DFC2
:100E0000CF91DF910895EF92FF920F931F93CF93AD
:100E1000DF93823B2DE5920751F0833B9D4509F41A
:100E200018C180E0CDB7DEB7E6E00C94B12FFB012E
:100E300082818823B1F30E9458270E9411300E94BA
:100E40000C3005E010E0B8010E944D2FEC01FC01D0
:100E5000EE0FFF1FEC5FFE4F808191810E942B1FE0
:100E6000FFEF23EC89E0F15020408040E1F700C023
:100E700000000E940C30B8010E944D2F7C01FC0143
:100E8000EE0FFF1FEC5FFE4F808191810E942B1FB0
:100E90009FEFE3ECF9E09150E040F040E1F700C053
:100EA00000000E940C30B8010E944D2F8C01FC0103
:100EB000EE0FFF1FEC5FFE4F808191810E942B1F80
:100EC0002FEF83EC99E0215080409040E1F700C083
:100ED0000000CE15DF0509F0AFC0C017D10709F03B
:100EE000ABC0209709F5EFEFF3EC29E0E150F040BB
:100EF0002040E1F700C0000060E08BEE90E00E942F
:100F00003B2282E291E00E942B1F8FEF93ECE9E0FD
:100F100081509040E040E1F700C0000060E089EEC1
:100F200090E00E943B227DCFC130D105F9F4FFEF64
:100F300023EC89E0F15020408040E1F700C0000040
:100F400060E085EE90E00E943B228FE291E00E94FB
:100F50002B1F9FEFE3ECF9E09150E040F040E1F708
:100F600000C0000060E083EE90E0DBCFC230D1052E
:100F7000F9F42FEF83EC99E0215080409040E1F7A5
:100F800000C0000060E08FED90E00E943B228CE307
:100F900091E00E942B1FEFEFF3EC29E0E150F040CD
:100FA0002040E1F700C0000060E08DED90E0B9CF97
:100FB000C330D105F9F48FEF93ECE9E08150904014
:100FC000E040E1F700C0000060E089ED90E00E94A1
:100FD0003B2289E491E00E942B1FFFEF23EC89E084
:100FE000F15020408040E1F700C0000060E087ED54
:100FF00090E097CF249709F014CF9FEFE3ECF9E04E
:101000009150E040F040E1F700C0000060E083ED67
:1010100090E00E943B2286E591E00E942B1F2FEF7B
:1010200083EC99E0215080409040E1F700C000003F
:1010300060E081ED90E075CF60E08DEC90E00E9483
:101040003B2283E691E00E942B1F60E08BEC90E056
:1010500068CFFB018281882309F4E3CE8CE691E01E
:101060000E942B1FFFEF23EC89E0F15020408040CD
:10107000E1F700C000008CE691E00E942B1F9FEF7B
:10108000E3ECF9E09150E040F040E1F700C00000EF
:101090008CE691E00E942B1F2FEF83EC99E021500A
:1010A00080409040E1F700C0000060E087EC90E0F5
:1010B0000E943B228AE291E00E942B1FEFEFF3ECAB
:1010C00029E0E150F0402040E1F700C000008AE252
:1010D00091E00E942B1F8FEF93ECE9E0815090404C
:1010E000E040E1F700C000008AE291E00E942B1F7F
:1010F00060E085EC90E00E943B22FFEF21EE84E06F
:10110000F15020408040E1F700C0000081E791E00D
:101110000E942B1F9FEFE3ECF9E09150E040F0407C
:10112000E1F700C0000081E791E00E942B1F2FEF44
:1011300083EC99E0215080409040E1F700C000002E
:1011400081E791E00E942B1FEFEFF3EC29E0E150E3
:10115000F0402040E1F700C0000060E081EC90E04A
:101160000E943B2287E391E00E942B1F8FEF93ECBC
:10117000E9E081509040E040E1F700C0000087E3E3
:1011800091E00E942B1FFFEF23EC89E0F1502040FB
:101190008040E1F700C0000087E391E00E942B1F30
:1011A00060E08FEB90E00E943B229FEFE1EEF4E0E5
:1011B0009150E040F040E1F700C0000086E791E088
:1011C0000E942B1F2FEF83EC99E02150804090402C
:1011D000E1F700C0000086E791E00E942B1FEFEFCF
:1011E000F3EC29E0E150F0402040E1F700C00000BE
:1011F00086E791E00E942B1F8FEF93ECE9E081508E
:101200009040E040E1F700C0000060E08BEB90E030
:101210000E943B2284E491E00E942B1FFFEF23EC0D
:1012200089E0F15020408040E1F700C0000084E4F4
:1012300091E00E942B1F9FEFE3ECF9E09150E0401A
:10124000F040E1F700C0000084E491E00E942B1F11
:1012500060E089EB90E00E943B222FEF81EE94E06A
:10126000215080409040E1F700C000008BE791E002
:101270000E942B1FEFEFF3EC29E0E150F0402040FB
:10128000E1F700C000008BE791E00E942B1F8FEF79
:1012900093ECE9E081509040E040E1F700C00000AD
:1012A0008BE791E00E942B1FFFEF23EC89E0F150C8
:1012B00020408040E1F700C0000060E085EB90E056
:1012C0000E943B2281E591E00E942B1F9FEFE3ECFF
:1012D000F9E09150E040F040E1F700C0000081E506
:1012E00091E00E942B1F2FEF83EC99E0215080406A
:1012F0009040E1F700C0000081E591E00E942B1FC3
:1013000060E083EB90E00E943B22EFEFF1EE24E0FF
:10131000E150F0402040E1F700C0000080E891E09B
:101320000E942B1F8FEF93ECE9E081509040E0404A
:10133000E1F700C0000080E891E00E942B1FFFEF62
:1013400023EC89E0F15020408040E1F700C000002C
:1013500080E891E00E942B1F9FEFE3ECF9E09150B1
:10136000E040F040E1F700C0000060E08FEA90E06C
:101370000E943B228EE591E00E942B1F2FEF83EC11
:1013800099E0215080409040E1F700C000008EE5D8
:1013900091E00E942B1FEFEFF3EC29E0E150F040C9
:1013A0002040E1F700C000008EE591E00E942B1F75
:1013B00060E08CEA90E0B5CD9C013A9521153F4163
:1013C00050F5FC01EE27F170BC0166277270AC018C
:1013D000442754709C012227387094FF0EC080E18E
:1013E000EF2B09F480E0672B09F08062452B09F0B0
:1013F0008064232B89F08068089581E0EF2B09F445
:1014000080E0672B09F08260452B09F08460232B74
:1014100019F08860089580E00895CF93DF93EB0181
:101420000E94DC09FE010995DF91CF910895CF93C9
:10143000DF93EC01805E9109089720F06DEC7EE06F
:10144000209711F460E97CE0CE010E940D0A8C2FF8
:101450000E94FC0BDF91CF910895CF93DF93EC01B5
:101460000E94450CCE01805E9109089720F064ED42
:101470007EE0209711F467E97CE0CE010E940D0A1E
:10148000DF91CF9108950F931F93CF93DF938C013A
:10149000EB010E94170A209741F4C8010E942D0A0F
:1014A000DF91CF911F910F9108958FE99FE00197F0
:1014B000F1F700C000002197EECF70E060E08933C3
:1014C000910511F460E570E00E94430A089581E0FF
:1014D00008950E940307089508950E946C0A0895D4
:1014E000A5E0B0E0E6E7FAE00C94982F49835A8330
:1014F0003091BB0289819A81311119C0662399F01C
:10150000222389F00E943C10182F682F89819A812C
:101510000E94221069817A81812F0E94A716259648
:10152000E3E00C94B42F0E942F10182FF3CF0E94E9
:101530003C1069817A81F1CFFC01262F40815181D5
:101540006281738184810E94700A089581E0089508
:10155000CF93DF93EC0160E00E949C0ABE010E94E1
:101560006D0ADF91CF9108950E94C51708950E94DA
:10157000C917089508950E94ED0E0E94BA0A2FEF30
:1015800084E39CE0215080409040E1F700C00000DF
:1015900008950E94BB0A0E94A32708950E94BB0AD7
:1015A0000E94B42708950F931F93CF93DF938C016C
:1015B00061E00E949C0AEC01B8010E94690A811155
:1015C00006C080E0DF91CF911F910F910895B8017F
:1015D000CE010E94501F8823A1F3B801CE010E94C2
:1015E000E324882371F3B801CE010E94652088238B
:1015F00041F3B801CE010E945524882311F3B801AC
:10160000CE010E94A11C8823E1F2F8018281882387
:10161000D9F0CB35FDE5DF07A9F170F4C130ECE579
:10162000DE07B1F0CF3DFCE5DF0721F1C115DC4558
:1016300059F40E94C90AC5CFCD35EDE5DE07F9F0B2
:1016400020F1C83ADD45C1F0C8010E94670ABACF4F
:1016500090914C03892F8E7F90FF816080934C0383
:1016600080FF05C081E391E00E946106AACF8FE16F
:1016700091E0FACF0E9408150E94CE0AA2CF0E94E4
:101680004D14E2CF0E945714DFCF0E945B14DCCFD1
:101690000E94D4260E947D0B08950E94810B0E9417
:1016A000D9260895829590E09C01220F331F220FC6
:1016B000331F2C7C95958795959587958373282B5B
:1016C00030E0C901880F991F8A7A359527952575CD
:1016D000822B089508950E946A0B089581E0089571
:1016E0000E946E0B08950895CF93C82F0E946B0B34
:1016F0008C2F0E94700BCF91089580E00E94740B94
:1017000008950E943F250E94740B0895CF930E9474
:101710003F25C82F8091B6028C1789F1C093B6027D
:101720000E9464276093B7027093B8028093B90255
:101730009093BA0280914C0382FF1EC080FF1CC0B0
:1017400089E491E00E94610680914C0380FF14C0FF
:101750001F92CF9384E491E09F938F930E94FA06A7
:1017600080914C030F900F900F900F9080FF04C05A
:1017700082E491E00E9461068C2F0E94740BCF914D
:101780000895ABE0B0E0E7ECFBE00C94992F4F83B9
:10179000588769877A878B8761110E9485131E821B
:1017A0001D8285E0FE013796DE01119601900D92B3
:1017B0008A95E1F78C819D81892B61F449815A8159
:1017C0006B817C818D819E810E94A8122B96E2E024
:1017D0000C94B52F89819A8189238F3F79F3CE01AB
:1017E00001960E94A60A8111E9CFF0CFFC01808109
:1017F00091810E946E100895CF93C82F8823E1F045
:101800008CEF8C0F813AD0F48C2F0E94122481111E
:1018100013C06C2F80910E0190910F010E94E22560
:10182000882329F08C2F0E943F130E94A6138C2F2F
:101830000E9437130E94A613CF91089580E28C0F67
:10184000883048F4C77081E001C0880FCA95EAF774
:101850000E946213EFCFEBE5EC0FE33040F4F0E0D1
:10186000ED54FE4F808190E00E94A225E5CFC85A3A
:10187000C73110F7EC2FF0E0EE0FFF1FEB57FE4FD4
:10188000808191810E94B825D7CF882339F19CEFC0
:10189000980F913A28F40E943F130E94A6130895CE
:1018A00090E2980F983050F4877091E001C0990F42
:1018B0008A95EAF7892F0E946813EFCF9BE5980F6E
:1018C000933028F490E080E00E94A2250895885A81
:1018D000873120F490E080E00E94B82508951F939E
:1018E000CF93DF93182FEB010E94FC0B209739F464
:1018F000812F0E94450CDF91CF911F9108958FE9B0
:101900009FE00197F1F700C000002197EFCF70E052
:1019100060E0893311F460E570E00E946F0C089577
:10192000882321F00E9462130E94A6130895882341
:1019300021F00E9468130E94A6130895B0E0A0E071
:10194000E4EAFCE00C94922F6C01D62FC72FFC0127
:101950001281F580F2949FE0F9220E945813E82E3C
:101960008823B9F0E12E1123A1F08C2F807F8034E1
:1019700021F080E28D0F8830D0F080918A0382FFC1
:1019800016C082E00E9409140E94581391E0E82ECC
:10199000E926BC2EB2948FE0B822FBE0FB1508F4D8
:1019A00068C0EB2DF0E0E354FF4C0C94832FE12C46
:1019B000F0CF0C2F0F70C07F11F00295007F112324
:1019C00099F0002359F080E28D0F883010F0D1118A
:1019D00007C0802F0E9462130E94A6138D2F41C062
:1019E000802F0E947813F8CF8D2F0E94450C002382
:1019F00009F43FC080E28D0F883010F0D11104C08F
:101A0000802F0E94681303C0802F0E947E130E94C3
:101A1000A6132FC00C2F0F70C07FC03211F002959B
:101A2000007FDD2381F0D13009F463C0112309F474
:101A30006DC0FF2009F463C0F601858180FFCECF21
:101A40008F7085835CC080918A0382FD33C011232F
:101A500059F0002329F0802F0E9462130E94A613E0
:101A600080E00E94FC0B05C080E00E94450C011143
:101A7000C7CFEB2DE850FF0B349720F40E943F2591
:101A80000E94740BEE2089F00E94541380FD0DC05B
:101A9000F60112820E944E130E94800FC6010E941E
:101AA000A30E0E944E130E94900FCDB7DEB7E9E05F
:101AB0000C94AE2F112389F0F11006C00E948813F8
:101AC000802B0E94900CD5CF21E0F212F7CF0E941C
:101AD0008813802B0E948F13CCCFF11006C00E9478
:101AE0009C13802F0E94970CC4CF31E0F31609F2AB
:101AF000F6CF112331F085E08F1508F4BACF802F8F
:101B0000E0CF94E09F1508F4B4CFEBCFFF2049F36A
:101B1000D93349F4FFEF27EE33E0F1502040304055
:101B2000E1F700C000008D2F0E94450CA2CF8C2F42
:101B300086958695837069F0813009F09ACF8D2F54
:101B40009C2F9370111102C090E080E00E94B82594
:101B500090CF8D2F9C2F9370111102C090E080E0E8
:101B60000E94A22586CF8C2F8370A1F5111181CF01
:101B70004D2F429546954770440F440F2D2F2F70DF
:101B800030E0042E02C0220F331F0A94E2F790E0E7
:101B900080E0D4FF09C08FE090E002C0880F991F59
:101BA0004A95E2F780959095C695C695C370822BAD
:101BB000932BC23049F058F4C13019F00E944E0FF7
:101BC00058CF0E94450F55CF0E94570F52CF0E9409
:101BD000420F4FCF8695112311F08C2F81708823EF
:101BE00009F447CF4D2F429546954770440F440F57
:101BF0002D2F2F7030E0042E02C0220F331F0A94C5
:101C0000E2F790E080E0D4FF09C08FE090E002C0EE
:101C1000880F991F4A95E2F780959095C695C695CD
:101C2000C370822B932BC23049F058F4C13019F0A5
:101C30000E94BB0F1ECF0E94B20F1BCF0E94C40F89
:101C400018CF0E94660F15CFCF70112329F08C2F6B
:101C50000E94800F8D2F35CF8D2F0E94970C8C2FD7
:101C60000E94900F06CFD23F51F160F4D03FB9F0FF
:101C7000D13F81F0112309F449C0F110AFCE8C2F70
:101C80008F7121C0D33F11F1D43FA1F780918A0316
:101C900082FD26C08C2F8F71112311F314C01123E4
:101CA00049F084E08F1508F4E4CE8C2F8F710E94E8
:101CB000A20FDFCE95E09F1508F4DBCEF6CF8C2F78
:101CC0008F711111CDCF0E94800FD3CE112329F037
:101CD0008C2F8F710E94740FCCCE0E946F0FC9CED3
:101CE000112349F0CF718C2F0E94800F63E08C2F5D
:101CF0000E94EB13BECE81E00E940914E1E0EF15D3
:101D000008F0B7CE82E00E940914B3CEF11000CFE4
:101D10008C2F8F71A5CF0F931F93CF93DF93EC017F
:101D2000688179818A810E9479108C010E94CD0F8F
:101D30000E94410FB801CE010E949E0CDF91CF910D
:101D40001F910F910895CF93DF93EC018B819C81BC
:101D5000892B29F08881998189238F3F51F4DF9164
:101D6000CF910895CE010E948B0ECE010E94A80A49
:101D7000F6CFCE010E94D30A8111F4CF0E945813EE
:101D8000882369F38A81882351F380918A0382FF33
:101D9000E6CF82E00E940914E2CF882321F00E945E
:101DA00078130E94A6130895882321F00E947E13C1
:101DB0000E94A613089590E080E00E94A22590E082
:101DC00080E00E94B8250E9485130E94A613089502
:101DD0000E9447130E94DB0E08950E9472130E9416
:101DE000E80E089592959F70963091F058F4925FA6
:101DF0009F70923058F4803F19F030F4883E30F4F0
:101E000081E008959A5FF4CF843FD1F380E0089594
:101E1000883EB0F3813FD1F7F3CFFC0183819481F9
:101E2000892B29F08081918189238F3F11F480E0F3
:101E30000895808191810E946E100E94F20E089593
:101E4000A5E0B0E0E6E2FFE00C94992F2596E2E0F1
:101E50000C94B52FA6E0B0E0E0E3FFE00C94992FDE
:101E60002696E2E00C94B52F08950E94340F089551
:101E70000E94350F9093C3028093C2020E94DB0E32
:101E8000089508950E94380F08952091C20230915C
:101E9000C302822B932B0E94380F08952091C20217
:101EA0003091C302822393230E94380F089520911A
:101EB000C2023091C302822793270E94380F0895EF
:101EC0000E94340F08950E94600F08950E94630FCE
:101ED0009093C1028093C0020E94DB0E089590E0AF
:101EE00080E00E94660F089521E030E0A90102C061
:101EF000440F551F8A95E2F7CA010E94660F0895A4
:101F000021E030E002C0220F331F8A95E2F7809172
:101F1000C0029091C102822B932B0E94660F0895FC
:101F200021E030E002C0220F331F8A95E2F72095AE
:101F300030958091C0029091C102822393230E9428
:101F4000660F089521E030E002C0220F331F8A950A
:101F5000E2F78091C0029091C102822793270E94EC
:101F6000660F08952091C0023091C102822B932BFD
:101F70000E94660F08952091C0023091C102822311
:101F800093230E94660F08952091C0023091C102F0
:101F9000822793270E94660F08950895262F2770A1
:101FA00091E001C0990F2A95EAF723E076956795AD
:101FB0002A95E1F7660F771F660F771FFA01E60F84
:101FC000F71F50E040E0682F70E08191DF0111972A
:101FD0009B01042E02C0369527950A94E2F72170E2
:101FE00021952827292328272C934F5F5F4F4430C2
:101FF000510559F70895A82FA77023E09695879566
:102000002A95E1F7880F991F880F991FFB01E80FA8
:10201000F91F50E040E080E0219130E00A2E02C03C
:10202000369527950A94E2F721703327042E01C0D4
:10203000220F0A94EAF7822B4F5F5F4F443051051D
:1020400059F70895282F862F923040F4211106C0A9
:10205000692F70E04CEB52E00E94CE0F0895923051
:1020600048F4811107C06CEB72E0892F90E00E9468
:10207000FB0F089580E00895B0E0A0E0E2E4F0E115
:102080000C94922F7C010091C0021091C1028091AA
:10209000C2029091C302082B192BCFE0D0E0CC24D0
:1020A000C394D12CBC2EC6010C2E02C0880F991FE0
:1020B0000A94E2F780239123892B49F4219790F722
:1020C000B12C8B2DCDB7DEB7E9E00C94AE2FB70164
:1020D0008C2F0E94BB16019789F3F3CFCF93DF9328
:1020E000EC010E943C10BE010E94BB16DF91CF9113
:1020F00008951F93CF93DF93EB019091BB02992337
:1021000039F0CB010E946E10DF91CF911F9108959D
:10211000882369F0CB010E943C10182F682FCE0154
:102120000E942210BE01812F0E94BB16EDCFCB0171
:102130000E942F10182FF6CF1F93CF93DF93C091DB
:10214000C40216E08091C5028C1304C0DF91CF91C8
:102150001F910895D0E01C9FF0011D9FF00D1124E8
:10216000EA53FD4F40815181628173818481958161
:102170000E942A0F2196C770E5CF4091F602509138
:10218000F7026091F8027091F9028091FA02909141
:10219000FB020E942A0F08951F93CF93DF93809133
:1021A000FB02807F09F049C08091F802882309F47E
:1021B00044C08091C402C091C5026091F602709142
:1021C000F702A091F902B091FA02D62FD72316E0B8
:1021D000C81799F190E0109711F0DF3F19F40196BC
:1021E0008770F6CF189F9001199F300D1124F901C7
:1021F000EA53FD4F41814713F2CF40814613EFCFA1
:1022000042814111ECCF438154814A1B5B0B483C16
:10221000510528F78091FB028F7080618093FB024B
:10222000F901E553FD4F80818F708061808386EFD7
:1022300092E00E94A30E0E949C10DF91CF911F910B
:102240000895A1E1B0E0E7E2F1E10C94912F8C0157
:1022500085E0F801DE011D9601900D928A95E1F767
:10226000F801E28086EFC82E82E0D82E6091F90254
:102270007091FA026115710509F44EC19091F60250
:102280002091F702892F82238F3F09F445C14081B5
:102290005181A380B480F090F802F501E61BF70BA2
:1022A000FF2009F4EAC08091FB02382F307FE83C20
:1022B000F10508F0A3C031116DC0FE2C251316C026
:1022C000941314C0E11012C08F7080618093FB02E0
:1022D0000E94BD10C6010E94A30E8091FB02F8016E
:1022E00085838F2D6196EAE00C94AD2FA114B10483
:1022F00029F0842F85238F3F09F027C180E0F82F34
:10230000F170DF2E80FF3CC08091C4022091C50295
:1023100036E0821315C04D875E878D859E850E94AD
:102320006E10292F22952F702230F0F0243018F5EE
:102330009F70F1F0F8019581907FD1F4D12C1EC0EF
:1023400090E0389FF001399FF00D1124EA53FD4FC2
:102350006181651306C06081641303C06281E61267
:102360000FC001968770D5CF9F7011F0882331F38D
:10237000805E883018F3C8010E94A30EFD2CB1CFF7
:10238000EE2009F4AECF8091FB0281608093FB02C6
:10239000F12CA7CF251306C0941304C0F801EE203A
:1023A00009F487C0C8010E940D0F882319F1EE209F
:1023B00009F18091FB02803270F02091F602309199
:1023C000F70238872F831986BB86AA868C87CE01B1
:1023D00007960E94A30E86E0F801A6EFB2E00190F6
:1023E0000D928A95E1F70E94CC100E94BD10FF2447
:1023F000F39477CFC8010E94A30EF9CF311113C017
:102400007A2DB98AA88A6E2D89890E94200F86EFBD
:1024100092E00E94A30E86E0F60111928A95E9F7F8
:102420000E94BD10B5CF25130FC094130DC0E1104D
:102430000BC0F8018583C8010E94A30E86E0F60157
:1024400011928A95E9F74DCFC8010E940D0F88239C
:1024500089F2EE2079F28091FB02803208F4BBCF42
:102460002091F6023091F7023A8329831B82BD82C4
:10247000AC828E83CE010196ACCFE83CF10508F02A
:102480003EC0FE2CEE2009F4B5CF25132AC09413CC
:1024900028C08091FB0280FD1BC0982F907FC1F067
:1024A000F8018583903F31F0982F907F905F8F7077
:1024B000892B8583C8010E94A30E86E0F801A6EF50
:1024C000B2E001900D928A95E1F70E94BD1009CF0C
:1024D00086E0F801A6EFB2E001900D928A95E1F74F
:1024E00000CFC8010E940D0F811175CF8091FB02B2
:1024F00081608093FB02C8010E94A30EF2CE7A2D68
:10250000B98AA88A6E2D89890E94200F86E0F6017B
:1025100011928A95E9F7D9CFEE2009F46BCFC80163
:102520000E940D0FF82E882309F464CF86E0F8018D
:10253000A6EFB2E001900D928A95E1F786EF92E066
:102540000E94F60B0E94CC10C0CF81E08E25D7CE22
:10255000ACE0B0E0EEEAF2E10C94982F4F8358879C
:1025600069877A878B879C87CE0107960E94211105
:10257000882369F08A859B85892B39F04F8158859E
:10258000842F85238F3F09F06BC016E05FC086E083
:10259000FE013796DE01119601900D928A95E1F7C2
:1025A0008A859B85892B89F38F81988589238F3F25
:1025B00061F32091C50230E0C90101968770992727
:1025C0004091C4024817190671F40E94ED0E109252
:1025D000C5021092C40286E0E6EFF2E0DF011D9230
:1025E0008A95E9F7D2CF96E0929FD001939FB00DE4
:1025F0001124AA53BD4FFE01319601900D929A9578
:10260000E1F78093C5020E949C10BFCF819FC0015B
:1026100011248A539D4F0E9421118823E9F0E091F3
:10262000C4021E9FF0011124EA53FD4F40815181E5
:1026300062817381848195810E942A0F8091C402F6
:1026400090E00196877099278093C4028091C4021C
:102650009091C5028913DACF2C96E3E00C94B42F45
:1026600069857A858B859C850E942A0F8ECF682F7D
:1026700080910E0190910F010E9484260895682F89
:1026800080910E0190910F010E94922608958091F1
:102690000E0190910F010E94A026089580911C03C5
:1026A000859585958595089580911C03877008957B
:1026B00090911C03977081E009F480E00895809167
:1026C0003F03089590913F03892B80933F03089522
:1026D000809590913F03982390933F0308958093B2
:1026E0003F03089510923F03089580913E0308959B
:1026F00090913E03892B80933E030895809590919D
:102700003E03982390933E03089510923E0308954C
:1027100080911D03089508950E948B130895909150
:102720008A0392FF08C090911D03981721F08093AF
:102730001D030E948C13089580911D03882329F0A6
:1027400010921D0380E00E948C130895CF93DF93B5
:10275000E0910E01F0910F0180913F038083E091A1
:102760000E01F0910F01808190913E03892B8083AF
:1027700090911D03992381F0E0910E01F0910F01DA
:102780008081892B808380910E0190910F010E949E
:10279000CE2581110E949C13C0910E01D0910F0192
:1027A00040E250E06CEF72E0CE010E941C30892BB9
:1027B00059F080E2FE01ACEFB2E001900D928A95F3
:1027C000E1F7CE010E944F25DF91CF910895089542
:1027D0000E94E713089590918A0392FF11C098E038
:1027E000899F90011124622B60931C030E94800F2B
:1027F00080911C038595859585950E94E813089521
:102800000E94800F089510921C0380E00E94E8133C
:10281000089590911C038095892380931C03282F91
:10282000277091F4282F082E000C330B92171306F3
:1028300059F090918A0392FF07C0859585958595FB
:102840000E94900F0E9403140895CF93C82F809187
:102850008A0382FB992790F99C17E9F0C0FB82F963
:1028600080938A038091890390918A030E94821445
:1028700082E00E94091480914C0380FF0CC01F92DB
:10288000CF9384E591E09F938F930E94FA060F9077
:102890000F900F900F90CF91089580918A0382FB43
:1028A000882780F991E089270E942514089581E006
:1028B0000E942514089580E00E942514089590E058
:1028C00080E00E94403021E0883E9E4F09F020E0E9
:1028D000822F089582E090E00E943230089583E0D4
:1028E00090E00E9432300895CF9384E090E00E94FF
:1028F0003230C82F82E290E00E943230982F8C2F25
:10290000CF910895CF93C92F682F84E090E00E9463
:1029100046306C2F82E290E00E944630CF910895BD
:10292000AB01BC018FE090E00E9458300895AB01EC
:10293000BC0183E190E00E945830089560E070E0AF
:10294000CB010E949714089560E070E0CB010E94D3
:1029500090140E949E14089568EE7EEF90E080E04F
:102960000E94643060E082E090E00E94463060E0C7
:1029700083E090E00E9446301092C3021092C2029F
:1029800060E084E090E00E94463064E082E290E003
:102990000E94463060E085E090E00E94463060E0B2
:1029A00086E090E00E9446306FEF87E090E00E9462
:1029B000463040E050E0BA0188E090E00E94583094
:1029C00060E08DE090E00E94463040E050E0BA01C7
:1029D00088E190E00E94583060E087E190E00E943A
:1029E000463040E050E0BA018CE190E00E9458305F
:1029F00070E060E080E290E00E94643040E050E0EF
:102A0000BA0188E190E00E9458300E94A414089511
:102A10000E94AC140895682F8EE090E00E9446302A
:102A200008950E946427609348037093490380933C
:102A30004A0390934B036093440370934503809340
:102A40004603909347030895089508950E9425151D
:102A5000089508950E94291508958AE899E20E9430
:102A600035250E9424150E942615089581E00895B9
:102A70000E9436150895089508950E943B150E94FE
:102A80003C1508950E94A6170E94730B0E949F1D7B
:102A900008950E944F270E9444180E9442150E94E8
:102AA000381C0E942A150895AAE0B0E0EAE5F5E195
:102AB0000C94942F0E9454181091420380E00E94BD
:102AC000CC1718132BC01091430381E00E94CC1740
:102AD000181324C00E9458278C01809140039091C4
:102AE000410308171907A1F08FEF89838A831B829E
:102AF0000E9458278160782F9D838C8349815A8159
:102B00006B818D810E94C10B1093410300934003A0
:102B10000E94860B2A96E7E00C94B02F80914C031C
:102B200081FD0E94D2170E943815D82E82E4E82E2B
:102B300083E0F82E10E0812F0E94CC17082FF701B8
:102B400081917F01081307C0113019F40E941115FB
:102B5000DFCF11E0F0CF802780FF13C0DD2089F0A8
:102B60001E821F83802F817088870E945827816072
:102B7000782F9A8789874E815F8168858A850E9430
:102B8000C10BF70131970083DFCFCF93DF930E9412
:102B9000C016EC01811522E59207E8F5811531E5B3
:102BA000930708F0A3C0883E910510F5803E91057B
:102BB00070F5883A910570F4853A910508F078C06F
:102BC0008130910521F1009711F1049700F5D0E0D3
:102BD000C0E01DC08F3B9105D0F7C85AD0E0CC0FA4
:102BE000DD1FCA54DE4F0990D881C02DD4640FC0B8
:102BF000811540E5940708F066C0C11580E4D80748
:102C000008F05EC0CE019A9581159F4100F7CE0174
:102C1000DF91CF910895811536E5930718F5811559
:102C200045E5940708F07BC0C11584E5D80708F096
:102C300071C09E01237033279C2F96959695C115E0
:102C4000D34508F458C0C1E0D0E002C0CC0FDD1F6E
:102C50002A95E2F730E2939FC0011124C82BD92BAB
:102C6000DA68D5CFC1158AE5D80778F4C11529E50A
:102C7000D20708F05EC0C11538E5D30708F4A7CF26
:102C8000DC2FCC27C06FD06AC2CFCE019056811501
:102C9000904208F09CCF8D2F8F710E94621790E0B8
:102CA000982F882788279F719C012C2BE9013FC012
:102CB000C55AD0E0CC51DE4FC881D0E0D064A7CF58
:102CC000DF70D06AA4CF8370992721E030E002C082
:102CD000220F331F8A95E2F7C695C69580E2C89FFA
:102CE000E0011124C22BD32BDD6891CFD82FCC2744
:102CF000C16FD06A8CCFC1E0D0E002C0CC0FDD1F25
:102D00002A95E2F720E2929FC0011124C82BD92B0B
:102D1000DC687DCFDC2FCC27C46FD06A78CF0E94CF
:102D20006217C82FD0E0DC2FCC27CC27DF71D06210
:102D30006ECF8C2F8F700E94621734E0D695C795A6
:102D40003A95E1F7CF709C2FEC01D06960CF7230DB
:102D500078F461110DC0E82FF0E0EE0FFF1FE70FD0
:102D6000F11DEE0FFF1FE151FF4F859194910895E2
:102D700080E090E008950E94A7160E94C51508956E
:102D800082389105B9F1B0F48133910509F47DC021
:102D900048F48932910509F46DC08A32910509F42D
:102DA0007BC008958533910509F45FC0893391058F
:102DB00009F10895833E9105D9F138F4803E9105DB
:102DC00029F1823E910579F10895863E9105D9F168
:102DD000873E910509F43EC0843E910541F520915E
:102DE0008A0321FF24C08091890384FD19C087EEE6
:102DF00090E0089520918903237009F05AC0209132
:102E00008A0323FF14C089E290E00895209189038A
:102E100020FD38C030918A0330FF09C024FF43C031
:102E200090E080E008952091890322FDF7CF089576
:102E30002091890322FD3AC030918A0330FD39C0C8
:102E400024FFF5CFEDCF2091890323FFF0CF24FDA0
:102E5000E7CFCDCF2091890323FD2EC030918A0387
:102E600031FFEECF84EE90E008952091890325FF95
:102E7000DECFC9CF2091890325FD21C020918A038F
:102E800023FFD5CF89E390E0D2CF2091890326FF9D
:102E9000CECF8AE290E008952091890326FFC7CF24
:102EA00081E390E0089583EE90E0089582EE90E053
:102EB000089580EE90E0089586EE90E0089585E311
:102EC00090E008959091890392FF06C0282F287101
:102ED0002830F9F4877F846093FF06C0282F28717B
:102EE0002831F1F4877E846120918A0320FF06C097
:102EF000382F38713830D9F4877F816021FF06C0C0
:102F0000282F28712831D1F4877E816194FD877E36
:102F10000895282F24712430F9F68B7F8860DCCF48
:102F2000282F2471243101F78B7E8861DDCF382F63
:102F30003171313019F78E7F8860E0CF282F2171F1
:102F4000213121F78E7E8861E1CF08950E945F14C0
:102F5000811102C00E9408150E946A1480934C03DC
:102F60000E94741490938A03809389030E94A5178A
:102F70000E946F1490E00E94420F8091C0029091D5
:102F8000C1020E94630F089508950E94C417089516
:102F900008950E94C8170895E82FF0E0E357FC4F0A
:102FA00080810895EF92FF920F931F93CF93DF9349
:102FB00088E791E00E9461061F921F9203E711E0EB
:102FC0001F930F930E94FA0680E791E00E9461062A
:102FD0008DE8E82E83E0F82EF70180810E94520BE5
:102FE0001F928F93CBE6D1E0DF93CF930E94FA0636
:102FF00089E691E00E9461061F9281E08F931F9302
:103000000F930E94FA0680E791E00E946106F701A3
:1030100081810E94520B1F928F93DF93CF930E9466
:10302000FA0689E691E00E946106EDB7FEB7709658
:103030000FB6F894FEBF0FBEEDBFCDB7DEB7E6E02A
:103040000C94B12F54985C9A3E98469A0895AC011E
:1030500070E0FB01E951FE4F908120E09F3F79F045
:10306000E92FE295EF70F0E020A130E09F7002C000
:10307000359527959A95E2F7209530952170640F44
:10308000751FFB01208308950E94221810928E0361
:1030900010928D0310928C0310928B0382E00E9499
:1030A0008A180E94B40A0895A2E0B0E0EAE5F8E1C7
:1030B0000C94982F1A82198260E0CE0101960E942A
:1030C000271861E0CE0101960E94271842E050E0E7
:1030D000BE016F5F7F4F8BE893E00E941C3021E0C0
:1030E000009709F420E0892B31F089819A8190932F
:1030F0008C0380938B0342E06DE873E08BE893E0F0
:103100000E948B18182F0E94B70A812F2296E3E0A5
:103110000C94B42F0895CF92DF92EF92FF920F9309
:103120001F93CF936C017B01042F222349F081E090
:1031300080934F030E94582790934E0380934D0332
:10314000C0914F03C1110AC0C0E08C2FCF911F91D5
:103150000F91FF90EF90DF90CF90089580914D03F5
:1031600090914E030E947027059770F310E0A8011C
:10317000B601C7010E941C30892B41F0A801B6019D
:10318000C7010E94293010924F03DFCFC0E0FBCF70
:103190000E94062A0E9449150E94132A08950E943F
:1031A000182A0E9454150E94362A08950E94F1267A
:1031B0000E94EC290E942D150E94C8180E94CF1869
:1031C0000E943D15FBCFEF92FF920F931F93CF9379
:1031D000DF93EB01E82FD1110EC0442321F0F0E082
:1031E000E45FFB4FE4916E2F7E2F8E2FCDB7DEB7BD
:1031F000E6E00C94B12F0D2F10E0282F30E044238F
:1032000029F0245F3B4FF901249130E0F6E0CF9F95
:10321000C0011124EFEFF0E0BF010E94392FAB0194
:103220008C2F90E0880F991FA5E5A49FB001A59F62
:10323000700D1124861B970B982F990F980FBF01C3
:10324000601B710B629FD001639FB00D729FB00D28
:1032500011248B2F9D9FB0011124672F7727EF0139
:10326000C61BD70BBE01629FE001639FD00D729F0A
:10327000D00D11247F01E91AF108E09EB001E19E12
:10328000700DF09E700D1124672F7727E61BF70B4A
:10329000E29F8001E39F100DF29F100D1124E12F9A
:1032A000722F4230510599F048F44115510569F0EB
:1032B0004130510581F0EB2F8D2F07C0443051056F
:1032C00069F080F046305105B1F76E2F8FCFE22FB5
:1032D0007B2F812FFACFE22F7D2FF7CFEB2F822F7D
:1032E000712FF3CF7B2F822FED2FEFCF41E00E9484
:1032F000E31808950E9476190895CF93DF93762FEF
:10330000E901682F842F0E947A19798368838A8360
:10331000DF91CF91089580918F03982F9E7F39F48C
:1033200080918F038170826080938F030895843031
:10333000B8F7089588E090E00E943A300895CF925F
:10334000DF92EF92FF926B017C010E948B19B70113
:10335000A60188E090E00E945830FF90EF90DF9047
:10336000CF900895EFE8F3E083E0808311828FEF40
:1033700082838383148260817181828193810E9420
:103380009F19089580914C0380FF76C083EF93E0EE
:103390009F938F930E94FA0680914C030F900F9099
:1033A00080FF6AC080918F0381701F928F9386ED9A
:1033B00093E09F938F930E94FA0680914C030F90A5
:1033C0000F900F900F9080FF57C080918F038695CC
:1033D0001F928F938BEB93E09F938F930E94FA063B
:1033E00080914C030F900F900F900F9080FF44C07E
:1033F000809190031F928F9381EA93E09F938F9324
:103400000E94FA0680914C030F900F900F900F903E
:1034100080FF32C0809191031F928F9387E893E0E1
:103420009F938F930E94FA0680914C030F900F9008
:103430000F900F9080FF20C0809192031F928F9376
:103440008DE693E09F938F930E94FA0680914C0340
:103450000F900F900F900F9080FF0EC080919303FC
:103460001F928F9381E593E09F938F930E94FA06BA
:103470000F900F900F900F900895909193039330B9
:1034800018F49F5F90939303882351F060918F030A
:103490007091900380919103909192030E949F19E3
:1034A000089581E00E943D1A089590919303992315
:1034B00019F0915090939303882351F060918F03FA
:1034C0007091900380919103909192030E949F19B3
:1034D000089581E00E94551A089570E00E941A1D17
:1034E00008956091110180918F0380FF0BC080913E
:1034F000100123E0829FC00111248C569C4F0E9432
:103500006D1A0895E091120180911301E81778F780
:103510008E2F90E0FC01EE0FFF1FE80FF91FEC5615
:10352000FC4F118210821282E2CF80918F038E7F36
:1035300080938F0360918F0370919003809191032A
:10354000909192030E949F1980914C0380FF0FC0BD
:1035500080918F0381701F928F9383ED91E09F93F1
:103560008F930E94FA060F900F900F900F902FEFFD
:1035700080E792E0215080409040E1F700C00000D9
:103580000E94711A089590918F0390FF14C0E091EA
:10359000120190911301E91760F42E2F30E0F90128
:1035A000EE0FFF1FE20FF31FEC56FC4F8183608389
:1035B00042830E94711A0895A3E0B0E0E2EEFAE1BE
:1035C0000C94952F182F062FF42EE22E80918F0346
:1035D00080FF43C0E82FE695F0E0E751FE4F908171
:1035E000909351038E7F823059F49E012F5F3F4F9D
:1035F000812F0E947D194B8169818A810E94C31AA3
:103600001093900300939103F0929203EE2049F1FE
:1036100060918F0370919003809191039091920338
:103620000E949F1980914C0380FF17C080919203E4
:103630001F928F93809191031F928F93809190039B
:103640001F928F938EEA91E09F938F930E94FA06C8
:103650000FB6F894DEBF0FBECDBF2396E6E00C9404
:10366000B12F80914C0380FFF8CF1F92FF921F92E1
:103670000F931F921F9387E891E0E6CFEFE8F3E006
:103680009181282F4381628188E0890F0E94DC1A92
:10369000089581E00E943E1B0895EFE8F3E09181D8
:1036A000282F4381628188EF890F0E94DC1A0895D8
:1036B00081E00E944D1B0895EFE8F3E0628121E173
:1036C000620F08F46FEF282F438181810E94DC1A7A
:1036D000089581E00E945C1B0895EFE8F3E06281A9
:1036E00021E1621B08F460E0282F438181810E9460
:1036F000DC1A089581E00E946D1B0895EFE8F3E065
:10370000438121E1420F08F44FEF282F628181812C
:103710000E94DC1A089581E00E947E1B0895EFE864
:10372000F3E0438121E1421B08F440E0282F62814D
:1037300081810E94DC1A089581E00E948F1B089508
:1037400020E00E94DC1A089580918F0380FF2BC037
:103750008170826080938F03662331F160918F03C3
:103760007091900380919103909192030E949F1910
:1037700080914C0380FF0FC080918F0386951F922C
:103780008F9387E992E09F938F930E94FA060F90A0
:103790000F900F900F904091920360919103809150
:1037A00090030E94A01B089580914C0380FFF3CFEB
:1037B0001F9281E08F9389E792E0E5CF682F81E047
:1037C0000E94A41B089581E00E94DE1B0895682FCB
:1037D00090918F0396958FEF890F09F481E00E94F5
:1037E000A41B089581E00E94E71B089561E00E94F8
:1037F000A41B089580918F03816080938F03809133
:103800004C0380FF0DC01F9281E08F938BE092E00C
:103810009F938F930E94FA060F900F900F900F9036
:1038200080918F0386950E94F61B089580914C032A
:1038300080FF10C080918F03809581701F928F93BD
:1038400082E492E09F938F930E94FA060F900F906C
:103850000F900F9080918F0380FF03C00E94951AF4
:1038600008950E94FA1B089560E00E94A41B089529
:103870008091500381115EC080914C0380FF14C081
:103880008AE393E09F938F930E94FA0680914C0302
:103890000F900F9080FF08C084E293E09F938F9376
:1038A0000E94FA060F900F900E945F14811110C0C1
:1038B00080914C0380FF08C08CEF92E09F938F9320
:1038C0000E94FA060F900F900E9408150E94B219EC
:1038D0000E949A1960938F037093900380939103D1
:1038E000909392036E7FC1F480914C0380FF08C0D7
:1038F00083EB92E09F938F930E94FA060F900F90B4
:103900000E94B2190E949A1960938F0370939003DA
:1039100080939103909392030E948B190E94C21985
:1039200080918F0380FF03C086950E94341C81E044
:10393000809350030895FA01811101C0FB0109959C
:1039400008951F93CF93DF93EC01FB0112811111B6
:103950004FC00E945F138272CA3CFCE5DF0709F486
:1039600060C030F5C63CECE5DE0709F455C060F4F4
:10397000C43C9CE5D90709F443C008F048C0C33CE7
:10398000DC45D9F111E034C04AE75BE169E67BE14F
:10399000C83C9CE5D907C1F149E45BE168E57BE1FE
:1039A000C93CDC4588F149E65BE16AE77BE12CC074
:1039B000CE3CFCE5DF07D1F1A0F449E65AE161E530
:1039C0007AE1CC3CECE5DE07F9F04BE85BE16CE931
:1039D0007BE1CD3CDC45C0F041E55AE169E67AE1A6
:1039E00013C0C73D8CE5D80718F0CE35DD4551F63C
:1039F000812FDF91CF911F9108950E94161CF8CF5F
:103A000042EF5BE163EE7BE10E949B1CF1CF43EE52
:103A10005BE162EF7BE1F8CF48E55BE169E47BE1E4
:103A2000F3CF4CE95BE16BE87BE1EECF81E00E94F4
:103A3000F61BDECF269A45B14F7B55B15064EFB7E8
:103A4000F8949B01220F331F260F371F280F391FB1
:103A50002817390741F4EFBF8FE594E00197F1F79C
:103A600000C000000895DC016D91CD0178E055B9EA
:103A7000000000C067FF45B9660F000000C000C02D
:103A800000C045B900C07A9591F7E2CF0F931F931C
:103A9000CF93DF93811520EC920718F1EC01D05CF5
:103AA0000E945F13182F0E947513182B0E94881311
:103AB000082F0E944C25102B127291E009F490E01F
:103AC00086958170981729F0CC0FCD2FCC1FDD0B78
:103AD000D195CE018F779927DF91CF911F910F91CB
:103AE00008959058F9CF97FF13C0FB01228122233C
:103AF00079F00E94461DFC01EE0FFF1FEE0FFF1F25
:103B0000ED50FF4F65917591859194910E94E31E50
:103B100081E0089590919803923071F48A3050F4C6
:103B200090E009966AE070E00E944D2F875A0E944B
:103B3000870C08958650FBCF0E94302208958CE0B8
:103B400090E00E943230482F50E070E060E04093F7
:103B500098035093990360939A0370939B0388236F
:103B6000C1F08430C9F481E08093530380914C0309
:103B700080FF0EC0809198031F928F938CE495E094
:103B80009F938F930E94FA060F900F900F900F90C3
:103B9000089510925303EACF1092530310929803A2
:103BA000E5CF609198038CE090E00E944630089544
:103BB000809398030E94D11D80914C0380FF0EC01A
:103BC000809198031F928F938DE295E09F938F933E
:103BD0000E94FA060F900F900F900F900895209179
:103BE0005303082E000C990B820F911D27FD9A9507
:103BF00062E070E00E944D2F8F3F09F180935303E4
:103C0000E09153030E2E000CFF0BE551FE4F808117
:103C1000809398030E94D11D80914C0380FF0EC0B9
:103C2000809198031F928F938CE095E09F938F93E0
:103C30000E94FA060F900F900F900F90089581E068
:103C4000DDCF0E944C258695817080939D030E9454
:103C50004C2581708093970380919803813039F4CB
:103C600080919D03882319F089E30E94870C0E94AC
:103C70005F1380939C030E9472130E9485138091AE
:103C80009803823021F158F48823C1F08130D1F0BB
:103C90008FE39CE90197F1F700C00000089584309C
:103CA00051F18530A9F78BE191E00E945D0A85E230
:103CB00090E00E945D0A88E290E006C082EE0E94D9
:103CC000FC0BE6CF88E193E00E945D0AE1CF809192
:103CD0009703811103C083E50E94870C82EE0E9446
:103CE000FC0B8FE39CE90197F1F700C0000087E52A
:103CF0000E94870CCDCF86EE0E94870C88E1F8CF1A
:103D000080919803823011F148F4882381F081304A
:103D100091F080919C030E946F1308958430F9F014
:103D20008530B9F788E290E00E945D0AF2CF82EE1A
:103D30000E94450CEECF8CE20E94870C80919D037F
:103D4000882339F389E30E94870CE3CF82EE0E9437
:103D5000450C809197038111DCCF83E5F4CF88E295
:103D6000F2CFB0E0A0E0E7EBFEE10C94922F6B0104
:103D70007C01C7E0D0E00CE110E0BB24B394D70194
:103D8000C601002E04C0B695A795979587950A940D
:103D9000D2F78F70A1F4B11002C00E948A1D219742
:103DA00004501109CF3FDC0729F4CDB7DEB7E9E0B5
:103DB0000C94AE2FC430D10514F7B12CE0CF0E9483
:103DC0008A1DB12CECCFCF92DF92EF92FF926B0164
:103DD0007C01C114D10481E1E806F104A0F5C1140D
:103DE000D10481E0E806F10420F08091980382304C
:103DF00051F10E94211EC114D10481E0E806F104B2
:103E000038F180919803811123C081E0E81AF1080C
:103E1000C701B6012AE096958795779567952A950B
:103E2000D1F778528F4F9F4F0E94B11E83E0D82266
:103E3000EE24FF24C701B60174528F4F9F4F0E949A
:103E4000B11E0E94801EFF90EF90DF90CF900895EA
:103E5000C701B601F4CFA4E0B0E0E1E3FFE10C94C8
:103E6000972F8C01892B21F0F8018081811104C0EA
:103E70002496E4E00C94B32F19821A821B821C82D0
:103E8000BE016F5F7F4FC8010E94991F8C0169813D
:103E90007A818B819C8197FDE7CF0E94E31EE4CF5E
:103EA0000F931F93CF93DF93EC018B01FB01828172
:103EB000882389F00E945F138272C33EFCE5DF070E
:103EC00081F190F4C13EECE5DE0719F140F5C03E0A
:103ED0009CE5D907D1F0B801CE010E94731DDF9196
:103EE000CF911F910F910895C53EECE5DE07E9F0F3
:103EF000D0F0C63E8CE5D807D1F085E0C13B9DE50A
:103F0000D90749F70E94D81DE6CF811104C081E08E
:103F100003C08111FCCF8FEF0E94EF1DDCCF80E04A
:103F2000F1CF81E0EFCF82E0EDCF83E0EBCF84E013
:103F3000E9CFCF92DF92EF92FF92FB01DC012C914F
:103F400027FD0AC0422F50E070E060E040835183BB
:103F50006283738301961CC0322F307E303C81F522
:103F6000422F50E070E060E036E0440F551F661FBE
:103F7000771F3A95D1F7407C5770662777271196BF
:103F80002C912F73422B408351836283738302965B
:103F90004081518162817381585D610971094115C8
:103FA00058406105710538F44FEF5FEFBA01408367
:103FB000518362837383FF90EF90DF90CF900895D9
:103FC000322F307F303E61F511964C91119750E0C1
:103FD00070E060E036E0440F551F661F771F3A958A
:103FE000D1F7407C5F7066277727C22ED12CF12C49
:103FF000E12C2CE0CC0CDD1CEE1CFF1C2A95D1F72B
:10400000EE24FF244C295D296E297F2912962C91DC
:104010002F73422B40835183628373830396B8CFFF
:10402000322F387F303F09F04CC0253F08F049C09F
:1040300011964C9150E070E060E03CE0440F551F59
:10404000661F771F3A95D1F76A017B01CC24B0EF48
:10405000DB22B3E0EB22FF24422F50E070E060E06F
:10406000A2E1440F551F661F771FAA95D1F7442779
:1040700055276C7177274C295D296E297F29DC0132
:1040800013962C9113972F73422B1296CC90D12C10
:10409000F12CE12CB6E0CC0CDD1CEE1CFF1CBA951B
:1040A000D1F7B0ECCB22BFE0DB22EE24FF244C2979
:1040B0005D296E297F29408351836283738304962F
:1040C00067CF4FEF5FEFBA0141CFCF93DF93EC01A2
:1040D000FB018281882309F464C1C430FDE5DF0758
:1040E000E0F5CB3F9CE5D90730F49E0122503C45DA
:1040F00024313105D8F50E94741490938A0380937B
:104100008903C231ECE5DE0709F41FC108F06EC077
:10411000C9308CE5D80709F4F2C008F03FC0C530BB
:10412000ECE5DE0709F4DBC058F5C3308CE5D807B1
:1041300009F4CDC008F0CFC0809189038160C230FE
:10414000DC4509F4AEC08091890390918A030E94F6
:1041500082140E94ED0E80E009C0C63AEDE5DE074C
:1041600051F238F4C2369DE5D90729F2DF91CF919B
:1041700008959E012E5A3D4523303105B8F7BBCF37
:10418000809189038062C730FCE5DF0709F489C0AC
:1041900008F4B1C080918903806483C0CD309CE570
:1041A000D90709F4BAC070F4809189038E7FCB30AF
:1041B000FCE5DF0709F475C008F4A7C08091890306
:1041C0008D7F6FC0CF309CE5D90709F4B6C008F4E5
:1041D000A8C0C031FCE5DF0709F4B3C0C131DC453C
:1041E00009F0B1CF809189038F7B5BC0C1159DE53C
:1041F000D90709F4B4C098F5CB3FFCE5DF0709F413
:1042000072C0B8F4C4319CE5D90709F4B6C008F40B
:10421000A2C0C531DC4509F096CF8091890382FBAD
:10422000992790F921E0922790FB82F990FB83F97E
:1042300038C0CD3F8CE5D80709F477C008F457C0E3
:10424000CE3FECE5DE0709F474C080918A038360F9
:10425000CF3FDC4509F077CF80938A0374CFC23615
:104260008DE5D80709F496C068F4C230EDE5DE07A5
:1042700009F48CC008F477C0C330DD4509F063CF82
:1042800080E085C0CE3A9DE5D907E9F068F49091C9
:104290008903892F8E7F90FF8160C63ADD4509F042
:1042A00052CF809389034FCFCF3A8DE5D80789F15C
:1042B000C03BDD4509F047CF90918A03892F877F66
:1042C00093FF8860C9CF80918A038860C5CF8091B1
:1042D00089038260E6CF809189038460E2CF809178
:1042E00089038860DECF80918A038160B5CF809199
:1042F0008A038260B1CF809189038061D2CF0E940E
:10430000ED0E809189038068CCCF809189038C6009
:10431000C8CF80918A03877F9FCF809189038B7F4D
:10432000C0CF80918903877FBCCF80918A038E7F25
:1043300093CF80918A038D7F8FCF809189038F7E69
:10434000B0CF809189038F7DACCF0E94ED0E80911C
:1043500089038F77A6CF80918903837FA2CF809135
:104360008A038C7F79CF80918A03982F90959170E2
:104370008E7F892B90FB81F96FCF0E94ED0E90917B
:104380008903892F97FB87F980588BCF81E00E94A2
:104390000B15D9CE90918903892F8F7E94FF806170
:1043A00080CF81E0E3CEB0E0A0E0E9EDF1E20C9453
:1043B000942FE82FF0E0E459FA4FD490282F269557
:1043C0002695269530E0F901E45FF94F0491877056
:1043D00010E0082E02C0159507950A94E2F70170C7
:1043E0001127F901E450FA4FE490F12C082E02C095
:1043F000F594E7940A94E2F791E0E922FF24F901A9
:10440000E451FA4FC491D0E002C0D595C7958A9582
:10441000E2F7C170DD270115110519F081EE0E9448
:10442000FC0BE114F10419F086EE0E94FC0B8D2DBB
:104430000E94870CE114F10419F086EE0E94450CED
:104440000115110519F081EE0E94450CCD2B19F0D4
:104450008CE20E94870CCDB7DEB7E7E00C94B02F5A
:10446000982F9F709A50963020F0805D0E94D32143
:104470000895895AFBCFEF92FF920F931F93CF932A
:10448000DF938C01F62E8AE0E82EF80184918823D0
:1044900009F454C0813009F04DC0E8012196FE01B5
:1044A0008491813091F42196FE0184910E94870CC1
:1044B0008E010F5F1F4F8F2D815038F3EFE9FFE022
:1044C0003197F1F700C00000F7CF823039F4E801EE
:1044D0002296FE0184910E94FC0BEACF833039F4CE
:1044E000E8012296FE0184910E94450CE1CF8430C0
:1044F000F9F6E8012296FE01249190E080E0FE01A9
:1045000031962053330B2A30310548F0019780F261
:10451000EFE9FFE03197F1F700C00000F7CFE89E28
:10452000A001E99E500D1124C901840F951F24910B
:10453000EF01E5CF0E94D321E801BACFCDB7DEB7B6
:10454000E6E00C94B12FCF93C82F1F928F9382E295
:1045500096E09F938F930E94FA0681E090E002C05C
:10456000880F991FCA95E2F70E94420F0E94ED0E34
:104570000F900F900F900F90CF910895B0E0A0E0B2
:10458000E4ECF2E20C94942FEBEFE80FEF3308F039
:104590003EC1F0E0E753FF4C0C94832F0E946F1450
:1045A0001F928F9386EC99E09F938F930E94FA0657
:1045B0000E946A1483FB992790F91F929F9382FBB4
:1045C000992790F91F929F9381FB992790F91F9249
:1045D0009F93982F91701F929F931F928F938DE7B7
:1045E00099E09F938F930E94FA060E94741493FBA4
:1045F000222720F91F922F9387FB222720F91F9251
:104600002F9386FB222720F91F922F9385FB2227C9
:1046100020F91F922F9384FB222720F91F922F93BA
:1046200083FB222720F91F922F9382FB222720F958
:104630001F922F9391FB222720F91F922F93292F4E
:1046400021701F922F9381FB222720F91F922F9315
:10465000282F21701F922F939F938F938EE798E0BE
:104660009F938F930E94FA068DB79EB78A960FB6D6
:10467000F8949EBF0FBE8DBF81E01CC086E89AE013
:104680000E9461060E940815F7CF89EC96E00E940F
:104690006106F2CF80914C03807F80934C038EEAB9
:1046A00096E00E94610682E89AE00E94610681E03D
:1046B00080935403CDB7DEB7E7E00C94B02F86E6C5
:1046C0009AE00E9461060E94C90AD6CF90914C03DD
:1046D000892F8E7F90FF816080934C0380FF03C001
:1046E0008AE59AE0D4CF8DE49AE00E946106809139
:1046F0004C03817F80934C03BFCF90914C03892F53
:104700008D7F91FF826080934C0381FF08C080E41D
:104710009AE00E94610680914C038160EBCF82E3B6
:104720009AE0B5CF90914C03892F8B7F92FF8460E4
:1047300080934C0382FF03C083E29AE0EACF83E1D7
:104740009AE0A5CF90914C03892F877F93FF8860D3
:1047500080934C0383FF03C087E09AE0DACF8AEFAF
:1047600099E095CF8DEE91E09F938F938BEA96E041
:104770009F938F930E94FA060F900F900F900F90C7
:104780007BCF0E946427062FF72EE82ED92EC091EA
:104790008903C7FBCC27C0F910918803D091210170
:1047A0000E943F25DF92EF92FF920F931F92CF93CB
:1047B0001F921F931F92DF931F928F9387E296E0C1
:1047C0009F938F930E94FA068DB79EB70E960FB6F1
:1047D000F8949EBF0FBE8DBF4FCF0E94ED0E9091FB
:1047E0008903892F97FB87F980588093890387FF76
:1047F00003C080EF99E04BCF85EE99E048CF80E091
:104800000E94A32239CF8953FBCF8D51F9CF83EE7C
:1048100099E00E94610680E04DCF80E008950E94FB
:104820000D240895CF93C82F80915403882331F02D
:10483000813099F01092540380E00DC00E945F1304
:104840008232D1F78C2F0E940D24811119C08C2F38
:104850000E94BE228170CF9108950E945F13823220
:1048600089F38C2F0E940F24811119C0C431C9F023
:1048700050F4CB3061F08CE196E00E94610613C0E9
:1048800081E090E0E7CFC93261F0C833A1F78EEA4A
:1048900096E00E9461068EE196E00E94610681E04A
:1048A000D9CF1092540380E0D5CFCF93DF93EB01A3
:1048B00086319C4511F50E945F139A81992399F0E6
:1048C0008A7A91E009F490E090935503811109C030
:1048D00089E20E9437130E94A61380E0DF91CF91F6
:1048E000089585E3F6CF80915503811104C089E2D4
:1048F0000E943F13F0CF85E3FBCF81E0EFCF0F9312
:104900001F93CF93DF93C42FD22FFC018281882382
:10491000C9F0409358030E945827909357038093FF
:10492000560380E28C0F883040F4C77081E001C0EC
:10493000880FCA95EAF70E94900CDF91CF911F91E2
:104940000F91089510915803141332C080915603AB
:10495000909157030E947027883C910548F5C0E26A
:10496000CD0F1D17B9F080E2810F883040F4177029
:1049700081E001C0880F1A95EAF70E94970CC830B1
:1049800048F481E09D2F977001C0880F9A95EAF74F
:104990000E94900C802F0E94870CC83070F6D77050
:1049A00081E001C0880FDA95EAF70E94970CC5CF25
:1049B00080E28C0F883008F6C77081E001C0880F54
:1049C000CA95EAF7F2CF0F939C01CB01243F4CE547
:1049D000340759F1A8F4293DFCE53F0701F12A3DD0
:1049E0004CE53407D1F1283D3C4591F406E221EE37
:1049F00041EE68ED7CE50E947F2480E00F910895F0
:104A0000263FFCE53F07E9F0B0F0273F3C45F9F0D1
:104A1000FC018281882339F110925803EFCF07E21D
:104A200025EE45EE69ED7CE5E6CF06E221EE40EEAF
:104A300064EF7CE5E0CF07E225EE44EE65EF7CE530
:104A4000DACF06E221EE42EE66EF7CE5D4CF07E254
:104A500025EE46EE67EF7CE5CECF08E221E045EE9D
:104A60006AED7CE5C8CF81E0C9CF9093B502809311
:104A7000B402089590935E0380935D030895E091DE
:104A80005D03F0915E03309729F00190F081E02DF5
:104A90000995089580E008950E943F250895EF92BA
:104AA000FF920F931F93CF93DF93EC01E0915D038F
:104AB000F0915E03309709F440C080912101882372
:104AC00041F08091890387FF04C08881898386E053
:104AD00088830280F381E02DCE01099580914C03FB
:104AE00082FF2BC080FF04C08FE99AE00E9461061C
:104AF00010E000E089E9E82E8AE0F82E80914C036E
:104B000080FF0EC0FE01E00FF11F80811F928F9386
:104B1000FF92EF920E94FA060F900F900F900F9065
:104B20000F5F1F4F0830110549F780914C0380FF3C
:104B300004C087E99AE00E946106CDB7DEB7E6E0DF
:104B40000C94B12F20915B0330915C032817390737
:104B500071F090935C0380935B03E0915D03F091AF
:104B60005E03309721F00680F781E02D09950895C6
:104B70002091590330915A032817390771F0909307
:104B80005A0380935903E0915D03F0915E033097DF
:104B900021F00084F185E02D09950895FC013296FD
:104BA00080912101882321F0809189039EE187FF74
:104BB00096E080E0915008F4089521912223D1F3EA
:104BC0008F5FF8CF662301F1209121012223F1F0BC
:104BD0002091890327FF1AC0462F46954695469592
:104BE0004E3190F4677021E030E002C0220F331F95
:104BF0006A95E2F7840F911DFC01828190E02823E1
:104C0000392381E0232B69F480E00895FC0132967A
:104C100008962191261721F0E817F907D1F7F4CF6C
:104C200081E008959C01FC0132969FEF80E0419164
:104C3000461751F09F3F19F4411101C0982F8F5F23
:104C40008630A9F79F3F09F40895290F311D97FD7C
:104C50003A95F90162830895FC01329608962191F4
:104C6000261303C0DF0111971C92E817F907B9F763
:104C70000895E62FE695E695E695EE3170F4E80F97
:104C8000F92FF11D677021E030E001C0220F6A9515
:104C9000EAF78281822B8283089580914C0380FF02
:104CA0000CC01F926F938FEC9AE09F938F930E949A
:104CB000FA060F900F900F900F900895E62FE6954B
:104CC000E695E695EE3178F4E80FF92FF11D67705F
:104CD00021E030E001C0220F6A95EAF72095828139
:104CE00028232283089580914C0380FF0CC01F92DB
:104CF0006F9381EB9AE09F938F930E94FA060F9037
:104D00000F900F900F90089520912101222339F0E8
:104D10002091890327FF03C00E94392608950E942D
:104D20001226089520912101222339F02091890330
:104D300027FF03C00E945E2608950E942C26089536
:104D4000FC01329680912101882351F080918903E2
:104D500087FF06C08EE1DF011D928A95E9F708956D
:104D600086E0F9CF08950E94B2260895811106C009
:104D700081E080935F030E94B326089582E0F9CF1B
:104D800083E080935F030E94B32608950E94B626B5
:104D9000089581E080935F030E94B32608950E94E6
:104DA000C9260895089508950E94D3260895089568
:104DB00008950E94D22608950E94D7260E94541872
:104DC0000E94D82680E00E94CC1791E0811107C094
:104DD00081E00E94CC1791E0811101C090E0892F01
:104DE000089585B7806885BF85B7806885BF0895B9
:104DF0001F921FB61F9211248F939F93AF93BF935F
:104E000080916003811113C080919E0390919F0354
:104E1000A091A003B091A1034196A11DB11D809363
:104E20009E0390939F03A093A003B093A103BF910F
:104E3000AF919F918F911F901FBE1F9018958091E9
:104E4000A603843031F10E94480B1092600388E180
:104E500090E020E40FB6F894A895809360000FBE10
:104E60002093600083B7817F846083BF83B78160B4
:104E700083BF7894889583B78E7F83BF0FB6F894ED
:104E8000A895809160008861809360001092600016
:104E90000FBE08950E94ED0E0E944D0B089582E012
:104EA00084BD93E095BD9AEF97BD80936E00089501
:104EB0002FB7F89480919E0390919F03A091A00337
:104EC000B091A1032FBF08952FB7F89460919E036E
:104ED00070919F038091A0039091A1032FBF08952B
:104EE0009C014FB7F89480919E0390919F03A091ED
:104EF000A003B091A1034FBF821B930B0895789438
:104F00001F921FB61F9211248F939F93AF93BF934D
:104F100080919E0390919F03A091A003B091A10363
:104F20000196A11DB11D80939E0390939F03A093B2
:104F3000A003B093A103BF91AF919F918F911F9058
:104F40001FBE1F90189587E797E7909301088093FD
:104F5000000888E19AE00FB6F894A8958093600065
:104F60000FBE90936000FFCF88E19AE00FB6F894EF
:104F7000A895809360000FBE90936000FFCF809152
:104F8000870308950895CF93DF93EC018091210169
:104F90008823B1F18091890387FF32C060E282E00B
:104FA0008093E9008FEF9091E800815095FD06C055
:104FB00095ED9A95F1F700008111F5CF8091E80009
:104FC00085FF1BC08091210170E050E040E081111D
:104FD00004C050E040E068E070E0CE010E94A72AE3
:104FE0008091E8008E778093E80080E2FE01A7E6DA
:104FF000B3E001900D928A95E1F7DF91CF9108958A
:1050000068E081E0CDCF8093630370936503609384
:1050100064038091A603843001F582E08093E90067
:105020008FEF9091E800815095FD06C095ED9A951F
:10503000F1F700008111F5CF8091E80085FF0DC0E8
:1050400050E040E063E070E083E693E00E94A72A2E
:105050008091E8008E778093E8000895BC0184E099
:105060000E9403280895BC0183E00E94032808954C
:10507000089581E09BE00E9461068091A503811163
:1050800009C00E94372C0E94942C8091E200846019
:105090008093E20008958DEF9AE00E9461061092DD
:1050A000A503089589EF9AE00E9461060E94C9262F
:1050B000089585EF9AE00E9461066091A20381E065
:1050C000611101C080E00E94C026089581EF9AE03E
:1050D0000E9461069091A60381E0943009F080E07F
:1050E0006091A2030E94C6260895209162032F5F5B
:1050F000822F62E30E942D2F992319F020936203DF
:10510000089510926203809166038823F1F08091E4
:10511000A6038430C1F49091E9009F702091EC00C7
:10512000822F817020FD80E8892B93E09093E90025
:105130009091EB0090FF04C09091EE0097FD08C0A5
:105140008F708093E9001092660308951092F10029
:105150009091E80095FDFACF9091E80090FFF0CF94
:105160009091E8009E779093E800EACF42E061ECEE
:1051700081E00E94B32B42E261EC82E00E94B32BFB
:1051800042E261EC83E00E94B32B9091A60381E0A0
:10519000943009F080E06091A2030E94B626089541
:1051A0008091A803833009F461C030F48130D1F1DB
:1051B000823009F49EC008958A3009F48AC08B3089
:1051C00009F46FC0893009F050C08091A703813283
:1051D00009F04BC08091AB039091AC03029708F0AB
:1051E00044C08091E800877F8093E8008091E800C8
:1051F00082FF37C09091F3008091F200029731F462
:105200008091F100813011F0863021F48091F1001D
:10521000809387038091E8008B778093E8000E9459
:10522000E72B23C08091A703813AF9F48091E8002D
:10523000877F8093E8008091AB039091AC03892B2A
:1052400061F460E287E693E070E00E94F62A8091C4
:10525000E8008B778093E800089560E090E080E0BC
:10526000F3CF8091A6038111C1CF08958091A70348
:10527000813AD9F78091AB039091AC03892BA9F7C0
:105280008091E800877F8093E8008091E80080FFAC
:10529000FCCF809121018093F1008091E8008E770E
:1052A000BCCF8091A703813201F78091AB0390912D
:1052B000AC03892BD1F68091E800877F8093E800CA
:1052C0000E94E72B8091A903809321010E94ED0E9B
:1052D00008958091A703813241F68091E800877F8D
:1052E0008093E8000E94E72B8091AA0380938803B3
:1052F00008958091A703813A09F0B7CF8091E80023
:10530000877F8093E8008091E80080FFFCCF809148
:105310008803C1CF9FB7F894109266039FBF909106
:10532000A603943009F048C02091E9002F70309115
:10533000EC00932F917030FD90E8922B23E02093A6
:10534000E9002091EB0020FF34C02091EE0027FF00
:1053500030C020916103222321F02091E80025FF35
:1053600028C01092610326E03091E80035FF14C098
:105370008093F1008091E80085FD27C08091E800CE
:1053800080FFFCCF8091E8008E778093E8009F70CB
:105390009093E90080E008953091A603343049F4F9
:1053A0003091EB0035FD05C0215041F481E0809340
:1053B00061039F709093E9008FEF0895EFE9FFE09C
:1053C0003197F1F700C00000CFCF8FB7F89421E0FC
:1053D000209366038FBFDBCF84B7877F84BF0FB670
:1053E000F894A89580916000886180936000109285
:1053F00060000FBE80E890E00FB6F89480936100E3
:10540000909361000FBE0E94CF2608950E94372C12
:105410000E94942CE2EEF0E0808184608083789496
:105420000E94122F089585E191E00E943A25089587
:105430008091A603853051F48DEE9AE00E946106BA
:105440008091A603853019F00E944A2708950E9492
:105450001F278091A403882399F30E94DC268823C8
:1054600079F30E94912A0E94ED0EEACF08950E94DE
:105470003A2A0895292F33272330310521F168F482
:105480002130310509F443C02230310509F444C00C
:1054900090E080E030E020E026C02132310551F17B
:1054A00022323105A9F76330710590F7FB01EE0F49
:1054B000FF1FE955FD4F208131816C557D4FFB0168
:1054C000808190E010C099278130910581F000978C
:1054D00029F00297E9F6E5E0FBE002C0EBE2FBE031
:1054E000849190E09F01FA01318320830895E7E1E0
:1054F000FBE0F6CF6330710558F6660F771FFB01AE
:10550000E355FD4F2081318189E090E0ECCF82E1CD
:1055100090E02AE83BE0E7CF8BE590E02FE23BE02C
:10552000E2CF80E189BD82E189BD09B400FEFDCFF3
:105530008091D8008F7D8093D8008091E0008260B8
:105540008093E0008091E00081FDFCCF0895AF9250
:10555000BF92CF92DF92FF920F931F93CF93DF936F
:105560006C01EB018A010E94062CF82E811123C0E8
:105570000115110539F0F80180819181C81BD90B03
:10558000C80ED91EB12CA12C2097A9F08091E8005B
:1055900085FD22C08091E8008E778093E800011598
:1055A0001105A1F0F80180819181A80EB91EB18288
:1055B000A08285E0F82E8F2DDF91CF911F910F9162
:1055C000FF90DF90CF90BF90AF9008950E94062C7F
:1055D0008823D1F2F82EEFCFF60181916F018093ED
:1055E000F1002197FFEFAF1ABF0ACECFFC018091E7
:1055F000AD039091AE0386179707A0F06115710572
:1056000029F49091E8009E779093E80090E061156E
:10561000710551F4911108C08091E80082FF34C0F7
:1056200080E00895BC01F2CF8091A6038823C1F1E8
:105630008530C1F18091E80083FD30C08091E800A1
:1056400082FDEACF8091E80080FFE1CF8091F300F6
:105650002091F200382F6115710519F028303105BD
:1056600058F091E02830310509F090E02091E800F1
:105670002E772093E800CBCF81918093F100615089
:1056800071092F5F3F4FE7CF8091A603882341F038
:10569000853041F08091E80083FFBECF81E008951E
:1056A00082E0089583E00895FC018091AD0390911C
:1056B000AE0386179707A0F06115710529F4809154
:1056C000E8008E778093E80090E06115710551F451
:1056D000911108C08091E80082FF35C080E00895F4
:1056E000BC01F2CF8091A6038823C9F18530C9F1AE
:1056F0008091E80083FD31C08091E80082FDEACF0F
:105700008091E80080FFE1CF8091F3002091F200CA
:10571000382F6115710519F02830310558F091E0E6
:105720002830310509F090E08091E8008E77809371
:10573000E800CBCF84918093F100319661507109DC
:105740002F5F3F4FE6CF8091A603882341F085303D
:1057500041F08091E80083FFBDCF81E0089582E0B1
:10576000089583E00895982F973028F08F708093E4
:10577000E90081E008959093E900242F762F50E00E
:10578000981731F07091EC002091ED005091F000ED
:1057900021FD02C09F5FE8CF3091EB003E7F309348
:1057A000EB003091ED003D7F3093ED003091EB0048
:1057B00031603093EB007093EC002093ED00509338
:1057C000F0002091EE0027FDE5CF80E00895809164
:1057D000A70387FF13C08091E80082FF06C0809175
:1057E000E8008B778093E80004C08091A6038111C4
:1057F000F2CF08958091A6038823D9F38091E80021
:1058000080FFF8CF8091E8008E77ECCF2091E40004
:105810003091E50095E6A9012091EC00822F81707E
:1058200020FF06C08091E80080FF06C080E0089558
:105830002091E80022FD1AC08091A603882389F0F8
:10584000853089F08091EB0085FD0FC02091E40048
:105850003091E50042175307F9F29150E1F684E0E8
:10586000089582E0089583E0089581E008950E94FC
:10587000A62C0E94AE2CE0EEF0E080818160808357
:10588000E8EDF0E080818F77808319BCA7EDB0E070
:105890008C918E7F8C9380818F7E80831092A50364
:1058A00008950F931F93CF93DF930E94A62C0E941D
:1058B000AE2CC8EDD0E088818F778883888180689E
:1058C000888388818F7D888319BC1092A6031092EB
:1058D000A2031092A4031092A30300EE10E0F801BB
:1058E00080818B7F808388818160888342E060E053
:1058F00080E00E94B32BE1EEF0E080818E7F808318
:10590000E2EEF0E080818160808380818860808326
:10591000F80180818E7F8083888180618883DF9118
:10592000CF911F910F910895E8EDF0E080818F7E77
:105930008083E7EDF0E080818160808384E082BF36
:1059400081E08093A5030E94512C0895E8EDF0E0DA
:1059500080818E7F80831092E20008951092DA0099
:105960001092E10008951F920F920FB60F9211242A
:105970002F933F934F935F936F937F938F939F9357
:10598000AF93BF93EF93FF938091E10082FF0BC031
:105990008091E20082FF07C08091E1008B7F8093BD
:1059A000E1000E9475288091DA0080FF19C0809183
:1059B000D80080FF15C08091DA008E7F8093DA00D6
:1059C0008091D90080FF96C080E189BD82E189BDC8
:1059D00009B400FEFDCF81E08093A6030E94392820
:1059E0008091E10080FF19C08091E20080FF15C026
:1059F0008091E2008E7F8093E2008091E2008061DE
:105A00008093E2008091D80080628093D80019BC16
:105A100085E08093A6030E9459288091E10084FFCD
:105A20002BC08091E20084FF27C080E189BD82E124
:105A300089BD89B5982F917080FFFBCF8091D800E8
:105A40008F7D8093D8008091E1008F7E8093E1006C
:105A50008091E2008F7E8093E2008091E20081607D
:105A60008093E2008091A203882309F449C084E076
:105A70008093A6030E9466288091E10083FF29C0DD
:105A80008091E20083FF25C08091E100877F8093B1
:105A9000E10082E08093A6031092A2038091E100CE
:105AA0008E7F8093E1008091E2008E7F8093E20000
:105AB0008091E20080618093E20042E060E080E05B
:105AC0000E94B32B8091F00088608093F0000E94C8
:105AD0005228FF91EF91BF91AF919F918F917F914C
