:100000000C9440060C945D060C945D060C945D0601
:100010000C945D060C945D060C945D060C945D06D4
:100020000C945D060C945D060C94DE200C949A20D2
:100030000C9431220C945D060C945D060C945D06C4
:100040000C945D060C945D060C945D060C945D06A4
:100050000C945D060C940D220C945D060C945D06C8
:100060000C945D060C945D060C945D060C945D0684
:100070000C945D060C945D060C945D060C945D0674
:100080000C945D060C945D060C945D060C945D0664
:100090000C945D060C945D060C945D060C945D0654
:1000A0000C945D060C945D060C945D060631FF0908
:1000B00074A1010975150026FF00952075088102BD
:1000C0000976150026FF00952075089102C00501EC
:1000D0000980A101850319012AB700150126B7007F
:1000E000950175108100C0050C0901A10185041955
:1000F000012AA002150126A002950175108100C0F9
:1001000005010906A1018506050719E029E7150083
:1001100025019508750181020507190029EF1500D1
:10012000250195F07501810205081901290595053C
:1001300075019102950175039101C00660FF096187
:10014000A1010962150026FF0095207508810209AA
:1001500063150026FF00952075089102C00501096E
:1001600006A101050719E029E71500250195087585
:100170000181029501750881010507190029FF1504
:100180000026FF009506750881000508190129055C
:10019000950575019102950175039101C00000005C
:1001A000000000000000000000000000000000004F
:1001B000000000000000000000000000000000003F
:1001C000007E0F00D4FFFFFFC70000007800000092
:1001D00000000000002A2B280000000000000000A2
:1001E000000000000000000029000000002C1E3468
:1001F00020212224342627252E362D3738271E1F6E
:10020000202122232425263333362E37381F040598
:10021000060708090A0B0C0D0E0F10111213141506
:10022000161718191A1B1C1D2F3130232D350405E4
:10023000060708090A0B0C0D0E0F101112131415E6
:10024000161718191A1B1C1D2F3130354C72676296
:100250006C696768742064697361626C65205B45D2
:100260004550524F4D5D3A207267626C6967687401
:100270005F636F6E6669672E656E61626C65203DB7
:100280002025750A007267626C6967687420656E64
:1002900061626C65205B454550524F4D5D3A20725E
:1002A00067626C696768745F636F6E6669672E6505
:1002B0006E61626C65203D2025750A007267626C74
:1002C0006967687420746F67676C65205B4545508B
:1002D000524F4D5D3A207267626C696768745F6364
:1002E0006F6E6669672E656E61626C65203D2025C4
:1002F000750A0044454255473A2064697361626C4F
:1003000065642E0A0044454255473A20656E616295
:100310006C65642E0A003F00433E20004F6E6573FB
:10032000686F743A206163746976653A2025640ABF
:10033000000A002530325820006B6579626F6172C7
:10034000645F7265706F72743A20007267626C69E4
:100350006768745F636F6E6669672E737065656446
:10036000203D2025640A007267626C696768745FCB
:10037000636F6E6669672E76616C203D2025640A86
:10038000007267626C696768745F636F6E66696745
:100390002E736174203D2025640A007267626C69C7
:1003A0006768745F636F6E6669672E687565203D68
:1003B0002025640A007267686C696768745F636F00
:1003C0006E6669672E6D6F6465203D2025640A00A6
:1003D0007267626C696768745F636F6E6669672EC7
:1003E000656E61626C65203D2025640A007267625B
:1003F0006C696768745F636F6E6669672045455016
:10040000524F4D3A0A007267626C696768745F699F
:100410006E6974207267626C696768745F636F6E7F
:100420006669672E6D6F6465203D20302E205772FF
:100430006974652064656661756C742076616C759D
:10044000657320746F20454550524F4D2E0A00723F
:1004500067626C696768745F696E6974206565635B
:100460006F6E666967206973206E6F7420656E61B8
:10047000626C65642E0A007267626C696768745FFB
:10048000696E6974207374617274210A0072676204
:100490006C696768745F696E69742063616C6C6510
:1004A000642E0A005B735D000A0025303862003A52
:1004B000200025303258000A722F63203031323349
:1004C000343536370A000A0025303258006C65642E
:1004D0005F7461736B3A20007267626C696768745D
:1004E0002064697361626C65205B4E4F45455052D4
:1004F0004F4D5D3A207267626C696768745F636F25
:100500006E6669672E656E61626C65203D2025759B
:100510000A007267626C6967687420656E61626C5C
:1005200065205B4E4F454550524F4D5D3A207267F6
:10053000626C696768745F636F6E6669672E656E6B
:1005400061626C65203D2025750A007267626C69E6
:1005500067687420736574207370656564205B4EF2
:100560004F454550524F4D5D3A2025750A00726740
:10057000626C69676874206D6F6465205B4E4F45DF
:100580004550524F4D5D3A2025750A007267626CE6
:1005900069676874206D6F6465205B454550524FF4
:1005A0004D5D3A2025750A0000010101010101019C
:1005B0000101020202020202020202030303030318
:1005C00003030304040404040404050505050506E7
:1005D00006060606070707070708080808090909A5
:1005E000090A0A0A0B0B0B0C0C0C0D0D0D0E0E0E4E
:1005F0000F0F0F10101111111212131314141515DF
:1006000016161717181819191A1A1B1B1C1D1D1E50
:100610001E1F2020212222232424252626272829A4
:10062000292A2B2C2D2D2E2F3031323233343536D2
:100630003738393A3B3C3D3E3F40414243444546D2
:100640004748494A4C4D4E4F5051535455565859AE
:100650005A5B5D5E5F616264656668696B6C6D6F55
:100660007072737577787A7B7D7E808283858788C8
:100670008A8C8E8F91939596989A9C9EA0A2A3A502
:10068000A7A9ABADAFB1B3B5B7BABCBEC0C2C4C603
:10069000C9CBCDCFD1D4D6D8DBDDDFE2E4E7E9EBBF
:1006A000EEF0F3F5F8FAFDFF7267626C6967687443
:1006B0002073657420687376205B4E4F4545505219
:1006C0004F4D5D3A2025752C25752C25750A007235
:1006D00067626C696768742073657420687376203C
:1006E0005B454550524F4D5D3A2025752C25752CA4
:1006F00025750A006B65796D61705F636F6E666961
:10070000672E7261773A20253032580A2E7377614E
:10071000705F636F6E74726F6C5F636170736C6F28
:10072000636B3A2025750A2E636170736C6F636B7F
:100730005F746F5F636F6E74726F6C3A2025750A19
:100740002E737761705F6C63746C5F6C6775693A68
:100750002025750A2E737761705F7263746C5F7207
:100760006775693A2025750A2E737761705F6C6131
:100770006C745F6C6775693A2025750A2E73776112
:10078000705F72616C745F726775693A2025750AD3
:100790002E6E6F5F6775693A2025750A2E73776133
:1007A000705F67726176655F6573633A2025750ACD
:1007B0002E737761705F6261636B736C6173685FE6
:1007C0006261636B73706163653A2025750A2E6EF2
:1007D0006B726F3A2025750A2E737761705F6573AF
:1007E000636170655F636170736C6F636B3A202542
:1007F000750A0064656275675F636F6E6669672E70
:100800007261773A20253032580A2E656E61626C2B
:10081000653A2025750A2E6D61747269783A202533
:10082000750A2E6B6579626F6172643A2025750ACC
:100830002E6D6F7573653A2025750A006565636FC7
:100840006E6669673A0A64656661756C745F6C61AF
:100850007965723A2025750A000A092D204D6167D5
:100860006963202D0A443A094465627567204D6525
:10087000737361676520546F67676C650A583A093E
:100880004D6174726978204465627567204D6F64AC
:100890006520546F67676C65202D2053686F772043
:1008A0006B65797072657373657320696E206D6115
:1008B0007472697820677269640A4B3A094B6579EA
:1008C000626F61726420446562756720546F676768
:1008D0006C65202D2053686F77206B657970726589
:1008E0007373207265706F72740A4D3A09446562C1
:1008F0007567204D6F75736520546F67676C650A67
:10090000563A0956657273696F6E0A533A09537401
:10091000617475730A433A09416374697661746559
:1009200020436F6E736F6C65204D6F64650A4631AE
:100930002D4631303A0953776974636820746F200B
:100940004C6179657220302D392028463130203DA8
:10095000204C30290A302D393A095377697463687D
:1009600020746F204C6179657220302D390A47520E
:100970004156453A0953776974636820746F204C77
:100980006179657220302028616C7465726E6174C3
:1009900065290A423A094A756D7020746F20426FCA
:1009A0006F746C6F616465720A4553433A094A7506
:1009B0006D7020746F20426F6F746C6F616465722C
:1009C0002028616C7465726E617465290A453A0964
:1009D0005072696E7420454550524F4D20536574D6
:1009E00074696E67730A4241434B53504143453A21
:1009F00009436C65617220454550524F4D0A4E3A8D
:100A0000094E4B524F20546F67676C650A000A0904
:100A10002D20436F6E736F6C65202D0A4553432F55
:100A2000713A09717569740A002573000A092D204D
:100A3000537461747573202D0A686F73745F6B65EE
:100A400079626F6172645F6C65647328293A20254E
:100A50003032580A6B6579626F6172645F70726FD1
:100A6000746F636F6C3A20253032580A6B65796277
:100A70006F6172645F69646C653A20253032580A90
:100A80006B65796D61705F636F6E6669672E6E6B03
:100A9000726F3A20253032580A74696D65725F7240
:100AA000656164333228293A202530386C580A00B1
:100AB0003F004E4B524F3A206F66660A004E4B5233
:100AC0004F3A206F6E0A000A6D6F7573653A206F9A
:100AD00066660A000A6D6F7573653A206F6E0A00CC
:100AE0000A6B6579626F6172643A206F66660A000C
:100AF0000A6B6579626F6172643A206F6E0A000A50
:100B00006D61747269783A206F66660A000A6D61D9
:100B1000747269783A206F6E0A000A6465627567BC
:100B20003A206F66660A000A64656275673A206F4C
:100B30006E0A000A0A4A756D70696E6720746F202C
:100B4000626F6F746C6F616465722E2E2E2000438D
:100B50003E2000436C656172696E672045455052C6
:100B60004F4D0A004C25640A001D001B00010001C6
:100B70000001000100010001006164645F6B6579A0
:100B80005F6269743A2063616E2774206164643A1D
:100B900020253032580A0064656C5F6B65795F62AE
:100BA00069743A2063616E27742064656C3A20256D
:100BB0003032580A005B435D005B445D005B535D6F
:100BC000005B575D005B525D0009027B0004010081
:100BD000A0FA09040000010301010009211101002C
:100BE00001224000070581030800010904010002F9
:100BF00003000000092111010001222200070582E3
:100C0000032000010705030320000109040200017D
:100C100003000000092111010001226D0007058475
:100C20000320000109040300020300000009211150
:100C300001000122220007058503200001070505A8
:100C40000320000112010002000000084253253277
:100C500001000102000110033200250020004D00B8
:100C600069006C006B00000012035300700061000B
:100C7000630065006D0061006E000000040309045C
:100C800011241FBECFEFDAE0DEBFCDBF12E0A0E03F
:100C9000B1E0E0E5F0E502C005900D92AE30B1079D
:100CA000D9F722E0AEE0B2E001C01D92AE3EB2073D
:100CB000E1F70E9458220C94BE270C940000FF9389
:100CC000EF93E0910E02F0910F02309709F0099531
:100CD000EF91FF910895FC018591803011F0EFDFD5
:100CE000FBCF0895FF27E0E230E247FF0CC04195BB
:100CF00097FF09C0EDE26095709580959095611D14
:100D0000711D811D911D27FF02C0219530E350E226
:100D1000AA27660F771F881F991FAA1FA41710F014
:100D2000A41B63955A95A9F7AA3008F0A95FA05DA6
:100D3000AF93F395611571058105910541F7ED328A
:100D400011F4EF93F395F21718F43F93F395FBCF5B
:100D50008F91B5DFFA95E1F70895E991F9918591C1
:100D6000803021F0853219F0AADFF9CF089520E014
:100D7000E89455915532C1F3503311F4689455916C
:100D80005A3348F4505390F3220F022E220F220FB1
:100D9000200D250FF4CF0EF42195899199915336AA
:100DA00019F3533729F1533559F1BC018827992795
:100DB000E8945C3621F48991999168945591543660
:100DC00039F446EF7EF077FF0DC08FEF9FEF0AC03A
:100DD00055374AE039F0583540E121F0523642E0CB
:100DE00009F00895FF93EF937DDFEF91FF91B7CF67
:100DF000FF93EF93FC0181918030B9F360DFFBCF6B
:100E0000FF93EF9368DFF1CFDF93CF93CDB7DEB7DA
:100E10002596A3DFCF91DF910895E8EDF0E0808182
:100E20008E7F80831092E2001092DA001092E1002F
:100E3000A0EEB0E08C9181608C9380818F7780836D
:100E400019BCA7EDB0E08C918E7F8C9380818F7E52
:100E500080831092B70208952091E4003091E5005C
:100E600095E6A9012091EC00822F817020FF06C039
:100E70008091E80080FF06C080E008952091E8009E
:100E800022FD1AC08091DC02882389F0853089F028
:100E90008091EB0085FD0FC02091E4003091E500CA
:100EA00042175307F9F29150E1F684E0089582E089
:100EB000089583E0089581E00895EF92FF920F93E3
:100EC0001F93CF937C018B010E942C07C82F8111A7
:100ED00017C08091E80085FD0BC08091E8008E77F7
:100EE0008093E8000E942C07882399F3C82F08C03C
:100EF000F70181917F018093F1000150110949F7B9
:100F00008C2FCF911F910F91FF90EF9008958091BA
:100F1000DE0287FF13C08091E80082FF06C0809147
:100F2000E8008B778093E80004C08091DC02811197
:100F3000F2CF08958091DC028823D9F38091E800F4
:100F400080FFF8CF8091E8008E77ECCF982F9093B8
:100F5000E900242F762F50E0891731F07091EC00D2
:100F60002091ED005091F00021FD07C09F5F973068
:100F700071F78093E90081E008953091EB003E7FA6
:100F80003093EB003091ED003D7F3093ED003091D8
:100F9000EB0031603093EB007093EC002093ED0098
:100FA0005093F0002091EE0027FDE0CF80E00895FF
:100FB000B0E0A0E0EEEDF7E00C943C27C8EDD0E007
:100FC00088818F7E8883E7EDF0E080818160808377
:100FD00084E082BF81E08093B70288818E7F88831E
:100FE00002EE10E0F80110821092DA0081EEC82EB5
:100FF000D12CF601108288818F7788838881806860
:10100000888388818F7D888319BC1092DC021092BE
:10101000DD021092DB021092DA0290EEE92EF12C42
:10102000F70180818B7F808388818160888342E0A3
:1010300060E080E00E94A607F60180818E7F8083B9
:10104000F801808181608083808188608083F701DE
:1010500080818E7F8083888180618883CDB7DEB771
:10106000E8E00C945827FC018091E4029091E5029D
:1010700086179707A0F06115710529F49091E80093
:101080009E779093E80090E06115710551F49111FD
:1010900008C08091E80082FF34C080E00895BC0160
:1010A000F2CF8091DC028823C1F18530C1F18091BB
:1010B000E80083FD30C08091E80082FDEACF809196
:1010C000E80080FFE1CF8091F3002091F200382FFB
:1010D0006115710519F02830310558F091E028307C
:1010E000310509F090E02091E8002E772093E80088
:1010F000CBCF81918093F100615071092F5F3F4FF9
:10110000E7CF8091DC02882341F0853041F0809167
:10111000E80083FFBECF81E0089582E0089583E078
:101120000895089508958091B902089587E797E793
:10113000909301088093000888E19AE00FB6F89434
:10114000A895809360000FBE90936000FFCF2FB7EB
:10115000F8946091E6027091E7028091E802909124
:10116000E9022FBF08952FB7F8948091E60290917D
:10117000E702A091E802B091E9022FBF0895209103
:10118000AB023091AC022817390771F09093AC0292
:101190008093AB02E091A902F091AA02309721F06E
:1011A0000084F185E02D099508952091A7023091E2
:1011B000A8022817390771F09093A8028093A7021C
:1011C000E091A902F091AA02309721F00680F78100
:1011D000E02D09950895E091A902F091AA023097B7
:1011E00029F00190F081E02D0995089580E008959F
:1011F000FA01811101C0FB01099508958091A102B6
:10120000982F9E7F39F48091A10281708260809333
:10121000A10208958430B8F708959091AF0292FF2B
:1012200006C0282F28712830F9F4877F846093FF47
:1012300006C0282F28712831F1F4877E846120911F
:10124000B00220FF06C0382F38713830D9F4877FBC
:10125000816021FF06C0282F28712831D1F4877EB4
:10126000816194FD877E0895282F24712430F9F63A
:101270008B7F8860DCCF282F2471243101F78B7E8F
:101280008861DDCF382F3171313019F78E7F88605A
:10129000E0CF282F2171213121F78E7E8861E1CFA7
:1012A000CF93DF93EC0182389105B1F108F040C093
:1012B0008133910509F49DC048F58932910509F4FF
:1012C0008DC08A9709F49CC0C11522E5D20708F0A9
:1012D000BDC0C11531E5D30708F024C1C83ED10512
:1012E00008F0A3C0C13ED10588F5C83AD10508F081
:1012F0008EC0C53AD10508F0F6C0C130D10531F134
:10130000209721F1C430D10508F545C085339105FA
:1013100009F45FC0C997C1F68091AF02837009F0EC
:1013200036C18091B00283FF11C0C9E2D0E00EC087
:10133000833E910599F170F4803E910501F1823E62
:10134000910511F68091AF0282FD21C0CE01DF919F
:10135000CF910895863E910561F1873E910571F127
:10136000843E910509F0B0CF8091B00281FFEECFAD
:101370008091AF02C7EED0E084FD0DC0E7CF809131
:10138000AF0280FD33C09091B00290FFDFCFC3EE7B
:10139000D0E084FFDBCFD0E0C0E0D8CF8091AF02B7
:1013A00082FDF2C09091B00290FDF1C084FFCECFDB
:1013B000F2CF8091AF0283FDDDCFC8CF8091AF0225
:1013C00083FDE8C09091B00291FFF0CFC4EED0E071
:1013D000BDCF8091AF0285FFB9CFA7CF8091AF027B
:1013E00085FDDBC08091B00283FFB0CFC9E3D0E0C0
:1013F000ADCF8091AF0286FFA9CFCAE2D0E0A6CFE1
:101400008091AF0286FFA2CFC1E3D0E09FCFCF3B58
:10141000D10508F6C85AD0E0CC0FDD1FC553DE4F0A
:101420000990D881C02DD46491CFC11540E5D4076F
:1014300008F064C0C11580E4D80708F05CC0CE0194
:101440009A9581159F4108F481CFA5CFC11536E546
:10145000D30718F5C11545E5D40708F07CC0C115C0
:1014600084E5D80708F072C09E01237033279C2FB3
:1014700096959695C115D34508F459C0C1E0D0E0C2
:1014800002C0CC0FDD1F2A95E2F730E2939FC00126
:101490001124C82BD92BDA6859CFC1158AE5D80792
:1014A00078F4C11529E5D20708F060C0C11538E508
:1014B000D30708F470CFDC2FCC27C06FD06A46CF9B
:1014C000CE0190568115904208F065CF8D2F8F7117
:1014D0000E940D0990E0982F882788279F719C0112
:1014E0002C2BE90141C0C55AD0E0C853DE4FC8815A
:1014F000D0E0D0642BCFDF70D06A28CFCE018370CC
:10150000992721E030E002C0220F331F8A95E2F7CD
:10151000C695C69580E2C89FE0011124C22BD32B4B
:10152000DD6814CFDC2FCC27C16FD06A0FCFC1E0AC
:10153000D0E002C0CC0FDD1F2A95E2F720E2929F97
:10154000C0011124C82BD92BDC6800CFDC2FCC279D
:10155000C46FD06AFBCE8C2F0E940D09C82FD0E03B
:10156000DC2FCC27CC27DF71D062F0CE8C2F8F7090
:101570000E940D0934E0D695C7953A95E1F7CF70F2
:101580009C2FEC01D069E2CEC2EED0E0DFCEC0EEFF
:10159000D0E0DCCEC6EED0E0D9CEC5E3D0E0D6CEEA
:1015A00080918F02811110928F0208958095909101
:1015B0008E02982390938E02089580916B029091F1
:1015C0003A02981301C008958F5F8770FACF923066
:1015D000E0F481111AC0E1E3F2E050E040E0219133
:1015E00030E0092E02C0369527950A94E2F7217063
:1015F0003327042E01C0220F0A94EAF7822B4F5F93
:101600005F4F4330510559F7089580E008959230B7
:1016100010F5811120C081E001C0880F9A95EAF78A
:10162000282FE1E3F2E050E040E070E03191DF018B
:101630001197CB01042E02C0969587950A94E2F784
:10164000817081958327822383278C934F5F5F4F1F
:101650004330510559F70895829590E09C01220F7F
:10166000331F220F331F2C7C959587959595879571
:101670008373282B30E0C901880F991F8A7A35952A
:1016800027952575822B08959FB7F8941092B5027F
:101690009FBF9091DC02943009F048C02091E9008E
:1016A0002F703091EC00932F917030FD90E8922BC9
:1016B00025E02093E9002091EB0020FF34C0209129
:1016C000EE0027FF30C02091B402222321F02091A8
:1016D000E80025FF28C01092B40226E03091E8000F
:1016E00035FF14C08093F1008091E80085FD27C08C
:1016F0008091E80080FFFCCF8091E8008E77809396
:10170000E8009F709093E90080E008953091DC023A
:10171000343049F43091EB0035FD05C0215041F4DF
:1017200081E08093B4029F709093E9008FEF089559
:10173000EFE9FFE03197F1F700C00000CFCF8FB79E
:10174000F89421E02093B5028FBFDBCF8093B102E4
:101750007093B3026093B2028091DC028430F9F49A
:101760008093E9008FEF9091E800815095FD06C0CD
:1017700095ED9A95F1F700008111F5CF8091E80081
:1017800085FF0DC050E040E063E070E081EB92E047
:101790000E945D078091E8008E778093E8000895AD
:1017A000BC0184E00E94A60B0895BC0183E00E9466
:1017B000A60B0895CF93DF93EC0180910C01882351
:1017C000B1F18091AF0287FF32C060E284E0809384
:1017D000E9008FEF9091E800815095FD06C095EDEE
:1017E0009A95F1F700008111F5CF8091E80085FF0F
:1017F0001BC080910C0170E050E040E0811104C0FA
:1018000050E040E068E070E0CE010E945D0780910A
:10181000E8008E778093E80080E2FE01AAEBB2E058
:1018200001900D928A95E1F7DF91CF91089568E0DC
:1018300081E0CDCF8091A10280FF27C0269A35B1EB
:101840003F7B25B120644FB7F8948EE992E0FC010C
:101850005191CF0168E025B9000000C057FF35B9AC
:10186000550F000000C000C000C035B900C06A9527
:1018700091F7F2E0813A9F0751F74FBF8FE594E06F
:101880000197F1F700C00000089510929F02109296
:101890009E021092A002D2CF20910C01222351F17E
:1018A0002091AF0227FF26C0E62FE695E695E69544
:1018B000EE3178F4E80FF92FF11D677021E030E088
:1018C00001C0220F6A95EAF720958281282322839E
:1018D00008958091AD0280FF19C01F926F9387E930
:1018E0009BE09F938F930E9404070F900F900F909F
:1018F0000F900895FC01329608962191621303C05F
:10190000DF0111971C92E817F907B9F708952091A4
:101910000C01222349F12091AF0227FF25C0E62FB9
:10192000E695E695E695EE3170F4E80FF92FF11D96
:10193000677021E030E001C0220F6A95EAF78281EA
:10194000822B828308958091AD0280FF1EC01F927A
:101950006F9389E79BE09F938F930E9404070F90FA
:101960000F900F900F900895FC0132962FEF30E00A
:101970004191641751F02F3F19F4411101C0232FF9
:101980003F5F3630A9F72F3F09F40895820F911D6C
:1019900027FD9A95FC0162830895CF93DF93C7E3F7
:1019A000D0E060E0CE010E947D272196C11584E041
:1019B000D807B9F7DF91CF9108951F93CF93DF93A5
:1019C000122F8430C0F46230B0F4411114C094E09E
:1019D000899FE0011124862F90E0880F991FC80F7E
:1019E000D91F632FCE0187960E947D27612FCE01DC
:1019F00088960E947D27DF91CF911F9108950F93C4
:101A00001F93CF9309E61BE0C0E0F80125913491C4
:101A100040E060E08C2F0E94DD0CF80132962591A9
:101A2000349140E061E08C2F0E94DD0C0C5F1F4F71
:101A3000CF5FC43051F7CF911F910F910895CF938D
:101A4000C82F6FEF811164E283E290E00E947D274E
:101A50006FEFC11163E084E290E00E947D276FEF99
:101A6000C11160E185E290E00E947D27CF91089549
:101A700080E00E941F0D60E086E290E00E947D27DA
:101A80000E94FF0C0E94CD0C81E00E941F0D089562
:101A90000F931F93CF93DF93843008F56230F8F4EF
:101AA00041111DC024E0829F8001112470E0660F67
:101AB000771F060F171FC80187960E946927C82F36
:101AC000D0E0DC2FCC27C80188960E9469279E01B0
:101AD000282BC901DF91CF911F910F91089590E0BC
:101AE00080E0F8CF843048F4723038F4611105C0DA
:101AF00040E0672F0E94480D089590E080E008952F
:101B0000CF92DF92FF920F931F93CF93DF936C01DD
:101B10000091ED0280919002082BC7E0D0E010E028
:101B2000FC2EC8010C2E02C0959587950A94E2F709
:101B300080FD0CC02197A0F7F12C8F2DDF91CF9164
:101B40001F910F91FF90DF90CF900895B6018C2FD9
:101B50000E94720D0E945009019761F3EECFCF935E
:101B6000DF93EC010E94800DBE010E94720D0E9465
:101B70005009DF91CF910895FC0183819481892BD5
:101B800029F08081918189238F3F51F480E008956D
:101B9000843FE1F717C0883EA8F0813FB9F712C033
:101BA000808191810E94AF0D92959F70963099F33C
:101BB00058F4925F9F70923048F7803F19F040F7D9
:101BC000883E20F781E008959A5FF4CF83E290E0A9
:101BD0000E946927843289F484E290E00E94692798
:101BE000833059F485E290E00E94692791E08031CA
:101BF00009F090E0892F8170089580E0FCCFCF93A9
:101C000084E090E00E946927C82F82E290E00E9461
:101C10006927982F8C2FCF910895CF92DF92EF9262
:101C2000FF926B017C010E94FE08B701A60188E0CB
:101C300090E00E948F27FF90EF90DF90CF90089563
:101C4000B0E0A0E0E6E2FEE00C943827D82FC62FE3
:101C5000142F822E0091A10200FF40C0802F8E7FA2
:101C6000823059F4E42FF0E0E855FA4F61113BC09F
:101C70002491F22FE22F00FDC4C0D093A202C093A2
:101C8000A3021093A402882009F4A2C06091A102CB
:101C90007091A2028091A3029091A4020E940D0E65
:101CA0008091AD0280FF1AC08091A4021F928F9391
:101CB0008091A3021F928F938091A2021F928F9313
:101CC0008FEC96E09F938F930E9404078DB79EB789
:101CD00008960FB6F8949EBF0FBE8DBFCDB7DEB786
:101CE000ECE00C945427E62EF12CE4919E2ECE2E9F
:101CF000D12C26E0D29FC00111242FEF30E0B90192
:101D00000E9411278D2F90E0880F991FF5E5F69F0F
:101D1000A001F79F500D1124841B950BB82EBB0C0E
:101D2000B80EA9014E195F094C9DC0014D9D900D43
:101D30005C9D900D1124F92FCB9DA0011124452FFE
:101D40005527D901A41BB50BAC9DA001AD9D500D2D
:101D5000BC9D500D1124D901AB19B1095D01AE9C98
:101D6000D001AF9CB00DBE9CB00D1124AB2FBB2792
:101D70002A1B3B0B2C9DD0012D9DB00D3C9DB00D21
:101D800011242B2F62307105A1F050F461157105FB
:101D900009F471CF6130710581F0292FF52F6BCFD8
:101DA0006430710569F080F06630710509F463CF25
:101DB000F4CF2E2FE92FFB2F5ECF2E2FE52F5BCFF9
:101DC000292FFE2FEB2F57CFE92FF92D252F53CF9A
:101DD0008091AD0280FF82CF1F921F931F92CF93FD
:101DE0001F92DF9388EA96E09F938F930E940407E7
:101DF000ADB7BEB718960FB6F894BEBF0FBEADBF55
:101E00006DCFE0939F0220939E02F093A0020E9468
:101E10001A0C33CFE1EAF2E0438121E1421B08F4DE
:101E200040E021E0628181810E94200E0895E1EA74
:101E3000F2E0438121E1420F08F44FEF21E062819B
:101E400081810E94200E0895E1EAF2E0628121E1A1
:101E5000621B08F460E021E0438181810E94200E32
:101E60000895E1EAF2E0628121E1620F08F46FEF88
:101E700021E0438181810E94200E0895E1EAF2E091
:101E8000818121E04381628188500E94200E089563
:101E9000E1EAF2E0818121E043816281885F0E9472
:101EA000200E08958091A502882319F08150809317
:101EB000A5026091A1027091A2028091A30290916B
:101EC000A4020E940D0E08958091A502833018F49B
:101ED0008F5F8093A5026091A1027091A202809110
:101EE000A3029091A4020E940D0E08958091A10278
:101EF00080FF2CC0817082608093A102662339F13B
:101F00006091A1027091A2028091A3029091A4021B
:101F10000E940D0E8091AD0280FF0FC08091A10242
:101F200086951F928F938CE895E09F938F930E94E4
:101F300004070F900F900F900F9020E04091A402A3
:101F40006091A3028091A2020E94200E08958091C8
:101F5000AD0280FFF2CF1F9281E08F938EE695E075
:101F6000E4CF8091A1028695815009F481E061E07F
:101F70000E94760F089561E081E00E94760F089537
:101F8000E1EAF2E083E0808311828FEF8283838332
:101F9000148260817181828193810E940D0E089567
:101FA00068EE7EEF90E080E00E949B2760E082E098
:101FB00090E00E947D2760E083E090E00E947D2712
:101FC0001092900260E084E090E00E947D2764E03F
:101FD00082E290E00E947D2760E085E090E00E9430
:101FE0007D2760E086E090E00E947D276FEF87E02C
:101FF00090E00E947D2740E050E0BA0188E090E048
:102000000E948F2760E08DE090E00E947D2740E0F5
:1020100050E0BA0188E190E00E948F2760E087E1FC
:1020200090E00E947D2740E050E0BA018CE190E012
:102030000E948F2770E060E080E290E00E949B2782
:1020400040E050E0BA0188E190E00E948F2780E0F4
:102050000E941F0D0E94380D40E050E0BA018FE051
:1020600090E00E948F2740E050E0BA0183E190E0C9
:102070000E948F2708950F931F93CF93DF93809132
:102080008E0290918D02892B8093100290918F0285
:102090009923B1F0892B8093100280910C01882341
:1020A00009F46FC08091AF0287FF6BC08EE1E2E15F
:1020B000F2E090E0815008F066C091110E94D00AD1
:1020C00040E250E06DE672E080E192E00E94B127CC
:1020D000892B09F451C080E2E0E1F2E0ADE6B2E024
:1020E00001900D928A95E1F7E091A902F091AA0280
:1020F000309709F441C080910C01882359F08091F8
:10210000AF0287FF07C0809110028093110286E022
:10211000809310020280F381E02D80E192E0099526
:102120008091AD0282FF28C080FF04C089E393E064
:102130000E946B06D0E0C0E003E313E08091AD02A3
:1021400080FF0EC0FE01E05FFD4F80811F928F93E4
:102150001F930F930E9404070F900F900F900F9002
:102160002196C830D10551F78091AD0280FF04C09F
:1021700081E393E00E946B06DF91CF911F910F9155
:10218000089586E094CF2191222309F493CF9F5F95
:1021900091CF90E080E00E94D50890E080E00E941E
:1021A000BF0810928D020E943B1008958093ED02AB
:1021B0000E94C91008958091ED02982F9670963074
:1021C00021F488600E94D6100895877FFBCF21E01C
:1021D00030E001C0220F8A95EAF720958091ED0248
:1021E00082230E94D610089590916C0280958923D5
:1021F00080936C02282F277091F4282F082E000C52
:10220000330B9217130659F09091B00292FF07C05A
:102210008595859585950E94E71010926C0208952A
:10222000CF93DF93D82FC091B002C2FB882780F9EB
:102230008D1711F1D0FBC2F9C093B0026091AF02CB
:1022400084E090E00E947D276C2F82E290E00E9463
:102250007D2782E00E94F4108091AD0280FF0CC0C7
:102260001F92DF938CE193E09F938F930E9404076A
:102270000F900F900F900F90DF91CF91089521E074
:1022800030E001C0220F8A95EAF78091ED02822B9F
:102290000E94D6100895809390020E94C91008955C
:1022A00010928E0280910C01E2E1F2E0882361F04D
:1022B0008091AF0287FF08C08EE1DF011D928A95F1
:1022C000E9F70E94C910089586E0F7CFAAE2B0E0CE
:1022D000ECE6F1E10C9441278EED92E02091F100C3
:1022E000DC012D93CD01B2E0863E9B07B9F78091CA
:1022F000DF02833009F472C0B8F4813009F449C0B8
:10230000823009F4B3C08091E80083FF91C28091CC
:10231000DE029091DF029A3008F08AC2E92FF0E0E5
:10232000E054F84D0C9425278A3009F48EC08B3088
:1023300009F471C0893039F78091DE02813219F7D2
:102340008091E2029091E302009711F00297D9F692
:102350008091E800877F8093E8008091E80082FF09
:1023600038C09091F3008091F200029731F480918F
:10237000F100813011F0863021F48091F1008093DA
:10238000B9028091E8008B778093E8000E9487076C
:10239000BACF8091DE02813A09F0B5CF8091E80092
:1023A000877F8093E8008091E2029091E302892B7D
:1023B00061F460E28AEB92E070E00E943308809161
:1023C000E8008B778093E8009ECF60E090E080E0AB
:1023D000F3CF8091DC028111C0CF95CF8091DE02D6
:1023E000813A09F090CF8091E2029091E302892B2B
:1023F00009F089CF8091E800877F8093E800809181
:10240000E80080FFFCCF80910C018093F100809167
:10241000E8008E77B9CF8091DE02813209F073CF68
:102420008091E2029091E302892B09F06CCF8091B8
:10243000E800877F8093E8000E9487078091E00290
:1024400080930C010E9450115ECF8091DE02813298
:1024500009F059CF8091E800877F8093E8000E94BF
:1024600087078091E1028093B8024DCF8091DE0210
:10247000813A09F048CF8091E800877F8093E80097
:102480008091E80080FFFCCF8091B802BECF8038F9
:1024900099F0823809F0CCC18091E2028F708730C8
:1024A00008F0C6C18093E9008091EB0085FB882786
:1024B00080F91092E90006C08091DA029091DB0267
:1024C000911182609091E800977F9093E80080934B
:1024D000F1001092F1008091E8008E77A5C1882369
:1024E00009F493C1823009F0A3C18091E002811107
:1024F00096C18091E2028F702FEF280F263008F0EE
:1025000097C18093E9002091EB0020FF88C19330B0
:1025100031F48091EB0080628093EB0080C1909158
:10252000EB0090619093EB0021E030E001C0220FBE
:102530008A95EAF72093EA001092EA008091EB0076
:102540008860EACF811174C11091E0021F778091F9
:10255000E3008078812B8093E3008091E800877FFF
:102560008093E8000E9487078091E80080FFFCCFFD
:102570008091E30080688093E30082E0111183E0A2
:102580008093DC0255C18058823008F051C12091FF
:10259000E0023091E1022C3DE3E03E07A1F583E04B
:1025A0008A838AE289834FB7F894DE01139620E08C
:1025B0003EE051E2E32FF0E050935700E49120FF1A
:1025C00003C0E295EF703F5FEF708E2F90E0EA302E
:1025D000C0F0C7968D939D932F5F243159F74FBF5D
:1025E0008091E800877F8093E8006AE270E0CE0186
:1025F00001960E9433088091E8008B778093E80071
:1026000017C1C096E7CF8091E2029091E302432F79
:1026100055274330510509F44AC078F5413051053A
:1026200009F47AC08BE790E0E9ECFBE04230510519
:1026300009F0FEC02091E800277F2093E800209158
:10264000E4023091E5028217930708F49C0140E010
:102650002115310509F065C0411163C08091E80082
:1026600082FDC9CF8091DC02882329F2853019F2DE
:102670008091E80083FFF2CFBECF4132510509F4CB
:102680003CC04232510509F0D3C08430910508F0B6
:10269000CFC0FC01EE0FFF1FE350FE4F0190F08111
:1026A000E02D87509E4FDC018C9190E01AC03327BB
:1026B00021303105D1F02115310561F0223031058D
:1026C00009F0B6C0E6E5FCE0E4918E2F90E0E6E587
:1026D000FCE007C0ECE7FCE0E4918E2F90E0ECE733
:1026E000FCE0009709F4A4C0A5CFE8E6FCE0E49183
:1026F0008E2F90E0E8E6FCE0F4CF8430910508F0FE
:1027000097C0880F991FFC01EB5FFD4F0190F0818E
:10271000E02D89E090E08ECF82E190E0E4E4FCE0FF
:1027200089CF8091DC02882309F465CF853009F4D4
:1027300062CF8091E80083FD5ECF8091E80082FD4A
:102740008DCF8091E80080FF83CF9091F30080913E
:10275000F2002115310519F08830910550F041E063
:10276000089709F040E08091E8008E778093E800B8
:102770006FCF44914093F100319621503109019679
:10278000E8CF803809F054C08091E800877F8093BB
:10279000E8008091DD028093F1009DCE811148C058
:1027A0001091E002123008F043C08091E800877F6A
:1027B0008093E8001093DD020E948707112311F037
:1027C00084E005C08091E30087FDFACF81E080932B
:1027D000DC0242E061EC81E00E94A60742E261EC8B
:1027E00084E00E94A60742E261EC82E00E94A60714
:1027F00042E260EC83E00E94A60742E261EC85E0E1
:102800000E94A6078091DC0213C08091E002813013
:1028100079F481E0933009F080E08093DB0210923C
:10282000E9008091E800877F8093E8000E94870795
:102830008091E80083FF0AC08091E800877F809341
:10284000E8008091EB0080628093EB00AA96E3E0C1
:102850000C945D27CF93C82F1F928F9384E69BE043
:102860009F938F930E94040781E001C0880FCA954F
:10287000EAF70E944B110E9450110F900F900F9099
:102880000F90CF910895B0E0A0E0E9E4F4E10C945A
:102890003D27EBEFE80FEF3308F04CC1F0E0E653D3
:1028A000F84D0C94252783E090E00E9469271F9241
:1028B0008F938CE398E09F938F930E94040782E0AC
:1028C00090E00E94692783FB992790F91F929F93BC
:1028D00082FB992790F91F929F9381FB992790F98A
:1028E0001F929F93982F91701F929F931F928F9387
:1028F00083EF97E09F938F930E9404070E94FF0D40
:1029000093FB222720F91F922F9387FB222720F980
:102910001F922F9386FB222720F91F922F9385FB6E
:10292000222720F91F922F9384FB222720F91F9240
:102930002F9383FB222720F91F922F9382FB2227BC
:1029400020F91F922F9391FB222720F91F922F939A
:10295000292F21701F922F9381FB222720F91F928C
:102960002F93282F21701F922F939F938F9384EF83
:1029700096E09F938F930E9404078DB79EB78A9627
:102980000FB6F8949EBF0FBE8DBF81E01CC083E5DB
:102990009BE00E946B060E94D00FF7CF89E598E07C
:1029A0000E946B06F2CF8091AD02807F8093AD02D2
:1029B0008EE09AE00E946B068FE49BE00E946B061B
:1029C00081E08093A602CDB7DEB7E7E00C945927EB
:1029D00083E39BE00E946B060E9450119FEF24E36B
:1029E0008CE0915020408040E1F700C000000E9440
:1029F00096089091AD02892F8E7F90FF8160809321
:102A0000AD0280FF03C087E29BE0CACF8AE19BE072
:102A10000E946B068091AD02817F8093AD02B5CF9D
:102A20009091AD02892F8D7F91FF82608093AD02DE
:102A300081FF08C08DE09BE00E946B068091AD0293
:102A40008160EBCF8FEF9AE0ABCF9091AD02892FF1
:102A50008B7F92FF84608093AD0282FF03C080EF82
:102A60009AE0EACF80EE9AE09BCF9091AD02892F59
:102A7000877F93FF88608093AD0283FF03C084ED5E
:102A80009AE0DACF87EC9AE08BCF8DE091E09F93CC
:102A90008F9389E29AE09F938F930E9404070F908F
:102AA0000F900F900F9071CF0E94A708062FF72E5E
:102AB000E82ED92EC091AF02C7FBCC27C0F91091E8
:102AC000B802D0910C010E94EB08DF92EF92FF92C6
:102AD0000F931F92CF931F921F931F92DF931F920A
:102AE0008F938CE29AE09F938F930E9404078DB797
:102AF0009EB70E960FB6F8949EBF0FBE8DBF45CF02
:102B00000E9450119091AF02892F97FB87F980584E
:102B10008093AF0287FF03C08DEB9AE041CF82EB39
:102B20009AE03ECF80E00E942A142FCF8953FBCF3A
:102B30008D51F9CF80EB9AE00E946B0680E043CF85
:102B40000E9450112FEF84E39CE021508040904080
:102B5000E1F700C0000088E19AE00FB6F894A8956C
:102B6000809360000FBE90936000FFCF882321F018
:102B70000E94D60A0E943B100895882339F0909154
:102B80008E02982B90938E020E943B10089588230A
:102B900051F19CEF980F913A40F4682F80E192E058
:102BA0000E944C0C0E943B10089590E2980F9830C0
:102BB00050F4877091E001C0990F8A95EAF7892F48
:102BC0000E94D60AEFCF9BE5980F933028F490E04F
:102BD00080E00E94D5080895885A873120F490E05B
:102BE00080E00E94BF080895CF93C82F8823E9F1A1
:102BF0008CEF8C0F813A08F06CC08091A60288237C
:102C000059F18130A1F11092A60280910C01882324
:102C100009F44EC08091AF0287FF4AC0EC2FE695C1
:102C2000E695E695F0E0E05FFD4F828190E04C2F65
:102C3000477021E030E002C0220F331F4A95E2F7CF
:102C400082239323892BE9F16C2F80E192E00E948B
:102C50004C0C0E943B1035C080918E028232A9F646
:102C60008C2F0E944314882381F2CF910895809184
:102C70008E028232A9F3C431B9F038F4CB3049F076
:102C800086E193E00E946B0611C0C93269F0C83337
:102C9000B9F78EE09AE00E946B0688E193E00E940B
:102CA0006B0681E08170DFCF1092A60280E0FACF40
:102CB000E2E1F2E08191C81739F282E0E831F807E9
:102CC000C9F76C2F80E192E00E94870C0E943B10B4
:102CD000CCCF80E28C0F883068F4C77021E030E000
:102CE00001C0220FCA95EAF780918E02822B809351
:102CF0008E02ECCFEBE5EC0FE33040F4F0E0E8536C
:102D0000FE4F808190E00E94D508AFCFC85AC731EE
:102D100008F0ABCFEC2FF0E0EE0FFF1FE553FE4FB6
:102D2000808191810E94BF08A0CF1F93CF93DF9332
:102D3000182FD0E0C0E0893311F4C0E5D0E0812F36
:102D40000E94F415209739F4812F0E94C715DF9156
:102D5000CF911F9108958FE99FE00197F1F700C08F
:102D600000002197EFCF0F931F93CF93DF93C62FD0
:102D7000D42F022FFC0182818823A9F06093EC02FA
:102D80000E94B3089093EB028093EA02C77081E03F
:102D900001C0880FCA95EAF70E94BD15DF91CF9157
:102DA0001F910F9108958091EC0268133DC020910E
:102DB000EA023091EB024FB7F8948091E6029091CD
:102DC000E702A091E802B091E9024FBF821B930B8A
:102DD000883C910548F510E21D0F6D17B9F080E2AF
:102DE000860F883040F4C77081E001C0880FCA9513
:102DF000EAF70E94B615183048F481E09D2F9770CD
:102E000001C0880F9A95EAF70E94BD15802F0E9495
:102E10009516183018F6D77081E001C0880FDA9542
:102E2000EAF70E94B615BACFC77081E001C0880FDB
:102E3000CA95EAF7F6CFA5E0B0E0E1E2F7E10C943D
:102E400033278C01FC0183819481892B31F08081AF
:102E5000918189238F3F09F0C3C52596E1E10C9448
:102E60004F270E94800DF82E682F89819A810E9439
:102E7000070B69817A818F2D0E94720D7C01F80108
:102E80008281882309F49FC5970122513F45203153
:102E9000310508F06BC58FEF93E00E94692781111F
:102EA00027C0FEEEEF0E57E3852E912CE11032C0C5
:102EB0001C821B82442443944AE0342E74018FEF19
:102EC000E81AF80AC4010E94692789831A828823B4
:102ED00079F09FEF980F933058F58A83498292E0FA
:102EE000890E911CC7010E9469278B83811121C023
:102EF00080916C02877009F4B0CFF8018281882339
:102F000009F4ABCF8091B00282FFA7CF82E00E948C
:102F1000F410A3CF811424E0920651F3C4010E945F
:102F20006927811101C0EA943FEF831A930ABECF4B
:102F30004701FE0131967F01F7012081222309F428
:102F4000BDCF213009F047C091818281913031F4A9
:102F5000F2E0EF0EF11C0E94951607C0923049F482
:102F600022E0E20EF11C0E94F4153FEFE31AF30A8F
:102F7000E3CF933031F432E0E30EF11C0E94C71529
:102F8000F4CF943021F08FEFE81AF80AEECF92E0F8
:102F9000E90EF11C30E020E0B7016F5F7F4FF701D1
:102FA00041818053990B8A30910550F021503109AD
:102FB000E0F28FE99FE00197F1F700C00000F6CF43
:102FC000329EF001339EF00D11249C012E0F3F1F05
:102FD000842F7B01E1CFE22FF0E0E353FE4F5490CA
:102FE000822F86958695869590E0FC01E354FE4FEE
:102FF00064902770712C022E02C0759467940A9415
:10300000E2F7E1E06E227724FC01E355FE4FA49045
:10301000B12C022E02C0B594A7940A94E2F7F1E015
:10302000AF22BB24FC01E356FE4FC490D12C02C05A
:10303000D594C7942A95E2F721E0C222DD246114D9
:10304000710419F081EE0E94F415A114B10419F075
:1030500086EE0E94F415852D0E949516A114B104E8
:1030600019F086EE0E94C7156114710419F081EE03
:103070000E94C715C114D10409F477CF8CE26BCF3D
:1030800081E00E943F110E94DB1032CF81E00E945C
:10309000E710F9CF82E0F5CF95EFE9169CE5F90648
:1030A00009F46CC008F466C027E245EE66EEF6EF60
:1030B000EF16FCE5FF0609F482C4882309F4A1C4D5
:1030C0001092EC0223E0E2162DE5F20608F05DC056
:1030D0003AEFE3163CE5F30630F4C70182509C4515
:1030E000449708F05FC00E94FF0D9093B002809358
:1030F000AF02F2E1EF16FCE5FF0609F478C108F033
:10310000B6C039E0E3163CE5F30609F44EC108F019
:1031100079C095E0E9169CE5F90609F436C108F096
:103120005FC0F3E0EF16FCE5FF0609F426C108F0E6
:1031300028C18091AF02816032E0E3163CE5F306DE
:1031400009F492C06091AF02F090B00284E090E088
:103150000E947D276F2D82E290E00E947D270E94D1
:103160005011C6CE27E245EE65EE29C426E241EEB7
:1031700060EE25C427E245EE64EE21C426E241EE6E
:1031800062EE1DC428E241E0EFCF85EAE8168DE546
:10319000F80609F4A8CFF0F4E1E6EE16EDE5FE0638
:1031A00009F4A1CF96E1E9169CE5F90609F0D9C426
:1031B00080918E028A7A91E009F490E09093300237
:1031C00069E2811165E380E192E00E94870C0E9430
:1031D0003B108ECEC7018D5A9D45039718F783CFBC
:1031E00087E0E8168CE5F80609F4DBC08091AF02B1
:1031F000806198E0E9169CE5F906B0F18091AF0294
:10320000806432C0EDE0EE16ECE5FE0609F4D7C0AE
:10321000A0F48091AF028E7F2BE0E2162CE5F2063F
:1032200019F18091AF028C603CE0E3163CE5F306B7
:10323000D8F08091AF028D7F17C08FE0E8168CE543
:10324000F80609F4CCC008F4BEC0E0E1EE16ECE5E7
:10325000FE0609F4C8C08091AF028F7BF1E1EF1642
:10326000FCE5FF0609F06ECF8093AF026BCF2FEF26
:10327000E2162CE5F20609F4C4C0D8F58AEFE81688
:103280008CE5F80609F485C0D0F4E4E1EE16ECE52F
:10329000FE0609F4C4C008F4B0C025E1E2162CE52E
:1032A000F20609F04FCF8091AF0282FB992790F987
:1032B00021E0922790FB82F990FB83F9D5CF3CEF78
:1032C000E3163CE5F30609F482C008F466C09DEFFE
:1032D000E9169CE5F90609F47EC08091B00283608E
:1032E000EEEFEE16ECE5FE0609F02CCF8093B0026F
:1032F00029CFF1E6EF16FDE5FF0609F49BC0A0F427
:1033000031E0E3163DE5F30609F492C008F47DC010
:1033100060E092E0E9169DE5F90609F013CF8EE032
:1033200090E00E947D270ECFEDEAEE16EDE5FE0659
:1033300001F168F49091AF02892F8E7F90FF816038
:1033400025EAE2162DE5F20609F48ECFFBCE3EEA21
:10335000E3163DE5F30679F18FEAE8168DE5F80608
:1033600009F0F0CE9091B002892F877F93FF88609B
:10337000BDCF8091B0028860B9CF8091AF028260EA
:1033800073CF8091AF0284606FCF8091AF0288606D
:103390006BCF8091B0028160A9CF8091B002826032
:1033A000A5CF8091AF0280625FCF0E9450118091C3
:1033B000AF02806859CF8091B002877F97CF80910C
:1033C000AF028B7F51CF8091AF02877F4DCF80912D
:1033D000B0028E7F8BCF8091B0028D7F87CF80919E
:1033E000AF028F7E41CF8091AF028F7D3DCF0E9493
:1033F00050118091AF028F7737CF8091AF02837FDA
:1034000033CF8091B0028C7F71CF8091B002982F22
:10341000909591708E7F892B90FB81F967CF0E94E8
:1034200050119091AF02892F97FB87F980581CCFDC
:1034300061E075CF9091AF02892F8F7E94FF8061FC
:1034400013CF8091300269E2811165E380E192E05F
:103450000E944C0CBCCE81608093A1028091AD0291
:1034600080FF0DC01F9281E08F9385E892E09F93CB
:103470008F930E9404070F900F900F900F908091F0
:10348000A10261E086950E94760F32CD41EB5FE0AC
:103490006BEB7FE00E94F8082BCD4BEB5FE061EB1C
:1034A0007FE0F8CF4EE35FE068E47FE0F3CF4AE0EF
:1034B0005FE067E17FE0EECF61E081E0E4CF9091F3
:1034C000AD02892F8E7F90FF81608093AD0280FFD7
:1034D00005C085E093E00E946B060ACD83EF92E081
:1034E000FACF0E94D00F0E94A0158091B00282FBFB
:1034F000882780F991E089270E941011F8018281C4
:10350000E080F180882309F445C0C7010E94800D46
:10351000D82E682FC7010E94070BB7018D2D0E947E
:10352000720D0E9450097C01882EF801D280B5806E
:10353000B2943FE0B32280916C028770C1F0AD2C51
:10354000DD20B1F08F2D807F803421F080E28E0D60
:10355000883068F08091B00282FF09C082E00E944A
:10356000F41080916C028770AA24A3948111A12C7D
:103570009F2C92942FE09222FBE0F91508F479C079
:10358000E92DF0E0E75FF74D0C94252781E0B4CFFB
:1035900080E0B2CFC7010E94E70AD82EBECF2F2D00
:1035A0002F70C22E8F2D807F19F0C29490EFC92208
:1035B000DD20B9F0CC2069F080E28E0D883010F06B
:1035C000811009C080918E02C82AC0928E020E948A
:1035D0003B108E2D4CC080918D02C82AC0928D0266
:1035E000F6CF8E2D0E94C715CC2009F442C080E290
:1035F0008E0D883010F0811004C08C2D0E94D60AE8
:1036000006C0C09480918D02C822C0928D020E9493
:103610003B102FC03F2D3F70C32E8F2D807F8032F7
:1036200019F0C29480EFC822882089F081E08816C2
:1036300009F468C0DD2009F472C0BB2009F468C039
:10364000F801858180FFC5CF8F70858361C020918F
:10365000B00222FD35C0DD2069F1CC2039F0809127
:103660008E02C82AC0928E020E943B1080E00E9407
:10367000F415292D2850330B2430310510F40E9405
:10368000EB08AA2009F4E9CB80916C0280FDE5CB20
:10369000F80112828595859585950E943F11C80194
:1036A0000E941B1780916C028595859585950E94D7
:1036B000E710D3CB80E00E94C715CC20D1F29DCF7C
:1036C000DD2099F090918F028C2D892BB11003C0D1
:1036D0000E94BD15CECFE1E0BE12FACF22FFC9CFC6
:1036E000981739F280938F02C4CFB11006C00E94A0
:1036F000D00A8C2D0E94B615BCCFF1E0BF1609F49C
:10370000B8CFF5CFDD2031F025E02B1508F4B1CF8F
:103710008C2DDECF34E03B1508F4ABCFEACFBB20D5
:1037200041F3F9E38F1209C02FEF37EE83E0215008
:1037300030408040E1F700C000008E2D0E94C71588
:1037400098CF8F2D86958695837061F0813009F032
:1037500090CFC7019370D11002C090E080E00E942A
:10376000BF0887CFC7019370D11002C090E080E0FE
:103770000E94D5087ECF8F2D837091F5D11079CF1F
:103780004E2D429546954770440F440F8E2D8F70F5
:10379000042E01C0880F0A94EAF72E2D2071E4FE52
:1037A00007C02FE030E001C0220F4A95EAF72095CC
:1037B0003F2D369536953370323069F050F4409194
:1037C0009002313029F0822B84230E944B1151CF7B
:1037D000842B822BFACF282B809190028227F5CF61
:1037E0008695DD2011F08F2D8170882309F441CF5B
:1037F0004E2D429546954770440F440F8E2D8F7085
:10380000042E01C0880F0A94EAF72E2D2071E4FEE1
:1038100007C02FE030E001C0220F4A95EAF720955B
:103820003F2D369536953370323069F050F4409123
:10383000ED02313029F0822B84230E94D61019CF5B
:10384000842B822BFACF282B8091ED028227F5CF93
:103850009F2D9F70F92EDD2029F0892F0E943F11A6
:103860008E2D36CF8E2D0E94B6158F2D0E94E7101B
:1038700000CF8E2DE2EF8E16B1F1E81570F0F0EF6B
:103880008F16D1F021EF821691F0DD2009F45EC091
:10389000B1109FCE8F2D8F712AC033EF831651F157
:1038A00094EF8912F2CF8091B00282FD2FC08F2D4C
:1038B0008F71DD20D9F21BC0DD2081F0E4E0EB1533
:1038C00008F4D7CE2F2D2F7181E090E001C0880F32
:1038D0002A95EAF79091ED028927AFCFF5E0FB1525
:1038E00008F4C7CEEFCF8F2D8F71D110BFCF0E94BC
:1038F0003F11BFCE80E0DD2009F49FCF9F2D9F7147
:1039000081E001C0880F9A95EAF797CFDD2099F002
:103910002F2D2F71F22E822F0E943F118091B00225
:1039200082FF07C038E0F39EC001112483608093BA
:103930006C028F2DDCCF81E00E94F41081E08B15AA
:1039400008F097CE82E00E94F41093CEBB2059F08D
:10395000893309F0F2CE9FEFE7EEF3E09150E040BB
:10396000F040E1F7E8CE8F2D8F7180CFF0E1EF16B8
:10397000FFE5FF0609F484CB21E1E2162FE5F2060C
:1039800009F488CB93EFE9169CE5F90609F4EECB30
:1039900008F082CBF8EDEF16FCE5FF0609F4E2CB68
:1039A00029EDE2162CE5F20609F4ECCB37EDE3162F
:1039B0003CE5F30609F081CB26E241EE61EEC80159
:1039C0000E94B31695CA30E1E3163FE5F30609F409
:1039D0005DCB91E1E9169FE5F906A1F682E057CBB0
:1039E00085E0DE01119601900D928A95E1F7F801CC
:1039F000228189819A81211134CA0E94E70AF82E16
:103A000038CAF6E1EF16FCE5FF0609F41ACD8091FD
:103A10008E02827229ECE2162CE5F20609F447CDFB
:103A200008F073C095ECE9169CE5F90609F43ACD67
:103A300008F052C0F3ECEF16FCE5FF0609F426CDC2
:103A400008F02BCD32ECE3163CE5F30609F056CD39
:103A50008091AD0280FF10C08091A102809581709D
:103A60001F928F938CEB92E09F938F930E94040799
:103A70000F900F900F900F908091A10280FFEBCCE0
:103A80008E7F8093A1026091A1027091A202809129
:103A9000A3029091A4020E940D0E8091AD0280FFBE
:103AA0000FC08091A10281701F928F938DE492E0EC
:103AB0009F938F930E9404070F900F900F900F9089
:103AC000EFEFF0E722E0E150F0402040E1F700C0E6
:103AD00000000E941A0C0CCA44E25FE061E37FE040
:103AE00097ECE9169CE5F90609F4D4CC48E45FE0CC
:103AF0006EE37FE0E8ECEE16ECE5FE0608F4CACCD7
:103B000041E35FE064E27FE0C5CCFDECEF16FCE54D
:103B1000FF0609F4D1CCC8F442E55FE064E67FE03B
:103B20003BECE3163CE5F30609F4B4CC47E15FE077
:103B30006AE07FE09CECE9169CE5F90608F4AACC63
:103B400044E65FE062E57FE0A5CCE6EDEE16ECE54D
:103B5000FE0608F4CDC9FDE5EF16FF0609F4C8C955
:103B6000CDCC2AE5E2162DE5F20609F40FCDF0F4EE
:103B700081E0E8168CE5F80609F4A1CC9EEDE91683
:103B80009CE5F90609F4ADCCE114ECE5FE0609F07C
:103B9000B5CC0E9450113FEF84E39CE0315080404F
:103BA0009040E1F700C000000E949608FCE5EF1687
:103BB000FDE5FF0609F499CC08F4EACC37EAE316F0
:103BC0003DE5F30609F48FCC99CC1F93CF93DF9397
:103BD00080913902807F09F049C0809136028823A4
:103BE00009F444C080916B02D0913A026091340292
:103BF00070913502A0913702B0913802C62FC723C9
:103C000016E0D81799F190E0109711F0CF3F19F412
:103C100001968770F6CF189F9001199F300D1124DF
:103C2000F901E55CFD4F41814713F2CF4081461316
:103C3000EFCF42814111ECCF438154814A1B5B0B92
:103C4000483C510528F7809139028F70806180933C
:103C50003902F901E05CFD4F80818F7080618083C3
:103C600084E392E00E941B170E94DD0ADF91CF914E
:103C70001F910895A1E1B0E0E0E4FEE10C943A2741
:103C80008C0185E0F801DE011D9601900D928A9568
:103C9000E1F7F801E28084E3A82E82E0B82E60917B
:103CA0003702709138026115710509F426C19091AF
:103CB000340240913502892F84238F3F09F41DC1BE
:103CC00020813181C380D480F0903602F601E61B5A
:103CD000F70BFF2009F4DCC080913902582F507F88
:103CE000E83CF10508F09FC051116BC0FE2C431356
:103CF00014C0921312C0E11010C08F7080618093C5
:103D00003902C5010E941B1780913902F801858391
:103D10008F2D6196EAE00C945627C114D10429F046
:103D2000822F83238F3F09F003C180E0F82FF170C9
:103D3000DF2E80FF3CC080916B0240913A0256E03A
:103D4000841315C02D873E878D859E850E94AF0DFB
:103D5000292F22952F702230F0F0243018F59F7013
:103D6000F1F0F8019581907FD1F4D12C1EC090E044
:103D7000589FF001599FF00D1124E55CFD4F6181C2
:103D8000361306C06081261303C06281E6120FC09D
:103D900001968770D5CF9F7011F0882331F3805E34
:103DA000883018F3C8010E941B17FD2CB1CFEE20FC
:103DB00009F4AECF80913902816080933902F12CF1
:103DC000A7CF431306C0921304C0F801EE2009F4F4
:103DD00079C0C8010E94BC0D882309F1EE20F9F0DA
:103DE00080913902803270F0209134023091350296
:103DF00038872F831986DB86CA868C87CE01079683
:103E00000E941B1786E0F801A4E3B2E001900D9236
:103E10008A95E1F70E94E51DFF24F39479CFC8014C
:103E20000E941B17F9CF51110AC084E392E00E944F
:103E30001B1786E0F50111928A95E9F7C0CF43136D
:103E40000FC092130DC0E1100BC0F8018583C801AB
:103E50000E941B1786E0F50111928A95E9F758CF69
:103E6000C8010E94BC0D8823D1F2EE20C1F28091DE
:103E70003902803238F220913402309135023A838F
:103E800029831B82DD82CC828E83CE010196B8CF3E
:103E9000E83CF105F8F6FE2CEE2009F243131FC0B2
:103EA00092131DC08091390280FD10C0982F907F21
:103EB00069F0F8018583903F31F0982F907F905FF3
:103EC0008F70892B8583C8010E941B1786E0F8013B
:103ED000A4E3B2E001900D928A95E1F719CFC801F1
:103EE0000E94BC0D81118ECF809139028160809338
:103EF0003902C8010E941B170BCFEE2009F48FCFA7
:103F0000C8010E94BC0DF82E882309F488CF86E0F2
:103F1000F801A4E3B2E001900D928A95E1F7809157
:103F20003402909135020E94AF0D0E94E51DF0CE43
:103F300081E08E25FBCEA7E1B0E0E1EAFFE10C9441
:103F400041274B8B5C8B6D8B7E8B8F8B611110921D
:103F50008D021A8A198A85E0FE017396DE011D968C
:103F600001900D928A95E1F786E0FE013D96DE0113
:103F7000179601900D928A95E1F7CE0107960E945F
:103F80003A1E882359F016E080916B0290913A0214
:103F9000891343C06796E3E00C945D2786E0FE0139
:103FA0003796DE01119601900D928A95E1F78A8588
:103FB0009B85892B41F38F81988589238F3F19F346
:103FC00020913A0230E0C90101968770992740910B
:103FD0006B024817190671F40E94501110923A02B0
:103FE00010926B0286E0E4E3F2E0DF011D928A9515
:103FF000E9F7C9CF96E0929FD001939FB00D1124AD
:10400000A55CBD4FFE01319601900D929A95E1F7A6
:1040100080933A020E94DD0AB6CF819FC00111242D
:10402000855C9D4F0E943A1E882309F4B3CF80918E
:104030006B0290E001968770992780936B02A4CF62
:10404000A2E0B0E0E6E2F0E20C9442271A82198284
:1040500089B190E024E0959587952A95E1F78095C0
:10406000909581709927898386B190E036E0959587
:1040700087953A95E1F780959095817099278A8385
:1040800042E050E0BE016F5F7F4F84E992E00E9402
:10409000B127892BC1F189819A81909395028093F0
:1040A000940281E0809393020E94B308909392025D
:1040B0008093910220919102309192024FB7F8942F
:1040C0008091E6029091E702A091E802B091E902A6
:1040D0004FBF821B930B0597D0F042E050E064E99C
:1040E00072E08CE992E00E94B127892BA9F08091BF
:1040F00094029091950290939D0280939C0281E09E
:104100001092930205C0809193028111D3CF80E079
:104110002296E2E00C945E2780E0F2CF90E080E00F
:104120000E947727883E9E4F19F40E94E60D08955D
:1041300080E008951F920F920FB60F9211242F93D3
:104140003F934F935F936F937F938F939F93AF931F
:10415000BF93CF93DF93EF93FF93D091E900DF708C
:104160008091EC00C82FC17080FDC0E81092E9007A
:104170008091F000877F8093F00078940E94661110
:104180001092E9008091F00088608093F000CD2BC0
:10419000CF70C093E900FF91EF91DF91CF91BF9174
:1041A000AF919F918F917F916F915F914F913F91CF
:1041B0002F910F900FBE0F901F9018951F920F9286
:1041C0000FB60F9211242F933F934F935F936F93EA
:1041D0007F938F939F93AF93BF93EF93FF938091C0
:1041E000E10082FF15C08091E20082FF11C0809142
:1041F000E1008B7F8093E1002091B6022F5F822F38
:1042000062E30E940527992309F4C0C02093B602F7
:104210008091DA0080FF28C08091D80080FF24C000
:104220008091DA008E7F8093DA008091D90080FF40
:10423000E3C080E189BD82E189BD09B400FEFDCF04
:1042400081E08093DC0285EB9BE00E946B0680910D
:10425000B702811109C00E940D070E94D807809102
:10426000E20084608093E2008091E10080FF1BC047
:104270008091E20080FF17C08091E2008E7F8093E2
:10428000E2008091E20080618093E2008091D8009A
:1042900080628093D80019BC85E08093DC028DEBAE
:1042A0009BE00E946B068091E10084FF2FC080910B
:1042B000E20084FF2BC080E189BD82E189BD89B520
:1042C000982F917080FFFBCF8091D8008F7D8093D5
:1042D000D8008091E1008F7E8093E1008091E20020
:1042E0008F7E8093E2008091E20081608093E20003
:1042F0008091DD02882309F489C084E08093DC0288
:1043000081EC9BE00E946B068091DC028091E100D1
:1043100083FF2BC08091E20083FF27C08091E100E2
:10432000877F8093E10082E08093DC021092DD02BF
:104330008091E1008E7F8093E1008091E2008E7F8A
:104340008093E2008091E20080618093E20042E08D
:1043500060E080E00E94A6078091F0008860809372
:10436000F00085EC9BE00E946B06FF91EF91BF91FE
:10437000AF919F918F917F916F915F914F913F91FD
:104380002F910F900FBE0F901F9018951092B602AC
:104390008091B502882309F43BCF8091DC02843000
:1043A000C1F49091E9009F702091EC00822F817000
:1043B00020FD80E8892B95E09093E9009091EB0037
:1043C00090FF04C09091EE0097FD08C08F7080931D
:1043D000E9001092B5021CCF1092F1009091E80014
:1043E00095FDFACF9091E80090FFF0CF9091E80012
:1043F0009E779093E800EACF19BC1092DC0289EB1B
:104400009BE00E946B061092B7022ECF8091E300D2
:1044100087FD93E09093DC0273CF78941F921FB6D0
:104420001F9211248F939F93AF93BF938091E602C5
:104430009091E702A091E802B091E9020196A11DD6
:10444000B11D8093E6029093E702A093E802B09337
:10445000E902BF91AF919F918F911F901FBE1F9056
:1044600018951F921FB61F9211248F939F93AF939D
:10447000BF938091AE02811113C08091E6029091AA
:10448000E702A091E802B091E9024196A11DB11D99
:104490008093E6029093E702A093E802B093E902CA
:1044A000BF91AF919F918F911F901FBE1F90189544
:1044B000CDB7DEB7AA970FB6F894DEBF0FBECDBF5B
:1044C00085B7806885BF85B7806885BF84B7877FDB
:1044D00084BF0FB6F894A89580916000886180939E
:1044E0006000109260000FBE80E890E00FB6F89474
:1044F00080936100909361000FBE84E49BE09093F1
:104500000F0280930E020E940D070E94D80780912F
:10451000E20084608093E20078948091DC0288233A
:10452000A1F01091E9001F709091EC00892F81702B
:1045300090FD80E8182B1092E9008091E80083FD3F
:104540000E9466111F701093E90082E084BD93E021
:1045500095BD9AEF97BD80936E000E94E60D811184
:1045600002C00E94380D54985C9A3E98469A109268
:104570009D0210929C0210929502109294020E9449
:104580008E20811102C00E94D00F82E090E00E9434
:1045900069278093AD020E94FF0D9093B002809333
:1045A000AF020E9420202FEF86E791E0215080404B
:1045B0009040E1F700C000000E94202080919C0202
:1045C00080FF08C06FEF7FEF90E080E00E949B27A4
:1045D0000E94960883E090E00E9469270E944B1198
:1045E000809196028111DBC08091AD0280FF14C0E2
:1045F0008DE894E09F938F930E9404078091AD0211
:104600000F900F9080FF08C087E794E09F938F93EF
:104610000E9404070F900F900E948E20811110C0FD
:104620008091AD0280FF08C08FE494E09F938F9348
:104630000E9404070F900F900E94D00F0E94C00F9D
:1046400088E090E00E9471276093A1027093A2021B
:104650008093A3029093A4026E7FD1F48091AD0267
:1046600080FF08C086E094E09F938F930E94040728
:104670000F900F900E94C00F88E090E00E94712779
:104680006093A1027093A2028093A3029093A4026C
:104690000E94FE088091AD0280FF76C08DEE93E00F
:1046A0009F938F930E9404078091AD020F900F900B
:1046B00080FF6AC08091A10281701F928F9380ED6C
:1046C00093E09F938F930E9404078091AD020F9017
:1046D0000F900F900F9080FF57C08091A102869598
:1046E0001F928F9385EB93E09F938F930E94040713
:1046F0008091AD020F900F900F900F9080FF44C0FB
:104700008091A2021F928F938BE993E09F938F93E6
:104710000E9404078091AD020F900F900F900F90B0
:1047200080FF32C08091A3021F928F9381E893E0B3
:104730009F938F930E9404078091AD020F900F907A
:104740000F900F9080FF20C08091A4021F928F9342
:1047500087E693E09F938F930E9404078091AD02B8
:104760000F900F900F900F9080FF0EC08091A502C8
:104770001F928F938BE493E09F938F930E94040783
:104780000F900F900F900F908091A10280FF04C0B6
:1047900060E086950E94760F81E08093960280E02B
:1047A00091E09093AA028093A90238E1C32ED12C04
:1047B00040E4642E50E1752E62E1B62E70E1A72E22
:1047C0008091DC02853069F484EA94E00E946B06F3
:1047D0008091DC02853009F486C00E9450110E944D
:1047E000EB080E94202090919C02809199029813DE
:1047F000C3C090919A0280919D029813BDC00E94FF
:10480000B3088C01809197029091980208171907BC
:10481000A1F08FEF89A38AA31BA20E94B308816035
:10482000782F9DA38CA349A15AA16BA18DA10E94B1
:104830009B1F10939802009397020E94EB08182F79
:1048400080919B02181731F110939B020E94A708D8
:104850008091AD0282FF1EC080FF1CC08DEC94E0F1
:104860000E946B068091AD0280FF14C01F921F93BF
:1048700088EC94E09F938F930E9404078091AD028F
:104880000F900F900F900F9080FF04C086EC94E083
:104890000E946B068091DC02843009F091CF83E0A6
:1048A0008093E9008091E80082FF8ACF8091E80040
:1048B00090E085FF06C00E942C07882309F4D1C030
:1048C00091E08091E8008B778093E800992309F4C8
:1048D00077CFE981E150E33108F032C1F0E0EB5EDF
:1048E000F74D0C9425278091DC02843009F1109259
:1048F000AE020FB6F894A895C09260000FBE609209
:10490000600083B7817F846083BF83B7816083BF8A
:104910007894889583B78E7F83BF0FB6F894A89557
:1049200080916000886180936000109260000FBEEB
:104930008091DB02882309F44BCF0E9420208091D4
:104940009D0290919C02892B09F442CF79BCB9BC9D
:1049500009B400FEFDCF8091D8008F7D8093D800F0
:104960008091E00082608093E0008091E00081FD12
:10497000FCCF0E9450112CCF8091AD0281FD15C05B
:104980000CE912E029E9E22E22E0F22E812CF80156
:1049900091908F01F70181917F0189114AC0F1E067
:1049A0008F1244C00E94A70848CF87EB94E00E9472
:1049B0006B061F921F9292EBE92E94E0F92EFF9264
:1049C000EF920E9404078FEA94E00E946B068091A8
:1049D0009C020E942C0B1F928F930AEA14E01F93F3
:1049E0000F930E94040788EA94E00E946B061F92CE
:1049F00081E08F93FF92EF920E9404078FEA94E088
:104A00000E946B0680919D020E942C0B1F928F9337
:104A10001F930F930E94040788EA94E00E946B069C
:104A20000FB6F894DEBF0FBECDBFAACF8824839403
:104A3000AECF892580FF11C01EA28FA2892D817063
:104A400088A70E94B3088160782F9AA789A74EA1F2
:104A50005FA168A58AA50E949B1FF70131979082EC
:104A60009ECF80E2E82EF12C8E010F5F1F4F8091C8
:104A7000E80085FD0AC08091E8008B778093E8000C
:104A80000E942C07882399F31BCF8091F100F80135
:104A900081938F01F1E0EF1AF10849F711CF1A82E3
:104AA0008AE08B8311C08A81823009F4A5C18330EA
:104AB00091F1813009F044C00E94A7080E942B2781
:104AC0006B837C838D839E838091DC02843009F02C
:104AD00077CE1091E9001F709091EC00892F8170C2
:104AE00090FD80E8182B82E08093E9008091E80037
:104AF00080FF0DC050E040E060E270E0CE01019622
:104B00000E945D078091E8008E778093E8001F7017
:104B10001093E90055CE80919C028B8380919D0279
:104B20008C83D2CF8A81823059F46B817C818D81D4
:104B30009E810E942B2786E290E00E947D27C4CFB1
:104B40008FEF8983C1CF4C816B818A810E94480D90
:104B50009827892798279E838D83B6CF2D813E8104
:104B60003227232732274C816B818A810E94DD0CFA
:104B7000ABCF0E94FF0CA8CF8A81813811F1A8F435
:104B8000803809F0A1CF8B812FEF829FC0011124C3
:104B90006FEF70E00E941127462F20E06091A30282
:104BA0008091A2020E94200E8FCF823809F44AC061
:104BB000833809F089CF20E04091A4026C818B8179
:104BC000F1CF60E08B810E94760F2B819091AD0236
:104BD0008091A10221111DC08E7F8093A10290FFC0
:104BE0000CC01F921F9288ED94E09F938F930E94B8
:104BF00004070F900F900F900F908FEF90E7E2E077
:104C000081509040E040E1F700C000000E941A0C83
:104C10005BCF81608093A10290FF0DC01F9281E065
:104C20008F9382E195E09F938F930E9404070F90EA
:104C30000F900F900F908091A10260E086950E94E6
:104C4000760F42CF8B818093A5029091AD0290FFA9
:104C50003BCF1F928F938BE495E09F938F930E949D
:104C600004070F900F900F900F902ECF8A818138FC
:104C7000D9F078F4803809F027CF8091A402FFEFB3
:104C80008F9FC00111246FEF70E00E9411276B838A
:104C90001BCF823889F0833809F016CF8091A202A9
:104CA0008B838091A3023CCF8091A10280FF02C040
:104CB0008695F7CE80E0F5CE8091A502F2CE609188
:104CC000A1027091A2028091A3029091A4020E947D
:104CD0000D0EFACEAA82F8CE83E08A8389ECE1CE6B
:104CE000EA80FB80FE24EF24FE248E010F5F1F4F1D
:104CF0008C80800E912E911CC701C796801691065C
:104D000009F4E2CE29ECE21623E0F20650F40E9408
:104D10006927F8018483FFEFEF1AFF0A0F5F1F4F27
:104D2000EBCFF8011482F7CF0A811B8110270127EE
:104D30001027CE0101964C01EC80E00EF12EF11C03
:104D4000C801C7960E151F0509F4BECE093CE3E065
:104D50001E0720F4F40164810E947D27FFEF8F1A63
:104D60009F0A0F5F1F4FECCF0E94CD0CADCE84E0A9
:104D70008A83AACEEA80FB80FE24EF24FE248E01E3
:104D80000F5F1F4F8C80800E912E911CC70187965C
:104D90008016910609F498CE20E1E216F10450F451
:104DA0000E946927F8018483FFEFEF1AFF0A0F5F63
:104DB0001F4FECCFF8011482F7CF0A811B81102717
:104DC00001271027CE0101964C01EC80E00EF12E58
:104DD000F11CC8018796E016F10609F475CE003182
:104DE000110520F4F40164810E947D27FFEF8F1AE2
:104DF0009F0A0F5F1F4FEDCF86E290E00E94692768
:104E00001B821C821D828E835FCE991B79E004C0B9
:104E1000991F961708F0961B881F7A95C9F78095F9
:104E20000895AA1BBB1B51E107C0AA1FBB1FA617F1
:104E3000B70710F0A61BB70B881F991F5A95A9F743
:104E400080959095BC01CD010895EE0FFF1F059050
:104E5000F491E02D099469279627692778278727F9
:104E6000782708952F923F924F925F926F927F9290
:104E70008F929F92AF92BF92CF92DF92EF92FF926A
:104E80000F931F93CF93DF93CDB7DEB7CA1BDB0B16
:104E90000FB6F894DEBF0FBECDBF09942A883988BB
:104EA00048885F846E847D848C849B84AA84B984C2
:104EB000C884DF80EE80FD800C811B81AA81B981CE
:104EC000CE0FD11D0FB6F894DEBF0FBECDBFED01E2
:104ED0000895F999FECF92BD81BDF89A992780B5C2
:104EE0000895A6E1B0E044E050E00C94A327A8E1C7
:104EF000B0E042E050E00C94A327262FF999FECFB2
:104F000092BD81BDF89A019700B4021639F01FBA1C
:104F100020BD0FB6F894FA9AF99A0FBE0895039639
:104F2000272F0E947E270E947D27252F0E947E2703
:104F3000242F0C947E270196272F0E947E270C9405
:104F40007D27DC01CB01FC01F999FECF06C0F2BD43
:104F5000E1BDF89A319600B40D9241505040B8F737
:104F60000895FB01DC0104C08D910190801921F4AA
:104F700041505040C8F7881B990B0895F894FFCF13
:104F800047126F1218146F121814A212C3121814B9
:104F9000C113CE13E814D314F91453149A159A15A7
:104FA000CE149A159A1525159A15351580159A154A
:104FB0009A159A159A1554159A159A1545159A1514
:104FC00010159A159A1598159815981598159815FD
:104FD000981598159815981592159A15E814C714F0
:104FE0009A159A159A159A159A159A159A159A1549
:104FF0009A159A1592159A159A15CE149A15961512
:105000009615961596159615961596159615961548
:105010009215CF1ACF1A0A1B0A1BA11B391B391B69
:10502000391BBB1B281C391C391C4F2553259225C5
:10503000A325AE25B925BC2536265F26A025A025AB
:105040006A266C2670269426B426B726BA26DD2654
:105050009308DA0B9208D50BD00B9108010A092DA1
:105060002056657273696F6E202D0A5649443A20A6
:105070003078353334322853706163656D616E2941
:10508000205049443A2030783332323528322520B6
:105090004D696C6B29205645523A203078303030BB
:1050A000310A4255494C443A2020284D6172203142
:1050B000302032303234290A4F5054494F4E533A3F
:1050C000204C5546412045585452414B45592043A8
:1050D0004F4E534F4C4520434F4D4D414E44204E73
:1050E0004B524F204C544F20343039360A474343FB
:1050F0003A20382E352E30204156522D4C4942430D
:105100003A20322E312E30204156525F41524348D0
:105110003A20617672350A00818283E200E900EA72
:1051200000B500B600B700CD008301CC008A019223
:105130000194012102230224022502260227022AC9
:1051400002B300B4006F00700040226D225D013B8D
:0E51500001CE00AC00DB0BF40B140C2D0C0098
:00000001FF
