:100000000C9419040C9436040C9436040C943604A5
:100010000C9436040C9436040C9436040C94360478
:100020000C9436040C9436040C9409270C94DD27A8
:100030000C9400220C9436040C9436040C94360470
:100040000C9436040C9436040C9436040C94360448
:100050000C9436040C9487220C9436040C943604C9
:100060000C9436040C9436040C9436040C94360428
:100070000C9436040C9436040C9436040C94360418
:100080000C9436040C9436040C9436040C94360408
:100090000C9436040C9436040C9436040C943604F8
:1000A0000C9436040C9436040C9436045261646942
:1000B000616C65780014471A000800150017001CD1
:1000C0000018000C00120013000400160007460977
:1000D000000A000B000D000E460F0028001D621BD9
:1000E0006806001900050011001000360037612A6B
:1000F000004600E000E30091642B622C429041E650
:1001000000E700E4002900E10028004C00B25D0097
:10011000000000000000001E001F0020002100223F
:1001200000230024002500260027002E612F003820
:10013000002D008700330034003000320089002E8B
:10014000622F0238022D028702330234023002325B
:10015000028902010001000100010001000100010B
:100160000001000100010001000100010001000187
:100170000000000000000000001E021F02200221FB
:100180000222022302240225022602890801002FEE
:100190000238022D02870233023402300232028911
:1001A000020100E300E2009100E1002C0090000158
:1001B0000001004C000100010001000100010001EC
:1001C0000001000100010001000100010001000127
:1001D000000100000000000000000014471A0008A1
:1001E00000150017001C0018000C0012001300047A
:1001F000001600074609000A000B000D000E460F0E
:100200000028001D621B680600190005001100107F
:1002100000360037612A004600E000E30091642BBD
:10022000622C459044E600E700E400010001000173
:10023000000100B25D00000000000000001E001F71
:100240000020002100220023002400250026002792
:100250000023021F0238002D002D02330033022F2D
:1002600000300089003545350038022E002D022E61
:100270000225022F023002310201000100010001BB
:100280000001000100010001000100010001000166
:100290000001000100010000000000000000001E3D
:1002A0000234022002210222022402340026022704
:1002B0000231003502350038022E002D022E0225B3
:1002C000022F0230023102E100E300E2009100E17E
:1002D000002C009000010001004C00010001000111
:1002E0000001000100010001000100010001000106
:1002F00000010001000100010000000000000000FA
:100300000029002B00000000000000000000005247
:100310000000000000E000010038021E02000000A2
:1003200000500051004F000000E100E300E20091A6
:1003300000010000009000000000004C00010001DE
:1003400000010001000100010001000100010001A5
:100350000001000100010001000100000000000098
:1003600000000000002B00000000003A003B003CB1
:10037000003D003E003F0000000000000000004083
:100380000041004200430044004500E1000000003D
:1003900000000001000100010000000851095101A6
:1003A0000001000100010001000100010001000145
:1003B0000001000100010001000100010000000037
:1003C0000000000000C35CC45CC65CC85CCA5C0082
:1003D000000000000000520352CE5CCF5CD05CD124
:1003E0005CD25C00000000000000000000D35CD480
:1003F0005CD55C00000000005C0000000000000014
:1004000000010001000100010001000100010001E4
:1004100000010001000100010001000100010000D5
:10042000000000000000001E0F0500047F3F1F6455
:100430003214643214783C1E1E140A052223252629
:1004400028292A2C2D2F3032333536383A3B3D3E81
:100450004042434547494A4C4E5051535557595ACB
:100460005C5E6062646668696B6D6F7173757779E5
:100470007B7D7F81838587898A8C8E9092949698E4
:100480009A9C9E9FA1A3A5A7A8AAACAEAFB1B3B4F6
:10049000B6B8B9BBBCBEBFC1C2C3C5C6C7C9CACB4B
:1004A000CCCDCED0D1D2D2D3D4D5D6D7D7D8D9D916
:1004B000DADADBDBDBDCDCDCDCDCDDDDDDDDDCDC7F
:1004C000DCDCDCDBDBDBDADAD9D9D8D7D7D6D5D49C
:1004D000D3D2D2D1D0CECDCCCBCAC9C7C6C5C3C268
:1004E000C1BFBEBCBBB9B8B6B4B3B1AFAEACAAA8BD
:1004F000A7A5A3A19F9E9C9A98969492908E8C8A71
:1005000089878583817F7D7B79777573716F6D6B4B
:100510006968666462605E5C5A5957555351504E23
:100520004C4A4947454342403E3D3B3A38363533D5
:1005300032302F2D2C2A292826252322FFAA7F5549
:100540004000010101010101010101020202020258
:10055000020202020303030303030303040404046B
:100560000404040505050505060606060607070733
:10057000070708080808090909090A0A0A0B0B0BEA
:100580000C0C0C0D0D0D0E0E0E0F0F0F1010111187
:10059000111212131314141515161617171818190B
:1005A000191A1A1B1B1C1D1D1E1E1F202021222272
:1005B000232424252626272829292A2B2C2D2D2EB5
:1005C0002F30313232333435363738393A3B3C3DCF
:1005D0003E3F404142434445464748494A4C4D4EC0
:1005E0004F50515354555658595A5B5D5E5F616286
:1005F00064656668696B6C6D6F7072737577787A15
:100600007B7D7E8082838587888A8C8E8F9193956F
:1006100096989A9C9EA0A2A3A5A7A9ABADAFB1B393
:10062000B5B7BABCBEC0C2C4C6C9CBCDCFD1D4D673
:10063000D8DBDDDFE2E4E7E9EBEEF0F3F5F8FAFD15
:10064000FF00000000000000002A2B28000000002E
:100650000000000000000000000000002900000071
:10066000002C1E3420212224342627252E362D3717
:1006700038271E1F202122232425263333362E37E8
:10068000381F0405060708090A0B0C0D0E0F101180
:1006900012131415161718191A1B1C1D2F3130238D
:1006A0002D350405060708090A0B0C0D0E0F101155
:1006B00012131415161718191A1B1C1D2F3130355B
:1006C0004C000000000000000000000000000000DE
:1006D000000000000000000000000000000000001A
:1006E00000000000007E0F00D4FFFFFFC7000000E5
:1006F000781203520061006400690061006C0065BB
:1007000000780000001E03740061006B006100733C
:10071000006800690063006F006D00700061006E8A
:1007200000790000000403090409023B00020100F3
:10073000A0FA0904000001030101000921110100D0
:10074000012240000705810308000109040100019E
:1007500003000000092111010001227B000705822E
:100760000320000112010002000000086374190058
:1007700001000102000105010902A1018502090130
:10078000A100050919012908150025019508750121
:1007900081020501093009311581257F950275080F
:1007A000810609381581257F950175088106050C9C
:1007B0000A38021581257F950175088106C0C0059C
:1007C000010980A101850319012AB700150126B787
:1007D00000950175108100C0050C0901A101850477
:1007E00019012AA002150126A002950175108100A9
:1007F000C005010906A101050719E029E715002533
:100800000195087501810295017508810105071997
:100810000029FF150026FF009506750881000508D0
:10082000190129059505750191029501750391013D
:10083000C00011241FBECFEFDAE0DEBFCDBF11E054
:10084000A0E0B1E0E8EAF6E502C005900D92AA3C0E
:10085000B107D9F723E0AAECB1E001C01D92AD3099
:10086000B207E1F70E944C130C943C2B0C9400004F
:10087000823B9D4569F4FB018281882351F060E051
:100880008CEA90E00E94B81F0E94EA1B80E0089565
:1008900081E0089581E008950E9438040895089544
:1008A0000E944F040895A5E0B0E0E9E5F4E00C945F
:1008B0002E2A49835A833091D10189819A8131113D
:1008C00019C0662399F0222389F00E94500A182F3C
:1008D000682F89819A810E942C0A69817A81812FEF
:1008E0000E94C7102596E3E00C944A2A0E943E0A13
:1008F000182FF3CF0E94500A69817A81F1CFFC0151
:10090000262F408151816281738184810E9453042A
:10091000089581E00895CF93DF93EC0160E00E9499
:100920007F04BE010E945004DF91CF9108950E9480
:10093000071208950E940B12089508950E94F70867
:100940000E949D042FEF84E39CE021508040904062
:10095000E1F700C0000008950E949E040E94AB22AF
:1009600008950E949E040E94BC2208950F931F9335
:10097000CF93DF938C0161E00E947F04EC01B8010A
:100980000E944C04811106C080E0DF91CF911F913D
:100990000F910895B801CE010E94AE208823A1F3E3
:1009A000B801CE010E94ED1D882371F3B801CE017C
:1009B0000E942020882341F3B801CE010E94F71C39
:1009C000882311F3F8018281882361F0CB35FDE59E
:1009D000DF0701F158F4C115ECE5DE0791F0CF3DDA
:1009E000DC4591F0C8010E944A04CFCFCD358DE59A
:1009F000D80769F090F0C83ADD45A1F70E94B1042C
:100A0000C3CF0E94AC04C0CF0E940A0FF7CF0E9450
:100A1000480EE8CF0E94520EE5CF0E94560EE2CF5C
:100A20000E94DD210E9431050E945D1B08950E94F5
:100A300035050E94341C0E94E221089508950E9409
:100A40001E05089581E008950E94220508950895E5
:100A5000CF93C82F0E941F058C2F0E942405CF9191
:100A6000089580E00E94280508950E940A210E94AE
:100A700028050895CF930E940A21C82F8091CC01A8
:100A80008C1779F0C093CC010E946C226093CD0149
:100A90007093CE018093CF019093D0018C2F0E9450
:100AA0002805CF910895ABE0B0E0E9E5F5E00C94BE
:100AB0002F2A4F83588769877A878B8761110E9415
:100AC000930D1E821D8285E0FE013796DE01119690
:100AD00001900D928A95E1F78C819D81892B61F4BB
:100AE00049815A816B817C818D819E810E94BC0CE1
:100AF0002B96E2E00C944B2A89819A8189238F3FBF
:100B000079F3CE0101960E9489048111E9CFF0CFDB
:100B1000FC01808191810E94820A0895CF93C82FA1
:100B20008823C9F08238C9F40E940A2181FD13C0CC
:100B300089E30E944B0D0E94B40D2FEF87EE93E0E6
:100B4000215080409040E1F700C0000089E30E94FE
:100B5000530D0E94B40DCF9108958338A1F40E94E3
:100B60000A2180FDF8CF83E50E944B0D0E94B40D51
:100B70002FEF81EE94E0215080409040E1F700C0DB
:100B8000000083E5E4CF8438A1F40E940A2182FDAD
:100B9000E2CF87E40E944B0D0E94B40D2FEF81EE4F
:100BA00094E0215080409040E1F700C0000087E4CD
:100BB000CECF8CEF8C0F813A90F46C2F8091040192
:100BC000909105010E946E21882329F08C2F0E94AC
:100BD000530D0E94B40D8C2F0E944B0DBACF80E2B2
:100BE0008C0F883048F4C77081E001C0880FCA9527
:100BF000EAF70E94760DADCFEBE5EC0FE33040F461
:100C0000F0E0E45AFE4F808190E00E943021A3CFB3
:100C1000E8E5EC0FE73150F4F0E0EE0FFF1FE25D86
:100C2000FE4F808191810E94462195CFCD3E08F4F0
:100C300092CF8C2F0E94D0130E94A3148CCF8823B4
:100C400009F455C0823879F40E940A2181FF4FC00F
:100C500089E30E944B0D0E94B40D89E30E94530D5D
:100C60000E94B40D0895833859F40E940A2180FF30
:100C70003EC083E50E944B0D0E94B40D83E5EECF8C
:100C8000843859F40E940A2182FF31C087E40E940F
:100C90004B0D0E94B40D87E4E1CF9CEF980F913A81
:100CA000E8F290E2980F983050F4877091E001C01C
:100CB000990F8A95EAF7892F0E947C0DD1CF9BE589
:100CC000980F933028F490E080E00E94302108953E
:100CD00098E5980F973128F490E080E00E94462133
:100CE00008958D3E20F00E942A140E94A3140895B6
:100CF0001F93CF93DF93182FEB010E948E0520974F
:100D000039F4812F0E941F06DF91CF911F91089522
:100D10008FE99FE00197F1F700C000002197EFCF26
:100D200070E060E0893311F460E570E00E947806BD
:100D30000895882321F00E94760D0E94B40D089535
:100D4000882321F00E947C0D0E94B40D0895B0E02C
:100D5000A0E0EDEAF6E00C94282A6C01D62FC72F0C
:100D6000FC011281F580F2949FE0F9220E946C0D43
:100D7000E82E8823B9F0E12E1123A1F08C2F807F7B
:100D8000803421F080E28D0F8830D0F08091C40251
:100D900082FF16C082E00E94170E0E946C0D91E047
:100DA000E82EE926BC2EB2948FE0B822FBE0FB15BA
:100DB00008F468C0EB2DF0E0E25CF44D0C94E829F7
:100DC000E12CF0CF0C2F0F70C07F11F00295007F47
:100DD000112399F0002359F080E28D0F883010F034
:100DE000D11107C0802F0E94760D0E94B40D8D2F67
:100DF00041C0802F0E94860DF8CF8D2F0E941F06C4
:100E0000002309F43FC080E28D0F883010F0D1112B
:100E100004C0802F0E947C0D03C0802F0E948C0D87
:100E20000E94B40D2FC00C2F0F70C07FC03211F084
:100E30000295007FDD2381F0D13009F463C01123D6
:100E400009F46DC0FF2009F463C0F601858180FFBD
:100E5000CECF8F7085835CC08091C40282FD33C089
:100E6000112359F0002329F0802F0E94760D0E9453
:100E7000B40D80E00E948E0505C080E00E941F0630
:100E80000111C7CFEB2DE850FF0B349720F40E94DF
:100E90000A210E942805EE2089F00E94680D80FD3D
:100EA0000DC0F60112820E94620D0E948A09C601DD
:100EB0000E94B7080E94620D0E949A09CDB7DEB762
:100EC000E9E00C94442A112389F0F11006C00E9435
:100ED000960D802B0E949906D5CF21E0F212F7CF14
:100EE0000E94960D802B0E949D0DCCCFF11006C064
:100EF0000E94AA0D802F0E94A006C4CF31E0F316F5
:100F000009F2F6CF112331F085E08F1508F4BACF3E
:100F1000802FE0CF94E09F1508F4B4CFEBCFFF20F3
:100F200049F3D93349F4FFEF27EE33E0F150204085
:100F30003040E1F700C000008D2F0E941F06A2CFB5
:100F40008C2F86958695837069F0813009F09ACF51
:100F50008D2F9C2F9370111102C090E080E00E94B1
:100F6000462190CF8D2F9C2F9370111102C090E0DD
:100F700080E00E94302186CF8D2F112329F00E941E
:100F8000D0130E94A3147ECF0E942A14FACF8C2F74
:100F90008370A1F5111176CF4D2F4295469547707C
:100FA000440F440F2D2F2F7030E0042E02C0220F6B
:100FB000331F0A94E2F790E080E0D4FF09C08FE08D
:100FC00090E002C0880F991F4A95E2F780959095AE
:100FD000C695C695C370822B932BC23049F058F446
:100FE000C13019F00E9458094DCF0E944F094ACFD5
:100FF0000E94610947CF0E944C0944CF8695112376
:1010000011F08C2F8170882309F43CCF4D2F42952D
:1010100046954770440F440F2D2F2F7030E0042E5B
:1010200002C0220F331F0A94E2F790E080E0D4FF61
:1010300009C08FE090E002C0880F991F4A95E2F73F
:1010400080959095C695C695C370822B932BC23020
:1010500049F058F4C13019F00E94C50913CF0E941D
:10106000BC0910CF0E94CE090DCF0E9470090ACF93
:10107000CF70112329F08C2F0E948A098D2F2ACF3F
:101080008D2F0E94A0068C2F0E949A09FBCED23F82
:1010900051F160F4D03FB9F0D13F81F0112309F450
:1010A00049C0F110A4CE8C2F8F7121C0D33F11F114
:1010B000D43FA1F78091C40282FD26C08C2F8F718E
:1010C000112311F314C0112349F084E08F1508F4A3
:1010D000D9CE8C2F8F710E94AC09D4CE95E09F158C
:1010E00008F4D0CEF6CF8C2F8F711111CDCF0E9486
:1010F0008A09C8CE112329F08C2F8F710E947E0996
:10110000C1CE0E947909BECE112349F0CF718C2F38
:101110000E948A0963E08C2F0E94F90DB3CE81E012
:101120000E94170EE1E0EF1508F0ACCE82E00E94BD
:10113000170EA8CEF110F5CE8C2F8F71A5CF0F937F
:101140001F93CF93DF93EC01688179818A810E949C
:101150008D0A8C010E94D7090E944B09B801CE016B
:101160000E94A706DF91CF911F910F910895CF9311
:10117000DF93EC018B819C81892B29F088819981F7
:1011800089238F3F51F4DF91CF910895CE010E94C2
:101190009F08CE010E948B04F6CFCE010E94B604B8
:1011A0008111F4CF0E946C0D882369F38A81882312
:1011B00051F38091C40282FFE6CF82E00E94170EB5
:1011C000E2CF90E080E00E94302190E080E00E9439
:1011D00046210E94930D0E94B40D0E94BF140E94EC
:1011E000A31408950E945B0D0E94E10808950E94D7
:1011F000830D0E94F208089592959F70963091F0A9
:1012000058F4925F9F70923058F4803F19F030F498
:10121000883E30F481E008959A5FF4CF843FD1F3A3
:1012200080E00895883EB0F3813FD1F7F3CFFC0111
:1012300083819481892B29F08081918189238F3F3B
:1012400011F480E00895808191810E94820A0E94B9
:10125000FC080895A5E0B0E0E0E3F9E00C942F2A43
:101260002596E2E00C944B2AA6E0B0E0EAE3F9E030
:101270000C942F2A2696E2E00C944B2A08950E94A3
:101280003E0908950E943F099093F1018093F00177
:101290000E94E108089508950E944209089520914E
:1012A000F0013091F101822B932B0E9442090895A5
:1012B0002091F0013091F101822393230E94420991
:1012C00008952091F0013091F101822793270E9427
:1012D000420908950E943E0908950E946A090895EE
:1012E0000E946D099093EF018093EE010E94E10846
:1012F000089590E080E00E947009089521E030E0B8
:10130000A90102C0440F551F8A95E2F7CA010E9445
:101310007009089521E030E002C0220F331F8A9542
:10132000E2F78091EE019091EF01822B932B0E94C6
:101330007009089521E030E002C0220F331F8A9522
:10134000E2F7209530958091EE019091EF01822394
:1013500093230E947009089521E030E002C0220F1B
:10136000331F8A95E2F78091EE019091EF01822779
:1013700093270E94700908952091EE013091EF01AA
:10138000822B932B0E94700908952091EE013091D9
:10139000EF01822393230E94700908952091EE01AA
:1013A0003091EF01822793270E94700908950895D4
:1013B000262F277091E001C0990F2A95EAF723E0C4
:1013C000769567952A95E1F7660F771F660F771F69
:1013D000FA01E60FF71F50E040E0682F70E08191BE
:1013E000DF0111979B01042E02C0369527950A94C0
:1013F000E2F7217021952827292328272C934F5F76
:101400005F4F4430510559F70895A82FA77023E086
:10141000969587952A95E1F7880F991F880F991F50
:10142000FB01E80FF91F50E040E080E0219130E03F
:101430000A2E02C0369527950A94E2F721703327C9
:10144000042E01C0220F0A94EAF7822B4F5F5F4FF0
:101450004430510559F70895262F973070F487309E
:1014600060F4682F70E087E0989F600D711D112473
:1014700042ED51E0822F0E94D8090895292F97301C
:1014800068F4873058F490E062ED71E037E0239F14
:10149000800D911D11240E94050A089580E0089591
:1014A000B0E0A0E0E6E5FAE00C94282A7C01009187
:1014B000EE011091EF018091F0019091F101082B64
:1014C000192BCFE0D0E0CC24C394D12CBC2EC60184
:1014D0000C2E02C0880F991F0A94E2F780239123F3
:1014E000892B49F4219790F7B12C8B2DCDB7DEB71E
:1014F000E9E00C94442AB7018C2F0E94E210019776
:1015000089F3F3CFCF93DF93EC010E94500ABE0121
:101510000E94E210DF91CF9108951F93CF93DF9344
:10152000EB019091D101992339F0CB010E94820AFD
:10153000DF91CF911F910895882369F0CB010E941C
:10154000500A182F682FCE010E942C0ABE01812F4D
:101550000E94E210EDCFCB010E943E0A182FF6CF79
:101560001F93CF93DF93C091F20116E08091F301B6
:101570008C1304C0DF91CF911F910895D0E01C9F80
:10158000F0011D9FF00D1124EC50FE4F4081518160
:1015900062817381848195810E9434092196C7708C
:1015A000E5CF40912402509125026091260270916E
:1015B000270280912802909129020E9434090895FF
:1015C0001F93CF93DF9380912902807F09F049C058
:1015D00080912602882309F444C08091F201C091D1
:1015E000F3016091240270912502A0912702B0912D
:1015F0002802D62FD72316E0C81799F190E010974C
:1016000011F0DF3F19F401968770F6CF189F900113
:10161000199F300D1124F901EC50FE4F4181471301
:10162000F2CF40814613EFCF42814111ECCF43818D
:1016300054814A1B5B0B483C510528F780912902D5
:101640008F70806180932902F901E750FE4F8081FD
:101650008F708061808384E292E00E94B7080E94CC
:10166000B00ADF91CF911F910895A1E1B0E0EBE3C3
:10167000FBE00C94272A8C0185E0F801DE011D9621
:1016800001900D928A95E1F7F801E28084E2C82E7C
:1016900082E0D82E609127027091280261157105B1
:1016A00009F44EC19091240220912502892F8223B2
:1016B0008F3F09F445C140815181A380B480F090EF
:1016C0002602F501E61BF70BFF2009F4EAC0809122
:1016D0002902382F307FE83CF10508F0A3C0311112
:1016E0006DC0FE2C251316C0941314C0E11012C057
:1016F0008F708061809329020E94D10AC6010E94E6
:10170000B70880912902F80185838F2D6196EAE060
:101710000C94432AA114B10429F0842F85238F3F10
:1017200009F027C180E0F82FF170DF2E80FF3CC068
:101730008091F2012091F30136E0821315C04D87AC
:101740005E878D859E850E94820A292F22952F70A3
:101750002230F0F0243018F59F70F1F0F8019581F7
:10176000907FD1F4D12C1EC090E0389FF001399FBA
:10177000F00D1124EC50FE4F6181651306C06081AD
:10178000641303C06281E6120FC001968770D5CF43
:101790009F7011F0882331F3805E883018F3C80100
:1017A0000E94B708FD2CB1CFEE2009F4AECF809196
:1017B0002902816080932902F12CA7CF251306C04E
:1017C000941304C0F801EE2009F487C0C8010E94F8
:1017D0001709882319F1EE2009F18091290280323E
:1017E00070F0209124023091250238872F831986CA
:1017F000BB86AA868C87CE0107960E94B70886E032
:10180000F801A4E2B2E001900D928A95E1F70E94FE
:10181000E00A0E94D10AFF24F39477CFC8010E9406
:10182000B708F9CF311113C07A2DB98AA88A6E2D65
:1018300089890E942A0984E292E00E94B70886E022
:10184000F60111928A95E9F70E94D10AB5CF2513C6
:101850000FC094130DC0E1100BC0F8018583C801BF
:101860000E94B70886E0F60111928A95E9F74DCFFC
:10187000C8010E941709882389F2EE2079F280912D
:101880002902803208F4BBCF209124023091250236
:101890003A8329831B82BD82AC828E83CE0101965E
:1018A000ACCFE83CF10508F03EC0FE2CEE2009F478
:1018B000B5CF25132AC0941328C08091290280FD3A
:1018C0001BC0982F907FC1F0F8018583903F31F0C5
:1018D000982F907F905F8F70892B8583C8010E941D
:1018E000B70886E0F801A4E2B2E001900D928A9573
:1018F000E1F70E94D10A09CF86E0F801A4E2B2E044
:1019000001900D928A95E1F700CFC8010E94170956
:10191000811175CF80912902816080932902C801CD
:101920000E94B708F2CE7A2DB98AA88A6E2D8989CD
:101930000E942A0986E0F60111928A95E9F7D9CF2B
:10194000EE2009F46BCFC8010E941709F82E8823F6
:1019500009F464CF86E0F801A4E2B2E001900D92B0
:101960008A95E1F784E292E00E9488050E94E00AED
:10197000C0CF81E08E25D7CEACE0B0E0E2ECFCE059
:101980000C942E2A4F83588769877A878B879C8788
:10199000CE0107960E94350B882369F08A859B85C6
:1019A000892B39F04F815885842F85238F3F09F08B
:1019B0006BC016E05FC086E0FE013796DE0111962F
:1019C00001900D928A95E1F78A859B85892B89F391
:1019D0008F81988589238F3F61F32091F30130E057
:1019E000C9010196877099274091F201481719069D
:1019F00071F40E94F7081092F3011092F20186E050
:101A0000E4E2F2E0DF011D928A95E9F7D2CF96E099
:101A1000929FD001939FB00D1124AC50BE4FFE0198
:101A2000319601900D929A95E1F78093F3010E940F
:101A3000B00ABFCF819FC00111248C509E4F0E94DD
:101A4000350B8823E9F0E091F2011E9FF00111248B
:101A5000EC50FE4F40815181628173818481958178
:101A60000E9434098091F20190E0019687709927D5
:101A70008093F2018091F2019091F3018913DACF02
:101A80002C96E3E00C944A2A69857A858B859C859F
:101A90000E9434098ECF682F809104019091050136
:101AA0000E94A4210895682F80910401909105015E
:101AB0000E94A721089580910401909105010E9440
:101AC000AA2108958091320285958595859508957E
:101AD000809132028770089590913202977081E070
:101AE00009F480E0089580913D02089590913D02AF
:101AF000892B80933D020895809590913D02982313
:101B000090933D02089510923D02089590913C02F9
:101B1000892B80933C020895809590913C029823F4
:101B200090933C02089510923C02089580913302F4
:101B3000089508950E94990D08959091C40292FF0E
:101B400008C090913302981721F0809333020E94CD
:101B50009A0D089580913302882329F01092330260
:101B600080E00E949A0D0895CF93DF93E0910401E5
:101B7000F091050180913D028083E0910401F09194
:101B80000501808190913C02892B808390913302E2
:101B9000992381F0E0910401F09105018081892B66
:101BA000808380910401909105010E945C21811144
:101BB0000E94AA0DC0910401D091050148E050E0B7
:101BC0006AE272E0CE010E94BF2A892B59F088E0B8
:101BD000FE01AAE2B2E001900D928A95E1F7CE01F2
:101BE0000E941721DF91CF91089508950E94F50D6D
:101BF00008959091C40292FF11C098E0899F9001CE
:101C00001124622B609332020E948A098091320271
:101C10008595859585950E94F60D08950E948A09FF
:101C200008951092320280E00E94F60D089590917E
:101C300032028095892380933202282F277091F4F5
:101C4000282F082E000C330B9217130659F0909191
:101C5000C40292FF07C08595859585950E949A09D3
:101C60000E94110E08959091C40292FB222720F940
:101C7000281769F080FB92F99093C4028091C30207
:101C80009091C4020E94840E82E00E94170E089573
:101C90008091C40282FB882780F991E089270E9405
:101CA000330E089581E00E94330E089580E00E9473
:101CB000330E08956FEF7FEF90E080E00E94072BD6
:101CC000089590E080E00E94E32A21E0883E9E4F44
:101CD00009F020E0822F089582E090E00E94D52A4A
:101CE000089583E090E00E94D52A0895CF9384E080
:101CF00090E00E94D52AC82F82E290E00E94D52A67
:101D0000982F8C2FCF910895CF93C92F682F84E0FF
:101D100090E00E94E92A6C2F82E290E00E94E92A7A
:101D2000CF910895AB01BC018FE090E00E94FB2AA7
:101D30000895AB01BC0183E190E00E94FB2A089565
:101D400060E070E0CB010E94990E089560E070E0C1
:101D5000CB010E94920E0E94A00E089568EE7EEFC5
:101D600090E080E00E94072B60E082E090E00E941B
:101D7000E92A60E083E090E00E94E92A1092F101F4
:101D80001092F00160E084E090E00E94E92A64E0B3
:101D900082E290E00E94E92A60E085E090E00E9403
:101DA000E92A60E086E090E00E94E92A6FEF87E090
:101DB00090E00E94E92A40E050E0BA0188E090E01B
:101DC0000E94FB2A60E08DE090E00E94E92A40E05A
:101DD00050E0BA0188E190E00E94FB2A60E087E1D0
:101DE00090E00E94E92A40E050E0BA018CE190E0E6
:101DF0000E94FB2A70E060E080E290E00E94072BE6
:101E000040E050E0BA0188E190E00E94FB2A0E9485
:101E1000A60E08950E94AE0E0895682F8EE090E001
:101E20000E94E92A08950E946C2260934B027093ED
:101E30004C0280934D0290934E0260934702709340
:101E400048028093490290934A02089508950895A4
:101E50000E94270F089508950E942B0F08958CEC7F
:101E600091E10E9400210E94260F0E94280F0895F0
:101E700081E008950E94380F0895089508950E9402
:101E80003D0F0E943E0F08950E94E8110E94270511
:101E900008950E9457220E94AF120E94440F0E9490
:101EA000F81B0E942C0F0895AAE0B0E0EAE5FFE0DD
:101EB0000C94272A0E94C51280E4A82E82E0B82E36
:101EC000750110E0F70101917F01812F0E940E1230
:101ED0001F5F173009F440C00817A1F380914F022B
:101EE00081FD0E9414120E943A0FC82E10E0812F2B
:101EF0000E940E12082FF50181915F01081731F140
:101F0000D02ED826F12CEE24E3948D2D8E21B1F025
:101F1000CC20A1F0FE821F8391E0802F8E2109F456
:101F200090E098870E9460228160782F9A87898745
:101F30004E815F8168858A850E945305F394EE0C7B
:101F4000F7E0FF12E2CFF501319700831F5F1730F2
:101F500071F60E94130F20C00813C0CF0E946022A8
:101F60008C0180913E0290913F0208171907A1F061
:101F70008FEF89838A831B820E9460228160782F81
:101F80009D838C8349815A816B818D810E94530589
:101F900010933F0200933E020E943E1C0E94E114F7
:101FA0000E943A052A96EAE00C94432ACF93DF93E5
:101FB0000E94E710EC01811521E5920708F042C06C
:101FC000811530E5930708F09FC0883E910530F5F4
:101FD000803E910508F094C0883A910588F4853ACE
:101FE000910508F086C08130910509F489C00097F9
:101FF00009F486C0049708F083C0D0E0C0E080C038
:102000008F3B9105D0F7C85AD0E0CC0FDD1FC15AE5
:10201000DE4F0990D881C02DD46472C0811540E292
:10202000940750F4C11581E0D80708F069C0CD3E8F
:10203000D10518F3D06564C081159044F0F2DF70CB
:10204000D06A5EC0811535E5930718F5811544E522
:10205000940708F085C0C11583E5D80708F06CC067
:10206000C11522E5D20708F462C0CE01837099271A
:1020700021E030E002C0220F331F8A95E2F7C695B7
:10208000C69580E2C89FE0011124C22BD32BDC68E7
:1020900037C0811539E59307A8F4811548E5940701
:1020A00008F063C0C11586E5D80708F0A6CF8C2FCD
:1020B0000E948911C82FD0E0DC2FCC27CC27DF71FC
:1020C000D0621EC081152AE5920708F453C09056CD
:1020D0008115904208F091CF8D2F8F710E94891148
:1020E00090E0982F882788279F719C012C2BE9016D
:1020F000E7CFC55AD0E0C357DE4FC881D0E0D064E7
:10210000CE01DF91CF9108958370992721E030E0CF
:1021100002C0220F331F8A95E2F7C695C69540E2AA
:10212000C49FE0011124C22BD32BDD68E9CFDC2F43
:10213000CC27C16FD06AE4CFCE018370992721E00C
:1021400030E002C0220F331F8A95E2F7C695C6958C
:1021500040E2C49FE0011124C22BD32BDA68D0CF18
:10216000D82FCC27C46FD06ACBCFD82FCC27C06F45
:10217000D06AC6CF8F700E94891134E0D695C7957A
:102180003A95E1F7CF709C2FEC01D069B9CF972F2A
:102190007730A8F4673098F470E027E0929F600DE4
:1021A000711D1124FB0191E3899FE00DF11D1124A4
:1021B000EE0FFF1FEB54FF4F85919491089580E03F
:1021C00090E008950E94C7100E94D60F08958238AB
:1021D0009105B9F1B0F48133910509F47DC048F45B
:1021E0008932910509F46DC08A32910509F47BC0EA
:1021F00008958533910509F45FC08933910509F18C
:102200000895833E9105D9F138F4803E910529F176
:10221000823E910579F10895863E9105D9F1873E78
:10222000910509F43EC0843E910541F52091C40218
:1022300021FF24C08091C30284FD19C087EE90E085
:1022400008952091C302237009F05AC02091C4025E
:1022500023FF14C089E290E008952091C30220FD7D
:1022600038C03091C40230FF09C024FF43C090E061
:1022700080E008952091C30222FDF7CF08952091B8
:10228000C30222FD3AC03091C40230FD39C024FFA0
:10229000F5CFEDCF2091C30223FFF0CF24FDE7CF90
:1022A000CDCF2091C30223FD2EC03091C40231FF57
:1022B000EECF84EE90E008952091C30225FFDECF9B
:1022C000C9CF2091C30225FD21C02091C40223FF64
:1022D000D5CF89E390E0D2CF2091C30226FFCECFA5
:1022E0008AE290E008952091C30226FFC7CF81E3E0
:1022F00090E0089583EE90E0089582EE90E00895D6
:1023000080EE90E0089586EE90E0089585E390E0F9
:1023100008959091C30292FF06C0282F287128309B
:10232000F9F4877F846093FF06C0282F2871283135
:10233000F1F4877E84612091C40220FF06C0382F0B
:1023400038713830D9F4877F816021FF06C0282F8B
:1023500028712831D1F4877E816194FD877E0895AC
:10236000282F24712430F9F68B7F8860DCCF282F4A
:102370002471243101F78B7E8861DDCF382F3171D4
:10238000313019F78E7F8860E0CF282F21712131FD
:1023900021F78E7E8861E1CF80E008950E945A0E79
:1023A00008950E94C5128FE39CE90197F1F700C0E0
:1023B00000000E94C51280E00E940E1280FF04C03F
:1023C0000E94CE110E94AB2208950E94D11108955F
:1023D0000E94610E811102C00E940A0F0E946C0EC1
:1023E00080934F020E94760E9093C4028093C302A2
:1023F0000E94E5110E94710E90E00E944C098091AC
:10240000EE019091EF010E946D09089508950E94D8
:102410000612089508950E940A120895E82FF0E028
:10242000E453FD4F80810895089580EA8A95F1F77D
:10243000089500C008950E9415120895F894E82F99
:10244000E295EF70F0E031A1282F2F7081E090E04D
:1024500001C0880F2A95EAF7982F9095932391A3AE
:1024600092A1892B82A378940895CF93DF93C7E933
:10247000D1E089918F3F11F00E941E1281E0CE3988
:10248000D807B9F7C0E9D1E089918F3F11F00E94D8
:102490001E1281E0C739D807B9F7DF91CF910895AF
:1024A000B0E0A0E0E6E5F2E10C94292AEC01D62E9A
:1024B000062F10E0C80189569E4F7C01FC018081E7
:1024C0008F3F09F445C0F894E82FE295EF70F0E0F3
:1024D00091A18F7021E030E001C0220F8A95EAF7C8
:1024E000892F822B81A382A12095282322A378946F
:1024F0000E941912E0E9F1E047E951E031E0C12C16
:1025000021912F3F51F1A22FA295AF70B0E090968C
:102510008C9190E02F7002C0959587952A95E2F7EF
:1025200080FD1BC0832FC82A330F4E175F0741F76A
:10253000F70180818F3F11F00E941E1261E0C110EF
:1025400001C060E08D2D0E941B12C00FD11FC882F8
:10255000CDB7DEB7E8E00C94452A80E0E4CF0E94D6
:10256000351287E0ECECF2E0DF01982F1D929A958E
:10257000E9F7E5ECF2E0DF011D928A95E9F787E0E3
:102580000E9400130E9497040895A7E0B0E0EBECCE
:10259000F2E10C942C2A8E010F5F1F4F87E0F801A7
:1025A00011928A95E9F7F12C6F2DC8010E94501203
:1025B000F394F7E0FF12F8CF47E050E0B80185EC64
:1025C00092E00E94BF2A21E0009709F420E0892BC5
:1025D00041F087E0F801A5ECB2E001900D928A95F8
:1025E000E1F747E06CEC72E085EC92E00E940113A9
:1025F000182F0E949A04812F2796E5E00C94482A10
:102600000895CF92DF92EF92FF920F931F93CF9393
:102610006C017B01042F222349F081E08093520258
:102620000E9460229093510280935002C091520206
:10263000C1110AC0C0E08C2FCF911F910F91FF9064
:10264000EF90DF90CF9008958091500290915102C9
:102650000E947822059770F310E0A801B601C70127
:102660000E94BF2A892B41F0A801B601C7010E9430
:10267000CC2A10925202DFCFC0E0FBCF0E945F2431
:102680000E94490F0E946C2408950E9471240E94A8
:10269000540F0E948B2408950E94F9210E94452422
:1026A0000E942F0F0E943E130E9445130E943F0F6D
:1026B000FBCF8091590280FF0DC060910B0170E04B
:1026C000660F771F6038710570F56115710569F146
:1026D000862F089581FF07C060910B0184E0689FF9
:1026E000B0011124EFCF60910B0182FD0AC08091EF
:1026F00058028823A9F020910A0160910B018217EA
:1027000010F088E0ECCF869FC001112433E0880FE1
:10271000991F3A95E1F7622F70E00E94B229D2CF5B
:1027200068E070E0D5CF8FE7089581E0089580914B
:10273000590280FF0CC06091070170E075956795A4
:10274000759567956115710549F1862F089581FF8B
:1027500006C06091070170E075956795F3CF6091B1
:10276000070182FD0BC0909157029923A1F060915F
:10277000060180910701961738F0682F70E06038E5
:10278000710500F38FE70895899FC001112470E05F
:102790000E94B229F4CF61E070E0D7CF81E00895C4
:1027A0008D3E31F40E945913819580935D02089506
:1027B0008E3E19F40E945913F8CF8F3E31F40E94D7
:1027C0005913819580935C020895803F19F40E940B
:1027D0005913F8CF893F29F40E94971380935E0222
:1027E00008958A3F21F40E9497138195F7CF8B3F7C
:1027F00031F40E949713819580935F0208958C3F76
:1028000019F40E949713F8CF9FE0980F983070F456
:10281000815F990B21E030E001C0220F8A95EAF731
:1028200080915B02822B80935B0208958D3F31F48F
:102830008091590281608093590208958E3F21F45E
:10284000809159028260F7CF8F3FB9F7809159028A
:102850008460F1CF40915C028D3E59F480915D021D
:1028600087FF0DC010925D0241110BC010925802FB
:1028700008C08E3E81F480915D0218169CF34423BB
:1028800081F080915E0290915F02892B09F05AC01D
:102890001092570208958F3E49F447FFF0CF1092EF
:1028A0005C0280915D028111ECCFE0CF803F19F492
:1028B0001416ACF3E4CF90915E02893F29F4191607
:1028C000F4F610925E02DBCF8A3F19F497FFD7CF60
:1028D000F8CF90915F028B3F29F497FFD0CF1092F1
:1028E0005F02CDCF8C3F19F41916CCF3C8CF9FE00F
:1028F000980F983090F4815F990B21E030E0B90196
:1029000002C0660F771F8A95E2F7CB018095909100
:102910005B02892380935B02B2CF8D3F31F48091BB
:1029200059028E7F80935902AACF8E3F21F4809165
:1029300059028D7FF7CF8F3F09F0A1CF80915902C7
:102940008B7FF0CF08950E9460229C0190915C02E1
:1029500080915D02982B21F030935602209355020E
:1029600090915E0280915F02982B21F03093540287
:10297000209353028AE592E00E942221089586E086
:10298000EAE5F2E0DF011D928A95E9F7109258021C
:1029900010925702109259020895FC018281811110
:1029A0000EC0838181110BC08481811108C091E028
:1029B0008581811101C090E0892F8170089581E0A7
:1029C000FCCFA6E0B0E0E7EEF4E10C942E2A86E01E
:1029D000EAE5F2E0DE01119601900D928A95E1F7A9
:1029E00010925C0210925D0210925E0210925F02E1
:1029F0008B819C81892B89F08091550290915602A0
:102A00000E947822AC01909158029923C9F18091DB
:102A10000C018417150608F440C08D819E81892B16
:102A200091F080915302909154020E947822AC015F
:102A300090915702992309F471C08091080184177D
:102A4000150608F479C0BE016F5F7F4F8AE592E0FA
:102A50000E94B121811105C08AE592E00E94CD1447
:102A600081110E94A31486E0FE013196AAE5B2E02E
:102A700001900D928A95E1F72696E3E00C944A2A9C
:102A800020910D018AE0289F900111242417350719
:102A900020F69F5F9093580202C09F3FD1F71B81A1
:102AA000112359F00E9459139FEF11160CF491E075
:102AB000899F802D112480935C021C81112359F081
:102AC0000E9459139FEF11160CF491E0899F802DFD
:102AD000112480935D0230915C02332309F49DCF71
:102AE00020915D02222309F498CF45EB3403C00105
:102AF0001124992359F090935C0245EB2403900133
:102B00001124332339F030935D0287CF81E0809325
:102B10005C02F3CF81E080935D027FCF20910901B9
:102B20008AE0289F900111242417350708F08BCFE5
:102B30009F5F9093570202C09F3FD1F71D811123E1
:102B400059F00E9497139FEF11160CF491E0899FA2
:102B5000802D112480935E021E81112359F00E9462
:102B600097139FEF11160CF491E0899F802D11248B
:102B700080935F0230915E02332309F464CF209189
:102B80005F02222309F45FCF45EB3403C001112417
:102B9000992359F090935E0245EB24039001112490
:102BA000332339F030935F024ECF81E080935E0291
:102BB000F3CF81E080935F0246CFEF92FF920F93B5
:102BC0001F93CF93DF93EB01E82FD1110EC0442365
:102BD00021F0F0E0EF5BFA4FE4916E2F7E2F8E2F05
:102BE000CDB7DEB7E6E00C94472A0D2F10E0282F72
:102BF00030E0442329F02F5B3A4FF901249130E073
:102C0000F6E0CF9FC0011124EFEFF0E0BF010E947A
:102C10009E29AB018C2F90E0880F991FA5E5A49FFA
:102C2000B001A59F700D1124861B970B982F990F4B
:102C3000980FBF01601B710B629FD001639FB00DA5
:102C4000729FB00D11248B2F9D9FB0011124672F0F
:102C50007727EF01C61BD70BBE01629FE001639F80
:102C6000D00D729FD00D11247F01E91AF108E09E6A
:102C7000B001E19E700DF09E700D1124672F772733
:102C8000E61BF70BE29F8001E39F100DF29F100DF2
:102C90001124E12F722F4230510599F048F441156B
:102CA000510569F04130510581F0EB2F8D2F07C0A0
:102CB0004430510569F080F046305105B1F76E2F70
:102CC0008FCFE22F7B2F812FFACFE22F7D2FF7CFEF
:102CD000EB2F822F712FF3CF7B2F822FED2FEFCF92
:102CE00041E00E94DD15089508950E947016089530
:102CF000CF93DF93762FE901682F842F0E947516FA
:102D0000798368838A83DF91CF9108958091D3027C
:102D1000982F9E7F29F4817082608093D30208955A
:102D20008635E8F381708465F8CF88E090E00E94F2
:102D3000DD2A0895CF92DF92EF92FF926B017C0122
:102D40000E948616B701A60188E090E00E94FB2A47
:102D5000FF90EF90DF90CF900895E3EDF2E083E0F5
:102D6000808311828FEF82838383148260817181DB
:102D7000828193810E949A1608958091D30280FFE8
:102D800002C08695089580E008959091D70293300F
:102D900018F49F5F9093D702882351F06091D3027B
:102DA0007091D4028091D5029091D6020E949A1619
:102DB000089581E00E94C51608959091D702992345
:102DC00019F091509093D702882351F06091D3026B
:102DD0007091D4028091D5029091D6020E949A16E9
:102DE000089581E00E94DD16089570E00E94C11DE3
:102DF0000895609112018091D30280FF0BC08091F1
:102E0000110123E0829FC001112488529D4F0E942E
:102E1000F5160895809113019091140123E0829F8B
:102E2000F0011124E852FD4F891748F711821082F2
:102E300012828F5F3396F8CF9091D30290FF0EC02D
:102E4000909113012091140133E0939FF00111241C
:102E5000E852FD4F921718F00E94F91608958183E9
:102E6000608342839F5F3396F5CFA3E0B0E0EBE34E
:102E7000F7E10C942F2A9091D30290FF0AC09E0193
:102E80002F5F3F4F0E9478164B8169818A810E9493
:102E90001C172396E2E00C944B2ACF93DF93EC01AE
:102EA000EC81F0E0E45CFB4F4491E3EDF2E0628101
:102EB00081810E9435178C818F5F8C83DF91CF9148
:102EC0000895CF93DF93EC01E3EDF2E0438162815B
:102ED0008C810E9435178C818F5F8C83DF91CF911D
:102EE0000895A3E0B0E0E7E7F7E10C942D2A8C0108
:102EF0008091600281110AC09E012F5F3F4F4FEF0A
:102F00006FEF0E9478168A8180936002F8016481D5
:102F1000613069F08091600240E0662361F040E03A
:102F2000623011F44091600280E060E004C0609182
:102F3000600240E080E00E941C17F801848190E06C
:102F4000019663E070E00E94B22984832396E4E056
:102F50000C94492AA3E0B0E0E0EBF7E10C94282AB6
:102F6000082FD62EE42EC22E9091D30290FF29C0B6
:102F7000E92FE695AE2FB0E0A256BE4F8C9180931C
:102F8000A8029E7F923009F59E012F5F3F4F802F50
:102F90000E9478164B8169818A810E941C170093D8
:102FA000D402D092D502E092D602CC2051F06091AA
:102FB000D3027091D4028091D5029091D6020E94E2
:102FC0009A162396E9E00C94442A823019F4E09092
:102FD000D602E5CF863019F40091D402E0CF8930D3
:102FE000D9F38931E1F6E9516E2F6170B62EE6957D
:102FF000F0E0E45CFA4F1491F12C60911501F616A3
:1030000018F00E94F916CBCFF19EC001112470E098
:103010000E949E29802FB11014C0860F20911301A9
:10302000622F6F0D7727771F9B01220F331F260F0B
:10303000371F28523D4F4E2D6D2D0E947816F39468
:10304000DCCF861BEBCFE3EDF2E09181282F4381AB
:10305000628188E0890F0E94AA17089581E00E948A
:1030600023180895E3EDF2E09181282F43816281D6
:1030700088EF890F0E94AA17089581E00E943218F4
:103080000895E3EDF2E0628128E0620F08F46FEF4B
:10309000282F438181810E94AA17089581E00E9410
:1030A00041180895E3EDF2E0628128E0621B08F424
:1030B00060E0282F438181810E94AA17089581E052
:1030C0000E9452180895E3EDF2E0438128E0420F98
:1030D00008F44FEF282F628181810E94AA1708957A
:1030E00081E00E9463180895E3EDF2E0438128E057
:1030F000421B08F440E0282F628181810E94AA17B8
:10310000089581E00E947418089520E00E94AA1793
:103110000895EF92FF921F93CF93DF93EC0110E09D
:10312000EE24EA94F12C60911501161770F00E94BC
:10313000F9169A818C8190FF27C08F5F8C83DF9175
:10314000CF911F91FF90EF90089520911301422F8E
:10315000410F5527551FCA019A01220F331F280F0F
:10316000391F28523D4F70E0C7010E94B229962FA7
:103170008C814091D6026091D502199F800D112457
:103180000E9478161F5FCFCF8150D8CFB0E0A0E06B
:10319000ECECF8E10C94272AFC0182810FEF80FF10
:1031A00001E010E04CE0A42E80911501181798F072
:1031B0000E94F91680916202013009F04FC081111E
:1031C00002C080911501815080936202CDB7DEB7B5
:1031D000EAE00C94432AC0911301C12ED12CCC0DEE
:1031E000DD2DD11DCE01880F991FC80FD91FC852E0
:1031F000DD4F198218821A8234E0E32EF12CB12CB3
:10320000809162028B0D8D301CF16A2D0E949029F5
:10321000892F082E000C990BC816D90691F48091BD
:10322000D6028E9DA0018F9D500D11245595479576
:10323000559547959E016091D5028091D4020E94D8
:103240007816B00EF1E0EF1AF108D1F61F5FACCF9F
:1032500087FFDFCF90911501890FDBCF90E00196BA
:103260006091150170E00E94B229AECF0F931F93B9
:10327000CF93DF93809113019091140123E0829FFB
:10328000F0011124E852FD4F891740F1C0E0D3E06E
:1032900060911501C61740F10E94F91620910F01A7
:1032A00080916102820F8093610290911001920FD0
:1032B00090931001191654F4082E000C990B4091AC
:1032C00015014150550B841795071CF0219520934B
:1032D0000F01DF91CF911F910F91089511821082FC
:1032E00012828F5F3396D0CF0C2F10E070E0C801B0
:1032F0000E94B22920911301820F482F50E02091A3
:103300006102022E000C330B02171307BCF0209150
:103310001001022E000C330B201731077CF08D9F1B
:103320009001112428523D4F4091D6026091D50260
:103330008091D4020E947816CF5FAACFFA01EE0FD7
:10334000FF1FE40FF51FE852FD4F11821082128219
:10335000F3CFB0E0A0E0EFEAF9E10C94252AEC010C
:103360004C81042F10E09801D8010E94F6299B019E
:10337000AC010E940C2A4B015C01E0E2F0E0E01B92
:10338000F10BA5E5B0E0AC019B010E940C2A6B019A
:103390007C019F01DF010E94EE299B01AC010E948C
:1033A000172A9B01AC01280D391D4A1D5B1DC70161
:1033B000B6010E94C629F22E822F90E039E23F1515
:1033C00020F143E0249F9001112435952795122F79
:1033D000109500E085E5E82EEF188091150108179B
:1033E00018F10E94F9169C8181E0992319F090321E
:1033F00019F48FEF80930E0180910E01890F8C8359
:10340000CDB7DEB7ECE00C94412A25E530E0B901F8
:10341000681B790B9B01220F331F260F371F37FFC5
:10342000D4CF2F5F3F4FD1CF8E2D01FD8F2D209117
:103430001301622F600F7727771F9B01220F331F25
:10344000260F371F28523D4F412F6091D5020E9411
:1034500078160F5FC2CF0F931F93CF93DF93EC01CA
:1034600010E000E0909115019017110609F06CF43E
:103470000E94F9168C8190E00196817099278C83C7
:10348000DF91CF911F910F91089520911301A80111
:10349000420F511D9A01220F331F240F351F28524E
:1034A0003D4F4C816091D5028091D4029695901742
:1034B000110651F04CF0442349F04091D6020E948D
:1034C00078160F5F1F4FCECF4423B9F340E0F7CFFC
:1034D000B0E0A0E0EEE6FAE10C94212AFC01628063
:1034E000448081E08483ECE3F4E07490EBEBF4E05F
:1034F000E491812C75E0972EF2E0CF2EDD24D39459
:10350000AA24AA94B12C55245A94E7190E2F10E03E
:1035100080911501881638F00E94F916CDB7DEB7F4
:10352000E0E10C943D2AE82CF12C82E0861568F04D
:103530009E9CF0019F9CF00D1124ED59FD4F809150
:10354000D40280838091D5028183411023C09E9C48
:10355000F0019F9CF00D1124ED59FD4F1382128252
:1035600020911301C701820F911D9C01220F331F6F
:10357000280F391F28523D4F9E9CF0019F9CF00D53
:103580001124ED59FD4F4281618180810E9478169E
:103590008394BECF9E9CE0019F9CD00D1124CD59F9
:1035A000DD4F8B818823E9F081508B83859DC0019D
:1035B00011246C8170E00E949E29FB01FF27E45CCE
:1035C000FB4F8491E82FE719E59DC0011124B80154
:1035D0000E949E298091D602689FB00111247A83AF
:1035E000BFCF0E94A22A2091D602269521582C9D59
:1035F000A0012D9D500D1124452F552784179507A7
:103600000CF0AECF82E0861588F40E94A22AB501A4
:103610000E94B22988830E94A22A2091D502269571
:10362000622F70E00E94B229280F29839E9CF0012E
:103630009F9CF00D1124ED59FD4F12828091D6020E
:10364000893C58F088EC9E9CF0019F9CF00D112461
:10365000ED59FD4F8483838383CF8431A0F784E1C8
:10366000F2CFE3EDF2E080818E7F80836081718113
:10367000828193810E949A161092A9022FEF80E70F
:1036800092E0215080409040E1F700C000000E948D
:10369000F9160895E3EDF2E080818E7F8083109229
:1036A000A9022FEF80E792E0215080409040E1F79F
:1036B00000C000000E94F91608951092A90280919E
:1036C000A60281110AC081E08093A6028091D302F4
:1036D00081708093A5020E944A1B08956091D302D5
:1036E000669570E04BE050E086E191E00E94B22ADE
:1036F000892B19F481E08093A9020E9460229093A3
:10370000A00280939F0208959091D30290FF2BC056
:103710009170811129C092609093D302662351F079
:103720006091D3027091D4028091D5029091D6021B
:103730000E949A166091D302669570E04BE050E0CB
:1037400086E191E00E94B22A892BA9F01092A90289
:1037500081E08093A2024091D6026091D5028091CF
:10376000D4020E94851808958B3210F09465D4CF4E
:10377000880F982BD1CF0E946E1BEACF682F9091B3
:10378000D302969581E0890F8B3208F081E00E9488
:10379000841B089581E00E94BE1B0895682F9091BC
:1037A000D30296958FEF890F09F48AE20E94841B59
:1037B000089581E00E94CE1B089561E00E94841B61
:1037C0000895E3EDF2E080818160808386950E9418
:1037D000DD1B08958091D30280FF03C00E94311B3E
:1037E00008950E94E11B089560E00E94841B0895E3
:1037F0008091A70281112EC00E94610E811104C028
:103800000E940A0F0E94AD160E9495166093D30283
:103810007093D4028093D5029093D6026E7F61F4A8
:103820000E94AD160E9495166093D3027093D40245
:103830008093D5029093D6020E9486161092A90218
:103840008091D30280FF03C086950E94F41B81E023
:103850008093A7020895E3EDF2E080818160808388
:1038600086950E94F41B08951092A6028091A502ED
:1038700081110E942B1C0E946E1B08950F931F93B1
:10388000CF93DF938091A9028823B9F18091A80298
:10389000E091D302E695E81BE093A102823091F516
:1038A000F0E0E85CFB4FE491CE2FD0E00DE417E1AF
:1038B0008091A202882361F01092A2020E946022ED
:1038C0009093A00280939F021092A4021092A302F0
:1038D0000E946022E0919F02F091A0028E1B9F0B3C
:1038E0008F3F9F4750F4EC0FFD1FF093A002E09331
:1038F0009F028FE992E0F8010995DF91CF911F9126
:103900000F910895863049F4F0E0EB5CFB4FE491B1
:10391000CE2FD0E001E617E1CBCF893051F4E69508
:10392000F0E0EE5CFB4FE491CE2FD0E009E818E127
:10393000BFCF8F3051F4E695F0E0E15DFB4FE491AD
:10394000CE2FD0E006EC18E1B3CF853149F4F0E09A
:10395000E45DFB4FE491CE2FD0E006E319E1A8CF60
:10396000C8E2D0E009EA19E1883109F4A1CF833235
:1039700039F4EAE2F4E0C591D49101E717E198CF78
:10398000C4EFD1E00BE21AE1843209F491CFC0ED2B
:10399000D7E004E716E1853209F08ACF8E2F63E085
:1039A0000E948429E92FF0E0E95DFB4FE491CE2FDE
:1039B000D0E008E61AE17CCFFA01811101C0FB01D9
:1039C00009950895CF93DF93C82FD62F0E94BD1677
:1039D0008C1748F00E94BD168D1728F40E94CA1B50
:1039E000DF91CF9108958C2F0E94DD1BF9CF1F939B
:1039F000CF93DF93EC01FB01128111111BC00E94D8
:103A0000730D8272CD3CFCE5DF0709F4A0C008F01D
:103A100045C0C73CECE5DE0709F485C0F8F4C43CBA
:103A20009CE5D90709F475C050F4C33CDC4509F4A2
:103A30006DC011E0812FDF91CF911F910895C53C9A
:103A40009CE5D90709F46AC04DE358E16EE278E1DC
:103A5000C63CDC4571F70E94DC1CECCFCA3CFCE59F
:103A6000DF0709F46AC068F4C83CECE5DE0709F436
:103A70005FC04EE458E16FE578E1C93CDC4559F39D
:103A8000D8CFCB3C9CE5D90709F45CC041EF56E1A7
:103A900069ED76E1CC3CDC45F1F2CBCFC23DFCE5F3
:103AA000DF0709F463C098F4CF3C9CE5D90709F41B
:103AB00057C008F451C0C03DFCE5DF0709F453C00E
:103AC000C13DDC4509F0B5CF6EE089E01CC0C53DC5
:103AD0009CE5D90709F450C058F4C33DFCE5DF0765
:103AE00009F447C0C43DDC4509F0A3CF88E135C0E7
:103AF000C63D9CE5D90709F442C06AE285E2CE35AD
:103B0000DD4509F096CF0E94E21C94CF0E94EA1B8B
:103B100091CF49ED5BE16AEC7BE19DCF4AEC5BE143
:103B200069ED7BE198CF4EE258E16DE378E193CF08
:103B30004FE558E16EE478E18ECF41E858E160E767
:103B400078E189CF40E758E161E878E184CF49ED39
:103B500056E161EF76E17FCF81E00E94DD1B6ACF05
:103B600065E082E0D0CF68E086E0CDCF64E18FE011
:103B7000CACF67E185E1C7CF62E289E1C4CF83E2C2
:103B8000ECCF539A4BB1477F5BB15860EFB7F894D5
:103B90009B01220F331F260F371F280F391F2817AD
:103BA000390741F4EFBF8FE594E00197F1F700C0CA
:103BB00000000895DC016D91CD0178E05BB9000053
:103BC00000C067FF4BB9660F000000C000C000C016
:103BD0004BB900C07A9591F7E2CFCF93DF93EC0118
:103BE000FB018281882309F464C1C430FDE5DF074D
:103BF000E0F5CB3F9CE5D90730F49E0122503C45CF
:103C000024313105D8F50E94760E9093C40280933A
:103C1000C302C231ECE5DE0709F41FC108F06EC033
:103C2000C9308CE5D80709F4F2C008F03FC0C530B0
:103C3000ECE5DE0709F4DBC058F5C3308CE5D807A6
:103C400009F4CDC008F0CFC08091C3028160C230BA
:103C5000DC4509F4AEC08091C3029091C4020E9479
:103C6000840E0E94F70880E009C0C63AEDE5DE0741
:103C700051F238F4C2369DE5D90729F2DF91CF9190
:103C800008959E012E5A3D4523303105B8F7BBCF2C
:103C90008091C3028062C730FCE5DF0709F489C068
:103CA00008F4B1C08091C302806483C0CD309CE52C
:103CB000D90709F4BAC070F48091C3028E7FCB306B
:103CC000FCE5DF0709F475C008F4A7C08091C302C2
:103CD0008D7F6FC0CF309CE5D90709F4B6C008F4DA
:103CE000A8C0C031FCE5DF0709F4B3C0C131DC4531
:103CF00009F0B1CF8091C3028F7B5BC0C1159DE5F8
:103D0000D90709F4B4C098F5CB3FFCE5DF0709F407
:103D100072C0B8F4C4319CE5D90709F4B6C008F400
:103D2000A2C0C531DC4509F096CF8091C30282FB69
:103D3000992790F921E0922790FB82F990FB83F973
:103D400038C0CD3F8CE5D80709F477C008F457C0D8
:103D5000CE3FECE5DE0709F474C08091C4028360B5
:103D6000CF3FDC4509F077CF8093C40274CFC236D1
:103D70008DE5D80709F496C068F4C230EDE5DE079A
:103D800009F48CC008F477C0C330DD4509F063CF77
:103D900080E085C0CE3A9DE5D907E9F068F49091BE
:103DA000C302892F8E7F90FF8160C63ADD4509F0FE
:103DB00052CF8093C3024FCFCF3A8DE5D80789F118
:103DC000C03BDD4509F047CF9091C402892F877F22
:103DD00093FF8860C9CF8091C4028860C5CF80916D
:103DE000C3028260E6CF8091C3028460E2CF8091FB
:103DF000C3028860DECF8091C4028160B5CF80911C
:103E0000C4028260B1CF8091C3028061D2CF0E9490
:103E1000F7088091C3028068CCCF8091C3028C6088
:103E2000C8CF8091C402877F9FCF8091C3028B7FD0
:103E3000C0CF8091C302877FBCCF8091C4028E7FA8
:103E400093CF8091C4028D7F8FCF8091C3028F7EEC
:103E5000B0CF8091C3028F7DACCF0E94F7088091D4
:103E6000C3028F77A6CF8091C302837FA2CF8091B8
:103E7000C4028C7F79CF8091C402982F9095917065
:103E80008E7F892B90FB81F96FCF0E94F70890916C
:103E9000C302892F97FB87F980588BCF81E00E945E
:103EA0000D0FD9CE9091C302892F8F7E94FF806130
:103EB00080CF81E0E3CEB0E0A0E0E1E6FFE10C944A
:103EC0002A2AE82FF0E0EF5BF94FD490282F2695AF
:103ED0002695269530E0F901EF51F94F049187704E
:103EE00010E0082E02C0159507950A94E2F70170BC
:103EF0001127F901EF52F94FE490F12C082E02C07E
:103F0000F594E7940A94E2F791E0E922FF24F9019D
:103F1000EF53F94FC491D0E002C0D595C7958A956B
:103F2000E2F7C170DD270115110519F081EE0E943D
:103F30008E05E114F10419F086EE0E948E058D2D98
:103F40000E949006E114F10419F086EE0E941F060B
:103F50000115110519F081EE0E941F06CD2B19F0F5
:103F60008CE20E949006CDB7DEB7E7E00C94462ABB
:103F7000EF92FF920F931F93CF93DF938C01F62E56
:103F80008AE0E82EF8018491882309F454C0813036
:103F900009F04DC0E8012196FE018491813091F431
:103FA0002196FE0184910E9490068E010F5F1F4FA3
:103FB0008F2D815038F3EFE9FFE03197F1F700C022
:103FC0000000F7CF823039F4E8012296FE01849197
:103FD0000E948E05EACF833039F4E8012296FE0173
:103FE00084910E941F06E1CF8430F9F6E801229601
:103FF000FE01249190E080E0FE0131962053330BC6
:104000002A30310548F0019780F2EFE9FFE031975F
:10401000F1F700C00000F7CFE89EA001E99E500D27
:104020001124C901840F951F2491EF01E5CF0E944F
:104030005B1FE801BACFCDB7DEB7E6E00C94472AA4
:10404000CF93DF93EB0186319C4511F50E94730DF0
:104050009A81992399F08A7A91E009F490E09093FB
:10406000AA02811109C089E20E944B0D0E94B40D81
:1040700080E0DF91CF91089585E3F6CF8091AA0289
:10408000811104C089E20E94530DF0CF85E3FBCF7C
:1040900081E0EFCF0F931F93CF93DF93C42FD22FE5
:1040A000FC0182818823C9F04093AD020E94602206
:1040B0009093AC028093AB0280E28C0F883040F486
:1040C000C77081E001C0880FCA95EAF70E9499067F
:1040D000DF91CF911F910F9108951091AD021413AC
:1040E00032C08091AB029091AC020E947822883C51
:1040F000910548F5C0E2CD0F1D17B9F080E2810FA0
:10410000883040F4177081E001C0880F1A95EAF7F3
:104110000E94A006C83048F481E09D2F977001C02E
:10412000880F9A95EAF70E949906802F0E949006C0
:10413000C83070F6D77081E001C0880FDA95EAF7D1
:104140000E94A006C5CF80E28C0F883008F6C770A9
:1041500081E001C0880FCA95EAF7F2CF0F939C0166
:10416000CB01243F4CE5340759F1A8F4293DFCE587
:104170003F0701F12A3D4CE53407D1F1283D3C458C
:1041800091F406E221EE41EE68ED7CE50E944A20C2
:1041900080E00F910895263FFCE53F07E9F0B0F07D
:1041A000273F3C45F9F0FC018281882339F11092C8
:1041B000AD02EFCF07E225EE45EE69ED7CE5E6CFF7
:1041C00006E221EE40EE64EF7CE5E0CF07E225EE6B
:1041D00044EE65EF7CE5DACF06E221EE42EE66EFD3
:1041E0007CE5D4CF07E225EE46EE67EF7CE5CECF47
:1041F00008E221E045EE6AED7CE5C8CF81E0C9CF59
:104200009093CB018093CA0108959093B302809359
:10421000B2020895E091B202F091B302309729F012
:104220000190F081E02D0995089580E00895E091D6
:10423000B202F091B302309721F00280F381E02DB9
:1042400009950895E091B202F091B302309739F0E8
:1042500022E0DC012C930480F581E02D099508957E
:104260002091B0023091B1022817390771F0909374
:10427000B1028093B002E091B202F091B3023097A4
:1042800021F00680F781E02D099508952091AE0276
:104290003091AF022817390771F09093AF028093E5
:1042A000AE02E091B202F091B302309721F00084A7
:1042B000F185E02D099508959C012E5F3F4FAC01DB
:1042C000485F5F4F80E02417350709F40895F9012E
:1042D00091919F019923B9F38F5FF5CF662349F040
:1042E000FC01329608962191261729F0E817F90764
:1042F000D1F780E0089581E008959C01FC01329699
:104300009FEF80E04191461751F09F3F19F4411112
:1043100001C0982F8F5F8630A9F79F3F09F4089559
:10432000290F311D97FD3A95F90162830895FC012B
:10433000329608962191261303C0DF0111971C9233
:10434000E817F907B9F708950E947D2108950E94A2
:1043500097210895029626E0FC0111922A95E9F72B
:10436000089546E050E00E94BF2A21E0892B09F41D
:1043700020E0822F089508950E94BB2108958111A5
:1043800006C081E08093B4020E94BC21089582E0BF
:10439000F9CF83E08093B4020E94BC2108950E946B
:1043A000BF21089581E08093B4020E94BC2108954A
:1043B0000E94D2210895089508950E94DC21089555
:1043C000089508950E94DB210895CF930E94E02173
:1043D0000E94C5120E94E121C0E08C2F0E940E12A3
:1043E000811105C0CF5FC730C1F7CF91089581E03B
:1043F000FCCF85B7806885BF85B7806885BF089585
:104400001F921FB61F9211248F939F93AF93BF9358
:104410008091B502811113C08091FC029091FD0240
:10442000A091FE02B091FF024196A11DB11D8093A3
:10443000FC029093FD02A093FE02B093FF02BF9195
:10444000AF919F918F911F901FBE1F9018958091E3
:104450000403843031F10E9410051092B50288E106
:1044600090E020E40FB6F894A895809360000FBE0A
:104470002093600083B7817F846083BF83B78160AE
:1044800083BF7894889583B78E7F83BF0FB6F894E7
:10449000A895809160008861809360001092600010
:1044A0000FBE08950E94F7080E941705089582E044
:1044B00084BD93E095BD9AEF97BD80936E000895FB
:1044C0002FB7F8948091FC029091FD02A091FE021A
:1044D000B091FF022FBF08952FB7F8946091FC02AE
:1044E0007091FD028091FE029091FF022FBF08950E
:1044F0009C014FB7F8948091FC029091FD02A0912D
:10450000FE02B091FF024FBF821B930B0895789477
:104510001F921FB61F9211248F939F93AF93BF9347
:104520008091FC029091FD02A091FE02B091FF02E9
:104530000196A11DB11D8093FC029093FD02A093F2
:10454000FE02B093FF02BF91AF919F918F911F9098
:104550001FBE1F90189587E797E7909301088093F7
:10456000000888E19AE00FB6F894A895809360005F
:104570000FBE90936000FFCF88E19AE00FB6F894E9
:10458000A895809360000FBE90936000FFCF80914C
:10459000C102089508959C0182E08093E9009FEF95
:1045A0008091E800915085FD06C085ED8A95F1F770
:1045B00000009111F5CF8091E80085FF0CC050E01C
:1045C00040E066E070E0C9010E94FD248091E800AF
:1045D0008E778093E8000895CF93DF93EC0181E01C
:1045E0008093E9008FEF9091E800815095FD06C01F
:1045F00095ED9A95F1F700008111F5CF8091E800D3
:1046000085FF14C050E040E068E070E0CE010E94F9
:10461000FD248091E8008E778093E80088E0FE0119
:10462000A9EBB2E001900D928A95E1F7DF91CF916D
:1046300008958093B6027093B8026093B702809198
:104640000403843001F582E08093E9008FEF9091BC
:10465000E800815095FD06C095ED9A95F1F70000B0
:104660008111F5CF8091E80085FF0DC050E040E05A
:1046700063E070E086EB92E00E94FD248091E80008
:104680008E778093E8000895BC0184E00E9419238E
:104690000895BC0183E00E941923089580910303CB
:1046A000811109C00E948D260E94EA268091E200B5
:1046B00084608093E20008951092030308950E949D
:1046C000D22108956091000381E0611101C080E072
:1046D0000E94C92108959091040381E0943009F06B
:1046E00080E0609100030E94CF21089542E061ECD8
:1046F00081E00E94092642E261EC82E00E940926E4
:104700009091040381E0943009F080E0609100030F
:104710000E94BF21089580910603833009F461C08F
:1047200030F48130D1F1823009F49EC008958A308E
:1047300009F48AC08B3009F46FC0893009F050C089
:1047400080910503813209F04BC08091090390915B
:104750000A03029708F044C08091E800877F8093A5
:10476000E8008091E80082FF37C09091F3008091CB
:10477000F200029731F48091F100813011F086301F
:1047800021F48091F1008093C1028091E8008B7741
:104790008093E8000E943D2623C080910503813A62
:1047A000F9F48091E800877F8093E8008091090305
:1047B00090910A03892B61F468E089EB92E070E044
:1047C0000E944C258091E8008B778093E800089543
:1047D00060E090E080E0F3CF809104038111C1CFCD
:1047E000089580910503813AD9F78091090390914A
:1047F0000A03892BA9F78091E800877F8093E8005E
:104800008091E80080FFFCCF80912D018093F10022
:104810008091E8008E77BCCF80910503813201F74B
:104820008091090390910A03892BD1F68091E800C9
:10483000877F8093E8000E943D2680910703809344
:104840002D010E94F708089580910503813241F6F9
:104850008091E800877F8093E8000E943D26809148
:1048600008038093C202089580910503813A09F0FC
:10487000B7CF8091E800877F8093E8008091E800BF
:1048800080FFFCCF8091C202C1CF84B7877F84BFF5
:104890000FB6F894A89580916000886180936000BD
:1048A000109260000FBE80E890E00FB6F8948093FD
:1048B0006100909361000FBE0E94D82108950E946C
:1048C0008D260E94EA26E2EEF0E0808184608083FB
:1048D00078940E946929089581E291E00E9405215F
:1048E000089580910403853031F48091040385306C
:1048F00019F00E94522208950E94272280910203FB
:10490000882399F30E94E521882379F30E94E72404
:104910000E94F708EACF08950E948F240895292F56
:1049200033272330310519F168F42130310509F4BA
:1049300044C02230310509F445C090E080E030E009
:1049400020E025C02132310549F122323105A9F795
:1049500080E490E021EF37E061157105C1F08BE74D
:1049600090E026E737E06130710589F0E6CF9927BE
:104970008130910581F0009729F00297F1F6E1EF7F
:10498000F6E002C0E5E2F7E0849190E09F01FA01D1
:10499000318320830895E5E0F7E0F6CF89E090E0E9
:1049A0002BE337E06115710591F389E090E024E590
:1049B00037E06130710559F3C0CF82E190E024E621
:1049C00037E0E5CF8BE390E029E237E0E0CF80E10C
:1049D00089BD82E189BD09B400FEFDCF8091D80078
:1049E0008F7D8093D8008091E00082608093E0000A
:1049F0008091E00081FDFCCF0895AF92BF92CF92ED
:104A0000DF92FF920F931F93CF93DF936C01EB0123
:104A10008A010E945C26F82E811123C00115110520
:104A200039F0F80180819181C81BD90BC80ED91EBD
:104A3000B12CA12C2097A9F08091E80085FD22C01F
:104A40008091E8008E778093E80001151105A1F0B0
:104A5000F80180819181A80EB91EB182A08285E003
:104A6000F82E8F2DDF91CF911F910F91FF90DF9046
:104A7000CF90BF90AF9008950E945C268823D1F21A
:104A8000F82EEFCFF60181916F018093F10021970D
:104A9000FFEFAF1ABF0ACECFFC0180910B039091BC
:104AA0000C0386179707A0F06115710529F4909102
:104AB000E8009E779093E80090E06115710551F44D
:104AC000911108C08091E80082FF34C080E0089511
:104AD000BC01F2CF809104038823C1F18530C1F17C
:104AE0008091E80083FD30C08091E80082FDEACF2C
:104AF0008091E80080FFE1CF8091F3002091F200E7
:104B0000382F6115710519F02830310558F091E002
:104B10002830310509F090E02091E8002E772093AD
:104B2000E800CBCF81918093F100615071092F5F34
:104B30003F4FE7CF80910403882341F0853041F057
:104B40008091E80083FFBECF81E0089582E0089560
:104B500083E00895FC0180910B0390910C0386176C
:104B60009707A0F06115710529F48091E8008E7710
:104B70008093E80090E06115710551F4911108C02F
:104B80008091E80082FF35C080E00895BC01F2CF3B
:104B9000809104038823C9F18530C9F18091E80030
:104BA00083FD31C08091E80082FDEACF8091E8006A
:104BB00080FFE1CF8091F3002091F200382F611542
:104BC000710519F02830310558F091E02830310591
:104BD00009F090E08091E8008E778093E800CBCFD9
:104BE00084918093F1003196615071092F5F3F4F9E
:104BF000E6CF80910403882341F0853041F0809115
:104C0000E80083FFBDCF81E0089582E0089583E04E
:104C10000895982F973028F08F708093E90081E0F5
:104C200008959093E900242F762F50E0981731F0E3
:104C30007091EC002091ED005091F00021FD02C038
:104C40009F5FE8CF3091EB003E7F3093EB003091D7
:104C5000ED003D7F3093ED003091EB0031603093FB
:104C6000EB007093EC002093ED005093F000209146
:104C7000EE0027FDE5CF80E008958091050387FFD2
:104C800013C08091E80082FF06C08091E8008B7716
:104C90008093E80004C0809104038111F2CF08954D
:104CA000809104038823D9F38091E80080FFF8CF36
:104CB0008091E8008E77ECCF2091E4003091E50000
:104CC00095E6A9012091EC00822F817020FF06C09B
:104CD0008091E80080FF06C080E008952091E80000
:104CE00022FD1AC080910403882389F0853089F061
:104CF0008091EB0085FD0FC02091E4003091E5002C
:104D000042175307F9F29150E1F684E0089582E0EA
:104D1000089583E0089581E008950E94FC260E9492
:104D20000427E0EEF0E0808181608083E8EDF0E030
:104D300080818F77808319BCA7EDB0E08C918E7F46
:104D40008C9380818F7E80831092030308950F934C
:104D50001F93CF93DF930E94FC260E940427C8ED87
:104D6000D0E088818F778883888180688883888174
:104D70008F7D888319BC1092040310920003109257
:104D800002031092010300EE10E0F80180818B7F96
:104D9000808388818160888342E060E080E00E94B7
:104DA0000926E1EEF0E080818E7F8083E2EEF0E084
:104DB000808181608083808188608083F801808128
:104DC0008E7F8083888180618883DF91CF911F915E
:104DD0000F910895E8EDF0E080818F7E8083E7ED0C
:104DE000F0E080818160808384E082BF81E08093F5
:104DF00003030E94A7260895E8EDF0E080818E7FEE
:104E000080831092E20008951092DA001092E1007F
:104E100008951F920F920FB60F9211242F933F9374
:104E20004F935F936F937F938F939F93AF93BF93B2
:104E3000EF93FF938091E10082FF0BC08091E2002D
:104E400082FF07C08091E1008B7F8093E1000E9488
:104E500068298091DA0080FF19C08091D80080FF16
:104E600015C08091DA008E7F8093DA008091D9009E
:104E700080FF96C080E189BD82E189BD09B400FE52
:104E8000FDCF81E0809304030E944E238091E100D6
:104E900080FF19C08091E20080FF15C08091E20080
:104EA0008E7F8093E2008091E20080618093E20037
:104EB0008091D80080628093D80019BC85E08093EF
:104EC00004030E9462238091E10084FF2BC0809143
:104ED000E20084FF27C080E189BD82E189BD89B5F8
:104EE000982F917080FFFBCF8091D8008F7D8093A9
:104EF000D8008091E1008F7E8093E1008091E200F4
:104F00008F7E8093E2008091E20081608093E200D6
:104F100080910003882309F449C084E0809304034E
:104F20000E946B238091E10083FF29C08091E20001
:104F300083FF25C08091E100877F8093E10082E0BC
:104F400080930403109200038091E1008E7F809390
:104F5000E1008091E2008E7F8093E2008091E20088
:104F600080618093E20042E060E080E00E940926D8
:104F70008091F00088608093F0000E945F23FF9191
:104F8000EF91BF91AF919F918F917F916F915F91C1
:104F90004F913F912F910F900FBE0F901F9018953A
:104FA00019BC109204030E945C2370CF8091E3002F
:104FB00087FD93E090930403B3CF1F920F920FB637
:104FC0000F9211242F933F934F935F936F937F938F
:104FD0008F939F93AF93BF93CF93DF93EF93FF9301
:104FE000D091E900DF708091EC00C82FC17080FD86
:104FF000C0E81092E9008091F000877F8093F00074
:1050000078940E9421281092E9008091F000886035
:105010008093F000CD2BCF70C093E900FF91EF910A
:10502000DF91CF91BF91AF919F918F917F916F91C0
:105030005F914F913F912F910F900FBE0F901F9056
:105040001895AAE2B0E0E7E2F8E20C942E2A85E097
:1050500093E02091F100FC012193CF01F3E08D302A
:105060009F07B9F70E948B238091E80083FF1EC140
:1050700080910503909106039A3008F017C1E92F3B
:10508000F0E0E65BF44D0C94E829803899F0823822
:1050900009F00CC1809109038F70873008F006C1B8
:1050A0008093E9008091EB0085FB882780F91092BE
:1050B000E90006C080910103909102039111826082
:1050C0009091E800977F9093E8008093F100109210
:1050D000F1008091E8008E77E5C0882309F4D3C001
:1050E000823009F0E3C0809107038111D6C080911E
:1050F00009038F702FEF280F263008F0D7C0809358
:10510000E9002091EB0020FFC8C0933031F480917A
:10511000EB0080628093EB00C0C09091EB00906147
:105120009093EB0021E030E001C0220F8A95EAF76E
:105130002093EA001092EA008091EB008860EACFA9
:105140008111B4C0109107031F778091E30080782C
:10515000812B8093E3008091E800877F8093E800B3
:105160000E943D268091E80080FFFCCF8091E30003
:1051700080688093E30082E0111183E08093040350
:1051800095C08058823008F091C0809107039091BB
:1051900008038C3D23E09207A1F583E08A838AE22D
:1051A00089834FB7F894DE01139620E03EE051E288
:1051B000E32FF0E050935700E49120FF03C0E29505
:1051C000EF703F5FEF708E2F90E0EA30C0F0C7962F
:1051D0008D939D932F5F243159F74FBF8091E80045
:1051E000877F8093E8006AE270E0CE0101960E941A
:1051F0004C258091E8008B778093E80057C0C096DB
:10520000E7CF6091090370910A03AE014F5F5F4FD2
:105210000E948C24BC01892B09F448C09091E800BD
:10522000977F9093E80089819A810E94AA25E1CF17
:105230008038E1F58091E800877F8093E8008091D5
:1052400000038093F10045CF811130C09091070396
:10525000923060F58091E800877F8093E80090931A
:1052600000030E943D2680910003882311F084E012
:1052700005C08091E30087FDFACF81E080930403AD
:105280000E94762313C080910703813079F481E076
:10529000933009F080E0809302031092E90080913E
:1052A000E800877F8093E8000E943D268091E80017
:1052B00083FF0AC08091E800877F8093E800809197
:1052C000EB0080628093EB00AA96E3E00C944A2AFC
:1052D0000895CF93809104038823A1F0C091E90041
:1052E000CF709091EC00892F817090FD80E8C82BE1
:1052F0001092E9008091E80083FD0E942128CF7080
:10530000C093E900CF910895991B79E004C0991FDB
:10531000961708F0961B881F7A95C9F7809508950F
:1053200087FB082E062687FD819567FD61950E9403
:1053300084290EF4919507FC81950895AA1BBB1B47
:1053400051E107C0AA1FBB1FA617B70710F0A61B85
:10535000B70B881F991F5A95A9F780959095BC01A6
:10536000CD01089597FB072E16F4009407D077FD22
:1053700009D00E949E2907FC05D03EF490958195A6
:105380009F4F0895709561957F4F0895A1E21A2E61
:10539000AA1BBB1BFD010DC0AA1FBB1FEE1FFF1FD9
:1053A000A217B307E407F50720F0A21BB30BE40B29
:1053B000F50B661F771F881F991F1A9469F7609570
:1053C0007095809590959B01AC01BD01CF0108952A
:1053D000EE0FFF1F0590F491E02D09940E94F6292D
:1053E000332312F48A1B9B0B0C94072AA29FB00153
:1053F000B39FC001A39F700D811D1124911DB29F09
:10540000700D811D1124911D08950E94F629B7FF8A
:105410000895821B930B08950E94F629A59F900D75
:10542000B49F900DA49F800D911D11240895B7FF86
:105430000C940C2A0E940C2A821B930B08952F9225
:105440003F924F925F926F927F928F929F92AF9214
:10545000BF92CF92DF92EF92FF920F931F93CF9361
:10546000DF93CDB7DEB7CA1BDB0B0FB6F894DEBFF8
:105470000FBECDBF09942A88398848885F846E841E
:105480007D848C849B84AA84B984C884DF80EE8068
:10549000FD800C811B81AA81B981CE0FD11D0FB671
:1054A000F894DEBF0FBECDBFED0108958F929F929D
:1054B000AF92BF92CF92DF92EF92FF92CF93DF93A2
:1054C000EC01688179818A819B8161157105810573
:1054D000910521F464E279ED8BE597E02DE133EF5E
:1054E00041E050E00E941D2B49015A019B01AC0193
:1054F000A7EAB1E40E940C2A6B017C01ACEEB4EF88
:10550000A50194010E941A2ADC01CB018C0D9D1D7E
:10551000AE1DBF1DB7FF03C00197A109B048888326
:105520009983AA83BB839F77DF91CF91FF90EF9000
:10553000DF90CF90BF90AF909F908F9008950E9482
:10554000562A089580E091E00E94562A0895B0E01E
:10555000A0E08093000190930101A0930201B09319
:1055600003010895FC014150504030F001900616AF
:10557000D1F73197CF010895882799270895FB0126
:10558000DC0104C08D910190801921F441505040FC
:10559000C8F7881B990B0895FB01DC0102C001903C
:1055A0000D9241505040D8F70895F999FECF92BD21
:1055B00081BDF89A992780B50895A6E1B0E044E04E
:1055C00050E00C940F2BA8E1B0E042E050E00C94C6
:1055D0000F2B262FF999FECF92BD81BDF89A019726
:1055E00000B4021639F01FBA20BD0FB6F894FA9A2B
:1055F000F99A0FBE08950396272F0E94EA2A0E9467
:10560000E92A252F0E94EA2A242F0C94EA2A0196DF
:10561000272F0E94EA2A0C94E92ADC01CB01FC0125
:10562000F999FECF06C0F2BDE1BDF89A319600B4FB
:105630000D9241505040B8F70895052E97FB1EF487
:1056400000940E94342B57FD07D00E94C62907FC06
:1056500003D04EF40C94342B509540953095219501
:105660003F4F4F4F5F4F089590958095709561958E
:105670007F4F8F4F9F4F0895F894FFCFE206E206C9
:1056800013071307A007BC0742074207C7073808DC
:105690004708470845286D2856296D285629A0280F
:0856A000C1285629182924290C
:1056A800010000003402280850011E0A14010101FB
:1056B80002000C000C0C01191A1B1C1D1E1F2021B6
:1056C80022C722EC22CB2249234423CA2201E2002A
:1056D800E900EA00B500B600B700CD008301CC00B0
:1056E8008A01920194012102230224022502260242
:1056F80027022A02B300B4006F007000818283E29F
:1057080000E900EA00B500B600B700CD008301CC7F
:10571800008A019201940121022302240225022613
:105728000227022A02B300B4006F0070008182834E
:10573800F4F5F6F731333236946697C634350001FE
:10574800020202020606060909090909090F0F0FD4
:105758000F0F0F15151518191919191919191919DC
:0A57680019232425252525252500F9
:00000001FF
