:100000000C94D7020C940F030C940F030C940F0361
:100010000C940F030C940F030C940F030C940F0318
:100020000C940F030C940F030C9426220C94FA22C8
:100030000C94171D0C940F030C940F030C940F03D6
:100040000C940F030C940F030C940F030C940F03E8
:100050000C940F030C949E1D0C940F030C940F032F
:100060000C940F030C940F030C940F030C940F03C8
:100070000C940F030C940F030C940F030C940F03B8
:100080000C940F030C940F030C940F030C940F03A8
:100090000C940F030C940F030C940F030C940F0398
:1000A0000C940F030C940F030C940F0314001A000C
:1000B0000800150017001C0018000C0012001300A7
:1000C0002A0004001600070009000A000B000D00BA
:1000D0000E000F0033000358E1001D001B00060056
:1000E00019000500110010003600370028002B0011
:1000F0002900E000E300E2002C002C420000E600B2
:10010000015100003B003C003D003E003F0040002C
:100110004100420043004400450059005A005B0082
:100120005C005D005E005F00600061006200010035
:100130000100530001000100570056005500540013
:1001400036003700010001003A00045101000100AF
:100150004C05490500000100010000001F002000BF
:1001600021002200230024002500260027002E0065
:100170002E02010001000100640230023000340050
:1001800034022F022F000100010001000100640071
:100190002D022D00310031023800380201003500F7
:1001A0001E0001000100010001000100000001002B
:1001B0000100000001000100010001004A004B00A5
:1001C00001000100520049004C0001000100010043
:1001D00001004D004E000100500051004F00010091
:1001E00001003900460047004800010001000100FD
:1001F00001000100010001000100010001000100F7
:100200000100010000000100650000000100010084
:100210000100010001000100AE00AC00AB00AD0028
:100220000100D75CC45CC65CC85CCA5C010001000C
:10023000AA00A900A80001000100C35CC55CC75C5E
:10024000C95CCB5C01000100010001000100A600B7
:10025000005C01000100010001000100000001003C
:100260000100000000047F3F1F64321464321478E0
:100270003C1E1E140A052223252628292A2C2D2F50
:100280003032333536383A3B3D3E404243454749AC
:100290004A4C4E5051535557595A5C5E60626466E1
:1002A00068696B6D6F71737577797B7D7F818385ED
:1002B00087898A8C8E90929496989A9C9E9FA1A3EF
:1002C000A5A7A8AAACAEAFB1B3B4B6B8B9BBBCBE13
:1002D000BFC1C2C3C5C6C7C9CACBCCCDCED0D1D28F
:1002E000D2D3D4D5D6D7D7D8D9D9DADADBDBDBDC91
:1002F000DCDCDCDCDDDDDDDDDCDCDCDCDCDBDBDB3D
:10030000DADAD9D9D8D7D7D6D5D4D3D2D2D1D0CE9C
:10031000CDCCCBCAC9C7C6C5C3C2C1BFBEBCBBB9A1
:10032000B8B6B4B3B1AFAEACAAA8A7A5A3A19F9E1F
:100330009C9A98969492908E8C8A89878583817FE7
:100340007D7B79777573716F6D6B696866646260C8
:100350005E5C5A5957555351504E4C4A4947454394
:1003600042403E3D3B3A3836353332302F2D2C2A31
:10037000292826252322FFAA7F55400001010101DB
:100380000101010101020202020202020202030350
:100390000303030303030404040404040405050520
:1003A00005050606060606070707070708080808E2
:1003B000090909090A0A0A0B0B0B0C0C0C0D0D0D8F
:1003C0000E0E0E0F0F0F1010111111121213131425
:1003D00014151516161717181819191A1A1B1B1C9D
:1003E0001D1D1E1E1F2020212222232424252626F7
:1003F000272829292A2B2C2D2D2E2F30313232332C
:100400003435363738393A3B3C3D3E3F4041424334
:100410004445464748494A4C4D4E4F505153545518
:100420005658595A5B5D5E5F616264656668696BC8
:100430006C6D6F7072737577787A7B7D7E80828346
:100440008587888A8C8E8F91939596989A9C9EA08A
:10045000A2A3A5A7A9ABADAFB1B3B5B7BABCBEC097
:10046000C2C4C6C9CBCDCFD1D4D6D8DBDDDFE2E460
:10047000E7E9EBEEF0F3F5F8FAFDFF18035400722C
:10048000006100730068002000500061006E00648D
:100490000061000000180350006F007400610074D8
:1004A000006F00200049006E0063002E0000000471
:1004B00003090409023B00020100A0FA090400003C
:1004C000010301010009211101000122400007057B
:1004D0008103080001090401000103000000092153
:1004E00011010001226D00070582032000011201A5
:1004F000000200000008EDFE64640100010200013A
:1005000005010980A101850319012AB700150126FB
:10051000B700950175108100C0050C0901A1018586
:100520000419012AA002150126A002950175108167
:1005300000C005010906A1018506050719E029E7A4
:10054000150025019508750181020507190029EF9D
:100550001500250195F0750181020508190129058D
:10056000950575019102950175039101C005010979
:1005700006A101050719E029E71500250195087571
:100580000181029501750881010507190029FF15F0
:100590000026FF0095067508810005081901290548
:1005A000950575019102950175039101C000112413
:1005B0001FBECFEFDAE0DEBFCDBF04B603FE18C02A
:1005C0008091E6029091E702A091E802B091E902E1
:1005D0008730904BA740B04B59F41092E60210922E
:1005E000E7021092E8021092E902E0E0F8E30995D0
:1005F00011E0A0E0B1E0ECEEFBE402C005900D924A
:10060000A83BB107D9F722E0A8EBB1E001C01D92E9
:10061000A63EB207E1F70E9422120C94DE250C944C
:10062000000081E0089581E008950E94110308957B
:1006300008950E9418030895A5E0B0E0E2E2F3E017
:100640000C943F2549835A833091BF0189819A8157
:10065000311119C0662399F0222389F00E943409D0
:10066000182F682F89819A810E94100969817A81E7
:10067000812F0E949F0F2596E3E00C945B250E943A
:100680002209182FF3CF0E94340969817A81F1CFB2
:10069000FC01262F408151816281738184810E94F7
:1006A0001C03089581E00895CF93DF93EC0160E08F
:1006B0000E944803BE010E941903DF91CF91089563
:1006C0000E94C61008950E94CA10089508950E94BD
:1006D00085050E9466032FEF84E39CE02150804053
:1006E0009040E1F700C0000008950E9467030E9457
:1006F000C21D08950E9467030E94E61D08950F938E
:100700001F93CF93DF938C0161E00E944803EC01BB
:10071000B8010E941503811106C080E0DF91CF91DE
:100720001F910F910895B801CE010E94601B88238C
:10073000A1F3B801CE010E946419882371F3B801B6
:10074000CE010E94D21A882341F3B801CE010E9443
:100750007018882311F3F8018281882361F0CB356A
:10076000FDE5DF0701F158F4C115ECE5DE0791F076
:10077000CF3DDC4591F0C8010E941303CFCFCD35AA
:100780008DE5D80769F090F0C83ADD45A1F70E94E1
:100790007A03C3CF0E947503C0CF0E94E70DF7CF45
:1007A0000E942C0DE8CF0E94360DE5CF0E943A0D35
:1007B000E2CF0E94F31C0E94FA030E94E6160895FD
:1007C0000E94FE030E94BD170E94F81C0895089520
:1007D0000E94E703089581E008950E94EB030895C5
:1007E0000895CF93C82F0E94E8038C2F0E94ED0339
:1007F000CF91089580E00E94F10308950E94BC1BF0
:100800000E94F1030895CF930E94BC1BC82F8091D2
:10081000BA018C1779F0C093BA010E94831D6093CE
:10082000BB017093BC018093BD019093BE018C2FDE
:100830000E94F103CF910895ABE0B0E0E2E2F4E072
:100840000C9440254F83588769877A878B878A85E0
:100850009B85892B21F0CA0189238F3F59F5898512
:1008600081110E94770C1E821D8285E0FE01379661
:10087000DE01119601900D928A95E1F78C819D81A0
:10088000892B61F449815A816B817C818D819E81A4
:100890000E94A00B2B96E2E00C945C2589819A8142
:1008A00089238F3F79F3CE0101960E945203811173
:1008B000E9CFF0CF8091C0019091C1010196909352
:1008C000C1018093C001CBCFFC01808191810E9446
:1008D00066090895CF93C82F8823C9F08238C9F4D8
:1008E0000E94BC1B81FD13C089E30E942F0C0E9453
:1008F000980C2FEF87EE93E0215080409040E1F775
:1009000000C0000089E30E94370C0E94980CCF9130
:1009100008958338A1F40E94BC1B80FDF8CF83E5C5
:100920000E942F0C0E94980C2FEF81EE94E0215032
:1009300080409040E1F700C0000083E5E4CF8438B8
:10094000A1F40E94BC1B82FDE2CF87E40E942F0C21
:100950000E94980C2FEF81EE94E02150804090404F
:10096000E1F700C0000087E4CECF8CEF8C0F813A16
:1009700090F46C2F80910001909101010E94231C42
:10098000882329F08C2F0E94370C0E94980C8C2F02
:100990000E942F0CBACF80E28C0F883048F4C770C9
:1009A00081E001C0880FCA95EAF70E945A0CADCFCA
:1009B000EBE5EC0FE33040F4F0E0E05BFE4F8081CC
:1009C00090E00E94E31BA3CFC85AC73108F09FCF25
:1009D000EC2FF0E0EE0FFF1FEE5DFE4F8081918166
:1009E0000E94F91B94CF882309F44DC0823879F412
:1009F0000E94BC1B81FF47C089E30E942F0C0E940C
:100A0000980C89E30E94370C0E94980C0895833853
:100A100059F40E94BC1B80FF36C083E50E942F0C56
:100A20000E94980C83E5EECF843859F40E94BC1BD9
:100A300082FF29C087E40E942F0C0E94980C87E453
:100A4000E1CF9CEF980F913AE8F290E2980F98303E
:100A500050F4877091E001C0990F8A95EAF7892FC9
:100A60000E94600CD1CF9BE5980F933028F490E062
:100A700080E00E94E31B0895885A873120F490E0BB
:100A800080E00E94F91B08951F93CF93DF93182FE6
:100A9000EB010E946A04209739F4812F0E94F3042D
:100AA000DF91CF911F9108958FE99FE00197F1F7B2
:100AB00000C000002197EFCF70E060E0893311F4AF
:100AC00060E570E00E9444050895882321F00E94AB
:100AD0005A0C0E94980C0895882321F00E94600C03
:100AE0000E94980C089590E080E00E94E31B90E043
:100AF00080E00E94F91B0E94770C0E94980C0895D8
:100B00000E943F0C0E94730508950E94670C0E948A
:100B10008005089592959F70963091F058F4925FF9
:100B20009F70923058F4803F19F030F4883E30F4D2
:100B300081E008959A5FF4CF843FD1F380E0089577
:100B4000883EB0F3813FD1F7F3CFFC0183819481DC
:100B5000892B29F08081918189238F3F11F480E0D6
:100B60000895808191810E9466090E948A050895F6
:100B7000B0E0A0E0EEEBF5E00C9439256C01EB0160
:100B8000FC011281058102950F700E94500CE82E25
:100B90008823B9F0E12E1123A1F08D2F807F8034BE
:100BA00021F080E28C0F8830D0F08091B00282FF7B
:100BB00016C082E00E94FB0C0E94500C91E0E82ECF
:100BC000E926BD2EB2942FE0B222FBE0FB1508F41B
:100BD0006EC0EB2DF0E0E052FA4D0C94F924E12CBC
:100BE000F0CF2D2F2F70F22E8D2F807F19F0F294E1
:100BF00090EFF922112399F0FF2059F080E28C0F39
:100C0000883010F0C11107C08F2D0E945A0C0E942D
:100C1000980C8C2F44C08F2D0E946A0CF8CF8C2F1B
:100C20000E94F304FF2009F442C080E28C0F883058
:100C300010F0C11104C08F2D0E94600C03C08F2DD5
:100C40000E94700C0E94980C32C03D2F3F70F32E12
:100C50008D2F807F803219F0F29480EFF822CC2320
:100C600081F0C13009F46BC0112309F473C0002373
:100C700009F46AC0F601858180FFCBCF8F70858330
:100C800063C08091B00282FD3CC0112359F0FF2067
:100C900029F08F2D0E945A0C0E94980C80E00E942F
:100CA0006A0405C080E00E94F304F110C4CFEB2D6C
:100CB000E850FF0B349720F40E94BC1B0E94F10304
:100CC000CE010E948A05811155C11092C101109276
:100CD000C001EE2089F00E944C0C80FD0DC0F60191
:100CE00012820E94460C0E946E08C6010E94E40710
:100CF0000E94460C0E947E08CDB7DEB7E9E00C9456
:100D00005525112381F0011106C00E947A0C8F290C
:100D10000E946505CCCF0130C1F70E947A0C8F2963
:100D20000E94810CC4CF011106C00E948E0C8F2D31
:100D30000E946C05BCCF013009F4B9CFF6CF112366
:100D400029F0033008F0B3CF8F2DE2CF023008F046
:100D5000AECFEDCF002359F3C93349F4FFEF27EEAF
:100D600033E0F15020403040E1F700C000008C2F0C
:100D70000E94F3049CCF8D2F86958695837061F039
:100D8000813009F094CFCE019370111102C090E030
:100D900080E00E94F91B8BCFCE019370111102C02D
:100DA00090E080E00E94E31B82CF8D2F8370A9F535
:100DB00011117DCF2C2F229526952770220F220FFF
:100DC0004C2F4F7050E0022E02C0440F551F0A9462
:100DD000E2F790E080E0C4FF09C08FE090E002C03D
:100DE000880F991F2A95E2F7809590952D2F2695CB
:100DF00026952370842B952B223049F058F421300E
:100E000019F00E943C0853CF0E94330850CF0E9433
:100E100045084DCF0E9430084ACF8695112311F026
:100E20008D2F8170882309F442CF2C2F229526958F
:100E30002770220F220F4C2F4F7050E0022E02C05D
:100E4000440F551F0A94E2F790E080E0C4FF09C008
:100E50008FE090E002C0880F991F2A95E2F78095F5
:100E600090952D2F269526952370842B952B223037
:100E700049F058F4213019F00E94A90818CF0E94B7
:100E8000A00815CF0E94B20812CF0E9454080FCFBD
:100E90008D2F8F70F82E112321F00E946E088C2F59
:100EA00037CF8C2F0E946C058F2D0E947E08FFCEBD
:100EB000C23F41F160F4C03FB9F0C13F81F011235E
:100EC00009F448C00111A5CE8D2F8F711FC0C33FFB
:100ED00001F1C43FA1F78091B00282FD24C08D2FA3
:100EE0008F71112311F312C0112341F0023008F069
:100EF000DECE8D2F8F710E949008D9CE033008F07E
:100F0000D6CEF7CF8D2F8F711111CFCF0E946E08E3
:100F1000CECE112329F08D2F8F710E946208C7CE8B
:100F20000E945D08C4CE112359F09D2F9F71F92EA8
:100F3000892F0E946E0863E08F2D0E94DD0CB7CED2
:100F400081E00E94FB0C023008F4B1CE82E00E94E6
:100F5000FB0CADCE002359F0C93309F008CFEFEFF9
:100F6000F7EE23E0E150F0402040E1F7FECE8D2F78
:100F70008F719BCF112319F00111A7CEAACE0111B9
:100F8000A4CE8091C0019091C101029709F09DCE3D
:100F90008C2F0E945C0599CE0F931F93CF93DF9304
:100FA000EC01688179818A810E9471098C010E941B
:100FB000BB080E942F08B801CE010E94B805DF913E
:100FC000CF911F910F910895CF93DF93EC018B8107
:100FD0009C81892B29F08881998189238F3F51F445
:100FE000DF91CF910895CE010E94CC07CE010E94DF
:100FF0005403F6CFCE010E947F038111F4CF0E94EB
:10100000500C882369F38A81882351F38091B002C0
:1010100082FFE6CF82E00E94FB0CE2CFA5E0B0E0C9
:10102000E4E1F8E00C9440252596E2E00C945C2580
:10103000A6E0B0E0EEE1F8E00C9440252696E2E070
:101040000C945C2508950E94220808950E942308AC
:101050009093DD018093DC010E947305089508954B
:101060000E94260808952091DC013091DD01822B39
:10107000932B0E94260808952091DC013091DD0118
:10108000822393230E94260808952091DC01309149
:10109000DD01822793270E94260808950E942208D6
:1010A00008950E944E0808950E9451089093DB0114
:1010B0008093DA010E947305089590E080E00E9419
:1010C0005408089521E030E0A90102C0440F551FE3
:1010D0008A95E2F7CA010E945408089521E030E0A1
:1010E00002C0220F331F8A95E2F78091DA019091B6
:1010F000DB01822B932B0E945408089521E030E0FD
:1011000002C0220F331F8A95E2F720953095809117
:10111000DA019091DB01822393230E945408089501
:1011200021E030E002C0220F331F8A95E2F7809160
:10113000DA019091DB01822793270E9454080895D9
:101140002091DA013091DB01822B932B0E9454080D
:1011500008952091DA013091DB01822393230E94CC
:10116000540808952091DA013091DB0182279327FA
:101170000E94540808950895262F277091E001C019
:10118000990F2A95EAF723E0769567952A95E1F776
:10119000660F771F660F771FFA01E60FF71F50E003
:1011A00040E0682F70E08191DF0111979B01042ED0
:1011B00002C0369527950A94E2F7217021952827D9
:1011C000292328272C934F5F5F4F4430510559F74F
:1011D0000895A82FA77023E0969587952A95E1F7A3
:1011E000880F991F880F991FFB01E80FF91F50E026
:1011F00040E080E0219130E00A2E02C0369527952C
:101200000A94E2F721703327042E01C0220F0A94BA
:10121000EAF7822B4F5F5F4F4430510559F708952D
:10122000262F943070F48B3060F4682F70E08BE0E0
:10123000989F600D711D112442EC51E0822F0E9495
:10124000BC080895292F943068F48B3058F490E04E
:1012500062EC71E03BE0239F800D911D11240E9400
:10126000E908089580E00895B0E0A0E0EAE3F9E03D
:101270000C9439257C010091DA011091DB018091F9
:10128000DC019091DD01082B192BCFE0D0E0CC24BC
:10129000C394D12CBC2EC6010C2E02C0880F991FFE
:1012A0000A94E2F780239123892B49F4219790F740
:1012B000B12C8B2DCDB7DEB7E9E00C945525B701E5
:1012C0008C2F0E94BA0F019789F3F3CFCF93DF934E
:1012D000EC010E943409BE010E94BA0FDF91CF9148
:1012E00008951F93CF93DF93EB019091BF01992352
:1012F00039F0CB010E946609DF91CF911F910895CB
:10130000882369F0CB010E943409182F682FCE0181
:101310000E941009BE01812F0E94BA0FEDCFCB01B0
:101320000E942209182FF6CF1F93CF93DF93C0910D
:10133000DE0116E08091DF018C1304C0DF91CF91B4
:101340001F910895D0E01C9FF0011D9FF00D112406
:10135000E052FE4F40815181628173818481958189
:101360000E9418082196C770E5CF40911002509155
:1013700011026091120270911302809114029091F7
:1013800015020E94180808951F93CF93DF93809150
:101390001502807F09F049C080911202882309F468
:1013A00044C08091DE01C091DF0160911002709114
:1013B0001102A0911302B0911402D62FD72316E088
:1013C000C81799F190E0109711F0DF3F19F40196DA
:1013D0008770F6CF189F9001199F300D1124F901E5
:1013E000E052FE4F41814713F2CF40814613EFCFC9
:1013F00042814111ECCF438154814A1B5B0B4A3F30
:10140000510528F7809115028F7080618093150235
:10141000F901EB51FE4F80818F708061808380E104
:1014200092E00E94E4070E949409DF91CF911F91FE
:101430000895A1E1B0E0EFE1FAE00C9438258C01C9
:1014400085E0F801DE011D9601900D928A95E1F785
:10145000F801E28080E1C82E82E0D82E609113026C
:10146000709114026115710509F44EC1909110023A
:1014700020911102892F82238F3F09F445C14081B9
:101480005181A380B480F0901202F501E61BF70BA6
:10149000FF2009F4EAC080911502382F307FEA3F1F
:1014A000F10508F0A3C031116DC0FE2C251316C044
:1014B000941314C0E11012C08F70806180931502E4
:1014C0000E94B509C6010E94E40780911502F80147
:1014D00085838F2D6196EAE00C945425A114B10404
:1014E00029F0842F85238F3F09F027C180E0F82F52
:1014F000F170DF2E80FF3CC08091DE012091DF0182
:1015000036E0821315C04D875E878D859E850E94CB
:101510006609292F22952F702230F0F0243018F51B
:101520009F70F1F0F8019581907FD1F4D12C1EC00D
:1015300090E0389FF001399FF00D1124E052FE4FEA
:101540006181651306C06081641303C06281E61285
:101550000FC001968770D5CF9F7011F0882331F3AB
:10156000805E883018F3C8010E94E407FD2CB1CFDB
:10157000EE2009F4AECF80911502816080931502B0
:10158000F12CA7CF251306C0941304C0F801EE2058
:1015900009F487C0C8010E94A505882319F1EE202F
:1015A00009F180911502803270F020911002309183
:1015B000110238872F831986BB86AA868C87CE01B5
:1015C00007960E94E40786E0F801A0E1B2E00190EE
:1015D0000D928A95E1F70E94C4090E94B509FF2483
:1015E000F39477CFC8010E94E407F9CF311113C0FB
:1015F0007A2DB98AA88A6E2D89890E940E0880E109
:1016000092E00E94E40786E0F60111928A95E9F7DC
:101610000E94B509B5CF25130FC094130DC0E1107A
:101620000BC0F8018583C8010E94E40786E0F6013B
:1016300011928A95E9F74DCFC8010E94A50588232C
:1016400089F2EE2079F280911502803208F4BBCF46
:1016500020911002309111023A8329831B82BD82AE
:10166000AC828E83CE010196ACCFEA3FF10508F043
:101670003EC0FE2CEE2009F4B5CF25132AC09413EA
:1016800028C08091150280FD1BC0982F907FC1F06B
:10169000F8018583903F31F0982F907F905F8F7095
:1016A000892B8583C8010E94E40786E0F801A0E148
:1016B000B2E001900D928A95E1F70E94B50909CF39
:1016C00086E0F801A0E1B2E001900D928A95E1F781
:1016D00000CFC8010E94A505811175CF8091150228
:1016E000816080931502C8010E94E407F2CE7A2D32
:1016F000B98AA88A6E2D89890E940E0886E0F601B3
:1017000011928A95E9F7D9CFEE2009F46BCFC80181
:101710000E94A505F82E882309F464CF86E0F8011D
:10172000A0E1B2E001900D928A95E1F780E192E0AC
:101730000E9464040E94C409C0CF81E08E25D7CEE8
:10174000ACE0B0E0E6EAFBE00C943F254F8358871D
:1017500069877A878B879C87CE0107960E94190A32
:10176000882369F08A859B85892B39F04F815885BC
:10177000842F85238F3F09F06BC016E05FC086E0A1
:10178000FE013796DE01119601900D928A95E1F7E0
:101790008A859B85892B89F38F81988589238F3F43
:1017A00061F32091DF0130E0C9010196877099272C
:1017B0004091DE014817190671F40E9485051092C8
:1017C000DF011092DE0186E0E0E1F2E0DF011D9230
:1017D0008A95E9F7D2CF96E0929FD001939FB00D02
:1017E0001124A052BE4FFE01319601900D929A95A0
:1017F000E1F78093DF010E949409BFCF819FC00170
:10180000112480529E4F0E94190A8823E9F0E0912A
:10181000DE011E9FF0011124E052FE4F40815181F4
:1018200062817381848195810E9418088091DE0114
:1018300090E00196877099278093DE018091DE0108
:101840009091DF018913DACF2C96E3E00C945B25AD
:1018500069857A858B859C850E9418088ECF682FB4
:1018600080910001909101010E94A31C0895682FAE
:1018700080910001909101010E94B11C0895809116
:101880000001909101010E94BF1C089580913602D1
:101890008595859585950895809136028770089580
:1018A00090913602977081E009F480E0089580916C
:1018B0005902089590915902892B809359020895F5
:1018C000809590915902982390935902089510920F
:1018D0005902089590915802892B809358020895D7
:1018E00080959091580298239093580208951092F1
:1018F0005802089580913702089508950E947D0C42
:1019000008959091B00292FF08C090913702981705
:1019100021F0809337020E947E0C08958091370257
:10192000882329F01092370280E00E947E0C0895EF
:10193000CF93DF93E0910001F09101018091590272
:101940008083E0910001F091010180819091580223
:10195000892B808390913702992381F0E0910001D7
:10196000F09101018081892B808380910001909109
:1019700001010E940F1C81110E948E0CC091000178
:10198000D091010140E250E066E172E0CE010E9498
:101990008025892B59F080E2FE01A6E1B2E001909A
:1019A0000D928A95E1F7CE010E94C91BDF91CF917C
:1019B000089508950E94D90C08959091B00292FF65
:1019C00011C098E0899F90011124622B6093360228
:1019D0000E946E08809136028595859585950E94B6
:1019E000DA0C08950E946E0808951092360280E085
:1019F0000E94DA0C08959091360280958923809395
:101A00003602282F277091F4282F082E000C330B54
:101A10009217130659F09091B00292FF07C0859576
:101A2000859585950E947E080E94F50C08959091F9
:101A3000B00292FB222720F9281769F080FB92F967
:101A40009093B0028091AF029091B0020E94610D1C
:101A500082E00E94FB0C08958091B00282FB8827EF
:101A600080F991E089270E94170D089581E00E9476
:101A7000170D089580E00E94170D089590E080E012
:101A80000E94A42521E0883E9E4F09F020E0822F8D
:101A9000089582E090E00E949625089583E090E00A
:101AA0000E9496250895CF9384E090E00E949625A9
:101AB000C82F82E290E00E949625982F8C2FCF911C
:101AC0000895CF93C92F682F84E090E00E94AA2543
:101AD0006C2F82E290E00E94AA25CF910895AB017D
:101AE000BC018FE090E00E94BC250895AB01BC01D1
:101AF00083E190E00E94BC25089560E070E0CB0196
:101B00000E94760D089560E070E0CB010E946F0D99
:101B10000E947D0D089568EE7EEF90E080E00E94C7
:101B2000C82560E082E090E00E94AA2560E083E0A2
:101B300090E00E94AA251092DD011092DC0160E085
:101B400084E090E00E94AA2564E082E290E00E9496
:101B5000AA2560E085E090E00E94AA2560E086E08A
:101B600090E00E94AA256FEF87E090E00E94AA25EE
:101B700040E050E0BA0188E090E00E94BC2560E0BF
:101B80008DE090E00E94AA2540E050E0BA0188E193
:101B900090E00E94BC2560E087E190E00E94AA25C9
:101BA00040E050E0BA018CE190E00E94BC2570E07A
:101BB00060E080E290E00E94C82540E050E0BA0179
:101BC00088E190E00E94BC250E94830D08950E9448
:101BD0008B0D0895682F8EE090E00E94AA2508954D
:101BE0000E94831D609368027093690280936A0269
:101BF00090936B0260936402709365028093660217
:101C0000909367020895089508950E94040E089520
:101C100008950E94080E089584EA90E10E94B21B84
:101C20000E94030E0E94050E089581E008950E940F
:101C3000150E0895089508950E941A0E0E941B0E15
:101C400008950E94A7100E94F00308950E946E1D3F
:101C50000E9483110E94210E0E9481170E94090E8A
:101C60000895AAE0B0E0E7E3FEE00C9435250E9479
:101C700099112CE5822E22E0922E640110E0F601EB
:101C8000E190F1906F01812F0E94CD101F5F143001
:101C900009F449C0E816F90691F380916C0281FDC0
:101CA0000E94D6100E94170E782E10E0812F0E94FD
:101CB000CD107C01F401A190B1904F018A159B05D4
:101CC00061F1A826BF2400E0CC24C394D12CC50127
:101CD0008C219D21892BC1F07720B1F00E831F83C9
:101CE00021E0C7018C219D21892B09F420E0288760
:101CF0000E94771D8160782F9A8789874E815F8146
:101D000068858A850E941C040F5FCC0CDD1C0B309B
:101D1000F1F6F4013297F182E0821F5F143031F660
:101D20000E94F00D22C0E816F90609F0B6CF0E9415
:101D3000771D8C0180915A0290915B020817190758
:101D4000A1F08FEF89838A831B820E94771D8160B7
:101D5000782F9D838C8349815A816B818D810E946C
:101D60001C0410935B0200935A020E94C7170E9442
:101D700003042A96EDE00C945125CF93DF930E9443
:101D8000BF0FEC01811522E59207E8F5811531E5D9
:101D9000930708F0A3C0883E910510F5803E910599
:101DA00070F5883A910570F4853A910508F078C08D
:101DB0008130910521F1009711F1049700F5D0E0F1
:101DC000C0E01DC08F3B9105D0F7C85AD0E0CC0FC2
:101DD000DD1FCD5ADE4F0990D881C02DD4640FC0CD
:101DE000811540E5940708F066C0C11580E4D80766
:101DF00008F05EC0CE019A9581159F4100F7CE0193
:101E0000DF91CF910895811536E5930718F5811577
:101E100045E5940708F07BC0C11584E5D80708F0B4
:101E200071C09E01237033279C2F96959695C115FE
:101E3000D34508F458C0C1E0D0E002C0CC0FDD1F8C
:101E40002A95E2F730E2939FC0011124C82BD92BC9
:101E5000DA68D5CFC1158AE5D80778F4C11529E528
:101E6000D20708F05EC0C11538E5D30708F4A7CF44
:101E7000DC2FCC27C06FD06AC2CFCE01905681151F
:101E8000904208F09CCF8D2F8F710E94611090E0DE
:101E9000982F882788279F719C012C2BE9013FC030
:101EA000C55AD0E0CF57DE4FC881D0E0D064A7CF6D
:101EB000DF70D06AA4CF8370992721E030E002C0A0
:101EC000220F331F8A95E2F7C695C69580E2C89F18
:101ED000E0011124C22BD32BDD6891CFD82FCC2762
:101EE000C16FD06A8CCFC1E0D0E002C0CC0FDD1F43
:101EF0002A95E2F720E2929FC0011124C82BD92B2A
:101F0000DC687DCFDC2FCC27C46FD06A78CF0E94ED
:101F10006110C82FD0E0DC2FCC27CC27DF71D06236
:101F20006ECF8C2F8F700E94611034E0D695C795CC
:101F30003A95E1F7CF709C2FEC01D06960CF972FD5
:101F40007430A8F46B3098F470E02BE0929F600D31
:101F5000711D1124FB019CE2899FE00DF11D1124EC
:101F6000EE0FFF1FE455FF4F85919491089580E097
:101F700090E008950E949F0F0E94BD0E0895823840
:101F80009105B9F1B0F48133910509F47DC048F4AD
:101F90008932910509F46DC08A32910509F47BC03C
:101FA00008958533910509F45FC08933910509F1DE
:101FB0000895833E9105D9F138F4803E910529F1C9
:101FC000823E910579F10895863E9105D9F1873ECB
:101FD000910509F43EC0843E910541F52091B0027F
:101FE00021FF24C08091AF0284FD19C087EE90E0EC
:101FF00008952091AF02237009F05AC02091B002D9
:1020000023FF14C089E290E008952091AF0220FDE3
:1020100038C03091B00230FF09C024FF43C090E0C7
:1020200080E008952091AF0222FDF7CF089520911E
:10203000AF0222FD3AC03091B00230FD39C024FF1A
:10204000F5CFEDCF2091AF0223FFF0CF24FDE7CFF6
:10205000CDCF2091AF0223FD2EC03091B00231FFD1
:10206000EECF84EE90E008952091AF0225FFDECF01
:10207000C9CF2091AF0225FD21C02091B00223FFDE
:10208000D5CF89E390E0D2CF2091AF0226FFCECF0B
:102090008AE290E008952091AF0226FFC7CF81E346
:1020A00090E0089583EE90E0089582EE90E0089528
:1020B00080EE90E0089586EE90E0089585E390E04C
:1020C00008959091AF0292FF06C0282F2871283002
:1020D000F9F4877F846093FF06C0282F2871283188
:1020E000F1F4877E84612091B00220FF06C0382F72
:1020F00038713830D9F4877F816021FF06C0282FDE
:1021000028712831D1F4877E816194FD877E0895FE
:10211000282F24712430F9F68B7F8860DCCF282F9C
:102120002471243101F78B7E8861DDCF382F317126
:10213000313019F78E7F8860E0CF282F217121314F
:1021400021F78E7E8861E1CF80E0089508950E9496
:102150003E0D811102C00E94E70D0E94490D80933F
:102160006C020E94530D9093B0028093AF020E94C4
:10217000A6100E944E0D90E00E9430088091DA0176
:102180009091DB010E945108089508950E94C510A6
:10219000089508950E94C9100895E82FF0E0EE0F09
:1021A000FF1FE754FD4F808191810895089580EAD3
:1021B0008A95F1F7089500C008950E94D7100895F8
:1021C000F894E82FE295EF70F0E031A1282F2F70FE
:1021D00081E090E001C0880F2A95EAF7982F90954A
:1021E000932391A392A1892B82A378940895CF93EE
:1021F000DF9387EF0E94E01081E30E94E01084E902
:102200000E94E01080E90E94E010C4E8D1E08991CA
:102210008F3F11F00E94E01081E0CF38D807B9F766
:10222000DF91CF910895AF92BF92DF92EF92FF922C
:102230000F931F93CF93DF938C01D62EC62FD0E040
:10224000CE0181579E4F7C01FC0120812F3F09F474
:102250004DC0F894E22FE295EF70F0E031A12F70BD
:1022600081E090E001C0880F2A95EAF7932F982B20
:1022700091A392A18095892382A378940E94DB1078
:10228000E4E8F1E04FE851E021E030E0B12CA12C8E
:1022900061916F3FA9F1A62FA295AF70B0E0909623
:1022A0008C9190E06F7002C0959587956A95E2F7E2
:1022B00080FD26C0C901A82AB92A220F331F4E1754
:1022C0005F0731F7F70180818F3F11F00E94E01026
:1022D00061E0A114B10409F460E08D2D0E94DD10CD
:1022E000CC0FDD1FC00FD11FB982A882DF91CF9123
:1022F0001F910F91FF90EF90DF90BF90AF900895E6
:1023000090E080E0D8CF0E94F71088E0E9EBF2E09F
:10231000DF01982F1D929A95E9F7E1EBF2E0DF01DA
:102320001D928A95E9F784E00E94D4110E9460030F
:102330000895A8E0B0E0EFE9F1E10C943D258E01AD
:102340000F5F1F4F88E0F80111928A95E9F7F12C91
:102350006F2DC8010E941311F394F4E0FF12F8CF1F
:1023600048E050E0B80181EB92E00E94802521E036
:10237000009709F420E0892B41F088E0F801A1EBF7
:10238000B2E001900D928A95E1F744E069EB72E0CA
:1023900081EB92E00E94D511182F0E946303812FD8
:1023A0002896E5E00C9459250895CF92DF92EF929C
:1023B000FF921F93CF93DF936C017B01C42F2223E5
:1023C00049F081E080936F020E94771D90936E0226
:1023D00080936D0210916F0211110AC010E0812FDD
:1023E000DF91CF911F91FF90EF90DF90CF900895F4
:1023F00080916D0290916E020E948F1D059770F37F
:10240000D0E0CC0FDD1FAE01B601C7010E948025D0
:10241000892B41F0AE01B601C7010E948D251092B3
:102420006F02DDCF10E0FBCF0E947C1F0E94260EC2
:102430000E94891F08950E948E1F0E94310E0E94E3
:10244000A81F08950E94101D0E94621F0E940C0E7A
:102450000E9414120E941B120E941C0EFBCFEF92CE
:10246000FF920F931F93CF93DF93EB01E82FD111CE
:102470000EC0442321F0F0E0E558FC4FE4916E2FAC
:102480007E2F8E2FCDB7DEB7E6E00C9458250D2FAA
:1024900010E0282F30E0442329F025583C4FF90163
:1024A000249130E0F6E0CF9FC0011124EFEFF0E07F
:1024B000BF010E94AF24AB018C2F90E0880F991FC1
:1024C000A5E5A49FB001A59F700D1124861B970B55
:1024D000982F990F980FBF01601B710B629FD0015D
:1024E000639FB00D729FB00D11248B2F9D9FB00183
:1024F0001124672F7727EF01C61BD70BBE01629F00
:10250000E001639FD00D729FD00D11247F01E91A65
:10251000F108E09EB001E19E700DF09E700D112457
:10252000672F7727E61BF70BE29F8001E39F100DD3
:10253000F29F100D1124E12F722F4230510599F0B6
:1025400048F44115510569F04130510581F0EB2FF8
:102550008D2F07C04430510569F080F04630510599
:10256000B1F76E2F8FCFE22F7B2F812FFACFE22F83
:102570007D2FF7CFEB2F822F712FF3CF7B2F822F61
:10258000ED2FEFCF41E00E942F12089508950E9491
:10259000C2120895CF93DF93762FE901682F842F1D
:1025A0000E94C712798368838A83DF91CF9108954F
:1025B0008091C102982F9E7F29F481708260809360
:1025C000C10208958A34E8F381708864F8CF88E006
:1025D00090E00E949E250895CF92DF92EF92FF92A5
:1025E0006B017C010E94D812B701A60188E090E03F
:1025F0000E94BC25FF90EF90DF90CF900895E1EC12
:10260000F2E083E0808311828FEF828383831482E0
:1026100060817181828193810E94EC120895809182
:10262000C10280FF02C08695089580E008959091D0
:10263000C502933018F49F5F9093C502882351F030
:102640006091C1027091C2028091C3029091C40254
:102650000E94EC12089581E00E9417130895909152
:10266000C502992319F091509093C502882351F027
:102670006091C1027091C2028091C3029091C40224
:102680000E94EC12089581E00E942F13089570E0DB
:102690000E9438190895609106018091C10280FF5F
:1026A0000BC08091050123E0829FC00111248A5351
:1026B0009D4F0E9447130895809107019091080152
:1026C00023E0829FF0011124EA53FD4F891748F758
:1026D0001182108212828F5F3396F8CF9091C102DF
:1026E00090FF0EC0909107012091080133E0939F65
:1026F000F0011124EA53FD4F921718F00E944B137A
:1027000008958183608342839F5F3396F5CFA3E072
:10271000B0E0EDE8F3E10C9440259091C10290FF08
:102720000AC09E012F5F3F4F0E94CA124B816981F0
:102730008A810E946E132396E2E00C945C25CF936D
:10274000DF93EC01EC81F0E0EA58FD4F4491E1ECBD
:10275000F2E0628181810E9487138C818F5F8C837C
:10276000DF91CF910895CF93DF93EC01E1ECF2E09C
:10277000438162818C810E9487138C818F5F8C835F
:10278000DF91CF910895A3E0B0E0E9ECF3E10C9480
:102790003E258C018091700281110AC09E012F5F3D
:1027A0003F4F4FEF6FEF0E94CA128A8180937002F1
:1027B000F8016481613069F08091700240E0662325
:1027C00061F040E0623011F44091700280E060E01E
:1027D00004C06091700240E080E00E946E13F80136
:1027E000848190E0019663E070E00E94C3248483BA
:1027F0002396E4E00C945A25A3E0B0E0E2E0F4E193
:102800000C943925082FD62EE42EC22E9091C102A9
:1028100090FF29C0E92FE695AE2FB0E0AD56BE4F30
:102820008C9180937C029E7F923009F59E012F5FF0
:102830003F4F802F0E94CA124B8169818A810E947A
:102840006E130093C202D092C302E092C402CC2065
:1028500051F06091C1027091C2028091C3029091C7
:10286000C4020E94EC122396E9E00C9455258230B4
:1028700019F4E090C402E5CF863019F40091C20249
:10288000E0CF8930D9F38931E1F6E9516E2F6170DB
:10289000B62EE695F0E0EA58FC4F1491F12C6091C9
:1028A0000901F61618F00E944B13CBCFF19EC00120
:1028B000112470E00E94AF24802FB11014C0860F45
:1028C00020910701622F6F0D7727771F9B01220F41
:1028D000331F260F371F2A533D4F4E2D6D2D0E945B
:1028E000CA12F394DCCF861BEBCFE1ECF2E09181CE
:1028F000282F438162818AE0890F0E94FC1308958A
:1029000081E00E9475140895E1ECF2E09181282F96
:102910004381628186EF890F0E94FC13089581E054
:102920000E9484140895E1ECF2E0628121E1620FDB
:1029300008F46FEF282F438181810E94FC130895D2
:1029400081E00E9493140895E1ECF2E0628121E1BC
:10295000621B08F460E0282F438181810E94FC13F0
:10296000089581E00E94A4140895E1ECF2E043810F
:1029700021E1420F08F44FEF282F628181810E94EC
:10298000FC13089581E00E94B5140895E1ECF2E093
:10299000438121E1421B08F440E0282F62818181BC
:1029A0000E94FC13089581E00E94C614089520E05F
:1029B0000E94FC130895EF92FF921F93CF93DF9331
:1029C000EC0110E0EE24EA94F12C60910901161755
:1029D00070F00E944B139A818C8190FF27C08F5F0B
:1029E0008C83DF91CF911F91FF90EF9008952091FC
:1029F0000701422F410F5527551FCA019A01220F87
:102A0000331F280F391F2A533D4F70E0C7010E9422
:102A1000C324962F8C814091C4026091C302199FF8
:102A2000800D11240E94CA121F5FCFCF8150D8CFD2
:102A3000B0E0A0E0EEE1F5E10C943825FC018281E4
:102A40000FEF80FF01E010E045E0A42E8091090126
:102A5000181798F00E944B1380917202013009F010
:102A60004FC0811102C08091090181508093720290
:102A7000CDB7DEB7EAE00C945425C0910701C12E12
:102A8000D12CCC0DDD2DD11DCE01880F991FC80F83
:102A9000D91FCA53DD4F198218821A8234E0E32EFF
:102AA000F12CB12C809172028B0D86301CF16A2DB5
:102AB0000E94A124892F082E000C990BC816D90654
:102AC00091F48091C4028E9DA0018F9D500D112420
:102AD00055954795559547959E016091C302809104
:102AE000C2020E94CA12B00EF1E0EF1AF108D1F64C
:102AF0001F5FACCF87FFDFCF90910901890FDBCF3C
:102B000090E001966091090170E00E94C324AECF6D
:102B10000F931F93CF93DF9380910701909108014A
:102B200023E0829FF0011124EA53FD4F891740F101
:102B3000C0E0D3E060910901C61740F10E944B1339
:102B40002091030180917102820F80937102909114
:102B50000401920F90930401191654F4082E000CEE
:102B6000990B409109014150550B841795071CF0B2
:102B7000219520930301DF91CF911F910F9108952B
:102B80001182108212828F5F3396D0CF0C2F10E00B
:102B900070E0C8010E94C32420910701820F482FD2
:102BA00050E020917102022E000C330B0217130724
:102BB000BCF020910401022E000C330B20173107CA
:102BC0007CF08D9F900111242A533D4F4091C40207
:102BD0006091C3028091C2020E94CA12CF5FAACF45
:102BE000FA01EE0FFF1FE40FF51FEA53FD4F1182AC
:102BF00010821282F3CFB0E0A0E0E1E0F6E10C94A5
:102C00003625EC014C81042F10E09801D8010E9478
:102C100007259B01AC010E941D254B015C01E0E2F0
:102C2000F0E0E01BF10BA5E5B0E0AC019B010E94D8
:102C30001D256B017C019F01DF010E94FF249B0188
:102C4000AC010E9428259B01AC01280D391D4A1DAD
:102C50005B1DC701B6010E94D724F22E822F90E09F
:102C600039E23F1520F143E0249F9001112435956E
:102C70002795122F109500E085E5E82EEF1880913A
:102C80000901081718F10E944B139C8181E09923D8
:102C900019F0903219F48FEF8093020180910201B4
:102CA000890F8C83CDB7DEB7ECE00C94522525E577
:102CB00030E0B901681B790B9B01220F331F260FEF
:102CC000371F37FFD4CF2F5F3F4FD1CF8E2D01FD60
:102CD0008F2D20910701622F600F7727771F9B01AF
:102CE000220F331F260F371F2A533D4F412F60916C
:102CF000C3020E94CA120F5FC2CF0F931F93CF93DC
:102D0000DF93EC0110E000E09091090190171106AB
:102D100009F06CF40E944B138C8190E00196817055
:102D200099278C83DF91CF911F910F910895209166
:102D30000701A801420F511D9A01220F331F240FD2
:102D4000351F2A533D4F4C816091C3028091C202CE
:102D500096959017110651F04CF0442349F040919C
:102D6000C4020E94CA120F5F1F4FCECF4423B9F393
:102D700040E0F7CFE1ECF2E080818E7F80836081DC
:102D80007181828193810E94EC1210927D022FEF5B
:102D900080E792E0215080409040E1F700C00000C1
:102DA0000E944B130895E1ECF2E080818E7F8083D6
:102DB00010927D022FEF80E792E0215080409040FA
:102DC000E1F700C000000E944B13089510927D02AD
:102DD00080917A0281110AC081E080937A02809109
:102DE000C1028170809379020E94D3160895609188
:102DF000C102669570E04BE050E08AE091E00E94ED
:102E00007325892B19F481E080937D020E94771D40
:102E1000909374028093730208959091C10290FF81
:102E20002BC09170811129C092609093C1026623DA
:102E300051F06091C1027091C2028091C3029091E1
:102E4000C4020E94EC126091C102669570E04BE0F2
:102E500050E08AE091E00E947325892BA9F010923E
:102E60007D0281E0809376024091C4026091C302AA
:102E70008091C2020E94D7140895853210F09864A0
:102E8000D4CF880F982BD1CF0E94F716EACF682FA6
:102E90009091C102969581E0890F853208F081E01A
:102EA0000E940D17089581E00E9447170895682F2A
:102EB0009091C10296958FEF890F09F484E20E94E8
:102EC0000D17089581E00E945717089561E00E9450
:102ED0000D170895E1ECF2E0808181608083869592
:102EE0000E94661708958091C10280FF03C00E946E
:102EF000BA1608950E946A17089560E00E940D179F
:102F0000089580917B0281112EC00E943E0D811197
:102F100004C00E94E70D0E94FF120E94E712609316
:102F2000C1027093C2028093C3029093C4026E7F69
:102F300061F40E94FF120E94E7126093C102709335
:102F4000C2028093C3029093C4020E94D8121092CE
:102F50007D028091C10280FF03C086950E947D178B
:102F600081E080937B020895E1ECF2E08081816052
:102F7000808386950E947D17089510927A02809131
:102F8000790281110E94B4170E94F71608950F93D9
:102F90001F93CF93DF9380917D028823B9F18091B5
:102FA0007C02E091C102E695E81BE0937502823055
:102FB00091F5F0E0EE58FD4FE491CE2FD0E00FE90F
:102FC00013E180917602882361F0109276020E94CC
:102FD000771D90937402809373021092780210927E
:102FE00077020E94771DE0917302F09174028E1BAC
:102FF0009F0B8F3F9F4750F4EC0FFD1FF09374021F
:10300000E093730283E792E0F8010995DF91CF9195
:103010001F910F910895863049F4F0E0E159FD4F7A
:10302000E491CE2FD0E003EB13E1CBCF893051F404
:10303000E695F0E0E459FD4FE491CE2FD0E00BEDA2
:1030400014E1BFCF8F3051F4E695F0E0E759FD4F22
:10305000E491CE2FD0E008E115E1B3CF853149F4FA
:10306000F0E0EA59FD4FE491CE2FD0E008E815E1F9
:10307000A8CFC8E2D0E00BEF15E1883109F4A1CF69
:10308000833239F4E4E6F2E0C591D49103EC13E124
:1030900098CFC4EFD1E00DE716E1843209F491CF67
:1030A000C0EDD7E006EC12E18CCFFA01811101C02E
:1030B000FB0109950895CF93DF93C82FD62F0E9467
:1030C0000F138C1748F00E940F138D1728F40E94DD
:1030D0005317DF91CF9108958C2F0E946617F9CF77
:1030E0001F93CF93DF93EC01FB01128111117EC07E
:1030F0000E94570C8272CD3CFCE5DF0709F49CC0AE
:1031000008F041C0C73CECE5DE0709F481C0D8F403
:10311000C43C9CE5D90709F471C030F4C33CDC45DC
:1031200009F469C011E062C0C53C9CE5D90709F407
:103130006AC04FE854E160E874E1C63CDC4591F7B1
:103140000E94551853C0CA3CFCE5DF0709F46AC069
:1031500068F4C83CECE5DE0709F45FC040EA54E1DE
:1031600061EB74E1C93CDC4559F3DCCFCB3C9CE519
:10317000D90709F45CC043E453E16BE273E1CC3C52
:10318000DC45F1F2CFCFC23DFCE5DF0709F465C0B5
:1031900098F4CF3C9CE5D90709F457C008F451C016
:1031A000C03DFCE5DF0709F455C0C13DDC4509F031
:1031B000B9CF6EE089E04BC0C53D9CE5D90709F465
:1031C00052C058F4C33DFCE5DF0709F449C0C43DD3
:1031D000DC4509F0A7CF88E135C0C63D9CE5D9079D
:1031E00009F444C0CE35DD4509F09CCF812FDF9135
:1031F000CF911F9108950E947317F8CF42E657E1CF
:1032000063E577E19DCF43E557E162E677E198CF4B
:1032100040E854E16FE874E193CF41EB54E160EA98
:1032200074E18ECF43ED54E162EC74E189CF42EC5E
:1032300054E163ED74E184CF4BE253E163E473E165
:103240007FCF81E00E946617D1CF65E082E00E94C7
:103250005B18CCCF68E086E0FACF64E18FE0F7CF6F
:1032600067E185E1F4CF62E289E1F1CF83E2EACF61
:10327000519A4BB14D7F5BB15260EFB7F8949B010F
:10328000220F331F260F371F280F391F2817390722
:1032900041F4EFBF8FE594E00197F1F700C0000023
:1032A0000895DC016D91CD0178E05BB9000000C0AC
:1032B00067FF4BB9660F000000C000C000C04BB9EB
:1032C00000C07A9591F7E2CFCF93DF93EC01FB0139
:1032D0008281882309F464C1C430FDE5DF07E0F58D
:1032E000CB3F9CE5D90730F49E0122503C45243168
:1032F0003105D8F50E94530D9093B0028093AF0230
:10330000C231ECE5DE0709F41FC108F06EC0C93018
:103310008CE5D80709F4F2C008F03FC0C530ECE5F1
:10332000DE0709F4DBC058F5C3308CE5D80709F493
:10333000CDC008F0CFC08091AF028160C230DC45C3
:1033400009F4AEC08091AF029091B0020E94610D6D
:103350000E94850580E009C0C63AEDE5DE0751F21E
:1033600038F4C2369DE5D90729F2DF91CF9108954F
:103370009E012E5A3D4523303105B8F7BBCF8091D1
:10338000AF028062C730FCE5DF0709F489C008F4AA
:10339000B1C08091AF02806483C0CD309CE5D90775
:1033A00009F4BAC070F48091AF028E7FCB30FCE597
:1033B000DF0709F475C008F4A7C08091AF028D7FC4
:1033C0006FC0CF309CE5D90709F4B6C008F4A8C097
:1033D000C031FCE5DF0709F4B3C0C131DC4509F0B9
:1033E000B1CF8091AF028F7B5BC0C1159DE5D9073E
:1033F00009F4B4C098F5CB3FFCE5DF0709F472C0CF
:10340000B8F4C4319CE5D90709F4B6C008F4A2C0E9
:10341000C531DC4509F096CF8091AF0282FB992738
:1034200090F921E0922790FB82F990FB83F938C054
:10343000CD3F8CE5D80709F477C008F457C0CE3FDC
:10344000ECE5DE0709F474C08091B0028360CF3FE1
:10345000DC4509F077CF8093B00274CFC2368DE59A
:10346000D80709F496C068F4C230EDE5DE0709F428
:103470008CC008F477C0C330DD4509F063CF80E02D
:1034800085C0CE3A9DE5D907E9F068F49091AF0286
:10349000892F8E7F90FF8160C63ADD4509F052CFBB
:1034A0008093AF024FCFCF3A8DE5D80789F1C03B6B
:1034B000DD4509F047CF9091B002892F877F93FFB8
:1034C0008860C9CF8091B0028860C5CF8091AF027B
:1034D0008260E6CF8091AF028460E2CF8091AF023C
:1034E0008860DECF8091B0028160B5CF8091B0025C
:1034F0008260B1CF8091AF028061D2CF0E948505FA
:103500008091AF028068CCCF8091AF028C60C8CF31
:103510008091B002877F9FCF8091AF028B7FC0CF19
:103520008091AF02877FBCCF8091B0028E7F93CF16
:103530008091B0028D7F8FCF8091AF028F7EB0CF10
:103540008091AF028F7DACCF0E9485058091AF0244
:103550008F77A6CF8091AF02837FA2CF8091B002F8
:103560008C7F79CF8091B002982F909591708E7F4B
:10357000892B90FB81F96FCF0E9485059091AF0256
:10358000892F97FB87F980588BCF81E00E94EA0D45
:10359000D9CE9091AF02892F8F7E94FF806180CF2A
:1035A00081E0E3CECF93DF93EB0186319C4511F5AB
:1035B0000E94570C9A81992399F08A7A91E009F434
:1035C00090E090937E02811109C089E20E942F0C45
:1035D0000E94980C80E0DF91CF91089585E3F6CFAB
:1035E00080917E02811104C089E20E94370CF0CFE5
:1035F00085E3FBCF81E0EFCF0F931F93CF93DF9352
:10360000C42FD22FFC0182818823C9F0409381020C
:103610000E94771D9093800280937F0280E28C0F3E
:10362000883040F4C77081E001C0880FCA95EAF77E
:103630000E946505DF91CF911F910F910895109120
:103640008102141332C080917F02909180020E9407
:103650008F1D8A3F910548F5C0E2CD0F1D17B9F0C7
:1036600080E2810F883040F4177081E001C0880F3C
:103670001A95EAF70E946C05C83048F481E09D2F46
:10368000977001C0880F9A95EAF70E946505802F10
:103690000E945C05C83070F6D77081E001C0880FC9
:1036A000DA95EAF70E946C05C5CF80E28C0F88306E
:1036B00008F6C77081E001C0880FCA95EAF7F2CF1B
:1036C0000F939C01CB01243F4CE5340759F1A8F43A
:1036D000293DFCE53F0701F12A3D4CE53407D1F1D6
:1036E000283D3C4591F406E221EE41EE68ED7CE593
:1036F0000E94FC1A80E00F910895263FFCE53F07E9
:10370000E9F0B0F0273F3C45F9F0FC0182818823C5
:1037100039F110928102EFCF07E225EE45EE69ED17
:103720007CE5E6CF06E221EE40EE64EF7CE5E0CFFB
:1037300007E225EE44EE65EF7CE5DACF06E221EE06
:1037400042EE66EF7CE5D4CF07E225EE46EE67EF6A
:103750007CE5CECF08E221E045EE6AED7CE5C8CFFE
:1037600081E0C9CF9093B9018093B80108959093F7
:103770008702809386020895E0918602F091870285
:10378000309729F00190F081E02D0995089580E0AF
:103790000895E0918602F0918702309799F0209188
:1037A0002101222359F02091AF0227FF07C0DC013D
:1037B0002C9111962C93119726E02C930280F38183
:1037C000E02D0995089520918402309185022817F3
:1037D000390771F09093850280938402E09186020C
:1037E000F0918702309721F00680F781E02D09954E
:1037F000089520918202309183022817390771F0D1
:103800009093830280938202E0918602F091870276
:10381000309721F00084F185E02D09950895FC0191
:10382000329680912101882321F08091AF029EE1A0
:1038300087FF96E080E0915008F4089521912223BB
:10384000D1F38F5FF8CF662301F12091210122236C
:10385000F1F02091AF0227FF1AC0462F46954695FA
:1038600046954E3190F4677021E030E002C0220F9F
:10387000331F6A95E2F7840F911DFC01828190E06D
:103880002823392381E0232B69F480E00895FC018B
:10389000329608962191261721F0E817F907D1F7FB
:1038A000F4CF81E008959C01FC0132969FEF80E007
:1038B0004191461751F09F3F19F4411101C0982FD3
:1038C0008F5F8630A9F79F3F09F40895290F311DB6
:1038D00097FD3A95F90162830895FC0132960896A6
:1038E0002191261303C0DF0111971C92E817F907F5
:1038F000B9F70895E62FE695E695E695EE3168F47A
:10390000E80FF92FF11D677021E030E001C0220FB0
:103910006A95EAF78281822B82830895E62FE695E5
:10392000E695E695EE3170F4E80FF92FF11D67701A
:1039300021E030E001C0220F6A95EAF720958281EC
:1039400028232283089520912101222339F02091F8
:10395000AF0227FF03C00E947A1C08950E94531CE7
:10396000089520912101222339F02091AF0227FFF1
:1039700003C00E948E1C08950E946D1C0895FC01D6
:10398000329680912101882351F08091AF0287FF08
:1039900006C08EE1DF011D928A95E9F7089586E061
:1039A000F9CF08950E94D11C0895811106C081E0CD
:1039B000809388020E94D21C089582E0F9CF83E0B0
:1039C000809388020E94D21C08950E94D51C0895FD
:1039D00081E0809388020E94D21C08950E94E81C16
:1039E0000895089508950E94F21C08950895089579
:1039F0000E94F11C0895CF930E94F61C0E94991119
:103A00000E94F71CC0E08C2F0E94CD10892B31F44E
:103A1000CF5FC430C1F780E0CF91089581E0FCCF43
:103A200085B7806885BF85B7806885BF08951F9278
:103A30001FB61F9211248F939F93AF93BF938091D2
:103A40008902811113C08091D5029091D602A09174
:103A5000D702B091D8024196A11DB11D8093D50225
:103A60009093D602A093D702B093D802BF91AF91A2
:103A70009F918F911F901FBE1F9018958091DD021E
:103A8000843031F10E94D9031092890288E190E0DC
:103A900020E40FB6F894A895809360000FBE2093A1
:103AA000600083B7817F846083BF83B7816083BFF9
:103AB0007894889583B78E7F83BF0FB6F894A895C6
:103AC00080916000886180936000109260000FBE5A
:103AD00008950E9485050E94E003089582E084BD58
:103AE00093E095BD9AEF97BD80936E0008952FB730
:103AF000F8948091D5029091D602A091D702B0910E
:103B0000D8022FBF08952FB7F8946091D502709115
:103B1000D6028091D7029091D8022FBF08959C01C0
:103B20004FB7F8948091D5029091D602A091D70218
:103B3000B091D8024FBF821B930B089578941F92C7
:103B40001FB61F9211248F939F93AF93BF938091C1
:103B5000D5029091D602A091D702B091D8020196D9
:103B6000A11DB11D8093D5029093D602A093D702D8
:103B7000B093D802BF91AF919F918F911F901FBEBC
:103B80001F90189581E08093E00080E28093D80038
:103B90001092C9008FE19EE40197F1F700C0000088
:103BA00087E090EBDC018093E6029093E702A0931C
:103BB000E802B093E90288E19CE00FB6F894A8957A
:103BC000809360000FBE90936000FFCF88E19CE07F
:103BD0000FB6F894A895809360000FBE9093600094
:103BE000FFCF8091AD0208950895CF93DF93EC014C
:103BF000809121018823B1F18091AF0287FF32C00B
:103C000060E282E08093E9008FEF9091E8008150BC
:103C100095FD06C095ED9A95F1F700008111F5CF5D
:103C20008091E80085FF1BC08091210170E050E089
:103C300040E0811104C050E040E068E070E0CE0157
:103C40000E941A208091E8008E778093E80080E23D
:103C5000FE01ADE8B2E001900D928A95E1F7DF91A7
:103C6000CF91089568E081E0CDCF80938A02709370
:103C70008C0260938B028091DD02843001F582E03A
:103C80008093E9008FEF9091E800815095FD06C088
:103C900095ED9A95F1F700008111F5CF8091E8003C
:103CA00085FF0DC050E040E063E070E08AE892E0FC
:103CB0000E941A208091E8008E778093E800089592
:103CC000BC0184E00E94351E0895BC0183E00E947F
:103CD000351E089508958091DC02811109C00E946B
:103CE000AA210E9407228091E20084608093E20072
:103CF00008951092DC0208950E94E81C08956091D6
:103D0000D90281E0611101C080E00E94DF1C0895AA
:103D10009091DD0281E0943009F080E06091D90259
:103D20000E94E51C089542E061EC81E00E9426219A
:103D300042E261EC82E00E9426219091DD0281E066
:103D4000943009F080E06091D9020E94D51C08955A
:103D50008091DF02833009F461C030F48130D1F109
:103D6000823009F49EC008958A3009F48AC08B30ED
:103D700009F46FC0893009F050C08091DE028132B1
:103D800009F04BC08091E2029091E302029708F0A3
:103D900044C08091E800877F8093E8008091E8002C
:103DA00082FF37C09091F3008091F200029731F4C6
:103DB0008091F100813011F0863021F48091F10082
:103DC0008093AD028091E8008B778093E8000E9499
:103DD0005A2123C08091DE02813AF9F48091E800F3
:103DE000877F8093E8008091E2029091E302892B23
:103DF00061F460E28DE892E070E00E9469208091B9
:103E0000E8008B778093E800089560E090E080E020
:103E1000F3CF8091DD028111C1CF08958091DE0240
:103E2000813AD9F78091E2029091E302892BA9F7B8
:103E30008091E800877F8093E8008091E80080FF10
:103E4000FCCF809121018093F1008091E8008E7772
:103E5000BCCF8091DE02813201F78091E202909125
:103E6000E302892BD1F68091E800877F8093E800F8
:103E70000E945A218091E002809321010E948505D1
:103E800008958091DE02813241F68091E800877FBB
:103E90008093E8000E945A218091E1028093AE0253
:103EA00008958091DE02813A09F0B7CF8091E80051
:103EB000877F8093E8008091E80080FFFCCF8091AD
:103EC000AE02C1CF84B7877F84BF0FB6F894A895A0
:103ED00080916000886180936000109260000FBE46
:103EE00080E890E00FB6F8948093610090936100B1
:103EF0000FBE0E94EE1C08950E94AA210E94072274
:103F0000E2EEF0E080818460808378940E948624D1
:103F1000089585E191E00E94B71B08958091DD022C
:103F2000853031F48091DD02853019F00E94691DE1
:103F300008950E943E1D8091DB02882399F30E9420
:103F4000FB1C882379F30E9404200E948505EACF98
:103F500008950E94AC1F0895292F3327233031057F
:103F600019F168F42130310509F444C022303105DB
:103F700009F445C090E080E030E020E025C0213227
:103F8000310549F122323105A9F780E490E02DE6B0
:103F900035E061157105C1F08DE690E020E035E077
:103FA0006130710589F0E6CF99278130910581F064
:103FB000009729F00297F1F6EBE7F4E002C0EFEA90
:103FC000F4E0849190E09F01FA0131832083089509
:103FD000E5E9F4E0F6CF89E090E025EC34E0611506
:103FE000710591F389E090E02EED34E061307105C8
:103FF00059F3C0CF82E190E02EEE34E0E5CF8BE3C1
:1040000090E023EB34E0E0CF80E189BD82E189BD1F
:1040100009B400FEFDCF8091D8008F7D8093D80039
:104020008091E00082608093E0008091E00081FD5B
:10403000FCCF0895AF92BF92CF92DF92FF920F9381
:104040001F93CF93DF936C01EB018A010E947921CA
:10405000F82E811123C00115110539F0F801808176
:104060009181C81BD90BC80ED91EB12CA12C209749
:10407000A9F08091E80085FD22C08091E8008E774C
:104080008093E80001151105A1F0F801808191816C
:10409000A80EB91EB182A08285E0F82E8F2DDF9187
:1040A000CF911F910F91FF90DF90CF90BF90AF9075
:1040B00008950E9479218823D1F2F82EEFCFF601DE
:1040C00081916F018093F1002197FFEFAF1ABF0A32
:1040D000CECFFC018091E4029091E502861797070C
:1040E000A0F06115710529F49091E8009E779093F6
:1040F000E80090E06115710551F4911108C08091BC
:10410000E80082FF34C080E00895BC01F2CF8091C6
:10411000DD028823C1F18530C1F18091E80083FD83
:1041200030C08091E80082FDEACF8091E80080FFF6
:10413000E1CF8091F3002091F200382F61157105D5
:1041400019F02830310558F091E02830310509F098
:1041500090E02091E8002E772093E800CBCF81916A
:104160008093F100615071092F5F3F4FE7CF80913D
:10417000DD02882341F0853041F08091E80083FF23
:10418000BECF81E0089582E0089583E00895FC01A8
:104190008091E4029091E50286179707A0F06115DF
:1041A000710529F48091E8008E778093E80090E013
:1041B0006115710551F4911108C08091E80082FFEA
:1041C00035C080E00895BC01F2CF8091DD028823E4
:1041D000C9F18530C9F18091E80083FD31C080913B
:1041E000E80082FDEACF8091E80080FFE1CF809176
:1041F000F3002091F200382F6115710519F0283075
:10420000310558F091E02830310509F090E08091B7
:10421000E8008E778093E800CBCF84918093F10003
:104220003196615071092F5F3F4FE6CF8091DD02DB
:10423000882341F0853041F08091E80083FFBDCFB5
:1042400081E0089582E0089583E00895982F9730E3
:1042500028F08F708093E90081E008959093E90041
:10426000242F762F50E0981731F07091EC002091B8
:10427000ED005091F00021FD02C09F5FE8CF30912A
:10428000EB003E7F3093EB003091ED003D7F3093AB
:10429000ED003091EB0031603093EB007093EC0057
:1042A0002093ED005093F0002091EE0027FDE5CF24
:1042B00080E008958091DE0287FF13C08091E800BE
:1042C00082FF06C08091E8008B778093E80004C0ED
:1042D0008091DD028111F2CF08958091DD02882363
:1042E000D9F38091E80080FFF8CF8091E8008E77C5
:1042F000ECCF2091E4003091E50095E6A9012091F2
:10430000EC00822F817020FF06C08091E80080FFC2
:1043100006C080E008952091E80022FD1AC0809137
:10432000DD02882389F0853089F08091EB0085FDDE
:104330000FC02091E4003091E50042175307F9F2D5
:104340009150E1F684E0089582E0089583E00895B5
:1043500081E008950E9419220E942122E0EEF0E0FF
:10436000808181608083E8EDF0E080818F778083B9
:1043700019BCA7EDB0E08C918E7F8C9380818F7EED
:1043800080831092DC0208950F931F93CF93DF93E5
:104390000E9419220E942122C8EDD0E088818F77E7
:1043A000888388818068888388818F7D888319BC11
:1043B0001092DD021092D9021092DB021092DA0202
:1043C00000EE10E0F80180818B7F8083888181601E
:1043D000888342E060E080E00E942621E1EEF0E088
:1043E00080818E7F8083E2EEF0E080818160808337
:1043F000808188608083F80180818E7F80838881BE
:1044000080618883DF91CF911F910F910895E8ED2E
:10441000F0E080818F7E8083E7EDF0E08081816035
:10442000808384E082BF81E08093DC020E94C4210B
:104430000895E8EDF0E080818E7F80831092E200A5
:1044400008951092DA001092E10008951F920F92E1
:104450000FB60F9211242F933F934F935F936F9357
:104460007F938F939F93AF93BF93EF93FF9380912D
:10447000E10082FF0BC08091E20082FF07C08091C3
:10448000E1008B7F8093E1000E9485248091DA0017
:1044900080FF19C08091D80080FF15C08091DA009C
:1044A0008E7F8093DA008091D90080FF96C080E1F2
:1044B00089BD82E189BD09B400FEFDCF81E0809312
:1044C000DD020E946B1E8091E10080FF19C0809187
:1044D000E20080FF15C08091E2008E7F8093E200B1
:1044E0008091E20080618093E2008091D800806238
:1044F0008093D80019BC85E08093DD020E947F1E66
:104500008091E10084FF2BC08091E20084FF27C0EE
:1045100080E189BD82E189BD89B5982F917080FFC6
:10452000FBCF8091D8008F7D8093D8008091E100EF
:104530008F7E8093E1008091E2008F7E8093E20085
:104540008091E20081608093E2008091D90288230B
:1045500009F449C084E08093DD020E94881E8091A6
:10456000E10083FF29C08091E20083FF25C0809194
:10457000E100877F8093E10082E08093DD0210926A
:10458000D9028091E1008E7F8093E1008091E2006A
:104590008E7F8093E2008091E20080618093E20050
:1045A00042E060E080E00E9426218091F000886077
:1045B0008093F0000E947C1EFF91EF91BF91AF911C
:1045C0009F918F917F916F915F914F913F912F912B
:1045D0000F900FBE0F901F90189519BC1092DD021E
:1045E0000E94791E70CF8091E30087FD93E0909345
:1045F000DD02B3CF1F920F920FB60F9211242F93AB
:104600003F934F935F936F937F938F939F93AF935A
:10461000BF93CF93DF93EF93FF93D091E900DF70C7
:104620008091EC00C82FC17080FDC0E81092E900B5
:104630008091F000877F8093F00078940E943E2361
:104640001092E9008091F00088608093F000CD2BFB
:10465000CF70C093E900FF91EF91DF91CF91BF91AF
:10466000AF919F918F917F916F915F914F913F910A
:104670002F910F900FBE0F901F901895AAE2B0E0F7
:10468000E4E4F3E20C943F258EED92E02091F100FA
:10469000FC012193CF01F2E0863E9F07B9F70E940B
:1046A000A81E8091E80083FF1EC18091DE029091D8
:1046B000DF029A3008F017C1E92FF0E0E451FA4D1B
:1046C0000C94F924803899F0823809F00CC180915B
:1046D000E2028F70873008F006C18093E900809174
:1046E000EB0085FB882780F91092E90006C08091D5
:1046F000DA029091DB02911182609091E800977F3D
:104700009093E8008093F1001092F1008091E8000E
:104710008E77E5C0882309F4D3C0823009F0E3C066
:104720008091E0028111D6C08091E2028F702FEF5C
:10473000280F263008F0D7C08093E9002091EB00C5
:1047400020FFC8C0933031F48091EB0080628093E9
:10475000EB00C0C09091EB0090619093EB0021E0E2
:1047600030E001C0220F8A95EAF72093EA00109208
:10477000EA008091EB008860EACF8111B4C010910B
:10478000E0021F778091E3008078812B8093E30023
:104790008091E800877F8093E8000E945A218091F1
:1047A000E80080FFFCCF8091E30080688093E30005
:1047B00082E0111183E08093DD0295C08058823041
:1047C00008F091C08091E0029091E1028C3D23E0DD
:1047D0009207A1F583E08A838AE289834FB7F89430
:1047E000DE01139620E03EE051E2E32FF0E050932B
:1047F0005700E49120FF03C0E295EF703F5FEF7038
:104800008E2F90E0EA30C0F0C7968D939D932F5F76
:10481000243159F74FBF8091E800877F8093E800EB
:104820006AE270E0CE0101960E9469208091E80062
:104830008B778093E80057C0C096E7CF6091E20283
:104840007091E302AE014F5F5F4F0E94A91FBC0150
:10485000892B09F448C09091E800977F9093E80075
:1048600089819A810E94C720E1CF8038E1F580914B
:10487000E800877F8093E8008091D9028093F1005F
:1048800045CF811130C09091E002923060F5809167
:10489000E800877F8093E8009093D9020E945A2114
:1048A0008091D902882311F084E005C08091E30053
:1048B00087FDFACF81E08093DD020E94931E13C032
:1048C0008091E002813079F481E0933009F080E05A
:1048D0008093DB021092E9008091E800877F80934B
:1048E000E8000E945A218091E80083FF0AC080916D
:1048F000E800877F8093E8008091EB0080628093DE
:10490000EB00AA96E3E00C945B250895CF93809189
:10491000DD028823A1F0C091E900CF709091EC00F6
:10492000892F817090FD80E8C82B1092E90080915A
:10493000E80083FD0E943E23CF70C093E900CF9131
:10494000089587FB082E062687FD819567FD6195F2
:104950000E9467250EF4919507FC81950895AA1B86
:10496000BB1B51E107C0AA1FBB1FA617B70710F05A
:10497000A61BB70B881F991F5A95A9F7809590958C
:10498000BC01CD01089597FB072E16F4009407D0C3
:1049900077FD09D00E94AF2407FC05D03EF4909526
:1049A00081959F4F0895709561957F4F0895A1E27D
:1049B0001A2EAA1BBB1BFD010DC0AA1FBB1FEE1F99
:1049C000FF1FA217B307E407F50720F0A21BB30BE4
:1049D000E40BF50B661F771F881F991F1A9469F760
:1049E00060957095809590959B01AC01BD01CF01BC
:1049F0000895EE0FFF1F0590F491E02D09940E9499
:104A00000725332312F48A1B9B0B0C941825A29FB5
:104A1000B001B39FC001A39F700D811D1124911D92
:104A2000B29F700D811D1124911D08950E940725CC
:104A3000B7FF0895821B930B08950E940725A59F39
:104A4000900DB49F900DA49F800D911D1124089589
:104A5000B7FF0C941D250E941D25821B930B089502
:104A60002F923F924F925F926F927F928F929F927E
:104A7000AF92BF92CF92DF92EF92FF920F931F936C
:104A8000CF93DF93CDB7DEB7CA1BDB0B0FB6F8941D
:104A9000DEBF0FBECDBF09942A88398848885F845D
:104AA0006E847D848C849B84AA84B984C884DF80CE
:104AB000EE80FD800C811B81AA81B981CE0FD11DB2
:104AC0000FB6F894DEBF0FBECDBFED010895991B60
:104AD00079E004C0991F961708F0961B881F7A95F5
:104AE000C9F780950895FC014150504030F0019085
:104AF0000616D1F73197CF01089588279927089591
:104B0000FB01DC0104C08D910190801921F441501A
:104B10005040C8F7881B990B0895FB01DC0102C0C7
:104B200001900D9241505040D8F70895F999FECF69
:104B300092BD81BDF89A992780B50895A6E1B0E0AD
:104B400044E050E00C94D025A8E1B0E042E050E011
:104B50000C94D025262FF999FECF92BD81BDF89AED
:104B6000019700B4021639F01FBA20BD0FB6F894B1
:104B7000FA9AF99A0FBE08950396272F0E94AB2543
:104B80000E94AA25252F0E94AB25242F0C94AB252B
:104B90000196272F0E94AB250C94AA25DC01CB019E
:104BA000FC01F999FECF06C0F2BDE1BDF89A31963D
:104BB00000B40D9241505040B8F70895F894FFCFDB
:104BC000F105F10525062506BB06570657065706CB
:104BD000D50648075807580762238A2373248A2377
:0C4BE0007324BD23DE23732435244124FC
:104BEC003802010102000500050501191A1B1C1DE4
:104BFC001E1F202122F11DF51D6A1E651E601EF46C
:104C0C001D01E200E900EA00B500B600B700CD00D6
:104C1C008301CC008A019201940121022302240217
:104C2C002502260227022A02B300B4006F0070008E
:104C3C00818283E200E900EA00B500B600B700CD3E
:104C4C00008301CC008A01920194012102230224E9
:104C5C00022502260227022A02B300B4006F00705C
:104C6C00008182833332363534C69766F4F5F6F715
:104C7C003194900001020202020606060909090994
:104C8C0009090F0F0F0F0F0F1515151819191919F1
:084C9C00191919191919232433
:00000001FF
